8=FIX.4.1|9=81|35=6|49=TESTI|56=TESTA|34=121|52=20030203-16:10:01|23=24|28=N|55=TESTB|54=1|27=S|10=101|
8=FIX.4.1|9=83|35=7|49=TESTI|56=TESTA|34=31|52=20030203-16:02:35|2=20|5=N|55=TESTB|4=T|53=1000000|10=191|
8=FIX.4.1|9=135|35=8|49=TESTI|56=TESTA|34=114|52=20030203-16:09:30|37=11111111|17=11|20=0|39=0|150=0|55=TESTB|54=1|38=1000|32=0|31=0|151=1000|14=0|6=0|10=172|
8=FIX.4.1|9=125|35=8|49=TESTI|56=TESTA|34=114|52=20030203-16:09:30|37=11111111|17=12|20=3|39=0|150=0|55=TESTB|54=1|38=1000|151=1000|14=0|6=0|10=010|
8=FIX.4.1|9=96|35=9|49=TESTI|56=TESTA|34=3|52=20030203-16:13:14|37=11111111|11=12121212122|41=11111111111|39=0|10=162|
8=FIX.4.1|9=143|35=B|49=TESTI|56=TESTA|34=19|52=20030203-16:21:17|148=Weather|33=4|58=In the evening |58=it might be wet |58=and windy.|58= Take your coat on.|10=182|
8=FIX.4.1|9=147|35=C|49=TESTI|56=TESTA|34=4|52=20030203-16:20:05|164=111111111|94=0|147=Bunny's Birthday|33=3|58=Hello, Bunny!|58=Happy Birthday to you :)|58=Bye.|10=130|
8=FIX.4.1|9=107|35=D|49=TESTI|56=TESTA|34=4|50=30737|97=Y|52=20030204-08:46:14|11=90001008|21=2|55=TESTB|54=1|38=4000|40=1|10=075|
8=FIX.4.1|9=112|35=E|49=TESTI|56=TESTA|34=3|52=20030204-08:18:22|66=20012411|67=2|68=3|11=1131|21=3|55=TESTB3|54=3|38=3000|40=1|10=241|
8=FIX.4.1|9=127|35=E|49=TESTI|56=TESTA|34=3|52=20030204-08:18:22|66=20012411|67=1|68=3|69=Instruction|11=1130|21=3|55=TESTB3|54=1|38=5000|40=1|10=068|
8=FIX.4.1|9=95|35=F|49=TESTI|56=TESTA|34=9|52=20030204-08:46:38|41=90001008|11=16161516|55=TESTB|54=1|38=4000|10=024|
8=FIX.4.1|9=105|35=G|49=TESTI|56=TESTA|34=6|52=20030204-08:49:18|11=12233345|41=90001008|21=2|55=TESTB|54=1|38=4000|40=1|10=225|
8=FIX.4.1|9=110|35=G|49=TESTI|56=TESTA|34=6|52=20030204-08:49:18|11=12233346|41=90001009|21=2|63=0|55=TESTB|54=1|38=5000|40=1|10=183|
8=FIX.4.1|9=76|35=H|49=TESTI|56=TESTA|34=12|52=20030204-08:49:42|11=90001008|55=TESTB|54=1|10=150|
8=FIX.4.1|9=195|35=J|49=TESTI|56=TESTA|34=4|52=20030204-08:56:41|70=1116226|71=0|73=2|11=90001008|11=90000008|54=1|55=TESTB|53=1004000|6=30|75=20030821|78=3|79=1000|80=500000|79=2000|80=400000|79=3000|80=104000|10=029|
8=FIX.4.1|9=61|35=K|49=TESTI|56=TESTA|34=6|52=20030204-09:07:50|66=20012411|10=097|
8=FIX.4.1|9=61|35=L|49=TESTI|56=TESTA|34=9|52=20030204-09:08:00|66=20012411|10=097|
8=FIX.4.1|9=62|35=M|49=TESTI|56=TESTA|34=12|52=20030204-09:08:11|66=20012411|10=143|
8=FIX.4.1|9=187|35=N|49=TESTI|56=TESTA|34=15|52=20030204-09:08:23|66=20012411|82=3|83=1|73=3|11=1111|151=89|14=11|84=0|6=12|11=1121|151=500|14=1000|84=1000|6=2.28|11=1131|151=500|14=2500|84=1500|6=34.11|10=175|
8=FIX.4.1|9=80|35=P|49=TESTI|56=TESTA|34=7|52=20030204-09:17:25|70=3659000001|75=20030808|87=0|10=239|
8=FIX.4.1|9=77|35=Q|49=TESTI|56=TESTA|34=4|52=20030204-09:28:44|127=D|55=TESTB|54=1|38=4000|10=200|
8=FIX.4.1|9=70|35=R|49=TESTI|56=TESTA|34=8|52=20030204-09:25:21|131=1272727|55=TESTB|10=156|
8=FIX.4.1|9=78|35=S|49=TESTI|56=TESTA|34=14|52=20030204-09:25:43|117=11223|55=TESTB|133=15.3|10=003|
8=FIX.4.1|9=111|35=T|49=TESTI|56=TESTA|34=14|52=20030204-09:25:43|162=11223|163=N|160=0|165=1|79=KTierney|60=20060217-10:00:00|10=105|