8=FIX.4.1|9=127|35=E|49=TESTI|56=TESTA|34=3|52=20030204-08:18:22|66=20012411|67=1|68=3|69=Instruction|11=1130|21=3|55=TESTB3|54=1|38=5000|40=1|10=068|
