8=FIX.4.1|9=110|35=G|49=TESTI|56=TESTA|34=6|52=20030204-08:49:18|11=12233346|41=90001009|21=2|63=0|55=TESTB|54=1|38=5000|40=1|10=183|
