8=FIXT.1.1|9=169|35=8|1128=7|49=TESTI|56=TESTA|34=2|52=20081023-16:57:48|37=55667788|17=34|150=F|39=1|55=IBM|54=2|38=1000000|32=400000|1056=2|31=1.589999|151=600000|14=400000|6=1.589999|10=219|
