8=FIXT.1.1|9=135|35=T|1128=7|49=TESTI|56=TESTA|34=2|52=20081023-17:06:19|777=112233|160=5|792=99|60=20080717-10:00:00|778=1|162=162162|163=R|214=214214|10=178|
