8=FIX.4.4|9=214|35=AK|49=SNDR|56=TRGT|34=2|50=30737|52=20090320-11:08:48.318|664=0001|666=0|773=1|665=4|60=20060217-10:00:00|75=2006-0217|55=TESTA|80=1000|54=1|862=2|528=A|863=400|528=P|863=600|79=KTierney|6=20|381=20000|118=2000|10=116|
8=FIX.4.4|9=215|35=AK|49=SNDR|56=TRGT|34=3|50=30737|52=20090320-11:08:56.818|664=0001|666=0|773=1|665=4|60=20060217-10:00:00|75=2006-02-17|55=TESTA|80=1000|54=1|862=2|528=A|863=400|528=P|863=600|79=KTierney|6=20|381=20000|118=2000|10=167|
8=FIX.4.4|9=211|35=AK|49=SNDR|56=TRGT|34=4|50=30737|52=20090320-11:09:10.083|664=0001|666=0|773=1|665=4|60=20060217-10:00:00|75=200602|55=TESTA|80=1000|54=1|862=2|528=A|863=400|528=P|863=600|79=KTierney|6=20|381=20000|118=2000|10=211|
8=FIX.4.4|9=209|35=AK|49=SNDR|56=TRGT|34=5|50=30737|52=20090320-11:09:16.458|664=0001|666=0|773=1|665=4|60=20060217-10:00:00|75=2006|55=TESTA|80=1000|54=1|862=2|528=A|863=400|528=P|863=600|79=KTierney|6=20|381=20000|118=2000|10=133|
8=FIX.4.4|9=213|35=AK|49=SNDR|56=TRGT|34=6|50=30737|52=20090320-11:09:23.036|664=0001|666=0|773=1|665=4|60=20060217-10:00:00|75=02172006|55=TESTA|80=1000|54=1|862=2|528=A|863=400|528=P|863=600|79=KTierney|6=20|381=20000|118=2000|10=065|
