8=FIX.4.4|9=185|35=s|49=SNDR|56=TRGT|34=2|50=30737|97=Y|52=20090320-11:23:06.432|548=90001008|549=1|550=0|552=2|54=1|11=B101010|38=4000|54=2|11=S101010|38=5000|55=TESTA|60=20060217-10:00:00|40=1|18=  |10=130|
8=FIX.4.4|9=185|35=s|49=SNDR|56=TRGT|34=3|50=30737|97=Y|52=20090320-11:23:18.681|548=90001008|549=1|550=0|552=2|54=1|11=B101010|38=4000|54=2|11=S101010|38=5000|55=TESTA|60=20060217-10:00:00|40=1|18=00|10=172|
8=FIX.4.4|9=188|35=s|49=SNDR|56=TRGT|34=4|50=30737|97=Y|52=20090320-11:23:25.322|548=90001008|549=1|550=0|552=2|54=1|11=B101010|38=4000|54=2|11=S101010|38=5000|55=TESTA|60=20060217-10:00:00|40=1|18=99 AA|10=090|
8=FIX.4.4|9=191|35=s|49=SNDR|56=TRGT|34=5|50=30737|97=Y|52=20090320-11:23:47.509|548=90001008|549=1|550=0|552=2|54=1|11=B101010|38=4000|54=2|11=S101010|38=5000|55=TESTA|60=20060217-10:00:00|40=1|18=Z aA EeE|10=119|
