8=FIX.4.4|9=91|35=7|49=SNDR|56=TRGT|34=3|52=20090320-10:45:33.585|2=20|5=R|3=0003|55=TESTB|4=b|53=1000000|10=025|
8=FIX.4.4|9=91|35=7|49=SNDR|56=TRGT|34=4|52=20090320-10:45:39.742|2=20|5=R|3=0003|55=TESTB|4=x|53=1000000|10=049|
8=FIX.4.4|9=94|35=7|49=SNDR|56=TRGT|34=5|52=20090320-10:45:45.851|2=20|5=R|3=0003|55=TESTB|4=sell|53=1000000|10=107|
8=FIX.4.4|9=95|35=7|49=SNDR|56=TRGT|34=6|52=20090320-10:45:52.898|2=20|5=R|3=0003|55=TESTB|4=TRADE|53=1000000|10=054|
