8=FIX.4.4|9=129|35=8|49=SNDR|56=TRGT|34=2|52=20090320-10:32:45.142|37=11111111|17=11|39=0|150=0|55=TESTB|54=1|38=1000|151=1000|14=0|6=0|119=+100|10=163|
8=FIX.4.4|9=129|35=8|49=SNDR|56=TRGT|34=3|52=20090320-10:32:51.095|37=11111111|17=11|39=0|150=0|55=TESTB|54=1|38=1000|151=1000|14=0|6=0|119=/100|10=172|
8=FIX.4.4|9=129|35=8|49=SNDR|56=TRGT|34=4|52=20090320-10:32:57.658|37=11111111|17=11|39=0|150=0|55=TESTB|54=1|38=1000|151=1000|14=0|6=0|119=*100|10=179|
8=FIX.4.4|9=129|35=8|49=SNDR|56=TRGT|34=5|52=20090320-10:33:05.220|37=11111111|17=11|39=0|150=0|55=TESTB|54=1|38=1000|151=1000|14=0|6=0|119=100%|10=154|
8=FIX.4.4|9=131|35=8|49=SNDR|56=TRGT|34=6|52=20090320-10:33:16.704|37=11111111|17=11|39=0|150=0|55=TESTB|54=1|38=1000|151=1000|14=0|6=0|119=1.00E7|10=034|
8=FIX.4.4|9=132|35=8|49=SNDR|56=TRGT|34=7|52=20090320-10:33:25.220|37=11111111|17=11|39=0|150=0|55=TESTB|54=1|38=1000|151=1000|14=0|6=0|119=1.00e-7|10=106|
8=FIX.4.4|9=134|35=8|49=SNDR|56=TRGT|34=8|52=20090320-10:33:36.767|37=11111111|17=11|39=0|150=0|55=TESTB|54=1|38=1000|151=1000|14=0|6=0|119=1,000,000|10=160|
8=FIX.4.4|9=134|35=8|49=SNDR|56=TRGT|34=9|52=20090320-10:33:58.407|37=11111111|17=11|39=0|150=0|55=TESTB|54=1|38=1000|151=1000|14=0|6=0|119=1.000.000|10=160|
