8=FIX.4.4|9=91|35=7|49=SNDR|56=TRGT|34=2|52=20090320-10:51:22.894|2=20|5=N|55=TESTB|4=T|53=1000000|15=usd|10=192|
8=FIX.4.4|9=89|35=7|49=SNDR|56=TRGT|34=3|52=20090320-10:51:33.675|2=20|5=N|55=TESTB|4=T|53=1000000|15=$|10=159|
8=FIX.4.4|9=92|35=7|49=SNDR|56=TRGT|34=4|52=20090320-10:53:08.080|2=20|5=N|55=TESTB|4=T|53=1000000|15=EURO|10=171|
