8=FIX.4.4|9=96|35=7|49=TESTI|56=TESTA|34=31|52=20030203-16:02:35|2=20|5=N|55=TESTB|4=T|53=1000000|354=1|355=√€|10=075|
