8=FIX.4.4|9=129|35=V|49=SNDR|56=TRGT|34=2|52=20090320-11:17:59.482|262=11223|263=0|264=0|267=2|269=0|269=1|146=2|55=TESTA|55=TESTB|200=2008-1111|10=168|
8=FIX.4.4|9=130|35=V|49=SNDR|56=TRGT|34=3|52=20090320-11:18:11.373|262=11223|263=0|264=0|267=2|269=0|269=1|146=2|55=TESTA|55=TESTB|200=2008-11-11|10=194|
8=FIX.4.4|9=127|35=V|49=SNDR|56=TRGT|34=4|52=20090320-11:18:34.826|262=11223|263=0|264=0|267=2|269=0|269=1|146=2|55=TESTA|55=TESTB|200=2008-11|10=066|
8=FIX.4.4|9=124|35=V|49=SNDR|56=TRGT|34=5|52=20090320-11:18:54.450|262=11223|263=0|264=0|267=2|269=0|269=1|146=2|55=TESTA|55=TESTB|200=2008|10=172|
8=FIX.4.4|9=126|35=V|49=SNDR|56=TRGT|34=6|52=20090320-11:19:23.419|262=11223|263=0|264=0|267=2|269=0|269=1|146=2|55=TESTA|55=TESTB|200=022008|10=019|
8=FIX.4.4|9=128|35=V|49=SNDR|56=TRGT|34=7|52=20090320-11:20:02.918|262=11223|263=0|264=0|267=2|269=0|269=1|146=2|55=TESTA|55=TESTB|200=200811w0|10=182|
8=FIX.4.4|9=128|35=V|49=SNDR|56=TRGT|34=8|52=20090320-11:20:13.887|262=11223|263=0|264=0|267=2|269=0|269=1|146=2|55=TESTA|55=TESTB|200=200811w6|10=196|
8=FIX.4.4|9=128|35=V|49=SNDR|56=TRGT|34=9|52=20090320-11:20:29.527|262=11223|263=0|264=0|267=2|269=0|269=1|146=2|55=TESTA|55=TESTB|200=200811W1|10=158|
8=FIX.4.4|9=129|35=V|49=SNDR|56=TRGT|34=10|52=20090320-11:20:34.855|262=11223|263=0|264=0|267=2|269=0|269=1|146=2|55=TESTA|55=TESTB|200=200811W4|10=202|
