8=FIX.4.4|9=118|35=8|49=SNDR|56=TRGT|34=2|52=20090320-12:28:51.289|37=<>"|'@|17=11|39=0|150=0|55=TESTB|54=1|38=1000|151=1000|14=0|6=0|10=150|
