8=FIX.4.4|9=145|35=AS|49=SNDR|56=TRGT|34=2|50=30737|97=Y|52=20090320-10:39:59.027|755=0001|71=0|794=5|87=0|857=0|54=2|55=TESTB|53=10000|6=10.5|75=20060217|700=T|10=072|
8=FIX.4.4|9=145|35=AS|49=SNDR|56=TRGT|34=3|50=30737|97=Y|52=20090320-10:40:05.012|755=0001|71=0|794=5|87=0|857=0|54=2|55=TESTB|53=10000|6=10.5|75=20060217|700=F|10=036|
8=FIX.4.4|9=148|35=AS|49=SNDR|56=TRGT|34=4|50=30737|97=Y|52=20090320-10:40:09.918|755=0001|71=0|794=5|87=0|857=0|54=2|55=TESTB|53=10000|6=10.5|75=20060217|700=true|10=181|
8=FIX.4.4|9=149|35=AS|49=SNDR|56=TRGT|34=5|50=30737|97=Y|52=20090320-10:40:16.027|755=0001|71=0|794=5|87=0|857=0|54=2|55=TESTB|53=10000|6=10.5|75=20060217|700=false|10=247|
8=FIX.4.4|9=145|35=AS|49=SNDR|56=TRGT|34=6|50=30737|97=Y|52=20090320-10:40:23.339|755=0001|71=0|794=5|87=0|857=0|54=2|55=TESTB|53=10000|6=10.5|75=20060217|700=0|10=029|
8=FIX.4.4|9=145|35=AS|49=SNDR|56=TRGT|34=7|50=30737|97=Y|52=20090320-10:40:28.402|755=0001|71=0|794=5|87=0|857=0|54=2|55=TESTB|53=10000|6=10.5|75=20060217|700=1|10=027|
