8=FIXT.1.1|9=216|35=AK|1128=7|49=TESTI|56=TESTA|34=2|52=20081023-16:59:27|664=0001|772=7722|666=1|773=1|665=4|60=20080717-10:04:11|75=20080717|55=IBM|80=1000|54=1|862=2|528=A|863=400|528=P|863=600|79=KTierney|6=20|381=20000|118=2000|10=029|
