<?xml version="1.0" encoding="UTF-8"?>

<!DOCTYPE cases SYSTEM "misc/cases.dtd" [
        <!ENTITY % content SYSTEM "misc/entity/definitions.inc">
        %content; ]>

<cases>
    <case name="ResendRequest prepare" updater="SmartLazyUpdater">
        &CLEAN_LOGS;
        &ENGINE_UP;
        <transport className="AcceptorSocketTransport" port="&PORT;">
            &SESSION_UP;
            &RECEIVE_LOGON;
            <send>8=FIX.4.2#9=0#35=A#49=&ME;#56=&YOU;#34=1#52=00000000-00:00:00#98=0#108=30#10=000#</send>

            &SEND_MESSAGE;
            &SEND_MESSAGE;
            &SEND_MESSAGE;

            <expect>8=FIX\.4\.2#9=\d*#35=D#34=2#49=&YOU;#56=&ME;#52=&DATETIMEMS;#10=\d{3}#</expect>
            <expect>8=FIX\.4\.2#9=\d*#35=D#34=3#49=&YOU;#56=&ME;#52=&DATETIMEMS;#10=\d{3}#</expect>
            <expect>8=FIX\.4\.2#9=\d*#35=D#34=4#49=&YOU;#56=&ME;#52=&DATETIMEMS;#10=\d{3}#</expect>

            <send>8=FIX.4.2#9=191#35=D#49=&ME;#56=&YOU;#34=2#50=1#52=00000000-00:00:00#11=cboeopt-06#1=TEST02#21=1#100=W#55=MSFT#54=1#60=20100528-13:02:21#38=100#40=2#44=10#204=0#5049=ASH#5056=EHUB#5050=20100528-13:09:41.058#10=224#</send>
            <send>8=FIX.4.2#9=191#35=D#49=&ME;#56=&YOU;#34=3#50=1#52=00000000-00:00:00#11=cboeopt-06#1=TEST03#21=1#100=W#55=MSFT#54=1#60=20100528-13:02:21#38=100#40=2#44=10#204=0#5049=ASH#5056=EHUB#5050=20100528-13:09:41.058#10=224#</send>
            <send>8=FIX.4.2#9=191#35=D#49=&ME;#56=&YOU;#34=4#50=1#52=00000000-00:00:00#11=cboeopt-06#1=TEST04#21=1#100=W#55=MSFT#54=1#60=20100528-13:02:21#38=100#40=2#44=10#204=0#5049=ASH#5056=EHUB#5050=20100528-13:09:41.058#10=224#</send>

            <!--Be sure that messages are in storage -->
            <expect>8=FIX\.4\.2#9=\d{1,3}#35=0#34=5#49=&YOU;#56=&ME;#52=&DATETIMEMS;#10=\d{3}#</expect>

            &SESSION_DOWN;
        </transport>
        &ENGINE_DOWN;
    </case>
    <case name="ResendRequest on both side" updater="SmartLazyUpdater">
        &ENGINE_UP;
        <transport className="AcceptorSocketTransport" port="&PORT;">
            &SESSION_UP;
            <!-- exchange with logons -->
            <expect>8=FIX\.4\.2#9=\d*#35=A#49=&YOU;#56=&ME;#34=\d#52=&DATETIMEMS;#98=0#108=\d#10=\d{3}#</expect>
            <send>8=FIX.4.2#9=0#35=A#49=&ME;#56=&YOU;#34=7#52=00000000-00:00:00#98=0#108=30#10=000#</send>

            <expect>8=FIX\.4\.2#9=\d*#35=2#34=\d*#49=&YOU;#56=&ME;#52=&DATETIMEMS;#7=5#16=0#10=\d{3}#</expect>

            <send>8=FIX.4.2#9=191#35=D#49=&ME;#56=&YOU;#34=5#50=1#52=00000000-00:00:00#43=Y#122=00000000-00:00:00#11=cboeopt-06#1=TEST01#21=1#100=W#55=MSFT#54=1#60=20100528-13:02:21#38=100#40=2#44=10#204=0#5049=ASH#5056=EHUB#5050=20100528-13:09:41.058#10=224#</send>
            <send>8=FIX.4.2#9=191#35=D#49=&ME;#56=&YOU;#34=6#50=1#52=00000000-00:00:00#43=Y#122=00000000-00:00:00#11=cboeopt-06#1=TEST01#21=1#100=W#55=MSFT#54=1#60=20100528-13:02:21#38=100#40=2#44=10#204=0#5049=ASH#5056=EHUB#5050=20100528-13:09:41.058#10=224#</send>

            <send>8=FIX.4.2#9=60#35=4#34=8#49=&ME;#56=&YOU;#52=00000000-00:00:00#122=00000000-00:00:00#43=Y#123=Y#36=9#10=131#</send>

            <send>8=FIX.4.2#9=0#35=0#49=&ME;#56=&YOU;#34=9#52=00000000-00:00:00#10=000#</send>
            <expect>8=FIX\.4\.2#9=\d{1,3}#35=0#34=8#49=&YOU;#56=&ME;#52=&DATETIMEMS;#10=\d{3}#</expect>

            <!-- logout -->
            <send>8=FIX.4.2#9=136#35=5#49=&ME;#56=&YOU;#34=10#52=00000000-00:00:00#10=213#</send>
            &SESSION_DOWN;
        </transport>
        &ENGINE_DOWN;
    </case>
</cases>
