8=FIX.4.4|9=110|35=X|49=SNDR|56=TRGT|34=2|52=20090320-11:00:27.137|268=2|279=1|280=0001|270=10|279=1|280=0002|270=11|287=+100|10=006|
8=FIX.4.4|9=110|35=X|49=SNDR|56=TRGT|34=3|52=20090320-11:00:31.090|268=2|279=1|280=0001|270=10|279=1|280=0002|270=11|287=/100|10=004|
8=FIX.4.4|9=110|35=X|49=SNDR|56=TRGT|34=4|52=20090320-11:00:35.027|268=2|279=1|280=0001|270=10|279=1|280=0002|270=11|287=*100|10=004|
8=FIX.4.4|9=110|35=X|49=SNDR|56=TRGT|34=5|52=20090320-11:00:41.761|268=2|279=1|280=0001|270=10|279=1|280=0002|270=11|287=100%|10=002|
8=FIX.4.4|9=109|35=X|49=SNDR|56=TRGT|34=6|52=20090320-11:01:01.792|268=2|279=1|280=0001|270=10|279=1|280=0002|270=11|287=7e7|10=041|
8=FIX.4.4|9=110|35=X|49=SNDR|56=TRGT|34=7|52=20090320-11:01:08.527|268=2|279=1|280=0001|270=10|279=1|280=0002|270=11|287=7E-7|10=050|
8=FIX.4.4|9=111|35=X|49=SNDR|56=TRGT|34=8|52=20090320-11:01:25.761|268=2|279=1|280=0001|270=10|279=1|280=0002|270=11|287=1.001|10=067|
8=FIX.4.4|9=110|35=X|49=SNDR|56=TRGT|34=9|52=20090320-11:01:50.542|268=2|279=1|280=0001|270=10|279=1|280=0002|270=11|287=.001|10=013|
8=FIX.4.4|9=111|35=X|49=SNDR|56=TRGT|34=10|52=20090320-11:02:11.885|268=2|279=1|280=0001|270=10|279=1|280=0002|270=11|287=.000|10=061|
8=FIX.4.4|9=110|35=X|49=SNDR|56=TRGT|34=11|52=20090320-11:02:28.526|268=2|279=1|280=0001|270=10|279=1|280=0002|270=11|287=10.|10=014|
8=FIX.4.4|9=113|35=X|49=SNDR|56=TRGT|34=12|52=20090320-11:02:36.572|268=2|279=1|280=0001|270=10|279=1|280=0002|270=11|287=10,000|10=160|
