8=FIX.4.4|9=213|35=AK|49=SNDR|56=TRGT|34=2|50=30737|52=20090320-11:44:57.712|664=0001|666=0|773=1|665=4|60=20060217-10:00:00|75=20060217|55=TESTA|80=+100|54=1|862=2|528=A|863=400|528=P|863=600|79=KTierney|6=20|381=20000|118=2000|10=063|
8=FIX.4.4|9=213|35=AK|49=SNDR|56=TRGT|34=3|50=30737|52=20090320-11:45:02.696|664=0001|666=0|773=1|665=4|60=20060217-10:00:00|75=20060217|55=TESTA|80=/100|54=1|862=2|528=A|863=400|528=P|863=600|79=KTierney|6=20|381=20000|118=2000|10=070|
8=FIX.4.4|9=213|35=AK|49=SNDR|56=TRGT|34=4|50=30737|52=20090320-11:45:06.727|664=0001|666=0|773=1|665=4|60=20060217-10:00:00|75=20060217|55=TESTA|80=*100|54=1|862=2|528=A|863=400|528=P|863=600|79=KTierney|6=20|381=20000|118=2000|10=065|
8=FIX.4.4|9=213|35=AK|49=SNDR|56=TRGT|34=5|50=30737|52=20090320-11:45:12.758|664=0001|666=0|773=1|665=4|60=20060217-10:00:00|75=20060217|55=TESTA|80=100%|54=1|862=2|528=A|863=400|528=P|863=600|79=KTierney|6=20|381=20000|118=2000|10=062|
8=FIX.4.4|9=215|35=AK|49=SNDR|56=TRGT|34=6|50=30737|52=20090320-11:45:23.133|664=0001|666=0|773=1|665=4|60=20060217-10:00:00|75=20060217|55=TESTA|80=1.00E7|54=1|862=2|528=A|863=400|528=P|863=600|79=KTierney|6=20|381=20000|118=2000|10=187|
8=FIX.4.4|9=216|35=AK|49=SNDR|56=TRGT|34=7|50=30737|52=20090320-11:45:28.571|664=0001|666=0|773=1|665=4|60=20060217-10:00:00|75=20060217|55=TESTA|80=1.00e-7|54=1|862=2|528=A|863=400|528=P|863=600|79=KTierney|6=20|381=20000|118=2000|10=021|
8=FIX.4.4|9=218|35=AK|49=SNDR|56=TRGT|34=8|50=30737|52=20090320-11:45:37.852|664=0001|666=0|773=1|665=4|60=20060217-10:00:00|75=20060217|55=TESTA|80=1,000,000|54=1|862=2|528=A|863=400|528=P|863=600|79=KTierney|6=20|381=20000|118=2000|10=059|
8=FIX.4.4|9=218|35=AK|49=SNDR|56=TRGT|34=9|50=30737|52=20090320-11:45:43.289|664=0001|666=0|773=1|665=4|60=20060217-10:00:00|75=20060217|55=TESTA|80=1.000.000|54=1|862=2|528=A|863=400|528=P|863=600|79=KTierney|6=20|381=20000|118=2000|10=065|
