8=FIX.4.4|9=213|35=AK|49=SNDR|56=TRGT|34=2|50=30737|52=20090320-12:35:10.316|664=0001|666=0|773=1|665=4|60=20060217T10:00:00|75=20060217|55=TESTA|80=1000|54=1|862=2|528=A|863=400|528=P|863=600|79=KTierney|6=20|381=20000|118=2000|10=097|
8=FIX.4.4|9=215|35=AK|49=SNDR|56=TRGT|34=3|50=30737|52=20090320-12:35:42.847|664=0001|666=0|773=1|665=4|60=2006-02-17-10:00:00|75=20060217|55=TESTA|80=1000|54=1|862=2|528=A|863=400|528=P|863=600|79=KTierney|6=20|381=20000|118=2000|10=165|
8=FIX.4.4|9=211|35=AK|49=SNDR|56=TRGT|34=4|50=30737|52=20090320-12:36:09.127|664=0001|666=0|773=1|665=4|60=200602-10:00:00|75=20060217|55=TESTA|80=1000|54=1|862=2|528=A|863=400|528=P|863=600|79=KTierney|6=20|381=20000|118=2000|10=219|
8=FIX.4.4|9=209|35=AK|49=SNDR|56=TRGT|34=5|50=30737|52=20090320-12:36:20.252|664=0001|666=0|773=1|665=4|60=2006-10:00:00|75=20060217|55=TESTA|80=1000|54=1|862=2|528=A|863=400|528=P|863=600|79=KTierney|6=20|381=20000|118=2000|10=121|
8=FIX.4.4|9=204|35=AK|49=SNDR|56=TRGT|34=6|50=30737|52=20090320-12:36:27.065|664=0001|666=0|773=1|665=4|60=10:00:00|75=20060217|55=TESTA|80=1000|54=1|862=2|528=A|863=400|528=P|863=600|79=KTierney|6=20|381=20000|118=2000|10=137|
8=FIX.4.4|9=197|35=AK|49=SNDR|56=TRGT|34=7|50=30737|52=20090320-12:36:38.158|664=0001|666=0|773=1|665=4|60=Y|75=20060217|55=TESTA|80=1000|54=1|862=2|528=A|863=400|528=P|863=600|79=KTierney|6=20|381=20000|118=2000|10=094|
8=FIX.4.4|9=217|35=AK|49=SNDR|56=TRGT|34=8|50=30737|52=20090320-12:37:44.673|664=0001|666=0|773=1|665=4|60=20060217-10:00:00:100|75=20060217|55=TESTA|80=1000|54=1|862=2|528=A|863=400|528=P|863=600|79=KTierney|6=20|381=20000|118=2000|10=030|
8=FIX.4.4|9=216|35=AK|49=SNDR|56=TRGT|34=9|50=30737|52=20090320-12:37:59.532|664=0001|666=0|773=1|665=4|60=20060217-10:00:00.19|75=20060217|55=TESTA|80=1000|54=1|862=2|528=A|863=400|528=P|863=600|79=KTierney|6=20|381=20000|118=2000|10=235|
8=FIX.4.4|9=211|35=AK|49=SNDR|56=TRGT|34=10|50=30737|52=20090320-12:38:07.860|664=0001|666=0|773=1|665=4|60=20060217-10:00|75=20060217|55=TESTA|80=1000|54=1|862=2|528=A|863=400|528=P|863=600|79=KTierney|6=20|381=20000|118=2000|10=218|
8=FIX.4.4|9=205|35=AK|49=SNDR|56=TRGT|34=11|50=30737|52=20090320-12:38:28.954|664=0001|666=0|773=1|665=4|60=20060217|75=20060217|55=TESTA|80=1000|54=1|862=2|528=A|863=400|528=P|863=600|79=KTierney|6=20|381=20000|118=2000|10=189|
