8=FIX.4.4|9=88|35=S|49=SNDR|56=TRGT|34=2|52=20090320-11:42:00.058|117=11223|55=TESTB|133=15.3|191=+100|10=152|
8=FIX.4.4|9=88|35=S|49=SNDR|56=TRGT|34=3|52=20090320-11:42:04.073|117=11223|55=TESTB|133=15.3|191=/100|10=158|
8=FIX.4.4|9=88|35=S|49=SNDR|56=TRGT|34=4|52=20090320-11:42:08.745|117=11223|55=TESTB|133=15.3|191=*100|10=164|
8=FIX.4.4|9=88|35=S|49=SNDR|56=TRGT|34=5|52=20090320-11:42:16.120|117=11223|55=TESTB|133=15.3|191=100%|10=146|
8=FIX.4.4|9=90|35=S|49=SNDR|56=TRGT|34=6|52=20090320-11:42:25.120|117=11223|55=TESTB|133=15.3|191=1.00E7|10=017|
8=FIX.4.4|9=91|35=S|49=SNDR|56=TRGT|34=7|52=20090320-11:42:30.323|117=11223|55=TESTB|133=15.3|191=1.00e-7|10=097|
8=FIX.4.4|9=93|35=S|49=SNDR|56=TRGT|34=8|52=20090320-11:42:40.198|117=11223|55=TESTB|133=15.3|191=1,000,000|10=144|
8=FIX.4.4|9=93|35=S|49=SNDR|56=TRGT|34=9|52=20090320-11:42:49.776|117=11223|55=TESTB|133=15.3|191=1.000.000|10=160|
