8=FIX.4.4|9=174|35=u|49=SNDR|56=TRGT|34=2|50=30737|97=Y|52=20090320-11:26:47.694|548=42444008|551=30001008|549=1|550=0|552=0|54=1|11=B202020|41=B101010|38=4000|55=TESTA|60=20060217-10:00:00|10=243|
8=FIX.4.4|9=174|35=u|49=SNDR|56=TRGT|34=3|50=30737|97=Y|52=20090320-11:27:09.350|548=42444008|551=30001008|549=1|550=0|552=A|54=1|11=B202020|41=B101010|38=4000|55=TESTA|60=20060217-10:00:00|10=249|
8=FIX.4.4|9=174|35=u|49=SNDR|56=TRGT|34=4|50=30737|97=Y|52=20090320-11:27:15.866|548=42444008|551=30001008|549=1|550=0|552=Y|54=1|11=B202020|41=B101010|38=4000|55=TESTA|60=20060217-10:00:00|10=027|
8=FIX.4.4|9=174|35=u|49=SNDR|56=TRGT|34=5|50=30737|97=Y|52=20090320-11:27:26.225|548=42444008|551=30001008|549=1|550=0|552=2|54=1|11=B202020|41=B101010|38=4000|55=TESTA|60=20060217-10:00:00|10=236|
8=FIX.4.4|9=209|35=u|49=SNDR|56=TRGT|34=6|50=30737|97=Y|52=20090320-11:27:59.694|548=42444008|551=30001008|549=1|550=0|552=1|54=1|11=B202020|41=B101010|38=4000|54=2|11=S202020|41=S101010|38=5000|55=TESTA|60=20060217-10:00:00|10=116|
8=FIX.4.4|9=209|35=u|49=SNDR|56=TRGT|34=7|50=30737|97=Y|52=20090320-11:28:06.990|548=42444008|551=30001008|549=1|550=0|552=3|54=1|11=B202020|41=B101010|38=4000|54=2|11=S202020|41=S101010|38=5000|55=TESTA|60=20060217-10:00:00|10=111|
