8=FIX.4.4|9=129|35=8|49=SNDR|56=TRGT|34=2|52=20090320-10:56:04.952|37=11111111|17=11|39=0|150=0|55=TESTB|54=1|38=1000|151=1000|14=0|6=0|211=+100|10=166|
8=FIX.4.4|9=129|35=8|49=SNDR|56=TRGT|34=3|52=20090320-10:56:11.202|37=11111111|17=11|39=0|150=0|55=TESTB|54=1|38=1000|151=1000|14=0|6=0|211=/100|10=157|
8=FIX.4.4|9=129|35=8|49=SNDR|56=TRGT|34=4|52=20090320-10:56:15.843|37=11111111|17=11|39=0|150=0|55=TESTB|54=1|38=1000|151=1000|14=0|6=0|211=*100|10=168|
8=FIX.4.4|9=129|35=8|49=SNDR|56=TRGT|34=5|52=20090320-10:56:21.983|37=11111111|17=11|39=0|150=0|55=TESTB|54=1|38=1000|151=1000|14=0|6=0|211=100%|10=166|
8=FIX.4.4|9=131|35=8|49=SNDR|56=TRGT|34=6|52=20090320-10:56:33.233|37=11111111|17=11|39=0|150=0|55=TESTB|54=1|38=1000|151=1000|14=0|6=0|211=1.00E7|10=028|
8=FIX.4.4|9=132|35=8|49=SNDR|56=TRGT|34=7|52=20090320-10:56:41.561|37=11111111|17=11|39=0|150=0|55=TESTB|54=1|38=1000|151=1000|14=0|6=0|211=1.00e-7|10=110|
8=FIX.4.4|9=134|35=8|49=SNDR|56=TRGT|34=8|52=20090320-10:56:51.608|37=11111111|17=11|39=0|150=0|55=TESTB|54=1|38=1000|151=1000|14=0|6=0|211=1,000,000|10=149|
8=FIX.4.4|9=134|35=8|49=SNDR|56=TRGT|34=9|52=20090320-10:57:03.514|37=11111111|17=11|39=0|150=0|55=TESTB|54=1|38=1000|151=1000|14=0|6=0|211=1.000.000|10=148|
