8=FIX.4.4|9=222|35=AK|49=SNDR|56=TRGT|34=2|50=30737|52=20090320-11:35:50.078|664=0001|666=0|773=1|665=4|60=20060217-10:00:00|75=20060217|55=TESTA|80=1000|54=1|862=2|528=A|863=400|528=P|863=600|79=KTierney|6=20|381=20000|118=2000|158=+100|10=218|
8=FIX.4.4|9=222|35=AK|49=SNDR|56=TRGT|34=3|50=30737|52=20090320-11:35:55.266|664=0001|666=0|773=1|665=4|60=20060217-10:00:00|75=20060217|55=TESTA|80=1000|54=1|862=2|528=A|863=400|528=P|863=600|79=KTierney|6=20|381=20000|118=2000|158=/100|10=227|
8=FIX.4.4|9=222|35=AK|49=SNDR|56=TRGT|34=4|50=30737|52=20090320-11:36:00.281|664=0001|666=0|773=1|665=4|60=20060217-10:00:00|75=20060217|55=TESTA|80=1000|54=1|862=2|528=A|863=400|528=P|863=600|79=KTierney|6=20|381=20000|118=2000|158=*100|10=211|
8=FIX.4.4|9=222|35=AK|49=SNDR|56=TRGT|34=5|50=30737|52=20090320-11:36:06.765|664=0001|666=0|773=1|665=4|60=20060217-10:00:00|75=20060217|55=TESTA|80=1000|54=1|862=2|528=A|863=400|528=P|863=600|79=KTierney|6=20|381=20000|118=2000|158=100%|10=220|
8=FIX.4.4|9=224|35=AK|49=SNDR|56=TRGT|34=6|50=30737|52=20090320-11:36:18.250|664=0001|666=0|773=1|665=4|60=20060217-10:00:00|75=20060217|55=TESTA|80=1000|54=1|862=2|528=A|863=400|528=P|863=600|79=KTierney|6=20|381=20000|118=2000|158=1.00E7|10=092|
8=FIX.4.4|9=225|35=AK|49=SNDR|56=TRGT|34=7|50=30737|52=20090320-11:36:23.609|664=0001|666=0|773=1|665=4|60=20060217-10:00:00|75=20060217|55=TESTA|80=1000|54=1|862=2|528=A|863=400|528=P|863=600|79=KTierney|6=20|381=20000|118=2000|158=1.00e-7|10=175|
8=FIX.4.4|9=227|35=AK|49=SNDR|56=TRGT|34=8|50=30737|52=20090320-11:36:38.546|664=0001|666=0|773=1|665=4|60=20060217-10:00:00|75=20060217|55=TESTA|80=1000|54=1|862=2|528=A|863=400|528=P|863=600|79=KTierney|6=20|381=20000|118=2000|158=1,000,000|10=217|
8=FIX.4.4|9=227|35=AK|49=SNDR|56=TRGT|34=9|50=30737|52=20090320-11:36:45.093|664=0001|666=0|773=1|665=4|60=20060217-10:00:00|75=20060217|55=TESTA|80=1000|54=1|862=2|528=A|863=400|528=P|863=600|79=KTierney|6=20|381=20000|118=2000|158=1.000.000|10=217|
