8=FIX.4.4|9=106|35=6|49=SNDR|56=TRGT|34=2|52=20090320-10:47:46.834|23=24|28=N|55=TESTB|54=1|27=S|711=1|311=000311|592=USA|10=073|
8=FIX.4.4|9=106|35=6|49=SNDR|56=TRGT|34=3|52=20090320-10:48:18.927|23=24|28=N|55=TESTB|54=1|27=S|711=1|311=000311|592=212|10=249|
8=FIX.4.4|9=105|35=6|49=SNDR|56=TRGT|34=4|52=20090320-10:48:59.755|23=24|28=N|55=TESTB|54=1|27=S|711=1|311=000311|592=af|10=047|
