8=FIX.4.4|9=182|35=J|49=SNDR|56=TRGT|34=2|52=20090320-11:39:15.654|70=1116226|71=0|626=1|857=0|54=1|55=TESTB|53=1004000|6=+100|75=20030821|78=3|79=1000|80=500000|79=2000|80=400000|79=3000|80=104000|10=145|
8=FIX.4.4|9=182|35=J|49=SNDR|56=TRGT|34=3|52=20090320-11:39:19.997|70=1116226|71=0|626=1|857=0|54=1|55=TESTB|53=1004000|6=/100|75=20030821|78=3|79=1000|80=500000|79=2000|80=400000|79=3000|80=104000|10=164|
8=FIX.4.4|9=182|35=J|49=SNDR|56=TRGT|34=4|52=20090320-11:39:24.700|70=1116226|71=0|626=1|857=0|54=1|55=TESTB|53=1004000|6=*100|75=20030821|78=3|79=1000|80=500000|79=2000|80=400000|79=3000|80=104000|10=138|
8=FIX.4.4|9=182|35=J|49=SNDR|56=TRGT|34=5|52=20090320-11:39:35.935|70=1116226|71=0|626=1|857=0|54=1|55=TESTB|53=1004000|6=100%|75=20030821|78=3|79=1000|80=500000|79=2000|80=400000|79=3000|80=104000|10=146|
8=FIX.4.4|9=184|35=J|49=SNDR|56=TRGT|34=6|52=20090320-11:39:48.809|70=1116226|71=0|626=1|857=0|54=1|55=TESTB|53=1004000|6=1.00E7|75=20030821|78=3|79=1000|80=500000|79=2000|80=400000|79=3000|80=104000|10=030|
8=FIX.4.4|9=185|35=J|49=SNDR|56=TRGT|34=7|52=20090320-11:39:56.231|70=1116226|71=0|626=1|857=0|54=1|55=TESTB|53=1004000|6=1.00e-7|75=20030821|78=3|79=1000|80=500000|79=2000|80=400000|79=3000|80=104000|10=097|
8=FIX.4.4|9=187|35=J|49=SNDR|56=TRGT|34=8|52=20090320-11:40:07.887|70=1116226|71=0|626=1|857=0|54=1|55=TESTB|53=1004000|6=1,000,000|75=20030821|78=3|79=1000|80=500000|79=2000|80=400000|79=3000|80=104000|10=138|
8=FIX.4.4|9=187|35=J|49=SNDR|56=TRGT|34=9|52=20090320-11:40:21.340|70=1116226|71=0|626=1|857=0|54=1|55=TESTB|53=1004000|6=1.000.000|75=20030821|78=3|79=1000|80=500000|79=2000|80=400000|79=3000|80=104000|10=123|
