8=FIX.4.4|9=71|35=j|49=SNDR|56=TRGT|34=2|52=20090320-11:47:43.819|45=+100|372=9|380=0|10=012|
8=FIX.4.4|9=71|35=j|49=SNDR|56=TRGT|34=3|52=20090320-11:47:48.085|45=/100|372=9|380=0|10=017|
8=FIX.4.4|9=71|35=j|49=SNDR|56=TRGT|34=4|52=20090320-11:47:55.803|45=*100|372=9|380=0|10=009|
8=FIX.4.4|9=71|35=j|49=SNDR|56=TRGT|34=5|52=20090320-11:48:05.944|45=100%|372=9|380=0|10=007|
8=FIX.4.4|9=73|35=j|49=SNDR|56=TRGT|34=6|52=20090320-11:48:16.569|45=1.00E7|372=9|380=0|10=148|
8=FIX.4.4|9=74|35=j|49=SNDR|56=TRGT|34=7|52=20090320-11:48:21.709|45=1.00e-7|372=9|380=0|10=219|
8=FIX.4.4|9=76|35=j|49=SNDR|56=TRGT|34=8|52=20090320-11:48:31.615|45=1,000,000|372=9|380=0|10=252|
8=FIX.4.4|9=72|35=j|49=SNDR|56=TRGT|34=9|52=20090320-11:48:46.349|45=1.001|372=9|380=0|10=074|
8=FIX.4.4|9=72|35=j|49=SNDR|56=TRGT|34=10|52=20090320-11:48:51.990|45=.001|372=9|380=0|10=063|
8=FIX.4.4|9=72|35=j|49=SNDR|56=TRGT|34=11|52=20090320-11:49:01.552|45=.000|372=9|380=0|10=053|
8=FIX.4.4|9=71|35=j|49=SNDR|56=TRGT|34=12|52=20090320-11:49:09.224|45=10.|372=9|380=0|10=010|
