8=FIX.4.3|9=140|35=D|49=TESTI|56=TESTA|34=4|50=30737|97=Y|52=20030204-08:46:14|11=90001008|21=2|55=TESTB|54=1|60=20060217-10:00:00|38=4000|40=G|640=80000.0|10=134|
