8=FIX.4.3|9=81|35=o|49=TESTI|56=TESTA|34=7|52=20030204-09:17:25|513=3659000001|514=0|508=000005|10=047|
