8=FIX.4.3|9=105|35=q|49=TESTI|56=TESTA|34=14|52=20030204-09:25:43|11=11223|530=7|55=TESTA|311=TESTB|60=20060117-10:00:00|10=207|
