8=FIX.4.3|9=120|35=T|49=TESTI|56=TESTA|34=14|52=20030204-09:25:43|162=11223|163=N|214=0002|160=0|165=1|79=KTierney|60=20060217-10:00:00|10=002|
