8=FIX.4.2|9=82|35=7|49=TESTI|56=TESTA|34=1|52=20030203-16:02:35|2=20|5=N|55=TESTB|4=b|53=1000000|10=140|
8=FIX.4.2|9=82|35=7|49=TESTI|56=TESTA|34=1|52=20030203-16:02:35|2=20|5=N|55=TESTB|4=t|53=1000000|10=140|
8=FIX.4.2|9=82|35=7|49=TESTI|56=TESTA|34=1|52=20030203-16:02:35|2=20|5=N|55=TESTB|4=0|53=1000000|10=140|
8=FIX.4.2|9=82|35=7|49=TESTI|56=TESTA|34=1|52=20030203-16:02:35|2=20|5=N|55=TESTB|4=-1|53=1000000|10=140|
8=FIX.4.2|9=140|35=1|34=104|49=SNDR|56=TRGT|52=20090407-09:48:19.812|112= TEST #001 CHECK 4 REJECT MSGS with INVALID MESSAGE - INCORRECT DATA TYPE [MsgType:_7, Tag:_4]|10=018|
8=FIX.4.2|9=82|35=7|49=TESTI|56=TESTA|34=1|52=20030203-16:02:35|2=20|5=n|55=TESTB|4=T|53=1000000|10=140|
8=FIX.4.2|9=82|35=7|49=TESTI|56=TESTA|34=1|52=20030203-16:02:35|2=20|5=r|55=TESTB|4=T|53=1000000|10=140|
8=FIX.4.2|9=82|35=7|49=TESTI|56=TESTA|34=1|52=20030203-16:02:35|2=20|5=0|55=TESTB|4=T|53=1000000|10=140|
8=FIX.4.2|9=82|35=7|49=TESTI|56=TESTA|34=1|52=20030203-16:02:35|2=20|5=-1|55=TESTB|4=T|53=1000000|10=140|
8=FIX.4.2|9=140|35=1|34=104|49=SNDR|56=TRGT|52=20090407-09:48:19.812|112= TEST #002 CHECK 4 REJECT MSGS with INVALID MESSAGE - INCORRECT DATA TYPE [MsgType:_7, Tag:_5]|10=018|
8=FIX.4.2|9=128|35=D|49=TESTI|56=TESTA|34=4|52=20030204-08:46:14|11=90001008|21=2|55=TESTB|54=1|60=20060217-10:00:00|38=4000|40=1|13=0|10=071|
8=FIX.4.2|9=128|35=D|49=TESTI|56=TESTA|34=4|52=20030204-08:46:14|11=90001008|21=2|55=TESTB|54=1|60=20060217-10:00:00|38=4000|40=1|13=-1|10=071|
8=FIX.4.2|9=128|35=D|49=TESTI|56=TESTA|34=4|52=20030204-08:46:14|11=90001008|21=2|55=TESTB|54=1|60=20060217-10:00:00|38=4000|40=1|13=A|10=071|
8=FIX.4.2|9=128|35=D|49=TESTI|56=TESTA|34=4|52=20030204-08:46:14|11=90001008|21=2|55=TESTB|54=1|60=20060217-10:00:00|38=4000|40=1|13=b|10=071|
8=FIX.4.2|9=140|35=1|34=104|49=SNDR|56=TRGT|52=20090407-09:48:19.812|112= TEST #003 CHECK 4 REJECT MSGS with INVALID MESSAGE - INCORRECT DATA TYPE [MsgType:_D, Tag:_13]|10=018|
8=FIX.4.2|9=90|35=7|49=TESTI|56=TESTA|34=31|52=20030203-16:02:35|2=20|5=N|55=TESTB|4=T|53=1000000|15=0|10=194|
8=FIX.4.2|9=90|35=7|49=TESTI|56=TESTA|34=31|52=20030203-16:02:35|2=20|5=N|55=TESTB|4=T|53=1000000|15=usd|10=194|
8=FIX.4.2|9=90|35=7|49=TESTI|56=TESTA|34=31|52=20030203-16:02:35|2=20|5=N|55=TESTB|4=T|53=1000000|15= |10=194|
8=FIX.4.2|9=90|35=7|49=TESTI|56=TESTA|34=31|52=20030203-16:02:35|2=20|5=N|55=TESTB|4=T|53=1000000|15=-1|10=194|
8=FIX.4.2|9=140|35=1|34=104|49=SNDR|56=TRGT|52=20090407-09:48:19.812|112= TEST #004 CHECK 4 REJECT MSGS with INVALID MESSAGE - INCORRECT DATA TYPE [MsgType:_7, Tag:_15]|10=018|
8=FIX.4.2|9=138|35=8|49=TESTI|56=TESTA|34=1|52=20030203-16:09:30|37=11111111|17=12|20=-1|32=500|31=0.01|39=0|150=0|55=TESTB|54=1|38=1000|151=1000|14=0|6=0|10=064|
8=FIX.4.2|9=138|35=8|49=TESTI|56=TESTA|34=1|52=20030203-16:09:30|37=11111111|17=12|20=4|32=500|31=0.01|39=0|150=0|55=TESTB|54=1|38=1000|151=1000|14=0|6=0|10=064|
8=FIX.4.2|9=138|35=8|49=TESTI|56=TESTA|34=1|52=20030203-16:09:30|37=11111111|17=12|20=A|32=500|31=0.01|39=0|150=0|55=TESTB|54=1|38=1000|151=1000|14=0|6=0|10=064|
8=FIX.4.2|9=138|35=8|49=TESTI|56=TESTA|34=1|52=20030203-16:09:30|37=11111111|17=12|20=b|32=500|31=0.01|39=0|150=0|55=TESTB|54=1|38=1000|151=1000|14=0|6=0|10=064|
8=FIX.4.2|9=140|35=1|34=104|49=SNDR|56=TRGT|52=20090407-09:48:19.812|112= TEST #005 CHECK 4 REJECT MSGS with INVALID MESSAGE - INCORRECT DATA TYPE [MsgType:_8, Tag:_20]|10=018|
8=FIX.4.2|9=128|35=D|49=TESTI|56=TESTA|34=4|52=20030204-08:46:14|11=90001008|21=0|55=TESTB|54=1|60=20060217-10:00:00|38=4000|40=1|10=072|
8=FIX.4.2|9=128|35=D|49=TESTI|56=TESTA|34=4|52=20030204-08:46:14|11=90001008|21=-1|55=TESTB|54=1|60=20060217-10:00:00|38=4000|40=1|10=074|
8=FIX.4.2|9=128|35=D|49=TESTI|56=TESTA|34=4|52=20030204-08:46:14|11=90001008|21=A|55=TESTB|54=1|60=20060217-10:00:00|38=4000|40=1|10=074|
8=FIX.4.2|9=128|35=D|49=TESTI|56=TESTA|34=4|52=20030204-08:46:14|11=90001008|21=b|55=TESTB|54=1|60=20060217-10:00:00|38=4000|40=1|10=074|
8=FIX.4.2|9=140|35=1|34=104|49=SNDR|56=TRGT|52=20090407-09:48:19.812|112= TEST #006 CHECK 4 REJECT MSGS with INVALID MESSAGE - INCORRECT DATA TYPE [MsgType:_D, Tag:_21]|10=018|
8=FIX.4.2|9=79|35=e|49=TESTI|56=TESTA|34=14|52=20030204-09:25:43|324=0001|55=TESTB|22=0|263=0|10=033|
8=FIX.4.2|9=79|35=e|49=TESTI|56=TESTA|34=14|52=20030204-09:25:43|324=0001|55=TESTB|22=-1|263=0|10=033|
8=FIX.4.2|9=79|35=e|49=TESTI|56=TESTA|34=14|52=20030204-09:25:43|324=0001|55=TESTB|22=K|263=0|10=033|
8=FIX.4.2|9=79|35=e|49=TESTI|56=TESTA|34=14|52=20030204-09:25:43|324=0001|55=TESTB|22=b|263=0|10=033|
8=FIX.4.2|9=140|35=1|34=104|49=SNDR|56=TRGT|52=20090407-09:48:19.812|112= TEST #007 CHECK 4 REJECT MSGS with INVALID MESSAGE - INCORRECT DATA TYPE [MsgType:_e, Tag:_22]|10=018|
8=FIX.4.2|9=86|35=6|49=TESTI|56=TESTA|34=121|52=20030203-16:10:01|23=24|28=N|55=TESTB|54=1|27=S|25=0|10=090|
8=FIX.4.2|9=86|35=6|49=TESTI|56=TESTA|34=121|52=20030203-16:10:01|23=24|28=N|55=TESTB|54=1|27=S|25=h|10=090|
8=FIX.4.2|9=86|35=6|49=TESTI|56=TESTA|34=121|52=20030203-16:10:01|23=24|28=N|55=TESTB|54=1|27=S|25=A|10=090|
8=FIX.4.2|9=86|35=6|49=TESTI|56=TESTA|34=121|52=20030203-16:10:01|23=24|28=N|55=TESTB|54=1|27=S|25=-1|10=090|
8=FIX.4.2|9=140|35=1|34=104|49=SNDR|56=TRGT|52=20090407-09:48:19.812|112= TEST #008 CHECK 4 REJECT MSGS with INVALID MESSAGE - INCORRECT DATA TYPE [MsgType:_6, Tag:_25]|10=018|
8=FIX.4.2|9=86|35=6|49=TESTI|56=TESTA|34=121|52=20030203-16:10:01|23=24|28=N|55=TESTB|54=1|27=-1|10=090|
8=FIX.4.2|9=86|35=6|49=TESTI|56=TESTA|34=121|52=20030203-16:10:01|23=24|28=N|55=TESTB|54=1|27=A|10=090|
8=FIX.4.2|9=86|35=6|49=TESTI|56=TESTA|34=121|52=20030203-16:10:01|23=24|28=N|55=TESTB|54=1|27=s|10=090|
8=FIX.4.2|9=86|35=6|49=TESTI|56=TESTA|34=121|52=20030203-16:10:01|23=24|28=N|55=TESTB|54=1|27=l|10=090|
8=FIX.4.2|9=140|35=1|34=104|49=SNDR|56=TRGT|52=20090407-09:48:19.812|112= TEST #009 CHECK 4 REJECT MSGS with INVALID MESSAGE - INCORRECT DATA TYPE [MsgType:_6, Tag:_27]|10=018|
8=FIX.4.2|9=81|35=6|49=TESTI|56=TESTA|34=121|52=20030203-16:10:01|23=24|28=0|55=TESTB|54=1|27=S|10=104|
8=FIX.4.2|9=81|35=6|49=TESTI|56=TESTA|34=121|52=20030203-16:10:01|23=24|28=-1|55=TESTB|54=1|27=S|10=104|
8=FIX.4.2|9=81|35=6|49=TESTI|56=TESTA|34=121|52=20030203-16:10:01|23=24|28=A|55=TESTB|54=1|27=S|10=104|
8=FIX.4.2|9=81|35=6|49=TESTI|56=TESTA|34=121|52=20030203-16:10:01|23=24|28=n|55=TESTB|54=1|27=S|10=104|
8=FIX.4.2|9=140|35=1|34=104|49=SNDR|56=TRGT|52=20090407-09:48:19.812|112= TEST #010 CHECK 4 REJECT MSGS with INVALID MESSAGE - INCORRECT DATA TYPE [MsgType:_6, Tag:_28]|10=018|
8=FIX.4.2|9=125|35=8|49=TESTI|56=TESTA|34=114|52=20030203-16:09:30|37=11111111|17=12|20=3|39=0|150=0|55=TESTB|54=1|38=1000|29=0|151=1000|14=0|6=0|10=011|
8=FIX.4.2|9=125|35=8|49=TESTI|56=TESTA|34=114|52=20030203-16:09:30|37=11111111|17=12|20=3|39=0|150=0|55=TESTB|54=1|38=1000|29=-1|151=1000|14=0|6=0|10=011|
8=FIX.4.2|9=125|35=8|49=TESTI|56=TESTA|34=114|52=20030203-16:09:30|37=11111111|17=12|20=3|39=0|150=0|55=TESTB|54=1|38=1000|29=A|151=1000|14=0|6=0|10=011|
8=FIX.4.2|9=125|35=8|49=TESTI|56=TESTA|34=114|52=20030203-16:09:30|37=11111111|17=12|20=3|39=0|150=0|55=TESTB|54=1|38=1000|29=b|151=1000|14=0|6=0|10=011|
8=FIX.4.2|9=140|35=1|34=104|49=SNDR|56=TRGT|52=20090407-09:48:19.812|112= TEST #011 CHECK 4 REJECT MSGS with INVALID MESSAGE - INCORRECT DATA TYPE [MsgType:_8, Tag:_29]|10=018|
8=FIX.4.2|9=195|35=J|49=TESTI|56=TESTA|34=4|52=20030204-08:56:41|70=1116226|71=0|73=2|11=90001008|11=90000008|54=1|55=TESTB|53=1004000|30=R|6=30|75=20030821|78=3|79=1000|80=500000|79=2000|80=400000|79=3000|80=104000|10=030|
8=FIX.4.2|9=195|35=J|49=TESTI|56=TESTA|34=4|52=20030204-08:56:41|70=1116226|71=0|73=2|11=90001008|11=90000008|54=1|55=TESTB|53=1004000|30=-1|6=30|75=20030821|78=3|79=1000|80=500000|79=2000|80=400000|79=3000|80=104000|10=030|
8=FIX.4.2|9=195|35=J|49=TESTI|56=TESTA|34=4|52=20030204-08:56:41|70=1116226|71=0|73=2|11=90001008|11=90000008|54=1|55=TESTB|53=1004000|30=a|6=30|75=20030821|78=3|79=1000|80=500000|79=2000|80=400000|79=3000|80=104000|10=030|
8=FIX.4.2|9=195|35=J|49=TESTI|56=TESTA|34=4|52=20030204-08:56:41|70=1116226|71=0|73=2|11=90001008|11=90000008|54=1|55=TESTB|53=1004000|30=TwO|6=30|75=20030821|78=3|79=1000|80=500000|79=2000|80=400000|79=3000|80=104000|10=030|
8=FIX.4.2|9=140|35=1|34=104|49=SNDR|56=TRGT|52=20090407-09:48:19.812|112= TEST #012 CHECK 4 REJECT MSGS with INVALID MESSAGE - INCORRECT DATA TYPE [MsgType:_J, Tag:_30]|10=018|
8=FIX.4.2|9=125|35=8|49=TESTI|56=TESTA|34=114|52=20030203-16:09:30|37=11111111|17=12|20=3|39=-1|150=0|55=TESTB|54=1|38=1000|151=1000|14=0|6=0|10=011|
8=FIX.4.2|9=125|35=8|49=TESTI|56=TESTA|34=114|52=20030203-16:09:30|37=11111111|17=12|20=3|39=10|150=0|55=TESTB|54=1|38=1000|151=1000|14=0|6=0|10=011|
8=FIX.4.2|9=125|35=8|49=TESTI|56=TESTA|34=114|52=20030203-16:09:30|37=11111111|17=12|20=3|39=a|150=0|55=TESTB|54=1|38=1000|151=1000|14=0|6=0|10=011|
8=FIX.4.2|9=125|35=8|49=TESTI|56=TESTA|34=114|52=20030203-16:09:30|37=11111111|17=12|20=3|39=F|150=0|55=TESTB|54=1|38=1000|151=1000|14=0|6=0|10=011|
8=FIX.4.2|9=140|35=1|34=104|49=SNDR|56=TRGT|52=20090407-09:48:19.812|112= TEST #013 CHECK 4 REJECT MSGS with INVALID MESSAGE - INCORRECT DATA TYPE [MsgType:_8, Tag:_39]|10=018|
8=FIX.4.2|9=142|35=G|49=TESTI|56=TESTA|34=1|52=20030204-08:49:18|11=12233345|41=90001008|21=2|55=TESTB|54=1|60=20060117-10:00:00|38=4000|40=0|44=0.44|99=0.45|10=188|
8=FIX.4.2|9=142|35=G|49=TESTI|56=TESTA|34=1|52=20030204-08:49:18|11=12233345|41=90001008|21=2|55=TESTB|54=1|60=20060117-10:00:00|38=4000|40=-1|44=0.44|99=0.45|10=188|
8=FIX.4.2|9=142|35=G|49=TESTI|56=TESTA|34=1|52=20030204-08:49:18|11=12233345|41=90001008|21=2|55=TESTB|54=1|60=20060117-10:00:00|38=4000|40=K|44=0.44|99=0.45|10=188|
8=FIX.4.2|9=142|35=G|49=TESTI|56=TESTA|34=1|52=20030204-08:49:18|11=12233345|41=90001008|21=2|55=TESTB|54=1|60=20060117-10:00:00|38=4000|40=a|44=0.44|99=0.45|10=188|
8=FIX.4.2|9=140|35=1|34=104|49=SNDR|56=TRGT|52=20090407-09:48:19.812|112= TEST #014 CHECK 4 REJECT MSGS with INVALID MESSAGE - INCORRECT DATA TYPE [MsgType:_G, Tag:_40]|10=018|
8=FIX.4.2|9=128|35=D|49=TESTI|56=TESTA|34=4|52=20030204-08:46:14|11=90001008|21=2|55=TESTB|54=1|60=20060217-10:00:00|38=4000|40=1|47=0|10=071|
8=FIX.4.2|9=128|35=D|49=TESTI|56=TESTA|34=4|52=20030204-08:46:14|11=90001008|21=2|55=TESTB|54=1|60=20060217-10:00:00|38=4000|40=1|47=-1|10=071|
8=FIX.4.2|9=128|35=D|49=TESTI|56=TESTA|34=4|52=20030204-08:46:14|11=90001008|21=2|55=TESTB|54=1|60=20060217-10:00:00|38=4000|40=1|47=1|10=071|
8=FIX.4.2|9=128|35=D|49=TESTI|56=TESTA|34=4|52=20030204-08:46:14|11=90001008|21=2|55=TESTB|54=1|60=20060217-10:00:00|38=4000|40=1|47=a|10=071|
8=FIX.4.2|9=140|35=1|34=104|49=SNDR|56=TRGT|52=20090407-09:48:19.812|112= TEST #015 CHECK 4 REJECT MSGS with INVALID MESSAGE - INCORRECT DATA TYPE [MsgType:_D, Tag:_47]|10=018|
8=FIX.4.2|9=125|35=8|49=TESTI|56=TESTA|34=114|52=20030203-16:09:30|37=11111111|17=12|20=3|39=0|150=0|55=TESTB|54=0|38=1000|151=1000|14=0|6=0|10=011|
8=FIX.4.2|9=125|35=8|49=TESTI|56=TESTA|34=114|52=20030203-16:09:30|37=11111111|17=12|20=3|39=0|150=0|55=TESTB|54=-1|38=1000|151=1000|14=0|6=0|10=011|
8=FIX.4.2|9=125|35=8|49=TESTI|56=TESTA|34=114|52=20030203-16:09:30|37=11111111|17=12|20=3|39=0|150=0|55=TESTB|54=A|38=1000|151=1000|14=0|6=0|10=011|
8=FIX.4.2|9=125|35=8|49=TESTI|56=TESTA|34=114|52=20030203-16:09:30|37=11111111|17=12|20=3|39=0|150=0|55=TESTB|54=b|38=1000|151=1000|14=0|6=0|10=011|
8=FIX.4.2|9=140|35=1|34=104|49=SNDR|56=TRGT|52=20090407-09:48:19.812|112= TEST #016 CHECK 4 REJECT MSGS with INVALID MESSAGE - INCORRECT DATA TYPE [MsgType:_8, Tag:_54]|10=018|
8=FIX.4.2|9=128|35=D|49=TESTI|56=TESTA|34=4|52=20030204-08:46:14|11=90001008|21=1|55=TESTB|54=1|60=20060217-10:00:00|38=4000|40=1|59=-1|10=082|
8=FIX.4.2|9=128|35=D|49=TESTI|56=TESTA|34=4|52=20030204-08:46:14|11=90001008|21=1|55=TESTB|54=1|60=20060217-10:00:00|38=4000|40=1|59=7|10=082|
8=FIX.4.2|9=128|35=D|49=TESTI|56=TESTA|34=4|52=20030204-08:46:14|11=90001008|21=1|55=TESTB|54=1|60=20060217-10:00:00|38=4000|40=1|59=A|10=082|
8=FIX.4.2|9=128|35=D|49=TESTI|56=TESTA|34=4|52=20030204-08:46:14|11=90001008|21=1|55=TESTB|54=1|60=20060217-10:00:00|38=4000|40=1|59=b|10=082|
8=FIX.4.2|9=140|35=1|34=104|49=SNDR|56=TRGT|52=20090407-09:48:19.812|112= TEST #017 CHECK 4 REJECT MSGS with INVALID MESSAGE - INCORRECT DATA TYPE [MsgType:_D, Tag:_59]|10=018|
8=FIX.4.2|9=148|35=B|49=TESTI|56=TESTA|34=19|52=20030203-16:21:17|61=-1|148=Weather|33=4|58=In the evening |58=it might be wet |58=and windy.|58= Take your coat on.|10=147|
8=FIX.4.2|9=148|35=B|49=TESTI|56=TESTA|34=19|52=20030203-16:21:17|61=3|148=Weather|33=4|58=In the evening |58=it might be wet |58=and windy.|58= Take your coat on.|10=147|
8=FIX.4.2|9=148|35=B|49=TESTI|56=TESTA|34=19|52=20030203-16:21:17|61=A|148=Weather|33=4|58=In the evening |58=it might be wet |58=and windy.|58= Take your coat on.|10=147|
8=FIX.4.2|9=148|35=B|49=TESTI|56=TESTA|34=19|52=20030203-16:21:17|61=b|148=Weather|33=4|58=In the evening |58=it might be wet |58=and windy.|58= Take your coat on.|10=147|
8=FIX.4.2|9=140|35=1|34=104|49=SNDR|56=TRGT|52=20090407-09:48:19.812|112= TEST #018 CHECK 4 REJECT MSGS with INVALID MESSAGE - INCORRECT DATA TYPE [MsgType:_B, Tag:_61]|10=018|
8=FIX.4.2|9=212|35=J|49=TESTI|56=TESTA|34=1|52=20030204-08:56:41|70=1116226|71=0|73=2|11=90001008|11=90000008|54=1|55=TESTB|53=1004000|6=30|75=20030821|63=-1|64=20030821|78=3|79=1000|80=500000|79=2000|80=400000|79=3000|80=104000|10=033|
8=FIX.4.2|9=212|35=J|49=TESTI|56=TESTA|34=1|52=20030204-08:56:41|70=1116226|71=0|73=2|11=90001008|11=90000008|54=1|55=TESTB|53=1004000|6=30|75=20030821|63=10|64=20030821|78=3|79=1000|80=500000|79=2000|80=400000|79=3000|80=104000|10=033|
8=FIX.4.2|9=212|35=J|49=TESTI|56=TESTA|34=1|52=20030204-08:56:41|70=1116226|71=0|73=2|11=90001008|11=90000008|54=1|55=TESTB|53=1004000|6=30|75=20030821|63=A|64=20030821|78=3|79=1000|80=500000|79=2000|80=400000|79=3000|80=104000|10=033|
8=FIX.4.2|9=212|35=J|49=TESTI|56=TESTA|34=1|52=20030204-08:56:41|70=1116226|71=0|73=2|11=90001008|11=90000008|54=1|55=TESTB|53=1004000|6=30|75=20030821|63=b|64=20030821|78=3|79=1000|80=500000|79=2000|80=400000|79=3000|80=104000|10=033|
8=FIX.4.2|9=140|35=1|34=104|49=SNDR|56=TRGT|52=20090407-09:48:19.812|112= TEST #019 CHECK 4 REJECT MSGS with INVALID MESSAGE - INCORRECT DATA TYPE [MsgType:_J, Tag:_63]|10=018|
8=FIX.4.2|9=204|35=J|49=TESTI|56=TESTA|34=1|52=20030204-08:56:41|70=1116226|71=-1|72=TST72|73=2|11=90001008|11=90000008|54=1|55=TESTB|53=1004000|6=30|75=20030821|78=3|79=1000|80=500000|79=2000|80=400000|79=3000|80=104000|10=029|
8=FIX.4.2|9=204|35=J|49=TESTI|56=TESTA|34=1|52=20030204-08:56:41|70=1116226|71=6|72=TST72|73=2|11=90001008|11=90000008|54=1|55=TESTB|53=1004000|6=30|75=20030821|78=3|79=1000|80=500000|79=2000|80=400000|79=3000|80=104000|10=029|
8=FIX.4.2|9=204|35=J|49=TESTI|56=TESTA|34=1|52=20030204-08:56:41|70=1116226|71=A|72=TST72|73=2|11=90001008|11=90000008|54=1|55=TESTB|53=1004000|6=30|75=20030821|78=3|79=1000|80=500000|79=2000|80=400000|79=3000|80=104000|10=029|
8=FIX.4.2|9=204|35=J|49=TESTI|56=TESTA|34=1|52=20030204-08:56:41|70=1116226|71=b|72=TST72|73=2|11=90001008|11=90000008|54=1|55=TESTB|53=1004000|6=30|75=20030821|78=3|79=1000|80=500000|79=2000|80=400000|79=3000|80=104000|10=029|
8=FIX.4.2|9=140|35=1|34=104|49=SNDR|56=TRGT|52=20090407-09:48:19.812|112= TEST #020 CHECK 4 REJECT MSGS with INVALID MESSAGE - INCORRECT DATA TYPE [MsgType:_J, Tag:_71]|10=018|
8=FIX.4.2|9=128|35=D|49=TESTI|56=TESTA|34=4|52=20030204-08:46:14|11=90001008|21=2|55=TESTB|54=1|60=20060217-10:00:00|38=4000|40=1|77=o|10=071|
8=FIX.4.2|9=128|35=D|49=TESTI|56=TESTA|34=4|52=20030204-08:46:14|11=90001008|21=2|55=TESTB|54=1|60=20060217-10:00:00|38=4000|40=1|77=1|10=071|
8=FIX.4.2|9=128|35=D|49=TESTI|56=TESTA|34=4|52=20030204-08:46:14|11=90001008|21=2|55=TESTB|54=1|60=20060217-10:00:00|38=4000|40=1|77=0|10=071|
8=FIX.4.2|9=128|35=D|49=TESTI|56=TESTA|34=4|52=20030204-08:46:14|11=90001008|21=2|55=TESTB|54=1|60=20060217-10:00:00|38=4000|40=1|77=-1|10=071|
8=FIX.4.2|9=140|35=1|34=104|49=SNDR|56=TRGT|52=20090407-09:48:19.812|112= TEST #021 CHECK 4 REJECT MSGS with INVALID MESSAGE - INCORRECT DATA TYPE [MsgType:_D, Tag:_77]|10=018|
8=FIX.4.2|9=128|35=D|49=TESTI|56=TESTA|34=4|52=20030204-08:46:14|11=90001008|21=2|81=-1|55=TESTB|54=1|60=20060217-10:00:00|38=4000|40=1|10=071|
8=FIX.4.2|9=128|35=D|49=TESTI|56=TESTA|34=4|52=20030204-08:46:14|11=90001008|21=2|81=7|55=TESTB|54=1|60=20060217-10:00:00|38=4000|40=1|10=071|
8=FIX.4.2|9=128|35=D|49=TESTI|56=TESTA|34=4|52=20030204-08:46:14|11=90001008|21=2|81=A|55=TESTB|54=1|60=20060217-10:00:00|38=4000|40=1|10=071|
8=FIX.4.2|9=128|35=D|49=TESTI|56=TESTA|34=4|52=20030204-08:46:14|11=90001008|21=2|81=b|55=TESTB|54=1|60=20060217-10:00:00|38=4000|40=1|10=071|
8=FIX.4.2|9=140|35=1|34=104|49=SNDR|56=TRGT|52=20090407-09:48:19.812|112= TEST #022 CHECK 4 REJECT MSGS with INVALID MESSAGE - INCORRECT DATA TYPE [MsgType:_D, Tag:_81]|10=018|
8=FIX.4.2|9=80|35=P|49=TESTI|56=TESTA|34=1|52=20030204-09:17:25|70=3659000001|75=20030808|87=-1|10=234|
8=FIX.4.2|9=80|35=P|49=TESTI|56=TESTA|34=1|52=20030204-09:17:25|70=3659000001|75=20030808|87=4|10=234|
8=FIX.4.2|9=80|35=P|49=TESTI|56=TESTA|34=1|52=20030204-09:17:25|70=3659000001|75=20030808|87=A|10=234|
8=FIX.4.2|9=80|35=P|49=TESTI|56=TESTA|34=1|52=20030204-09:17:25|70=3659000001|75=20030808|87=b|10=234|
8=FIX.4.2|9=140|35=1|34=104|49=SNDR|56=TRGT|52=20090407-09:48:19.812|112= TEST #023 CHECK 4 REJECT MSGS with INVALID MESSAGE - INCORRECT DATA TYPE [MsgType:_P, Tag:_87]|10=018|
8=FIX.4.2|9=80|35=P|49=TESTI|56=TESTA|34=7|52=20030204-09:17:25|70=3659000001|75=20030808|87=1|88=-1|10=240|
8=FIX.4.2|9=80|35=P|49=TESTI|56=TESTA|34=7|52=20030204-09:17:25|70=3659000001|75=20030808|87=1|88=8|10=240|
8=FIX.4.2|9=80|35=P|49=TESTI|56=TESTA|34=7|52=20030204-09:17:25|70=3659000001|75=20030808|87=1|88=A|10=240|
8=FIX.4.2|9=80|35=P|49=TESTI|56=TESTA|34=7|52=20030204-09:17:25|70=3659000001|75=20030808|87=1|88=b|10=240|
8=FIX.4.2|9=140|35=1|34=104|49=SNDR|56=TRGT|52=20090407-09:48:19.812|112= TEST #024 CHECK 4 REJECT MSGS with INVALID MESSAGE - INCORRECT DATA TYPE [MsgType:_P, Tag:_88]|10=018|
8=FIX.4.2|9=147|35=C|49=TESTI|56=TESTA|34=4|52=20030203-16:20:05|164=111111111|94=-1|147=Bunny's Birthday|33=3|58=Hello, Bunny!|58=Happy Birthday to you :)|58=Bye.|10=131|
8=FIX.4.2|9=147|35=C|49=TESTI|56=TESTA|34=4|52=20030203-16:20:05|164=111111111|94=3|147=Bunny's Birthday|33=3|58=Hello, Bunny!|58=Happy Birthday to you :)|58=Bye.|10=131|
8=FIX.4.2|9=147|35=C|49=TESTI|56=TESTA|34=4|52=20030203-16:20:05|164=111111111|94=A|147=Bunny's Birthday|33=3|58=Hello, Bunny!|58=Happy Birthday to you :)|58=Bye.|10=131|
8=FIX.4.2|9=147|35=C|49=TESTI|56=TESTA|34=4|52=20030203-16:20:05|164=111111111|94=b|147=Bunny's Birthday|33=3|58=Hello, Bunny!|58=Happy Birthday to you :)|58=Bye.|10=131|
8=FIX.4.2|9=140|35=1|34=104|49=SNDR|56=TRGT|52=20090407-09:48:19.812|112= TEST #025 CHECK 4 REJECT MSGS with INVALID MESSAGE - INCORRECT DATA TYPE [MsgType:_C, Tag:_94]|10=018|
8=FIX.4.2|9=128|35=D|49=TESTI|56=TESTA|34=4|52=20030204-08:46:14|11=90001008|21=2|100=-1|55=TESTB|54=1|60=20060217-10:00:00|38=4000|40=1|10=071|
8=FIX.4.2|9=128|35=D|49=TESTI|56=TESTA|34=4|52=20030204-08:46:14|11=90001008|21=2|100=18|55=TESTB|54=1|60=20060217-10:00:00|38=4000|40=1|10=071|
8=FIX.4.2|9=128|35=D|49=TESTI|56=TESTA|34=4|52=20030204-08:46:14|11=90001008|21=2|100=o|55=TESTB|54=1|60=20060217-10:00:00|38=4000|40=1|10=071|
8=FIX.4.2|9=128|35=D|49=TESTI|56=TESTA|34=4|52=20030204-08:46:14|11=90001008|21=2|100=Vl|55=TESTB|54=1|60=20060217-10:00:00|38=4000|40=1|10=071|
8=FIX.4.2|9=140|35=1|34=104|49=SNDR|56=TRGT|52=20090407-09:48:19.812|112= TEST #026 CHECK 4 REJECT MSGS with INVALID MESSAGE - INCORRECT DATA TYPE [MsgType:_D, Tag:_100]|10=018|
8=FIX.4.2|9=102|35=9|49=TESTI|56=TESTA|34=3|52=20030203-16:13:14|37=11111111|11=12121212122|41=11111111111|39=0|434=1|102=-1|10=209|
8=FIX.4.2|9=102|35=9|49=TESTI|56=TESTA|34=3|52=20030203-16:13:14|37=11111111|11=12121212122|41=11111111111|39=0|434=1|102=4|10=209|
8=FIX.4.2|9=102|35=9|49=TESTI|56=TESTA|34=3|52=20030203-16:13:14|37=11111111|11=12121212122|41=11111111111|39=0|434=1|102=A|10=209|
8=FIX.4.2|9=102|35=9|49=TESTI|56=TESTA|34=3|52=20030203-16:13:14|37=11111111|11=12121212122|41=11111111111|39=0|434=1|102=b|10=209|
8=FIX.4.2|9=140|35=1|34=104|49=SNDR|56=TRGT|52=20090407-09:48:19.812|112= TEST #027 CHECK 4 REJECT MSGS with INVALID MESSAGE - INCORRECT DATA TYPE [MsgType:_9, Tag:_102]|10=018|
8=FIX.4.2|9=125|35=8|49=TESTI|56=TESTA|34=114|52=20030203-16:09:30|37=11111111|17=12|20=3|39=0|150=8|103=-1|55=TESTB|54=1|38=1000|151=1000|14=0|6=0|10=011|
8=FIX.4.2|9=125|35=8|49=TESTI|56=TESTA|34=114|52=20030203-16:09:30|37=11111111|17=12|20=3|39=0|150=8|103=10|55=TESTB|54=1|38=1000|151=1000|14=0|6=0|10=011|
8=FIX.4.2|9=125|35=8|49=TESTI|56=TESTA|34=114|52=20030203-16:09:30|37=11111111|17=12|20=3|39=0|150=8|103=A|55=TESTB|54=1|38=1000|151=1000|14=0|6=0|10=011|
8=FIX.4.2|9=125|35=8|49=TESTI|56=TESTA|34=114|52=20030203-16:09:30|37=11111111|17=12|20=3|39=0|150=8|103=b|55=TESTB|54=1|38=1000|151=1000|14=0|6=0|10=011|
8=FIX.4.2|9=140|35=1|34=104|49=SNDR|56=TRGT|52=20090407-09:48:19.812|112= TEST #028 CHECK 4 REJECT MSGS with INVALID MESSAGE - INCORRECT DATA TYPE [MsgType:_8, Tag:_103]|10=018|
8=FIX.4.2|9=93|35=6|49=TESTI|56=TESTA|34=121|52=20030203-16:10:01|23=24|28=N|55=TESTB|54=1|27=S|199=1|104=a|10=145|
8=FIX.4.2|9=93|35=6|49=TESTI|56=TESTA|34=121|52=20030203-16:10:01|23=24|28=N|55=TESTB|54=1|27=S|199=1|104=z|10=145|
8=FIX.4.2|9=93|35=6|49=TESTI|56=TESTA|34=121|52=20030203-16:10:01|23=24|28=N|55=TESTB|54=1|27=S|199=1|104=-1|10=145|
8=FIX.4.2|9=93|35=6|49=TESTI|56=TESTA|34=121|52=20030203-16:10:01|23=24|28=N|55=TESTB|54=1|27=S|199=1|104=0|10=145|
8=FIX.4.2|9=140|35=1|34=104|49=SNDR|56=TRGT|52=20090407-09:48:19.812|112= TEST #029 CHECK 4 REJECT MSGS with INVALID MESSAGE - INCORRECT DATA TYPE [MsgType:_6, Tag:_104]|10=018|
8=FIX.4.2|9=125|35=8|49=TESTI|56=TESTA|34=114|52=20030203-16:09:30|37=11111111|17=12|20=3|39=0|150=0|55=TESTB|54=1|38=1000|151=1000|14=0|6=0|113=y|10=011|
8=FIX.4.2|9=125|35=8|49=TESTI|56=TESTA|34=114|52=20030203-16:09:30|37=11111111|17=12|20=3|39=0|150=0|55=TESTB|54=1|38=1000|151=1000|14=0|6=0|113=n|10=011|
8=FIX.4.2|9=125|35=8|49=TESTI|56=TESTA|34=114|52=20030203-16:09:30|37=11111111|17=12|20=3|39=0|150=0|55=TESTB|54=1|38=1000|151=1000|14=0|6=0|113=-1|10=011|
8=FIX.4.2|9=125|35=8|49=TESTI|56=TESTA|34=114|52=20030203-16:09:30|37=11111111|17=12|20=3|39=0|150=0|55=TESTB|54=1|38=1000|151=1000|14=0|6=0|113=0|10=011|
8=FIX.4.2|9=140|35=1|34=104|49=SNDR|56=TRGT|52=20090407-09:48:19.812|112= TEST #030 CHECK 4 REJECT MSGS with INVALID MESSAGE - INCORRECT DATA TYPE [MsgType:_8, Tag:_113]|10=018|
8=FIX.4.2|9=126|35=G|49=TESTI|56=TESTA|34=6|52=20030204-08:49:18|11=12233345|41=90001008|21=2|55=TESTB|54=1|60=20060117-10:00:00|38=4000|40=1|114=y|10=220|
8=FIX.4.2|9=126|35=G|49=TESTI|56=TESTA|34=6|52=20030204-08:49:18|11=12233345|41=90001008|21=2|55=TESTB|54=1|60=20060117-10:00:00|38=4000|40=1|114=n|10=220|
8=FIX.4.2|9=126|35=G|49=TESTI|56=TESTA|34=6|52=20030204-08:49:18|11=12233345|41=90001008|21=2|55=TESTB|54=1|60=20060117-10:00:00|38=4000|40=1|114=0|10=220|
8=FIX.4.2|9=126|35=G|49=TESTI|56=TESTA|34=6|52=20030204-08:49:18|11=12233345|41=90001008|21=2|55=TESTB|54=1|60=20060117-10:00:00|38=4000|40=1|114=-1|10=220|
8=FIX.4.2|9=140|35=1|34=104|49=SNDR|56=TRGT|52=20090407-09:48:19.812|112= TEST #031 CHECK 4 REJECT MSGS with INVALID MESSAGE - INCORRECT DATA TYPE [MsgType:_G, Tag:_114]|10=018|
8=FIX.4.2|9=128|35=D|49=TESTI|56=TESTA|34=4|52=20030204-08:46:14|11=90001008|21=2|55=TESTB|54=1|60=20060217-10:00:00|38=4000|40=1|121=Y|120=AfA|10=071|
8=FIX.4.2|9=128|35=D|49=TESTI|56=TESTA|34=4|52=20030204-08:46:14|11=90001008|21=2|55=TESTB|54=1|60=20060217-10:00:00|38=4000|40=1|121=Y|120=xxx|10=071|
8=FIX.4.2|9=128|35=D|49=TESTI|56=TESTA|34=4|52=20030204-08:46:14|11=90001008|21=2|55=TESTB|54=1|60=20060217-10:00:00|38=4000|40=1|121=Y|120=-1|10=071|
8=FIX.4.2|9=128|35=D|49=TESTI|56=TESTA|34=4|52=20030204-08:46:14|11=90001008|21=2|55=TESTB|54=1|60=20060217-10:00:00|38=4000|40=1|121=Y|120=0|10=071|
8=FIX.4.2|9=140|35=1|34=104|49=SNDR|56=TRGT|52=20090407-09:48:19.812|112= TEST #032 CHECK 4 REJECT MSGS with INVALID MESSAGE - INCORRECT DATA TYPE [MsgType:_D, Tag:_120]|10=018|
8=FIX.4.2|9=128|35=D|49=TESTI|56=TESTA|34=4|52=20030204-08:46:14|11=90001008|21=2|55=TESTB|54=1|60=20060217-10:00:00|38=4000|40=1|121=y|10=071|
8=FIX.4.2|9=128|35=D|49=TESTI|56=TESTA|34=4|52=20030204-08:46:14|11=90001008|21=2|55=TESTB|54=1|60=20060217-10:00:00|38=4000|40=1|121=n|10=071|
8=FIX.4.2|9=128|35=D|49=TESTI|56=TESTA|34=4|52=20030204-08:46:14|11=90001008|21=2|55=TESTB|54=1|60=20060217-10:00:00|38=4000|40=1|121=0|10=071|
8=FIX.4.2|9=128|35=D|49=TESTI|56=TESTA|34=4|52=20030204-08:46:14|11=90001008|21=2|55=TESTB|54=1|60=20060217-10:00:00|38=4000|40=1|121=-1|10=071|
8=FIX.4.2|9=140|35=1|34=104|49=SNDR|56=TRGT|52=20090407-09:48:19.812|112= TEST #033 CHECK 4 REJECT MSGS with INVALID MESSAGE - INCORRECT DATA TYPE [MsgType:_D, Tag:_121]|10=018|
8=FIX.4.2|9=95|35=Q|49=TESTI|56=TESTA|34=4|52=20030204-09:28:44|37=01923883|17=11|127=a|55=TESTB|54=1|38=4000|10=027|
8=FIX.4.2|9=95|35=Q|49=TESTI|56=TESTA|34=4|52=20030204-09:28:44|37=01923883|17=11|127=z|55=TESTB|54=1|38=4000|10=027|
8=FIX.4.2|9=95|35=Q|49=TESTI|56=TESTA|34=4|52=20030204-09:28:44|37=01923883|17=11|127=0|55=TESTB|54=1|38=4000|10=027|
8=FIX.4.2|9=95|35=Q|49=TESTI|56=TESTA|34=4|52=20030204-09:28:44|37=01923883|17=11|127=-1|55=TESTB|54=1|38=4000|10=027|
8=FIX.4.2|9=140|35=1|34=104|49=SNDR|56=TRGT|52=20090407-09:48:19.812|112= TEST #034 CHECK 4 REJECT MSGS with INVALID MESSAGE - INCORRECT DATA TYPE [MsgType:_Q, Tag:_127]|10=018|
8=FIX.4.2|9=87|35=6|49=TESTI|56=TESTA|34=121|52=20030203-16:10:01|23=24|28=N|55=TESTB|54=1|27=S|130=y|10=142|
8=FIX.4.2|9=87|35=6|49=TESTI|56=TESTA|34=121|52=20030203-16:10:01|23=24|28=N|55=TESTB|54=1|27=S|130=n|10=142|
8=FIX.4.2|9=87|35=6|49=TESTI|56=TESTA|34=121|52=20030203-16:10:01|23=24|28=N|55=TESTB|54=1|27=S|130=-1|10=142|
8=FIX.4.2|9=87|35=6|49=TESTI|56=TESTA|34=121|52=20030203-16:10:01|23=24|28=N|55=TESTB|54=1|27=S|130=0|10=142|
8=FIX.4.2|9=140|35=1|34=104|49=SNDR|56=TRGT|52=20090407-09:48:19.812|112= TEST #035 CHECK 4 REJECT MSGS with INVALID MESSAGE - INCORRECT DATA TYPE [MsgType:_6, Tag:_130]|10=018|
8=FIX.4.2|9=195|35=J|49=TESTI|56=TESTA|34=4|52=20030204-08:56:41|70=1116226|71=0|73=2|11=90001008|11=90000008|54=1|55=TESTB|53=1004000|6=30|75=20030821|78=3|79=1000|80=500000|79=2000|80=400000|79=3000|80=104000|136=1|137=10|138=AfA|139=7|10=030|
8=FIX.4.2|9=195|35=J|49=TESTI|56=TESTA|34=4|52=20030204-08:56:41|70=1116226|71=0|73=2|11=90001008|11=90000008|54=1|55=TESTB|53=1004000|6=30|75=20030821|78=3|79=1000|80=500000|79=2000|80=400000|79=3000|80=104000|136=1|137=10|138=xxx139=7|10=030|
8=FIX.4.2|9=195|35=J|49=TESTI|56=TESTA|34=4|52=20030204-08:56:41|70=1116226|71=0|73=2|11=90001008|11=90000008|54=1|55=TESTB|53=1004000|6=30|75=20030821|78=3|79=1000|80=500000|79=2000|80=400000|79=3000|80=104000|136=1|137=10|138=-1|139=7|10=030|
8=FIX.4.2|9=195|35=J|49=TESTI|56=TESTA|34=4|52=20030204-08:56:41|70=1116226|71=0|73=2|11=90001008|11=90000008|54=1|55=TESTB|53=1004000|6=30|75=20030821|78=3|79=1000|80=500000|79=2000|80=400000|79=3000|80=104000|136=1|137=10|138=0|139=7|10=030|
8=FIX.4.2|9=140|35=1|34=104|49=SNDR|56=TRGT|52=20090407-09:48:19.812|112= TEST #036 CHECK 4 REJECT MSGS with INVALID MESSAGE - INCORRECT DATA TYPE [MsgType:_J, Tag:_138]|10=018|
8=FIX.4.2|9=195|35=J|49=TESTI|56=TESTA|34=4|52=20030204-08:56:41|70=1116226|71=0|73=2|11=90001008|11=90000008|54=1|55=TESTB|53=1004000|6=30|75=20030821|78=3|79=1000|80=500000|79=2000|80=400000|79=3000|80=104000|136=1|137=10|138=AFA|139=0|10=030|
8=FIX.4.2|9=195|35=J|49=TESTI|56=TESTA|34=4|52=20030204-08:56:41|70=1116226|71=0|73=2|11=90001008|11=90000008|54=1|55=TESTB|53=1004000|6=30|75=20030821|78=3|79=1000|80=500000|79=2000|80=400000|79=3000|80=104000|136=1|137=10|138=AFA|139=-1|10=030|
8=FIX.4.2|9=195|35=J|49=TESTI|56=TESTA|34=4|52=20030204-08:56:41|70=1116226|71=0|73=2|11=90001008|11=90000008|54=1|55=TESTB|53=1004000|6=30|75=20030821|78=3|79=1000|80=500000|79=2000|80=400000|79=3000|80=104000|136=1|137=10|138=AFA|139=A|10=030|
8=FIX.4.2|9=195|35=J|49=TESTI|56=TESTA|34=4|52=20030204-08:56:41|70=1116226|71=0|73=2|11=90001008|11=90000008|54=1|55=TESTB|53=1004000|6=30|75=20030821|78=3|79=1000|80=500000|79=2000|80=400000|79=3000|80=104000|136=1|137=10|138=AFA|139=b|10=030|
8=FIX.4.2|9=140|35=1|34=104|49=SNDR|56=TRGT|52=20090407-09:48:19.812|112= TEST #037 CHECK 4 REJECT MSGS with INVALID MESSAGE - INCORRECT DATA TYPE [MsgType:_J, Tag:_139]|10=018|
8=FIX.4.2|9=125|35=8|49=TESTI|56=TESTA|34=114|52=20030203-16:09:30|37=11111111|17=12|20=3|39=0|150=-1|55=TESTB|54=1|38=1000|151=1000|14=0|6=0|10=011|
8=FIX.4.2|9=125|35=8|49=TESTI|56=TESTA|34=114|52=20030203-16:09:30|37=11111111|17=12|20=3|39=0|150=10|55=TESTB|54=1|38=1000|151=1000|14=0|6=0|10=011|
8=FIX.4.2|9=125|35=8|49=TESTI|56=TESTA|34=114|52=20030203-16:09:30|37=11111111|17=12|20=3|39=0|150=F|55=TESTB|54=1|38=1000|151=1000|14=0|6=0|10=011|
8=FIX.4.2|9=125|35=8|49=TESTI|56=TESTA|34=114|52=20030203-16:09:30|37=11111111|17=12|20=3|39=0|150=a|55=TESTB|54=1|38=1000|151=1000|14=0|6=0|10=011|
8=FIX.4.2|9=140|35=1|34=104|49=SNDR|56=TRGT|52=20090407-09:48:19.812|112= TEST #038 CHECK 4 REJECT MSGS with INVALID MESSAGE - INCORRECT DATA TYPE [MsgType:_8, Tag:_150]|10=018|
8=FIX.4.2|9=125|35=8|49=TESTI|56=TESTA|34=114|52=20030203-16:09:30|37=11111111|17=12|20=3|39=0|150=0|55=TESTB|54=1|38=1000|151=1000|14=0|6=0|156=m|10=011|
8=FIX.4.2|9=125|35=8|49=TESTI|56=TESTA|34=114|52=20030203-16:09:30|37=11111111|17=12|20=3|39=0|150=0|55=TESTB|54=1|38=1000|151=1000|14=0|6=0|156=d|10=011|
8=FIX.4.2|9=125|35=8|49=TESTI|56=TESTA|34=114|52=20030203-16:09:30|37=11111111|17=12|20=3|39=0|150=0|55=TESTB|54=1|38=1000|151=1000|14=0|6=0|156=0|10=011|
8=FIX.4.2|9=125|35=8|49=TESTI|56=TESTA|34=114|52=20030203-16:09:30|37=11111111|17=12|20=3|39=0|150=0|55=TESTB|54=1|38=1000|151=1000|14=0|6=0|156=-1|10=011|
8=FIX.4.2|9=140|35=1|34=104|49=SNDR|56=TRGT|52=20090407-09:48:19.812|112= TEST #039 CHECK 4 REJECT MSGS with INVALID MESSAGE - INCORRECT DATA TYPE [MsgType:_8, Tag:_156]|10=018|
8=FIX.4.2|9=157|35=T|49=TESTI|56=TESTA|34=1|52=20030204-09:25:43|162=11223|163=N|160=-1|165=1|60=20060217-10:00:00|10=105|
8=FIX.4.2|9=157|35=T|49=TESTI|56=TESTA|34=1|52=20030204-09:25:43|162=11223|163=N|160=4|165=1|60=20060217-10:00:00|10=105|
8=FIX.4.2|9=157|35=T|49=TESTI|56=TESTA|34=1|52=20030204-09:25:43|162=11223|163=N|160=A|165=1|60=20060217-10:00:00|10=105|
8=FIX.4.2|9=157|35=T|49=TESTI|56=TESTA|34=1|52=20030204-09:25:43|162=11223|163=N|160=b|165=1|60=20060217-10:00:00|10=105|
8=FIX.4.2|9=140|35=1|34=104|49=SNDR|56=TRGT|52=20090407-09:48:19.812|112= TEST #040 CHECK 4 REJECT MSGS with INVALID MESSAGE - INCORRECT DATA TYPE [MsgType:_T, Tag:_160]|10=018|
8=FIX.4.2|9=157|35=T|49=TESTI|56=TESTA|34=1|52=20030204-09:25:43|162=11223|163=n|160=0|165=1|60=20060217-10:00:00|10=105|
8=FIX.4.2|9=157|35=T|49=TESTI|56=TESTA|34=1|52=20030204-09:25:43|162=11223|163=r|160=0|165=1|60=20060217-10:00:00|10=105|
8=FIX.4.2|9=157|35=T|49=TESTI|56=TESTA|34=1|52=20030204-09:25:43|162=11223|163=0|160=0|165=1|60=20060217-10:00:00|10=105|
8=FIX.4.2|9=157|35=T|49=TESTI|56=TESTA|34=1|52=20030204-09:25:43|162=11223|163=-1|160=0|165=1|60=20060217-10:00:00|10=105|
8=FIX.4.2|9=140|35=1|34=104|49=SNDR|56=TRGT|52=20090407-09:48:19.812|112= TEST #041 CHECK 4 REJECT MSGS with INVALID MESSAGE - INCORRECT DATA TYPE [MsgType:_T, Tag:_163]|10=018|
8=FIX.4.2|9=157|35=T|49=TESTI|56=TESTA|34=1|52=20030204-09:25:43|162=11223|163=N|160=0|165=0|60=20060217-10:00:00|10=105|
8=FIX.4.2|9=157|35=T|49=TESTI|56=TESTA|34=1|52=20030204-09:25:43|162=11223|163=N|160=0|165=-1|60=20060217-10:00:00|10=105|
8=FIX.4.2|9=157|35=T|49=TESTI|56=TESTA|34=1|52=20030204-09:25:43|162=11223|163=N|160=0|165=A|60=20060217-10:00:00|10=105|
8=FIX.4.2|9=157|35=T|49=TESTI|56=TESTA|34=1|52=20030204-09:25:43|162=11223|163=N|160=0|165=b|60=20060217-10:00:00|10=105|
8=FIX.4.2|9=140|35=1|34=104|49=SNDR|56=TRGT|52=20090407-09:48:19.812|112= TEST #042 CHECK 4 REJECT MSGS with INVALID MESSAGE - INCORRECT DATA TYPE [MsgType:_T, Tag:_165]|10=018|
8=FIX.4.2|9=157|35=T|49=TESTI|56=TESTA|34=1|52=20030204-09:25:43|162=11223|163=N|160=0|165=1|166=0|60=20060217-10:00:00|10=105|
8=FIX.4.2|9=157|35=T|49=TESTI|56=TESTA|34=1|52=20030204-09:25:43|162=11223|163=N|160=0|165=1|166=-1|60=20060217-10:00:00|10=105|
8=FIX.4.2|9=157|35=T|49=TESTI|56=TESTA|34=1|52=20030204-09:25:43|162=11223|163=N|160=0|165=1|166=Ced0|60=20060217-10:00:00|10=105|
8=FIX.4.2|9=157|35=T|49=TESTI|56=TESTA|34=1|52=20030204-09:25:43|162=11223|163=N|160=0|165=1|166=EUr|60=20060217-10:00:00|10=105|
8=FIX.4.2|9=140|35=1|34=104|49=SNDR|56=TRGT|52=20090407-09:48:19.812|112= TEST #043 CHECK 4 REJECT MSGS with INVALID MESSAGE - INCORRECT DATA TYPE [MsgType:_T, Tag:_166]|10=018|
8=FIX.4.2|9=111|35=W|49=TESTI|56=TESTA|34=1|52=20030204-09:25:43|55=TESTA|167=OPt|268=2|269=0|270=10|271=50|269=1|270=11|271=40|10=019|
8=FIX.4.2|9=111|35=W|49=TESTI|56=TESTA|34=1|52=20030204-09:25:43|55=TESTA|167=fut|268=2|269=0|270=10|271=50|269=1|270=11|271=40|10=019|
8=FIX.4.2|9=111|35=W|49=TESTI|56=TESTA|34=1|52=20030204-09:25:43|55=TESTA|167=0|268=2|269=0|270=10|271=50|269=1|270=11|271=40|10=019|
8=FIX.4.2|9=111|35=W|49=TESTI|56=TESTA|34=1|52=20030204-09:25:43|55=TESTA|167=-1|268=2|269=0|270=10|271=50|269=1|270=11|271=40|10=019|
8=FIX.4.2|9=140|35=1|34=104|49=SNDR|56=TRGT|52=20090407-09:48:19.812|112= TEST #044 CHECK 4 REJECT MSGS with INVALID MESSAGE - INCORRECT DATA TYPE [MsgType:_W, Tag:_167]|10=018|
8=FIX.4.2|9=111|35=T|49=TESTI|56=TESTA|34=14|52=20030204-09:25:43|162=11223|163=N|160=0|165=1|79=KTierney|60=20060217-10:00:00|169=-1|10=106|
8=FIX.4.2|9=111|35=T|49=TESTI|56=TESTA|34=14|52=20030204-09:25:43|162=11223|163=N|160=0|165=1|79=KTierney|60=20060217-10:00:00|169=4|10=106|
8=FIX.4.2|9=111|35=T|49=TESTI|56=TESTA|34=14|52=20030204-09:25:43|162=11223|163=N|160=0|165=1|79=KTierney|60=20060217-10:00:00|169=A|10=106|
8=FIX.4.2|9=111|35=T|49=TESTI|56=TESTA|34=14|52=20030204-09:25:43|162=11223|163=N|160=0|165=1|79=KTierney|60=20060217-10:00:00|169=b|10=106|
8=FIX.4.2|9=140|35=1|34=104|49=SNDR|56=TRGT|52=20090407-09:48:19.812|112= TEST #045 CHECK 4 REJECT MSGS with INVALID MESSAGE - INCORRECT DATA TYPE [MsgType:_T, Tag:_169]|10=018|
8=FIX.4.2|9=195|35=J|49=TESTI|56=TESTA|34=4|52=20030204-08:56:41|70=1116226|71=0|196=00096|197=-1|73=2|11=90001008|11=90000008|54=1|55=TESTB|53=1004000|6=30|75=20030821|78=3|79=1000|80=500000|79=2000|80=400000|79=3000|80=104000|10=030|
8=FIX.4.2|9=195|35=J|49=TESTI|56=TESTA|34=4|52=20030204-08:56:41|70=1116226|71=0|196=00096|197=2|73=2|11=90001008|11=90000008|54=1|55=TESTB|53=1004000|6=30|75=20030821|78=3|79=1000|80=500000|79=2000|80=400000|79=3000|80=104000|10=030|
8=FIX.4.2|9=195|35=J|49=TESTI|56=TESTA|34=4|52=20030204-08:56:41|70=1116226|71=0|196=00096|197=A|73=2|11=90001008|11=90000008|54=1|55=TESTB|53=1004000|6=30|75=20030821|78=3|79=1000|80=500000|79=2000|80=400000|79=3000|80=104000|10=030|
8=FIX.4.2|9=195|35=J|49=TESTI|56=TESTA|34=4|52=20030204-08:56:41|70=1116226|71=0|196=00096|197=b|73=2|11=90001008|11=90000008|54=1|55=TESTB|53=1004000|6=30|75=20030821|78=3|79=1000|80=500000|79=2000|80=400000|79=3000|80=104000|10=030|
8=FIX.4.2|9=140|35=1|34=104|49=SNDR|56=TRGT|52=20090407-09:48:19.812|112= TEST #046 CHECK 4 REJECT MSGS with INVALID MESSAGE - INCORRECT DATA TYPE [MsgType:_J, Tag:_197]|10=018|
8=FIX.4.2|9=78|35=S|49=TESTI|56=TESTA|34=14|52=20030204-09:25:43|117=11223|55=TESTB|201=-1|133=15.3|10=004|
8=FIX.4.2|9=78|35=S|49=TESTI|56=TESTA|34=14|52=20030204-09:25:43|117=11223|55=TESTB|201=2|133=15.3|10=004|
8=FIX.4.2|9=78|35=S|49=TESTI|56=TESTA|34=14|52=20030204-09:25:43|117=11223|55=TESTB|201=A|133=15.3|10=004|
8=FIX.4.2|9=78|35=S|49=TESTI|56=TESTA|34=14|52=20030204-09:25:43|117=11223|55=TESTB|201=b|133=15.3|10=004|
8=FIX.4.2|9=140|35=1|34=104|49=SNDR|56=TRGT|52=20090407-09:48:19.812|112= TEST #047 CHECK 4 REJECT MSGS with INVALID MESSAGE - INCORRECT DATA TYPE [MsgType:_S, Tag:_201]|10=018|
8=FIX.4.2|9=149|35=E|49=TESTI|56=TESTA|34=3|52=20030204-08:18:22|66=20012411|394=3|68=1|73=2|11=1131|67=1|55=TESTB3|54=3|38=3000|11=1132|67=2|55=TESTB2|54=1|38=1000|203=-1|10=031|
8=FIX.4.2|9=149|35=E|49=TESTI|56=TESTA|34=3|52=20030204-08:18:22|66=20012411|394=3|68=1|73=2|11=1131|67=1|55=TESTB3|54=3|38=3000|11=1132|67=2|55=TESTB2|54=1|38=1000|203=2|10=031|
8=FIX.4.2|9=149|35=E|49=TESTI|56=TESTA|34=3|52=20030204-08:18:22|66=20012411|394=3|68=1|73=2|11=1131|67=1|55=TESTB3|54=3|38=3000|11=1132|67=2|55=TESTB2|54=1|38=1000|203=A|10=031|
8=FIX.4.2|9=149|35=E|49=TESTI|56=TESTA|34=3|52=20030204-08:18:22|66=20012411|394=3|68=1|73=2|11=1131|67=1|55=TESTB3|54=3|38=3000|11=1132|67=2|55=TESTB2|54=1|38=1000|203=b|10=031|
8=FIX.4.2|9=140|35=1|34=104|49=SNDR|56=TRGT|52=20090407-09:48:19.812|112= TEST #048 CHECK 4 REJECT MSGS with INVALID MESSAGE - INCORRECT DATA TYPE [MsgType:_E, Tag:_203]|10=018|
8=FIX.4.2|9=149|35=E|49=TESTI|56=TESTA|34=3|52=20030204-08:18:22|66=20012411|394=3|68=1|73=2|11=1131|67=1|55=TESTB3|54=3|38=3000|11=1132|67=2|55=TESTB2|54=1|38=1000|204=-1|10=031|
8=FIX.4.2|9=149|35=E|49=TESTI|56=TESTA|34=3|52=20030204-08:18:22|66=20012411|394=3|68=1|73=2|11=1131|67=1|55=TESTB3|54=3|38=3000|11=1132|67=2|55=TESTB2|54=1|38=1000|204=2|10=031|
8=FIX.4.2|9=149|35=E|49=TESTI|56=TESTA|34=3|52=20030204-08:18:22|66=20012411|394=3|68=1|73=2|11=1131|67=1|55=TESTB3|54=3|38=3000|11=1132|67=2|55=TESTB2|54=1|38=1000|204=A|10=031|
8=FIX.4.2|9=149|35=E|49=TESTI|56=TESTA|34=3|52=20030204-08:18:22|66=20012411|394=3|68=1|73=2|11=1131|67=1|55=TESTB3|54=3|38=3000|11=1132|67=2|55=TESTB2|54=1|38=1000|204=b|10=031|
8=FIX.4.2|9=140|35=1|34=104|49=SNDR|56=TRGT|52=20090407-09:48:19.812|112= TEST #049 CHECK 4 REJECT MSGS with INVALID MESSAGE - INCORRECT DATA TYPE [MsgType:_E, Tag:_204]|10=018|
8=FIX.4.2|9=149|35=E|49=TESTI|56=TESTA|34=3|52=20030204-08:18:22|66=20012411|394=3|68=1|73=2|11=1131|67=1|55=TESTB3|54=3|38=3000|11=1132|67=2|55=TESTB2|54=1|38=1000|206=l|10=031|
8=FIX.4.2|9=149|35=E|49=TESTI|56=TESTA|34=3|52=20030204-08:18:22|66=20012411|394=3|68=1|73=2|11=1131|67=1|55=TESTB3|54=3|38=3000|11=1132|67=2|55=TESTB2|54=1|38=1000|206=s|10=031|
8=FIX.4.2|9=149|35=E|49=TESTI|56=TESTA|34=3|52=20030204-08:18:22|66=20012411|394=3|68=1|73=2|11=1131|67=1|55=TESTB3|54=3|38=3000|11=1132|67=2|55=TESTB2|54=1|38=1000|206=-1|10=031|
8=FIX.4.2|9=149|35=E|49=TESTI|56=TESTA|34=3|52=20030204-08:18:22|66=20012411|394=3|68=1|73=2|11=1131|67=1|55=TESTB3|54=3|38=3000|11=1132|67=2|55=TESTB2|54=1|38=1000|206=10|10=031|
8=FIX.4.2|9=140|35=1|34=104|49=SNDR|56=TRGT|52=20090407-09:48:19.812|112= TEST #050 CHECK 4 REJECT MSGS with INVALID MESSAGE - INCORRECT DATA TYPE [MsgType:_E, Tag:_206]|10=018|
8=FIX.4.2|9=195|35=J|49=TESTI|56=TESTA|34=4|52=20030204-08:56:41|70=1116226|71=0|73=2|11=90001008|11=90000008|54=1|55=TESTB|53=1004000|6=30|75=20030821|78=3|79=1000|80=500000|79=2000|80=400000|79=3000|80=104000|208=y|10=030|
8=FIX.4.2|9=195|35=J|49=TESTI|56=TESTA|34=4|52=20030204-08:56:41|70=1116226|71=0|73=2|11=90001008|11=90000008|54=1|55=TESTB|53=1004000|6=30|75=20030821|78=3|79=1000|80=500000|79=2000|80=400000|79=3000|80=104000|208=n|10=030|
8=FIX.4.2|9=195|35=J|49=TESTI|56=TESTA|34=4|52=20030204-08:56:41|70=1116226|71=0|73=2|11=90001008|11=90000008|54=1|55=TESTB|53=1004000|6=30|75=20030821|78=3|79=1000|80=500000|79=2000|80=400000|79=3000|80=104000|208=0|10=030|
8=FIX.4.2|9=195|35=J|49=TESTI|56=TESTA|34=4|52=20030204-08:56:41|70=1116226|71=0|73=2|11=90001008|11=90000008|54=1|55=TESTB|53=1004000|6=30|75=20030821|78=3|79=1000|80=500000|79=2000|80=400000|79=3000|80=104000|208=-1|10=030|
8=FIX.4.2|9=140|35=1|34=104|49=SNDR|56=TRGT|52=20090407-09:48:19.812|112= TEST #051 CHECK 4 REJECT MSGS with INVALID MESSAGE - INCORRECT DATA TYPE [MsgType:_J, Tag:_208]|10=018|
8=FIX.4.2|9=195|35=J|49=TESTI|56=TESTA|34=4|52=20030204-08:56:41|70=1116226|71=0|73=2|11=90001008|11=90000008|54=1|55=TESTB|53=1004000|6=30|75=20030821|78=3|79=1000|80=500000|79=2000|80=400000|79=3000|80=104000|209=0|10=030|
8=FIX.4.2|9=195|35=J|49=TESTI|56=TESTA|34=4|52=20030204-08:56:41|70=1116226|71=0|73=2|11=90001008|11=90000008|54=1|55=TESTB|53=1004000|6=30|75=20030821|78=3|79=1000|80=500000|79=2000|80=400000|79=3000|80=104000|209=-1|10=030|
8=FIX.4.2|9=195|35=J|49=TESTI|56=TESTA|34=4|52=20030204-08:56:41|70=1116226|71=0|73=2|11=90001008|11=90000008|54=1|55=TESTB|53=1004000|6=30|75=20030821|78=3|79=1000|80=500000|79=2000|80=400000|79=3000|80=104000|209=A|10=030|
8=FIX.4.2|9=195|35=J|49=TESTI|56=TESTA|34=4|52=20030204-08:56:41|70=1116226|71=0|73=2|11=90001008|11=90000008|54=1|55=TESTB|53=1004000|6=30|75=20030821|78=3|79=1000|80=500000|79=2000|80=400000|79=3000|80=104000|209=b|10=030|
8=FIX.4.2|9=140|35=1|34=104|49=SNDR|56=TRGT|52=20090407-09:48:19.812|112= TEST #052 CHECK 4 REJECT MSGS with INVALID MESSAGE - INCORRECT DATA TYPE [MsgType:_J, Tag:_209]|10=018|
8=FIX.4.2|9=166|35=B|49=TESTI|56=TESTA|34=19|52=20030203-16:21:17|148=Weather|215=1|216=0|217=000217|33=4|58=In the evening |58=it might be wet |58=and windy.|58= Take your coat on.|10=207|
8=FIX.4.2|9=166|35=B|49=TESTI|56=TESTA|34=19|52=20030203-16:21:17|148=Weather|215=1|216=-1|217=000217|33=4|58=In the evening |58=it might be wet |58=and windy.|58= Take your coat on.|10=207|
8=FIX.4.2|9=166|35=B|49=TESTI|56=TESTA|34=19|52=20030203-16:21:17|148=Weather|215=1|216=A|217=000217|33=4|58=In the evening |58=it might be wet |58=and windy.|58= Take your coat on.|10=207|
8=FIX.4.2|9=166|35=B|49=TESTI|56=TESTA|34=19|52=20030203-16:21:17|148=Weather|215=1|216=b|217=000217|33=4|58=In the evening |58=it might be wet |58=and windy.|58= Take your coat on.|10=207|
8=FIX.4.2|9=140|35=1|34=104|49=SNDR|56=TRGT|52=20090407-09:48:19.812|112= TEST #053 CHECK 4 REJECT MSGS with INVALID MESSAGE - INCORRECT DATA TYPE [MsgType:_B, Tag:_216]|10=018|
8=FIX.4.2|9=81|35=6|49=TESTI|56=TESTA|34=121|52=20030203-16:10:01|23=24|28=N|55=TESTB|54=1|27=S|219=0|10=102|
8=FIX.4.2|9=81|35=6|49=TESTI|56=TESTA|34=121|52=20030203-16:10:01|23=24|28=N|55=TESTB|54=1|27=S|219=-1|10=102|
8=FIX.4.2|9=81|35=6|49=TESTI|56=TESTA|34=121|52=20030203-16:10:01|23=24|28=N|55=TESTB|54=1|27=S|219=A|10=102|
8=FIX.4.2|9=81|35=6|49=TESTI|56=TESTA|34=121|52=20030203-16:10:01|23=24|28=N|55=TESTB|54=1|27=S|219=b|10=102|
8=FIX.4.2|9=140|35=1|34=104|49=SNDR|56=TRGT|52=20090407-09:48:19.812|112= TEST #054 CHECK 4 REJECT MSGS with INVALID MESSAGE - INCORRECT DATA TYPE [MsgType:_6, Tag:_219]|10=018|
8=FIX.4.2|9=65|35=g|49=TESTI|56=TESTA|34=14|52=20030204-09:25:43|335=0001|263=-1|10=035|
8=FIX.4.2|9=65|35=g|49=TESTI|56=TESTA|34=14|52=20030204-09:25:43|335=0001|263=3|10=035|
8=FIX.4.2|9=65|35=g|49=TESTI|56=TESTA|34=14|52=20030204-09:25:43|335=0001|263=A|10=035|
8=FIX.4.2|9=65|35=g|49=TESTI|56=TESTA|34=14|52=20030204-09:25:43|335=0001|263=b|10=035|
8=FIX.4.2|9=140|35=1|34=104|49=SNDR|56=TRGT|52=20090407-09:48:19.812|112= TEST #055 CHECK 4 REJECT MSGS with INVALID MESSAGE - INCORRECT DATA TYPE [MsgType:_g, Tag:_263]|10=018|
8=FIX.4.2|9=114|35=V|49=TESTI|56=TESTA|34=14|52=20030204-09:25:43|262=11223|263=0|264=-1|267=2|269=0|269=1|146=2|55=TESTA|55=TESTB|10=008|
8=FIX.4.2|9=114|35=V|49=TESTI|56=TESTA|34=14|52=20030204-09:25:43|262=11223|263=0|264=Y|267=2|269=0|269=1|146=2|55=TESTA|55=TESTB|10=008|
8=FIX.4.2|9=114|35=V|49=TESTI|56=TESTA|34=14|52=20030204-09:25:43|262=11223|263=0|264=A|267=2|269=0|269=1|146=2|55=TESTA|55=TESTB|10=008|
8=FIX.4.2|9=114|35=V|49=TESTI|56=TESTA|34=14|52=20030204-09:25:43|262=11223|263=0|264=b|267=2|269=0|269=1|146=2|55=TESTA|55=TESTB|10=008|
8=FIX.4.2|9=140|35=1|34=104|49=SNDR|56=TRGT|52=20090407-09:48:19.812|112= TEST #056 CHECK 4 REJECT MSGS with INVALID MESSAGE - INCORRECT DATA TYPE [MsgType:_V, Tag:_264]|10=018|
8=FIX.4.2|9=114|35=V|49=TESTI|56=TESTA|34=14|52=20030204-09:25:43|262=11223|263=0|264=1|265=-1|267=2|269=0|269=1|146=2|55=TESTA|55=TESTB|10=008|
8=FIX.4.2|9=114|35=V|49=TESTI|56=TESTA|34=14|52=20030204-09:25:43|262=11223|263=0|264=1|265=2|267=2|269=0|269=1|146=2|55=TESTA|55=TESTB|10=008|
8=FIX.4.2|9=114|35=V|49=TESTI|56=TESTA|34=14|52=20030204-09:25:43|262=11223|263=0|264=1|265=A|267=2|269=0|269=1|146=2|55=TESTA|55=TESTB|10=008|
8=FIX.4.2|9=114|35=V|49=TESTI|56=TESTA|34=14|52=20030204-09:25:43|262=11223|263=0|264=1|265=b|267=2|269=0|269=1|146=2|55=TESTA|55=TESTB|10=008|
8=FIX.4.2|9=140|35=1|34=104|49=SNDR|56=TRGT|52=20090407-09:48:19.812|112= TEST #057 CHECK 4 REJECT MSGS with INVALID MESSAGE - INCORRECT DATA TYPE [MsgType:_V, Tag:_265]|10=018|
8=FIX.4.2|9=114|35=V|49=TESTI|56=TESTA|34=14|52=20030204-09:25:43|262=11223|263=0|264=0|266=y|267=2|269=0|269=1|146=2|55=TESTA|55=TESTB|10=008|
8=FIX.4.2|9=114|35=V|49=TESTI|56=TESTA|34=14|52=20030204-09:25:43|262=11223|263=0|264=0|266=n|267=2|269=0|269=1|146=2|55=TESTA|55=TESTB|10=008|
8=FIX.4.2|9=114|35=V|49=TESTI|56=TESTA|34=14|52=20030204-09:25:43|262=11223|263=0|264=0|266=0|267=2|269=0|269=1|146=2|55=TESTA|55=TESTB|10=008|
8=FIX.4.2|9=114|35=V|49=TESTI|56=TESTA|34=14|52=20030204-09:25:43|262=11223|263=0|264=0|266=-1|267=2|269=0|269=1|146=2|55=TESTA|55=TESTB|10=008|
8=FIX.4.2|9=140|35=1|34=104|49=SNDR|56=TRGT|52=20090407-09:48:19.812|112= TEST #058 CHECK 4 REJECT MSGS with INVALID MESSAGE - INCORRECT DATA TYPE [MsgType:_V, Tag:_266]|10=018|
8=FIX.4.2|9=100|35=X|49=TESTI|56=TESTA|34=14|52=20030204-09:25:43|268=1|279=0|269=-1|280=0001|270=10|10=107|
8=FIX.4.2|9=100|35=X|49=TESTI|56=TESTA|34=14|52=20030204-09:25:43|268=1|279=0|269=10|280=0001|270=10|10=107|
8=FIX.4.2|9=100|35=X|49=TESTI|56=TESTA|34=14|52=20030204-09:25:43|268=1|279=0|269=A|280=0001|270=10|10=107|
8=FIX.4.2|9=100|35=X|49=TESTI|56=TESTA|34=14|52=20030204-09:25:43|268=1|279=0|269=b|280=0001|270=10|10=107|
8=FIX.4.2|9=140|35=1|34=104|49=SNDR|56=TRGT|52=20090407-09:48:19.812|112= TEST #059 CHECK 4 REJECT MSGS with INVALID MESSAGE - INCORRECT DATA TYPE [MsgType:_X, Tag:_269]|10=018|
8=FIX.4.2|9=100|35=X|49=TESTI|56=TESTA|34=14|52=20030204-09:25:43|268=1|279=1|280=0001|270=10|274=-1|10=107|
8=FIX.4.2|9=100|35=X|49=TESTI|56=TESTA|34=14|52=20030204-09:25:43|268=1|279=1|280=0001|270=10|274=4|10=107|
8=FIX.4.2|9=100|35=X|49=TESTI|56=TESTA|34=14|52=20030204-09:25:43|268=1|279=1|280=0001|270=10|274=A|10=107|
8=FIX.4.2|9=100|35=X|49=TESTI|56=TESTA|34=14|52=20030204-09:25:43|268=1|279=1|280=0001|270=10|274=b|10=107|
8=FIX.4.2|9=140|35=1|34=104|49=SNDR|56=TRGT|52=20090407-09:48:19.812|112= TEST #060 CHECK 4 REJECT MSGS with INVALID MESSAGE - INCORRECT DATA TYPE [MsgType:_X, Tag:_274]|10=018|
8=FIX.4.2|9=100|35=X|49=TESTI|56=TESTA|34=14|52=20030204-09:25:43|268=1|279=1|280=0001|270=10|275=-1|10=107|
8=FIX.4.2|9=100|35=X|49=TESTI|56=TESTA|34=14|52=20030204-09:25:43|268=1|279=1|280=0001|270=10|275=18|10=107|
8=FIX.4.2|9=100|35=X|49=TESTI|56=TESTA|34=14|52=20030204-09:25:43|268=1|279=1|280=0001|270=10|275=Tn|10=107|
8=FIX.4.2|9=100|35=X|49=TESTI|56=TESTA|34=14|52=20030204-09:25:43|268=1|279=1|280=0001|270=10|275=sbI|10=107|
8=FIX.4.2|9=140|35=1|34=104|49=SNDR|56=TRGT|52=20090407-09:48:19.812|112= TEST #061 CHECK 4 REJECT MSGS with INVALID MESSAGE - INCORRECT DATA TYPE [MsgType:_X, Tag:_275]|10=018|
8=FIX.4.2|9=100|35=X|49=TESTI|56=TESTA|34=14|52=20030204-09:25:43|268=1|279=-1|280=0001|270=10|10=107|
8=FIX.4.2|9=100|35=X|49=TESTI|56=TESTA|34=14|52=20030204-09:25:43|268=1|279=3|280=0001|270=10|10=107|
8=FIX.4.2|9=100|35=X|49=TESTI|56=TESTA|34=14|52=20030204-09:25:43|268=1|279=A|280=0001|270=10|10=107|
8=FIX.4.2|9=100|35=X|49=TESTI|56=TESTA|34=14|52=20030204-09:25:43|268=1|279=b|280=0001|270=10|10=107|
8=FIX.4.2|9=140|35=1|34=104|49=SNDR|56=TRGT|52=20090407-09:48:19.812|112= TEST #062 CHECK 4 REJECT MSGS with INVALID MESSAGE - INCORRECT DATA TYPE [MsgType:_X, Tag:_279]|10=018|
8=FIX.4.2|9=60|35=Y|49=TESTI|56=TESTA|34=14|52=20030204-09:25:43|262=11223|281=-1|10=060|
8=FIX.4.2|9=60|35=Y|49=TESTI|56=TESTA|34=14|52=20030204-09:25:43|262=11223|281=9|10=060|
8=FIX.4.2|9=60|35=Y|49=TESTI|56=TESTA|34=14|52=20030204-09:25:43|262=11223|281=A|10=060|
8=FIX.4.2|9=60|35=Y|49=TESTI|56=TESTA|34=14|52=20030204-09:25:43|262=11223|281=b|10=060|
8=FIX.4.2|9=140|35=1|34=104|49=SNDR|56=TRGT|52=20090407-09:48:19.812|112= TEST #063 CHECK 4 REJECT MSGS with INVALID MESSAGE - INCORRECT DATA TYPE [MsgType:_Y, Tag:_281]|10=018|
8=FIX.4.2|9=100|35=X|49=TESTI|56=TESTA|34=14|52=20030204-09:25:43|268=1|279=1|285=-1|280=0001|270=10|10=107|
8=FIX.4.2|9=100|35=X|49=TESTI|56=TESTA|34=14|52=20030204-09:25:43|268=1|279=1|285=2|280=0001|270=10|10=107|
8=FIX.4.2|9=100|35=X|49=TESTI|56=TESTA|34=14|52=20030204-09:25:43|268=1|279=1|285=A|280=0001|270=10|10=107|
8=FIX.4.2|9=100|35=X|49=TESTI|56=TESTA|34=14|52=20030204-09:25:43|268=1|279=1|285=b|280=0001|270=10|10=107|
8=FIX.4.2|9=140|35=1|34=104|49=SNDR|56=TRGT|52=20090407-09:48:19.812|112= TEST #064 CHECK 4 REJECT MSGS with INVALID MESSAGE - INCORRECT DATA TYPE [MsgType:_X, Tag:_285]|10=018|
8=FIX.4.2|9=100|35=X|49=TESTI|56=TESTA|34=14|52=20030204-09:25:43|268=1|279=1|280=0001|270=10|286=-1|10=107|
8=FIX.4.2|9=100|35=X|49=TESTI|56=TESTA|34=14|52=20030204-09:25:43|268=1|279=1|280=0001|270=10|286=3|10=107|
8=FIX.4.2|9=100|35=X|49=TESTI|56=TESTA|34=14|52=20030204-09:25:43|268=1|279=1|280=0001|270=10|286=A|10=107|
8=FIX.4.2|9=100|35=X|49=TESTI|56=TESTA|34=14|52=20030204-09:25:43|268=1|279=1|280=0001|270=10|286=b|10=107|
8=FIX.4.2|9=140|35=1|34=104|49=SNDR|56=TRGT|52=20090407-09:48:19.812|112= TEST #065 CHECK 4 REJECT MSGS with INVALID MESSAGE - INCORRECT DATA TYPE [MsgType:_X, Tag:_286]|10=018|
8=FIX.4.2|9=59|35=f|49=TESTI|56=TESTA|34=14|52=20030204-09:25:43|55=TESTB|291=0|10=170|
8=FIX.4.2|9=59|35=f|49=TESTI|56=TESTA|34=14|52=20030204-09:25:43|55=TESTB|291=-1|10=170|
8=FIX.4.2|9=59|35=f|49=TESTI|56=TESTA|34=14|52=20030204-09:25:43|55=TESTB|291=A|10=170|
8=FIX.4.2|9=59|35=f|49=TESTI|56=TESTA|34=14|52=20030204-09:25:43|55=TESTB|291=b|10=170|
8=FIX.4.2|9=140|35=1|34=104|49=SNDR|56=TRGT|52=20090407-09:48:19.812|112= TEST #066 CHECK 4 REJECT MSGS with INVALID MESSAGE - INCORRECT DATA TYPE [MsgType:_f, Tag:_291]|10=018|
8=FIX.4.2|9=59|35=f|49=TESTI|56=TESTA|34=14|52=20030204-09:25:43|55=TESTB|292=-1|10=170|
8=FIX.4.2|9=59|35=f|49=TESTI|56=TESTA|34=14|52=20030204-09:25:43|55=TESTB|292=0|10=170|
8=FIX.4.2|9=59|35=f|49=TESTI|56=TESTA|34=14|52=20030204-09:25:43|55=TESTB|292=F|10=170|
8=FIX.4.2|9=59|35=f|49=TESTI|56=TESTA|34=14|52=20030204-09:25:43|55=TESTB|292=a|10=170|
8=FIX.4.2|9=140|35=1|34=104|49=SNDR|56=TRGT|52=20090407-09:48:19.812|112= TEST #067 CHECK 4 REJECT MSGS with INVALID MESSAGE - INCORRECT DATA TYPE [MsgType:_f, Tag:_292]|10=018|
8=FIX.4.2|9=56|35=b|49=TESTI|56=TESTA|34=14|52=20030204-09:25:43|297=-1|10=137|
8=FIX.4.2|9=56|35=b|49=TESTI|56=TESTA|34=14|52=20030204-09:25:43|297=6|10=137|
8=FIX.4.2|9=56|35=b|49=TESTI|56=TESTA|34=14|52=20030204-09:25:43|297=A|10=137|
8=FIX.4.2|9=56|35=b|49=TESTI|56=TESTA|34=14|52=20030204-09:25:43|297=b|10=137|
8=FIX.4.2|9=140|35=1|34=104|49=SNDR|56=TRGT|52=20090407-09:48:19.812|112= TEST #068 CHECK 4 REJECT MSGS with INVALID MESSAGE - INCORRECT DATA TYPE [MsgType:_b, Tag:_297]|10=018|
8=FIX.4.2|9=90|35=Z|49=TESTI|56=TESTA|34=14|52=20030204-09:25:43|117=11223|298=0|295=2|55=TESTB|55=TESTC|10=185|
8=FIX.4.2|9=90|35=Z|49=TESTI|56=TESTA|34=14|52=20030204-09:25:43|117=11223|298=-1|295=2|55=TESTB|55=TESTC|10=185|
8=FIX.4.2|9=90|35=Z|49=TESTI|56=TESTA|34=14|52=20030204-09:25:43|117=11223|298=A|295=2|55=TESTB|55=TESTC|10=185|
8=FIX.4.2|9=90|35=Z|49=TESTI|56=TESTA|34=14|52=20030204-09:25:43|117=11223|298=b|295=2|55=TESTB|55=TESTC|10=185|
8=FIX.4.2|9=140|35=1|34=104|49=SNDR|56=TRGT|52=20090407-09:48:19.812|112= TEST #069 CHECK 4 REJECT MSGS with INVALID MESSAGE - INCORRECT DATA TYPE [MsgType:_Z, Tag:_298]|10=018|
8=FIX.4.2|9=56|35=b|49=TESTI|56=TESTA|34=14|52=20030204-09:25:43|297=0|300=0|10=137|
8=FIX.4.2|9=56|35=b|49=TESTI|56=TESTA|34=14|52=20030204-09:25:43|297=0|300=-1|10=137|
8=FIX.4.2|9=56|35=b|49=TESTI|56=TESTA|34=14|52=20030204-09:25:43|297=0|300=A|10=137|
8=FIX.4.2|9=56|35=b|49=TESTI|56=TESTA|34=14|52=20030204-09:25:43|297=0|300=b|10=137|
8=FIX.4.2|9=140|35=1|34=104|49=SNDR|56=TRGT|52=20090407-09:48:19.812|112= TEST #070 CHECK 4 REJECT MSGS with INVALID MESSAGE - INCORRECT DATA TYPE [MsgType:_b, Tag:_300]|10=018|
8=FIX.4.2|9=84|35=S|49=TESTI|56=TESTA|34=14|52=20030204-09:25:43|117=11223|301=-1|55=TESTB|133=15.3|10=005|
8=FIX.4.2|9=84|35=S|49=TESTI|56=TESTA|34=14|52=20030204-09:25:43|117=11223|301=3|55=TESTB|133=15.3|10=005|
8=FIX.4.2|9=84|35=S|49=TESTI|56=TESTA|34=14|52=20030204-09:25:43|117=11223|301=A|55=TESTB|133=15.3|10=005|
8=FIX.4.2|9=84|35=S|49=TESTI|56=TESTA|34=14|52=20030204-09:25:43|117=11223|301=b|55=TESTB|133=15.3|10=005|
8=FIX.4.2|9=140|35=1|34=104|49=SNDR|56=TRGT|52=20090407-09:48:19.812|112= TEST #071 CHECK 4 REJECT MSGS with INVALID MESSAGE - INCORRECT DATA TYPE [MsgType:_S, Tag:_301]|10=018|
8=FIX.4.2|9=85|35=R|49=TESTI|56=TESTA|34=8|52=20030204-09:25:21|131=1272727|146=1|55=TESTB|303=0|10=215|
8=FIX.4.2|9=85|35=R|49=TESTI|56=TESTA|34=8|52=20030204-09:25:21|131=1272727|146=1|55=TESTB|303=-1|10=215|
8=FIX.4.2|9=85|35=R|49=TESTI|56=TESTA|34=8|52=20030204-09:25:21|131=1272727|146=1|55=TESTB|303=A|10=215|
8=FIX.4.2|9=85|35=R|49=TESTI|56=TESTA|34=8|52=20030204-09:25:21|131=1272727|146=1|55=TESTB|303=b|10=215|
8=FIX.4.2|9=140|35=1|34=104|49=SNDR|56=TRGT|52=20090407-09:48:19.812|112= TEST #072 CHECK 4 REJECT MSGS with INVALID MESSAGE - INCORRECT DATA TYPE [MsgType:_R, Tag:_303]|10=018|
8=FIX.4.2|9=244|35=i|49=TESTI|56=TESTA|34=4|52=20030204-08:56:41|117=1116226|296=1|302=0001|311=TESTA|305=-1|304=5|295=1|299=11|55=TESTB|132=11|10=035|
8=FIX.4.2|9=244|35=i|49=TESTI|56=TESTA|34=4|52=20030204-08:56:41|117=1116226|296=1|302=0001|311=TESTA|305=0|304=5|295=1|299=11|55=TESTB|132=11|10=035|
8=FIX.4.2|9=244|35=i|49=TESTI|56=TESTA|34=4|52=20030204-08:56:41|117=1116226|296=1|302=0001|311=TESTA|305=10|304=5|295=1|299=11|55=TESTB|132=11|10=035|
8=FIX.4.2|9=244|35=i|49=TESTI|56=TESTA|34=4|52=20030204-08:56:41|117=1116226|296=1|302=0001|311=TESTA|305=A|304=5|295=1|299=11|55=TESTB|132=11|10=035|
8=FIX.4.2|9=140|35=1|34=104|49=SNDR|56=TRGT|52=20090407-09:48:19.812|112= TEST #073 CHECK 4 REJECT MSGS with INVALID MESSAGE - INCORRECT DATA TYPE [MsgType:_i, Tag:_305]|10=018|
8=FIX.4.2|9=258|35=i|49=TESTI|56=TESTA|34=1|52=20030204-08:56:41|117=1116226|296=2|302=0001|311=TESTA|310=Fut|304=5|295=2|299=11|55=TESTB|132=11|299=12|55=TESTC|133=12|302=0002|311=TESTB|310=CS|304=5|295=3|299=21|55=TESTD|132=13|299=22|55=TESTE|133=14|299=23|55=TESTF|133=15|10=002|
8=FIX.4.2|9=258|35=i|49=TESTI|56=TESTA|34=1|52=20030204-08:56:41|117=1116226|296=2|302=0001|311=TESTA|310=tD|304=5|295=2|299=11|55=TESTB|132=11|299=12|55=TESTC|133=12|302=0002|311=TESTB|310=CS|304=5|295=3|299=21|55=TESTD|132=13|299=22|55=TESTE|133=14|299=23|55=TESTF|133=15|10=002|
8=FIX.4.2|9=258|35=i|49=TESTI|56=TESTA|34=1|52=20030204-08:56:41|117=1116226|296=2|302=0001|311=TESTA|310=-1|304=5|295=2|299=11|55=TESTB|132=11|299=12|55=TESTC|133=12|302=0002|311=TESTB|310=CS|304=5|295=3|299=21|55=TESTD|132=13|299=22|55=TESTE|133=14|299=23|55=TESTF|133=15|10=002|
8=FIX.4.2|9=258|35=i|49=TESTI|56=TESTA|34=1|52=20030204-08:56:41|117=1116226|296=2|302=0001|311=TESTA|310=0|304=5|295=2|299=11|55=TESTB|132=11|299=12|55=TESTC|133=12|302=0002|311=TESTB|310=CS|304=5|295=3|299=21|55=TESTD|132=13|299=22|55=TESTE|133=14|299=23|55=TESTF|133=15|10=002|
8=FIX.4.2|9=140|35=1|34=104|49=SNDR|56=TRGT|52=20090407-09:48:19.812|112= TEST #074 CHECK 4 REJECT MSGS with INVALID MESSAGE - INCORRECT DATA TYPE [MsgType:_i, Tag:_310]|10=018|
8=FIX.4.2|9=65|35=c|49=TESTI|56=TESTA|34=14|52=20030204-09:25:43|320=0001|321=-1|10=018|
8=FIX.4.2|9=65|35=c|49=TESTI|56=TESTA|34=14|52=20030204-09:25:43|320=0001|321=4|10=018|
8=FIX.4.2|9=65|35=c|49=TESTI|56=TESTA|34=14|52=20030204-09:25:43|320=0001|321=A|10=018|
8=FIX.4.2|9=65|35=c|49=TESTI|56=TESTA|34=14|52=20030204-09:25:43|320=0001|321=b|10=018|
8=FIX.4.2|9=140|35=1|34=104|49=SNDR|56=TRGT|52=20090407-09:48:19.812|112= TEST #075 CHECK 4 REJECT MSGS with INVALID MESSAGE - INCORRECT DATA TYPE [MsgType:_c, Tag:_321]|10=018|
8=FIX.4.2|9=74|35=d|49=TESTI|56=TESTA|34=14|52=20030204-09:25:43|320=0001|322=0001|323=0|393=0|10=178|
8=FIX.4.2|9=74|35=d|49=TESTI|56=TESTA|34=14|52=20030204-09:25:43|320=0001|322=0001|323=-1|393=0|10=178|
8=FIX.4.2|9=74|35=d|49=TESTI|56=TESTA|34=14|52=20030204-09:25:43|320=0001|322=0001|323=A|393=0|10=178|
8=FIX.4.2|9=74|35=d|49=TESTI|56=TESTA|34=14|52=20030204-09:25:43|320=0001|322=0001|323=b|393=0|10=178|
8=FIX.4.2|9=140|35=1|34=104|49=SNDR|56=TRGT|52=20090407-09:48:19.812|112= TEST #076 CHECK 4 REJECT MSGS with INVALID MESSAGE - INCORRECT DATA TYPE [MsgType:_d, Tag:_232]|10=018|
8=FIX.4.2|9=75|35=h|49=TESTI|56=TESTA|34=12|52=20030204-08:49:42|336=PRE-OPEN|325=y|340=2|10=209|
8=FIX.4.2|9=75|35=h|49=TESTI|56=TESTA|34=12|52=20030204-08:49:42|336=PRE-OPEN|325=n|340=2|10=209|
8=FIX.4.2|9=75|35=h|49=TESTI|56=TESTA|34=12|52=20030204-08:49:42|336=PRE-OPEN|325=0|340=2|10=209|
8=FIX.4.2|9=75|35=h|49=TESTI|56=TESTA|34=12|52=20030204-08:49:42|336=PRE-OPEN|325=-1|340=2|10=209|
8=FIX.4.2|9=140|35=1|34=104|49=SNDR|56=TRGT|52=20090407-09:48:19.812|112= TEST #077 CHECK 4 REJECT MSGS with INVALID MESSAGE - INCORRECT DATA TYPE [MsgType:_h, Tag:_325]|10=018|
8=FIX.4.2|9=59|35=f|49=TESTI|56=TESTA|34=14|52=20030204-09:25:43|55=TESTB|326=0|10=170|
8=FIX.4.2|9=59|35=f|49=TESTI|56=TESTA|34=14|52=20030204-09:25:43|55=TESTB|326=-1|10=170|
8=FIX.4.2|9=59|35=f|49=TESTI|56=TESTA|34=14|52=20030204-09:25:43|55=TESTB|326=A|10=170|
8=FIX.4.2|9=59|35=f|49=TESTI|56=TESTA|34=14|52=20030204-09:25:43|55=TESTB|326=b|10=170|
8=FIX.4.2|9=140|35=1|34=104|49=SNDR|56=TRGT|52=20090407-09:48:19.812|112= TEST #078 CHECK 4 REJECT MSGS with INVALID MESSAGE - INCORRECT DATA TYPE [MsgType:_f, Tag:_326]|10=018|
8=FIX.4.2|9=59|35=f|49=TESTI|56=TESTA|34=14|52=20030204-09:25:43|55=TESTB|327=i|10=170|
8=FIX.4.2|9=59|35=f|49=TESTI|56=TESTA|34=14|52=20030204-09:25:43|55=TESTB|327=m|10=170|
8=FIX.4.2|9=59|35=f|49=TESTI|56=TESTA|34=14|52=20030204-09:25:43|55=TESTB|327=0|10=170|
8=FIX.4.2|9=59|35=f|49=TESTI|56=TESTA|34=14|52=20030204-09:25:43|55=TESTB|327=-1|10=170|
8=FIX.4.2|9=140|35=1|34=104|49=SNDR|56=TRGT|52=20090407-09:48:19.812|112= TEST #079 CHECK 4 REJECT MSGS with INVALID MESSAGE - INCORRECT DATA TYPE [MsgType:_f, Tag:_327]|10=018|
8=FIX.4.2|9=59|35=f|49=TESTI|56=TESTA|34=14|52=20030204-09:25:43|55=TESTB|328=y|10=170|
8=FIX.4.2|9=59|35=f|49=TESTI|56=TESTA|34=14|52=20030204-09:25:43|55=TESTB|328=n|10=170|
8=FIX.4.2|9=59|35=f|49=TESTI|56=TESTA|34=14|52=20030204-09:25:43|55=TESTB|328=0|10=170|
8=FIX.4.2|9=59|35=f|49=TESTI|56=TESTA|34=14|52=20030204-09:25:43|55=TESTB|328=-1|10=170|
8=FIX.4.2|9=140|35=1|34=104|49=SNDR|56=TRGT|52=20090407-09:48:19.812|112= TEST #080 CHECK 4 REJECT MSGS with INVALID MESSAGE - INCORRECT DATA TYPE [MsgType:_f, Tag:_328]|10=018|
8=FIX.4.2|9=59|35=f|49=TESTI|56=TESTA|34=14|52=20030204-09:25:43|55=TESTB|329=y|10=170|
8=FIX.4.2|9=59|35=f|49=TESTI|56=TESTA|34=14|52=20030204-09:25:43|55=TESTB|329=n|10=170|
8=FIX.4.2|9=59|35=f|49=TESTI|56=TESTA|34=14|52=20030204-09:25:43|55=TESTB|329=0|10=170|
8=FIX.4.2|9=59|35=f|49=TESTI|56=TESTA|34=14|52=20030204-09:25:43|55=TESTB|329=-1|10=170|
8=FIX.4.2|9=140|35=1|34=104|49=SNDR|56=TRGT|52=20090407-09:48:19.812|112= TEST #081 CHECK 4 REJECT MSGS with INVALID MESSAGE - INCORRECT DATA TYPE [MsgType:_f, Tag:_329]|10=018|
8=FIX.4.2|9=59|35=f|49=TESTI|56=TESTA|34=14|52=20030204-09:25:43|55=TESTB|334=0|10=170|
8=FIX.4.2|9=59|35=f|49=TESTI|56=TESTA|34=14|52=20030204-09:25:43|55=TESTB|334=-1|10=170|
8=FIX.4.2|9=59|35=f|49=TESTI|56=TESTA|34=14|52=20030204-09:25:43|55=TESTB|334=A|10=170|
8=FIX.4.2|9=59|35=f|49=TESTI|56=TESTA|34=14|52=20030204-09:25:43|55=TESTB|334=b|10=170|
8=FIX.4.2|9=140|35=1|34=104|49=SNDR|56=TRGT|52=20090407-09:48:19.812|112= TEST #082 CHECK 4 REJECT MSGS with INVALID MESSAGE - INCORRECT DATA TYPE [MsgType:_f, Tag:_334]|10=018|
8=FIX.4.2|9=65|35=g|49=TESTI|56=TESTA|34=14|52=20030204-09:25:43|335=0001|338=0|263=0|10=033|
8=FIX.4.2|9=65|35=g|49=TESTI|56=TESTA|34=14|52=20030204-09:25:43|335=0001|338=-1|263=0|10=033|
8=FIX.4.2|9=65|35=g|49=TESTI|56=TESTA|34=14|52=20030204-09:25:43|335=0001|338=A|263=0|10=033|
8=FIX.4.2|9=65|35=g|49=TESTI|56=TESTA|34=14|52=20030204-09:25:43|335=0001|338=b|263=0|10=033|
8=FIX.4.2|9=140|35=1|34=104|49=SNDR|56=TRGT|52=20090407-09:48:19.812|112= TEST #083 CHECK 4 REJECT MSGS with INVALID MESSAGE - INCORRECT DATA TYPE [MsgType:_g, Tag:_338]|10=018|
8=FIX.4.2|9=65|35=g|49=TESTI|56=TESTA|34=14|52=20030204-09:25:43|335=0001|339=0|263=0|10=033|
8=FIX.4.2|9=65|35=g|49=TESTI|56=TESTA|34=14|52=20030204-09:25:43|335=0001|339=-1|263=0|10=033|
8=FIX.4.2|9=65|35=g|49=TESTI|56=TESTA|34=14|52=20030204-09:25:43|335=0001|339=A|263=0|10=033|
8=FIX.4.2|9=65|35=g|49=TESTI|56=TESTA|34=14|52=20030204-09:25:43|335=0001|339=b|263=0|10=033|
8=FIX.4.2|9=140|35=1|34=104|49=SNDR|56=TRGT|52=20090407-09:48:19.812|112= TEST #084 CHECK 4 REJECT MSGS with INVALID MESSAGE - INCORRECT DATA TYPE [MsgType:_g, Tag:_339]|10=018|
8=FIX.4.2|9=75|35=h|49=TESTI|56=TESTA|34=12|52=20030204-08:49:42|336=PRE-OPEN|340=-1|10=209|
8=FIX.4.2|9=75|35=h|49=TESTI|56=TESTA|34=12|52=20030204-08:49:42|336=PRE-OPEN|340=0|10=209|
8=FIX.4.2|9=75|35=h|49=TESTI|56=TESTA|34=12|52=20030204-08:49:42|336=PRE-OPEN|340=A|10=209|
8=FIX.4.2|9=75|35=h|49=TESTI|56=TESTA|34=12|52=20030204-08:49:42|336=PRE-OPEN|340=b|10=209|
8=FIX.4.2|9=140|35=1|34=104|49=SNDR|56=TRGT|52=20090407-09:48:19.812|112= TEST #085 CHECK 4 REJECT MSGS with INVALID MESSAGE - INCORRECT DATA TYPE [MsgType:_h, Tag:_340]|10=018|
8=FIX.4.2|9=56|35=b|49=TESTI|56=TESTA|34=14|52=20030204-09:25:43|297=0|296=1|302=000302|311=000311|295=1|299=000299|368=-1|10=137|
8=FIX.4.2|9=56|35=b|49=TESTI|56=TESTA|34=14|52=20030204-09:25:43|297=0|296=1|302=000302|311=000311|295=1|299=000299|368=0|10=137|
8=FIX.4.2|9=56|35=b|49=TESTI|56=TESTA|34=14|52=20030204-09:25:43|297=0|296=1|302=000302|311=000311|295=1|299=000299|368=A|10=137|
8=FIX.4.2|9=56|35=b|49=TESTI|56=TESTA|34=14|52=20030204-09:25:43|297=0|296=1|302=000302|311=000311|295=1|299=000299|368=b|10=137|
8=FIX.4.2|9=140|35=1|34=104|49=SNDR|56=TRGT|52=20090407-09:48:19.812|112= TEST #086 CHECK 4 REJECT MSGS with INVALID MESSAGE - INCORRECT DATA TYPE [MsgType:_b, Tag:_368]|10=018|
8=FIX.4.2|9=92|35=k|49=TESTI|56=TESTA|34=6|52=20030204-09:07:50|391=20012411|374=n|393=2|394=3|418=A|419=4|10=045|
8=FIX.4.2|9=92|35=k|49=TESTI|56=TESTA|34=6|52=20030204-09:07:50|391=20012411|374=c|393=2|394=3|418=A|419=4|10=045|
8=FIX.4.2|9=92|35=k|49=TESTI|56=TESTA|34=6|52=20030204-09:07:50|391=20012411|374=0|393=2|394=3|418=A|419=4|10=045|
8=FIX.4.2|9=92|35=k|49=TESTI|56=TESTA|34=6|52=20030204-09:07:50|391=20012411|374=-1|393=2|394=3|418=A|419=4|10=045|
8=FIX.4.2|9=140|35=1|34=104|49=SNDR|56=TRGT|52=20090407-09:48:19.812|112= TEST #087 CHECK 4 REJECT MSGS with INVALID MESSAGE - INCORRECT DATA TYPE [MsgType:_k, Tag:_374]|10=018|
8=FIX.4.2|9=149|35=E|49=TESTI|56=TESTA|34=3|52=20030204-08:18:22|66=20012411|394=3|68=1|73=1|11=1131|67=1|55=TESTB3|54=3|38=3000|377=y|10=031|
8=FIX.4.2|9=149|35=E|49=TESTI|56=TESTA|34=3|52=20030204-08:18:22|66=20012411|394=3|68=1|73=1|11=1131|67=1|55=TESTB3|54=3|38=3000|377=n|10=031|
8=FIX.4.2|9=149|35=E|49=TESTI|56=TESTA|34=3|52=20030204-08:18:22|66=20012411|394=3|68=1|73=1|11=1131|67=1|55=TESTB3|54=3|38=3000|377=0|10=031|
8=FIX.4.2|9=149|35=E|49=TESTI|56=TESTA|34=3|52=20030204-08:18:22|66=20012411|394=3|68=1|73=1|11=1131|67=1|55=TESTB3|54=3|38=3000|377=-1|10=031|
8=FIX.4.2|9=140|35=1|34=104|49=SNDR|56=TRGT|52=20090407-09:48:19.812|112= TEST #088 CHECK 4 REJECT MSGS with INVALID MESSAGE - INCORRECT DATA TYPE [MsgType:_E, Tag:_377]|10=018|
8=FIX.4.2|9=125|35=8|49=TESTI|56=TESTA|34=114|52=20030203-16:09:30|37=11111111|17=12|20=3|39=0|378=-1|150=0|55=TESTB|54=1|38=1000|151=1000|14=0|6=0|10=011|
8=FIX.4.2|9=125|35=8|49=TESTI|56=TESTA|34=114|52=20030203-16:09:30|37=11111111|17=12|20=3|39=0|378=6|150=0|55=TESTB|54=1|38=1000|151=1000|14=0|6=0|10=011|
8=FIX.4.2|9=125|35=8|49=TESTI|56=TESTA|34=114|52=20030203-16:09:30|37=11111111|17=12|20=3|39=0|378=A|150=0|55=TESTB|54=1|38=1000|151=1000|14=0|6=0|10=011|
8=FIX.4.2|9=125|35=8|49=TESTI|56=TESTA|34=114|52=20030203-16:09:30|37=11111111|17=12|20=3|39=0|378=b|150=0|55=TESTB|54=1|38=1000|151=1000|14=0|6=0|10=011|
8=FIX.4.2|9=140|35=1|34=104|49=SNDR|56=TRGT|52=20090407-09:48:19.812|112= TEST #089 CHECK 4 REJECT MSGS with INVALID MESSAGE - INCORRECT DATA TYPE [MsgType:_8, Tag:_378]|10=018|
8=FIX.4.2|9=61|35=j|49=TESTI|56=TESTA|34=4|52=20030204-08:56:41|372=9|380=-1|10=105|
8=FIX.4.2|9=61|35=j|49=TESTI|56=TESTA|34=4|52=20030204-08:56:41|372=9|380=6|10=105|
8=FIX.4.2|9=61|35=j|49=TESTI|56=TESTA|34=4|52=20030204-08:56:41|372=9|380=A|10=105|
8=FIX.4.2|9=61|35=j|49=TESTI|56=TESTA|34=4|52=20030204-08:56:41|372=9|380=b|10=105|
8=FIX.4.2|9=140|35=1|34=104|49=SNDR|56=TRGT|52=20090407-09:48:19.812|112= TEST #090 CHECK 4 REJECT MSGS with INVALID MESSAGE - INCORRECT DATA TYPE [MsgType:_j, Tag:_380]|10=018|
8=FIX.4.2|9=128|35=D|49=TESTI|56=TESTA|34=4|52=20030204-08:46:14|11=90001008|21=2|55=TESTB|54=1|60=20060217-10:00:00|38=4000|40=1|388=-1|10=071|
8=FIX.4.2|9=128|35=D|49=TESTI|56=TESTA|34=4|52=20030204-08:46:14|11=90001008|21=2|55=TESTB|54=1|60=20060217-10:00:00|38=4000|40=1|388=6|10=071|
8=FIX.4.2|9=128|35=D|49=TESTI|56=TESTA|34=4|52=20030204-08:46:14|11=90001008|21=2|55=TESTB|54=1|60=20060217-10:00:00|38=4000|40=1|388=A|10=071|
8=FIX.4.2|9=128|35=D|49=TESTI|56=TESTA|34=4|52=20030204-08:46:14|11=90001008|21=2|55=TESTB|54=1|60=20060217-10:00:00|38=4000|40=1|388=b|10=071|
8=FIX.4.2|9=140|35=1|34=104|49=SNDR|56=TRGT|52=20090407-09:48:19.812|112= TEST #091 CHECK 4 REJECT MSGS with INVALID MESSAGE - INCORRECT DATA TYPE [MsgType:_D, Tag:_388]|10=018|
8=FIX.4.2|9=92|35=k|49=TESTI|56=TESTA|34=1|52=20030204-09:07:50|391=20012411|374=N|393=2|394=0|418=A|419=4|10=038|
8=FIX.4.2|9=92|35=k|49=TESTI|56=TESTA|34=1|52=20030204-09:07:50|391=20012411|374=N|393=2|394=-1|418=A|419=4|10=038|
8=FIX.4.2|9=92|35=k|49=TESTI|56=TESTA|34=1|52=20030204-09:07:50|391=20012411|374=N|393=2|394=A|418=A|419=4|10=038|
8=FIX.4.2|9=92|35=k|49=TESTI|56=TESTA|34=1|52=20030204-09:07:50|391=20012411|374=N|393=2|394=b|418=A|419=4|10=038|
8=FIX.4.2|9=140|35=1|34=104|49=SNDR|56=TRGT|52=20090407-09:48:19.812|112= TEST #092 CHECK 4 REJECT MSGS with INVALID MESSAGE - INCORRECT DATA TYPE [MsgType:_k, Tag:_394]|10=018|
8=FIX.4.2|9=92|35=k|49=TESTI|56=TESTA|34=6|52=20030204-09:07:50|391=20012411|374=N|393=2|394=3|398=1|399=0|418=A|419=4|10=045|
8=FIX.4.2|9=92|35=k|49=TESTI|56=TESTA|34=6|52=20030204-09:07:50|391=20012411|374=N|393=2|394=3|398=1|399=-1|418=A|419=4|10=045|
8=FIX.4.2|9=92|35=k|49=TESTI|56=TESTA|34=6|52=20030204-09:07:50|391=20012411|374=N|393=2|394=3|398=1|399=A|418=A|419=4|10=045|
8=FIX.4.2|9=92|35=k|49=TESTI|56=TESTA|34=6|52=20030204-09:07:50|391=20012411|374=N|393=2|394=3|398=1|399=b|418=A|419=4|10=045|
8=FIX.4.2|9=140|35=1|34=104|49=SNDR|56=TRGT|52=20090407-09:48:19.812|112= TEST #093 CHECK 4 REJECT MSGS with INVALID MESSAGE - INCORRECT DATA TYPE [MsgType:_k, Tag:_399]|10=018|
8=FIX.4.2|9=92|35=k|49=TESTI|56=TESTA|34=6|52=20030204-09:07:50|391=20012411|374=N|393=2|394=3|409=0|418=A|419=4|10=045|
8=FIX.4.2|9=92|35=k|49=TESTI|56=TESTA|34=6|52=20030204-09:07:50|391=20012411|374=N|393=2|394=3|409=-1|418=A|419=4|10=045|
8=FIX.4.2|9=92|35=k|49=TESTI|56=TESTA|34=6|52=20030204-09:07:50|391=20012411|374=N|393=2|394=3|409=A|418=A|419=4|10=045|
8=FIX.4.2|9=92|35=k|49=TESTI|56=TESTA|34=6|52=20030204-09:07:50|391=20012411|374=N|393=2|394=3|409=b|418=A|419=4|10=045|
8=FIX.4.2|9=140|35=1|34=104|49=SNDR|56=TRGT|52=20090407-09:48:19.812|112= TEST #094 CHECK 4 REJECT MSGS with INVALID MESSAGE - INCORRECT DATA TYPE [MsgType:_k, Tag:_409]|10=018|
8=FIX.4.2|9=92|35=k|49=TESTI|56=TESTA|34=6|52=20030204-09:07:50|391=20012411|374=N|393=2|394=3|411=y|418=A|419=4|10=045|
8=FIX.4.2|9=92|35=k|49=TESTI|56=TESTA|34=6|52=20030204-09:07:50|391=20012411|374=N|393=2|394=3|411=n|418=A|419=4|10=045|
8=FIX.4.2|9=92|35=k|49=TESTI|56=TESTA|34=6|52=20030204-09:07:50|391=20012411|374=N|393=2|394=3|411=0|418=A|419=4|10=045|
8=FIX.4.2|9=92|35=k|49=TESTI|56=TESTA|34=6|52=20030204-09:07:50|391=20012411|374=N|393=2|394=3|411=-1|418=A|419=4|10=045|
8=FIX.4.2|9=140|35=1|34=104|49=SNDR|56=TRGT|52=20090407-09:48:19.812|112= TEST #095 CHECK 4 REJECT MSGS with INVALID MESSAGE - INCORRECT DATA TYPE [MsgType:_k, Tag:_411]|10=018|
8=FIX.4.2|9=92|35=k|49=TESTI|56=TESTA|34=6|52=20030204-09:07:50|391=20012411|374=N|393=2|394=3|414=-1|418=A|419=4|10=045|
8=FIX.4.2|9=92|35=k|49=TESTI|56=TESTA|34=6|52=20030204-09:07:50|391=20012411|374=N|393=2|394=3|414=0|418=A|419=4|10=045|
8=FIX.4.2|9=92|35=k|49=TESTI|56=TESTA|34=6|52=20030204-09:07:50|391=20012411|374=N|393=2|394=3|414=A|418=A|419=4|10=045|
8=FIX.4.2|9=92|35=k|49=TESTI|56=TESTA|34=6|52=20030204-09:07:50|391=20012411|374=N|393=2|394=3|414=b|418=A|419=4|10=045|
8=FIX.4.2|9=140|35=1|34=104|49=SNDR|56=TRGT|52=20090407-09:48:19.812|112= TEST #096 CHECK 4 REJECT MSGS with INVALID MESSAGE - INCORRECT DATA TYPE [MsgType:_k, Tag:_414]|10=018|
8=FIX.4.2|9=92|35=k|49=TESTI|56=TESTA|34=6|52=20030204-09:07:50|391=20012411|374=N|393=2|394=3|416=-1|418=A|419=4|10=045|
8=FIX.4.2|9=92|35=k|49=TESTI|56=TESTA|34=6|52=20030204-09:07:50|391=20012411|374=N|393=2|394=3|416=0|418=A|419=4|10=045|
8=FIX.4.2|9=92|35=k|49=TESTI|56=TESTA|34=6|52=20030204-09:07:50|391=20012411|374=N|393=2|394=3|416=A|418=A|419=4|10=045|
8=FIX.4.2|9=92|35=k|49=TESTI|56=TESTA|34=6|52=20030204-09:07:50|391=20012411|374=N|393=2|394=3|416=b|418=A|419=4|10=045|
8=FIX.4.2|9=140|35=1|34=104|49=SNDR|56=TRGT|52=20090407-09:48:19.812|112= TEST #097 CHECK 4 REJECT MSGS with INVALID MESSAGE - INCORRECT DATA TYPE [MsgType:_k, Tag:_416]|10=018|
8=FIX.4.2|9=92|35=k|49=TESTI|56=TESTA|34=6|52=20030204-09:07:50|391=20012411|374=N|393=2|394=3|418=r|419=4|10=045|
8=FIX.4.2|9=92|35=k|49=TESTI|56=TESTA|34=6|52=20030204-09:07:50|391=20012411|374=N|393=2|394=3|418=j|419=4|10=045|
8=FIX.4.2|9=92|35=k|49=TESTI|56=TESTA|34=6|52=20030204-09:07:50|391=20012411|374=N|393=2|394=3|418=0|419=4|10=045|
8=FIX.4.2|9=92|35=k|49=TESTI|56=TESTA|34=6|52=20030204-09:07:50|391=20012411|374=N|393=2|394=3|418=-1|419=4|10=045|
8=FIX.4.2|9=140|35=1|34=104|49=SNDR|56=TRGT|52=20090407-09:48:19.812|112= TEST #098 CHECK 4 REJECT MSGS with INVALID MESSAGE - INCORRECT DATA TYPE [MsgType:_k, Tag:_418]|10=018|
8=FIX.4.2|9=92|35=k|49=TESTI|56=TESTA|34=6|52=20030204-09:07:50|391=20012411|374=N|393=2|394=3|418=A|419=-1|10=045|
8=FIX.4.2|9=92|35=k|49=TESTI|56=TESTA|34=6|52=20030204-09:07:50|391=20012411|374=N|393=2|394=3|418=A|419=0|10=045|
8=FIX.4.2|9=92|35=k|49=TESTI|56=TESTA|34=6|52=20030204-09:07:50|391=20012411|374=N|393=2|394=3|418=A|419=1|10=045|
8=FIX.4.2|9=92|35=k|49=TESTI|56=TESTA|34=6|52=20030204-09:07:50|391=20012411|374=N|393=2|394=3|418=A|419=a|10=045|
8=FIX.4.2|9=140|35=1|34=104|49=SNDR|56=TRGT|52=20090407-09:48:19.812|112= TEST #099 CHECK 4 REJECT MSGS with INVALID MESSAGE - INCORRECT DATA TYPE [MsgType:_k, Tag:_419]|10=018|
8=FIX.4.2|9=78|35=l|49=TESTI|56=TESTA|34=6|52=20030204-09:07:50|420=2|12=5|13=1|12=0.07|13=2|421=0|10=063|
8=FIX.4.2|9=78|35=l|49=TESTI|56=TESTA|34=6|52=20030204-09:07:50|420=2|12=5|13=1|12=0.07|13=2|421=-1|10=063|
8=FIX.4.2|9=78|35=l|49=TESTI|56=TESTA|34=6|52=20030204-09:07:50|420=2|12=5|13=1|12=0.07|13=2|421=Us|10=063|
8=FIX.4.2|9=78|35=l|49=TESTI|56=TESTA|34=6|52=20030204-09:07:50|420=2|12=5|13=1|12=0.07|13=2|421=no|10=063|
8=FIX.4.2|9=140|35=1|34=104|49=SNDR|56=TRGT|52=20090407-09:48:19.812|112= TEST #100 CHECK 4 REJECT MSGS with INVALID MESSAGE - INCORRECT DATA TYPE [MsgType:_l, Tag:_421]|10=018|
8=FIX.4.2|9=78|35=l|49=TESTI|56=TESTA|34=6|52=20030204-09:07:50|420=2|12=5|13=1|12=0.07|13=2|423=-1|10=063|
8=FIX.4.2|9=78|35=l|49=TESTI|56=TESTA|34=6|52=20030204-09:07:50|420=2|12=5|13=1|12=0.07|13=2|423=0|10=063|
8=FIX.4.2|9=78|35=l|49=TESTI|56=TESTA|34=6|52=20030204-09:07:50|420=2|12=5|13=1|12=0.07|13=2|423=A|10=063|
8=FIX.4.2|9=78|35=l|49=TESTI|56=TESTA|34=6|52=20030204-09:07:50|420=2|12=5|13=1|12=0.07|13=2|423=b|10=063|
8=FIX.4.2|9=140|35=1|34=104|49=SNDR|56=TRGT|52=20090407-09:48:19.812|112= TEST #101 CHECK 4 REJECT MSGS with INVALID MESSAGE - INCORRECT DATA TYPE [MsgType:_l, Tag:_423]|10=018|
8=FIX.4.2|9=128|35=D|49=TESTI|56=TESTA|34=4|52=20030204-08:46:14|11=90001008|21=2|55=TESTB|54=1|60=20060217-10:00:00|38=4000|40=1|427=-1|10=071|
8=FIX.4.2|9=128|35=D|49=TESTI|56=TESTA|34=4|52=20030204-08:46:14|11=90001008|21=2|55=TESTB|54=1|60=20060217-10:00:00|38=4000|40=1|427=3|10=071|
8=FIX.4.2|9=128|35=D|49=TESTI|56=TESTA|34=4|52=20030204-08:46:14|11=90001008|21=2|55=TESTB|54=1|60=20060217-10:00:00|38=4000|40=1|427=A|10=071|
8=FIX.4.2|9=128|35=D|49=TESTI|56=TESTA|34=4|52=20030204-08:46:14|11=90001008|21=2|55=TESTB|54=1|60=20060217-10:00:00|38=4000|40=1|427=b|10=071|
8=FIX.4.2|9=140|35=1|34=104|49=SNDR|56=TRGT|52=20090407-09:48:19.812|112= TEST #102 CHECK 4 REJECT MSGS with INVALID MESSAGE - INCORRECT DATA TYPE [MsgType:_D, Tag:_427]|10=018|
8=FIX.4.2|9=219|35=N|49=TESTI|56=TESTA|34=15|52=20030204-09:08:23|66=20012411|429=-1|82=3|431=3|83=1|68=5|73=3|11=1111|14=11|39=1|151=89|84=0|6=12|11=1121|14=1000|39=1|151=500|84=1000|6=2.28|11=1131|14=2500|39=1|151=500|84=1500|6=34.11|10=053|
8=FIX.4.2|9=219|35=N|49=TESTI|56=TESTA|34=15|52=20030204-09:08:23|66=20012411|429=0|82=3|431=3|83=1|68=5|73=3|11=1111|14=11|39=1|151=89|84=0|6=12|11=1121|14=1000|39=1|151=500|84=1000|6=2.28|11=1131|14=2500|39=1|151=500|84=1500|6=34.11|10=053|
8=FIX.4.2|9=219|35=N|49=TESTI|56=TESTA|34=15|52=20030204-09:08:23|66=20012411|429=A|82=3|431=3|83=1|68=5|73=3|11=1111|14=11|39=1|151=89|84=0|6=12|11=1121|14=1000|39=1|151=500|84=1000|6=2.28|11=1131|14=2500|39=1|151=500|84=1500|6=34.11|10=053|
8=FIX.4.2|9=219|35=N|49=TESTI|56=TESTA|34=15|52=20030204-09:08:23|66=20012411|429=b|82=3|431=3|83=1|68=5|73=3|11=1111|14=11|39=1|151=89|84=0|6=12|11=1121|14=1000|39=1|151=500|84=1000|6=2.28|11=1131|14=2500|39=1|151=500|84=1500|6=34.11|10=053|
8=FIX.4.2|9=140|35=1|34=104|49=SNDR|56=TRGT|52=20090407-09:48:19.812|112= TEST #103 CHECK 4 REJECT MSGS with INVALID MESSAGE - INCORRECT DATA TYPE [MsgType:_N, Tag:_429]|10=018|
8=FIX.4.2|9=78|35=l|49=TESTI|56=TESTA|34=6|52=20030204-09:07:50|420=2|12=5|13=1|12=0.07|13=2|430=-1|10=063|
8=FIX.4.2|9=78|35=l|49=TESTI|56=TESTA|34=6|52=20030204-09:07:50|420=2|12=5|13=1|12=0.07|13=2|430=0|10=063|
8=FIX.4.2|9=78|35=l|49=TESTI|56=TESTA|34=6|52=20030204-09:07:50|420=2|12=5|13=1|12=0.07|13=2|430=A|10=063|
8=FIX.4.2|9=78|35=l|49=TESTI|56=TESTA|34=6|52=20030204-09:07:50|420=2|12=5|13=1|12=0.07|13=2|430=b|10=063|
8=FIX.4.2|9=140|35=1|34=104|49=SNDR|56=TRGT|52=20090407-09:48:19.812|112= TEST #104 CHECK 4 REJECT MSGS with INVALID MESSAGE - INCORRECT DATA TYPE [MsgType:_l, Tag:_430]|10=018|
8=FIX.4.2|9=219|35=N|49=TESTI|56=TESTA|34=15|52=20030204-09:08:23|66=20012411|429=1|82=3|431=-1|83=1|68=5|73=3|11=1111|14=11|39=1|151=89|84=0|6=12|11=1121|14=1000|39=1|151=500|84=1000|6=2.28|11=1131|14=2500|39=1|151=500|84=1500|6=34.11|10=053|
8=FIX.4.2|9=219|35=N|49=TESTI|56=TESTA|34=15|52=20030204-09:08:23|66=20012411|429=1|82=3|431=0|83=1|68=5|73=3|11=1111|14=11|39=1|151=89|84=0|6=12|11=1121|14=1000|39=1|151=500|84=1000|6=2.28|11=1131|14=2500|39=1|151=500|84=1500|6=34.11|10=053|
8=FIX.4.2|9=219|35=N|49=TESTI|56=TESTA|34=15|52=20030204-09:08:23|66=20012411|429=1|82=3|431=A|83=1|68=5|73=3|11=1111|14=11|39=1|151=89|84=0|6=12|11=1121|14=1000|39=1|151=500|84=1000|6=2.28|11=1131|14=2500|39=1|151=500|84=1500|6=34.11|10=053|
8=FIX.4.2|9=219|35=N|49=TESTI|56=TESTA|34=15|52=20030204-09:08:23|66=20012411|429=1|82=3|431=b|83=1|68=5|73=3|11=1111|14=11|39=1|151=89|84=0|6=12|11=1121|14=1000|39=1|151=500|84=1000|6=2.28|11=1131|14=2500|39=1|151=500|84=1500|6=34.11|10=053|
8=FIX.4.2|9=140|35=1|34=104|49=SNDR|56=TRGT|52=20090407-09:48:19.812|112= TEST #105 CHECK 4 REJECT MSGS with INVALID MESSAGE - INCORRECT DATA TYPE [MsgType:_N, Tag:_431]|10=018|
8=FIX.4.2|9=149|35=E|49=TESTI|56=TESTA|34=3|52=20030204-08:18:22|66=20012411|394=3|433=-1|68=1|73=2|11=1131|67=1|55=TESTB3|54=3|38=3000|11=1132|67=2|55=TESTB2|54=1|38=1000|10=031|
8=FIX.4.2|9=149|35=E|49=TESTI|56=TESTA|34=3|52=20030204-08:18:22|66=20012411|394=3|433=0|68=1|73=2|11=1131|67=1|55=TESTB3|54=3|38=3000|11=1132|67=2|55=TESTB2|54=1|38=1000|10=031|
8=FIX.4.2|9=149|35=E|49=TESTI|56=TESTA|34=3|52=20030204-08:18:22|66=20012411|394=3|433=A|68=1|73=2|11=1131|67=1|55=TESTB3|54=3|38=3000|11=1132|67=2|55=TESTB2|54=1|38=1000|10=031|
8=FIX.4.2|9=149|35=E|49=TESTI|56=TESTA|34=3|52=20030204-08:18:22|66=20012411|394=3|433=b|68=1|73=2|11=1131|67=1|55=TESTB3|54=3|38=3000|11=1132|67=2|55=TESTB2|54=1|38=1000|10=031|
8=FIX.4.2|9=140|35=1|34=104|49=SNDR|56=TRGT|52=20090407-09:48:19.812|112= TEST #106 CHECK 4 REJECT MSGS with INVALID MESSAGE - INCORRECT DATA TYPE [MsgType:_E, Tag:_433]|10=018|
8=FIX.4.2|9=102|35=9|49=TESTI|56=TESTA|34=3|52=20030203-16:13:14|37=11111111|11=12121212122|41=11111111111|39=0|434=-1|10=209|
8=FIX.4.2|9=102|35=9|49=TESTI|56=TESTA|34=3|52=20030203-16:13:14|37=11111111|11=12121212122|41=11111111111|39=0|434=0|10=209|
8=FIX.4.2|9=102|35=9|49=TESTI|56=TESTA|34=3|52=20030203-16:13:14|37=11111111|11=12121212122|41=11111111111|39=0|434=A|10=209|
8=FIX.4.2|9=102|35=9|49=TESTI|56=TESTA|34=3|52=20030203-16:13:14|37=11111111|11=12121212122|41=11111111111|39=0|434=b|10=209|
8=FIX.4.2|9=140|35=1|34=104|49=SNDR|56=TRGT|52=20090407-09:48:19.812|112= TEST #107 CHECK 4 REJECT MSGS with INVALID MESSAGE - INCORRECT DATA TYPE [MsgType:_9, Tag:_434]|10=018|
8=FIX.4.2|9=125|35=8|49=TESTI|56=TESTA|34=114|52=20030203-16:09:30|37=11111111|17=12|20=3|39=0|150=0|55=TESTB|54=1|38=1000|151=1000|14=0|6=0|442=-1|10=011|
8=FIX.4.2|9=125|35=8|49=TESTI|56=TESTA|34=114|52=20030203-16:09:30|37=11111111|17=12|20=3|39=0|150=0|55=TESTB|54=1|38=1000|151=1000|14=0|6=0|442=0|10=011|
8=FIX.4.2|9=125|35=8|49=TESTI|56=TESTA|34=114|52=20030203-16:09:30|37=11111111|17=12|20=3|39=0|150=0|55=TESTB|54=1|38=1000|151=1000|14=0|6=0|442=A|10=011|
8=FIX.4.2|9=125|35=8|49=TESTI|56=TESTA|34=114|52=20030203-16:09:30|37=11111111|17=12|20=3|39=0|150=0|55=TESTB|54=1|38=1000|151=1000|14=0|6=0|442=b|10=011|
8=FIX.4.2|9=140|35=1|34=104|49=SNDR|56=TRGT|52=20090407-09:48:19.812|112= TEST #108 CHECK 4 REJECT MSGS with INVALID MESSAGE - INCORRECT DATA TYPE [MsgType:_8, Tag:_442]|10=018|
