8=FIX.4.2|9=82|35=7|49=TESTI|56=TESTA|34=1|52=20030203-16:02:35|2=20|5=N|55=TESTB|4=b|53=1000000|10=140|
8=FIX.4.2|9=82|35=7|49=TESTI|56=TESTA|34=1|52=20030203-16:02:35|2=20|5=N|55=TESTB|4=t|53=1000000|10=140|
8=FIX.4.2|9=82|35=7|49=TESTI|56=TESTA|34=1|52=20030203-16:02:35|2=20|5=N|55=TESTB|4=0|53=1000000|10=140|
8=FIX.4.2|9=82|35=7|49=TESTI|56=TESTA|34=1|52=20030203-16:02:35|2=20|5=N|55=TESTB|4=-1|53=1000000|10=140|
8=FIX.4.2|9=140|35=1|34=104|49=SNDR|56=TRGT|52=20090407-09:48:19.812|112= TEST #001 CHECK 4 REJECT MSGS with INVALID MESSAGE - INCORRECT DATA TYPE [MsgType:_7, Tag:_4]|10=018|
8=FIX.4.2|9=82|35=7|49=TESTI|56=TESTA|34=1|52=20030203-16:02:35|2=20|5=n|55=TESTB|4=T|53=1000000|10=140|
8=FIX.4.2|9=82|35=7|49=TESTI|56=TESTA|34=1|52=20030203-16:02:35|2=20|5=r|55=TESTB|4=T|53=1000000|10=140|
8=FIX.4.2|9=82|35=7|49=TESTI|56=TESTA|34=1|52=20030203-16:02:35|2=20|5=0|55=TESTB|4=T|53=1000000|10=140|
8=FIX.4.2|9=82|35=7|49=TESTI|56=TESTA|34=1|52=20030203-16:02:35|2=20|5=-1|55=TESTB|4=T|53=1000000|10=140|
8=FIX.4.2|9=140|35=1|34=104|49=SNDR|56=TRGT|52=20090407-09:48:19.812|112= TEST #002 CHECK 4 REJECT MSGS with INVALID MESSAGE - INCORRECT DATA TYPE [MsgType:_7, Tag:_5]|10=018|
8=FIX.4.2|9=128|35=D|49=TESTI|56=TESTA|34=4|52=20030204-08:46:14|11=90001008|21=2|55=TESTB|54=1|60=20060217-10:00:00|38=4000|40=1|13=0|10=071|
8=FIX.4.2|9=128|35=D|49=TESTI|56=TESTA|34=4|52=20030204-08:46:14|11=90001008|21=2|55=TESTB|54=1|60=20060217-10:00:00|38=4000|40=1|13=-1|10=071|
8=FIX.4.2|9=128|35=D|49=TESTI|56=TESTA|34=4|52=20030204-08:46:14|11=90001008|21=2|55=TESTB|54=1|60=20060217-10:00:00|38=4000|40=1|13=A|10=071|
8=FIX.4.2|9=128|35=D|49=TESTI|56=TESTA|34=4|52=20030204-08:46:14|11=90001008|21=2|55=TESTB|54=1|60=20060217-10:00:00|38=4000|40=1|13=b|10=071|
8=FIX.4.2|9=140|35=1|34=104|49=SNDR|56=TRGT|52=20090407-09:48:19.812|112= TEST #003 CHECK 4 REJECT MSGS with INVALID MESSAGE - INCORRECT DATA TYPE [MsgType:_D, Tag:_13]|10=018|
8=FIX.4.2|9=90|35=7|49=TESTI|56=TESTA|34=31|52=20030203-16:02:35|2=20|5=N|55=TESTB|4=T|53=1000000|15=0|10=194|
8=FIX.4.2|9=90|35=7|49=TESTI|56=TESTA|34=31|52=20030203-16:02:35|2=20|5=N|55=TESTB|4=T|53=1000000|15=usd|10=194|
8=FIX.4.2|9=90|35=7|49=TESTI|56=TESTA|34=31|52=20030203-16:02:35|2=20|5=N|55=TESTB|4=T|53=1000000|15= |10=194|
8=FIX.4.2|9=90|35=7|49=TESTI|56=TESTA|34=31|52=20030203-16:02:35|2=20|5=N|55=TESTB|4=T|53=1000000|15=-1|10=194|
8=FIX.4.2|9=140|35=1|34=104|49=SNDR|56=TRGT|52=20090407-09:48:19.812|112= TEST #004 CHECK 4 REJECT MSGS with INVALID MESSAGE - INCORRECT DATA TYPE [MsgType:_7, Tag:_15]|10=018|
8=FIX.4.2|9=138|35=8|49=TESTI|56=TESTA|34=1|52=20030203-16:09:30|37=11111111|17=12|20=-1|32=500|31=0.01|39=0|150=0|55=TESTB|54=1|38=1000|151=1000|14=0|6=0|10=064|
8=FIX.4.2|9=138|35=8|49=TESTI|56=TESTA|34=1|52=20030203-16:09:30|37=11111111|17=12|20=4|32=500|31=0.01|39=0|150=0|55=TESTB|54=1|38=1000|151=1000|14=0|6=0|10=064|
8=FIX.4.2|9=138|35=8|49=TESTI|56=TESTA|34=1|52=20030203-16:09:30|37=11111111|17=12|20=A|32=500|31=0.01|39=0|150=0|55=TESTB|54=1|38=1000|151=1000|14=0|6=0|10=064|
8=FIX.4.2|9=138|35=8|49=TESTI|56=TESTA|34=1|52=20030203-16:09:30|37=11111111|17=12|20=b|32=500|31=0.01|39=0|150=0|55=TESTB|54=1|38=1000|151=1000|14=0|6=0|10=064|
8=FIX.4.2|9=140|35=1|34=104|49=SNDR|56=TRGT|52=20090407-09:48:19.812|112= TEST #005 CHECK 4 REJECT MSGS with INVALID MESSAGE - INCORRECT DATA TYPE [MsgType:_8, Tag:_20]|10=018|
8=FIX.4.2|9=128|35=D|49=TESTI|56=TESTA|34=4|52=20030204-08:46:14|11=90001008|21=0|55=TESTB|54=1|60=20060217-10:00:00|38=4000|40=1|10=072|
8=FIX.4.2|9=128|35=D|49=TESTI|56=TESTA|34=4|52=20030204-08:46:14|11=90001008|21=-1|55=TESTB|54=1|60=20060217-10:00:00|38=4000|40=1|10=074|
8=FIX.4.2|9=128|35=D|49=TESTI|56=TESTA|34=4|52=20030204-08:46:14|11=90001008|21=A|55=TESTB|54=1|60=20060217-10:00:00|38=4000|40=1|10=074|
8=FIX.4.2|9=128|35=D|49=TESTI|56=TESTA|34=4|52=20030204-08:46:14|11=90001008|21=b|55=TESTB|54=1|60=20060217-10:00:00|38=4000|40=1|10=074|
8=FIX.4.2|9=140|35=1|34=104|49=SNDR|56=TRGT|52=20090407-09:48:19.812|112= TEST #006 CHECK 4 REJECT MSGS with INVALID MESSAGE - INCORRECT DATA TYPE [MsgType:_D, Tag:_21]|10=018|
8=FIX.4.2|9=79|35=e|49=TESTI|56=TESTA|34=14|52=20030204-09:25:43|324=0001|55=TESTB|22=0|263=0|10=033|
8=FIX.4.2|9=79|35=e|49=TESTI|56=TESTA|34=14|52=20030204-09:25:43|324=0001|55=TESTB|22=-1|263=0|10=033|
8=FIX.4.2|9=79|35=e|49=TESTI|56=TESTA|34=14|52=20030204-09:25:43|324=0001|55=TESTB|22=K|263=0|10=033|
8=FIX.4.2|9=79|35=e|49=TESTI|56=TESTA|34=14|52=20030204-09:25:43|324=0001|55=TESTB|22=b|263=0|10=033|
8=FIX.4.2|9=140|35=1|34=104|49=SNDR|56=TRGT|52=20090407-09:48:19.812|112= TEST #007 CHECK 4 REJECT MSGS with INVALID MESSAGE - INCORRECT DATA TYPE [MsgType:_e, Tag:_22]|10=018|
8=FIX.4.2|9=86|35=6|49=TESTI|56=TESTA|34=121|52=20030203-16:10:01|23=24|28=N|55=TESTB|54=1|27=S|25=0|10=090|
8=FIX.4.2|9=86|35=6|49=TESTI|56=TESTA|34=121|52=20030203-16:10:01|23=24|28=N|55=TESTB|54=1|27=S|25=h|10=090|
8=FIX.4.2|9=86|35=6|49=TESTI|56=TESTA|34=121|52=20030203-16:10:01|23=24|28=N|55=TESTB|54=1|27=S|25=A|10=090|
8=FIX.4.2|9=86|35=6|49=TESTI|56=TESTA|34=121|52=20030203-16:10:01|23=24|28=N|55=TESTB|54=1|27=S|25=-1|10=090|
8=FIX.4.2|9=140|35=1|34=104|49=SNDR|56=TRGT|52=20090407-09:48:19.812|112= TEST #008 CHECK 4 REJECT MSGS with INVALID MESSAGE - INCORRECT DATA TYPE [MsgType:_6, Tag:_25]|10=018|
8=FIX.4.2|9=86|35=6|49=TESTI|56=TESTA|34=121|52=20030203-16:10:01|23=24|28=N|55=TESTB|54=1|27=-1|10=090|
8=FIX.4.2|9=86|35=6|49=TESTI|56=TESTA|34=121|52=20030203-16:10:01|23=24|28=N|55=TESTB|54=1|27=A|10=090|
8=FIX.4.2|9=86|35=6|49=TESTI|56=TESTA|34=121|52=20030203-16:10:01|23=24|28=N|55=TESTB|54=1|27=s|10=090|
8=FIX.4.2|9=86|35=6|49=TESTI|56=TESTA|34=121|52=20030203-16:10:01|23=24|28=N|55=TESTB|54=1|27=l|10=090|
8=FIX.4.2|9=140|35=1|34=104|49=SNDR|56=TRGT|52=20090407-09:48:19.812|112= TEST #009 CHECK 4 REJECT MSGS with INVALID MESSAGE - INCORRECT DATA TYPE [MsgType:_6, Tag:_27]|10=018|
8=FIX.4.2|9=81|35=6|49=TESTI|56=TESTA|34=121|52=20030203-16:10:01|23=24|28=0|55=TESTB|54=1|27=S|10=104|
8=FIX.4.2|9=81|35=6|49=TESTI|56=TESTA|34=121|52=20030203-16:10:01|23=24|28=-1|55=TESTB|54=1|27=S|10=104|
8=FIX.4.2|9=81|35=6|49=TESTI|56=TESTA|34=121|52=20030203-16:10:01|23=24|28=A|55=TESTB|54=1|27=S|10=104|
8=FIX.4.2|9=81|35=6|49=TESTI|56=TESTA|34=121|52=20030203-16:10:01|23=24|28=n|55=TESTB|54=1|27=S|10=104|
8=FIX.4.2|9=140|35=1|34=104|49=SNDR|56=TRGT|52=20090407-09:48:19.812|112= TEST #010 CHECK 4 REJECT MSGS with INVALID MESSAGE - INCORRECT DATA TYPE [MsgType:_6, Tag:_28]|10=018|
8=FIX.4.2|9=125|35=8|49=TESTI|56=TESTA|34=114|52=20030203-16:09:30|37=11111111|17=12|20=3|39=0|150=0|55=TESTB|54=1|38=1000|29=0|151=1000|14=0|6=0|10=011|
8=FIX.4.2|9=125|35=8|49=TESTI|56=TESTA|34=114|52=20030203-16:09:30|37=11111111|17=12|20=3|39=0|150=0|55=TESTB|54=1|38=1000|29=-1|151=1000|14=0|6=0|10=011|
8=FIX.4.2|9=125|35=8|49=TESTI|56=TESTA|34=114|52=20030203-16:09:30|37=11111111|17=12|20=3|39=0|150=0|55=TESTB|54=1|38=1000|29=A|151=1000|14=0|6=0|10=011|
8=FIX.4.2|9=125|35=8|49=TESTI|56=TESTA|34=114|52=20030203-16:09:30|37=11111111|17=12|20=3|39=0|150=0|55=TESTB|54=1|38=1000|29=b|151=1000|14=0|6=0|10=011|
8=FIX.4.2|9=140|35=1|34=104|49=SNDR|56=TRGT|52=20090407-09:48:19.812|112= TEST #011 CHECK 4 REJECT MSGS with INVALID MESSAGE - INCORRECT DATA TYPE [MsgType:_8, Tag:_29]|10=018|
8=FIX.4.2|9=195|35=J|49=TESTI|56=TESTA|34=4|52=20030204-08:56:41|70=1116226|71=0|73=2|11=90001008|11=90000008|54=1|55=TESTB|53=1004000|30=R|6=30|75=20030821|78=3|79=1000|80=500000|79=2000|80=400000|79=3000|80=104000|10=030|
8=FIX.4.2|9=195|35=J|49=TESTI|56=TESTA|34=4|52=20030204-08:56:41|70=1116226|71=0|73=2|11=90001008|11=90000008|54=1|55=TESTB|53=1004000|30=-1|6=30|75=20030821|78=3|79=1000|80=500000|79=2000|80=400000|79=3000|80=104000|10=030|
8=FIX.4.2|9=195|35=J|49=TESTI|56=TESTA|34=4|52=20030204-08:56:41|70=1116226|71=0|73=2|11=90001008|11=90000008|54=1|55=TESTB|53=1004000|30=a|6=30|75=20030821|78=3|79=1000|80=500000|79=2000|80=400000|79=3000|80=104000|10=030|
8=FIX.4.2|9=195|35=J|49=TESTI|56=TESTA|34=4|52=20030204-08:56:41|70=1116226|71=0|73=2|11=90001008|11=90000008|54=1|55=TESTB|53=1004000|30=TwO|6=30|75=20030821|78=3|79=1000|80=500000|79=2000|80=400000|79=3000|80=104000|10=030|
8=FIX.4.2|9=140|35=1|34=104|49=SNDR|56=TRGT|52=20090407-09:48:19.812|112= TEST #012 CHECK 4 REJECT MSGS with INVALID MESSAGE - INCORRECT DATA TYPE [MsgType:_J, Tag:_30]|10=018|
8=FIX.4.2|9=125|35=8|49=TESTI|56=TESTA|34=114|52=20030203-16:09:30|37=11111111|17=12|20=3|39=-1|150=0|55=TESTB|54=1|38=1000|151=1000|14=0|6=0|10=011|
8=FIX.4.2|9=125|35=8|49=TESTI|56=TESTA|34=114|52=20030203-16:09:30|37=11111111|17=12|20=3|39=10|150=0|55=TESTB|54=1|38=1000|151=1000|14=0|6=0|10=011|
8=FIX.4.2|9=125|35=8|49=TESTI|56=TESTA|34=114|52=20030203-16:09:30|37=11111111|17=12|20=3|39=a|150=0|55=TESTB|54=1|38=1000|151=1000|14=0|6=0|10=011|
8=FIX.4.2|9=125|35=8|49=TESTI|56=TESTA|34=114|52=20030203-16:09:30|37=11111111|17=12|20=3|39=F|150=0|55=TESTB|54=1|38=1000|151=1000|14=0|6=0|10=011|
8=FIX.4.2|9=140|35=1|34=104|49=SNDR|56=TRGT|52=20090407-09:48:19.812|112= TEST #013 CHECK 4 REJECT MSGS with INVALID MESSAGE - INCORRECT DATA TYPE [MsgType:_8, Tag:_39]|10=018|
8=FIX.4.2|9=142|35=G|49=TESTI|56=TESTA|34=1|52=20030204-08:49:18|11=12233345|41=90001008|21=2|55=TESTB|54=1|60=20060117-10:00:00|38=4000|40=0|44=0.44|99=0.45|10=188|
8=FIX.4.2|9=142|35=G|49=TESTI|56=TESTA|34=1|52=20030204-08:49:18|11=12233345|41=90001008|21=2|55=TESTB|54=1|60=20060117-10:00:00|38=4000|40=-1|44=0.44|99=0.45|10=188|
8=FIX.4.2|9=142|35=G|49=TESTI|56=TESTA|34=1|52=20030204-08:49:18|11=12233345|41=90001008|21=2|55=TESTB|54=1|60=20060117-10:00:00|38=4000|40=K|44=0.44|99=0.45|10=188|
8=FIX.4.2|9=142|35=G|49=TESTI|56=TESTA|34=1|52=20030204-08:49:18|11=12233345|41=90001008|21=2|55=TESTB|54=1|60=20060117-10:00:00|38=4000|40=a|44=0.44|99=0.45|10=188|
8=FIX.4.2|9=140|35=1|34=104|49=SNDR|56=TRGT|52=20090407-09:48:19.812|112= TEST #014 CHECK 4 REJECT MSGS with INVALID MESSAGE - INCORRECT DATA TYPE [MsgType:_G, Tag:_40]|10=018|
8=FIX.4.2|9=128|35=D|49=TESTI|56=TESTA|34=4|52=20030204-08:46:14|11=90001008|21=2|55=TESTB|54=1|60=20060217-10:00:00|38=4000|40=1|47=0|10=071|
8=FIX.4.2|9=128|35=D|49=TESTI|56=TESTA|34=4|52=20030204-08:46:14|11=90001008|21=2|55=TESTB|54=1|60=20060217-10:00:00|38=4000|40=1|47=-1|10=071|
8=FIX.4.2|9=128|35=D|49=TESTI|56=TESTA|34=4|52=20030204-08:46:14|11=90001008|21=2|55=TESTB|54=1|60=20060217-10:00:00|38=4000|40=1|47=1|10=071|
8=FIX.4.2|9=128|35=D|49=TESTI|56=TESTA|34=4|52=20030204-08:46:14|11=90001008|21=2|55=TESTB|54=1|60=20060217-10:00:00|38=4000|40=1|47=a|10=071|
8=FIX.4.2|9=140|35=1|34=104|49=SNDR|56=TRGT|52=20090407-09:48:19.812|112= TEST #015 CHECK 4 REJECT MSGS with INVALID MESSAGE - INCORRECT DATA TYPE [MsgType:_D, Tag:_47]|10=018|
8=FIX.4.2|9=125|35=8|49=TESTI|56=TESTA|34=114|52=20030203-16:09:30|37=11111111|17=12|20=3|39=0|150=0|55=TESTB|54=0|38=1000|151=1000|14=0|6=0|10=011|
8=FIX.4.2|9=125|35=8|49=TESTI|56=TESTA|34=114|52=20030203-16:09:30|37=11111111|17=12|20=3|39=0|150=0|55=TESTB|54=-1|38=1000|151=1000|14=0|6=0|10=011|
8=FIX.4.2|9=125|35=8|49=TESTI|56=TESTA|34=114|52=20030203-16:09:30|37=11111111|17=12|20=3|39=0|150=0|55=TESTB|54=A|38=1000|151=1000|14=0|6=0|10=011|
8=FIX.4.2|9=125|35=8|49=TESTI|56=TESTA|34=114|52=20030203-16:09:30|37=11111111|17=12|20=3|39=0|150=0|55=TESTB|54=b|38=1000|151=1000|14=0|6=0|10=011|
8=FIX.4.2|9=140|35=1|34=104|49=SNDR|56=TRGT|52=20090407-09:48:19.812|112= TEST #016 CHECK 4 REJECT MSGS with INVALID MESSAGE - INCORRECT DATA TYPE [MsgType:_8, Tag:_54]|10=018|
8=FIX.4.2|9=128|35=D|49=TESTI|56=TESTA|34=4|52=20030204-08:46:14|11=90001008|21=1|55=TESTB|54=1|60=20060217-10:00:00|38=4000|40=1|59=-1|10=082|
8=FIX.4.2|9=128|35=D|49=TESTI|56=TESTA|34=4|52=20030204-08:46:14|11=90001008|21=1|55=TESTB|54=1|60=20060217-10:00:00|38=4000|40=1|59=7|10=082|
8=FIX.4.2|9=128|35=D|49=TESTI|56=TESTA|34=4|52=20030204-08:46:14|11=90001008|21=1|55=TESTB|54=1|60=20060217-10:00:00|38=4000|40=1|59=A|10=082|
8=FIX.4.2|9=128|35=D|49=TESTI|56=TESTA|34=4|52=20030204-08:46:14|11=90001008|21=1|55=TESTB|54=1|60=20060217-10:00:00|38=4000|40=1|59=b|10=082|
8=FIX.4.2|9=140|35=1|34=104|49=SNDR|56=TRGT|52=20090407-09:48:19.812|112= TEST #017 CHECK 4 REJECT MSGS with INVALID MESSAGE - INCORRECT DATA TYPE [MsgType:_D, Tag:_59]|10=018|
8=FIX.4.2|9=148|35=B|49=TESTI|56=TESTA|34=19|52=20030203-16:21:17|61=-1|148=Weather|33=4|58=In the evening |58=it might be wet |58=and windy.|58= Take your coat on.|10=147|
8=FIX.4.2|9=148|35=B|49=TESTI|56=TESTA|34=19|52=20030203-16:21:17|61=3|148=Weather|33=4|58=In the evening |58=it might be wet |58=and windy.|58= Take your coat on.|10=147|
8=FIX.4.2|9=148|35=B|49=TESTI|56=TESTA|34=19|52=20030203-16:21:17|61=A|148=Weather|33=4|58=In the evening |58=it might be wet |58=and windy.|58= Take your coat on.|10=147|
8=FIX.4.2|9=148|35=B|49=TESTI|56=TESTA|34=19|52=20030203-16:21:17|61=b|148=Weather|33=4|58=In the evening |58=it might be wet |58=and windy.|58= Take your coat on.|10=147|
8=FIX.4.2|9=140|35=1|34=104|49=SNDR|56=TRGT|52=20090407-09:48:19.812|112= TEST #018 CHECK 4 REJECT MSGS with INVALID MESSAGE - INCORRECT DATA TYPE [MsgType:_B, Tag:_61]|10=018|
8=FIX.4.2|9=212|35=J|49=TESTI|56=TESTA|34=1|52=20030204-08:56:41|70=1116226|71=0|73=2|11=90001008|11=90000008|54=1|55=TESTB|53=1004000|6=30|75=20030821|63=-1|64=20030821|78=3|79=1000|80=500000|79=2000|80=400000|79=3000|80=104000|10=033|
8=FIX.4.2|9=212|35=J|49=TESTI|56=TESTA|34=1|52=20030204-08:56:41|70=1116226|71=0|73=2|11=90001008|11=90000008|54=1|55=TESTB|53=1004000|6=30|75=20030821|63=10|64=20030821|78=3|79=1000|80=500000|79=2000|80=400000|79=3000|80=104000|10=033|
8=FIX.4.2|9=212|35=J|49=TESTI|56=TESTA|34=1|52=20030204-08:56:41|70=1116226|71=0|73=2|11=90001008|11=90000008|54=1|55=TESTB|53=1004000|6=30|75=20030821|63=A|64=20030821|78=3|79=1000|80=500000|79=2000|80=400000|79=3000|80=104000|10=033|
8=FIX.4.2|9=212|35=J|49=TESTI|56=TESTA|34=1|52=20030204-08:56:41|70=1116226|71=0|73=2|11=90001008|11=90000008|54=1|55=TESTB|53=1004000|6=30|75=20030821|63=b|64=20030821|78=3|79=1000|80=500000|79=2000|80=400000|79=3000|80=104000|10=033|
8=FIX.4.2|9=140|35=1|34=104|49=SNDR|56=TRGT|52=20090407-09:48:19.812|112= TEST #019 CHECK 4 REJECT MSGS with INVALID MESSAGE - INCORRECT DATA TYPE [MsgType:_J, Tag:_63]|10=018|
8=FIX.4.2|9=204|35=J|49=TESTI|56=TESTA|34=1|52=20030204-08:56:41|70=1116226|71=-1|72=TST72|73=2|11=90001008|11=90000008|54=1|55=TESTB|53=1004000|6=30|75=20030821|78=3|79=1000|80=500000|79=2000|80=400000|79=3000|80=104000|10=029|
8=FIX.4.2|9=204|35=J|49=TESTI|56=TESTA|34=1|52=20030204-08:56:41|70=1116226|71=6|72=TST72|73=2|11=90001008|11=90000008|54=1|55=TESTB|53=1004000|6=30|75=20030821|78=3|79=1000|80=500000|79=2000|80=400000|79=3000|80=104000|10=029|
8=FIX.4.2|9=204|35=J|49=TESTI|56=TESTA|34=1|52=20030204-08:56:41|70=1116226|71=A|72=TST72|73=2|11=90001008|11=90000008|54=1|55=TESTB|53=1004000|6=30|75=20030821|78=3|79=1000|80=500000|79=2000|80=400000|79=3000|80=104000|10=029|
8=FIX.4.2|9=204|35=J|49=TESTI|56=TESTA|34=1|52=20030204-08:56:41|70=1116226|71=b|72=TST72|73=2|11=90001008|11=90000008|54=1|55=TESTB|53=1004000|6=30|75=20030821|78=3|79=1000|80=500000|79=2000|80=400000|79=3000|80=104000|10=029|
8=FIX.4.2|9=140|35=1|34=104|49=SNDR|56=TRGT|52=20090407-09:48:19.812|112= TEST #020 CHECK 4 REJECT MSGS with INVALID MESSAGE - INCORRECT DATA TYPE [MsgType:_J, Tag:_71]|10=018|
8=FIX.4.2|9=128|35=D|49=TESTI|56=TESTA|34=4|52=20030204-08:46:14|11=90001008|21=2|55=TESTB|54=1|60=20060217-10:00:00|38=4000|40=1|77=o|10=071|
8=FIX.4.2|9=128|35=D|49=TESTI|56=TESTA|34=4|52=20030204-08:46:14|11=90001008|21=2|55=TESTB|54=1|60=20060217-10:00:00|38=4000|40=1|77=1|10=071|
8=FIX.4.2|9=128|35=D|49=TESTI|56=TESTA|34=4|52=20030204-08:46:14|11=90001008|21=2|55=TESTB|54=1|60=20060217-10:00:00|38=4000|40=1|77=0|10=071|
8=FIX.4.2|9=128|35=D|49=TESTI|56=TESTA|34=4|52=20030204-08:46:14|11=90001008|21=2|55=TESTB|54=1|60=20060217-10:00:00|38=4000|40=1|77=-1|10=071|
8=FIX.4.2|9=140|35=1|34=104|49=SNDR|56=TRGT|52=20090407-09:48:19.812|112= TEST #021 CHECK 4 REJECT MSGS with INVALID MESSAGE - INCORRECT DATA TYPE [MsgType:_D, Tag:_77]|10=018|
8=FIX.4.2|9=128|35=D|49=TESTI|56=TESTA|34=4|52=20030204-08:46:14|11=90001008|21=2|81=-1|55=TESTB|54=1|60=20060217-10:00:00|38=4000|40=1|10=071|
8=FIX.4.2|9=128|35=D|49=TESTI|56=TESTA|34=4|52=20030204-08:46:14|11=90001008|21=2|81=7|55=TESTB|54=1|60=20060217-10:00:00|38=4000|40=1|10=071|
8=FIX.4.2|9=128|35=D|49=TESTI|56=TESTA|34=4|52=20030204-08:46:14|11=90001008|21=2|81=A|55=TESTB|54=1|60=20060217-10:00:00|38=4000|40=1|10=071|
8=FIX.4.2|9=128|35=D|49=TESTI|56=TESTA|34=4|52=20030204-08:46:14|11=90001008|21=2|81=b|55=TESTB|54=1|60=20060217-10:00:00|38=4000|40=1|10=071|
8=FIX.4.2|9=140|35=1|34=104|49=SNDR|56=TRGT|52=20090407-09:48:19.812|112= TEST #022 CHECK 4 REJECT MSGS with INVALID MESSAGE - INCORRECT DATA TYPE [MsgType:_D, Tag:_81]|10=018|
8=FIX.4.2|9=80|35=P|49=TESTI|56=TESTA|34=1|52=20030204-09:17:25|70=3659000001|75=20030808|87=-1|10=234|
8=FIX.4.2|9=80|35=P|49=TESTI|56=TESTA|34=1|52=20030204-09:17:25|70=3659000001|75=20030808|87=4|10=234|
8=FIX.4.2|9=80|35=P|49=TESTI|56=TESTA|34=1|52=20030204-09:17:25|70=3659000001|75=20030808|87=A|10=234|
8=FIX.4.2|9=80|35=P|49=TESTI|56=TESTA|34=1|52=20030204-09:17:25|70=3659000001|75=20030808|87=b|10=234|
8=FIX.4.2|9=140|35=1|34=104|49=SNDR|56=TRGT|52=20090407-09:48:19.812|112= TEST #023 CHECK 4 REJECT MSGS with INVALID MESSAGE - INCORRECT DATA TYPE [MsgType:_P, Tag:_87]|10=018|
8=FIX.4.2|9=80|35=P|49=TESTI|56=TESTA|34=7|52=20030204-09:17:25|70=3659000001|75=20030808|87=1|88=-1|10=240|
8=FIX.4.2|9=80|35=P|49=TESTI|56=TESTA|34=7|52=20030204-09:17:25|70=3659000001|75=20030808|87=1|88=8|10=240|
8=FIX.4.2|9=80|35=P|49=TESTI|56=TESTA|34=7|52=20030204-09:17:25|70=3659000001|75=20030808|87=1|88=A|10=240|
8=FIX.4.2|9=80|35=P|49=TESTI|56=TESTA|34=7|52=20030204-09:17:25|70=3659000001|75=20030808|87=1|88=b|10=240|
8=FIX.4.2|9=140|35=1|34=104|49=SNDR|56=TRGT|52=20090407-09:48:19.812|112= TEST #024 CHECK 4 REJECT MSGS with INVALID MESSAGE - INCORRECT DATA TYPE [MsgType:_P, Tag:_88]|10=018|
8=FIX.4.2|9=147|35=C|49=TESTI|56=TESTA|34=4|52=20030203-16:20:05|164=111111111|94=-1|147=Bunny's Birthday|33=3|58=Hello, Bunny!|58=Happy Birthday to you :)|58=Bye.|10=131|
8=FIX.4.2|9=147|35=C|49=TESTI|56=TESTA|34=4|52=20030203-16:20:05|164=111111111|94=3|147=Bunny's Birthday|33=3|58=Hello, Bunny!|58=Happy Birthday to you :)|58=Bye.|10=131|
8=FIX.4.2|9=147|35=C|49=TESTI|56=TESTA|34=4|52=20030203-16:20:05|164=111111111|94=A|147=Bunny's Birthday|33=3|58=Hello, Bunny!|58=Happy Birthday to you :)|58=Bye.|10=131|
8=FIX.4.2|9=147|35=C|49=TESTI|56=TESTA|34=4|52=20030203-16:20:05|164=111111111|94=b|147=Bunny's Birthday|33=3|58=Hello, Bunny!|58=Happy Birthday to you :)|58=Bye.|10=131|
8=FIX.4.2|9=140|35=1|34=104|49=SNDR|56=TRGT|52=20090407-09:48:19.812|112= TEST #025 CHECK 4 REJECT MSGS with INVALID MESSAGE - INCORRECT DATA TYPE [MsgType:_C, Tag:_94]|10=018|
