8=FIX.4.2|9=92|35=k|49=TESTI|56=TESTA|34=6|52=20030204-09:07:50|391=20012411|374=N|393=2|394=3|409=0|418=A|419=4|10=045|
8=FIX.4.2|9=92|35=k|49=TESTI|56=TESTA|34=6|52=20030204-09:07:50|391=20012411|374=N|393=2|394=3|409=-1|418=A|419=4|10=045|
8=FIX.4.2|9=92|35=k|49=TESTI|56=TESTA|34=6|52=20030204-09:07:50|391=20012411|374=N|393=2|394=3|409=A|418=A|419=4|10=045|
8=FIX.4.2|9=92|35=k|49=TESTI|56=TESTA|34=6|52=20030204-09:07:50|391=20012411|374=N|393=2|394=3|409=b|418=A|419=4|10=045|
8=FIX.4.2|9=140|35=1|34=104|49=SNDR|56=TRGT|52=20090407-09:48:19.812|112= TEST #094 CHECK 4 REJECT MSGS with INVALID MESSAGE - INCORRECT DATA TYPE [MsgType:_k, Tag:_409]|10=018|
8=FIX.4.2|9=92|35=k|49=TESTI|56=TESTA|34=6|52=20030204-09:07:50|391=20012411|374=N|393=2|394=3|411=y|418=A|419=4|10=045|
8=FIX.4.2|9=92|35=k|49=TESTI|56=TESTA|34=6|52=20030204-09:07:50|391=20012411|374=N|393=2|394=3|411=n|418=A|419=4|10=045|
8=FIX.4.2|9=92|35=k|49=TESTI|56=TESTA|34=6|52=20030204-09:07:50|391=20012411|374=N|393=2|394=3|411=0|418=A|419=4|10=045|
8=FIX.4.2|9=92|35=k|49=TESTI|56=TESTA|34=6|52=20030204-09:07:50|391=20012411|374=N|393=2|394=3|411=-1|418=A|419=4|10=045|
8=FIX.4.2|9=140|35=1|34=104|49=SNDR|56=TRGT|52=20090407-09:48:19.812|112= TEST #095 CHECK 4 REJECT MSGS with INVALID MESSAGE - INCORRECT DATA TYPE [MsgType:_k, Tag:_411]|10=018|
8=FIX.4.2|9=92|35=k|49=TESTI|56=TESTA|34=6|52=20030204-09:07:50|391=20012411|374=N|393=2|394=3|414=-1|418=A|419=4|10=045|
8=FIX.4.2|9=92|35=k|49=TESTI|56=TESTA|34=6|52=20030204-09:07:50|391=20012411|374=N|393=2|394=3|414=0|418=A|419=4|10=045|
8=FIX.4.2|9=92|35=k|49=TESTI|56=TESTA|34=6|52=20030204-09:07:50|391=20012411|374=N|393=2|394=3|414=A|418=A|419=4|10=045|
8=FIX.4.2|9=92|35=k|49=TESTI|56=TESTA|34=6|52=20030204-09:07:50|391=20012411|374=N|393=2|394=3|414=b|418=A|419=4|10=045|
8=FIX.4.2|9=140|35=1|34=104|49=SNDR|56=TRGT|52=20090407-09:48:19.812|112= TEST #096 CHECK 4 REJECT MSGS with INVALID MESSAGE - INCORRECT DATA TYPE [MsgType:_k, Tag:_414]|10=018|
8=FIX.4.2|9=92|35=k|49=TESTI|56=TESTA|34=6|52=20030204-09:07:50|391=20012411|374=N|393=2|394=3|416=-1|418=A|419=4|10=045|
8=FIX.4.2|9=92|35=k|49=TESTI|56=TESTA|34=6|52=20030204-09:07:50|391=20012411|374=N|393=2|394=3|416=0|418=A|419=4|10=045|
8=FIX.4.2|9=92|35=k|49=TESTI|56=TESTA|34=6|52=20030204-09:07:50|391=20012411|374=N|393=2|394=3|416=A|418=A|419=4|10=045|
8=FIX.4.2|9=92|35=k|49=TESTI|56=TESTA|34=6|52=20030204-09:07:50|391=20012411|374=N|393=2|394=3|416=b|418=A|419=4|10=045|
8=FIX.4.2|9=140|35=1|34=104|49=SNDR|56=TRGT|52=20090407-09:48:19.812|112= TEST #097 CHECK 4 REJECT MSGS with INVALID MESSAGE - INCORRECT DATA TYPE [MsgType:_k, Tag:_416]|10=018|
8=FIX.4.2|9=92|35=k|49=TESTI|56=TESTA|34=6|52=20030204-09:07:50|391=20012411|374=N|393=2|394=3|418=r|419=4|10=045|
8=FIX.4.2|9=92|35=k|49=TESTI|56=TESTA|34=6|52=20030204-09:07:50|391=20012411|374=N|393=2|394=3|418=j|419=4|10=045|
8=FIX.4.2|9=92|35=k|49=TESTI|56=TESTA|34=6|52=20030204-09:07:50|391=20012411|374=N|393=2|394=3|418=0|419=4|10=045|
8=FIX.4.2|9=92|35=k|49=TESTI|56=TESTA|34=6|52=20030204-09:07:50|391=20012411|374=N|393=2|394=3|418=-1|419=4|10=045|
8=FIX.4.2|9=140|35=1|34=104|49=SNDR|56=TRGT|52=20090407-09:48:19.812|112= TEST #098 CHECK 4 REJECT MSGS with INVALID MESSAGE - INCORRECT DATA TYPE [MsgType:_k, Tag:_418]|10=018|
8=FIX.4.2|9=92|35=k|49=TESTI|56=TESTA|34=6|52=20030204-09:07:50|391=20012411|374=N|393=2|394=3|418=A|419=-1|10=045|
8=FIX.4.2|9=92|35=k|49=TESTI|56=TESTA|34=6|52=20030204-09:07:50|391=20012411|374=N|393=2|394=3|418=A|419=0|10=045|
8=FIX.4.2|9=92|35=k|49=TESTI|56=TESTA|34=6|52=20030204-09:07:50|391=20012411|374=N|393=2|394=3|418=A|419=1|10=045|
8=FIX.4.2|9=92|35=k|49=TESTI|56=TESTA|34=6|52=20030204-09:07:50|391=20012411|374=N|393=2|394=3|418=A|419=a|10=045|
8=FIX.4.2|9=140|35=1|34=104|49=SNDR|56=TRGT|52=20090407-09:48:19.812|112= TEST #099 CHECK 4 REJECT MSGS with INVALID MESSAGE - INCORRECT DATA TYPE [MsgType:_k, Tag:_419]|10=018|
8=FIX.4.2|9=78|35=l|49=TESTI|56=TESTA|34=6|52=20030204-09:07:50|420=2|12=5|13=1|12=0.07|13=2|421=0|10=063|
8=FIX.4.2|9=78|35=l|49=TESTI|56=TESTA|34=6|52=20030204-09:07:50|420=2|12=5|13=1|12=0.07|13=2|421=-1|10=063|
8=FIX.4.2|9=78|35=l|49=TESTI|56=TESTA|34=6|52=20030204-09:07:50|420=2|12=5|13=1|12=0.07|13=2|421=Us|10=063|
8=FIX.4.2|9=78|35=l|49=TESTI|56=TESTA|34=6|52=20030204-09:07:50|420=2|12=5|13=1|12=0.07|13=2|421=no|10=063|
8=FIX.4.2|9=140|35=1|34=104|49=SNDR|56=TRGT|52=20090407-09:48:19.812|112= TEST #100 CHECK 4 REJECT MSGS with INVALID MESSAGE - INCORRECT DATA TYPE [MsgType:_l, Tag:_421]|10=018|
8=FIX.4.2|9=78|35=l|49=TESTI|56=TESTA|34=6|52=20030204-09:07:50|420=2|12=5|13=1|12=0.07|13=2|423=-1|10=063|
8=FIX.4.2|9=78|35=l|49=TESTI|56=TESTA|34=6|52=20030204-09:07:50|420=2|12=5|13=1|12=0.07|13=2|423=0|10=063|
8=FIX.4.2|9=78|35=l|49=TESTI|56=TESTA|34=6|52=20030204-09:07:50|420=2|12=5|13=1|12=0.07|13=2|423=A|10=063|
8=FIX.4.2|9=78|35=l|49=TESTI|56=TESTA|34=6|52=20030204-09:07:50|420=2|12=5|13=1|12=0.07|13=2|423=b|10=063|
8=FIX.4.2|9=140|35=1|34=104|49=SNDR|56=TRGT|52=20090407-09:48:19.812|112= TEST #101 CHECK 4 REJECT MSGS with INVALID MESSAGE - INCORRECT DATA TYPE [MsgType:_l, Tag:_423]|10=018|
8=FIX.4.2|9=128|35=D|49=TESTI|56=TESTA|34=4|52=20030204-08:46:14|11=90001008|21=2|55=TESTB|54=1|60=20060217-10:00:00|38=4000|40=1|427=-1|10=071|
8=FIX.4.2|9=128|35=D|49=TESTI|56=TESTA|34=4|52=20030204-08:46:14|11=90001008|21=2|55=TESTB|54=1|60=20060217-10:00:00|38=4000|40=1|427=3|10=071|
8=FIX.4.2|9=128|35=D|49=TESTI|56=TESTA|34=4|52=20030204-08:46:14|11=90001008|21=2|55=TESTB|54=1|60=20060217-10:00:00|38=4000|40=1|427=A|10=071|
8=FIX.4.2|9=128|35=D|49=TESTI|56=TESTA|34=4|52=20030204-08:46:14|11=90001008|21=2|55=TESTB|54=1|60=20060217-10:00:00|38=4000|40=1|427=b|10=071|
8=FIX.4.2|9=140|35=1|34=104|49=SNDR|56=TRGT|52=20090407-09:48:19.812|112= TEST #102 CHECK 4 REJECT MSGS with INVALID MESSAGE - INCORRECT DATA TYPE [MsgType:_D, Tag:_427]|10=018|
8=FIX.4.2|9=219|35=N|49=TESTI|56=TESTA|34=15|52=20030204-09:08:23|66=20012411|429=-1|82=3|431=3|83=1|68=5|73=3|11=1111|14=11|39=1|151=89|84=0|6=12|11=1121|14=1000|39=1|151=500|84=1000|6=2.28|11=1131|14=2500|39=1|151=500|84=1500|6=34.11|10=053|
8=FIX.4.2|9=219|35=N|49=TESTI|56=TESTA|34=15|52=20030204-09:08:23|66=20012411|429=0|82=3|431=3|83=1|68=5|73=3|11=1111|14=11|39=1|151=89|84=0|6=12|11=1121|14=1000|39=1|151=500|84=1000|6=2.28|11=1131|14=2500|39=1|151=500|84=1500|6=34.11|10=053|
8=FIX.4.2|9=219|35=N|49=TESTI|56=TESTA|34=15|52=20030204-09:08:23|66=20012411|429=A|82=3|431=3|83=1|68=5|73=3|11=1111|14=11|39=1|151=89|84=0|6=12|11=1121|14=1000|39=1|151=500|84=1000|6=2.28|11=1131|14=2500|39=1|151=500|84=1500|6=34.11|10=053|
8=FIX.4.2|9=219|35=N|49=TESTI|56=TESTA|34=15|52=20030204-09:08:23|66=20012411|429=b|82=3|431=3|83=1|68=5|73=3|11=1111|14=11|39=1|151=89|84=0|6=12|11=1121|14=1000|39=1|151=500|84=1000|6=2.28|11=1131|14=2500|39=1|151=500|84=1500|6=34.11|10=053|
8=FIX.4.2|9=140|35=1|34=104|49=SNDR|56=TRGT|52=20090407-09:48:19.812|112= TEST #103 CHECK 4 REJECT MSGS with INVALID MESSAGE - INCORRECT DATA TYPE [MsgType:_N, Tag:_429]|10=018|
8=FIX.4.2|9=78|35=l|49=TESTI|56=TESTA|34=6|52=20030204-09:07:50|420=2|12=5|13=1|12=0.07|13=2|430=-1|10=063|
8=FIX.4.2|9=78|35=l|49=TESTI|56=TESTA|34=6|52=20030204-09:07:50|420=2|12=5|13=1|12=0.07|13=2|430=0|10=063|
8=FIX.4.2|9=78|35=l|49=TESTI|56=TESTA|34=6|52=20030204-09:07:50|420=2|12=5|13=1|12=0.07|13=2|430=A|10=063|
8=FIX.4.2|9=78|35=l|49=TESTI|56=TESTA|34=6|52=20030204-09:07:50|420=2|12=5|13=1|12=0.07|13=2|430=b|10=063|
8=FIX.4.2|9=140|35=1|34=104|49=SNDR|56=TRGT|52=20090407-09:48:19.812|112= TEST #104 CHECK 4 REJECT MSGS with INVALID MESSAGE - INCORRECT DATA TYPE [MsgType:_l, Tag:_430]|10=018|
8=FIX.4.2|9=219|35=N|49=TESTI|56=TESTA|34=15|52=20030204-09:08:23|66=20012411|429=1|82=3|431=-1|83=1|68=5|73=3|11=1111|14=11|39=1|151=89|84=0|6=12|11=1121|14=1000|39=1|151=500|84=1000|6=2.28|11=1131|14=2500|39=1|151=500|84=1500|6=34.11|10=053|
8=FIX.4.2|9=219|35=N|49=TESTI|56=TESTA|34=15|52=20030204-09:08:23|66=20012411|429=1|82=3|431=0|83=1|68=5|73=3|11=1111|14=11|39=1|151=89|84=0|6=12|11=1121|14=1000|39=1|151=500|84=1000|6=2.28|11=1131|14=2500|39=1|151=500|84=1500|6=34.11|10=053|
8=FIX.4.2|9=219|35=N|49=TESTI|56=TESTA|34=15|52=20030204-09:08:23|66=20012411|429=1|82=3|431=A|83=1|68=5|73=3|11=1111|14=11|39=1|151=89|84=0|6=12|11=1121|14=1000|39=1|151=500|84=1000|6=2.28|11=1131|14=2500|39=1|151=500|84=1500|6=34.11|10=053|
8=FIX.4.2|9=219|35=N|49=TESTI|56=TESTA|34=15|52=20030204-09:08:23|66=20012411|429=1|82=3|431=b|83=1|68=5|73=3|11=1111|14=11|39=1|151=89|84=0|6=12|11=1121|14=1000|39=1|151=500|84=1000|6=2.28|11=1131|14=2500|39=1|151=500|84=1500|6=34.11|10=053|
8=FIX.4.2|9=140|35=1|34=104|49=SNDR|56=TRGT|52=20090407-09:48:19.812|112= TEST #105 CHECK 4 REJECT MSGS with INVALID MESSAGE - INCORRECT DATA TYPE [MsgType:_N, Tag:_431]|10=018|
8=FIX.4.2|9=149|35=E|49=TESTI|56=TESTA|34=3|52=20030204-08:18:22|66=20012411|394=3|433=-1|68=1|73=2|11=1131|67=1|55=TESTB3|54=3|38=3000|11=1132|67=2|55=TESTB2|54=1|38=1000|10=031|
8=FIX.4.2|9=149|35=E|49=TESTI|56=TESTA|34=3|52=20030204-08:18:22|66=20012411|394=3|433=0|68=1|73=2|11=1131|67=1|55=TESTB3|54=3|38=3000|11=1132|67=2|55=TESTB2|54=1|38=1000|10=031|
8=FIX.4.2|9=149|35=E|49=TESTI|56=TESTA|34=3|52=20030204-08:18:22|66=20012411|394=3|433=A|68=1|73=2|11=1131|67=1|55=TESTB3|54=3|38=3000|11=1132|67=2|55=TESTB2|54=1|38=1000|10=031|
8=FIX.4.2|9=149|35=E|49=TESTI|56=TESTA|34=3|52=20030204-08:18:22|66=20012411|394=3|433=b|68=1|73=2|11=1131|67=1|55=TESTB3|54=3|38=3000|11=1132|67=2|55=TESTB2|54=1|38=1000|10=031|
8=FIX.4.2|9=140|35=1|34=104|49=SNDR|56=TRGT|52=20090407-09:48:19.812|112= TEST #106 CHECK 4 REJECT MSGS with INVALID MESSAGE - INCORRECT DATA TYPE [MsgType:_E, Tag:_433]|10=018|
8=FIX.4.2|9=102|35=9|49=TESTI|56=TESTA|34=3|52=20030203-16:13:14|37=11111111|11=12121212122|41=11111111111|39=0|434=-1|10=209|
8=FIX.4.2|9=102|35=9|49=TESTI|56=TESTA|34=3|52=20030203-16:13:14|37=11111111|11=12121212122|41=11111111111|39=0|434=0|10=209|
8=FIX.4.2|9=102|35=9|49=TESTI|56=TESTA|34=3|52=20030203-16:13:14|37=11111111|11=12121212122|41=11111111111|39=0|434=A|10=209|
8=FIX.4.2|9=102|35=9|49=TESTI|56=TESTA|34=3|52=20030203-16:13:14|37=11111111|11=12121212122|41=11111111111|39=0|434=b|10=209|
8=FIX.4.2|9=140|35=1|34=104|49=SNDR|56=TRGT|52=20090407-09:48:19.812|112= TEST #107 CHECK 4 REJECT MSGS with INVALID MESSAGE - INCORRECT DATA TYPE [MsgType:_9, Tag:_434]|10=018|
8=FIX.4.2|9=125|35=8|49=TESTI|56=TESTA|34=114|52=20030203-16:09:30|37=11111111|17=12|20=3|39=0|150=0|55=TESTB|54=1|38=1000|151=1000|14=0|6=0|442=-1|10=011|
8=FIX.4.2|9=125|35=8|49=TESTI|56=TESTA|34=114|52=20030203-16:09:30|37=11111111|17=12|20=3|39=0|150=0|55=TESTB|54=1|38=1000|151=1000|14=0|6=0|442=0|10=011|
8=FIX.4.2|9=125|35=8|49=TESTI|56=TESTA|34=114|52=20030203-16:09:30|37=11111111|17=12|20=3|39=0|150=0|55=TESTB|54=1|38=1000|151=1000|14=0|6=0|442=A|10=011|
8=FIX.4.2|9=125|35=8|49=TESTI|56=TESTA|34=114|52=20030203-16:09:30|37=11111111|17=12|20=3|39=0|150=0|55=TESTB|54=1|38=1000|151=1000|14=0|6=0|442=b|10=011|
8=FIX.4.2|9=140|35=1|34=104|49=SNDR|56=TRGT|52=20090407-09:48:19.812|112= TEST #108 CHECK 4 REJECT MSGS with INVALID MESSAGE - INCORRECT DATA TYPE [MsgType:_8, Tag:_442]|10=018|
