8=FIX.4.2|9=78|35=S|49=TESTI|56=TESTA|34=14|52=20030204-09:25:43|117=11223|55=TESTB|201=-1|133=15.3|10=004|
8=FIX.4.2|9=78|35=S|49=TESTI|56=TESTA|34=14|52=20030204-09:25:43|117=11223|55=TESTB|201=2|133=15.3|10=004|
8=FIX.4.2|9=78|35=S|49=TESTI|56=TESTA|34=14|52=20030204-09:25:43|117=11223|55=TESTB|201=A|133=15.3|10=004|
8=FIX.4.2|9=78|35=S|49=TESTI|56=TESTA|34=14|52=20030204-09:25:43|117=11223|55=TESTB|201=b|133=15.3|10=004|
8=FIX.4.2|9=140|35=1|34=104|49=SNDR|56=TRGT|52=20090407-09:48:19.812|112= TEST #047 CHECK 4 REJECT MSGS with INVALID MESSAGE - INCORRECT DATA TYPE [MsgType:_S, Tag:_201]|10=018|
8=FIX.4.2|9=149|35=E|49=TESTI|56=TESTA|34=3|52=20030204-08:18:22|66=20012411|394=3|68=1|73=2|11=1131|67=1|55=TESTB3|54=3|38=3000|11=1132|67=2|55=TESTB2|54=1|38=1000|203=-1|10=031|
8=FIX.4.2|9=149|35=E|49=TESTI|56=TESTA|34=3|52=20030204-08:18:22|66=20012411|394=3|68=1|73=2|11=1131|67=1|55=TESTB3|54=3|38=3000|11=1132|67=2|55=TESTB2|54=1|38=1000|203=2|10=031|
8=FIX.4.2|9=149|35=E|49=TESTI|56=TESTA|34=3|52=20030204-08:18:22|66=20012411|394=3|68=1|73=2|11=1131|67=1|55=TESTB3|54=3|38=3000|11=1132|67=2|55=TESTB2|54=1|38=1000|203=A|10=031|
8=FIX.4.2|9=149|35=E|49=TESTI|56=TESTA|34=3|52=20030204-08:18:22|66=20012411|394=3|68=1|73=2|11=1131|67=1|55=TESTB3|54=3|38=3000|11=1132|67=2|55=TESTB2|54=1|38=1000|203=b|10=031|
8=FIX.4.2|9=140|35=1|34=104|49=SNDR|56=TRGT|52=20090407-09:48:19.812|112= TEST #048 CHECK 4 REJECT MSGS with INVALID MESSAGE - INCORRECT DATA TYPE [MsgType:_E, Tag:_203]|10=018|
8=FIX.4.2|9=149|35=E|49=TESTI|56=TESTA|34=3|52=20030204-08:18:22|66=20012411|394=3|68=1|73=2|11=1131|67=1|55=TESTB3|54=3|38=3000|11=1132|67=2|55=TESTB2|54=1|38=1000|204=-1|10=031|
8=FIX.4.2|9=149|35=E|49=TESTI|56=TESTA|34=3|52=20030204-08:18:22|66=20012411|394=3|68=1|73=2|11=1131|67=1|55=TESTB3|54=3|38=3000|11=1132|67=2|55=TESTB2|54=1|38=1000|204=2|10=031|
8=FIX.4.2|9=149|35=E|49=TESTI|56=TESTA|34=3|52=20030204-08:18:22|66=20012411|394=3|68=1|73=2|11=1131|67=1|55=TESTB3|54=3|38=3000|11=1132|67=2|55=TESTB2|54=1|38=1000|204=A|10=031|
8=FIX.4.2|9=149|35=E|49=TESTI|56=TESTA|34=3|52=20030204-08:18:22|66=20012411|394=3|68=1|73=2|11=1131|67=1|55=TESTB3|54=3|38=3000|11=1132|67=2|55=TESTB2|54=1|38=1000|204=b|10=031|
8=FIX.4.2|9=140|35=1|34=104|49=SNDR|56=TRGT|52=20090407-09:48:19.812|112= TEST #049 CHECK 4 REJECT MSGS with INVALID MESSAGE - INCORRECT DATA TYPE [MsgType:_E, Tag:_204]|10=018|
8=FIX.4.2|9=149|35=E|49=TESTI|56=TESTA|34=3|52=20030204-08:18:22|66=20012411|394=3|68=1|73=2|11=1131|67=1|55=TESTB3|54=3|38=3000|11=1132|67=2|55=TESTB2|54=1|38=1000|206=l|10=031|
8=FIX.4.2|9=149|35=E|49=TESTI|56=TESTA|34=3|52=20030204-08:18:22|66=20012411|394=3|68=1|73=2|11=1131|67=1|55=TESTB3|54=3|38=3000|11=1132|67=2|55=TESTB2|54=1|38=1000|206=s|10=031|
8=FIX.4.2|9=149|35=E|49=TESTI|56=TESTA|34=3|52=20030204-08:18:22|66=20012411|394=3|68=1|73=2|11=1131|67=1|55=TESTB3|54=3|38=3000|11=1132|67=2|55=TESTB2|54=1|38=1000|206=-1|10=031|
8=FIX.4.2|9=149|35=E|49=TESTI|56=TESTA|34=3|52=20030204-08:18:22|66=20012411|394=3|68=1|73=2|11=1131|67=1|55=TESTB3|54=3|38=3000|11=1132|67=2|55=TESTB2|54=1|38=1000|206=10|10=031|
8=FIX.4.2|9=140|35=1|34=104|49=SNDR|56=TRGT|52=20090407-09:48:19.812|112= TEST #050 CHECK 4 REJECT MSGS with INVALID MESSAGE - INCORRECT DATA TYPE [MsgType:_E, Tag:_206]|10=018|
8=FIX.4.2|9=195|35=J|49=TESTI|56=TESTA|34=4|52=20030204-08:56:41|70=1116226|71=0|73=2|11=90001008|11=90000008|54=1|55=TESTB|53=1004000|6=30|75=20030821|78=3|79=1000|80=500000|79=2000|80=400000|79=3000|80=104000|208=y|10=030|
8=FIX.4.2|9=195|35=J|49=TESTI|56=TESTA|34=4|52=20030204-08:56:41|70=1116226|71=0|73=2|11=90001008|11=90000008|54=1|55=TESTB|53=1004000|6=30|75=20030821|78=3|79=1000|80=500000|79=2000|80=400000|79=3000|80=104000|208=n|10=030|
8=FIX.4.2|9=195|35=J|49=TESTI|56=TESTA|34=4|52=20030204-08:56:41|70=1116226|71=0|73=2|11=90001008|11=90000008|54=1|55=TESTB|53=1004000|6=30|75=20030821|78=3|79=1000|80=500000|79=2000|80=400000|79=3000|80=104000|208=0|10=030|
8=FIX.4.2|9=195|35=J|49=TESTI|56=TESTA|34=4|52=20030204-08:56:41|70=1116226|71=0|73=2|11=90001008|11=90000008|54=1|55=TESTB|53=1004000|6=30|75=20030821|78=3|79=1000|80=500000|79=2000|80=400000|79=3000|80=104000|208=-1|10=030|
8=FIX.4.2|9=140|35=1|34=104|49=SNDR|56=TRGT|52=20090407-09:48:19.812|112= TEST #051 CHECK 4 REJECT MSGS with INVALID MESSAGE - INCORRECT DATA TYPE [MsgType:_J, Tag:_208]|10=018|
8=FIX.4.2|9=195|35=J|49=TESTI|56=TESTA|34=4|52=20030204-08:56:41|70=1116226|71=0|73=2|11=90001008|11=90000008|54=1|55=TESTB|53=1004000|6=30|75=20030821|78=3|79=1000|80=500000|79=2000|80=400000|79=3000|80=104000|209=0|10=030|
8=FIX.4.2|9=195|35=J|49=TESTI|56=TESTA|34=4|52=20030204-08:56:41|70=1116226|71=0|73=2|11=90001008|11=90000008|54=1|55=TESTB|53=1004000|6=30|75=20030821|78=3|79=1000|80=500000|79=2000|80=400000|79=3000|80=104000|209=-1|10=030|
8=FIX.4.2|9=195|35=J|49=TESTI|56=TESTA|34=4|52=20030204-08:56:41|70=1116226|71=0|73=2|11=90001008|11=90000008|54=1|55=TESTB|53=1004000|6=30|75=20030821|78=3|79=1000|80=500000|79=2000|80=400000|79=3000|80=104000|209=A|10=030|
8=FIX.4.2|9=195|35=J|49=TESTI|56=TESTA|34=4|52=20030204-08:56:41|70=1116226|71=0|73=2|11=90001008|11=90000008|54=1|55=TESTB|53=1004000|6=30|75=20030821|78=3|79=1000|80=500000|79=2000|80=400000|79=3000|80=104000|209=b|10=030|
8=FIX.4.2|9=140|35=1|34=104|49=SNDR|56=TRGT|52=20090407-09:48:19.812|112= TEST #052 CHECK 4 REJECT MSGS with INVALID MESSAGE - INCORRECT DATA TYPE [MsgType:_J, Tag:_209]|10=018|
8=FIX.4.2|9=166|35=B|49=TESTI|56=TESTA|34=19|52=20030203-16:21:17|148=Weather|215=1|216=0|217=000217|33=4|58=In the evening |58=it might be wet |58=and windy.|58= Take your coat on.|10=207|
8=FIX.4.2|9=166|35=B|49=TESTI|56=TESTA|34=19|52=20030203-16:21:17|148=Weather|215=1|216=-1|217=000217|33=4|58=In the evening |58=it might be wet |58=and windy.|58= Take your coat on.|10=207|
8=FIX.4.2|9=166|35=B|49=TESTI|56=TESTA|34=19|52=20030203-16:21:17|148=Weather|215=1|216=A|217=000217|33=4|58=In the evening |58=it might be wet |58=and windy.|58= Take your coat on.|10=207|
8=FIX.4.2|9=166|35=B|49=TESTI|56=TESTA|34=19|52=20030203-16:21:17|148=Weather|215=1|216=b|217=000217|33=4|58=In the evening |58=it might be wet |58=and windy.|58= Take your coat on.|10=207|
8=FIX.4.2|9=140|35=1|34=104|49=SNDR|56=TRGT|52=20090407-09:48:19.812|112= TEST #053 CHECK 4 REJECT MSGS with INVALID MESSAGE - INCORRECT DATA TYPE [MsgType:_B, Tag:_216]|10=018|
8=FIX.4.2|9=81|35=6|49=TESTI|56=TESTA|34=121|52=20030203-16:10:01|23=24|28=N|55=TESTB|54=1|27=S|219=0|10=102|
8=FIX.4.2|9=81|35=6|49=TESTI|56=TESTA|34=121|52=20030203-16:10:01|23=24|28=N|55=TESTB|54=1|27=S|219=-1|10=102|
8=FIX.4.2|9=81|35=6|49=TESTI|56=TESTA|34=121|52=20030203-16:10:01|23=24|28=N|55=TESTB|54=1|27=S|219=A|10=102|
8=FIX.4.2|9=81|35=6|49=TESTI|56=TESTA|34=121|52=20030203-16:10:01|23=24|28=N|55=TESTB|54=1|27=S|219=b|10=102|
8=FIX.4.2|9=140|35=1|34=104|49=SNDR|56=TRGT|52=20090407-09:48:19.812|112= TEST #054 CHECK 4 REJECT MSGS with INVALID MESSAGE - INCORRECT DATA TYPE [MsgType:_6, Tag:_219]|10=018|
8=FIX.4.2|9=65|35=g|49=TESTI|56=TESTA|34=14|52=20030204-09:25:43|335=0001|263=-1|10=035|
8=FIX.4.2|9=65|35=g|49=TESTI|56=TESTA|34=14|52=20030204-09:25:43|335=0001|263=3|10=035|
8=FIX.4.2|9=65|35=g|49=TESTI|56=TESTA|34=14|52=20030204-09:25:43|335=0001|263=A|10=035|
8=FIX.4.2|9=65|35=g|49=TESTI|56=TESTA|34=14|52=20030204-09:25:43|335=0001|263=b|10=035|
8=FIX.4.2|9=140|35=1|34=104|49=SNDR|56=TRGT|52=20090407-09:48:19.812|112= TEST #055 CHECK 4 REJECT MSGS with INVALID MESSAGE - INCORRECT DATA TYPE [MsgType:_g, Tag:_263]|10=018|
8=FIX.4.2|9=114|35=V|49=TESTI|56=TESTA|34=14|52=20030204-09:25:43|262=11223|263=0|264=-1|267=2|269=0|269=1|146=2|55=TESTA|55=TESTB|10=008|
8=FIX.4.2|9=114|35=V|49=TESTI|56=TESTA|34=14|52=20030204-09:25:43|262=11223|263=0|264=Y|267=2|269=0|269=1|146=2|55=TESTA|55=TESTB|10=008|
8=FIX.4.2|9=114|35=V|49=TESTI|56=TESTA|34=14|52=20030204-09:25:43|262=11223|263=0|264=A|267=2|269=0|269=1|146=2|55=TESTA|55=TESTB|10=008|
8=FIX.4.2|9=114|35=V|49=TESTI|56=TESTA|34=14|52=20030204-09:25:43|262=11223|263=0|264=b|267=2|269=0|269=1|146=2|55=TESTA|55=TESTB|10=008|
8=FIX.4.2|9=140|35=1|34=104|49=SNDR|56=TRGT|52=20090407-09:48:19.812|112= TEST #056 CHECK 4 REJECT MSGS with INVALID MESSAGE - INCORRECT DATA TYPE [MsgType:_V, Tag:_264]|10=018|
8=FIX.4.2|9=114|35=V|49=TESTI|56=TESTA|34=14|52=20030204-09:25:43|262=11223|263=0|264=1|265=-1|267=2|269=0|269=1|146=2|55=TESTA|55=TESTB|10=008|
8=FIX.4.2|9=114|35=V|49=TESTI|56=TESTA|34=14|52=20030204-09:25:43|262=11223|263=0|264=1|265=2|267=2|269=0|269=1|146=2|55=TESTA|55=TESTB|10=008|
8=FIX.4.2|9=114|35=V|49=TESTI|56=TESTA|34=14|52=20030204-09:25:43|262=11223|263=0|264=1|265=A|267=2|269=0|269=1|146=2|55=TESTA|55=TESTB|10=008|
8=FIX.4.2|9=114|35=V|49=TESTI|56=TESTA|34=14|52=20030204-09:25:43|262=11223|263=0|264=1|265=b|267=2|269=0|269=1|146=2|55=TESTA|55=TESTB|10=008|
8=FIX.4.2|9=140|35=1|34=104|49=SNDR|56=TRGT|52=20090407-09:48:19.812|112= TEST #057 CHECK 4 REJECT MSGS with INVALID MESSAGE - INCORRECT DATA TYPE [MsgType:_V, Tag:_265]|10=018|
8=FIX.4.2|9=114|35=V|49=TESTI|56=TESTA|34=14|52=20030204-09:25:43|262=11223|263=0|264=0|266=y|267=2|269=0|269=1|146=2|55=TESTA|55=TESTB|10=008|
8=FIX.4.2|9=114|35=V|49=TESTI|56=TESTA|34=14|52=20030204-09:25:43|262=11223|263=0|264=0|266=n|267=2|269=0|269=1|146=2|55=TESTA|55=TESTB|10=008|
8=FIX.4.2|9=114|35=V|49=TESTI|56=TESTA|34=14|52=20030204-09:25:43|262=11223|263=0|264=0|266=0|267=2|269=0|269=1|146=2|55=TESTA|55=TESTB|10=008|
8=FIX.4.2|9=114|35=V|49=TESTI|56=TESTA|34=14|52=20030204-09:25:43|262=11223|263=0|264=0|266=-1|267=2|269=0|269=1|146=2|55=TESTA|55=TESTB|10=008|
8=FIX.4.2|9=140|35=1|34=104|49=SNDR|56=TRGT|52=20090407-09:48:19.812|112= TEST #058 CHECK 4 REJECT MSGS with INVALID MESSAGE - INCORRECT DATA TYPE [MsgType:_V, Tag:_266]|10=018|
8=FIX.4.2|9=100|35=X|49=TESTI|56=TESTA|34=14|52=20030204-09:25:43|268=1|279=0|269=-1|280=0001|270=10|10=107|
8=FIX.4.2|9=100|35=X|49=TESTI|56=TESTA|34=14|52=20030204-09:25:43|268=1|279=0|269=10|280=0001|270=10|10=107|
8=FIX.4.2|9=100|35=X|49=TESTI|56=TESTA|34=14|52=20030204-09:25:43|268=1|279=0|269=A|280=0001|270=10|10=107|
8=FIX.4.2|9=100|35=X|49=TESTI|56=TESTA|34=14|52=20030204-09:25:43|268=1|279=0|269=b|280=0001|270=10|10=107|
8=FIX.4.2|9=140|35=1|34=104|49=SNDR|56=TRGT|52=20090407-09:48:19.812|112= TEST #059 CHECK 4 REJECT MSGS with INVALID MESSAGE - INCORRECT DATA TYPE [MsgType:_X, Tag:_269]|10=018|
8=FIX.4.2|9=100|35=X|49=TESTI|56=TESTA|34=14|52=20030204-09:25:43|268=1|279=1|280=0001|270=10|274=-1|10=107|
8=FIX.4.2|9=100|35=X|49=TESTI|56=TESTA|34=14|52=20030204-09:25:43|268=1|279=1|280=0001|270=10|274=4|10=107|
8=FIX.4.2|9=100|35=X|49=TESTI|56=TESTA|34=14|52=20030204-09:25:43|268=1|279=1|280=0001|270=10|274=A|10=107|
8=FIX.4.2|9=100|35=X|49=TESTI|56=TESTA|34=14|52=20030204-09:25:43|268=1|279=1|280=0001|270=10|274=b|10=107|
8=FIX.4.2|9=140|35=1|34=104|49=SNDR|56=TRGT|52=20090407-09:48:19.812|112= TEST #060 CHECK 4 REJECT MSGS with INVALID MESSAGE - INCORRECT DATA TYPE [MsgType:_X, Tag:_274]|10=018|
8=FIX.4.2|9=100|35=X|49=TESTI|56=TESTA|34=14|52=20030204-09:25:43|268=1|279=1|280=0001|270=10|275=-1|10=107|
8=FIX.4.2|9=100|35=X|49=TESTI|56=TESTA|34=14|52=20030204-09:25:43|268=1|279=1|280=0001|270=10|275=18|10=107|
8=FIX.4.2|9=100|35=X|49=TESTI|56=TESTA|34=14|52=20030204-09:25:43|268=1|279=1|280=0001|270=10|275=Tn|10=107|
8=FIX.4.2|9=100|35=X|49=TESTI|56=TESTA|34=14|52=20030204-09:25:43|268=1|279=1|280=0001|270=10|275=sbI|10=107|
8=FIX.4.2|9=140|35=1|34=104|49=SNDR|56=TRGT|52=20090407-09:48:19.812|112= TEST #061 CHECK 4 REJECT MSGS with INVALID MESSAGE - INCORRECT DATA TYPE [MsgType:_X, Tag:_275]|10=018|
8=FIX.4.2|9=100|35=X|49=TESTI|56=TESTA|34=14|52=20030204-09:25:43|268=1|279=-1|280=0001|270=10|10=107|
8=FIX.4.2|9=100|35=X|49=TESTI|56=TESTA|34=14|52=20030204-09:25:43|268=1|279=3|280=0001|270=10|10=107|
8=FIX.4.2|9=100|35=X|49=TESTI|56=TESTA|34=14|52=20030204-09:25:43|268=1|279=A|280=0001|270=10|10=107|
8=FIX.4.2|9=100|35=X|49=TESTI|56=TESTA|34=14|52=20030204-09:25:43|268=1|279=b|280=0001|270=10|10=107|
8=FIX.4.2|9=140|35=1|34=104|49=SNDR|56=TRGT|52=20090407-09:48:19.812|112= TEST #062 CHECK 4 REJECT MSGS with INVALID MESSAGE - INCORRECT DATA TYPE [MsgType:_X, Tag:_279]|10=018|
8=FIX.4.2|9=60|35=Y|49=TESTI|56=TESTA|34=14|52=20030204-09:25:43|262=11223|281=-1|10=060|
8=FIX.4.2|9=60|35=Y|49=TESTI|56=TESTA|34=14|52=20030204-09:25:43|262=11223|281=9|10=060|
8=FIX.4.2|9=60|35=Y|49=TESTI|56=TESTA|34=14|52=20030204-09:25:43|262=11223|281=A|10=060|
8=FIX.4.2|9=60|35=Y|49=TESTI|56=TESTA|34=14|52=20030204-09:25:43|262=11223|281=b|10=060|
8=FIX.4.2|9=140|35=1|34=104|49=SNDR|56=TRGT|52=20090407-09:48:19.812|112= TEST #063 CHECK 4 REJECT MSGS with INVALID MESSAGE - INCORRECT DATA TYPE [MsgType:_Y, Tag:_281]|10=018|
8=FIX.4.2|9=100|35=X|49=TESTI|56=TESTA|34=14|52=20030204-09:25:43|268=1|279=1|285=-1|280=0001|270=10|10=107|
8=FIX.4.2|9=100|35=X|49=TESTI|56=TESTA|34=14|52=20030204-09:25:43|268=1|279=1|285=2|280=0001|270=10|10=107|
8=FIX.4.2|9=100|35=X|49=TESTI|56=TESTA|34=14|52=20030204-09:25:43|268=1|279=1|285=A|280=0001|270=10|10=107|
8=FIX.4.2|9=100|35=X|49=TESTI|56=TESTA|34=14|52=20030204-09:25:43|268=1|279=1|285=b|280=0001|270=10|10=107|
8=FIX.4.2|9=140|35=1|34=104|49=SNDR|56=TRGT|52=20090407-09:48:19.812|112= TEST #064 CHECK 4 REJECT MSGS with INVALID MESSAGE - INCORRECT DATA TYPE [MsgType:_X, Tag:_285]|10=018|
8=FIX.4.2|9=100|35=X|49=TESTI|56=TESTA|34=14|52=20030204-09:25:43|268=1|279=1|280=0001|270=10|286=-1|10=107|
8=FIX.4.2|9=100|35=X|49=TESTI|56=TESTA|34=14|52=20030204-09:25:43|268=1|279=1|280=0001|270=10|286=3|10=107|
8=FIX.4.2|9=100|35=X|49=TESTI|56=TESTA|34=14|52=20030204-09:25:43|268=1|279=1|280=0001|270=10|286=A|10=107|
8=FIX.4.2|9=100|35=X|49=TESTI|56=TESTA|34=14|52=20030204-09:25:43|268=1|279=1|280=0001|270=10|286=b|10=107|
8=FIX.4.2|9=140|35=1|34=104|49=SNDR|56=TRGT|52=20090407-09:48:19.812|112= TEST #065 CHECK 4 REJECT MSGS with INVALID MESSAGE - INCORRECT DATA TYPE [MsgType:_X, Tag:_286]|10=018|
8=FIX.4.2|9=59|35=f|49=TESTI|56=TESTA|34=14|52=20030204-09:25:43|55=TESTB|291=0|10=170|
8=FIX.4.2|9=59|35=f|49=TESTI|56=TESTA|34=14|52=20030204-09:25:43|55=TESTB|291=-1|10=170|
8=FIX.4.2|9=59|35=f|49=TESTI|56=TESTA|34=14|52=20030204-09:25:43|55=TESTB|291=A|10=170|
8=FIX.4.2|9=59|35=f|49=TESTI|56=TESTA|34=14|52=20030204-09:25:43|55=TESTB|291=b|10=170|
8=FIX.4.2|9=140|35=1|34=104|49=SNDR|56=TRGT|52=20090407-09:48:19.812|112= TEST #066 CHECK 4 REJECT MSGS with INVALID MESSAGE - INCORRECT DATA TYPE [MsgType:_f, Tag:_291]|10=018|
8=FIX.4.2|9=59|35=f|49=TESTI|56=TESTA|34=14|52=20030204-09:25:43|55=TESTB|292=-1|10=170|
8=FIX.4.2|9=59|35=f|49=TESTI|56=TESTA|34=14|52=20030204-09:25:43|55=TESTB|292=0|10=170|
8=FIX.4.2|9=59|35=f|49=TESTI|56=TESTA|34=14|52=20030204-09:25:43|55=TESTB|292=F|10=170|
8=FIX.4.2|9=59|35=f|49=TESTI|56=TESTA|34=14|52=20030204-09:25:43|55=TESTB|292=a|10=170|
8=FIX.4.2|9=140|35=1|34=104|49=SNDR|56=TRGT|52=20090407-09:48:19.812|112= TEST #067 CHECK 4 REJECT MSGS with INVALID MESSAGE - INCORRECT DATA TYPE [MsgType:_f, Tag:_292]|10=018|
8=FIX.4.2|9=56|35=b|49=TESTI|56=TESTA|34=14|52=20030204-09:25:43|297=-1|10=137|
8=FIX.4.2|9=56|35=b|49=TESTI|56=TESTA|34=14|52=20030204-09:25:43|297=6|10=137|
8=FIX.4.2|9=56|35=b|49=TESTI|56=TESTA|34=14|52=20030204-09:25:43|297=A|10=137|
8=FIX.4.2|9=56|35=b|49=TESTI|56=TESTA|34=14|52=20030204-09:25:43|297=b|10=137|
8=FIX.4.2|9=140|35=1|34=104|49=SNDR|56=TRGT|52=20090407-09:48:19.812|112= TEST #068 CHECK 4 REJECT MSGS with INVALID MESSAGE - INCORRECT DATA TYPE [MsgType:_b, Tag:_297]|10=018|
8=FIX.4.2|9=90|35=Z|49=TESTI|56=TESTA|34=14|52=20030204-09:25:43|117=11223|298=0|295=2|55=TESTB|55=TESTC|10=185|
8=FIX.4.2|9=90|35=Z|49=TESTI|56=TESTA|34=14|52=20030204-09:25:43|117=11223|298=-1|295=2|55=TESTB|55=TESTC|10=185|
8=FIX.4.2|9=90|35=Z|49=TESTI|56=TESTA|34=14|52=20030204-09:25:43|117=11223|298=A|295=2|55=TESTB|55=TESTC|10=185|
8=FIX.4.2|9=90|35=Z|49=TESTI|56=TESTA|34=14|52=20030204-09:25:43|117=11223|298=b|295=2|55=TESTB|55=TESTC|10=185|
8=FIX.4.2|9=140|35=1|34=104|49=SNDR|56=TRGT|52=20090407-09:48:19.812|112= TEST #069 CHECK 4 REJECT MSGS with INVALID MESSAGE - INCORRECT DATA TYPE [MsgType:_Z, Tag:_298]|10=018|
