8=FIX.4.2|9=56|35=b|49=TESTI|56=TESTA|34=14|52=20030204-09:25:43|297=0|300=0|10=137|
8=FIX.4.2|9=56|35=b|49=TESTI|56=TESTA|34=14|52=20030204-09:25:43|297=0|300=-1|10=137|
8=FIX.4.2|9=56|35=b|49=TESTI|56=TESTA|34=14|52=20030204-09:25:43|297=0|300=A|10=137|
8=FIX.4.2|9=56|35=b|49=TESTI|56=TESTA|34=14|52=20030204-09:25:43|297=0|300=b|10=137|
8=FIX.4.2|9=140|35=1|34=104|49=SNDR|56=TRGT|52=20090407-09:48:19.812|112= TEST #070 CHECK 4 REJECT MSGS with INVALID MESSAGE - INCORRECT DATA TYPE [MsgType:_b, Tag:_300]|10=018|
8=FIX.4.2|9=84|35=S|49=TESTI|56=TESTA|34=14|52=20030204-09:25:43|117=11223|301=-1|55=TESTB|133=15.3|10=005|
8=FIX.4.2|9=84|35=S|49=TESTI|56=TESTA|34=14|52=20030204-09:25:43|117=11223|301=3|55=TESTB|133=15.3|10=005|
8=FIX.4.2|9=84|35=S|49=TESTI|56=TESTA|34=14|52=20030204-09:25:43|117=11223|301=A|55=TESTB|133=15.3|10=005|
8=FIX.4.2|9=84|35=S|49=TESTI|56=TESTA|34=14|52=20030204-09:25:43|117=11223|301=b|55=TESTB|133=15.3|10=005|
8=FIX.4.2|9=140|35=1|34=104|49=SNDR|56=TRGT|52=20090407-09:48:19.812|112= TEST #071 CHECK 4 REJECT MSGS with INVALID MESSAGE - INCORRECT DATA TYPE [MsgType:_S, Tag:_301]|10=018|
8=FIX.4.2|9=85|35=R|49=TESTI|56=TESTA|34=8|52=20030204-09:25:21|131=1272727|146=1|55=TESTB|303=0|10=215|
8=FIX.4.2|9=85|35=R|49=TESTI|56=TESTA|34=8|52=20030204-09:25:21|131=1272727|146=1|55=TESTB|303=-1|10=215|
8=FIX.4.2|9=85|35=R|49=TESTI|56=TESTA|34=8|52=20030204-09:25:21|131=1272727|146=1|55=TESTB|303=A|10=215|
8=FIX.4.2|9=85|35=R|49=TESTI|56=TESTA|34=8|52=20030204-09:25:21|131=1272727|146=1|55=TESTB|303=b|10=215|
8=FIX.4.2|9=140|35=1|34=104|49=SNDR|56=TRGT|52=20090407-09:48:19.812|112= TEST #072 CHECK 4 REJECT MSGS with INVALID MESSAGE - INCORRECT DATA TYPE [MsgType:_R, Tag:_303]|10=018|
8=FIX.4.2|9=244|35=i|49=TESTI|56=TESTA|34=4|52=20030204-08:56:41|117=1116226|296=1|302=0001|311=TESTA|305=-1|304=5|295=1|299=11|55=TESTB|132=11|10=035|
8=FIX.4.2|9=244|35=i|49=TESTI|56=TESTA|34=4|52=20030204-08:56:41|117=1116226|296=1|302=0001|311=TESTA|305=0|304=5|295=1|299=11|55=TESTB|132=11|10=035|
8=FIX.4.2|9=244|35=i|49=TESTI|56=TESTA|34=4|52=20030204-08:56:41|117=1116226|296=1|302=0001|311=TESTA|305=10|304=5|295=1|299=11|55=TESTB|132=11|10=035|
8=FIX.4.2|9=244|35=i|49=TESTI|56=TESTA|34=4|52=20030204-08:56:41|117=1116226|296=1|302=0001|311=TESTA|305=A|304=5|295=1|299=11|55=TESTB|132=11|10=035|
8=FIX.4.2|9=140|35=1|34=104|49=SNDR|56=TRGT|52=20090407-09:48:19.812|112= TEST #073 CHECK 4 REJECT MSGS with INVALID MESSAGE - INCORRECT DATA TYPE [MsgType:_i, Tag:_305]|10=018|
8=FIX.4.2|9=258|35=i|49=TESTI|56=TESTA|34=1|52=20030204-08:56:41|117=1116226|296=2|302=0001|311=TESTA|310=Fut|304=5|295=2|299=11|55=TESTB|132=11|299=12|55=TESTC|133=12|302=0002|311=TESTB|310=CS|304=5|295=3|299=21|55=TESTD|132=13|299=22|55=TESTE|133=14|299=23|55=TESTF|133=15|10=002|
8=FIX.4.2|9=258|35=i|49=TESTI|56=TESTA|34=1|52=20030204-08:56:41|117=1116226|296=2|302=0001|311=TESTA|310=tD|304=5|295=2|299=11|55=TESTB|132=11|299=12|55=TESTC|133=12|302=0002|311=TESTB|310=CS|304=5|295=3|299=21|55=TESTD|132=13|299=22|55=TESTE|133=14|299=23|55=TESTF|133=15|10=002|
8=FIX.4.2|9=258|35=i|49=TESTI|56=TESTA|34=1|52=20030204-08:56:41|117=1116226|296=2|302=0001|311=TESTA|310=-1|304=5|295=2|299=11|55=TESTB|132=11|299=12|55=TESTC|133=12|302=0002|311=TESTB|310=CS|304=5|295=3|299=21|55=TESTD|132=13|299=22|55=TESTE|133=14|299=23|55=TESTF|133=15|10=002|
8=FIX.4.2|9=258|35=i|49=TESTI|56=TESTA|34=1|52=20030204-08:56:41|117=1116226|296=2|302=0001|311=TESTA|310=0|304=5|295=2|299=11|55=TESTB|132=11|299=12|55=TESTC|133=12|302=0002|311=TESTB|310=CS|304=5|295=3|299=21|55=TESTD|132=13|299=22|55=TESTE|133=14|299=23|55=TESTF|133=15|10=002|
8=FIX.4.2|9=140|35=1|34=104|49=SNDR|56=TRGT|52=20090407-09:48:19.812|112= TEST #074 CHECK 4 REJECT MSGS with INVALID MESSAGE - INCORRECT DATA TYPE [MsgType:_i, Tag:_310]|10=018|
8=FIX.4.2|9=65|35=c|49=TESTI|56=TESTA|34=14|52=20030204-09:25:43|320=0001|321=-1|10=018|
8=FIX.4.2|9=65|35=c|49=TESTI|56=TESTA|34=14|52=20030204-09:25:43|320=0001|321=4|10=018|
8=FIX.4.2|9=65|35=c|49=TESTI|56=TESTA|34=14|52=20030204-09:25:43|320=0001|321=A|10=018|
8=FIX.4.2|9=65|35=c|49=TESTI|56=TESTA|34=14|52=20030204-09:25:43|320=0001|321=b|10=018|
8=FIX.4.2|9=140|35=1|34=104|49=SNDR|56=TRGT|52=20090407-09:48:19.812|112= TEST #075 CHECK 4 REJECT MSGS with INVALID MESSAGE - INCORRECT DATA TYPE [MsgType:_c, Tag:_321]|10=018|
8=FIX.4.2|9=74|35=d|49=TESTI|56=TESTA|34=14|52=20030204-09:25:43|320=0001|322=0001|323=0|393=0|10=178|
8=FIX.4.2|9=74|35=d|49=TESTI|56=TESTA|34=14|52=20030204-09:25:43|320=0001|322=0001|323=-1|393=0|10=178|
8=FIX.4.2|9=74|35=d|49=TESTI|56=TESTA|34=14|52=20030204-09:25:43|320=0001|322=0001|323=A|393=0|10=178|
8=FIX.4.2|9=74|35=d|49=TESTI|56=TESTA|34=14|52=20030204-09:25:43|320=0001|322=0001|323=b|393=0|10=178|
8=FIX.4.2|9=140|35=1|34=104|49=SNDR|56=TRGT|52=20090407-09:48:19.812|112= TEST #076 CHECK 4 REJECT MSGS with INVALID MESSAGE - INCORRECT DATA TYPE [MsgType:_d, Tag:_232]|10=018|
8=FIX.4.2|9=75|35=h|49=TESTI|56=TESTA|34=12|52=20030204-08:49:42|336=PRE-OPEN|325=y|340=2|10=209|
8=FIX.4.2|9=75|35=h|49=TESTI|56=TESTA|34=12|52=20030204-08:49:42|336=PRE-OPEN|325=n|340=2|10=209|
8=FIX.4.2|9=75|35=h|49=TESTI|56=TESTA|34=12|52=20030204-08:49:42|336=PRE-OPEN|325=0|340=2|10=209|
8=FIX.4.2|9=75|35=h|49=TESTI|56=TESTA|34=12|52=20030204-08:49:42|336=PRE-OPEN|325=-1|340=2|10=209|
8=FIX.4.2|9=140|35=1|34=104|49=SNDR|56=TRGT|52=20090407-09:48:19.812|112= TEST #077 CHECK 4 REJECT MSGS with INVALID MESSAGE - INCORRECT DATA TYPE [MsgType:_h, Tag:_325]|10=018|
8=FIX.4.2|9=59|35=f|49=TESTI|56=TESTA|34=14|52=20030204-09:25:43|55=TESTB|326=0|10=170|
8=FIX.4.2|9=59|35=f|49=TESTI|56=TESTA|34=14|52=20030204-09:25:43|55=TESTB|326=-1|10=170|
8=FIX.4.2|9=59|35=f|49=TESTI|56=TESTA|34=14|52=20030204-09:25:43|55=TESTB|326=A|10=170|
8=FIX.4.2|9=59|35=f|49=TESTI|56=TESTA|34=14|52=20030204-09:25:43|55=TESTB|326=b|10=170|
8=FIX.4.2|9=140|35=1|34=104|49=SNDR|56=TRGT|52=20090407-09:48:19.812|112= TEST #078 CHECK 4 REJECT MSGS with INVALID MESSAGE - INCORRECT DATA TYPE [MsgType:_f, Tag:_326]|10=018|
8=FIX.4.2|9=59|35=f|49=TESTI|56=TESTA|34=14|52=20030204-09:25:43|55=TESTB|327=i|10=170|
8=FIX.4.2|9=59|35=f|49=TESTI|56=TESTA|34=14|52=20030204-09:25:43|55=TESTB|327=m|10=170|
8=FIX.4.2|9=59|35=f|49=TESTI|56=TESTA|34=14|52=20030204-09:25:43|55=TESTB|327=0|10=170|
8=FIX.4.2|9=59|35=f|49=TESTI|56=TESTA|34=14|52=20030204-09:25:43|55=TESTB|327=-1|10=170|
8=FIX.4.2|9=140|35=1|34=104|49=SNDR|56=TRGT|52=20090407-09:48:19.812|112= TEST #079 CHECK 4 REJECT MSGS with INVALID MESSAGE - INCORRECT DATA TYPE [MsgType:_f, Tag:_327]|10=018|
8=FIX.4.2|9=59|35=f|49=TESTI|56=TESTA|34=14|52=20030204-09:25:43|55=TESTB|328=y|10=170|
8=FIX.4.2|9=59|35=f|49=TESTI|56=TESTA|34=14|52=20030204-09:25:43|55=TESTB|328=n|10=170|
8=FIX.4.2|9=59|35=f|49=TESTI|56=TESTA|34=14|52=20030204-09:25:43|55=TESTB|328=0|10=170|
8=FIX.4.2|9=59|35=f|49=TESTI|56=TESTA|34=14|52=20030204-09:25:43|55=TESTB|328=-1|10=170|
8=FIX.4.2|9=140|35=1|34=104|49=SNDR|56=TRGT|52=20090407-09:48:19.812|112= TEST #080 CHECK 4 REJECT MSGS with INVALID MESSAGE - INCORRECT DATA TYPE [MsgType:_f, Tag:_328]|10=018|
8=FIX.4.2|9=59|35=f|49=TESTI|56=TESTA|34=14|52=20030204-09:25:43|55=TESTB|329=y|10=170|
8=FIX.4.2|9=59|35=f|49=TESTI|56=TESTA|34=14|52=20030204-09:25:43|55=TESTB|329=n|10=170|
8=FIX.4.2|9=59|35=f|49=TESTI|56=TESTA|34=14|52=20030204-09:25:43|55=TESTB|329=0|10=170|
8=FIX.4.2|9=59|35=f|49=TESTI|56=TESTA|34=14|52=20030204-09:25:43|55=TESTB|329=-1|10=170|
8=FIX.4.2|9=140|35=1|34=104|49=SNDR|56=TRGT|52=20090407-09:48:19.812|112= TEST #081 CHECK 4 REJECT MSGS with INVALID MESSAGE - INCORRECT DATA TYPE [MsgType:_f, Tag:_329]|10=018|
8=FIX.4.2|9=59|35=f|49=TESTI|56=TESTA|34=14|52=20030204-09:25:43|55=TESTB|334=0|10=170|
8=FIX.4.2|9=59|35=f|49=TESTI|56=TESTA|34=14|52=20030204-09:25:43|55=TESTB|334=-1|10=170|
8=FIX.4.2|9=59|35=f|49=TESTI|56=TESTA|34=14|52=20030204-09:25:43|55=TESTB|334=A|10=170|
8=FIX.4.2|9=59|35=f|49=TESTI|56=TESTA|34=14|52=20030204-09:25:43|55=TESTB|334=b|10=170|
8=FIX.4.2|9=140|35=1|34=104|49=SNDR|56=TRGT|52=20090407-09:48:19.812|112= TEST #082 CHECK 4 REJECT MSGS with INVALID MESSAGE - INCORRECT DATA TYPE [MsgType:_f, Tag:_334]|10=018|
8=FIX.4.2|9=65|35=g|49=TESTI|56=TESTA|34=14|52=20030204-09:25:43|335=0001|338=0|263=0|10=033|
8=FIX.4.2|9=65|35=g|49=TESTI|56=TESTA|34=14|52=20030204-09:25:43|335=0001|338=-1|263=0|10=033|
8=FIX.4.2|9=65|35=g|49=TESTI|56=TESTA|34=14|52=20030204-09:25:43|335=0001|338=A|263=0|10=033|
8=FIX.4.2|9=65|35=g|49=TESTI|56=TESTA|34=14|52=20030204-09:25:43|335=0001|338=b|263=0|10=033|
8=FIX.4.2|9=140|35=1|34=104|49=SNDR|56=TRGT|52=20090407-09:48:19.812|112= TEST #083 CHECK 4 REJECT MSGS with INVALID MESSAGE - INCORRECT DATA TYPE [MsgType:_g, Tag:_338]|10=018|
8=FIX.4.2|9=65|35=g|49=TESTI|56=TESTA|34=14|52=20030204-09:25:43|335=0001|339=0|263=0|10=033|
8=FIX.4.2|9=65|35=g|49=TESTI|56=TESTA|34=14|52=20030204-09:25:43|335=0001|339=-1|263=0|10=033|
8=FIX.4.2|9=65|35=g|49=TESTI|56=TESTA|34=14|52=20030204-09:25:43|335=0001|339=A|263=0|10=033|
8=FIX.4.2|9=65|35=g|49=TESTI|56=TESTA|34=14|52=20030204-09:25:43|335=0001|339=b|263=0|10=033|
8=FIX.4.2|9=140|35=1|34=104|49=SNDR|56=TRGT|52=20090407-09:48:19.812|112= TEST #084 CHECK 4 REJECT MSGS with INVALID MESSAGE - INCORRECT DATA TYPE [MsgType:_g, Tag:_339]|10=018|
8=FIX.4.2|9=75|35=h|49=TESTI|56=TESTA|34=12|52=20030204-08:49:42|336=PRE-OPEN|340=-1|10=209|
8=FIX.4.2|9=75|35=h|49=TESTI|56=TESTA|34=12|52=20030204-08:49:42|336=PRE-OPEN|340=0|10=209|
8=FIX.4.2|9=75|35=h|49=TESTI|56=TESTA|34=12|52=20030204-08:49:42|336=PRE-OPEN|340=A|10=209|
8=FIX.4.2|9=75|35=h|49=TESTI|56=TESTA|34=12|52=20030204-08:49:42|336=PRE-OPEN|340=b|10=209|
8=FIX.4.2|9=140|35=1|34=104|49=SNDR|56=TRGT|52=20090407-09:48:19.812|112= TEST #085 CHECK 4 REJECT MSGS with INVALID MESSAGE - INCORRECT DATA TYPE [MsgType:_h, Tag:_340]|10=018|
8=FIX.4.2|9=56|35=b|49=TESTI|56=TESTA|34=14|52=20030204-09:25:43|297=0|296=1|302=000302|311=000311|295=1|299=000299|368=-1|10=137|
8=FIX.4.2|9=56|35=b|49=TESTI|56=TESTA|34=14|52=20030204-09:25:43|297=0|296=1|302=000302|311=000311|295=1|299=000299|368=0|10=137|
8=FIX.4.2|9=56|35=b|49=TESTI|56=TESTA|34=14|52=20030204-09:25:43|297=0|296=1|302=000302|311=000311|295=1|299=000299|368=A|10=137|
8=FIX.4.2|9=56|35=b|49=TESTI|56=TESTA|34=14|52=20030204-09:25:43|297=0|296=1|302=000302|311=000311|295=1|299=000299|368=b|10=137|
8=FIX.4.2|9=140|35=1|34=104|49=SNDR|56=TRGT|52=20090407-09:48:19.812|112= TEST #086 CHECK 4 REJECT MSGS with INVALID MESSAGE - INCORRECT DATA TYPE [MsgType:_b, Tag:_368]|10=018|
8=FIX.4.2|9=92|35=k|49=TESTI|56=TESTA|34=6|52=20030204-09:07:50|391=20012411|374=n|393=2|394=3|418=A|419=4|10=045|
8=FIX.4.2|9=92|35=k|49=TESTI|56=TESTA|34=6|52=20030204-09:07:50|391=20012411|374=c|393=2|394=3|418=A|419=4|10=045|
8=FIX.4.2|9=92|35=k|49=TESTI|56=TESTA|34=6|52=20030204-09:07:50|391=20012411|374=0|393=2|394=3|418=A|419=4|10=045|
8=FIX.4.2|9=92|35=k|49=TESTI|56=TESTA|34=6|52=20030204-09:07:50|391=20012411|374=-1|393=2|394=3|418=A|419=4|10=045|
8=FIX.4.2|9=140|35=1|34=104|49=SNDR|56=TRGT|52=20090407-09:48:19.812|112= TEST #087 CHECK 4 REJECT MSGS with INVALID MESSAGE - INCORRECT DATA TYPE [MsgType:_k, Tag:_374]|10=018|
8=FIX.4.2|9=149|35=E|49=TESTI|56=TESTA|34=3|52=20030204-08:18:22|66=20012411|394=3|68=1|73=1|11=1131|67=1|55=TESTB3|54=3|38=3000|377=y|10=031|
8=FIX.4.2|9=149|35=E|49=TESTI|56=TESTA|34=3|52=20030204-08:18:22|66=20012411|394=3|68=1|73=1|11=1131|67=1|55=TESTB3|54=3|38=3000|377=n|10=031|
8=FIX.4.2|9=149|35=E|49=TESTI|56=TESTA|34=3|52=20030204-08:18:22|66=20012411|394=3|68=1|73=1|11=1131|67=1|55=TESTB3|54=3|38=3000|377=0|10=031|
8=FIX.4.2|9=149|35=E|49=TESTI|56=TESTA|34=3|52=20030204-08:18:22|66=20012411|394=3|68=1|73=1|11=1131|67=1|55=TESTB3|54=3|38=3000|377=-1|10=031|
8=FIX.4.2|9=140|35=1|34=104|49=SNDR|56=TRGT|52=20090407-09:48:19.812|112= TEST #088 CHECK 4 REJECT MSGS with INVALID MESSAGE - INCORRECT DATA TYPE [MsgType:_E, Tag:_377]|10=018|
8=FIX.4.2|9=125|35=8|49=TESTI|56=TESTA|34=114|52=20030203-16:09:30|37=11111111|17=12|20=3|39=0|378=-1|150=0|55=TESTB|54=1|38=1000|151=1000|14=0|6=0|10=011|
8=FIX.4.2|9=125|35=8|49=TESTI|56=TESTA|34=114|52=20030203-16:09:30|37=11111111|17=12|20=3|39=0|378=6|150=0|55=TESTB|54=1|38=1000|151=1000|14=0|6=0|10=011|
8=FIX.4.2|9=125|35=8|49=TESTI|56=TESTA|34=114|52=20030203-16:09:30|37=11111111|17=12|20=3|39=0|378=A|150=0|55=TESTB|54=1|38=1000|151=1000|14=0|6=0|10=011|
8=FIX.4.2|9=125|35=8|49=TESTI|56=TESTA|34=114|52=20030203-16:09:30|37=11111111|17=12|20=3|39=0|378=b|150=0|55=TESTB|54=1|38=1000|151=1000|14=0|6=0|10=011|
8=FIX.4.2|9=140|35=1|34=104|49=SNDR|56=TRGT|52=20090407-09:48:19.812|112= TEST #089 CHECK 4 REJECT MSGS with INVALID MESSAGE - INCORRECT DATA TYPE [MsgType:_8, Tag:_378]|10=018|
8=FIX.4.2|9=61|35=j|49=TESTI|56=TESTA|34=4|52=20030204-08:56:41|372=9|380=-1|10=105|
8=FIX.4.2|9=61|35=j|49=TESTI|56=TESTA|34=4|52=20030204-08:56:41|372=9|380=6|10=105|
8=FIX.4.2|9=61|35=j|49=TESTI|56=TESTA|34=4|52=20030204-08:56:41|372=9|380=A|10=105|
8=FIX.4.2|9=61|35=j|49=TESTI|56=TESTA|34=4|52=20030204-08:56:41|372=9|380=b|10=105|
8=FIX.4.2|9=140|35=1|34=104|49=SNDR|56=TRGT|52=20090407-09:48:19.812|112= TEST #090 CHECK 4 REJECT MSGS with INVALID MESSAGE - INCORRECT DATA TYPE [MsgType:_j, Tag:_380]|10=018|
8=FIX.4.2|9=128|35=D|49=TESTI|56=TESTA|34=4|52=20030204-08:46:14|11=90001008|21=2|55=TESTB|54=1|60=20060217-10:00:00|38=4000|40=1|388=-1|10=071|
8=FIX.4.2|9=128|35=D|49=TESTI|56=TESTA|34=4|52=20030204-08:46:14|11=90001008|21=2|55=TESTB|54=1|60=20060217-10:00:00|38=4000|40=1|388=6|10=071|
8=FIX.4.2|9=128|35=D|49=TESTI|56=TESTA|34=4|52=20030204-08:46:14|11=90001008|21=2|55=TESTB|54=1|60=20060217-10:00:00|38=4000|40=1|388=A|10=071|
8=FIX.4.2|9=128|35=D|49=TESTI|56=TESTA|34=4|52=20030204-08:46:14|11=90001008|21=2|55=TESTB|54=1|60=20060217-10:00:00|38=4000|40=1|388=b|10=071|
8=FIX.4.2|9=140|35=1|34=104|49=SNDR|56=TRGT|52=20090407-09:48:19.812|112= TEST #091 CHECK 4 REJECT MSGS with INVALID MESSAGE - INCORRECT DATA TYPE [MsgType:_D, Tag:_388]|10=018|
8=FIX.4.2|9=92|35=k|49=TESTI|56=TESTA|34=1|52=20030204-09:07:50|391=20012411|374=N|393=2|394=0|418=A|419=4|10=038|
8=FIX.4.2|9=92|35=k|49=TESTI|56=TESTA|34=1|52=20030204-09:07:50|391=20012411|374=N|393=2|394=-1|418=A|419=4|10=038|
8=FIX.4.2|9=92|35=k|49=TESTI|56=TESTA|34=1|52=20030204-09:07:50|391=20012411|374=N|393=2|394=A|418=A|419=4|10=038|
8=FIX.4.2|9=92|35=k|49=TESTI|56=TESTA|34=1|52=20030204-09:07:50|391=20012411|374=N|393=2|394=b|418=A|419=4|10=038|
8=FIX.4.2|9=140|35=1|34=104|49=SNDR|56=TRGT|52=20090407-09:48:19.812|112= TEST #092 CHECK 4 REJECT MSGS with INVALID MESSAGE - INCORRECT DATA TYPE [MsgType:_k, Tag:_394]|10=018|
8=FIX.4.2|9=92|35=k|49=TESTI|56=TESTA|34=6|52=20030204-09:07:50|391=20012411|374=N|393=2|394=3|398=1|399=0|418=A|419=4|10=045|
8=FIX.4.2|9=92|35=k|49=TESTI|56=TESTA|34=6|52=20030204-09:07:50|391=20012411|374=N|393=2|394=3|398=1|399=-1|418=A|419=4|10=045|
8=FIX.4.2|9=92|35=k|49=TESTI|56=TESTA|34=6|52=20030204-09:07:50|391=20012411|374=N|393=2|394=3|398=1|399=A|418=A|419=4|10=045|
8=FIX.4.2|9=92|35=k|49=TESTI|56=TESTA|34=6|52=20030204-09:07:50|391=20012411|374=N|393=2|394=3|398=1|399=b|418=A|419=4|10=045|
8=FIX.4.2|9=140|35=1|34=104|49=SNDR|56=TRGT|52=20090407-09:48:19.812|112= TEST #093 CHECK 4 REJECT MSGS with INVALID MESSAGE - INCORRECT DATA TYPE [MsgType:_k, Tag:_399]|10=018|
