<?xml version="1.0" encoding="UTF-8"?>

<!DOCTYPE cases SYSTEM "../../../cases.dtd" [
        <!ENTITY % content SYSTEM "../../../Engine/Entities/definitions.inc">
        %content; ]>

<cases>
    <case name="ResendRequest after failed Logon" updater="SmartLazyUpdater">
        &CLEAN_LOGS;
        &ENGINE_UP;
        <transport className="AcceptorSocketTransport" port="&PORT;">
            &SESSION_UP;
            <!-- Hadnshake: Exchange with logons -->
            &RECEIVE_LOGON;
            <!-- logon with 34=2 -->
            <send>8=FIX.4.2#9=0#35=A#49=&ME;#56=&YOU;#34=2#52=00000000-00:00:00#98=0#108=5#10=000#</send>
            <expect>8=FIX\.4\.2#9=\d*#35=2#34=\d*#49=&YOU;#56=&ME;#52=&DATETIMEMS;#7=1#16=0#10=\d{3}#</expect>

            <!-- send orders -->
            <send>8=FIX.4.2#9=191#35=D#49=&ME;#56=&YOU;#34=1#50=1#52=00000000-00:00:00#43=Y#122=00000000-00:00:00#11=cboeopt-06#1=TEST01#21=1#100=W#55=MSFT#54=1#60=20100528-13:02:21#38=100#40=2#44=10#204=0#5049=ASH#5056=EHUB#5050=20100528-13:09:41.058#10=224#</send>
            <send>8=FIX.4.2#9=191#35=D#49=&ME;#56=&YOU;#34=2#50=1#52=00000000-00:00:00#43=Y#122=00000000-00:00:00#11=cboeopt-06#1=TEST01#21=1#100=W#55=MSFT#54=1#60=20100528-13:02:21#38=100#40=2#44=10#204=0#5049=ASH#5056=EHUB#5050=20100528-13:09:41.058#10=224#</send>
            <send>8=FIX.4.2#9=191#35=D#49=&ME;#56=&YOU;#34=3#50=1#52=00000000-00:00:00#43=Y#122=00000000-00:00:00#11=cboeopt-06#1=TEST01#21=1#100=W#55=MSFT#54=1#60=20100528-13:02:21#38=100#40=2#44=10#204=0#5049=ASH#5056=EHUB#5050=20100528-13:09:41.058#10=224#</send>

            <send>8=FIX.4.2#9=191#35=4#49=&ME;#56=&YOU;#34=4#52=00000000-00:00:00#43=Y#122=00000000-00:00:00#123=Y#36=6#10=224#</send>

            <!-- logout -->
            <send>8=FIX.4.2#9=136#35=5#34=6#49=&ME;#56=&YOU;#52=00000000-00:00:00#10=213#</send>
            <expect>8=FIX\.4\.2#9=\d*#35=5#34=\d*#49=&YOU;#56=&ME;#52=&DATETIMEMS;#10=\d{3}#</expect>
            &SESSION_DOWN;
        </transport>
        &ENGINE_DOWN;
    </case>
</cases>
