<?xml version="1.0" encoding="UTF-8"?>
<!DOCTYPE cases SYSTEM "misc/cases.dtd" [
        <!ENTITY % content SYSTEM "misc/entity/definitions.inc">
        %content; ]>
<cases>


    <!-- SellSide logon: SeqNumber too high  on login (Resend request scenario) -->


    <case name="Logon: MsgSeqNum too high (Resend request scenario)">

        &CLEAN_LOGS;
        &ENGINE_UP;
        <transport className="InitiatorSocketTransport" host="localhost" port="&ENGINE_PORT;">
            <send>8=FIX.4.2#9=57#35=A#49=123#56=B2B#34=3#52=20031027-14:29:11#98=0#108=5#10=126#</send>
            <expect>8=FIX\.4\.2#9=\d*#35=A#49=B2B#56=123#34=1#52=\d{8}-\d{2}:\d{2}:\d{2}\.\d{3}#98=0#108=5#10=\d{3}#
            </expect>

            <expect>8=FIX\.4\.2#9=\d*#35=2#49=B2B#56=123#34=2#52=\d{8}-\d{2}:\d{2}:\d{2}\.\d{3}#7=1#16=[20]#10=\d{3}#
            </expect>

            <send>8=FIX.4.2#9=57#35=4#49=123#56=B2B#34=4#52=20031027-14:29:11#123=N#36=5#10=126#</send>


            <send>8=FIX.4.2#9=57#35=1#49=123#56=B2B#34=5#52=20031027-14:29:11#112=test01#10=126#</send>
            <expect>8=FIX\.4\.2#9=\d*#35=0#49=B2B#56=123#34=3#112=test01#52=\d{8}-\d{2}:\d{2}:\d{2}\.\d{3}#10=\d{3}#
            </expect>

            <send>8=FIX.4.2#9=136#35=5#49=123#56=B2B#34=6#52=50031027-14:29:11#10=213#</send>
            <expect>8=FIX\.4\.2#9=\d*#35=5#49=B2B#56=123#34=4#52=\d{8}-\d{2}:\d{2}:\d{2}\.\d{3}#10=\d{3}#</expect>


        </transport>
        &ENGINE_DOWN;
    </case>
</cases>