<?xml version="1.0" encoding="UTF-8"?>
<!DOCTYPE cases SYSTEM "misc/cases.dtd" [
        <!ENTITY % content SYSTEM "misc/entity/definitions.inc">
        %content; ]>
<cases>
    <case name="resetFlag.def">
        &CLEAN_LOGS;
        &ENGINE_UP;

        <transport className="InitiatorSocketTransport" host="localhost" port="3000">

            <send>8=FIX.4.3#9=123#35=A#34=1#49=TW#52=20031027-14:29:11#56=ISLD#98=0#108=1#141=Y#10=000#</send>
            <expect>
                8=FIX\.4\.3#9=\d{1,3}#35=A#34=1#49=ISLD#52=\d{8}-\d{2}:\d{2}:\d{2}(\.\d{3})?#141=Y#56=TW#98=0#108=1#10=\d{3}#
            </expect>

            <expect>8=FIX\.4\.3#9=\d{1,3}#35=0#34=2#49=ISLD#52=\d{8}-\d{2}:\d{2}:\d{2}(\.\d{3})?#56=TW#10=\d{3}#
            </expect>
            <send>8=FIX.4.3#9=123#35=0#34=2#49=TW#52=20031027-14:29:11#56=ISLD#10=000#</send>
            <expect>8=FIX\.4\.3#9=\d{1,3}#35=0#34=3#49=ISLD#52=\d{8}-\d{2}:\d{2}:\d{2}(\.\d{3})?#56=TW#10=\d{3}#
            </expect>
            <send>8=FIX.4.3#9=123#35=0#34=3#49=TW#52=20031027-14:29:11#56=ISLD#10=000#</send>


            <send>8=FIX.4.3#9=123#35=5#34=4#49=TW#52=20031027-14:29:11#56=ISLD#10=000#</send>
            <expect>8=FIX\.4\.3#9=\d{1,3}#35=5#34=4#49=ISLD#52=\d{8}-\d{2}:\d{2}:\d{2}(\.\d{3})?#56=TW#10=\d{3}#
            </expect>
        </transport>
        &ENGINE_DOWN;
    </case>


    <case name="resetFlag1.def">
        &CLEAN_LOGS;
        &ENGINE_UP;

        <transport className="InitiatorSocketTransport" host="localhost" port="3000">

            <send>8=FIX.4.3#9=123#35=A#34=1#49=TW#52=20031027-14:29:11#56=ISLD#98=0#108=1#141=Y#10=000#</send>
            <expect>
                8=FIX\.4\.3#9=\d{1,3}#35=A#34=1#49=ISLD#52=\d{8}-\d{2}:\d{2}:\d{2}(\.\d{3})?#141=Y#56=TW#98=0#108=1#10=\d{3}#
            </expect>

            <expect>8=FIX\.4\.3#9=\d{1,3}#35=0#34=2#49=ISLD#52=\d{8}-\d{2}:\d{2}:\d{2}(\.\d{3})?#56=TW#10=\d{3}#
            </expect>
            <send>8=FIX.4.3#9=123#35=0#34=2#49=TW#52=20031027-14:29:11#56=ISLD#10=000#</send>


            <send>8=FIX.4.3#9=123#35=A#34=1#49=TW#52=20031027-14:29:11#56=ISLD#98=0#108=1#141=Y#10=000#</send>
            <expect>
                8=FIX\.4\.3#9=\d{1,3}#35=A#34=1#49=ISLD#52=\d{8}-\d{2}:\d{2}:\d{2}(\.\d{3})?#141=Y#56=TW#98=0#108=1#10=\d{3}#
            </expect>


            <expect>8=FIX\.4\.3#9=\d{1,3}#35=0#34=2#49=ISLD#52=\d{8}-\d{2}:\d{2}:\d{2}(\.\d{3})?#56=TW#10=\d{3}#
            </expect>
            <send>8=FIX.4.3#9=123#35=0#34=2#49=TW#52=20031027-14:29:11#56=ISLD#10=000#</send>


            <expect>8=FIX\.4\.3#9=\d{1,3}#35=0#34=3#49=ISLD#52=\d{8}-\d{2}:\d{2}:\d{2}(\.\d{3})?#56=TW#10=\d{3}#
            </expect>
            <send>8=FIX.4.3#9=123#35=0#34=3#49=TW#52=20031027-14:29:11#56=ISLD#10=000#</send>


            <send>8=FIX.4.3#9=123#35=5#34=4#49=TW#52=20031027-14:29:11#56=ISLD#10=000#</send>
            <expect>8=FIX\.4\.3#9=\d{1,3}#35=5#34=4#49=ISLD#52=\d{8}-\d{2}:\d{2}:\d{2}(\.\d{3})?#56=TW#10=\d{3}#
            </expect>
        </transport>
        &ENGINE_DOWN;
    </case>


    <case name="intraday sequence reset.def">
        &CLEAN_LOGS;
        &ENGINE_UP_WITH_APP;

        <transport className="InitiatorSocketTransport" host="localhost" port="3000">


            <send>8=FIX.4.4#9=123#35=A#34=1#49=SNDR#52=20031027-14:29:11#56=TRGT#98=0#108=1#141=Y#10=000#</send>
            <expect>
                8=FIX\.4\.4#9=\d{1,3}#35=A#34=1#49=TRGT#52=\d{8}-\d{2}:\d{2}:\d{2}(\.\d{3})?#141=Y#56=SNDR#98=0#108=1#10=\d{3}#
            </expect>
            <send>
                8=FIX.4.4#9=131#35=8#49=SNDR#56=TRGT#34=2#52=20030203-16:09:30#37=11111111#17=12#39=1#150=F#55=TESTB#54=1#38=1000#151=600#14=400#6=10#32=400#31=10#10=252#
            </send>
            <send>8=FIX.4.4#9=65#35=1#49=SNDR#56=TRGT#34=3#52=20081225-18:32:15#112=TestRequestID#10=116#</send>
            <expect>35=0</expect>
            <send>8=FIX.4.4#9=56#35=2#49=SNDR#56=TRGT#34=4#52=20081225-18:32:15#7=2#16=0#10=010#</send>
            <expect>35=4</expect>
            <send>8=FIX.4.4#9=65#35=A#49=SNDR#56=TRGT#34=1#52=20081225-18:32:15#98=0#108=30#141=Y#10=224#</send>
            <expect>35=A#34=1</expect>
            <send>
                8=FIX.4.4#9=131#35=8#49=SNDR#56=TRGT#34=2#52=20030203-16:09:30#37=11111111#17=12#39=1#150=F#55=TESTB#54=1#38=1000#151=600#14=400#6=10#32=400#31=10#10=252#
            </send>
            <send>8=FIX.4.4#9=65#35=1#49=SNDR#56=TRGT#34=3#52=20081225-18:32:15#112=TestRequestID#10=116#</send>
            <expect>35=0</expect>
            <send>8=FIX.4.4#9=56#35=2#49=SNDR#56=TRGT#34=4#52=20081225-18:32:15#7=2#16=0#10=010#</send>
            <expect>35=4</expect>
        </transport>
        &ENGINE_DOWN;
    </case>


    <!--<case name="resetFlag.def">-->
    <!--&CLEAN_LOGS;-->
    <!--&ENGINE_UP;-->

    <!--<transport className="InitiatorSocketTransport" host="localhost" port="3000">-->

    <!--<send>8=FIX.4.3#9=123#35=A#34=1#49=TW#52=20031027-14:29:11#56=ISLD#98=0#108=10#141=Y#10=000#</send>-->
    <!--<expect>8=FIX\.4\.3#9=\d{1,3}#35=A#34=1#49=ISLD#52=\d{8}-\d{2}:\d{2}:\d{2}(\.\d{3})?#141=Y#56=TW#98=0#108=10#10=\d{3}#</expect>-->


    <!--<send>8=FIX.4.3#9=123#35=0#34=2#49=TW#52=20031027-14:29:11#56=ISLD#10=000#</send>-->
    <!--<expect>8=FIX\.4\.3#9=\d{1,3}#35=0#34=2#49=ISLD#52=\d{8}-\d{2}:\d{2}:\d{2}(\.\d{3})?#56=TW#10=\d{3}#</expect>-->
    <!--<expect>35=1</expect>-->
    <!--<expect>35=0</expect>-->
    <!--<expect>8=FIX\.4\.3#9=\d{1,3}#35=5#34=5#49=ISLD#52=\d{8}-\d{2}:\d{2}:\d{2}(\.\d{3})?#56=TW#10=\d{3}#</expect>-->
    <!--<send>8=FIX.4.3#9=123#35=5#34=4#49=TW#52=20031027-14:29:11#56=ISLD#10=000#</send>-->
    <!--</transport>-->
    <!--&ENGINE_DOWN;-->
    <!--</case>-->


    <!--<case name="possDup.def">-->
    <!--&CLEAN_LOGS;-->
    <!--&ENGINE_UP_WITH_APP;-->

    <!--<transport className="InitiatorSocketTransport" host="localhost" port="3000">-->

    <!--<send>8=FIX.4.4#9=65#35=A#49=SNDR#56=TRGT#34=1#52=20081225-18:32:15#98=0#108=30#141=Y#10=224#</send>-->
    <!--<expect>8=FIX\.4\.4#9=\d{1,3}#35=A#34=1#49=TRGT#52=\d{8}-\d{2}:\d{2}:\d{2}(\.\d{3})?#141=Y#56=SNDR#98=0#108=30#10=\d{3}#</expect>-->


    <!--<send>-->
    <!--8=FIX.4.4#9=136#35=8#49=SNDR#56=TRGT#34=2#52=20030203-16:09:30#43=Y#37=11111111#17=12#39=1#150=F#55=TESTB#54=1#38=1000#151=600#14=400#6=10#32=400#31=10#10=255#-->
    <!--</send>-->
    <!--<send>-->
    <!--8=FIX.4.4#9=131#35=8#49=SNDR#56=TRGT#34=3#52=20030203-16:09:30#37=11111111#17=12#39=1#150=F#55=TESTB#54=1#38=1000#151=600#14=400#6=10#32=400#31=10#10=253#-->
    <!--</send>-->
    <!--<expect>35=3</expect>-->
    <!--<expect>35=0</expect>-->
    <!--</transport>-->
    <!--&ENGINE_DOWN;-->
    <!--</case>-->


    <!--<case name="logon with seq number lower then expected init">-->
    <!--&CLEAN_LOGS;-->
    <!--&ENGINE_UP_WITH_APP;-->

    <!--<transport className="InitiatorSocketTransport" host="localhost" port="3000">-->

    <!--<send>8=FIX.4.4#9=65#35=A#49=SNDR#56=TRGT#34=1#52=20081225-18:32:15#98=0#108=30#141=Y#10=224#</send>-->
    <!--<expect>8=FIX\.4\.4#9=\d{1,3}#35=A#34=1#49=TRGT#52=\d{8}-\d{2}:\d{2}:\d{2}(\.\d{3})?#141=Y#56=SNDR#98=0#108=30#10=\d{3}#</expect>-->
    <!--<send>8=FIX.4.4#9=123#35=5#34=2#49=SNDR#52=20031027-14:29:11#56=TRGT#10=000#</send>-->
    <!--<expect>35=5</expect>-->
    <!--</transport>-->
    <!--&ENGINE_DOWN;-->
    <!--&ENGINE_UP_WITH_APP;-->
    <!--<transport className="InitiatorSocketTransport" host="localhost" port="3000">-->
    <!--<send>8=FIX.4.4#9=65#35=A#49=SNDR#56=TRGT#34=1#52=20081225-18:32:15#98=0#108=30#10=224#</send>-->
    <!--<send>8=FIX.4.4#9=65#35=2#49=SNDR#56=TRGT#34=2#52=20081225-18:32:15#7=1#16=0#10=224#</send>-->

    <!--<expect>35=5</expect>-->
    <!--<expect/>-->
    <!--</transport>-->
    <!--&ENGINE_DOWN;-->
    <!--</case>-->

    <!--<case name="logon with seq number lower then expected acceptor">-->
    <!--&CLEAN_LOGS;-->
    <!--&ENGINE_UP;-->
    <!--<transport className="AcceptorSocketTransport" port="&PORT;">-->
    <!--&SESSION_UP;-->
    <!--<expect>8=FIX\.4\.2#9=\d*#35=A#49=Engine#56=Tester#34=1#52=&DATETIMEWITHOUTMS;#98=0#108=5#10=\d{3}#-->
    <!--</expect>-->
    <!--<send>8=FIX.4.2#9=57#35=A#49=Tester#56=Engine#34=1#52=20031027-14:29:11#98=0#108=5#10=126#</send>-->
    <!--<send>8=FIX.4.2#9=136#35=5#49=Tester#56=Engine#34=2#52=20031027-14:29:11#10=213#</send>-->
    <!--<expect>8=FIX\.4\.2#9=\d*#35=5#49=Engine#56=Tester#34=2#52=&DATETIMEWITHOUTMS;#58=[\w\s\p{P}]*#10=\d{3}#</expect>-->
    <!--&SESSION_DOWN;-->
    <!--</transport>-->
    <!--<transport className="AcceptorSocketTransport" port="&PORT;">-->
    <!--&SESSION_UP;-->
    <!--<expect>8=FIX\.4\.2#9=\d*#35=A#49=Engine#56=Tester#34=3#52=&DATETIMEMS;#98=0#108=5#10=\d{3}#</expect>-->
    <!--<send>8=FIX.4.2#9=57#35=A#49=Tester#56=Engine#34=1#52=20031027-14:29:11#98=0#108=5#10=126#</send>-->
    <!--<send>8=FIX.4.2#9=65#35=2#49=Tester#56=Engine#34=2#52=20081225-18:32:15#7=1#16=0#10=224#</send>-->
    <!--<expect>35=5</expect>-->
    <!--<expect/>-->

    <!--</transport>-->
    <!--&ENGINE_DOWN;-->
    <!--</case>-->


    <case name="logon with reset but sequence number is not 1">
        &CLEAN_LOGS;
        &ENGINE_UP_WITH_APP;

        <transport className="InitiatorSocketTransport" host="localhost" port="3000">

            <send>8=FIX.4.4#9=65#35=A#49=SNDR#56=TRGT#34=3#52=20081225-18:32:15#98=0#108=30#141=Y#10=224#</send>
            <expect>35=5</expect>
            <expect/>
        </transport>
        &ENGINE_DOWN;
    </case>

    <case name="logon with seq number lower then expected initiator 2">
        &CLEAN_LOGS;
        &ENGINE_UP_WITH_APP;

        <transport className="InitiatorSocketTransport" host="localhost" port="3000">

            <send>8=FIX.4.4#9=65#35=A#49=SNDR#56=TRGT#34=1#52=20081225-18:32:15#98=0#108=30#141=Y#10=224#</send>
            <expect>
                8=FIX\.4\.4#9=\d{1,3}#35=A#34=1#49=TRGT#52=\d{8}-\d{2}:\d{2}:\d{2}(\.\d{3})?#141=Y#56=SNDR#98=0#108=30#10=\d{3}#
            </expect>

            <send>8=FIX.4.4#9=123#35=0#34=1#49=SNDR#52=20031027-14:29:11#56=TRGT#10=000#</send>
            <expect>35=5</expect>
            <send>8=FIX.4.4#9=65#35=2#49=SNDR#56=TRGT#34=2#52=20081225-18:32:15#7=1#16=0#10=224#</send>
            <expect/>
        </transport>
        &ENGINE_DOWN;
    </case>


    <!--<case name="@ message" updater="DefaultUpdater">-->
    <!--&CLEAN_LOGS;-->
    <!--&ENGINE_UP_WITH_APP;-->

    <!--<transport className="InitiatorSocketTransport" host="localhost" port="3000">-->


    <!--<send>11=ABC_21=1_55=MSFT_38=0.0_54=1_60=19700101-00:00:00_40=1_</send>-->
    <!--<send>8=FIX.4.4#9=123#35=A#34=1#49=SNDR#52=20031027-14:29:11#56=TRGT#98=0#108=1#141=Y#10=000#</send>-->
    <!--<expect>8=FIX\.4\.4#9=\d{1,3}#35=A#34=1#49=TRGT#52=\d{8}-\d{2}:\d{2}:\d{2}(\.\d{3})?#141=Y#56=SNDR#98=0#108=1#10=\d{3}#</expect>-->
    <!--</transport>-->
    <!--&ENGINE_DOWN;-->
    <!--</case>-->
</cases>
