8=FIX.4.1|9=351|35=6|49=C|56=C|115=C|128=C|90=1|91=D|34=1|50=C|142=C|57=C|143=C|116=C|144=C|129=C|145=C|43=Y|97=Y|52=20010101-01:01:01|122=20010101-01:01:01|23=C|28=N|26=C|55=C|65=C|48=C|22=1|167=BA|200=200101|205=10|201=0|202=0|206=L|207=AL|106=C|107=C|54=1|27=S|44=0|15=AFA|62=20010101-01:01:01|25=L|24=A|130=Y|199=1|104=A|58=C|60=20010101-01:01:01|149=C|93=1|89=D|10=193|