8=FIX.4.1|9=297|35=B|49=C|56=C|115=C|128=C|90=1|91=D|34=1|50=C|142=C|57=C|143=C|116=C|144=C|129=C|145=C|43=Y|97=Y|52=20010101-01:01:01|122=20010101-01:01:01|42=20010101-01:01:01|61=0|148=C|146=1|46=C|65=C|48=C|22=1|167=BA|200=200101|205=10|201=0|202=0|206=L|207=AL|106=C|107=C|33=1|58=C|149=C|95=1|96=D|93=1|89=D|10=135|