8=FIX.4.1|9=204|35=9|49=C|56=C|115=C|128=C|90=1|91=D|34=1|50=C|142=C|57=C|143=C|116=C|144=C|129=C|145=C|43=Y|97=Y|52=20010101-01:01:01|122=20010101-01:01:01|37=C|198=C|11=C|41=C|39=0|109=C|76=C|66=C|102=0|58=C|93=1|89=D|10=148|