8=FIX.4.4|9=126|35=V|49=SNDR|56=TRGT|34=4|52=20090611-10:27:26.433|262=10|263=0|264=0|267=2|269=0|269=1|146=1|55=IBM|555=1|600=SA|605=1|10=010|
8=FIX.4.4|9=132|35=V|49=SNDR|56=TRGT|34=6|52=20090611-10:45:50.089|262=10|263=0|264=0|267=2|269=0|269=1|146=1|55=IBM|555=1|600=SA|604=1|605=1|10=010|