8=FIX.4.4|9=264|35=8|49=SNDR|56=TRGT|34=1|52=20090612-13:53:53.593|37=11111111|17=11|39=0|150=0|55=TESTB|54=1|38=1000|151=1000|14=0|6=0|453=3|448=000448|447=B|452=1|802=1|523=000523|803=1|448=000448|447=B|452=1|802=1|523=000523|803=1|448=000448|447=B|452=1|802=1|523=000523|803=1|10=025|
8=FIX.4.4|9=236|35=8|49=SNDR|56=TRGT|34=1|52=20090612-13:53:53.593|37=11111111|17=11|39=0|150=0|55=TESTB|54=1|38=1000|151=1000|14=0|6=0|453=2|448=000448|447=B|452=1|802=1|523=000523|803=1|448=000448|447=B|452=1|802=2|523=000523|803=1|523=000523|803=1|10=000|
8=FIX.4.4|9=367|35=8|49=SNDR|56=TRGT|34=1|52=20090612-13:53:53.593|37=11111111|17=11|39=0|150=0|55=TESTB|54=1|38=1000|151=1000|14=0|6=0|453=3|448=000448|447=B|452=1|802=3|523=000523|803=1|523=000523|803=1|523=000523|803=1|448=000448|447=B|452=1|802=3|523=000523|803=1|523=000523|803=1|523=000523|803=1|448=000448|447=B|452=1|802=3|523=000523|803=1|523=000523|803=1|523=000523|803=1|10=148|
8=FIX.4.4|9=376|35=8|49=SNDR|56=TRGT|34=1|52=20090612-13:53:53.593|37=11111111|17=11|39=0|150=0|55=TESTB|54=1|38=1000|151=1000|14=0|6=0|453=3|448=000448|447=B|452=1|802=3|523=000523|803=1|523=000523|803=1|523=000523|803=1|448=000448|447=B|452=1|802=3|523=000523|803=1|523=000523|803=1|523=000523|803=1|448=000448|447=B|452=1|802=3|523=000523|803=1|523=000523|803=1|523=000523|803=1|66=00066|10=059|
