8=FIX.4.4|9=156|35=8|49=TESTI|56=TESTA|34=114|52=20030203-16:09:30|37=11111111|17=11|39=0|150=0|55=TESTB|54=1|38=1000|151=1000|14=0|6=0|711=1|311=TEST311|887=1|888=SECTYPE|10=006|
8=FIX.4.4|9=186|35=8|49=TESTI|56=TESTA|34=114|52=20030203-16:09:30|37=11111111|17=11|39=0|150=0|55=TESTB|54=1|38=1000|151=1000|14=0|6=0|711=2|311=TEST311|887=1|888=SECTYPE|311=TEST311|887=1|888=SECTYPE|10=203|
8=FIX.4.4|9=216|35=8|49=TESTI|56=TESTA|34=114|52=20030203-16:09:30|37=11111111|17=11|39=0|150=0|55=TESTB|54=1|38=1000|151=1000|14=0|6=0|711=3|311=TEST311|887=1|888=SECTYPE|311=TEST311|887=1|888=SECTYPE|311=TEST311|887=1|888=SECTYPE|10=135|
8=FIX.4.4|9=168|35=8|49=TESTI|56=TESTA|34=114|52=20030203-16:09:30|37=11111111|17=11|39=0|150=0|55=TESTB|54=1|38=1000|151=1000|14=0|6=0|711=1|311=TEST311|887=2|888=SECTYPE|888=PURPOSE|10=030|
8=FIX.4.4|9=178|35=8|49=TESTI|56=TESTA|34=114|52=20030203-16:09:30|37=11111111|17=11|39=0|150=0|55=TESTB|54=1|38=1000|151=1000|14=0|6=0|711=1|311=TEST311|887=3|888=SECTYPE|888=PURPOSE|888=YIELD|10=125|
8=FIX.4.4|9=139|35=8|49=TESTI|56=TESTA|34=114|52=20030203-16:09:30|37=11111111|17=11|39=0|150=0|55=TESTB|54=1|38=1000|151=1000|14=0|6=0|232=1|233=CURRENCY|10=133|
8=FIX.4.4|9=150|35=8|49=TESTI|56=TESTA|34=114|52=20030203-16:09:30|37=11111111|17=11|39=0|150=0|55=TESTB|54=1|38=1000|151=1000|14=0|6=0|232=2|233=CURRENCY|233=LOTVAR|10=045|
8=FIX.4.4|9=158|35=8|49=TESTI|56=TESTA|34=114|52=20030203-16:09:30|37=11111111|17=11|39=0|150=0|55=TESTB|54=1|38=1000|151=1000|14=0|6=0|232=3|233=CURRENCY|233=LOTVAR|233=HEP|10=233|
