8=FIX.4.4|9=120|35=8|49=TESTI|56=TESTA|34=114|52=20030203-16:09:30|37=11111111|17=11|39=0|150=0|55=TESTB|54=1|38=1000|151=1000|14=0|6=0|539=1|524=000524|525=TST525|538=1|804=1|545=000545|805=1|10=052|
8=FIX.4.4|9=120|35=8|49=TESTI|56=TESTA|34=114|52=20030203-16:09:30|37=11111111|17=11|39=0|150=0|55=TESTB|54=1|38=1000|151=1000|14=0|6=0|555=1|600=1|539=2|524=000524|525=TST525|538=1|804=1|545=000545|805=1|10=052|
8=FIX.4.4|9=120|35=8|49=TESTI|56=TESTA|34=114|52=20030203-16:09:30|37=11111111|17=11|39=0|150=0|55=TESTB|54=1|38=1000|151=1000|14=0|6=0|555=1|600=1|539=1|524=000524|525=TST525|538=1|804=2|545=000545|805=1|10=052|
8=FIX.4.4|9=120|35=8|49=TESTI|56=TESTA|34=114|52=20030203-16:09:30|37=11111111|17=11|39=0|150=0|55=TESTB|54=1|38=1000|151=1000|14=0|6=0|555=1|600=1|539=1|524=000524|525=TST525|538=1|804=1|545=000545|805=1|524=000524|525=TST525|538=1|804=1|545=000545|805=1|10=052|
8=FIX.4.4|9=120|35=8|49=TESTI|56=TESTA|34=114|52=20030203-16:09:30|37=11111111|17=11|39=0|150=0|55=TESTB|54=1|38=1000|151=1000|14=0|6=0|555=1|600=1|539=3|524=000524|525=TST525|538=1|804=1|545=000545|805=1|524=000524|525=TST525|538=1|804=1|545=000545|805=1|10=052|
8=FIX.4.4|9=120|35=8|49=TESTI|56=TESTA|34=114|52=20030203-16:09:30|37=11111111|17=11|39=0|150=0|55=TESTB|54=1|38=1000|151=1000|14=0|6=0|555=1|600=1|539=2|524=000524|525=TST525|538=1|804=1|545=000545|805=1|524=000524|525=TST525|538=1|804=1|545=000545|805=1|524=000524|525=TST525|538=1|804=1|545=000545|805=1|10=052|
8=FIX.4.4|9=120|35=8|49=TESTI|56=TESTA|34=114|52=20030203-16:09:30|37=11111111|17=11|39=0|150=0|55=TESTB|54=1|38=1000|151=1000|14=0|6=0|555=1|600=1|539=4|524=000524|525=TST525|538=1|804=1|545=000545|805=1|524=000524|525=TST525|538=1|804=1|545=000545|805=1|524=000524|525=TST525|538=1|804=1|545=000545|805=1|10=052|
8=FIX.4.4|9=120|35=8|49=TESTI|56=TESTA|34=114|52=20030203-16:09:30|37=11111111|17=11|39=0|150=0|55=TESTB|54=1|38=1000|151=1000|14=0|6=0|555=1|600=1|539=3|524=000524|525=TST525|538=1|804=2|545=000545|805=1|524=000524|525=TST525|538=1|804=1|545=000545|805=1|524=000524|525=TST525|538=1|804=1|545=000545|805=1|10=052|
8=FIX.4.4|9=120|35=8|49=TESTI|56=TESTA|34=114|52=20030203-16:09:30|37=11111111|17=11|39=0|150=0|55=TESTB|54=1|38=1000|151=1000|14=0|6=0|555=1|600=1|539=3|524=000524|525=TST525|538=1|804=1|545=000545|805=1|524=000524|525=TST525|538=1|804=3|545=000545|805=1|524=000524|525=TST525|538=1|804=1|545=000545|805=1|10=052|
8=FIX.4.4|9=120|35=8|49=TESTI|56=TESTA|34=114|52=20030203-16:09:30|37=11111111|17=11|39=0|150=0|55=TESTB|54=1|38=1000|151=1000|14=0|6=0|555=1|600=1|539=3|524=000524|525=TST525|538=1|804=1|545=000545|805=1|524=000524|525=TST525|538=1|804=1|545=000545|805=1|524=000524|525=TST525|538=1|804=2|545=000545|805=1|10=052|
8=FIX.4.4|9=120|35=8|49=TESTI|56=TESTA|34=114|52=20030203-16:09:30|37=11111111|17=11|39=0|150=0|55=TESTB|54=1|38=1000|151=1000|14=0|6=0|555=1|600=1|539=1|524=000524|525=TST525|538=1|804=1|545=000545|805=1|545=000545|805=1|10=052|
8=FIX.4.4|9=120|35=8|49=TESTI|56=TESTA|34=114|52=20030203-16:09:30|37=11111111|17=11|39=0|150=0|55=TESTB|54=1|38=1000|151=1000|14=0|6=0|555=1|600=1|539=1|524=000524|525=TST525|538=1|804=3|545=000545|805=1|545=000545|805=1|10=052|
8=FIX.4.4|9=120|35=8|49=TESTI|56=TESTA|34=114|52=20030203-16:09:30|37=11111111|17=11|39=0|150=0|55=TESTB|54=1|38=1000|151=1000|14=0|6=0|555=1|600=1|539=1|524=000524|525=TST525|538=1|804=2|545=000545|805=1|545=000545|805=1|545=000545|805=1|10=052|
8=FIX.4.4|9=120|35=8|49=TESTI|56=TESTA|34=114|52=20030203-16:09:30|37=11111111|17=11|39=0|150=0|55=TESTB|54=1|38=1000|151=1000|14=0|6=0|555=1|600=1|539=1|524=000524|525=TST525|538=1|804=4|545=000545|805=1|545=000545|805=1|545=000545|805=1|10=052|
8=FIX.4.4|9=120|35=8|49=TESTI|56=TESTA|34=114|52=20030203-16:09:30|37=11111111|17=11|39=0|150=0|55=TESTB|54=1|38=1000|151=1000|14=0|6=0|555=1|600=1|539=2|524=000524|525=TST525|805=1|538=1|804=2|545=000545|805=1|545=000545|805=1|524=000524|525=TST525|538=1|804=2|545=000545|805=1|545=000545|805=1|10=052|
8=FIX.4.4|9=120|35=8|49=TESTI|56=TESTA|34=114|52=20030203-16:09:30|37=11111111|17=11|39=0|150=0|55=TESTB|54=1|38=1000|151=1000|14=0|6=0|555=1|600=1|539=2|524=000524|525=TST525|538=1|804=2|545=000545|805=1|545=000545|805=1|524=000524|525=TST525|545=000545|538=1|804=2|545=000545|805=1|545=000545|805=1|10=052|
8=FIX.4.4|9=120|35=8|49=TESTI|56=TESTA|34=114|52=20030203-16:09:30|37=11111111|17=11|39=0|150=0|55=TESTB|54=1|38=1000|151=1000|14=0|6=0|555=1|600=1|539=2|524=000524|525=TST525|538=1|804=2|545=000545|524=000524|805=1|545=000545|805=1|524=000524|525=TST525|538=1|804=2|545=000545|805=1|545=000545|805=1|10=052|
8=FIX.4.4|9=120|35=8|49=TESTI|56=TESTA|34=114|52=20030203-16:09:30|37=11111111|17=11|39=0|150=0|55=TESTB|54=1|38=1000|151=1000|14=0|6=0|555=1|600=1|539=2|524=000524|525=TST525|538=1|804=2|545=000545|805=1|545=000545|805=1|524=000524|525=TST525|538=1|804=2|545=000545|525=TST525|805=1|545=000545|805=1|10=052|