8=FIX.4.4|9=120|35=8|49=TESTI|56=TESTA|34=114|52=20030203-16:09:30|37=11111111|17=11|39=0|150=0|55=TESTB|54=1|38=1000|151=1000|14=0|6=0|453=2|448=000448|447=B|452=1|802=1|523=000523|803=1|10=052|
8=FIX.4.4|9=120|35=8|49=TESTI|56=TESTA|34=114|52=20030203-16:09:30|37=11111111|17=11|39=0|150=0|55=TESTB|54=1|38=1000|151=1000|14=0|6=0|453=1|448=000448|447=B|452=1|802=2|523=000523|803=1|10=052|
8=FIX.4.4|9=120|35=8|49=TESTI|56=TESTA|34=114|52=20030203-16:09:30|37=11111111|17=11|39=0|150=0|55=TESTB|54=1|38=1000|151=1000|14=0|6=0|453=1|448=000448|447=B|452=1|802=1|523=000523|803=1|448=000448|447=B|452=1|802=1|523=000523|803=1|10=052|
8=FIX.4.4|9=120|35=8|49=TESTI|56=TESTA|34=114|52=20030203-16:09:30|37=11111111|17=11|39=0|150=0|55=TESTB|54=1|38=1000|151=1000|14=0|6=0|453=3|448=000448|447=B|452=1|802=1|523=000523|803=1|448=000448|447=B|452=1|802=1|523=000523|803=1|10=052|
8=FIX.4.4|9=120|35=8|49=TESTI|56=TESTA|34=114|52=20030203-16:09:30|37=11111111|17=11|39=0|150=0|55=TESTB|54=1|38=1000|151=1000|14=0|6=0|453=2|448=000448|447=B|452=1|802=1|523=000523|803=1|448=000448|447=B|452=1|802=1|523=000523|803=1|448=000448|447=B|452=1|802=1|523=000523|803=1|10=052|
8=FIX.4.4|9=120|35=8|49=TESTI|56=TESTA|34=114|52=20030203-16:09:30|37=11111111|17=11|39=0|150=0|55=TESTB|54=1|38=1000|151=1000|14=0|6=0|453=4|448=000448|447=B|452=1|802=1|523=000523|803=1|448=000448|447=B|452=1|802=1|523=000523|803=1|448=000448|447=B|452=1|802=1|523=000523|803=1|10=052|
8=FIX.4.4|9=120|35=8|49=TESTI|56=TESTA|34=114|52=20030203-16:09:30|37=11111111|17=11|39=0|150=0|55=TESTB|54=1|38=1000|151=1000|14=0|6=0|453=3|448=000448|447=B|452=1|802=2|523=000523|803=1|448=000448|447=B|452=1|802=1|523=000523|803=1|448=000448|447=B|452=1|802=1|523=000523|803=1|10=052|
8=FIX.4.4|9=120|35=8|49=TESTI|56=TESTA|34=114|52=20030203-16:09:30|37=11111111|17=11|39=0|150=0|55=TESTB|54=1|38=1000|151=1000|14=0|6=0|453=3|448=000448|447=B|452=1|802=1|523=000523|803=1|448=000448|447=B|452=1|802=3|523=000523|803=1|448=000448|447=B|452=1|802=1|523=000523|803=1|10=052|
8=FIX.4.4|9=120|35=8|49=TESTI|56=TESTA|34=114|52=20030203-16:09:30|37=11111111|17=11|39=0|150=0|55=TESTB|54=1|38=1000|151=1000|14=0|6=0|453=3|448=000448|447=B|452=1|802=1|523=000523|803=1|448=000448|447=B|452=1|802=1|523=000523|803=1|448=000448|447=B|452=1|802=2|523=000523|803=1|10=052|
8=FIX.4.4|9=120|35=8|49=TESTI|56=TESTA|34=114|52=20030203-16:09:30|37=11111111|17=11|39=0|150=0|55=TESTB|54=1|38=1000|151=1000|14=0|6=0|453=1|448=000448|447=B|452=1|802=1|523=000523|803=1|523=000523|803=1|10=052|
8=FIX.4.4|9=120|35=8|49=TESTI|56=TESTA|34=114|52=20030203-16:09:30|37=11111111|17=11|39=0|150=0|55=TESTB|54=1|38=1000|151=1000|14=0|6=0|453=1|448=000448|447=B|452=1|802=3|523=000523|803=1|523=000523|803=1|10=052|
8=FIX.4.4|9=120|35=8|49=TESTI|56=TESTA|34=114|52=20030203-16:09:30|37=11111111|17=11|39=0|150=0|55=TESTB|54=1|38=1000|151=1000|14=0|6=0|453=1|448=000448|447=B|452=1|802=2|523=000523|803=1|523=000523|803=1|523=000523|803=1|10=052|
8=FIX.4.4|9=120|35=8|49=TESTI|56=TESTA|34=114|52=20030203-16:09:30|37=11111111|17=11|39=0|150=0|55=TESTB|54=1|38=1000|151=1000|14=0|6=0|453=1|448=000448|447=B|452=1|802=4|523=000523|803=1|523=000523|803=1|523=000523|803=1|10=052|
8=FIX.4.4|9=120|35=8|49=TESTI|56=TESTA|34=114|52=20030203-16:09:30|37=11111111|17=11|39=0|150=0|55=TESTB|54=1|38=1000|151=1000|14=0|6=0|453=2|448=000448|447=B|803=1|452=1|802=2|523=000523|803=1|523=000523|803=1|448=000448|447=B|452=1|802=2|523=000523|803=1|523=000523|803=1|10=052|
8=FIX.4.4|9=120|35=8|49=TESTI|56=TESTA|34=114|52=20030203-16:09:30|37=11111111|17=11|39=0|150=0|55=TESTB|54=1|38=1000|151=1000|14=0|6=0|453=2|448=000448|447=B|452=1|802=2|523=000523|803=1|523=000523|803=1|448=000448|447=B|523=000523|452=1|802=2|523=000523|803=1|523=000523|803=1|10=052|
8=FIX.4.4|9=120|35=8|49=TESTI|56=TESTA|34=114|52=20030203-16:09:30|37=11111111|17=11|39=0|150=0|55=TESTB|54=1|38=1000|151=1000|14=0|6=0|453=2|448=000448|447=B|452=1|802=2|523=000523|448=000448|803=1|523=000523|803=1|448=000448|447=B|452=1|802=2|523=000523|803=1|523=000523|803=1|10=052|
8=FIX.4.4|9=120|35=8|49=TESTI|56=TESTA|34=114|52=20030203-16:09:30|37=11111111|17=11|39=0|150=0|55=TESTB|54=1|38=1000|151=1000|14=0|6=0|453=2|448=000448|447=B|452=1|802=2|523=000523|803=1|523=000523|803=1|448=000448|447=B|452=1|802=2|523=000523|447=B|803=1|523=000523|803=1|10=052|