<?xml version="1.0" encoding="UTF-8"?>
<!DOCTYPE cases SYSTEM "../../../../cases.dtd" [
        <!ENTITY % content SYSTEM "../../../../Engine/Entities/definitions.inc">
        %content; ]>
<cases>
    <case name="10_MsgSeqNumLess.def">
        &CLEAN_LOGS;
        &ENGINE_UP;

        <!--# GapFill where MsgSeqNum is less than the expected inbound MsgSeqNum-->
        <transport className="InitiatorSocketTransport" host="localhost" port="3000">

            <send>8=FIX.4.1#9=123#35=A#34=1#49=TW#52=20031027-14:29:11#56=ISLD#98=0#108=5#10=126#</send>
            <expect>8=FIX\.4\.1#9=\d{1,3}#35=A#34=1#49=ISLD#52=\d{8}-\d{2}:\d{2}:\d{2}#56=TW#98=0#108=5#10=\d{3}#
            </expect>

            <!--# sequence reset with gap fill flag set to Y, PosDupFlag set to Y-->

            <send>
                8=FIX.4.1#9=123#35=4#34=1#49=TW#52=20031027-14:29:11#56=ISLD#43=Y#122=20031027-14:29:10#36=20#123=Y#10=126#
            </send>
            <send>8=FIX.4.1#9=123#35=1#34=2#49=TW#52=20031027-14:29:11#56=ISLD#112=HELLO#10=126#</send>
            <expect>8=FIX\.4\.1#9=\d{1,3}#35=0#34=2#49=ISLD#52=\d{8}-\d{2}:\d{2}:\d{2}#56=TW#112=HELLO#10=\d{3}#
            </expect>

            <!--# sequence reset with gap fill flag set to Y, PosDupFlag set to N-->

            <send>8=FIX.4.1#9=123#35=4#34=1#49=TW#52=20031027-14:29:11#56=ISLD#36=20#123=Y#10=126#</send>
        </transport>
        &ENGINE_DOWN;
    </case>
</cases>
