8=FIX.4.4|9=83|35=7|49=TESTI|56=TESTA|34=31|52=20030203-16:02:35|2=20|5=N|55=TESTB|4=b|53=1000000|10=194|
8=FIX.4.4|9=83|35=7|49=TESTI|56=TESTA|34=31|52=20030203-16:02:35|2=20|5=N|55=TESTB|4=t|53=1000000|10=194|
8=FIX.4.4|9=83|35=7|49=TESTI|56=TESTA|34=31|52=20030203-16:02:35|2=20|5=N|55=TESTB|4=0|53=1000000|10=194|
8=FIX.4.4|9=83|35=7|49=TESTI|56=TESTA|34=31|52=20030203-16:02:35|2=20|5=N|55=TESTB|4=-1|53=1000000|10=194|
8=FIX.4.4|9=140|35=1|34=104|49=SNDR|56=TRGT|52=20090407-09:48:19.812|112= TEST #001 CHECK 4 REJECT MSGS with INVALID MESSAGE - INCORRECT DATA TYPE [MsgType:_7, Tag:_4]|10=018|
8=FIX.4.4|9=83|35=7|49=TESTI|56=TESTA|34=31|52=20030203-16:02:35|2=20|5=n|55=TESTB|4=T|53=1000000|10=194|
8=FIX.4.4|9=83|35=7|49=TESTI|56=TESTA|34=31|52=20030203-16:02:35|2=20|5=r|55=TESTB|4=T|53=1000000|10=194|
8=FIX.4.4|9=83|35=7|49=TESTI|56=TESTA|34=31|52=20030203-16:02:35|2=20|5=0|55=TESTB|4=T|53=1000000|10=194|
8=FIX.4.4|9=83|35=7|49=TESTI|56=TESTA|34=31|52=20030203-16:02:35|2=20|5=-1|55=TESTB|4=T|53=1000000|10=194|
8=FIX.4.4|9=140|35=1|34=104|49=SNDR|56=TRGT|52=20090407-09:48:19.812|112= TEST #002 CHECK 4 REJECT MSGS with INVALID MESSAGE - INCORRECT DATA TYPE [MsgType:_7, Tag:_5]|10=018|
8=FIX.4.4|9=91|35=AI|49=TESTI|56=TESTA|34=4|52=20030204-08:46:14|117=0001|55=TESTA|132=10.5|13=0|10=068|
8=FIX.4.4|9=91|35=AI|49=TESTI|56=TESTA|34=4|52=20030204-08:46:14|117=0001|55=TESTA|132=10.5|13=a|10=068|
8=FIX.4.4|9=91|35=AI|49=TESTI|56=TESTA|34=4|52=20030204-08:46:14|117=0001|55=TESTA|132=10.5|13=B|10=068|
8=FIX.4.4|9=91|35=AI|49=TESTI|56=TESTA|34=4|52=20030204-08:46:14|117=0001|55=TESTA|132=10.5|13=-1|10=068|
8=FIX.4.4|9=140|35=1|34=104|49=SNDR|56=TRGT|52=20090407-09:48:19.812|112= TEST #003 CHECK 4 REJECT MSGS with INVALID MESSAGE - INCORRECT DATA TYPE [MsgType:_AI, Tag:_13]|10=018|
8=FIX.4.4|9=90|35=7|49=TESTI|56=TESTA|34=31|52=20030203-16:02:35|2=20|5=N|55=TESTB|4=T|53=1000000|15=0|10=194|
8=FIX.4.4|9=90|35=7|49=TESTI|56=TESTA|34=31|52=20030203-16:02:35|2=20|5=N|55=TESTB|4=T|53=1000000|15=usd|10=194|
8=FIX.4.4|9=90|35=7|49=TESTI|56=TESTA|34=31|52=20030203-16:02:35|2=20|5=N|55=TESTB|4=T|53=1000000|15= |10=194|
8=FIX.4.4|9=90|35=7|49=TESTI|56=TESTA|34=31|52=20030203-16:02:35|2=20|5=N|55=TESTB|4=T|53=1000000|15=-1|10=194|
8=FIX.4.4|9=140|35=1|34=104|49=SNDR|56=TRGT|52=20090407-09:48:19.812|112= TEST #004 CHECK 4 REJECT MSGS with INVALID MESSAGE - INCORRECT DATA TYPE [MsgType: 7,_Tag:_15]|10=018|
8=FIX.4.4|9=128|35=D|49=TESTI|56=TESTA|34=4|52=20030204-08:46:14|11=90001008|21=0|55=TESTB|54=1|60=20060217-10:00:00|38=4000|40=1|10=072|
8=FIX.4.4|9=128|35=D|49=TESTI|56=TESTA|34=4|52=20030204-08:46:14|11=90001008|21=-1|55=TESTB|54=1|60=20060217-10:00:00|38=4000|40=1|10=074|
8=FIX.4.4|9=128|35=D|49=TESTI|56=TESTA|34=4|52=20030204-08:46:14|11=90001008|21=A|55=TESTB|54=1|60=20060217-10:00:00|38=4000|40=1|10=074|
8=FIX.4.4|9=128|35=D|49=TESTI|56=TESTA|34=4|52=20030204-08:46:14|11=90001008|21=b|55=TESTB|54=1|60=20060217-10:00:00|38=4000|40=1|10=074|
8=FIX.4.4|9=140|35=1|34=104|49=SNDR|56=TRGT|52=20090407-09:48:19.812|112= TEST #005 CHECK 4 REJECT MSGS with INVALID MESSAGE - INCORRECT DATA TYPE [MsgType:_D, Tag:_21]|10=018|
8=FIX.4.4|9=79|35=e|49=TESTI|56=TESTA|34=14|52=20030204-09:25:43|324=0001|55=TESTB|22=0|263=0|10=033|
8=FIX.4.4|9=79|35=e|49=TESTI|56=TESTA|34=14|52=20030204-09:25:43|324=0001|55=TESTB|22=-1|263=0|10=033|
8=FIX.4.4|9=79|35=e|49=TESTI|56=TESTA|34=14|52=20030204-09:25:43|324=0001|55=TESTB|22=K|263=0|10=033|
8=FIX.4.4|9=79|35=e|49=TESTI|56=TESTA|34=14|52=20030204-09:25:43|324=0001|55=TESTB|22=b|263=0|10=033|
8=FIX.4.4|9=140|35=1|34=104|49=SNDR|56=TRGT|52=20090407-09:48:19.812|112= TEST #006 CHECK 4 REJECT MSGS with INVALID MESSAGE - INCORRECT DATA TYPE [MsgType:_e, Tag:_22]|10=018|
8=FIX.4.4|9=86|35=6|49=TESTI|56=TESTA|34=121|52=20030203-16:10:01|23=24|28=N|55=TESTB|54=1|27=S|25=0|10=090|
8=FIX.4.4|9=86|35=6|49=TESTI|56=TESTA|34=121|52=20030203-16:10:01|23=24|28=N|55=TESTB|54=1|27=S|25=h|10=090|
8=FIX.4.4|9=86|35=6|49=TESTI|56=TESTA|34=121|52=20030203-16:10:01|23=24|28=N|55=TESTB|54=1|27=S|25=A|10=090|
8=FIX.4.4|9=86|35=6|49=TESTI|56=TESTA|34=121|52=20030203-16:10:01|23=24|28=N|55=TESTB|54=1|27=S|25=-1|10=090|
8=FIX.4.4|9=140|35=1|34=104|49=SNDR|56=TRGT|52=20090407-09:48:19.812|112= TEST #007 CHECK 4 REJECT MSGS with INVALID MESSAGE - INCORRECT DATA TYPE [MsgType:_6, Tag:_25]|10=018|
8=FIX.4.4|9=86|35=6|49=TESTI|56=TESTA|34=121|52=20030203-16:10:01|23=24|28=N|55=TESTB|54=1|27=-1|25=H|10=090|
8=FIX.4.4|9=86|35=6|49=TESTI|56=TESTA|34=121|52=20030203-16:10:01|23=24|28=N|55=TESTB|54=1|27=A|25=H|10=090|
8=FIX.4.4|9=86|35=6|49=TESTI|56=TESTA|34=121|52=20030203-16:10:01|23=24|28=N|55=TESTB|54=1|27=s|25=H|10=090|
8=FIX.4.4|9=86|35=6|49=TESTI|56=TESTA|34=121|52=20030203-16:10:01|23=24|28=N|55=TESTB|54=1|27=l|25=H|10=090|
8=FIX.4.4|9=140|35=1|34=104|49=SNDR|56=TRGT|52=20090407-09:48:19.812|112= TEST #008 CHECK 4 REJECT MSGS with INVALID MESSAGE - INCORRECT DATA TYPE [MsgType:_6, Tag:_27]|10=018|
8=FIX.4.4|9=81|35=6|49=TESTI|56=TESTA|34=121|52=20030203-16:10:01|23=24|28=0|55=TESTB|54=1|27=S|10=104|
8=FIX.4.4|9=81|35=6|49=TESTI|56=TESTA|34=121|52=20030203-16:10:01|23=24|28=-1|55=TESTB|54=1|27=S|10=104|
8=FIX.4.4|9=81|35=6|49=TESTI|56=TESTA|34=121|52=20030203-16:10:01|23=24|28=A|55=TESTB|54=1|27=S|10=104|
8=FIX.4.4|9=81|35=6|49=TESTI|56=TESTA|34=121|52=20030203-16:10:01|23=24|28=n|55=TESTB|54=1|27=S|10=104|
8=FIX.4.4|9=140|35=1|34=104|49=SNDR|56=TRGT|52=20090407-09:48:19.812|112= TEST #009 CHECK 4 REJECT MSGS with INVALID MESSAGE - INCORRECT DATA TYPE [MsgType:_6, Tag:_28]|10=018|
8=FIX.4.4|9=137|35=AS|49=TESTI|56=TESTA|34=4|52=20030204-08:46:14|755=0001|71=0|794=5|87=0|857=0|124=1|32=302|31=3.1|669=3|29=0|54=2|55=TESTB|53=10000|6=10.5|75=20060217|10=228|
8=FIX.4.4|9=137|35=AS|49=TESTI|56=TESTA|34=4|52=20030204-08:46:14|755=0001|71=0|794=5|87=0|857=0|124=1|32=302|31=3.1|669=3|29=-1|54=2|55=TESTB|53=10000|6=10.5|75=20060217|10=228|
8=FIX.4.4|9=137|35=AS|49=TESTI|56=TESTA|34=4|52=20030204-08:46:14|755=0001|71=0|794=5|87=0|857=0|124=1|32=302|31=3.1|669=3|29=A|54=2|55=TESTB|53=10000|6=10.5|75=20060217|10=228|
8=FIX.4.4|9=137|35=AS|49=TESTI|56=TESTA|34=4|52=20030204-08:46:14|755=0001|71=0|794=5|87=0|857=0|124=1|32=302|31=3.1|669=3|29=b|54=2|55=TESTB|53=10000|6=10.5|75=20060217|10=228|
8=FIX.4.4|9=140|35=1|34=104|49=SNDR|56=TRGT|52=20090407-09:48:19.812|112= TEST #010 CHECK 4 REJECT MSGS with INVALID MESSAGE - INCORRECT DATA TYPE [MsgType:_AS, Tag:_29]|10=018|
8=FIX.4.4|9=203|35=J|49=TESTI|56=TESTA|34=4|52=20030204-08:56:41|70=1116226|71=0|626=1|857=0|124=1|32=22|31=7.01|54=1|55=TESTB|53=1004000|30=X|6=30|75=20030821|78=3|79=1000|80=500000|79=2000|80=400000|79=3000|80=104000|10=028|
8=FIX.4.4|9=203|35=J|49=TESTI|56=TESTA|34=4|52=20030204-08:56:41|70=1116226|71=0|626=1|857=0|124=1|32=22|31=7.01|54=1|55=TESTB|53=1004000|30=0|6=30|75=20030821|78=3|79=1000|80=500000|79=2000|80=400000|79=3000|80=104000|10=028|
8=FIX.4.4|9=203|35=J|49=TESTI|56=TESTA|34=4|52=20030204-08:56:41|70=1116226|71=0|626=1|857=0|124=1|32=22|31=7.01|54=1|55=TESTB|53=1004000|30=-1|6=30|75=20030821|78=3|79=1000|80=500000|79=2000|80=400000|79=3000|80=104000|10=028|
8=FIX.4.4|9=203|35=J|49=TESTI|56=TESTA|34=4|52=20030204-08:56:41|70=1116226|71=0|626=1|857=0|124=1|32=22|31=7.01|54=1|55=TESTB|53=1004000|30=-xCUE|6=30|75=20030821|78=3|79=1000|80=500000|79=2000|80=400000|79=3000|80=104000|10=028|
8=FIX.4.4|9=140|35=1|34=104|49=SNDR|56=TRGT|52=20090407-09:48:19.812|112= TEST #011 CHECK 4 REJECT MSGS with INVALID MESSAGE - INCORRECT DATA TYPE [MsgType:_J, Tag:_30]|10=018|
8=FIX.4.4|9=135|35=8|49=TESTI|56=TESTA|34=114|52=20030203-16:09:30|37=11111111|17=12|39=-1|150=F|55=TESTB|54=1|38=1000|151=600|14=400|6=10|32=400|31=10|10=245|
8=FIX.4.4|9=135|35=8|49=TESTI|56=TESTA|34=114|52=20030203-16:09:30|37=11111111|17=12|39=10|150=F|55=TESTB|54=1|38=1000|151=600|14=400|6=10|32=400|31=10|10=245|
8=FIX.4.4|9=135|35=8|49=TESTI|56=TESTA|34=114|52=20030203-16:09:30|37=11111111|17=12|39=a|150=F|55=TESTB|54=1|38=1000|151=600|14=400|6=10|32=400|31=10|10=245|
8=FIX.4.4|9=135|35=8|49=TESTI|56=TESTA|34=114|52=20030203-16:09:30|37=11111111|17=12|39=F|150=F|55=TESTB|54=1|38=1000|151=600|14=400|6=10|32=400|31=10|10=245|
8=FIX.4.4|9=140|35=1|34=104|49=SNDR|56=TRGT|52=20090407-09:48:19.812|112= TEST #012 CHECK 4 REJECT MSGS with INVALID MESSAGE - INCORRECT DATA TYPE [MsgType:_8, Tag:_39]|10=018|
8=FIX.4.4|9=162|35=AC|49=TESTI|56=TESTA|34=4|52=20030204-08:46:14|11=90001008|41=93452234|54=1|55=TESTB|555=2|600=TESTA|600=TESTC|60=20060217-10:00:00|38=4000|40=0|10=178|
8=FIX.4.4|9=162|35=AC|49=TESTI|56=TESTA|34=4|52=20030204-08:46:14|11=90001008|41=93452234|54=1|55=TESTB|555=2|600=TESTA|600=TESTC|60=20060217-10:00:00|38=4000|40=-1|10=178|
8=FIX.4.4|9=162|35=AC|49=TESTI|56=TESTA|34=4|52=20030204-08:46:14|11=90001008|41=93452234|54=1|55=TESTB|555=2|600=TESTA|600=TESTC|60=20060217-10:00:00|38=4000|40=a|10=178|
8=FIX.4.4|9=162|35=AC|49=TESTI|56=TESTA|34=4|52=20030204-08:46:14|11=90001008|41=93452234|54=1|55=TESTB|555=2|600=TESTA|600=TESTC|60=20060217-10:00:00|38=4000|40=Q|10=178|
8=FIX.4.4|9=140|35=1|34=104|49=SNDR|56=TRGT|52=20090407-09:48:19.812|112= TEST #013 CHECK 4 REJECT MSGS with INVALID MESSAGE - INCORRECT DATA TYPE [MsgType:_AC, Tag:_40]|10=018|
8=FIX.4.4|9=135|35=8|49=TESTI|56=TESTA|34=114|52=20030203-16:09:30|37=11111111|17=12|39=1|150=F|55=TESTB|54=0|38=1000|151=600|14=400|6=10|32=400|31=10|10=246|
8=FIX.4.4|9=135|35=8|49=TESTI|56=TESTA|34=114|52=20030203-16:09:30|37=11111111|17=12|39=1|150=F|55=TESTB|54=-1|38=1000|151=600|14=400|6=10|32=400|31=10|10=246|
8=FIX.4.4|9=135|35=8|49=TESTI|56=TESTA|34=114|52=20030203-16:09:30|37=11111111|17=12|39=1|150=F|55=TESTB|54=a|38=1000|151=600|14=400|6=10|32=400|31=10|10=246|
8=FIX.4.4|9=135|35=8|49=TESTI|56=TESTA|34=114|52=20030203-16:09:30|37=11111111|17=12|39=1|150=F|55=TESTB|54=H|38=1000|151=600|14=400|6=10|32=400|31=10|10=246|
8=FIX.4.4|9=140|35=1|34=104|49=SNDR|56=TRGT|52=20090407-09:48:19.812|112= TEST #014 CHECK 4 REJECT MSGS with INVALID MESSAGE - INCORRECT DATA TYPE [MsgType:_8, Tag:_54]|10=018|
8=FIX.4.4|9=128|35=D|49=TESTI|56=TESTA|34=4|52=20030204-08:46:14|11=90001008|55=TESTB|54=1|60=20060217-10:00:00|38=4000|40=1|59=-1|10=082|
8=FIX.4.4|9=128|35=D|49=TESTI|56=TESTA|34=4|52=20030204-08:46:14|11=90001008|55=TESTB|54=1|60=20060217-10:00:00|38=4000|40=1|59=8|10=082|
8=FIX.4.4|9=128|35=D|49=TESTI|56=TESTA|34=4|52=20030204-08:46:14|11=90001008|55=TESTB|54=1|60=20060217-10:00:00|38=4000|40=1|59=A|10=082|
8=FIX.4.4|9=128|35=D|49=TESTI|56=TESTA|34=4|52=20030204-08:46:14|11=90001008|55=TESTB|54=1|60=20060217-10:00:00|38=4000|40=1|59=b|10=082|
8=FIX.4.4|9=140|35=1|34=104|49=SNDR|56=TRGT|52=20090407-09:48:19.812|112= TEST #015 CHECK 4 REJECT MSGS with INVALID MESSAGE - INCORRECT DATA TYPE [MsgType:_D, Tag:_59]|10=018|
8=FIX.4.4|9=148|35=B|49=TESTI|56=TESTA|34=19|52=20030203-16:21:17|61=-1|148=Weather|33=4|58=In the evening |58=it might be wet |58=and windy.|58= Take your coat on.|10=147|
8=FIX.4.4|9=148|35=B|49=TESTI|56=TESTA|34=19|52=20030203-16:21:17|61=3|148=Weather|33=4|58=In the evening |58=it might be wet |58=and windy.|58= Take your coat on.|10=147|
8=FIX.4.4|9=148|35=B|49=TESTI|56=TESTA|34=19|52=20030203-16:21:17|61=A|148=Weather|33=4|58=In the evening |58=it might be wet |58=and windy.|58= Take your coat on.|10=147|
8=FIX.4.4|9=148|35=B|49=TESTI|56=TESTA|34=19|52=20030203-16:21:17|61=b|148=Weather|33=4|58=In the evening |58=it might be wet |58=and windy.|58= Take your coat on.|10=147|
8=FIX.4.4|9=140|35=1|34=104|49=SNDR|56=TRGT|52=20090407-09:48:19.812|112= TEST #016 CHECK 4 REJECT MSGS with INVALID MESSAGE - INCORRECT DATA TYPE [MsgType:_B, Tag:_61]|10=018|
8=FIX.4.4|9=183|35=J|49=TESTI|56=TESTA|34=4|52=20030204-08:56:41|70=1116226|71=0|626=1|857=0|54=1|55=TESTB|53=1004000|6=30|75=20030821|63=-1|78=3|79=1000|80=500000|79=2000|80=400000|79=3000|80=104000|10=214|
8=FIX.4.4|9=183|35=J|49=TESTI|56=TESTA|34=4|52=20030204-08:56:41|70=1116226|71=0|626=1|857=0|54=1|55=TESTB|53=1004000|6=30|75=20030821|63=10|78=3|79=1000|80=500000|79=2000|80=400000|79=3000|80=104000|10=214|
8=FIX.4.4|9=183|35=J|49=TESTI|56=TESTA|34=4|52=20030204-08:56:41|70=1116226|71=0|626=1|857=0|54=1|55=TESTB|53=1004000|6=30|75=20030821|63=A|78=3|79=1000|80=500000|79=2000|80=400000|79=3000|80=104000|10=214|
8=FIX.4.4|9=183|35=J|49=TESTI|56=TESTA|34=4|52=20030204-08:56:41|70=1116226|71=0|626=1|857=0|54=1|55=TESTB|53=1004000|6=30|75=20030821|63=b|78=3|79=1000|80=500000|79=2000|80=400000|79=3000|80=104000|10=214|
8=FIX.4.4|9=140|35=1|34=104|49=SNDR|56=TRGT|52=20090407-09:48:19.812|112= TEST #017 CHECK 4 REJECT MSGS with INVALID MESSAGE - INCORRECT DATA TYPE [MsgType:_J, Tag:_63]|10=018|
8=FIX.4.4|9=137|35=AS|49=TESTI|56=TESTA|34=4|52=20030204-08:46:14|755=0001|71=-1|794=5|87=0|857=0|54=2|55=TESTB|53=10000|6=10.5|75=20060217|10=228|
8=FIX.4.4|9=137|35=AS|49=TESTI|56=TESTA|34=4|52=20030204-08:46:14|755=0001|71=3|794=5|87=0|857=0|54=2|55=TESTB|53=10000|6=10.5|75=20060217|10=228|
8=FIX.4.4|9=137|35=AS|49=TESTI|56=TESTA|34=4|52=20030204-08:46:14|755=0001|71=A|794=5|87=0|857=0|54=2|55=TESTB|53=10000|6=10.5|75=20060217|10=228|
8=FIX.4.4|9=137|35=AS|49=TESTI|56=TESTA|34=4|52=20030204-08:46:14|755=0001|71=b|794=5|87=0|857=0|54=2|55=TESTB|53=10000|6=10.5|75=20060217|10=228|
8=FIX.4.4|9=140|35=1|34=104|49=SNDR|56=TRGT|52=20090407-09:48:19.812|112= TEST #018 CHECK 4 REJECT MSGS with INVALID MESSAGE - INCORRECT DATA TYPE [MsgType:_AS, Tag:_71]|10=018|
8=FIX.4.4|9=155|35=AB|49=TESTI|56=TESTA|34=4|52=20030204-08:46:14|11=90001008|54=1|55=TESTB|555=2|600=TESTA|600=TESTC|38=4000|40=1|77=c|60=20060117-10:00:00|10=094|
8=FIX.4.4|9=155|35=AB|49=TESTI|56=TESTA|34=4|52=20030204-08:46:14|11=90001008|54=1|55=TESTB|555=2|600=TESTA|600=TESTC|38=4000|40=1|77=f|60=20060117-10:00:00|10=094|
8=FIX.4.4|9=155|35=AB|49=TESTI|56=TESTA|34=4|52=20030204-08:46:14|11=90001008|54=1|55=TESTB|555=2|600=TESTA|600=TESTC|38=4000|40=1|77=0|60=20060117-10:00:00|10=094|
8=FIX.4.4|9=155|35=AB|49=TESTI|56=TESTA|34=4|52=20030204-08:46:14|11=90001008|54=1|55=TESTB|555=2|600=TESTA|600=TESTC|38=4000|40=1|77=-1|60=20060117-10:00:00|10=094|
8=FIX.4.4|9=140|35=1|34=104|49=SNDR|56=TRGT|52=20090407-09:48:19.812|112= TEST #019 CHECK 4 REJECT MSGS with INVALID MESSAGE - INCORRECT DATA TYPE [MsgType:_AB, Tag:_77]|10=018|
8=FIX.4.4|9=128|35=D|49=TESTI|56=TESTA|34=4|52=20030204-08:46:14|11=90001008|81=-1|55=TESTB|54=1|60=20060217-10:00:00|38=4000|40=1|10=077|
8=FIX.4.4|9=128|35=D|49=TESTI|56=TESTA|34=4|52=20030204-08:46:14|11=90001008|81=7|55=TESTB|54=1|60=20060217-10:00:00|38=4000|40=1|10=077|
8=FIX.4.4|9=128|35=D|49=TESTI|56=TESTA|34=4|52=20030204-08:46:14|11=90001008|81=A|55=TESTB|54=1|60=20060217-10:00:00|38=4000|40=1|10=077|
8=FIX.4.4|9=128|35=D|49=TESTI|56=TESTA|34=4|52=20030204-08:46:14|11=90001008|81=b|55=TESTB|54=1|60=20060217-10:00:00|38=4000|40=1|10=077|
8=FIX.4.4|9=140|35=1|34=104|49=SNDR|56=TRGT|52=20090407-09:48:19.812|112= TEST #020 CHECK 4 REJECT MSGS with INVALID MESSAGE - INCORRECT DATA TYPE [MsgType:_D, Tag:_81]|10=018|
8=FIX.4.4|9=107|35=AT|49=TESTI|56=TESTA|34=4|52=20030204-08:46:14|755=0001|70=0001|60=20060217-10:00:00|87=-1|10=051|
8=FIX.4.4|9=107|35=AT|49=TESTI|56=TESTA|34=4|52=20030204-08:46:14|755=0001|70=0001|60=20060217-10:00:00|87=6|10=051|
8=FIX.4.4|9=107|35=AT|49=TESTI|56=TESTA|34=4|52=20030204-08:46:14|755=0001|70=0001|60=20060217-10:00:00|87=A|10=051|
8=FIX.4.4|9=107|35=AT|49=TESTI|56=TESTA|34=4|52=20030204-08:46:14|755=0001|70=0001|60=20060217-10:00:00|87=b|10=051|
8=FIX.4.4|9=140|35=1|34=104|49=SNDR|56=TRGT|52=20090407-09:48:19.812|112= TEST #021 CHECK 4 REJECT MSGS with INVALID MESSAGE - INCORRECT DATA TYPE [MsgType:_AT, Tag:_87]|10=018|
8=FIX.4.4|9=100|35=P|49=TESTI|56=TESTA|34=7|52=20030204-09:17:25|70=3659000001|60=20060108-10:00:53|87=0|573=0|88=-1|10=198|
8=FIX.4.4|9=100|35=P|49=TESTI|56=TESTA|34=7|52=20030204-09:17:25|70=3659000001|60=20060108-10:00:53|87=0|573=0|88=14|10=198|
8=FIX.4.4|9=100|35=P|49=TESTI|56=TESTA|34=7|52=20030204-09:17:25|70=3659000001|60=20060108-10:00:53|87=0|573=0|88=A|10=198|
8=FIX.4.4|9=100|35=P|49=TESTI|56=TESTA|34=7|52=20030204-09:17:25|70=3659000001|60=20060108-10:00:53|87=0|573=0|88=b|10=198|
8=FIX.4.4|9=140|35=1|34=104|49=SNDR|56=TRGT|52=20090407-09:48:19.812|112= TEST #022 CHECK 4 REJECT MSGS with INVALID MESSAGE - INCORRECT DATA TYPE [MsgType:_P, Tag:_88]|10=018|
8=FIX.4.4|9=147|35=C|49=TESTI|56=TESTA|34=4|52=20030203-16:20:05|164=111111111|94=-1|147=Bunny's Birthday|33=3|58=Hello, Bunny!|58=Happy Birthday to you :)|58=Bye.|10=133|
8=FIX.4.4|9=147|35=C|49=TESTI|56=TESTA|34=4|52=20030203-16:20:05|164=111111111|94=3|147=Bunny's Birthday|33=3|58=Hello, Bunny!|58=Happy Birthday to you :)|58=Bye.|10=133|
8=FIX.4.4|9=147|35=C|49=TESTI|56=TESTA|34=4|52=20030203-16:20:05|164=111111111|94=A|147=Bunny's Birthday|33=3|58=Hello, Bunny!|58=Happy Birthday to you :)|58=Bye.|10=133|
8=FIX.4.4|9=147|35=C|49=TESTI|56=TESTA|34=4|52=20030203-16:20:05|164=111111111|94=b|147=Bunny's Birthday|33=3|58=Hello, Bunny!|58=Happy Birthday to you :)|58=Bye.|10=133|
8=FIX.4.4|9=140|35=1|34=104|49=SNDR|56=TRGT|52=20090407-09:48:19.812|112= TEST #023 CHECK 4 REJECT MSGS with INVALID MESSAGE - INCORRECT DATA TYPE [MsgType:_C, Tag:_94]|10=018|
8=FIX.4.4|9=123|35=D|49=TESTI|56=TESTA|34=4|52=20030204-08:46:14|11=90001008|100=X|55=TESTB|54=1|60=20060217-10:00:00|38=4000|40=1|10=113|
8=FIX.4.4|9=123|35=D|49=TESTI|56=TESTA|34=4|52=20030204-08:46:14|11=90001008|100=0|55=TESTB|54=1|60=20060217-10:00:00|38=4000|40=1|10=113|
8=FIX.4.4|9=123|35=D|49=TESTI|56=TESTA|34=4|52=20030204-08:46:14|11=90001008|100=-1|55=TESTB|54=1|60=20060217-10:00:00|38=4000|40=1|10=113|
8=FIX.4.4|9=123|35=D|49=TESTI|56=TESTA|34=4|52=20030204-08:46:14|11=90001008|100=xCUE|55=TESTB|54=1|60=20060217-10:00:00|38=4000|40=1|10=113|
8=FIX.4.4|9=140|35=1|34=104|49=SNDR|56=TRGT|52=20090407-09:48:19.812|112= TEST #024 CHECK 4 REJECT MSGS with INVALID MESSAGE - INCORRECT DATA TYPE [MsgType:_D, Tag:_100]|10=018|
8=FIX.4.4|9=108|35=9|49=TESTI|56=TESTA|34=3|52=20030203-16:13:14|37=11111111|11=12121212122|41=11111111111|39=0|434=1|102=-1|10=218|
8=FIX.4.4|9=108|35=9|49=TESTI|56=TESTA|34=3|52=20030203-16:13:14|37=11111111|11=12121212122|41=11111111111|39=0|434=1|102=7|10=218|
8=FIX.4.4|9=108|35=9|49=TESTI|56=TESTA|34=3|52=20030203-16:13:14|37=11111111|11=12121212122|41=11111111111|39=0|434=1|102=A|10=218|
8=FIX.4.4|9=108|35=9|49=TESTI|56=TESTA|34=3|52=20030203-16:13:14|37=11111111|11=12121212122|41=11111111111|39=0|434=1|102=b|10=218|
8=FIX.4.4|9=140|35=1|34=104|49=SNDR|56=TRGT|52=20090407-09:48:19.812|112= TEST #025 CHECK 4 REJECT MSGS with INVALID MESSAGE - INCORRECT DATA TYPE [MsgType:_9, Tag:_102]|10=018|
8=FIX.4.4|9=126|35=8|49=TESTI|56=TESTA|34=114|52=20030203-16:09:30|37=11111111|17=11|39=0|103=-1|150=0|55=TESTB|54=1|38=1000|151=1000|14=0|6=0|10=060|
8=FIX.4.4|9=126|35=8|49=TESTI|56=TESTA|34=114|52=20030203-16:09:30|37=11111111|17=11|39=0|103=16|150=0|55=TESTB|54=1|38=1000|151=1000|14=0|6=0|10=060|
8=FIX.4.4|9=126|35=8|49=TESTI|56=TESTA|34=114|52=20030203-16:09:30|37=11111111|17=11|39=0|103=A|150=0|55=TESTB|54=1|38=1000|151=1000|14=0|6=0|10=060|
8=FIX.4.4|9=126|35=8|49=TESTI|56=TESTA|34=114|52=20030203-16:09:30|37=11111111|17=11|39=0|103=b|150=0|55=TESTB|54=1|38=1000|151=1000|14=0|6=0|10=060|
8=FIX.4.4|9=140|35=1|34=104|49=SNDR|56=TRGT|52=20090407-09:48:19.812|112= TEST #026 CHECK 4 REJECT MSGS with INVALID MESSAGE - INCORRECT DATA TYPE [MsgType:_8, Tag:_103]|10=018|
8=FIX.4.4|9=93|35=6|49=TESTI|56=TESTA|34=121|52=20030203-16:10:01|23=24|28=N|55=TESTB|54=1|27=S|199=1|104=a|10=145|
8=FIX.4.4|9=93|35=6|49=TESTI|56=TESTA|34=121|52=20030203-16:10:01|23=24|28=N|55=TESTB|54=1|27=S|199=1|104=z|10=145|
8=FIX.4.4|9=93|35=6|49=TESTI|56=TESTA|34=121|52=20030203-16:10:01|23=24|28=N|55=TESTB|54=1|27=S|199=1|104=-1|10=145|
8=FIX.4.4|9=93|35=6|49=TESTI|56=TESTA|34=121|52=20030203-16:10:01|23=24|28=N|55=TESTB|54=1|27=S|199=1|104=0|10=145|
8=FIX.4.4|9=140|35=1|34=104|49=SNDR|56=TRGT|52=20090407-09:48:19.812|112= TEST #027 CHECK 4 REJECT MSGS with INVALID MESSAGE - INCORRECT DATA TYPE [MsgType:_6, Tag:_104]|10=018|
8=FIX.4.4|9=126|35=8|49=TESTI|56=TESTA|34=114|52=20030203-16:09:30|37=11111111|17=11|39=0|150=0|55=TESTB|54=1|38=1000|151=1000|14=0|6=0|113=y|10=102|
8=FIX.4.4|9=126|35=8|49=TESTI|56=TESTA|34=114|52=20030203-16:09:30|37=11111111|17=11|39=0|150=0|55=TESTB|54=1|38=1000|151=1000|14=0|6=0|113=n|10=102|
8=FIX.4.4|9=126|35=8|49=TESTI|56=TESTA|34=114|52=20030203-16:09:30|37=11111111|17=11|39=0|150=0|55=TESTB|54=1|38=1000|151=1000|14=0|6=0|113=-1|10=102|
8=FIX.4.4|9=126|35=8|49=TESTI|56=TESTA|34=114|52=20030203-16:09:30|37=11111111|17=11|39=0|150=0|55=TESTB|54=1|38=1000|151=1000|14=0|6=0|113=0|10=102|
8=FIX.4.4|9=140|35=1|34=104|49=SNDR|56=TRGT|52=20090407-09:48:19.812|112= TEST #028 CHECK 4 REJECT MSGS with INVALID MESSAGE - INCORRECT DATA TYPE [MsgType:_8, Tag:_113]|10=018|
8=FIX.4.4|9=132|35=G|49=TESTI|56=TESTA|34=6|52=20030204-08:49:18|11=12233345|41=90001008|21=2|55=TESTB|54=1|60=20060117-10:00:00|38=4000|40=1|114=y|10=008|
8=FIX.4.4|9=132|35=G|49=TESTI|56=TESTA|34=6|52=20030204-08:49:18|11=12233345|41=90001008|21=2|55=TESTB|54=1|60=20060117-10:00:00|38=4000|40=1|114=n|10=008|
8=FIX.4.4|9=132|35=G|49=TESTI|56=TESTA|34=6|52=20030204-08:49:18|11=12233345|41=90001008|21=2|55=TESTB|54=1|60=20060117-10:00:00|38=4000|40=1|114=-1|10=008|
8=FIX.4.4|9=132|35=G|49=TESTI|56=TESTA|34=6|52=20030204-08:49:18|11=12233345|41=90001008|21=2|55=TESTB|54=1|60=20060117-10:00:00|38=4000|40=1|114=0|10=008|
8=FIX.4.4|9=140|35=1|34=104|49=SNDR|56=TRGT|52=20090407-09:48:19.812|112= TEST #029 CHECK 4 REJECT MSGS with INVALID MESSAGE - INCORRECT DATA TYPE [MsgType:_G, Tag:_114]|10=018|
8=FIX.4.4|9=123|35=D|49=TESTI|56=TESTA|34=4|52=20030204-08:46:14|11=90001008|55=TESTB|54=1|60=20060217-10:00:00|38=4000|40=1|121=Y|120=AfA|10=113|
8=FIX.4.4|9=123|35=D|49=TESTI|56=TESTA|34=4|52=20030204-08:46:14|11=90001008|55=TESTB|54=1|60=20060217-10:00:00|38=4000|40=1|121=Y|120=xxx|10=113|
8=FIX.4.4|9=123|35=D|49=TESTI|56=TESTA|34=4|52=20030204-08:46:14|11=90001008|55=TESTB|54=1|60=20060217-10:00:00|38=4000|40=1|121=Y|120=-1|10=113|
8=FIX.4.4|9=123|35=D|49=TESTI|56=TESTA|34=4|52=20030204-08:46:14|11=90001008|55=TESTB|54=1|60=20060217-10:00:00|38=4000|40=1|121=Y|120=0|10=113|
8=FIX.4.4|9=140|35=1|34=104|49=SNDR|56=TRGT|52=20090407-09:48:19.812|112= TEST #030 CHECK 4 REJECT MSGS with INVALID MESSAGE - INCORRECT DATA TYPE [MsgType:_D, Tag:_120]|10=018|
8=FIX.4.4|9=123|35=D|49=TESTI|56=TESTA|34=4|50=30737|97=Y|52=20030204-08:46:14|11=90001008|55=TESTB|54=1|60=20060217-10:00:00|38=4000|40=1|121=y|10=113|
8=FIX.4.4|9=123|35=D|49=TESTI|56=TESTA|34=4|50=30737|97=Y|52=20030204-08:46:14|11=90001008|55=TESTB|54=1|60=20060217-10:00:00|38=4000|40=1|121=n|10=113|
8=FIX.4.4|9=123|35=D|49=TESTI|56=TESTA|34=4|50=30737|97=Y|52=20030204-08:46:14|11=90001008|55=TESTB|54=1|60=20060217-10:00:00|38=4000|40=1|121=-1|10=113|
8=FIX.4.4|9=123|35=D|49=TESTI|56=TESTA|34=4|50=30737|97=Y|52=20030204-08:46:14|11=90001008|55=TESTB|54=1|60=20060217-10:00:00|38=4000|40=1|121=0|10=113|
8=FIX.4.4|9=140|35=1|34=104|49=SNDR|56=TRGT|52=20090407-09:48:19.812|112= TEST #031 CHECK 4 REJECT MSGS with INVALID MESSAGE - INCORRECT DATA TYPE [MsgType:_D, Tag:_121]|10=018|
8=FIX.4.4|9=95|35=Q|49=TESTI|56=TESTA|34=4|52=20030204-09:28:44|37=01923883|17=11|127=a|55=TESTB|54=1|38=4000|10=031|
8=FIX.4.4|9=95|35=Q|49=TESTI|56=TESTA|34=4|52=20030204-09:28:44|37=01923883|17=11|127=z|55=TESTB|54=1|38=4000|10=031|
8=FIX.4.4|9=95|35=Q|49=TESTI|56=TESTA|34=4|52=20030204-09:28:44|37=01923883|17=11|127=0|55=TESTB|54=1|38=4000|10=031|
8=FIX.4.4|9=95|35=Q|49=TESTI|56=TESTA|34=4|52=20030204-09:28:44|37=01923883|17=11|127=-1|55=TESTB|54=1|38=4000|10=031|
8=FIX.4.4|9=140|35=1|34=104|49=SNDR|56=TRGT|52=20090407-09:48:19.812|112= TEST #032 CHECK 4 REJECT MSGS with INVALID MESSAGE - INCORRECT DATA TYPE [MsgType:_Q, Tag:_127]|10=018|
8=FIX.4.4|9=87|35=6|49=TESTI|56=TESTA|34=121|52=20030203-16:10:01|23=24|28=N|55=TESTB|54=1|27=S|130=y|10=142|
8=FIX.4.4|9=87|35=6|49=TESTI|56=TESTA|34=121|52=20030203-16:10:01|23=24|28=N|55=TESTB|54=1|27=S|130=n|10=142|
8=FIX.4.4|9=87|35=6|49=TESTI|56=TESTA|34=121|52=20030203-16:10:01|23=24|28=N|55=TESTB|54=1|27=S|130=-1|10=142|
8=FIX.4.4|9=87|35=6|49=TESTI|56=TESTA|34=121|52=20030203-16:10:01|23=24|28=N|55=TESTB|54=1|27=S|130=0|10=142|
8=FIX.4.4|9=140|35=1|34=104|49=SNDR|56=TRGT|52=20090407-09:48:19.812|112= TEST #033 CHECK 4 REJECT MSGS with INVALID MESSAGE - INCORRECT DATA TYPE [MsgType:_6, Tag:_130]|10=018|
8=FIX.4.4|9=120|35=8|49=TESTI|56=TESTA|34=114|52=20030203-16:09:30|37=11111111|17=11|39=0|150=0|55=TESTB|54=1|38=1000|151=1000|14=0|6=0|136=1|137=10|138=AfA|139=1|10=052|
8=FIX.4.4|9=120|35=8|49=TESTI|56=TESTA|34=114|52=20030203-16:09:30|37=11111111|17=11|39=0|150=0|55=TESTB|54=1|38=1000|151=1000|14=0|6=0|136=1|137=10|138=xxx|139=1|10=052|
8=FIX.4.4|9=120|35=8|49=TESTI|56=TESTA|34=114|52=20030203-16:09:30|37=11111111|17=11|39=0|150=0|55=TESTB|54=1|38=1000|151=1000|14=0|6=0|136=1|137=10|138=-1|139=1|10=052|
8=FIX.4.4|9=120|35=8|49=TESTI|56=TESTA|34=114|52=20030203-16:09:30|37=11111111|17=11|39=0|150=0|55=TESTB|54=1|38=1000|151=1000|14=0|6=0|136=1|137=10|138=0|139=1|10=052|
8=FIX.4.4|9=140|35=1|34=104|49=SNDR|56=TRGT|52=20090407-09:48:19.812|112= TEST #034 CHECK 4 REJECT MSGS with INVALID MESSAGE - INCORRECT DATA TYPE [MsgType:_8, Tag:_138]|10=018|
8=FIX.4.4|9=94|35=BA|49=TESTI|56=TESTA|34=4|52=20030204-08:46:14|908=0001|910=0|136=1|137=22|139=0|10=062|
8=FIX.4.4|9=94|35=BA|49=TESTI|56=TESTA|34=4|52=20030204-08:46:14|908=0001|910=0|136=1|137=22|139=-1|10=062|
8=FIX.4.4|9=94|35=BA|49=TESTI|56=TESTA|34=4|52=20030204-08:46:14|908=0001|910=0|136=1|137=22|139=A|10=062|
8=FIX.4.4|9=94|35=BA|49=TESTI|56=TESTA|34=4|52=20030204-08:46:14|908=0001|910=0|136=1|137=22|139=b|10=062|
8=FIX.4.4|9=140|35=1|34=104|49=SNDR|56=TRGT|52=20090407-09:48:19.812|112= TEST #035 CHECK 4 REJECT MSGS with INVALID MESSAGE - INCORRECT DATA TYPE [MsgType:_BA, Tag:_139]|10=018|
8=FIX.4.4|9=120|35=8|49=TESTI|56=TESTA|34=114|52=20030203-16:09:30|37=11111111|17=11|39=0|150=-1|55=TESTB|54=1|38=1000|151=1000|14=0|6=0|10=052|
8=FIX.4.4|9=120|35=8|49=TESTI|56=TESTA|34=114|52=20030203-16:09:30|37=11111111|17=11|39=0|150=10|55=TESTB|54=1|38=1000|151=1000|14=0|6=0|10=052|
8=FIX.4.4|9=120|35=8|49=TESTI|56=TESTA|34=114|52=20030203-16:09:30|37=11111111|17=11|39=0|150=a|55=TESTB|54=1|38=1000|151=1000|14=0|6=0|10=052|
8=FIX.4.4|9=120|35=8|49=TESTI|56=TESTA|34=114|52=20030203-16:09:30|37=11111111|17=11|39=0|150=K|55=TESTB|54=1|38=1000|151=1000|14=0|6=0|10=052|
8=FIX.4.4|9=140|35=1|34=104|49=SNDR|56=TRGT|52=20090407-09:48:19.812|112= TEST #036 CHECK 4 REJECT MSGS with INVALID MESSAGE - INCORRECT DATA TYPE [MsgType:_8, Tag:_150]|10=018|
8=FIX.4.4|9=120|35=8|49=TESTI|56=TESTA|34=114|52=20030203-16:09:30|37=11111111|17=11|39=0|150=0|55=TESTB|54=1|38=1000|151=1000|14=0|6=0|156=m|10=052|
8=FIX.4.4|9=120|35=8|49=TESTI|56=TESTA|34=114|52=20030203-16:09:30|37=11111111|17=11|39=0|150=0|55=TESTB|54=1|38=1000|151=1000|14=0|6=0|156=d|10=052|
8=FIX.4.4|9=120|35=8|49=TESTI|56=TESTA|34=114|52=20030203-16:09:30|37=11111111|17=11|39=0|150=0|55=TESTB|54=1|38=1000|151=1000|14=0|6=0|156=-1|10=052|
8=FIX.4.4|9=120|35=8|49=TESTI|56=TESTA|34=114|52=20030203-16:09:30|37=11111111|17=11|39=0|150=0|55=TESTB|54=1|38=1000|151=1000|14=0|6=0|156=0|10=052|
8=FIX.4.4|9=140|35=1|34=104|49=SNDR|56=TRGT|52=20090407-09:48:19.812|112= TEST #037 CHECK 4 REJECT MSGS with INVALID MESSAGE - INCORRECT DATA TYPE [MsgType:_8, Tag:_156]|10=018|
8=FIX.4.4|9=95|35=T|49=TESTI|56=TESTA|34=14|52=20030204-09:25:43|777=112233|160=0|792=99|60=20060217-10:00:00|10=211|
8=FIX.4.4|9=95|35=T|49=TESTI|56=TESTA|34=14|52=20030204-09:25:43|777=112233|160=-1|792=99|60=20060217-10:00:00|10=211|
8=FIX.4.4|9=95|35=T|49=TESTI|56=TESTA|34=14|52=20030204-09:25:43|777=112233|160=A|792=99|60=20060217-10:00:00|10=211|
8=FIX.4.4|9=95|35=T|49=TESTI|56=TESTA|34=14|52=20030204-09:25:43|777=112233|160=b|792=99|60=20060217-10:00:00|10=211|
8=FIX.4.4|9=140|35=1|34=104|49=SNDR|56=TRGT|52=20090407-09:48:19.812|112= TEST #038 CHECK 4 REJECT MSGS with INVALID MESSAGE - INCORRECT DATA TYPE [MsgType:_T, Tag:_160]|10=018|
8=FIX.4.4|9=118|35=T|49=TESTI|56=TESTA|34=14|52=20030204-09:25:43|777=112233|160=5|792=99|60=20060217-10:00:00|778=1|162=100001|163=n|10=057|
8=FIX.4.4|9=118|35=T|49=TESTI|56=TESTA|34=14|52=20030204-09:25:43|777=112233|160=5|792=99|60=20060217-10:00:00|778=1|162=100001|163=t|10=057|
8=FIX.4.4|9=118|35=T|49=TESTI|56=TESTA|34=14|52=20030204-09:25:43|777=112233|160=5|792=99|60=20060217-10:00:00|778=1|162=100001|163=0|10=057|
8=FIX.4.4|9=118|35=T|49=TESTI|56=TESTA|34=14|52=20030204-09:25:43|777=112233|160=5|792=99|60=20060217-10:00:00|778=1|162=100001|163=-1|10=057|
8=FIX.4.4|9=140|35=1|34=104|49=SNDR|56=TRGT|52=20090407-09:48:19.812|112= TEST #039 CHECK 4 REJECT MSGS with INVALID MESSAGE - INCORRECT DATA TYPE [MsgType:_T, Tag:_163]|10=018|
8=FIX.4.4|9=153|35=AY|49=TESTI|56=TESTA|34=4|52=20030204-08:46:14|902=0001|895=0|903=0|60=20060217-10:00:00|172=1|85=1|165=0|787=C|781=1|782=TST782|783=8|784=1|10=210|
8=FIX.4.4|9=153|35=AY|49=TESTI|56=TESTA|34=4|52=20030204-08:46:14|902=0001|895=0|903=0|60=20060217-10:00:00|172=1|85=1|165=-1|787=C|781=1|782=TST782|783=8|784=1|10=210|
8=FIX.4.4|9=153|35=AY|49=TESTI|56=TESTA|34=4|52=20030204-08:46:14|902=0001|895=0|903=0|60=20060217-10:00:00|172=1|85=1|165=A|787=C|781=1|782=TST782|783=8|784=1|10=210|
8=FIX.4.4|9=153|35=AY|49=TESTI|56=TESTA|34=4|52=20030204-08:46:14|902=0001|895=0|903=0|60=20060217-10:00:00|172=1|85=1|165=b|787=C|781=1|782=TST782|783=8|784=1|10=210|
8=FIX.4.4|9=140|35=1|34=104|49=SNDR|56=TRGT|52=20090407-09:48:19.812|112= TEST #040 CHECK 4 REJECT MSGS with INVALID MESSAGE - INCORRECT DATA TYPE [MsgType:_AY, Tag:_165]|10=018|
8=FIX.4.4|9=67|35=v|49=TESTI|56=TESTA|34=14|52=20030204-09:25:43|320=11223|167=ba|10=188|
8=FIX.4.4|9=68|35=v|49=TESTI|56=TESTA|34=14|52=20030204-09:25:43|320=11223|167=aBS|10=016|
8=FIX.4.4|9=69|35=v|49=TESTI|56=TESTA|34=14|52=20030204-09:25:43|320=11223|167=0|10=096|
8=FIX.4.4|9=70|35=v|49=TESTI|56=TESTA|34=14|52=20030204-09:25:43|320=11223|167=-1|10=165|
8=FIX.4.4|9=140|35=1|34=104|49=SNDR|56=TRGT|52=20090407-09:48:19.812|112= TEST #041 CHECK 4 REJECT MSGS with INVALID MESSAGE - INCORRECT DATA TYPE [MsgType:_v, Tag:_167]|10=018|
8=FIX.4.4|9=86|35=BA|49=TESTI|56=TESTA|34=4|52=20030204-08:46:14|908=0001|910=0|172=1|169=5|10=216|
8=FIX.4.4|9=86|35=BA|49=TESTI|56=TESTA|34=4|52=20030204-08:46:14|908=0001|910=0|172=1|169=-1|10=216|
8=FIX.4.4|9=86|35=BA|49=TESTI|56=TESTA|34=4|52=20030204-08:46:14|908=0001|910=0|172=1|169=A|10=216|
8=FIX.4.4|9=86|35=BA|49=TESTI|56=TESTA|34=4|52=20030204-08:46:14|908=0001|910=0|172=1|169=b|10=216|
8=FIX.4.4|9=140|35=1|34=104|49=SNDR|56=TRGT|52=20090407-09:48:19.812|112= TEST #042 CHECK 4 REJECT MSGS with INVALID MESSAGE - INCORRECT DATA TYPE [MsgType:_BA, Tag:_169]|10=018|
8=FIX.4.4|9=143|35=AS|49=TESTI|56=TESTA|34=4|52=20030204-08:46:14|755=0001|71=0|794=5|87=0|197=2|857=0|54=2|55=TESTB|53=10000|6=10.5|75=20060217|10=240|
8=FIX.4.4|9=143|35=AS|49=TESTI|56=TESTA|34=4|52=20030204-08:46:14|755=0001|71=0|794=5|87=0|197=-1|857=0|54=2|55=TESTB|53=10000|6=10.5|75=20060217|10=240|
8=FIX.4.4|9=143|35=AS|49=TESTI|56=TESTA|34=4|52=20030204-08:46:14|755=0001|71=0|794=5|87=0|197=A|857=0|54=2|55=TESTB|53=10000|6=10.5|75=20060217|10=240|
8=FIX.4.4|9=143|35=AS|49=TESTI|56=TESTA|34=4|52=20030204-08:46:14|755=0001|71=0|794=5|87=0|197=b|857=0|54=2|55=TESTB|53=10000|6=10.5|75=20060217|10=240|
8=FIX.4.4|9=140|35=1|34=104|49=SNDR|56=TRGT|52=20090407-09:48:19.812|112= TEST #043 CHECK 4 REJECT MSGS with INVALID MESSAGE - INCORRECT DATA TYPE [MsgType:_AS, Tag:_197]|10=018|
8=FIX.4.4|9=129|35=D|49=TESTI|56=TESTA|34=4|52=20030204-08:46:14|11=90001008|55=TESTB|54=1|60=20060217-10:00:00|38=4000|40=1|203=-1|10=123|
8=FIX.4.4|9=129|35=D|49=TESTI|56=TESTA|34=4|52=20030204-08:46:14|11=90001008|55=TESTB|54=1|60=20060217-10:00:00|38=4000|40=1|203=2|10=123|
8=FIX.4.4|9=129|35=D|49=TESTI|56=TESTA|34=4|52=20030204-08:46:14|11=90001008|55=TESTB|54=1|60=20060217-10:00:00|38=4000|40=1|203=A|10=123|
8=FIX.4.4|9=129|35=D|49=TESTI|56=TESTA|34=4|52=20030204-08:46:14|11=90001008|55=TESTB|54=1|60=20060217-10:00:00|38=4000|40=1|203=b|10=123|
8=FIX.4.4|9=140|35=1|34=104|49=SNDR|56=TRGT|52=20090407-09:48:19.812|112= TEST #044 CHECK 4 REJECT MSGS with INVALID MESSAGE - INCORRECT DATA TYPE [MsgType:_D, Tag:_203]|10=018|
8=FIX.4.4|9=157|35=AS|49=TESTI|56=TESTA|34=4|52=20030204-08:46:14|755=0001|71=0|794=5|87=0|857=0|54=2|55=TESTB|53=10000|6=10.5|75=20060217|78=1|79=00079|208=y|10=152|
8=FIX.4.4|9=157|35=AS|49=TESTI|56=TESTA|34=4|52=20030204-08:46:14|755=0001|71=0|794=5|87=0|857=0|54=2|55=TESTB|53=10000|6=10.5|75=20060217|78=1|79=00079|208=n|10=152|
8=FIX.4.4|9=157|35=AS|49=TESTI|56=TESTA|34=4|52=20030204-08:46:14|755=0001|71=0|794=5|87=0|857=0|54=2|55=TESTB|53=10000|6=10.5|75=20060217|78=1|79=00079|208=0|10=152|
8=FIX.4.4|9=157|35=AS|49=TESTI|56=TESTA|34=4|52=20030204-08:46:14|755=0001|71=0|794=5|87=0|857=0|54=2|55=TESTB|53=10000|6=10.5|75=20060217|78=1|79=00079|208=-1|10=152|
8=FIX.4.4|9=140|35=1|34=104|49=SNDR|56=TRGT|52=20090407-09:48:19.812|112= TEST #045 CHECK 4 REJECT MSGS with INVALID MESSAGE - INCORRECT DATA TYPE [MsgType:_AS, Tag:_208]|10=018|
8=FIX.4.4|9=157|35=AS|49=TESTI|56=TESTA|34=4|52=20030204-08:46:14|755=0001|71=0|794=5|87=0|857=0|54=2|55=TESTB|53=10000|6=10.5|75=20060217|78=1|79=00079|209=0|10=124|
8=FIX.4.4|9=157|35=AS|49=TESTI|56=TESTA|34=4|52=20030204-08:46:14|755=0001|71=0|794=5|87=0|857=0|54=2|55=TESTB|53=10000|6=10.5|75=20060217|78=1|79=00079|209=-1|10=124|
8=FIX.4.4|9=157|35=AS|49=TESTI|56=TESTA|34=4|52=20030204-08:46:14|755=0001|71=0|794=5|87=0|857=0|54=2|55=TESTB|53=10000|6=10.5|75=20060217|78=1|79=00079|209=A|10=124|
8=FIX.4.4|9=157|35=AS|49=TESTI|56=TESTA|34=4|52=20030204-08:46:14|755=0001|71=0|794=5|87=0|857=0|54=2|55=TESTB|53=10000|6=10.5|75=20060217|78=1|79=00079|209=b|10=124|
8=FIX.4.4|9=140|35=1|34=104|49=SNDR|56=TRGT|52=20090407-09:48:19.812|112= TEST #046 CHECK 4 REJECT MSGS with INVALID MESSAGE - INCORRECT DATA TYPE [MsgType:_AS, Tag:_209]|10=018|
8=FIX.4.4|9=166|35=B|49=TESTI|56=TESTA|34=19|52=20030203-16:21:17|148=Weather|215=1|216=0|217=000217|33=4|58=In the evening |58=it might be wet |58=and windy.|58= Take your coat on.|10=207|
8=FIX.4.4|9=166|35=B|49=TESTI|56=TESTA|34=19|52=20030203-16:21:17|148=Weather|215=1|216=-1|217=000217|33=4|58=In the evening |58=it might be wet |58=and windy.|58= Take your coat on.|10=207|
8=FIX.4.4|9=166|35=B|49=TESTI|56=TESTA|34=19|52=20030203-16:21:17|148=Weather|215=1|216=A|217=000217|33=4|58=In the evening |58=it might be wet |58=and windy.|58= Take your coat on.|10=207|
8=FIX.4.4|9=166|35=B|49=TESTI|56=TESTA|34=19|52=20030203-16:21:17|148=Weather|215=1|216=b|217=000217|33=4|58=In the evening |58=it might be wet |58=and windy.|58= Take your coat on.|10=207|
8=FIX.4.4|9=140|35=1|34=104|49=SNDR|56=TRGT|52=20090407-09:48:19.812|112= TEST #047 CHECK 4 REJECT MSGS with INVALID MESSAGE - INCORRECT DATA TYPE [MsgType:_B, Tag:_216]|10=018|
8=FIX.4.4|9=194|35=AE|49=TESTI|56=TESTA|34=4|52=20030204-08:46:14|571=90001008|150=F|570=N|55=TESTA|32=1000|31=10.4|75=20060217|221=SwAP|60=20060217-10:00:00|552=2|54=1|37=0001|54=2|37=0002|10=204|
8=FIX.4.4|9=195|35=AE|49=TESTI|56=TESTA|34=4|52=20030204-08:46:14|571=90001008|150=F|570=N|55=TESTA|32=1000|31=10.4|75=20060217|221=Libor|60=20060217-10:00:00|552=2|54=1|37=0001|54=2|37=0002|10=010|
8=FIX.4.4|9=196|35=AE|49=TESTI|56=TESTA|34=4|52=20030204-08:46:14|571=90001008|150=F|570=N|55=TESTA|32=1000|31=10.4|75=20060217|221=0|60=20060217-10:00:00|552=2|54=1|37=0001|54=2|37=0002|10=099|
8=FIX.4.4|9=197|35=AE|49=TESTI|56=TESTA|34=4|52=20030204-08:46:14|571=90001008|150=F|570=N|55=TESTA|32=1000|31=10.4|75=20060217|221=-1|60=20060217-10:00:00|552=2|54=1|37=0001|54=2|37=0002|10=108|
8=FIX.4.4|9=140|35=1|34=104|49=SNDR|56=TRGT|52=20090407-09:48:19.812|112= TEST #048 CHECK 4 REJECT MSGS with INVALID MESSAGE - INCORRECT DATA TYPE [MsgType:_AE, Tag:_221]|10=018|
8=FIX.4.4|9=151|35=AS|49=TESTI|56=TESTA|34=4|52=20030204-08:46:14|755=0001|71=0|794=5|87=0|857=0|54=2|55=TESTB|53=10000|6=10.5|75=20060217|232=1|233=aMT|10=158|
8=FIX.4.4|9=152|35=AS|49=TESTI|56=TESTA|34=4|52=20030204-08:46:14|755=0001|71=0|794=5|87=0|857=0|54=2|55=TESTB|53=10000|6=10.5|75=20060217|232=1|233=Geog|10=223|
8=FIX.4.4|9=153|35=AS|49=TESTI|56=TESTA|34=4|52=20030204-08:46:14|755=0001|71=0|794=5|87=0|857=0|54=2|55=TESTB|53=10000|6=10.5|75=20060217|232=1|233=0|10=071|
8=FIX.4.4|9=154|35=AS|49=TESTI|56=TESTA|34=4|52=20030204-08:46:14|755=0001|71=0|794=5|87=0|857=0|54=2|55=TESTB|53=10000|6=10.5|75=20060217|232=1|233=-1|10=151|
8=FIX.4.4|9=140|35=1|34=104|49=SNDR|56=TRGT|52=20090407-09:48:19.812|112= TEST #049 CHECK 4 REJECT MSGS with INVALID MESSAGE - INCORRECT DATA TYPE [MsgType:_AS, Tag:_233]|10=018|
8=FIX.4.4|9=86|35=S|49=TESTI|56=TESTA|34=14|52=20030204-09:25:43|117=11223|55=TESTB|133=15.3|235=put|10=214|
8=FIX.4.4|9=88|35=S|49=TESTI|56=TESTA|34=14|52=20030204-09:25:43|117=11223|55=TESTB|133=15.3|235=gross|10=109|
8=FIX.4.4|9=89|35=S|49=TESTI|56=TESTA|34=14|52=20030204-09:25:43|117=11223|55=TESTB|133=15.3|235=0|10=134|
8=FIX.4.4|9=90|35=S|49=TESTI|56=TESTA|34=14|52=20030204-09:25:43|117=11223|55=TESTB|133=15.3|235=-1|10=251|
8=FIX.4.4|9=140|35=1|34=104|49=SNDR|56=TRGT|52=20090407-09:48:19.812|112= TEST #050 CHECK 4 REJECT MSGS with INVALID MESSAGE - INCORRECT DATA TYPE [MsgType:_S, Tag:_235]|10=018|
8=FIX.4.4|9=126|35=8|49=TESTI|56=TESTA|34=114|52=20030203-16:09:30|37=11111111|17=11|39=0|150=0|55=TESTB|54=1|38=1000|151=1000|14=0|6=0|258=n|10=101|
8=FIX.4.4|9=126|35=8|49=TESTI|56=TESTA|34=114|52=20030203-16:09:30|37=11111111|17=11|39=0|150=0|55=TESTB|54=1|38=1000|151=1000|14=0|6=0|258=y|10=101|
8=FIX.4.4|9=126|35=8|49=TESTI|56=TESTA|34=114|52=20030203-16:09:30|37=11111111|17=11|39=0|150=0|55=TESTB|54=1|38=1000|151=1000|14=0|6=0|258=0|10=101|
8=FIX.4.4|9=126|35=8|49=TESTI|56=TESTA|34=114|52=20030203-16:09:30|37=11111111|17=11|39=0|150=0|55=TESTB|54=1|38=1000|151=1000|14=0|6=0|258=-1|10=101|
8=FIX.4.4|9=140|35=1|34=104|49=SNDR|56=TRGT|52=20090407-09:48:19.812|112= TEST #051 CHECK 4 REJECT MSGS with INVALID MESSAGE - INCORRECT DATA TYPE [MsgType:_8, Tag:_258]|10=018|
8=FIX.4.4|9=65|35=g|49=TESTI|56=TESTA|34=14|52=20030204-09:25:43|335=0001|263=-1|10=035|
8=FIX.4.4|9=65|35=g|49=TESTI|56=TESTA|34=14|52=20030204-09:25:43|335=0001|263=3|10=035|
8=FIX.4.4|9=65|35=g|49=TESTI|56=TESTA|34=14|52=20030204-09:25:43|335=0001|263=A|10=035|
8=FIX.4.4|9=65|35=g|49=TESTI|56=TESTA|34=14|52=20030204-09:25:43|335=0001|263=b|10=035|
8=FIX.4.4|9=140|35=1|34=104|49=SNDR|56=TRGT|52=20090407-09:48:19.812|112= TEST #052 CHECK 4 REJECT MSGS with INVALID MESSAGE - INCORRECT DATA TYPE [MsgType:_g, Tag:_263]|10=018|
8=FIX.4.4|9=120|35=V|49=TESTI|56=TESTA|34=14|52=20030204-09:25:43|262=11223|263=0|264=0|265=3|267=2|269=0|269=1|146=2|55=TESTA|55=TESTB|10=019|
8=FIX.4.4|9=120|35=V|49=TESTI|56=TESTA|34=14|52=20030204-09:25:43|262=11223|263=0|264=0|265=-1|267=2|269=0|269=1|146=2|55=TESTA|55=TESTB|10=019|
8=FIX.4.4|9=120|35=V|49=TESTI|56=TESTA|34=14|52=20030204-09:25:43|262=11223|263=0|264=0|265=A|267=2|269=0|269=1|146=2|55=TESTA|55=TESTB|10=019|
8=FIX.4.4|9=120|35=V|49=TESTI|56=TESTA|34=14|52=20030204-09:25:43|262=11223|263=0|264=0|265=b|267=2|269=0|269=1|146=2|55=TESTA|55=TESTB|10=019|
8=FIX.4.4|9=140|35=1|34=104|49=SNDR|56=TRGT|52=20090407-09:48:19.812|112= TEST #053 CHECK 4 REJECT MSGS with INVALID MESSAGE - INCORRECT DATA TYPE [MsgType:_V, Tag:_265]|10=018|
8=FIX.4.4|9=101|35=W|49=TESTI|56=TESTA|34=14|52=20030204-09:25:43|55=TESTA|268=2|269=9|270=10|269=-1|270=11|271=17.09|10=082|
8=FIX.4.4|9=101|35=W|49=TESTI|56=TESTA|34=14|52=20030204-09:25:43|55=TESTA|268=2|269=9|270=10|269=10|270=11|271=17.09|10=082|
8=FIX.4.4|9=101|35=W|49=TESTI|56=TESTA|34=14|52=20030204-09:25:43|55=TESTA|268=2|269=9|270=10|269=D|270=11|271=17.09|10=082|
8=FIX.4.4|9=101|35=W|49=TESTI|56=TESTA|34=14|52=20030204-09:25:43|55=TESTA|268=2|269=9|270=10|269=a|270=11|271=17.09|10=082|
8=FIX.4.4|9=140|35=1|34=104|49=SNDR|56=TRGT|52=20090407-09:48:19.812|112= TEST #054 CHECK 4 REJECT MSGS with INVALID MESSAGE - INCORRECT DATA TYPE [MsgType:_W, Tag:_269]|10=018|
8=FIX.4.4|9=103|35=W|49=TESTI|56=TESTA|34=14|52=20030204-09:25:43|55=TESTA|268=2|269=4|270=10|274=0|269=5|270=11|274=4|10=129|
8=FIX.4.4|9=103|35=W|49=TESTI|56=TESTA|34=14|52=20030204-09:25:43|55=TESTA|268=2|269=4|270=10|274=0|269=5|270=11|274=-1|10=129|
8=FIX.4.4|9=103|35=W|49=TESTI|56=TESTA|34=14|52=20030204-09:25:43|55=TESTA|268=2|269=4|270=10|274=0|269=5|270=11|274=A|10=129|
8=FIX.4.4|9=103|35=W|49=TESTI|56=TESTA|34=14|52=20030204-09:25:43|55=TESTA|268=2|269=4|270=10|274=0|269=5|270=11|274=b|10=129|
8=FIX.4.4|9=140|35=1|34=104|49=SNDR|56=TRGT|52=20090407-09:48:19.812|112= TEST #055 CHECK 4 REJECT MSGS with INVALID MESSAGE - INCORRECT DATA TYPE [MsgType:_W, Tag:_274]|10=018|
8=FIX.4.4|9=130|35=X|49=TESTI|56=TESTA|34=14|52=20030204-09:25:43|268=2|279=0|269=2|280=0001|270=10|271=9.01|279=3|269=2|280=0002|270=11|271=.090|10=209|
8=FIX.4.4|9=130|35=X|49=TESTI|56=TESTA|34=14|52=20030204-09:25:43|268=2|279=0|269=2|280=0001|270=10|271=9.01|279=-1|269=2|280=0002|270=11|271=.090|10=209|
8=FIX.4.4|9=130|35=X|49=TESTI|56=TESTA|34=14|52=20030204-09:25:43|268=2|279=0|269=2|280=0001|270=10|271=9.01|279=A|269=2|280=0002|270=11|271=.090|10=209|
8=FIX.4.4|9=130|35=X|49=TESTI|56=TESTA|34=14|52=20030204-09:25:43|268=2|279=0|269=2|280=0001|270=10|271=9.01|279=b|269=2|280=0002|270=11|271=.090|10=209|
8=FIX.4.4|9=140|35=1|34=104|49=SNDR|56=TRGT|52=20090407-09:48:19.812|112= TEST #056 CHECK 4 REJECT MSGS with INVALID MESSAGE - INCORRECT DATA TYPE [MsgType:_X, Tag:_279]|10=018|
8=FIX.4.4|9=66|35=Y|49=TESTI|56=TESTA|34=14|52=20030204-09:25:43|262=11223|281=-1|10=077|
8=FIX.4.4|9=66|35=Y|49=TESTI|56=TESTA|34=14|52=20030204-09:25:43|262=11223|281=10|10=077|
8=FIX.4.4|9=66|35=Y|49=TESTI|56=TESTA|34=14|52=20030204-09:25:43|262=11223|281=D|10=077|
8=FIX.4.4|9=66|35=Y|49=TESTI|56=TESTA|34=14|52=20030204-09:25:43|262=11223|281=b|10=077|
8=FIX.4.4|9=140|35=1|34=104|49=SNDR|56=TRGT|52=20090407-09:48:19.812|112= TEST #057 CHECK 4 REJECT MSGS with INVALID MESSAGE - INCORRECT DATA TYPE [MsgType:_Y, Tag:_281]|10=018|
8=FIX.4.4|9=112|35=X|49=TESTI|56=TESTA|34=14|52=20030204-09:25:43|268=2|279=1|285=0|280=0001|270=10|279=0|285=-1|280=0002|270=11|10=139|
8=FIX.4.4|9=112|35=X|49=TESTI|56=TESTA|34=14|52=20030204-09:25:43|268=2|279=1|285=0|280=0001|270=10|279=0|285=2|280=0002|270=11|10=139|
8=FIX.4.4|9=112|35=X|49=TESTI|56=TESTA|34=14|52=20030204-09:25:43|268=2|279=1|285=0|280=0001|270=10|279=0|285=A|280=0002|270=11|10=139|
8=FIX.4.4|9=112|35=X|49=TESTI|56=TESTA|34=14|52=20030204-09:25:43|268=2|279=1|285=0|280=0001|270=10|279=0|285=b|280=0002|270=11|10=139|
8=FIX.4.4|9=140|35=1|34=104|49=SNDR|56=TRGT|52=20090407-09:48:19.812|112= TEST #058 CHECK 4 REJECT MSGS with INVALID MESSAGE - INCORRECT DATA TYPE [MsgType:_X, Tag:_285]|10=018|
8=FIX.4.4|9=56|35=b|49=TESTI|56=TESTA|34=14|52=20030204-09:25:43|297=-1|10=139|
8=FIX.4.4|9=56|35=b|49=TESTI|56=TESTA|34=14|52=20030204-09:25:43|297=16|10=139|
8=FIX.4.4|9=56|35=b|49=TESTI|56=TESTA|34=14|52=20030204-09:25:43|297=A|10=139|
8=FIX.4.4|9=56|35=b|49=TESTI|56=TESTA|34=14|52=20030204-09:25:43|297=b|10=139|
8=FIX.4.4|9=140|35=1|34=104|49=SNDR|56=TRGT|52=20090407-09:48:19.812|112= TEST #059 CHECK 4 REJECT MSGS with INVALID MESSAGE - INCORRECT DATA TYPE [MsgType:_b, Tag:_297]|10=018|
8=FIX.4.4|9=66|35=Z|49=TESTI|56=TESTA|34=14|52=20030204-09:25:43|117=11223|298=0|10=089|
8=FIX.4.4|9=66|35=Z|49=TESTI|56=TESTA|34=14|52=20030204-09:25:43|117=11223|298=-1|10=089|
8=FIX.4.4|9=66|35=Z|49=TESTI|56=TESTA|34=14|52=20030204-09:25:43|117=11223|298=A|10=089|
8=FIX.4.4|9=66|35=Z|49=TESTI|56=TESTA|34=14|52=20030204-09:25:43|117=11223|298=b|10=089|
8=FIX.4.4|9=140|35=1|34=104|49=SNDR|56=TRGT|52=20090407-09:48:19.812|112= TEST #060 CHECK 4 REJECT MSGS with INVALID MESSAGE - INCORRECT DATA TYPE [MsgType:_Z, Tag:_298]|10=018|
8=FIX.4.4|9=62|35=b|49=TESTI|56=TESTA|34=14|52=20030204-09:25:43|297=0|300=0|10=138|
8=FIX.4.4|9=62|35=b|49=TESTI|56=TESTA|34=14|52=20030204-09:25:43|297=0|300=-1|10=138|
8=FIX.4.4|9=62|35=b|49=TESTI|56=TESTA|34=14|52=20030204-09:25:43|297=0|300=A|10=138|
8=FIX.4.4|9=62|35=b|49=TESTI|56=TESTA|34=14|52=20030204-09:25:43|297=0|300=b|10=138|
8=FIX.4.4|9=140|35=1|34=104|49=SNDR|56=TRGT|52=20090407-09:48:19.812|112= TEST #061 CHECK 4 REJECT MSGS with INVALID MESSAGE - INCORRECT DATA TYPE [MsgType:_b, Tag:_300]|10=018|
8=FIX.4.4|9=84|35=S|49=TESTI|56=TESTA|34=14|52=20030204-09:25:43|117=11223|301=-1|55=TESTB|133=15.3|10=005|
8=FIX.4.4|9=84|35=S|49=TESTI|56=TESTA|34=14|52=20030204-09:25:43|117=11223|301=3|55=TESTB|133=15.3|10=005|
8=FIX.4.4|9=84|35=S|49=TESTI|56=TESTA|34=14|52=20030204-09:25:43|117=11223|301=A|55=TESTB|133=15.3|10=005|
8=FIX.4.4|9=84|35=S|49=TESTI|56=TESTA|34=14|52=20030204-09:25:43|117=11223|301=b|55=TESTB|133=15.3|10=005|
8=FIX.4.4|9=140|35=1|34=104|49=SNDR|56=TRGT|52=20090407-09:48:19.812|112= TEST #062 CHECK 4 REJECT MSGS with INVALID MESSAGE - INCORRECT DATA TYPE [MsgType:_S, Tag:_301]|10=018|
8=FIX.4.4|9=97|35=R|49=TESTI|56=TESTA|34=8|52=20030204-09:25:21|131=1272727|146=2|55=TESTA|303=1|55=TESTB|303=0|10=231|
8=FIX.4.4|9=97|35=R|49=TESTI|56=TESTA|34=8|52=20030204-09:25:21|131=1272727|146=2|55=TESTA|303=1|55=TESTB|303=-1|10=231|
8=FIX.4.4|9=97|35=R|49=TESTI|56=TESTA|34=8|52=20030204-09:25:21|131=1272727|146=2|55=TESTA|303=1|55=TESTB|303=A|10=231|
8=FIX.4.4|9=97|35=R|49=TESTI|56=TESTA|34=8|52=20030204-09:25:21|131=1272727|146=2|55=TESTA|303=1|55=TESTB|303=b|10=231|
8=FIX.4.4|9=140|35=1|34=104|49=SNDR|56=TRGT|52=20090407-09:48:19.812|112= TEST #063 CHECK 4 REJECT MSGS with INVALID MESSAGE - INCORRECT DATA TYPE [MsgType:_R, Tag:_303]|10=018|
8=FIX.4.4|9=65|35=c|49=TESTI|56=TESTA|34=14|52=20030204-09:25:43|320=0001|321=-1|10=021|
8=FIX.4.4|9=65|35=c|49=TESTI|56=TESTA|34=14|52=20030204-09:25:43|320=0001|321=4|10=021|
8=FIX.4.4|9=65|35=c|49=TESTI|56=TESTA|34=14|52=20030204-09:25:43|320=0001|321=A|10=021|
8=FIX.4.4|9=65|35=c|49=TESTI|56=TESTA|34=14|52=20030204-09:25:43|320=0001|321=b|10=021|
8=FIX.4.4|9=140|35=1|34=104|49=SNDR|56=TRGT|52=20090407-09:48:19.812|112= TEST #064 CHECK 4 REJECT MSGS with INVALID MESSAGE - INCORRECT DATA TYPE [MsgType:_c, Tag:_321]|10=018|
8=FIX.4.4|9=74|35=d|49=TESTI|56=TESTA|34=14|52=20030204-09:25:43|320=0001|322=0001|323=0|10=175|
8=FIX.4.4|9=74|35=d|49=TESTI|56=TESTA|34=14|52=20030204-09:25:43|320=0001|322=0001|323=-1|10=175|
8=FIX.4.4|9=74|35=d|49=TESTI|56=TESTA|34=14|52=20030204-09:25:43|320=0001|322=0001|323=A|10=175|
8=FIX.4.4|9=74|35=d|49=TESTI|56=TESTA|34=14|52=20030204-09:25:43|320=0001|322=0001|323=b|10=175|
8=FIX.4.4|9=140|35=1|34=104|49=SNDR|56=TRGT|52=20090407-09:48:19.812|112= TEST #065 CHECK 4 REJECT MSGS with INVALID MESSAGE - INCORRECT DATA TYPE [MsgType:_d, Tag:_323]|10=018|
8=FIX.4.4|9=75|35=h|49=TESTI|56=TESTA|34=12|52=20030204-08:49:42|336=PRE-OPEN|325=y|340=2|10=209|
8=FIX.4.4|9=75|35=h|49=TESTI|56=TESTA|34=12|52=20030204-08:49:42|336=PRE-OPEN|325=n|340=2|10=209|
8=FIX.4.4|9=75|35=h|49=TESTI|56=TESTA|34=12|52=20030204-08:49:42|336=PRE-OPEN|325=0|340=2|10=209|
8=FIX.4.4|9=75|35=h|49=TESTI|56=TESTA|34=12|52=20030204-08:49:42|336=PRE-OPEN|325=-1|340=2|10=209|
8=FIX.4.4|9=140|35=1|34=104|49=SNDR|56=TRGT|52=20090407-09:48:19.812|112= TEST #066 CHECK 4 REJECT MSGS with INVALID MESSAGE - INCORRECT DATA TYPE [MsgType:_h, Tag:_325]|10=018|
8=FIX.4.4|9=65|35=f|49=TESTI|56=TESTA|34=14|52=20030204-09:25:43|55=TESTB|326=0|10=179|
8=FIX.4.4|9=65|35=f|49=TESTI|56=TESTA|34=14|52=20030204-09:25:43|55=TESTB|326=-1|10=179|
8=FIX.4.4|9=65|35=f|49=TESTI|56=TESTA|34=14|52=20030204-09:25:43|55=TESTB|326=A|10=179|
8=FIX.4.4|9=65|35=f|49=TESTI|56=TESTA|34=14|52=20030204-09:25:43|55=TESTB|326=b|10=179|
8=FIX.4.4|9=140|35=1|34=104|49=SNDR|56=TRGT|52=20090407-09:48:19.812|112= TEST #067 CHECK 4 REJECT MSGS with INVALID MESSAGE - INCORRECT DATA TYPE [MsgType:_f, Tag:_326]|10=018|
8=FIX.4.4|9=65|35=f|49=TESTI|56=TESTA|34=14|52=20030204-09:25:43|55=TESTB|327=d|10=199|
8=FIX.4.4|9=65|35=f|49=TESTI|56=TESTA|34=14|52=20030204-09:25:43|55=TESTB|327=x|10=199|
8=FIX.4.4|9=65|35=f|49=TESTI|56=TESTA|34=14|52=20030204-09:25:43|55=TESTB|327=0|10=199|
8=FIX.4.4|9=65|35=f|49=TESTI|56=TESTA|34=14|52=20030204-09:25:43|55=TESTB|327=-1|10=199|
8=FIX.4.4|9=140|35=1|34=104|49=SNDR|56=TRGT|52=20090407-09:48:19.812|112= TEST #068 CHECK 4 REJECT MSGS with INVALID MESSAGE - INCORRECT DATA TYPE [MsgType:_f, Tag:_327]|10=018|
8=FIX.4.4|9=65|35=f|49=TESTI|56=TESTA|34=14|52=20030204-09:25:43|55=TESTB|328=y|10=210|
8=FIX.4.4|9=65|35=f|49=TESTI|56=TESTA|34=14|52=20030204-09:25:43|55=TESTB|328=n|10=210|
8=FIX.4.4|9=65|35=f|49=TESTI|56=TESTA|34=14|52=20030204-09:25:43|55=TESTB|328=0|10=210|
8=FIX.4.4|9=65|35=f|49=TESTI|56=TESTA|34=14|52=20030204-09:25:43|55=TESTB|328=-1|10=210|
8=FIX.4.4|9=140|35=1|34=104|49=SNDR|56=TRGT|52=20090407-09:48:19.812|112= TEST #069 CHECK 4 REJECT MSGS with INVALID MESSAGE - INCORRECT DATA TYPE [MsgType:_f, Tag:_328]|10=018|
8=FIX.4.4|9=65|35=f|49=TESTI|56=TESTA|34=14|52=20030204-09:25:43|55=TESTB|329=y|10=211|
8=FIX.4.4|9=65|35=f|49=TESTI|56=TESTA|34=14|52=20030204-09:25:43|55=TESTB|329=n|10=211|
8=FIX.4.4|9=65|35=f|49=TESTI|56=TESTA|34=14|52=20030204-09:25:43|55=TESTB|329=0|10=211|
8=FIX.4.4|9=65|35=f|49=TESTI|56=TESTA|34=14|52=20030204-09:25:43|55=TESTB|329=-1|10=211|
8=FIX.4.4|9=140|35=1|34=104|49=SNDR|56=TRGT|52=20090407-09:48:19.812|112= TEST #070 CHECK 4 REJECT MSGS with INVALID MESSAGE - INCORRECT DATA TYPE [MsgType:_f, Tag:_329]|10=018|
8=FIX.4.4|9=65|35=f|49=TESTI|56=TESTA|34=14|52=20030204-09:25:43|55=TESTB|334=0|10=178|
8=FIX.4.4|9=65|35=f|49=TESTI|56=TESTA|34=14|52=20030204-09:25:43|55=TESTB|334=-1|10=178|
8=FIX.4.4|9=65|35=f|49=TESTI|56=TESTA|34=14|52=20030204-09:25:43|55=TESTB|334=A|10=178|
8=FIX.4.4|9=65|35=f|49=TESTI|56=TESTA|34=14|52=20030204-09:25:43|55=TESTB|334=b|10=178|
8=FIX.4.4|9=140|35=1|34=104|49=SNDR|56=TRGT|52=20090407-09:48:19.812|112= TEST #071 CHECK 4 REJECT MSGS with INVALID MESSAGE - INCORRECT DATA TYPE [MsgType:_f, Tag:_334]|10=018|
8=FIX.4.4|9=75|35=h|49=TESTI|56=TESTA|34=12|52=20030204-08:49:42|336=PRE-OPEN|338=0|340=0|10=185|
8=FIX.4.4|9=75|35=h|49=TESTI|56=TESTA|34=12|52=20030204-08:49:42|336=PRE-OPEN|338=-1|340=0|10=185|
8=FIX.4.4|9=75|35=h|49=TESTI|56=TESTA|34=12|52=20030204-08:49:42|336=PRE-OPEN|338=A|340=0|10=185|
8=FIX.4.4|9=75|35=h|49=TESTI|56=TESTA|34=12|52=20030204-08:49:42|336=PRE-OPEN|338=b|340=0|10=185|
8=FIX.4.4|9=140|35=1|34=104|49=SNDR|56=TRGT|52=20090407-09:48:19.812|112= TEST #072 CHECK 4 REJECT MSGS with INVALID MESSAGE - INCORRECT DATA TYPE [MsgType:_h, Tag:_338]|10=018|
8=FIX.4.4|9=75|35=h|49=TESTI|56=TESTA|34=12|52=20030204-08:49:42|336=PRE-OPEN|339=0|340=2|10=185|
8=FIX.4.4|9=75|35=h|49=TESTI|56=TESTA|34=12|52=20030204-08:49:42|336=PRE-OPEN|339=-1|340=2|10=185|
8=FIX.4.4|9=75|35=h|49=TESTI|56=TESTA|34=12|52=20030204-08:49:42|336=PRE-OPEN|339=A|340=2|10=185|
8=FIX.4.4|9=75|35=h|49=TESTI|56=TESTA|34=12|52=20030204-08:49:42|336=PRE-OPEN|339=b|340=2|10=185|
8=FIX.4.4|9=140|35=1|34=104|49=SNDR|56=TRGT|52=20090407-09:48:19.812|112= TEST #073 CHECK 4 REJECT MSGS with INVALID MESSAGE - INCORRECT DATA TYPE [MsgType:_h, Tag:_339]|10=018|
8=FIX.4.4|9=69|35=h|49=TESTI|56=TESTA|34=12|52=20030204-08:49:42|336=PRE-OPEN|340=7|10=172|
8=FIX.4.4|9=69|35=h|49=TESTI|56=TESTA|34=12|52=20030204-08:49:42|336=PRE-OPEN|340=-1|10=172|
8=FIX.4.4|9=69|35=h|49=TESTI|56=TESTA|34=12|52=20030204-08:49:42|336=PRE-OPEN|340=A|10=172|
8=FIX.4.4|9=69|35=h|49=TESTI|56=TESTA|34=12|52=20030204-08:49:42|336=PRE-OPEN|340=b|10=172|
8=FIX.4.4|9=140|35=1|34=104|49=SNDR|56=TRGT|52=20090407-09:48:19.812|112= TEST #074 CHECK 4 REJECT MSGS with INVALID MESSAGE - INCORRECT DATA TYPE [MsgType:_h, Tag:_340]|10=018|
8=FIX.4.4|9=125|35=b|49=TESTI|56=TESTA|34=14|52=20030204-09:25:43|297=0|296=1|302=000302|311=TEST3|304=12|295=1|299=000299|132=0.99999|368=0|10=194|
8=FIX.4.4|9=125|35=b|49=TESTI|56=TESTA|34=14|52=20030204-09:25:43|297=0|296=1|302=000302|311=TEST3|304=12|295=1|299=000299|132=0.99999|368=-1|10=194|
8=FIX.4.4|9=125|35=b|49=TESTI|56=TESTA|34=14|52=20030204-09:25:43|297=0|296=1|302=000302|311=TEST3|304=12|295=1|299=000299|132=0.99999|368=A|10=194|
8=FIX.4.4|9=125|35=b|49=TESTI|56=TESTA|34=14|52=20030204-09:25:43|297=0|296=1|302=000302|311=TEST3|304=12|295=1|299=000299|132=0.99999|368=b|10=194|
8=FIX.4.4|9=140|35=1|34=104|49=SNDR|56=TRGT|52=20090407-09:48:19.812|112= TEST #075 CHECK 4 REJECT MSGS with INVALID MESSAGE - INCORRECT DATA TYPE [MsgType:_b, Tag:_368]|10=018|
8=FIX.4.4|9=92|35=k|49=TESTI|56=TESTA|34=6|52=20030204-09:07:50|391=20012411|374=n|393=2|394=3|418=A|419=4|10=047|
8=FIX.4.4|9=92|35=k|49=TESTI|56=TESTA|34=6|52=20030204-09:07:50|391=20012411|374=c|393=2|394=3|418=A|419=4|10=047|
8=FIX.4.4|9=92|35=k|49=TESTI|56=TESTA|34=6|52=20030204-09:07:50|391=20012411|374=0|393=2|394=3|418=A|419=4|10=047|
8=FIX.4.4|9=92|35=k|49=TESTI|56=TESTA|34=6|52=20030204-09:07:50|391=20012411|374=-1|393=2|394=3|418=A|419=4|10=047|
8=FIX.4.4|9=140|35=1|34=104|49=SNDR|56=TRGT|52=20090407-09:48:19.812|112= TEST #076 CHECK 4 REJECT MSGS with INVALID MESSAGE - INCORRECT DATA TYPE [MsgType:_k, Tag:_374]|10=018|
8=FIX.4.4|9=132|35=G|49=TESTI|56=TESTA|34=6|52=20030204-08:49:18|11=12233345|41=90001008|21=2|55=TESTB|54=1|60=20060117-10:00:00|38=4000|40=1|377=n|10=008|
8=FIX.4.4|9=132|35=G|49=TESTI|56=TESTA|34=6|52=20030204-08:49:18|11=12233345|41=90001008|21=2|55=TESTB|54=1|60=20060117-10:00:00|38=4000|40=1|377=y|10=008|
8=FIX.4.4|9=132|35=G|49=TESTI|56=TESTA|34=6|52=20030204-08:49:18|11=12233345|41=90001008|21=2|55=TESTB|54=1|60=20060117-10:00:00|38=4000|40=1|377=0|10=008|
8=FIX.4.4|9=132|35=G|49=TESTI|56=TESTA|34=6|52=20030204-08:49:18|11=12233345|41=90001008|21=2|55=TESTB|54=1|60=20060117-10:00:00|38=4000|40=1|377=-1|10=008|
8=FIX.4.4|9=140|35=1|34=104|49=SNDR|56=TRGT|52=20090407-09:48:19.812|112= TEST #077 CHECK 4 REJECT MSGS with INVALID MESSAGE - INCORRECT DATA TYPE [MsgType:_G, Tag:_377]|10=018|
8=FIX.4.4|9=185|35=AE|49=TESTI|56=TESTA|34=4|52=20030204-08:46:14|571=90001008|150=F|378=-1|570=N|55=TESTA|32=1000|31=10.4|75=20060217|60=20060217-10:00:00|552=2|54=1|37=0001|54=2|37=0002|10=196|
8=FIX.4.4|9=185|35=AE|49=TESTI|56=TESTA|34=4|52=20030204-08:46:14|571=90001008|150=F|378=11|570=N|55=TESTA|32=1000|31=10.4|75=20060217|60=20060217-10:00:00|552=2|54=1|37=0001|54=2|37=0002|10=196|
8=FIX.4.4|9=185|35=AE|49=TESTI|56=TESTA|34=4|52=20030204-08:46:14|571=90001008|150=F|378=A|570=N|55=TESTA|32=1000|31=10.4|75=20060217|60=20060217-10:00:00|552=2|54=1|37=0001|54=2|37=0002|10=196|
8=FIX.4.4|9=185|35=AE|49=TESTI|56=TESTA|34=4|52=20030204-08:46:14|571=90001008|150=F|378=b|570=N|55=TESTA|32=1000|31=10.4|75=20060217|60=20060217-10:00:00|552=2|54=1|37=0001|54=2|37=0002|10=196|
8=FIX.4.4|9=140|35=1|34=104|49=SNDR|56=TRGT|52=20090407-09:48:19.812|112= TEST #078 CHECK 4 REJECT MSGS with INVALID MESSAGE - INCORRECT DATA TYPE [MsgType:_AE, Tag:_378]|10=018|
8=FIX.4.4|9=61|35=j|49=TESTI|56=TESTA|34=4|52=20030204-08:56:41|372=9|380=-1|10=107|
8=FIX.4.4|9=61|35=j|49=TESTI|56=TESTA|34=4|52=20030204-08:56:41|372=9|380=8|10=107|
8=FIX.4.4|9=61|35=j|49=TESTI|56=TESTA|34=4|52=20030204-08:56:41|372=9|380=A|10=107|
8=FIX.4.4|9=61|35=j|49=TESTI|56=TESTA|34=4|52=20030204-08:56:41|372=9|380=b|10=107|
8=FIX.4.4|9=140|35=1|34=104|49=SNDR|56=TRGT|52=20090407-09:48:19.812|112= TEST #079 CHECK 4 REJECT MSGS with INVALID MESSAGE - INCORRECT DATA TYPE [MsgType:_j, Tag:_380]|10=018|
8=FIX.4.4|9=218|35=t|49=TESTI|56=TESTA|34=4|52=20030204-08:46:14|548=42444008|551=30000008|549=1|550=0|552=2|54=1|11=B202020|41=B101010|38=4000|54=2|11=S202020|41=S101010|38=5000|55=TESTA|60=20060217-10:00:00|40=1|388=-1|10=015|
8=FIX.4.4|9=218|35=t|49=TESTI|56=TESTA|34=4|52=20030204-08:46:14|548=42444008|551=30000008|549=1|550=0|552=2|54=1|11=B202020|41=B101010|38=4000|54=2|11=S202020|41=S101010|38=5000|55=TESTA|60=20060217-10:00:00|40=1|388=7|10=015|
8=FIX.4.4|9=218|35=t|49=TESTI|56=TESTA|34=4|52=20030204-08:46:14|548=42444008|551=30000008|549=1|550=0|552=2|54=1|11=B202020|41=B101010|38=4000|54=2|11=S202020|41=S101010|38=5000|55=TESTA|60=20060217-10:00:00|40=1|388=A|10=015|
8=FIX.4.4|9=218|35=t|49=TESTI|56=TESTA|34=4|52=20030204-08:46:14|548=42444008|551=30000008|549=1|550=0|552=2|54=1|11=B202020|41=B101010|38=4000|54=2|11=S202020|41=S101010|38=5000|55=TESTA|60=20060217-10:00:00|40=1|388=b|10=015|
8=FIX.4.4|9=140|35=1|34=104|49=SNDR|56=TRGT|52=20090407-09:48:19.812|112= TEST #080 CHECK 4 REJECT MSGS with INVALID MESSAGE - INCORRECT DATA TYPE [MsgType:_t, Tag:_388]|10=018|
8=FIX.4.4|9=92|35=k|49=TESTI|56=TESTA|34=6|52=20030204-09:07:50|391=20012411|374=N|393=2|394=0|418=A|419=4|10=047|
8=FIX.4.4|9=92|35=k|49=TESTI|56=TESTA|34=6|52=20030204-09:07:50|391=20012411|374=N|393=2|394=-1|418=A|419=4|10=047|
8=FIX.4.4|9=92|35=k|49=TESTI|56=TESTA|34=6|52=20030204-09:07:50|391=20012411|374=N|393=2|394=A|418=A|419=4|10=047|
8=FIX.4.4|9=92|35=k|49=TESTI|56=TESTA|34=6|52=20030204-09:07:50|391=20012411|374=N|393=2|394=b|418=A|419=4|10=047|
8=FIX.4.4|9=140|35=1|34=104|49=SNDR|56=TRGT|52=20090407-09:48:19.812|112= TEST #081 CHECK 4 REJECT MSGS with INVALID MESSAGE - INCORRECT DATA TYPE [MsgType:_k, Tag:_394]|10=018|
8=FIX.4.4|9=104|35=k|49=TESTI|56=TESTA|34=6|52=20030204-09:07:50|391=20012411|374=N|393=2|394=3|398=1|399=0|418=A|419=4|10=128|
8=FIX.4.4|9=104|35=k|49=TESTI|56=TESTA|34=6|52=20030204-09:07:50|391=20012411|374=N|393=2|394=3|398=1|399=-1|418=A|419=4|10=128|
8=FIX.4.4|9=104|35=k|49=TESTI|56=TESTA|34=6|52=20030204-09:07:50|391=20012411|374=N|393=2|394=3|398=1|399=A|418=A|419=4|10=128|
8=FIX.4.4|9=104|35=k|49=TESTI|56=TESTA|34=6|52=20030204-09:07:50|391=20012411|374=N|393=2|394=3|398=1|399=b|418=A|419=4|10=128|
8=FIX.4.4|9=140|35=1|34=104|49=SNDR|56=TRGT|52=20090407-09:48:19.812|112= TEST #082 CHECK 4 REJECT MSGS with INVALID MESSAGE - INCORRECT DATA TYPE [MsgType:_k, Tag:_399]|10=018|
8=FIX.4.4|9=161|35=E|49=TESTI|56=TESTA|34=3|52=20030204-08:18:22|66=20012411|394=3|68=1|73=2|11=1131|67=1|55=TESTB3|54=3|401=2|38=3000|11=1132|67=2|55=TESTB2|54=1|401=0|38=1000|10=036|
8=FIX.4.4|9=161|35=E|49=TESTI|56=TESTA|34=3|52=20030204-08:18:22|66=20012411|394=3|68=1|73=2|11=1131|67=1|55=TESTB3|54=3|401=2|38=3000|11=1132|67=2|55=TESTB2|54=1|401=-1|38=1000|10=036|
8=FIX.4.4|9=161|35=E|49=TESTI|56=TESTA|34=3|52=20030204-08:18:22|66=20012411|394=3|68=1|73=2|11=1131|67=1|55=TESTB3|54=3|401=2|38=3000|11=1132|67=2|55=TESTB2|54=1|401=A|38=1000|10=036|
8=FIX.4.4|9=161|35=E|49=TESTI|56=TESTA|34=3|52=20030204-08:18:22|66=20012411|394=3|68=1|73=2|11=1131|67=1|55=TESTB3|54=3|401=2|38=3000|11=1132|67=2|55=TESTB2|54=1|401=b|38=1000|10=036|
8=FIX.4.4|9=140|35=1|34=104|49=SNDR|56=TRGT|52=20090407-09:48:19.812|112= TEST #083 CHECK 4 REJECT MSGS with INVALID MESSAGE - INCORRECT DATA TYPE [MsgType:_E, Tag:_401]|10=018|
8=FIX.4.4|9=98|35=k|49=TESTI|56=TESTA|34=6|52=20030204-09:07:50|391=20012411|374=N|393=2|394=3|409=0|418=A|419=4|10=068|
8=FIX.4.4|9=98|35=k|49=TESTI|56=TESTA|34=6|52=20030204-09:07:50|391=20012411|374=N|393=2|394=3|409=-1|418=A|419=4|10=068|
8=FIX.4.4|9=98|35=k|49=TESTI|56=TESTA|34=6|52=20030204-09:07:50|391=20012411|374=N|393=2|394=3|409=A|418=A|419=4|10=068|
8=FIX.4.4|9=98|35=k|49=TESTI|56=TESTA|34=6|52=20030204-09:07:50|391=20012411|374=N|393=2|394=3|409=b|418=A|419=4|10=068|
8=FIX.4.4|9=140|35=1|34=104|49=SNDR|56=TRGT|52=20090407-09:48:19.812|112= TEST #084 CHECK 4 REJECT MSGS with INVALID MESSAGE - INCORRECT DATA TYPE [MsgType:_k, Tag:_409]|10=018|
8=FIX.4.4|9=98|35=k|49=TESTI|56=TESTA|34=6|52=20030204-09:07:50|391=20012411|374=N|393=2|394=3|411=y|418=A|419=4|10=087|
8=FIX.4.4|9=98|35=k|49=TESTI|56=TESTA|34=6|52=20030204-09:07:50|391=20012411|374=N|393=2|394=3|411=n|418=A|419=4|10=087|
8=FIX.4.4|9=98|35=k|49=TESTI|56=TESTA|34=6|52=20030204-09:07:50|391=20012411|374=N|393=2|394=3|411=0|418=A|419=4|10=087|
8=FIX.4.4|9=98|35=k|49=TESTI|56=TESTA|34=6|52=20030204-09:07:50|391=20012411|374=N|393=2|394=3|411=-1|418=A|419=4|10=087|
8=FIX.4.4|9=140|35=1|34=104|49=SNDR|56=TRGT|52=20090407-09:48:19.812|112= TEST #085 CHECK 4 REJECT MSGS with INVALID MESSAGE - INCORRECT DATA TYPE [MsgType:_k, Tag:_411]|10=018|
8=FIX.4.4|9=155|35=E|49=TESTI|56=TESTA|34=3|52=20030204-08:18:22|66=20012411|414=0|394=3|68=1|73=2|11=1131|67=1|55=TESTB3|54=3|38=3000|11=1132|67=2|55=TESTB2|54=1|38=1000|10=038|
8=FIX.4.4|9=155|35=E|49=TESTI|56=TESTA|34=3|52=20030204-08:18:22|66=20012411|414=-1|394=3|68=1|73=2|11=1131|67=1|55=TESTB3|54=3|38=3000|11=1132|67=2|55=TESTB2|54=1|38=1000|10=038|
8=FIX.4.4|9=155|35=E|49=TESTI|56=TESTA|34=3|52=20030204-08:18:22|66=20012411|414=A|394=3|68=1|73=2|11=1131|67=1|55=TESTB3|54=3|38=3000|11=1132|67=2|55=TESTB2|54=1|38=1000|10=038|
8=FIX.4.4|9=155|35=E|49=TESTI|56=TESTA|34=3|52=20030204-08:18:22|66=20012411|414=b|394=3|68=1|73=2|11=1131|67=1|55=TESTB3|54=3|38=3000|11=1132|67=2|55=TESTB2|54=1|38=1000|10=038|
8=FIX.4.4|9=140|35=1|34=104|49=SNDR|56=TRGT|52=20090407-09:48:19.812|112= TEST #086 CHECK 4 REJECT MSGS with INVALID MESSAGE - INCORRECT DATA TYPE [MsgType:_E, Tag:_414]|10=018|
8=FIX.4.4|9=98|35=k|49=TESTI|56=TESTA|34=6|52=20030204-09:07:50|391=20012411|374=N|393=2|394=3|416=0|418=A|419=4|10=063|
8=FIX.4.4|9=98|35=k|49=TESTI|56=TESTA|34=6|52=20030204-09:07:50|391=20012411|374=N|393=2|394=3|416=-1|418=A|419=4|10=063|
8=FIX.4.4|9=98|35=k|49=TESTI|56=TESTA|34=6|52=20030204-09:07:50|391=20012411|374=N|393=2|394=3|416=A|418=A|419=4|10=063|
8=FIX.4.4|9=98|35=k|49=TESTI|56=TESTA|34=6|52=20030204-09:07:50|391=20012411|374=N|393=2|394=3|416=b|418=A|419=4|10=063|
8=FIX.4.4|9=140|35=1|34=104|49=SNDR|56=TRGT|52=20090407-09:48:19.812|112= TEST #087 CHECK 4 REJECT MSGS with INVALID MESSAGE - INCORRECT DATA TYPE [MsgType:_k, Tag:_416]|10=018|
8=FIX.4.4|9=92|35=k|49=TESTI|56=TESTA|34=6|52=20030204-09:07:50|391=20012411|374=N|393=2|394=3|418=a|419=4|10=047|
8=FIX.4.4|9=92|35=k|49=TESTI|56=TESTA|34=6|52=20030204-09:07:50|391=20012411|374=N|393=2|394=3|418=r|419=4|10=047|
8=FIX.4.4|9=92|35=k|49=TESTI|56=TESTA|34=6|52=20030204-09:07:50|391=20012411|374=N|393=2|394=3|418=0|419=4|10=047|
8=FIX.4.4|9=92|35=k|49=TESTI|56=TESTA|34=6|52=20030204-09:07:50|391=20012411|374=N|393=2|394=3|418=-1|419=4|10=047|
8=FIX.4.4|9=140|35=1|34=104|49=SNDR|56=TRGT|52=20090407-09:48:19.812|112= TEST #088 CHECK 4 REJECT MSGS with INVALID MESSAGE - INCORRECT DATA TYPE [MsgType:_k, Tag:_418]|10=018|
8=FIX.4.4|9=92|35=k|49=TESTI|56=TESTA|34=6|52=20030204-09:07:50|391=20012411|374=N|393=2|394=3|418=A|419=0|10=045|
8=FIX.4.4|9=92|35=k|49=TESTI|56=TESTA|34=6|52=20030204-09:07:50|391=20012411|374=N|393=2|394=3|418=A|419=-1|10=045|
8=FIX.4.4|9=92|35=k|49=TESTI|56=TESTA|34=6|52=20030204-09:07:50|391=20012411|374=N|393=2|394=3|418=A|419=a|10=045|
8=FIX.4.4|9=92|35=k|49=TESTI|56=TESTA|34=6|52=20030204-09:07:50|391=20012411|374=N|393=2|394=3|418=A|419=b|10=045|
8=FIX.4.4|9=140|35=1|34=104|49=SNDR|56=TRGT|52=20090407-09:48:19.812|112= TEST #089 CHECK 4 REJECT MSGS with INVALID MESSAGE - INCORRECT DATA TYPE [MsgType:_k, Tag:_419]|10=018|
8=FIX.4.4|9=95|35=AG|49=TESTI|56=TESTA|34=4|52=20030204-08:46:14|131=0001|658=1|146=1|55=TESTA|423=0|10=253|
8=FIX.4.4|9=95|35=AG|49=TESTI|56=TESTA|34=4|52=20030204-08:46:14|131=0001|658=1|146=1|55=TESTA|423=-1|10=253|
8=FIX.4.4|9=95|35=AG|49=TESTI|56=TESTA|34=4|52=20030204-08:46:14|131=0001|658=1|146=1|55=TESTA|423=A|10=253|
8=FIX.4.4|9=95|35=AG|49=TESTI|56=TESTA|34=4|52=20030204-08:46:14|131=0001|658=1|146=1|55=TESTA|423=b|10=253|
8=FIX.4.4|9=140|35=1|34=104|49=SNDR|56=TRGT|52=20090407-09:48:19.812|112= TEST #090 CHECK 4 REJECT MSGS with INVALID MESSAGE - INCORRECT DATA TYPE [MsgType:_AG, Tag:_423]|10=018|
8=FIX.4.4|9=161|35=E|49=TESTI|56=TESTA|34=3|52=20030204-08:18:22|66=20012411|394=3|68=1|73=2|11=1131|67=1|427=-1|55=TESTB3|54=3|38=3000|11=1132|67=2|427=2|55=TESTB2|54=1|38=1000|10=051|
8=FIX.4.4|9=161|35=E|49=TESTI|56=TESTA|34=3|52=20030204-08:18:22|66=20012411|394=3|68=1|73=2|11=1131|67=1|427=3|55=TESTB3|54=3|38=3000|11=1132|67=2|427=2|55=TESTB2|54=1|38=1000|10=051|
8=FIX.4.4|9=161|35=E|49=TESTI|56=TESTA|34=3|52=20030204-08:18:22|66=20012411|394=3|68=1|73=2|11=1131|67=1|427=A|55=TESTB3|54=3|38=3000|11=1132|67=2|427=2|55=TESTB2|54=1|38=1000|10=051|
8=FIX.4.4|9=161|35=E|49=TESTI|56=TESTA|34=3|52=20030204-08:18:22|66=20012411|394=3|68=1|73=2|11=1131|67=1|427=b|55=TESTB3|54=3|38=3000|11=1132|67=2|427=2|55=TESTB2|54=1|38=1000|10=051|
8=FIX.4.4|9=140|35=1|34=104|49=SNDR|56=TRGT|52=20090407-09:48:19.812|112= TEST #091 CHECK 4 REJECT MSGS with INVALID MESSAGE - INCORRECT DATA TYPE [MsgType:_E, Tag:_427]|10=018|
8=FIX.4.4|9=219|35=N|49=TESTI|56=TESTA|34=15|52=20030204-09:08:23|66=20012411|429=0|82=3|431=3|83=1|68=5|73=3|11=1111|14=11|39=1|151=89|84=0|6=12|11=1121|14=1000|39=1|151=500|84=1000|6=2.28|11=1131|14=2500|39=1|151=500|84=1500|6=34.11|10=055|
8=FIX.4.4|9=219|35=N|49=TESTI|56=TESTA|34=15|52=20030204-09:08:23|66=20012411|429=-1|82=3|431=3|83=1|68=5|73=3|11=1111|14=11|39=1|151=89|84=0|6=12|11=1121|14=1000|39=1|151=500|84=1000|6=2.28|11=1131|14=2500|39=1|151=500|84=1500|6=34.11|10=055|
8=FIX.4.4|9=219|35=N|49=TESTI|56=TESTA|34=15|52=20030204-09:08:23|66=20012411|429=A|82=3|431=3|83=1|68=5|73=3|11=1111|14=11|39=1|151=89|84=0|6=12|11=1121|14=1000|39=1|151=500|84=1000|6=2.28|11=1131|14=2500|39=1|151=500|84=1500|6=34.11|10=055|
8=FIX.4.4|9=219|35=N|49=TESTI|56=TESTA|34=15|52=20030204-09:08:23|66=20012411|429=b|82=3|431=3|83=1|68=5|73=3|11=1111|14=11|39=1|151=89|84=0|6=12|11=1121|14=1000|39=1|151=500|84=1000|6=2.28|11=1131|14=2500|39=1|151=500|84=1500|6=34.11|10=055|
8=FIX.4.4|9=140|35=1|34=104|49=SNDR|56=TRGT|52=20090407-09:48:19.812|112= TEST #092 CHECK 4 REJECT MSGS with INVALID MESSAGE - INCORRECT DATA TYPE [MsgType:_N, Tag:_429]|10=018|
8=FIX.4.4|9=90|35=l|49=TESTI|56=TESTA|34=6|52=20030204-09:07:50|420=2|12=5|13=1|430=1|12=0.07|13=2|430=0|10=072|
8=FIX.4.4|9=90|35=l|49=TESTI|56=TESTA|34=6|52=20030204-09:07:50|420=2|12=5|13=1|430=1|12=0.07|13=2|430=-1|10=072|
8=FIX.4.4|9=90|35=l|49=TESTI|56=TESTA|34=6|52=20030204-09:07:50|420=2|12=5|13=1|430=1|12=0.07|13=2|430=A|10=072|
8=FIX.4.4|9=90|35=l|49=TESTI|56=TESTA|34=6|52=20030204-09:07:50|420=2|12=5|13=1|430=1|12=0.07|13=2|430=b|10=072|
8=FIX.4.4|9=140|35=1|34=104|49=SNDR|56=TRGT|52=20090407-09:48:19.812|112= TEST #093 CHECK 4 REJECT MSGS with INVALID MESSAGE - INCORRECT DATA TYPE [MsgType:l, Tag:_430]|10=018|
8=FIX.4.4|9=219|35=N|49=TESTI|56=TESTA|34=15|52=20030204-09:08:23|66=20012411|429=1|82=3|431=0|83=1|68=5|73=3|11=1111|14=11|39=1|151=89|84=0|6=12|11=1121|14=1000|39=1|151=500|84=1000|6=2.28|11=1131|14=2500|39=1|151=500|84=1500|6=34.11|10=053|
8=FIX.4.4|9=219|35=N|49=TESTI|56=TESTA|34=15|52=20030204-09:08:23|66=20012411|429=1|82=3|431=-1|83=1|68=5|73=3|11=1111|14=11|39=1|151=89|84=0|6=12|11=1121|14=1000|39=1|151=500|84=1000|6=2.28|11=1131|14=2500|39=1|151=500|84=1500|6=34.11|10=053|
8=FIX.4.4|9=219|35=N|49=TESTI|56=TESTA|34=15|52=20030204-09:08:23|66=20012411|429=1|82=3|431=A|83=1|68=5|73=3|11=1111|14=11|39=1|151=89|84=0|6=12|11=1121|14=1000|39=1|151=500|84=1000|6=2.28|11=1131|14=2500|39=1|151=500|84=1500|6=34.11|10=053|
8=FIX.4.4|9=219|35=N|49=TESTI|56=TESTA|34=15|52=20030204-09:08:23|66=20012411|429=1|82=3|431=b|83=1|68=5|73=3|11=1111|14=11|39=1|151=89|84=0|6=12|11=1121|14=1000|39=1|151=500|84=1000|6=2.28|11=1131|14=2500|39=1|151=500|84=1500|6=34.11|10=053|
8=FIX.4.4|9=140|35=1|34=104|49=SNDR|56=TRGT|52=20090407-09:48:19.812|112= TEST #094 CHECK 4 REJECT MSGS with INVALID MESSAGE - INCORRECT DATA TYPE [MsgType:_N, Tag:_431]|10=018|
8=FIX.4.4|9=155|35=E|49=TESTI|56=TESTA|34=3|52=20030204-08:18:22|66=20012411|394=3|433=0|68=1|73=2|11=1131|67=1|55=TESTB3|54=3|38=3000|11=1132|67=2|55=TESTB2|54=1|38=1000|10=040|
8=FIX.4.4|9=155|35=E|49=TESTI|56=TESTA|34=3|52=20030204-08:18:22|66=20012411|394=3|433=-1|68=1|73=2|11=1131|67=1|55=TESTB3|54=3|38=3000|11=1132|67=2|55=TESTB2|54=1|38=1000|10=040|
8=FIX.4.4|9=155|35=E|49=TESTI|56=TESTA|34=3|52=20030204-08:18:22|66=20012411|394=3|433=A|68=1|73=2|11=1131|67=1|55=TESTB3|54=3|38=3000|11=1132|67=2|55=TESTB2|54=1|38=1000|10=040|
8=FIX.4.4|9=155|35=E|49=TESTI|56=TESTA|34=3|52=20030204-08:18:22|66=20012411|394=3|433=b|68=1|73=2|11=1131|67=1|55=TESTB3|54=3|38=3000|11=1132|67=2|55=TESTB2|54=1|38=1000|10=040|
8=FIX.4.4|9=140|35=1|34=104|49=SNDR|56=TRGT|52=20090407-09:48:19.812|112= TEST #095 CHECK 4 REJECT MSGS with INVALID MESSAGE - INCORRECT DATA TYPE [MsgType:_E, Tag:_433]|10=018|
8=FIX.4.4|9=102|35=9|49=TESTI|56=TESTA|34=3|52=20030203-16:13:14|37=11111111|11=12121212122|41=11111111111|39=0|434=0|10=211|
8=FIX.4.4|9=102|35=9|49=TESTI|56=TESTA|34=3|52=20030203-16:13:14|37=11111111|11=12121212122|41=11111111111|39=0|434=-1|10=211|
8=FIX.4.4|9=102|35=9|49=TESTI|56=TESTA|34=3|52=20030203-16:13:14|37=11111111|11=12121212122|41=11111111111|39=0|434=A|10=211|
8=FIX.4.4|9=102|35=9|49=TESTI|56=TESTA|34=3|52=20030203-16:13:14|37=11111111|11=12121212122|41=11111111111|39=0|434=b|10=211|
8=FIX.4.4|9=140|35=1|34=104|49=SNDR|56=TRGT|52=20090407-09:48:19.812|112= TEST #096 CHECK 4 REJECT MSGS with INVALID MESSAGE - INCORRECT DATA TYPE [MsgType:_9, Tag:_434]|10=018|
8=FIX.4.4|9=108|35=AQ|49=TESTI|56=TESTA|34=4|52=20030204-08:46:14|568=90001008|569=0|749=0|750=0|55=IBM|442=0|10=128|
8=FIX.4.4|9=108|35=AQ|49=TESTI|56=TESTA|34=4|52=20030204-08:46:14|568=90001008|569=0|749=0|750=0|55=IBM|442=-1|10=128|
8=FIX.4.4|9=108|35=AQ|49=TESTI|56=TESTA|34=4|52=20030204-08:46:14|568=90001008|569=0|749=0|750=0|55=IBM|442=A|10=128|
8=FIX.4.4|9=108|35=AQ|49=TESTI|56=TESTA|34=4|52=20030204-08:46:14|568=90001008|569=0|749=0|750=0|55=IBM|442=b|10=128|
8=FIX.4.4|9=140|35=1|34=104|49=SNDR|56=TRGT|52=20090407-09:48:19.812|112= TEST #097 CHECK 4 REJECT MSGS with INVALID MESSAGE - INCORRECT DATA TYPE [MsgType:_AQ, Tag:_442]|10=018|
8=FIX.4.4|9=152|35=AN|49=TESTI|56=TESTA|34=4|52=20030204-08:46:14|710=0001|724=0|453=1|448=ABNA|447=0|452=4|1=KTierney|581=1|715=20060217|60=20060217-10:00:00|10=015|
8=FIX.4.4|9=152|35=AN|49=TESTI|56=TESTA|34=4|52=20030204-08:46:14|710=0001|724=0|453=1|448=ABNA|447=-1|452=4|1=KTierney|581=1|715=20060217|60=20060217-10:00:00|10=015|
8=FIX.4.4|9=152|35=AN|49=TESTI|56=TESTA|34=4|52=20030204-08:46:14|710=0001|724=0|453=1|448=ABNA|447=a|452=4|1=KTierney|581=1|715=20060217|60=20060217-10:00:00|10=015|
8=FIX.4.4|9=152|35=AN|49=TESTI|56=TESTA|34=4|52=20030204-08:46:14|710=0001|724=0|453=1|448=ABNA|447=b|452=4|1=KTierney|581=1|715=20060217|60=20060217-10:00:00|10=015|
8=FIX.4.4|9=140|35=1|34=104|49=SNDR|56=TRGT|52=20090407-09:48:19.812|112= TEST #098 CHECK 4 REJECT MSGS with INVALID MESSAGE - INCORRECT DATA TYPE [MsgType:_AN, Tag:_447]|10=018|
8=FIX.4.4|9=152|35=AN|49=TESTI|56=TESTA|34=4|52=20030204-08:46:14|710=0001|724=0|453=1|448=ABNA|447=1|452=0|1=KTierney|581=1|715=20060217|60=20060217-10:00:00|10=012|
8=FIX.4.4|9=152|35=AN|49=TESTI|56=TESTA|34=4|52=20030204-08:46:14|710=0001|724=0|453=1|448=ABNA|447=1|452=-1|1=KTierney|581=1|715=20060217|60=20060217-10:00:00|10=012|
8=FIX.4.4|9=152|35=AN|49=TESTI|56=TESTA|34=4|52=20030204-08:46:14|710=0001|724=0|453=1|448=ABNA|447=1|452=A|1=KTierney|581=1|715=20060217|60=20060217-10:00:00|10=012|
8=FIX.4.4|9=152|35=AN|49=TESTI|56=TESTA|34=4|52=20030204-08:46:14|710=0001|724=0|453=1|448=ABNA|447=1|452=b|1=KTierney|581=1|715=20060217|60=20060217-10:00:00|10=012|
8=FIX.4.4|9=140|35=1|34=104|49=SNDR|56=TRGT|52=20090407-09:48:19.812|112= TEST #099 CHECK 4 REJECT MSGS with INVALID MESSAGE - INCORRECT DATA TYPE [MsgType:_AN, Tag:_452]|10=018|
8=FIX.4.4|9=95|35=AV|49=TESTI|56=TESTA|34=4|52=20030204-08:46:14|791=0001|60=20060217-10:00:00|460=0|10=202|
8=FIX.4.4|9=95|35=AV|49=TESTI|56=TESTA|34=4|52=20030204-08:46:14|791=0001|60=20060217-10:00:00|460=-1|10=202|
8=FIX.4.4|9=95|35=AV|49=TESTI|56=TESTA|34=4|52=20030204-08:46:14|791=0001|60=20060217-10:00:00|460=A|10=202|
8=FIX.4.4|9=95|35=AV|49=TESTI|56=TESTA|34=4|52=20030204-08:46:14|791=0001|60=20060217-10:00:00|460=b|10=202|
8=FIX.4.4|9=140|35=1|34=104|49=SNDR|56=TRGT|52=20090407-09:48:19.812|112= TEST #100 CHECK 4 REJECT MSGS with INVALID MESSAGE - INCORRECT DATA TYPE [MsgType:_AV, Tag:_460]|10=018|
8=FIX.4.4|9=101|35=Q|49=TESTI|56=TESTA|34=4|52=20030204-09:28:44|37=01923883|17=11|127=D|55=TESTB|54=1|38=4000|468=-1|10=081|
8=FIX.4.4|9=101|35=Q|49=TESTI|56=TESTA|34=4|52=20030204-09:28:44|37=01923883|17=11|127=D|55=TESTB|54=1|38=4000|468=3|10=081|
8=FIX.4.4|9=101|35=Q|49=TESTI|56=TESTA|34=4|52=20030204-09:28:44|37=01923883|17=11|127=D|55=TESTB|54=1|38=4000|468=A|10=081|
8=FIX.4.4|9=101|35=Q|49=TESTI|56=TESTA|34=4|52=20030204-09:28:44|37=01923883|17=11|127=D|55=TESTB|54=1|38=4000|468=b|10=081|
8=FIX.4.4|9=140|35=1|34=104|49=SNDR|56=TRGT|52=20090407-09:48:19.812|112= TEST #101 CHECK 4 REJECT MSGS with INVALID MESSAGE - INCORRECT DATA TYPE [MsgType:_Q, Tag:_468]|10=018|
8=FIX.4.4|9=82|35=o|49=TESTI|56=TESTA|34=7|52=20030204-09:17:25|513=3659000000|514=0|510=1|477=0|10=070|
8=FIX.4.4|9=82|35=o|49=TESTI|56=TESTA|34=7|52=20030204-09:17:25|513=3659000000|514=0|510=1|477=-1|10=070|
8=FIX.4.4|9=82|35=o|49=TESTI|56=TESTA|34=7|52=20030204-09:17:25|513=3659000000|514=0|510=1|477=A|10=070|
8=FIX.4.4|9=82|35=o|49=TESTI|56=TESTA|34=7|52=20030204-09:17:25|513=3659000000|514=0|510=1|477=b|10=070|
8=FIX.4.4|9=140|35=1|34=104|49=SNDR|56=TRGT|52=20090407-09:48:19.812|112= TEST #102 CHECK 4 REJECT MSGS with INVALID MESSAGE - INCORRECT DATA TYPE [MsgType:_o, Tag:_477]|10=018|
8=FIX.4.4|9=126|35=8|49=TESTI|56=TESTA|34=114|52=20030203-16:09:30|37=11111111|17=11|39=0|150=0|55=TESTB|54=1|38=1000|151=1000|14=0|6=0|480=y|10=097|
8=FIX.4.4|9=126|35=8|49=TESTI|56=TESTA|34=114|52=20030203-16:09:30|37=11111111|17=11|39=0|150=0|55=TESTB|54=1|38=1000|151=1000|14=0|6=0|480=n|10=097|
8=FIX.4.4|9=126|35=8|49=TESTI|56=TESTA|34=114|52=20030203-16:09:30|37=11111111|17=11|39=0|150=0|55=TESTB|54=1|38=1000|151=1000|14=0|6=0|480=0|10=097|
8=FIX.4.4|9=126|35=8|49=TESTI|56=TESTA|34=114|52=20030203-16:09:30|37=11111111|17=11|39=0|150=0|55=TESTB|54=1|38=1000|151=1000|14=0|6=0|480=-1|10=097|
8=FIX.4.4|9=140|35=1|34=104|49=SNDR|56=TRGT|52=20090407-09:48:19.812|112= TEST #103 CHECK 4 REJECT MSGS with INVALID MESSAGE - INCORRECT DATA TYPE [MsgType:_8, Tag:_480]|10=018|
8=FIX.4.4|9=132|35=G|49=TESTI|56=TESTA|34=6|52=20030204-08:49:18|11=12233345|41=90001008|21=2|55=TESTB|54=1|60=20060117-10:00:00|38=4000|40=1|481=y|10=015|
8=FIX.4.4|9=132|35=G|49=TESTI|56=TESTA|34=6|52=20030204-08:49:18|11=12233345|41=90001008|21=2|55=TESTB|54=1|60=20060117-10:00:00|38=4000|40=1|481=n|10=015|
8=FIX.4.4|9=132|35=G|49=TESTI|56=TESTA|34=6|52=20030204-08:49:18|11=12233345|41=90001008|21=2|55=TESTB|54=1|60=20060117-10:00:00|38=4000|40=1|481=0|10=015|
8=FIX.4.4|9=132|35=G|49=TESTI|56=TESTA|34=6|52=20030204-08:49:18|11=12233345|41=90001008|21=2|55=TESTB|54=1|60=20060117-10:00:00|38=4000|40=1|481=-1|10=015|
8=FIX.4.4|9=140|35=1|34=104|49=SNDR|56=TRGT|52=20090407-09:48:19.812|112= TEST #104 CHECK 4 REJECT MSGS with INVALID MESSAGE - INCORRECT DATA TYPE [MsgType:_G, Tag:_481]|10=018|
8=FIX.4.4|9=126|35=8|49=TESTI|56=TESTA|34=114|52=20030203-16:09:30|37=11111111|17=11|39=0|150=0|55=TESTB|54=1|38=1000|151=1000|14=0|6=0|484=A|10=091|
8=FIX.4.4|9=126|35=8|49=TESTI|56=TESTA|34=114|52=20030203-16:09:30|37=11111111|17=11|39=0|150=0|55=TESTB|54=1|38=1000|151=1000|14=0|6=0|484=c|10=091|
8=FIX.4.4|9=126|35=8|49=TESTI|56=TESTA|34=114|52=20030203-16:09:30|37=11111111|17=11|39=0|150=0|55=TESTB|54=1|38=1000|151=1000|14=0|6=0|484=0|10=091|
8=FIX.4.4|9=126|35=8|49=TESTI|56=TESTA|34=114|52=20030203-16:09:30|37=11111111|17=11|39=0|150=0|55=TESTB|54=1|38=1000|151=1000|14=0|6=0|484=-1|10=091|
8=FIX.4.4|9=140|35=1|34=104|49=SNDR|56=TRGT|52=20090407-09:48:19.812|112= TEST #105 CHECK 4 REJECT MSGS with INVALID MESSAGE - INCORRECT DATA TYPE [MsgType:_8, Tag:_484]|10=018|
8=FIX.4.4|9=104|35=AR|49=TESTI|56=TESTA|34=4|52=20030204-08:46:14|571=90001008|487=-1|150=F|751=0|55=TESTB|10=032|
8=FIX.4.4|9=104|35=AR|49=TESTI|56=TESTA|34=4|52=20030204-08:46:14|571=90001008|487=5|150=F|751=0|55=TESTB|10=032|
8=FIX.4.4|9=104|35=AR|49=TESTI|56=TESTA|34=4|52=20030204-08:46:14|571=90001008|487=A|150=F|751=0|55=TESTB|10=032|
8=FIX.4.4|9=104|35=AR|49=TESTI|56=TESTA|34=4|52=20030204-08:46:14|571=90001008|487=b|150=F|751=0|55=TESTB|10=032|
8=FIX.4.4|9=140|35=1|34=104|49=SNDR|56=TRGT|52=20090407-09:48:19.812|112= TEST #106 CHECK 4 REJECT MSGS with INVALID MESSAGE - INCORRECT DATA TYPE [MsgType:_AR, Tag:_487]|10=018|
8=FIX.4.4|9=124|35=T|49=TESTI|56=TESTA|34=14|52=20030204-09:25:43|777=112233|160=5|792=99|60=20060217-10:00:00|778=1|162=000602|163=N|492=0|10=068|
8=FIX.4.4|9=124|35=T|49=TESTI|56=TESTA|34=14|52=20030204-09:25:43|777=112233|160=5|792=99|60=20060217-10:00:00|778=1|162=000602|163=N|492=-1|10=068|
8=FIX.4.4|9=124|35=T|49=TESTI|56=TESTA|34=14|52=20030204-09:25:43|777=112233|160=5|792=99|60=20060217-10:00:00|778=1|162=000602|163=N|492=A|10=068|
8=FIX.4.4|9=124|35=T|49=TESTI|56=TESTA|34=14|52=20030204-09:25:43|777=112233|160=5|792=99|60=20060217-10:00:00|778=1|162=000602|163=N|492=b|10=068|
8=FIX.4.4|9=140|35=1|34=104|49=SNDR|56=TRGT|52=20090407-09:48:19.812|112= TEST #107 CHECK 4 REJECT MSGS with INVALID MESSAGE - INCORRECT DATA TYPE [MsgType:_T, Tag:_492]|10=018|
8=FIX.4.4|9=76|35=o|49=TESTI|56=TESTA|34=7|52=20030204-09:17:25|513=3659000000|514=0|495=-1|10=068|
8=FIX.4.4|9=76|35=o|49=TESTI|56=TESTA|34=7|52=20030204-09:17:25|513=3659000000|514=0|495=30|10=068|
8=FIX.4.4|9=76|35=o|49=TESTI|56=TESTA|34=7|52=20030204-09:17:25|513=3659000000|514=0|495=A|10=068|
8=FIX.4.4|9=76|35=o|49=TESTI|56=TESTA|34=7|52=20030204-09:17:25|513=3659000000|514=0|495=b|10=068|
8=FIX.4.4|9=140|35=1|34=104|49=SNDR|56=TRGT|52=20090407-09:48:19.812|112= TEST #108 CHECK 4 REJECT MSGS with INVALID MESSAGE - INCORRECT DATA TYPE [MsgType:_o, Tag:_495]|10=018|
8=FIX.4.4|9=90|35=l|49=TESTI|56=TESTA|34=6|52=20030204-09:07:50|420=2|12=5|13=1|497=N|12=0.07|13=2|497=y|10=166|
8=FIX.4.4|9=90|35=l|49=TESTI|56=TESTA|34=6|52=20030204-09:07:50|420=2|12=5|13=1|497=N|12=0.07|13=2|497=n|10=166|
8=FIX.4.4|9=90|35=l|49=TESTI|56=TESTA|34=6|52=20030204-09:07:50|420=2|12=5|13=1|497=N|12=0.07|13=2|497=0|10=166|
8=FIX.4.4|9=90|35=l|49=TESTI|56=TESTA|34=6|52=20030204-09:07:50|420=2|12=5|13=1|497=N|12=0.07|13=2|497=-1|10=166|
8=FIX.4.4|9=140|35=1|34=104|49=SNDR|56=TRGT|52=20090407-09:48:19.812|112= TEST #109 CHECK 4 REJECT MSGS with INVALID MESSAGE - INCORRECT DATA TYPE [MsgType:_l, Tag:_497]|10=018|
8=FIX.4.4|9=76|35=p|49=TESTI|56=TESTA|34=7|52=20030204-09:17:25|513=3659000000|514=0|506=h|10=085|
8=FIX.4.4|9=76|35=p|49=TESTI|56=TESTA|34=7|52=20030204-09:17:25|513=3659000000|514=0|506=a|10=085|
8=FIX.4.4|9=76|35=p|49=TESTI|56=TESTA|34=7|52=20030204-09:17:25|513=3659000000|514=0|506=0|10=085|
8=FIX.4.4|9=76|35=p|49=TESTI|56=TESTA|34=7|52=20030204-09:17:25|513=3659000000|514=0|506=-1|10=085|
8=FIX.4.4|9=140|35=1|34=104|49=SNDR|56=TRGT|52=20090407-09:48:19.812|112= TEST #110 CHECK 4 REJECT MSGS with INVALID MESSAGE - INCORRECT DATA TYPE [MsgType:_p, Tag:_506]|10=018|
8=FIX.4.4|9=82|35=p|49=TESTI|56=TESTA|34=7|52=20030204-09:17:25|513=3659000000|514=0|506=A|507=0|10=086|
8=FIX.4.4|9=82|35=p|49=TESTI|56=TESTA|34=7|52=20030204-09:17:25|513=3659000000|514=0|506=A|507=-1|10=086|
8=FIX.4.4|9=82|35=p|49=TESTI|56=TESTA|34=7|52=20030204-09:17:25|513=3659000000|514=0|506=A|507=A|10=086|
8=FIX.4.4|9=82|35=p|49=TESTI|56=TESTA|34=7|52=20030204-09:17:25|513=3659000000|514=0|506=A|507=b|10=086|
8=FIX.4.4|9=140|35=1|34=104|49=SNDR|56=TRGT|52=20090407-09:48:19.812|112= TEST #111 CHECK 4 REJECT MSGS with INVALID MESSAGE - INCORRECT DATA TYPE [MsgType:_p, Tag:_507]|10=018|
8=FIX.4.4|9=80|35=o|49=TESTI|56=TESTA|34=7|52=20030204-09:17:25|513=3659000000|514=-1|508=00058|10=006|
8=FIX.4.4|9=80|35=o|49=TESTI|56=TESTA|34=7|52=20030204-09:17:25|513=3659000000|514=3|508=00058|10=006|
8=FIX.4.4|9=80|35=o|49=TESTI|56=TESTA|34=7|52=20030204-09:17:25|513=3659000000|514=A|508=00058|10=006|
8=FIX.4.4|9=80|35=o|49=TESTI|56=TESTA|34=7|52=20030204-09:17:25|513=3659000000|514=b|508=00058|10=006|
8=FIX.4.4|9=140|35=1|34=104|49=SNDR|56=TRGT|52=20090407-09:48:19.812|112= TEST #112 CHECK 4 REJECT MSGS with INVALID MESSAGE - INCORRECT DATA TYPE [MsgType:_o, Tag:_514]|10=018|
8=FIX.4.4|9=191|35=AE|49=TESTI|56=TESTA|34=4|52=20030204-08:46:14|571=90001008|150=F|570=N|55=TESTA|32=1000|31=10.4|75=20060217|60=20060217-10:00:00|552=2|54=1|37=0001|518=1|519=0|54=2|37=0002|10=204|
8=FIX.4.4|9=191|35=AE|49=TESTI|56=TESTA|34=4|52=20030204-08:46:14|571=90001008|150=F|570=N|55=TESTA|32=1000|31=10.4|75=20060217|60=20060217-10:00:00|552=2|54=1|37=0001|518=1|519=-1|54=2|37=0002|10=204|
8=FIX.4.4|9=191|35=AE|49=TESTI|56=TESTA|34=4|52=20030204-08:46:14|571=90001008|150=F|570=N|55=TESTA|32=1000|31=10.4|75=20060217|60=20060217-10:00:00|552=2|54=1|37=0001|518=1|519=A|54=2|37=0002|10=204|
8=FIX.4.4|9=191|35=AE|49=TESTI|56=TESTA|34=4|52=20030204-08:46:14|571=90001008|150=F|570=N|55=TESTA|32=1000|31=10.4|75=20060217|60=20060217-10:00:00|552=2|54=1|37=0001|518=1|519=b|54=2|37=0002|10=204|
8=FIX.4.4|9=140|35=1|34=104|49=SNDR|56=TRGT|52=20090407-09:48:19.812|112= TEST #113 CHECK 4 REJECT MSGS with INVALID MESSAGE - INCORRECT DATA TYPE [MsgType:_AE, Tag:_519]|10=018|
8=FIX.4.4|9=103|35=o|49=TESTI|56=TESTA|34=7|52=20030204-09:17:25|513=3659000000|514=0|508=00058|473=1|509=000509|522=0|10=082|
8=FIX.4.4|9=103|35=o|49=TESTI|56=TESTA|34=7|52=20030204-09:17:25|513=3659000000|514=0|508=00058|473=1|509=000509|522=-1|10=082|
8=FIX.4.4|9=103|35=o|49=TESTI|56=TESTA|34=7|52=20030204-09:17:25|513=3659000000|514=0|508=00058|473=1|509=000509|522=A|10=082|
8=FIX.4.4|9=103|35=o|49=TESTI|56=TESTA|34=7|52=20030204-09:17:25|513=3659000000|514=0|508=00058|473=1|509=000509|522=b|10=082|
8=FIX.4.4|9=140|35=1|34=104|49=SNDR|56=TRGT|52=20090407-09:48:19.812|112= TEST #114 CHECK 4 REJECT MSGS with INVALID MESSAGE - INCORRECT DATA TYPE [MsgType:_o, Tag:_522]|10=018|
8=FIX.4.4|9=91|35=R|49=TESTI|56=TESTA|34=8|52=20030204-09:25:21|131=1272727|528=a|146=2|55=TESTA|55=TESTB|10=250|
8=FIX.4.4|9=91|35=R|49=TESTI|56=TESTA|34=8|52=20030204-09:25:21|131=1272727|528=g|146=2|55=TESTA|55=TESTB|10=250|
8=FIX.4.4|9=91|35=R|49=TESTI|56=TESTA|34=8|52=20030204-09:25:21|131=1272727|528=0|146=2|55=TESTA|55=TESTB|10=250|
8=FIX.4.4|9=91|35=R|49=TESTI|56=TESTA|34=8|52=20030204-09:25:21|131=1272727|528=-1|146=2|55=TESTA|55=TESTB|10=250|
8=FIX.4.4|9=140|35=1|34=104|49=SNDR|56=TRGT|52=20090407-09:48:19.812|112= TEST #115 CHECK 4 REJECT MSGS with INVALID MESSAGE - INCORRECT DATA TYPE [MsgType:_R, Tag:_528]|10=018|
8=FIX.4.4|9=73|35=r|49=TESTI|56=TESTA|34=14|52=20030204-09:25:43|37=4511223|530=0|531=7|10=169|
8=FIX.4.4|9=73|35=r|49=TESTI|56=TESTA|34=14|52=20030204-09:25:43|37=4511223|530=-1|531=7|10=169|
8=FIX.4.4|9=73|35=r|49=TESTI|56=TESTA|34=14|52=20030204-09:25:43|37=4511223|530=A|531=7|10=169|
8=FIX.4.4|9=73|35=r|49=TESTI|56=TESTA|34=14|52=20030204-09:25:43|37=4511223|530=b|531=7|10=169|
8=FIX.4.4|9=140|35=1|34=104|49=SNDR|56=TRGT|52=20090407-09:48:19.812|112= TEST #116 CHECK 4 REJECT MSGS with INVALID MESSAGE - INCORRECT DATA TYPE [MsgType:_r, Tag:_530]|10=018|
8=FIX.4.4|9=79|35=r|49=TESTI|56=TESTA|34=14|52=20030204-09:25:43|37=4511223|530=2|531=-1|532=3|10=180|
8=FIX.4.4|9=79|35=r|49=TESTI|56=TESTA|34=14|52=20030204-09:25:43|37=4511223|530=2|531=8|532=3|10=180|
8=FIX.4.4|9=79|35=r|49=TESTI|56=TESTA|34=14|52=20030204-09:25:43|37=4511223|530=2|531=A|532=3|10=180|
8=FIX.4.4|9=79|35=r|49=TESTI|56=TESTA|34=14|52=20030204-09:25:43|37=4511223|530=2|531=b|532=3|10=180|
8=FIX.4.4|9=140|35=1|34=104|49=SNDR|56=TRGT|52=20090407-09:48:19.812|112= TEST #117 CHECK 4 REJECT MSGS with INVALID MESSAGE - INCORRECT DATA TYPE [MsgType:_r, Tag:_531]|10=018|
8=FIX.4.4|9=79|35=r|49=TESTI|56=TESTA|34=14|52=20030204-09:25:43|37=4511223|530=7|531=7|532=-1|10=189|
8=FIX.4.4|9=79|35=r|49=TESTI|56=TESTA|34=14|52=20030204-09:25:43|37=4511223|530=7|531=7|532=7|10=189|
8=FIX.4.4|9=79|35=r|49=TESTI|56=TESTA|34=14|52=20030204-09:25:43|37=4511223|530=7|531=7|532=A|10=189|
8=FIX.4.4|9=79|35=r|49=TESTI|56=TESTA|34=14|52=20030204-09:25:43|37=4511223|530=7|531=7|532=b|10=189|
8=FIX.4.4|9=140|35=1|34=104|49=SNDR|56=TRGT|52=20090407-09:48:19.812|112= TEST #118 CHECK 4 REJECT MSGS with INVALID MESSAGE - INCORRECT DATA TYPE [MsgType:_r, Tag:_532]|10=018|
8=FIX.4.4|9=104|35=AH|49=TESTI|56=TESTA|34=4|50=30737|52=20030204-08:46:14|644=0001|146=2|55=TESTA|537=-1|55=TESTB|537=1|10=088|
8=FIX.4.4|9=104|35=AH|49=TESTI|56=TESTA|34=4|50=30737|52=20030204-08:46:14|644=0001|146=2|55=TESTA|537=4|55=TESTB|537=1|10=088|
8=FIX.4.4|9=104|35=AH|49=TESTI|56=TESTA|34=4|50=30737|52=20030204-08:46:14|644=0001|146=2|55=TESTA|537=A|55=TESTB|537=1|10=088|
8=FIX.4.4|9=104|35=AH|49=TESTI|56=TESTA|34=4|50=30737|52=20030204-08:46:14|644=0001|146=2|55=TESTA|537=b|55=TESTB|537=1|10=088|
8=FIX.4.4|9=140|35=1|34=104|49=SNDR|56=TRGT|52=20090407-09:48:19.812|112= TEST #119 CHECK 4 REJECT MSGS with INVALID MESSAGE - INCORRECT DATA TYPE [MsgType:_AH, Tag:_537]|10=018|
8=FIX.4.4|9=129|35=D|49=TESTI|56=TESTA|34=4|52=20030204-08:46:14|11=90001008|544=0|55=TESTB|54=1|60=20060217-10:00:00|38=4000|40=1|10=131|
8=FIX.4.4|9=129|35=D|49=TESTI|56=TESTA|34=4|52=20030204-08:46:14|11=90001008|544=-1|55=TESTB|54=1|60=20060217-10:00:00|38=4000|40=1|10=131|
8=FIX.4.4|9=129|35=D|49=TESTI|56=TESTA|34=4|52=20030204-08:46:14|11=90001008|544=A|55=TESTB|54=1|60=20060217-10:00:00|38=4000|40=1|10=131|
8=FIX.4.4|9=129|35=D|49=TESTI|56=TESTA|34=4|52=20030204-08:46:14|11=90001008|544=b|55=TESTB|54=1|60=20060217-10:00:00|38=4000|40=1|10=131|
8=FIX.4.4|9=140|35=1|34=104|49=SNDR|56=TRGT|52=20090407-09:48:19.812|112= TEST #120 CHECK 4 REJECT MSGS with INVALID MESSAGE - INCORRECT DATA TYPE [MsgType:_D, Tag:_544]|10=018|
8=FIX.4.4|9=120|35=V|49=TESTI|56=TESTA|34=14|52=20030204-09:25:43|262=11223|263=0|264=0|547=y|267=2|269=0|269=1|146=2|55=TESTA|55=TESTB|10=051|
8=FIX.4.4|9=120|35=V|49=TESTI|56=TESTA|34=14|52=20030204-09:25:43|262=11223|263=0|264=0|547=n|267=2|269=0|269=1|146=2|55=TESTA|55=TESTB|10=051|
8=FIX.4.4|9=120|35=V|49=TESTI|56=TESTA|34=14|52=20030204-09:25:43|262=11223|263=0|264=0|547=0|267=2|269=0|269=1|146=2|55=TESTA|55=TESTB|10=051|
8=FIX.4.4|9=120|35=V|49=TESTI|56=TESTA|34=14|52=20030204-09:25:43|262=11223|263=0|264=0|547=-1|267=2|269=0|269=1|146=2|55=TESTA|55=TESTB|10=051|
8=FIX.4.4|9=140|35=1|34=104|49=SNDR|56=TRGT|52=20090407-09:48:19.812|112= TEST #121 CHECK 4 REJECT MSGS with INVALID MESSAGE - INCORRECT DATA TYPE [MsgType:_V, Tag:_547]|10=018|
8=FIX.4.4|9=212|35=t|49=TESTI|56=TESTA|34=4|52=20030204-08:46:14|548=42444008|551=30000008|549=0|550=0|552=2|54=1|11=B202020|41=B101010|38=4000|54=2|11=S202020|41=S101010|38=5000|55=TESTA|60=20060217-10:00:00|40=1|10=248|
8=FIX.4.4|9=212|35=t|49=TESTI|56=TESTA|34=4|52=20030204-08:46:14|548=42444008|551=30000008|549=-1|550=0|552=2|54=1|11=B202020|41=B101010|38=4000|54=2|11=S202020|41=S101010|38=5000|55=TESTA|60=20060217-10:00:00|40=1|10=248|
8=FIX.4.4|9=212|35=t|49=TESTI|56=TESTA|34=4|52=20030204-08:46:14|548=42444008|551=30000008|549=A|550=0|552=2|54=1|11=B202020|41=B101010|38=4000|54=2|11=S202020|41=S101010|38=5000|55=TESTA|60=20060217-10:00:00|40=1|10=248|
8=FIX.4.4|9=212|35=t|49=TESTI|56=TESTA|34=4|52=20030204-08:46:14|548=42444008|551=30000008|549=b|550=0|552=2|54=1|11=B202020|41=B101010|38=4000|54=2|11=S202020|41=S101010|38=5000|55=TESTA|60=20060217-10:00:00|40=1|10=248|
8=FIX.4.4|9=140|35=1|34=104|49=SNDR|56=TRGT|52=20090407-09:48:19.812|112= TEST #122 CHECK 4 REJECT MSGS with INVALID MESSAGE - INCORRECT DATA TYPE [MsgType:_t, Tag:_549]|10=018|
8=FIX.4.4|9=212|35=t|49=TESTI|56=TESTA|34=4|52=20030204-08:46:14|548=42444008|551=30000008|549=2|550=-1|552=2|54=1|11=B202020|41=B101010|38=4000|54=2|11=S202020|41=S101010|38=5000|55=TESTA|60=20060217-10:00:00|40=1|10=249|
8=FIX.4.4|9=212|35=t|49=TESTI|56=TESTA|34=4|52=20030204-08:46:14|548=42444008|551=30000008|549=2|550=3|552=2|54=1|11=B202020|41=B101010|38=4000|54=2|11=S202020|41=S101010|38=5000|55=TESTA|60=20060217-10:00:00|40=1|10=249|
8=FIX.4.4|9=212|35=t|49=TESTI|56=TESTA|34=4|52=20030204-08:46:14|548=42444008|551=30000008|549=2|550=A|552=2|54=1|11=B202020|41=B101010|38=4000|54=2|11=S202020|41=S101010|38=5000|55=TESTA|60=20060217-10:00:00|40=1|10=249|
8=FIX.4.4|9=212|35=t|49=TESTI|56=TESTA|34=4|52=20030204-08:46:14|548=42444008|551=30000008|549=2|550=b|552=2|54=1|11=B202020|41=B101010|38=4000|54=2|11=S202020|41=S101010|38=5000|55=TESTA|60=20060217-10:00:00|40=1|10=249|
8=FIX.4.4|9=140|35=1|34=104|49=SNDR|56=TRGT|52=20090407-09:48:19.812|112= TEST #123 CHECK 4 REJECT MSGS with INVALID MESSAGE - INCORRECT DATA TYPE [MsgType:_t, Tag:_550]|10=018|
8=FIX.4.4|9=66|35=x|49=TESTI|56=TESTA|34=14|52=20030204-09:25:43|320=11223|559=-1|10=111|
8=FIX.4.4|9=66|35=x|49=TESTI|56=TESTA|34=14|52=20030204-09:25:43|320=11223|559=5|10=111|
8=FIX.4.4|9=66|35=x|49=TESTI|56=TESTA|34=14|52=20030204-09:25:43|320=11223|559=A|10=111|
8=FIX.4.4|9=66|35=x|49=TESTI|56=TESTA|34=14|52=20030204-09:25:43|320=11223|559=b|10=111|
8=FIX.4.4|9=140|35=1|34=104|49=SNDR|56=TRGT|52=20090407-09:48:19.812|112= TEST #124 CHECK 4 REJECT MSGS with INVALID MESSAGE - INCORRECT DATA TYPE [MsgType:_x, Tag:_559]|10=018|
8=FIX.4.4|9=75|35=AA|49=TESTI|56=TESTA|34=14|52=20030204-09:25:43|320=0001|322=0001|560=-1|10=207|
8=FIX.4.4|9=75|35=AA|49=TESTI|56=TESTA|34=14|52=20030204-09:25:43|320=0001|322=0001|560=6|10=207|
8=FIX.4.4|9=75|35=AA|49=TESTI|56=TESTA|34=14|52=20030204-09:25:43|320=0001|322=0001|560=A|10=207|
8=FIX.4.4|9=75|35=AA|49=TESTI|56=TESTA|34=14|52=20030204-09:25:43|320=0001|322=0001|560=b|10=207|
8=FIX.4.4|9=140|35=1|34=104|49=SNDR|56=TRGT|52=20090407-09:48:19.812|112= TEST #125 CHECK 4 REJECT MSGS with INVALID MESSAGE - INCORRECT DATA TYPE [MsgType:_AA, Tag:_560]|10=018|
8=FIX.4.4|9=156|35=AB|49=TESTI|56=TESTA|34=4|52=20030204-08:46:14|11=90001008|54=1|55=TESTB|555=2|600=TESTA|600=TESTC|38=4000|40=1|60=20060117-10:00:00|563=-1|10=124|
8=FIX.4.4|9=156|35=AB|49=TESTI|56=TESTA|34=4|52=20030204-08:46:14|11=90001008|54=1|55=TESTB|555=2|600=TESTA|600=TESTC|38=4000|40=1|60=20060117-10:00:00|563=3|10=124|
8=FIX.4.4|9=156|35=AB|49=TESTI|56=TESTA|34=4|52=20030204-08:46:14|11=90001008|54=1|55=TESTB|555=2|600=TESTA|600=TESTC|38=4000|40=1|60=20060117-10:00:00|563=A|10=124|
8=FIX.4.4|9=156|35=AB|49=TESTI|56=TESTA|34=4|52=20030204-08:46:14|11=90001008|54=1|55=TESTB|555=2|600=TESTA|600=TESTC|38=4000|40=1|60=20060117-10:00:00|563=b|10=124|
8=FIX.4.4|9=140|35=1|34=104|49=SNDR|56=TRGT|52=20090407-09:48:19.812|112= TEST #126 CHECK 4 REJECT MSGS with INVALID MESSAGE - INCORRECT DATA TYPE [MsgType:_AB, Tag:_563]|10=018|
8=FIX.4.4|9=75|35=h|49=TESTI|56=TESTA|34=12|52=20030204-08:49:42|336=PRE-OPEN|340=2|567=0|10=188|
8=FIX.4.4|9=75|35=h|49=TESTI|56=TESTA|34=12|52=20030204-08:49:42|336=PRE-OPEN|340=2|567=-1|10=188|
8=FIX.4.4|9=75|35=h|49=TESTI|56=TESTA|34=12|52=20030204-08:49:42|336=PRE-OPEN|340=2|567=A|10=188|
8=FIX.4.4|9=75|35=h|49=TESTI|56=TESTA|34=12|52=20030204-08:49:42|336=PRE-OPEN|340=2|567=b|10=188|
8=FIX.4.4|9=140|35=1|34=104|49=SNDR|56=TRGT|52=20090407-09:48:19.812|112= TEST #127 CHECK 4 REJECT MSGS with INVALID MESSAGE - INCORRECT DATA TYPE [MsgType:_h, Tag:_567]|10=018|
8=FIX.4.4|9=83|35=AD|49=TESTI|56=TESTA|34=4|52=20030204-08:46:14|568=90001008|569=-1|10=160|
8=FIX.4.4|9=83|35=AD|49=TESTI|56=TESTA|34=4|52=20030204-08:46:14|568=90001008|569=5|10=160|
8=FIX.4.4|9=83|35=AD|49=TESTI|56=TESTA|34=4|52=20030204-08:46:14|568=90001008|569=A|10=160|
8=FIX.4.4|9=83|35=AD|49=TESTI|56=TESTA|34=4|52=20030204-08:46:14|568=90001008|569=b|10=160|
8=FIX.4.4|9=140|35=1|34=104|49=SNDR|56=TRGT|52=20090407-09:48:19.812|112= TEST #128 CHECK 4 REJECT MSGS with INVALID MESSAGE - INCORRECT DATA TYPE [MsgType:_AD, Tag:_569]|10=018|
8=FIX.4.4|9=179|35=AE|49=TESTI|56=TESTA|34=4|52=20030204-08:46:14|571=90001008|150=F|570=y|55=TESTA|32=1000|31=10.4|75=20060217|60=20060217-10:00:00|552=2|54=1|37=0001|54=2|37=0002|10=183|
8=FIX.4.4|9=179|35=AE|49=TESTI|56=TESTA|34=4|52=20030204-08:46:14|571=90001008|150=F|570=n|55=TESTA|32=1000|31=10.4|75=20060217|60=20060217-10:00:00|552=2|54=1|37=0001|54=2|37=0002|10=183|
8=FIX.4.4|9=179|35=AE|49=TESTI|56=TESTA|34=4|52=20030204-08:46:14|571=90001008|150=F|570=0|55=TESTA|32=1000|31=10.4|75=20060217|60=20060217-10:00:00|552=2|54=1|37=0001|54=2|37=0002|10=183|
8=FIX.4.4|9=179|35=AE|49=TESTI|56=TESTA|34=4|52=20030204-08:46:14|571=90001008|150=F|570=-1|55=TESTA|32=1000|31=10.4|75=20060217|60=20060217-10:00:00|552=2|54=1|37=0001|54=2|37=0002|10=183|
8=FIX.4.4|9=140|35=1|34=104|49=SNDR|56=TRGT|52=20090407-09:48:19.812|112= TEST #129 CHECK 4 REJECT MSGS with INVALID MESSAGE - INCORRECT DATA TYPE [MsgType:_AE, Tag:_570]|10=018|
8=FIX.4.4|9=119|35=AU|49=TESTI|56=TESTA|34=4|52=20030204-08:46:14|664=0001|60=20060217-10:00:00|75=20060217|940=1|774=1|573=-1|10=082|
8=FIX.4.4|9=119|35=AU|49=TESTI|56=TESTA|34=4|52=20030204-08:46:14|664=0001|60=20060217-10:00:00|75=20060217|940=1|774=1|573=3|10=082|
8=FIX.4.4|9=119|35=AU|49=TESTI|56=TESTA|34=4|52=20030204-08:46:14|664=0001|60=20060217-10:00:00|75=20060217|940=1|774=1|573=A|10=082|
8=FIX.4.4|9=119|35=AU|49=TESTI|56=TESTA|34=4|52=20030204-08:46:14|664=0001|60=20060217-10:00:00|75=20060217|940=1|774=1|573=b|10=082|
8=FIX.4.4|9=140|35=1|34=104|49=SNDR|56=TRGT|52=20090407-09:48:19.812|112= TEST #130 CHECK 4 REJECT MSGS with INVALID MESSAGE - INCORRECT DATA TYPE [MsgType:_AU, Tag:_573]|10=018|
8=FIX.4.4|9=185|35=J|49=TESTI|56=TESTA|34=4|52=20030204-08:56:41|70=1116226|71=0|626=1|857=0|574=a1|54=1|55=TESTB|53=1004000|6=30|75=20030821|78=3|79=1000|80=500000|79=2000|80=400000|79=3000|80=104000|10=081|
8=FIX.4.4|9=185|35=J|49=TESTI|56=TESTA|34=4|52=20030204-08:56:41|70=1116226|71=0|626=1|857=0|574=m1|54=1|55=TESTB|53=1004000|6=30|75=20030821|78=3|79=1000|80=500000|79=2000|80=400000|79=3000|80=104000|10=081|
8=FIX.4.4|9=185|35=J|49=TESTI|56=TESTA|34=4|52=20030204-08:56:41|70=1116226|71=0|626=1|857=0|574=0|54=1|55=TESTB|53=1004000|6=30|75=20030821|78=3|79=1000|80=500000|79=2000|80=400000|79=3000|80=104000|10=081|
8=FIX.4.4|9=185|35=J|49=TESTI|56=TESTA|34=4|52=20030204-08:56:41|70=1116226|71=0|626=1|857=0|574=-1|54=1|55=TESTB|53=1004000|6=30|75=20030821|78=3|79=1000|80=500000|79=2000|80=400000|79=3000|80=104000|10=081|
8=FIX.4.4|9=140|35=1|34=104|49=SNDR|56=TRGT|52=20090407-09:48:19.812|112= TEST #131 CHECK 4 REJECT MSGS with INVALID MESSAGE - INCORRECT DATA TYPE [MsgType:_J, Tag:_574]|10=018|
8=FIX.4.4|9=191|35=AE|49=TESTI|56=TESTA|34=4|52=20030204-08:46:14|571=90001008|150=F|570=N|55=TESTA|32=1000|31=10.4|75=20060217|60=20060217-10:00:00|552=2|54=1|37=0001|575=N|54=2|37=0002|575=y|10=022|
8=FIX.4.4|9=191|35=AE|49=TESTI|56=TESTA|34=4|52=20030204-08:46:14|571=90001008|150=F|570=N|55=TESTA|32=1000|31=10.4|75=20060217|60=20060217-10:00:00|552=2|54=1|37=0001|575=N|54=2|37=0002|575=n|10=022|
8=FIX.4.4|9=191|35=AE|49=TESTI|56=TESTA|34=4|52=20030204-08:46:14|571=90001008|150=F|570=N|55=TESTA|32=1000|31=10.4|75=20060217|60=20060217-10:00:00|552=2|54=1|37=0001|575=N|54=2|37=0002|575=0|10=022|
8=FIX.4.4|9=191|35=AE|49=TESTI|56=TESTA|34=4|52=20030204-08:46:14|571=90001008|150=F|570=N|55=TESTA|32=1000|31=10.4|75=20060217|60=20060217-10:00:00|552=2|54=1|37=0001|575=N|54=2|37=0002|575=-1|10=022|
8=FIX.4.4|9=140|35=1|34=104|49=SNDR|56=TRGT|52=20090407-09:48:19.812|112= TEST #132 CHECK 4 REJECT MSGS with INVALID MESSAGE - INCORRECT DATA TYPE [MsgType:_AE, Tag:_575]|10=018|
8=FIX.4.4|9=204|35=AE|49=TESTI|56=TESTA|34=4|52=20030204-08:46:14|571=90001008|150=F|570=N|55=TESTA|32=1000|31=10.4|75=20060217|60=20060217-10:00:00|552=1|54=1|37=0001|576=1|577=-1|10=035|
8=FIX.4.4|9=204|35=AE|49=TESTI|56=TESTA|34=4|52=20030204-08:46:14|571=90001008|150=F|570=N|55=TESTA|32=1000|31=10.4|75=20060217|60=20060217-10:00:00|552=1|54=1|37=0001|576=1|577=14|10=035|
8=FIX.4.4|9=204|35=AE|49=TESTI|56=TESTA|34=4|52=20030204-08:46:14|571=90001008|150=F|570=N|55=TESTA|32=1000|31=10.4|75=20060217|60=20060217-10:00:00|552=1|54=1|37=0001|576=1|577=A|10=035|
8=FIX.4.4|9=204|35=AE|49=TESTI|56=TESTA|34=4|52=20030204-08:46:14|571=90001008|150=F|570=N|55=TESTA|32=1000|31=10.4|75=20060217|60=20060217-10:00:00|552=1|54=1|37=0001|576=1|577=b|10=035|
8=FIX.4.4|9=140|35=1|34=104|49=SNDR|56=TRGT|52=20090407-09:48:19.812|112= TEST #133 CHECK 4 REJECT MSGS with INVALID MESSAGE - INCORRECT DATA TYPE [MsgType:_AE, Tag:_577]|10=018|
8=FIX.4.4|9=215|35=AM|49=TESTI|56=TESTA|34=4|52=20030204-08:46:14|721=0001|709=1|712=1|713=TST73|722=0|715=20060217|1=KTierney|581=0|55=TESTA|60=20060217-10:00:00|702=2|703=TQ|703=IAS|753=2|707=FMTM|708=10|707=PREM|708=20|10=094|
8=FIX.4.4|9=215|35=AM|49=TESTI|56=TESTA|34=4|52=20030204-08:46:14|721=0001|709=1|712=1|713=TST73|722=0|715=20060217|1=KTierney|581=-1|55=TESTA|60=20060217-10:00:00|702=2|703=TQ|703=IAS|753=2|707=FMTM|708=10|707=PREM|708=20|10=094|
8=FIX.4.4|9=215|35=AM|49=TESTI|56=TESTA|34=4|52=20030204-08:46:14|721=0001|709=1|712=1|713=TST73|722=0|715=20060217|1=KTierney|581=A|55=TESTA|60=20060217-10:00:00|702=2|703=TQ|703=IAS|753=2|707=FMTM|708=10|707=PREM|708=20|10=094|
8=FIX.4.4|9=215|35=AM|49=TESTI|56=TESTA|34=4|52=20030204-08:46:14|721=0001|709=1|712=1|713=TST73|722=0|715=20060217|1=KTierney|581=b|55=TESTA|60=20060217-10:00:00|702=2|703=TQ|703=IAS|753=2|707=FMTM|708=10|707=PREM|708=20|10=094|
8=FIX.4.4|9=140|35=1|34=104|49=SNDR|56=TRGT|52=20090407-09:48:19.812|112= TEST #134 CHECK 4 REJECT MSGS with INVALID MESSAGE - INCORRECT DATA TYPE [MsgType:_AM, Tag:_581]|10=018|
8=FIX.4.4|9=161|35=E|49=TESTI|56=TESTA|34=3|52=20030204-08:18:22|66=20012411|394=3|68=1|73=2|11=1131|67=1|55=TESTB3|54=3|38=3000|582=0|11=1132|67=2|55=TESTB2|54=1|38=1000|582=4|10=058|
8=FIX.4.4|9=161|35=E|49=TESTI|56=TESTA|34=3|52=20030204-08:18:22|66=20012411|394=3|68=1|73=2|11=1131|67=1|55=TESTB3|54=3|38=3000|582=-1|11=1132|67=2|55=TESTB2|54=1|38=1000|582=4|10=058|
8=FIX.4.4|9=161|35=E|49=TESTI|56=TESTA|34=3|52=20030204-08:18:22|66=20012411|394=3|68=1|73=2|11=1131|67=1|55=TESTB3|54=3|38=3000|582=A|11=1132|67=2|55=TESTB2|54=1|38=1000|582=4|10=058|
8=FIX.4.4|9=161|35=E|49=TESTI|56=TESTA|34=3|52=20030204-08:18:22|66=20012411|394=3|68=1|73=2|11=1131|67=1|55=TESTB3|54=3|38=3000|582=b|11=1132|67=2|55=TESTB2|54=1|38=1000|582=4|10=058|
8=FIX.4.4|9=140|35=1|34=104|49=SNDR|56=TRGT|52=20090407-09:48:19.812|112= TEST #135 CHECK 4 REJECT MSGS with INVALID MESSAGE - INCORRECT DATA TYPE [MsgType:_E, Tag:_582]|10=018|
8=FIX.4.4|9=79|35=AF|49=TESTI|56=TESTA|34=4|52=20030204-08:46:14|584=0001|585=0|10=211|
8=FIX.4.4|9=79|35=AF|49=TESTI|56=TESTA|34=4|52=20030204-08:46:14|584=0001|585=-1|10=211|
8=FIX.4.4|9=79|35=AF|49=TESTI|56=TESTA|34=4|52=20030204-08:46:14|584=0001|585=A|10=211|
8=FIX.4.4|9=79|35=AF|49=TESTI|56=TESTA|34=4|52=20030204-08:46:14|584=0001|585=b|10=211|
8=FIX.4.4|9=140|35=1|34=104|49=SNDR|56=TRGT|52=20090407-09:48:19.812|112= TEST #136 CHECK 4 REJECT MSGS with INVALID MESSAGE - INCORRECT DATA TYPE [MsgType:_AF, Tag:_585]|10=018|
8=FIX.4.4|9=156|35=AB|49=TESTI|56=TESTA|34=4|52=20030204-08:46:14|11=90001008|589=-1|54=1|55=TESTB|555=2|600=TESTA|600=TESTC|38=4000|40=1|60=20060117-10:00:00|10=132|
8=FIX.4.4|9=156|35=AB|49=TESTI|56=TESTA|34=4|52=20030204-08:46:14|11=90001008|589=3|54=1|55=TESTB|555=2|600=TESTA|600=TESTC|38=4000|40=1|60=20060117-10:00:00|10=132|
8=FIX.4.4|9=156|35=AB|49=TESTI|56=TESTA|34=4|52=20030204-08:46:14|11=90001008|589=A|54=1|55=TESTB|555=2|600=TESTA|600=TESTC|38=4000|40=1|60=20060117-10:00:00|10=132|
8=FIX.4.4|9=156|35=AB|49=TESTI|56=TESTA|34=4|52=20030204-08:46:14|11=90001008|589=b|54=1|55=TESTB|555=2|600=TESTA|600=TESTC|38=4000|40=1|60=20060117-10:00:00|10=132|
8=FIX.4.4|9=140|35=1|34=104|49=SNDR|56=TRGT|52=20090407-09:48:19.812|112= TEST #137 CHECK 4 REJECT MSGS with INVALID MESSAGE - INCORRECT DATA TYPE [MsgType:_AB, Tag:_589]|10=018|
