8=FIX.4.4|9=216|35=AM|49=TESTI|56=TESTA|34=4|52=20030204-08:46:14|721=0001|709=1|712=1|713=TST713|722=0|715=20060217|1=KTierney|581=1|55=TESTA|60=20060217-10:00:00|702=1|703=0|753=2|707=FMTM|708=10|707=PREM|708=20|10=144|
8=FIX.4.4|9=216|35=AM|49=TESTI|56=TESTA|34=4|52=20030204-08:46:14|721=0001|709=1|712=1|713=TST713|722=0|715=20060217|1=KTierney|581=1|55=TESTA|60=20060217-10:00:00|702=1|703=-1|753=2|707=FMTM|708=10|707=PREM|708=20|10=144|
8=FIX.4.4|9=216|35=AM|49=TESTI|56=TESTA|34=4|52=20030204-08:46:14|721=0001|709=1|712=1|713=TST713|722=0|715=20060217|1=KTierney|581=1|55=TESTA|60=20060217-10:00:00|702=1|703=tQ|753=2|707=FMTM|708=10|707=PREM|708=20|10=144|
8=FIX.4.4|9=216|35=AM|49=TESTI|56=TESTA|34=4|52=20030204-08:46:14|721=0001|709=1|712=1|713=TST713|722=0|715=20060217|1=KTierney|581=1|55=TESTA|60=20060217-10:00:00|702=1|703=trf|753=2|707=FMTM|708=10|707=PREM|708=20|10=144|
8=FIX.4.4|9=140|35=1|34=104|49=SNDR|56=TRGT|52=20090407-09:48:19.812|112= TEST #153 CHECK 4 REJECT MSGS with INVALID MESSAGE - INCORRECT DATA TYPE [MsgType:_AM, Tag:_703]|10=018|
8=FIX.4.4|9=216|35=AW|49=TESTI|56=TESTA|34=4|52=20030204-08:46:14|833=0001|453=1|448=ABNA|447=C|452=4|581=1|702=1|703=ASF|706=-1|753=1|707=CASH|708=1000|730=10.5|731=1|732=11.5|744=P|746=5.5|747=M|716=ITD|717=1|715=20060217|10=225|
8=FIX.4.4|9=216|35=AW|49=TESTI|56=TESTA|34=4|52=20030204-08:46:14|833=0001|453=1|448=ABNA|447=C|452=4|581=1|702=1|703=ASF|706=3|753=1|707=CASH|708=1000|730=10.5|731=1|732=11.5|744=P|746=5.5|747=M|716=ITD|717=1|715=20060217|10=225|
8=FIX.4.4|9=216|35=AW|49=TESTI|56=TESTA|34=4|52=20030204-08:46:14|833=0001|453=1|448=ABNA|447=C|452=4|581=1|702=1|703=ASF|706=A|753=1|707=CASH|708=1000|730=10.5|731=1|732=11.5|744=P|746=5.5|747=M|716=ITD|717=1|715=20060217|10=225|
8=FIX.4.4|9=216|35=AW|49=TESTI|56=TESTA|34=4|52=20030204-08:46:14|833=0001|453=1|448=ABNA|447=C|452=4|581=1|702=1|703=ASF|706=b|753=1|707=CASH|708=1000|730=10.5|731=1|732=11.5|744=P|746=5.5|747=M|716=ITD|717=1|715=20060217|10=225|
8=FIX.4.4|9=140|35=1|34=104|49=SNDR|56=TRGT|52=20090407-09:48:19.812|112= TEST #154 CHECK 4 REJECT MSGS with INVALID MESSAGE - INCORRECT DATA TYPE [MsgType:_AW, Tag:_706]|10=018|
8=FIX.4.4|9=216|35=AM|49=TESTI|56=TESTA|34=4|52=20030204-08:46:14|721=0001|709=1|712=1|713=TST713|722=0|715=20060217|1=KTierney|581=1|55=TESTA|60=20060217-10:00:00|702=2|703=TQ|703=IAS|753=1|707=fMTM|708=10|10=144|
8=FIX.4.4|9=216|35=AM|49=TESTI|56=TESTA|34=4|52=20030204-08:46:14|721=0001|709=1|712=1|713=TST713|722=0|715=20060217|1=KTierney|581=1|55=TESTA|60=20060217-10:00:00|702=2|703=TQ|703=IAS|753=1|707=Tvar|708=10|10=144|
8=FIX.4.4|9=216|35=AM|49=TESTI|56=TESTA|34=4|52=20030204-08:46:14|721=0001|709=1|712=1|713=TST713|722=0|715=20060217|1=KTierney|581=1|55=TESTA|60=20060217-10:00:00|702=2|703=TQ|703=IAS|753=1|707=0|708=10|10=144|
8=FIX.4.4|9=216|35=AM|49=TESTI|56=TESTA|34=4|52=20030204-08:46:14|721=0001|709=1|712=1|713=TST713|722=0|715=20060217|1=KTierney|581=1|55=TESTA|60=20060217-10:00:00|702=2|703=TQ|703=IAS|753=1|707=-1|708=10|10=144|
8=FIX.4.4|9=140|35=1|34=104|49=SNDR|56=TRGT|52=20090407-09:48:19.812|112= TEST #155 CHECK 4 REJECT MSGS with INVALID MESSAGE - INCORRECT DATA TYPE [MsgType:_AM, Tag:_707]|10=018|
8=FIX.4.4|9=188|35=AL|49=TESTI|56=TESTA|34=4|52=20030204-08:46:14|710=0001|709=0|712=1|715=20060217|453=1|448=ABNA|447=C|452=4|1=KTierney|581=1|55=TESTA|60=20060217-10:00:00|702=2|703=TQ|703=IAS|10=153|
8=FIX.4.4|9=188|35=AL|49=TESTI|56=TESTA|34=4|52=20030204-08:46:14|710=0001|709=-1|712=1|715=20060217|453=1|448=ABNA|447=C|452=4|1=KTierney|581=1|55=TESTA|60=20060217-10:00:00|702=2|703=TQ|703=IAS|10=153|
8=FIX.4.4|9=188|35=AL|49=TESTI|56=TESTA|34=4|52=20030204-08:46:14|710=0001|709=A|712=1|715=20060217|453=1|448=ABNA|447=C|452=4|1=KTierney|581=1|55=TESTA|60=20060217-10:00:00|702=2|703=TQ|703=IAS|10=153|
8=FIX.4.4|9=188|35=AL|49=TESTI|56=TESTA|34=4|52=20030204-08:46:14|710=0001|709=b|712=1|715=20060217|453=1|448=ABNA|447=C|452=4|1=KTierney|581=1|55=TESTA|60=20060217-10:00:00|702=2|703=TQ|703=IAS|10=153|
8=FIX.4.4|9=140|35=1|34=104|49=SNDR|56=TRGT|52=20090407-09:48:19.812|112= TEST #156 CHECK 4 REJECT MSGS with INVALID MESSAGE - INCORRECT DATA TYPE [MsgType:_AL, Tag:_709]|10=018|
8=FIX.4.4|9=188|35=AL|49=TESTI|56=TESTA|34=4|52=20030204-08:46:14|710=0001|709=1|712=0|715=20060217|453=1|448=ABNA|447=C|452=4|1=KTierney|581=1|55=TESTA|60=20060217-10:00:00|702=2|703=TQ|703=IAS|10=153|
8=FIX.4.4|9=188|35=AL|49=TESTI|56=TESTA|34=4|52=20030204-08:46:14|710=0001|709=1|712=-1|715=20060217|453=1|448=ABNA|447=C|452=4|1=KTierney|581=1|55=TESTA|60=20060217-10:00:00|702=2|703=TQ|703=IAS|10=153|
8=FIX.4.4|9=188|35=AL|49=TESTI|56=TESTA|34=4|52=20030204-08:46:14|710=0001|709=1|712=A|715=20060217|453=1|448=ABNA|447=C|452=4|1=KTierney|581=1|55=TESTA|60=20060217-10:00:00|702=2|703=TQ|703=IAS|10=153|
8=FIX.4.4|9=188|35=AL|49=TESTI|56=TESTA|34=4|52=20030204-08:46:14|710=0001|709=1|712=b|715=20060217|453=1|448=ABNA|447=C|452=4|1=KTierney|581=1|55=TESTA|60=20060217-10:00:00|702=2|703=TQ|703=IAS|10=153|
8=FIX.4.4|9=140|35=1|34=104|49=SNDR|56=TRGT|52=20090407-09:48:19.812|112= TEST #157 CHECK 4 REJECT MSGS with INVALID MESSAGE - INCORRECT DATA TYPE [MsgType:_AL, Tag:_712]|10=018|
8=FIX.4.4|9=194|35=AL|49=TESTI|56=TESTA|34=4|52=20030204-08:46:14|710=0001|709=1|712=1|715=20060217|453=1|448=ABNA|447=C|452=4|1=KTierney|581=1|55=TESTA|60=20060217-10:00:00|702=2|703=TQ|703=IAS|718=-1|10=164|
8=FIX.4.4|9=194|35=AL|49=TESTI|56=TESTA|34=4|52=20030204-08:46:14|710=0001|709=1|712=1|715=20060217|453=1|448=ABNA|447=C|452=4|1=KTierney|581=1|55=TESTA|60=20060217-10:00:00|702=2|703=TQ|703=IAS|718=4|10=164|
8=FIX.4.4|9=194|35=AL|49=TESTI|56=TESTA|34=4|52=20030204-08:46:14|710=0001|709=1|712=1|715=20060217|453=1|448=ABNA|447=C|452=4|1=KTierney|581=1|55=TESTA|60=20060217-10:00:00|702=2|703=TQ|703=IAS|718=A|10=164|
8=FIX.4.4|9=194|35=AL|49=TESTI|56=TESTA|34=4|52=20030204-08:46:14|710=0001|709=1|712=1|715=20060217|453=1|448=ABNA|447=C|452=4|1=KTierney|581=1|55=TESTA|60=20060217-10:00:00|702=2|703=TQ|703=IAS|718=b|10=164|
8=FIX.4.4|9=140|35=1|34=104|49=SNDR|56=TRGT|52=20090407-09:48:19.812|112= TEST #158 CHECK 4 REJECT MSGS with INVALID MESSAGE - INCORRECT DATA TYPE [MsgType:_AL, Tag:_718]|10=018|
8=FIX.4.4|9=216|35=AM|49=TESTI|56=TESTA|34=4|52=20030204-08:46:14|721=0001|709=1|712=1|713=TST713|722=-1|715=20060217|1=KTierney|581=1|55=TESTA|60=20060217-10:00:00|702=2|703=TQ|703=IAS|753=2|707=FMTM|708=10|707=PREM|708=20|10=144|
8=FIX.4.4|9=216|35=AM|49=TESTI|56=TESTA|34=4|52=20030204-08:46:14|721=0001|709=1|712=1|713=TST713|722=5|715=20060217|1=KTierney|581=1|55=TESTA|60=20060217-10:00:00|702=2|703=TQ|703=IAS|753=2|707=FMTM|708=10|707=PREM|708=20|10=144|
8=FIX.4.4|9=216|35=AM|49=TESTI|56=TESTA|34=4|52=20030204-08:46:14|721=0001|709=1|712=1|713=TST713|722=A|715=20060217|1=KTierney|581=1|55=TESTA|60=20060217-10:00:00|702=2|703=TQ|703=IAS|753=2|707=FMTM|708=10|707=PREM|708=20|10=144|
8=FIX.4.4|9=216|35=AM|49=TESTI|56=TESTA|34=4|52=20030204-08:46:14|721=0001|709=1|712=1|713=TST713|722=b|715=20060217|1=KTierney|581=1|55=TESTA|60=20060217-10:00:00|702=2|703=TQ|703=IAS|753=2|707=FMTM|708=10|707=PREM|708=20|10=144|
8=FIX.4.4|9=140|35=1|34=104|49=SNDR|56=TRGT|52=20090407-09:48:19.812|112= TEST #159 CHECK 4 REJECT MSGS with INVALID MESSAGE - INCORRECT DATA TYPE [MsgType:_AM, Tag:_722]|10=018|
8=FIX.4.4|9=229|35=AM|49=TESTI|56=TESTA|34=4|52=20030204-08:46:14|721=0001|709=1|712=1|722=0|723=-1|715=20060217|1=KTierney|581=1|55=TESTA|60=20060217-10:00:00|702=2|703=TQ|703=IAS|753=2|707=FMTM|708=10|707=PREM|708=20|713=00000001-1234|10=128|
8=FIX.4.4|9=229|35=AM|49=TESTI|56=TESTA|34=4|52=20030204-08:46:14|721=0001|709=1|712=1|722=0|723=2|715=20060217|1=KTierney|581=1|55=TESTA|60=20060217-10:00:00|702=2|703=TQ|703=IAS|753=2|707=FMTM|708=10|707=PREM|708=20|713=00000001-1234|10=128|
8=FIX.4.4|9=229|35=AM|49=TESTI|56=TESTA|34=4|52=20030204-08:46:14|721=0001|709=1|712=1|722=0|723=A|715=20060217|1=KTierney|581=1|55=TESTA|60=20060217-10:00:00|702=2|703=TQ|703=IAS|753=2|707=FMTM|708=10|707=PREM|708=20|713=00000001-1234|10=128|
8=FIX.4.4|9=229|35=AM|49=TESTI|56=TESTA|34=4|52=20030204-08:46:14|721=0001|709=1|712=1|722=0|723=b|715=20060217|1=KTierney|581=1|55=TESTA|60=20060217-10:00:00|702=2|703=TQ|703=IAS|753=2|707=FMTM|708=10|707=PREM|708=20|713=00000001-1234|10=128|
8=FIX.4.4|9=140|35=1|34=104|49=SNDR|56=TRGT|52=20090407-09:48:19.812|112= TEST #160 CHECK 4 REJECT MSGS with INVALID MESSAGE - INCORRECT DATA TYPE [MsgType:_AM, Tag:_723]|10=018|
8=FIX.4.4|9=152|35=AN|49=TESTI|56=TESTA|34=4|52=20030204-08:46:14|710=0001|724=-1|453=1|448=ABNA|447=C|452=4|1=KTierney|581=1|715=20060217|60=20060217-10:00:00|10=033|
8=FIX.4.4|9=152|35=AN|49=TESTI|56=TESTA|34=4|52=20030204-08:46:14|710=0001|724=4|453=1|448=ABNA|447=C|452=4|1=KTierney|581=1|715=20060217|60=20060217-10:00:00|10=033|
8=FIX.4.4|9=152|35=AN|49=TESTI|56=TESTA|34=4|52=20030204-08:46:14|710=0001|724=A|453=1|448=ABNA|447=C|452=4|1=KTierney|581=1|715=20060217|60=20060217-10:00:00|10=033|
8=FIX.4.4|9=152|35=AN|49=TESTI|56=TESTA|34=4|52=20030204-08:46:14|710=0001|724=b|453=1|448=ABNA|447=C|452=4|1=KTierney|581=1|715=20060217|60=20060217-10:00:00|10=033|
8=FIX.4.4|9=140|35=1|34=104|49=SNDR|56=TRGT|52=20090407-09:48:19.812|112= TEST #161 CHECK 4 REJECT MSGS with INVALID MESSAGE - INCORRECT DATA TYPE [MsgType:_AN, Tag:_724]|10=018|
8=FIX.4.4|9=65|35=BB|49=TESTI|56=TESTA|34=4|50=30737|52=20030204-08:46:14|725=-1|10=031|
8=FIX.4.4|9=65|35=BB|49=TESTI|56=TESTA|34=4|50=30737|52=20030204-08:46:14|725=2|10=031|
8=FIX.4.4|9=65|35=BB|49=TESTI|56=TESTA|34=4|50=30737|52=20030204-08:46:14|725=A|10=031|
8=FIX.4.4|9=65|35=BB|49=TESTI|56=TESTA|34=4|50=30737|52=20030204-08:46:14|725=b|10=031|
8=FIX.4.4|9=140|35=1|34=104|49=SNDR|56=TRGT|52=20090407-09:48:19.812|112= TEST #162 CHECK 4 REJECT MSGS with INVALID MESSAGE - INCORRECT DATA TYPE [MsgType:_BB, Tag:_725]|10=018|
8=FIX.4.4|9=124|35=AO|49=TESTI|56=TESTA|34=4|52=20030204-08:46:14|721=0001|728=-1|729=0|453=1|448=ABNA|447=C|452=4|1=KTierney|581=1|10=210|
8=FIX.4.4|9=124|35=AO|49=TESTI|56=TESTA|34=4|52=20030204-08:46:14|721=0001|728=5|729=0|453=1|448=ABNA|447=C|452=4|1=KTierney|581=1|10=210|
8=FIX.4.4|9=124|35=AO|49=TESTI|56=TESTA|34=4|52=20030204-08:46:14|721=0001|728=A|729=0|453=1|448=ABNA|447=C|452=4|1=KTierney|581=1|10=210|
8=FIX.4.4|9=124|35=AO|49=TESTI|56=TESTA|34=4|52=20030204-08:46:14|721=0001|728=b|729=0|453=1|448=ABNA|447=C|452=4|1=KTierney|581=1|10=210|
8=FIX.4.4|9=140|35=1|34=104|49=SNDR|56=TRGT|52=20090407-09:48:19.812|112= TEST #163 CHECK 4 REJECT MSGS with INVALID MESSAGE - INCORRECT DATA TYPE [MsgType:_AO, Tag:_728]|10=018|
8=FIX.4.4|9=124|35=AO|49=TESTI|56=TESTA|34=4|52=20030204-08:46:14|721=0001|728=0|729=-1|453=1|448=ABNA|447=C|452=4|1=KTierney|581=1|10=210|
8=FIX.4.4|9=124|35=AO|49=TESTI|56=TESTA|34=4|52=20030204-08:46:14|721=0001|728=0|729=3|453=1|448=ABNA|447=C|452=4|1=KTierney|581=1|10=210|
8=FIX.4.4|9=124|35=AO|49=TESTI|56=TESTA|34=4|52=20030204-08:46:14|721=0001|728=0|729=A|453=1|448=ABNA|447=C|452=4|1=KTierney|581=1|10=210|
8=FIX.4.4|9=124|35=AO|49=TESTI|56=TESTA|34=4|52=20030204-08:46:14|721=0001|728=0|729=b|453=1|448=ABNA|447=C|452=4|1=KTierney|581=1|10=210|
8=FIX.4.4|9=140|35=1|34=104|49=SNDR|56=TRGT|52=20090407-09:48:19.812|112= TEST #164 CHECK 4 REJECT MSGS with INVALID MESSAGE - INCORRECT DATA TYPE [MsgType:_AO, Tag:_729]|10=018|
8=FIX.4.4|9=214|35=AP|49=TESTI|56=TESTA|34=4|52=20030204-08:46:14|721=0001|728=0|715=20060217|453=1|448=ABNA|447=C|452=4|1=KTierney|581=1|730=10.5|731=0|734=10.3|702=2|703=TQ|703=IAS|753=2|707=FMTM|708=10|707=PREM|708=20|10=091|
8=FIX.4.4|9=214|35=AP|49=TESTI|56=TESTA|34=4|52=20030204-08:46:14|721=0001|728=0|715=20060217|453=1|448=ABNA|447=C|452=4|1=KTierney|581=1|730=10.5|731=-1|734=10.3|702=2|703=TQ|703=IAS|753=2|707=FMTM|708=10|707=PREM|708=20|10=091|
8=FIX.4.4|9=214|35=AP|49=TESTI|56=TESTA|34=4|52=20030204-08:46:14|721=0001|728=0|715=20060217|453=1|448=ABNA|447=C|452=4|1=KTierney|581=1|730=10.5|731=A|734=10.3|702=2|703=TQ|703=IAS|753=2|707=FMTM|708=10|707=PREM|708=20|10=091|
8=FIX.4.4|9=214|35=AP|49=TESTI|56=TESTA|34=4|52=20030204-08:46:14|721=0001|728=0|715=20060217|453=1|448=ABNA|447=C|452=4|1=KTierney|581=1|730=10.5|731=b|734=10.3|702=2|703=TQ|703=IAS|753=2|707=FMTM|708=10|707=PREM|708=20|10=091|
8=FIX.4.4|9=140|35=1|34=104|49=SNDR|56=TRGT|52=20090407-09:48:19.812|112= TEST #165 CHECK 4 REJECT MSGS with INVALID MESSAGE - INCORRECT DATA TYPE [MsgType:_AP, Tag:_731]|10=018|
8=FIX.4.4|9=210|35=AW|49=TESTI|56=TESTA|34=4|52=20030204-08:46:14|833=0001|453=1|448=ABNA|447=C|452=4|581=1|702=1|703=ASF|753=1|707=CASH|708=1000|730=10.5|731=1|732=11.5|744=p|746=5.5|747=M|716=ITD|717=1|715=20060217|10=208|
8=FIX.4.4|9=210|35=AW|49=TESTI|56=TESTA|34=4|52=20030204-08:46:14|833=0001|453=1|448=ABNA|447=C|452=4|581=1|702=1|703=ASF|753=1|707=CASH|708=1000|730=10.5|731=1|732=11.5|744=r|746=5.5|747=M|716=ITD|717=1|715=20060217|10=208|
8=FIX.4.4|9=210|35=AW|49=TESTI|56=TESTA|34=4|52=20030204-08:46:14|833=0001|453=1|448=ABNA|447=C|452=4|581=1|702=1|703=ASF|753=1|707=CASH|708=1000|730=10.5|731=1|732=11.5|744=0|746=5.5|747=M|716=ITD|717=1|715=20060217|10=208|
8=FIX.4.4|9=210|35=AW|49=TESTI|56=TESTA|34=4|52=20030204-08:46:14|833=0001|453=1|448=ABNA|447=C|452=4|581=1|702=1|703=ASF|753=1|707=CASH|708=1000|730=10.5|731=1|732=11.5|744=-1|746=5.5|747=M|716=ITD|717=1|715=20060217|10=208|
8=FIX.4.4|9=140|35=1|34=104|49=SNDR|56=TRGT|52=20090407-09:48:19.812|112= TEST #166 CHECK 4 REJECT MSGS with INVALID MESSAGE - INCORRECT DATA TYPE [MsgType:_AW, Tag:_744]|10=018|
8=FIX.4.4|9=210|35=AW|49=TESTI|56=TESTA|34=4|52=20030204-08:46:14|833=0001|453=1|448=ABNA|447=E|452=4|581=1|702=1|703=ASF|753=1|707=CASH|708=1000|730=10.5|731=1|732=11.5|744=P|746=5.5|747=a|716=ITD|717=1|715=20060217|10=210|
8=FIX.4.4|9=210|35=AW|49=TESTI|56=TESTA|34=4|52=20030204-08:46:14|833=0001|453=1|448=ABNA|447=E|452=4|581=1|702=1|703=ASF|753=1|707=CASH|708=1000|730=10.5|731=1|732=11.5|744=P|746=5.5|747=m|716=ITD|717=1|715=20060217|10=210|
8=FIX.4.4|9=210|35=AW|49=TESTI|56=TESTA|34=4|52=20030204-08:46:14|833=0001|453=1|448=ABNA|447=E|452=4|581=1|702=1|703=ASF|753=1|707=CASH|708=1000|730=10.5|731=1|732=11.5|744=P|746=5.5|747=0|716=ITD|717=1|715=20060217|10=210|
8=FIX.4.4|9=210|35=AW|49=TESTI|56=TESTA|34=4|52=20030204-08:46:14|833=0001|453=1|448=ABNA|447=E|452=4|581=1|702=1|703=ASF|753=1|707=CASH|708=1000|730=10.5|731=1|732=11.5|744=P|746=5.5|747=-1|716=ITD|717=1|715=20060217|10=210|
8=FIX.4.4|9=140|35=1|34=104|49=SNDR|56=TRGT|52=20090407-09:48:19.812|112= TEST #167 CHECK 4 REJECT MSGS with INVALID MESSAGE - INCORRECT DATA TYPE [MsgType:_AW, Tag:_747]|10=018|
8=FIX.4.4|9=102|35=AQ|49=TESTI|56=TESTA|34=4|52=20030204-08:46:14|568=90001008|569=0|749=-1|750=0|55=IBM|10=114|
8=FIX.4.4|9=102|35=AQ|49=TESTI|56=TESTA|34=4|52=20030204-08:46:14|568=90001008|569=0|749=10|750=0|55=IBM|10=114|
8=FIX.4.4|9=102|35=AQ|49=TESTI|56=TESTA|34=4|52=20030204-08:46:14|568=90001008|569=0|749=A|750=0|55=IBM|10=114|
8=FIX.4.4|9=102|35=AQ|49=TESTI|56=TESTA|34=4|52=20030204-08:46:14|568=90001008|569=0|749=b|750=0|55=IBM|10=114|
8=FIX.4.4|9=140|35=1|34=104|49=SNDR|56=TRGT|52=20090407-09:48:19.812|112= TEST #168 CHECK 4 REJECT MSGS with INVALID MESSAGE - INCORRECT DATA TYPE [MsgType:_AQ, Tag:_749]|10=018|
8=FIX.4.4|9=102|35=AQ|49=TESTI|56=TESTA|34=4|52=20030204-08:46:14|568=90001008|569=0|749=2|750=-1|55=IBM|10=115|
8=FIX.4.4|9=102|35=AQ|49=TESTI|56=TESTA|34=4|52=20030204-08:46:14|568=90001008|569=0|749=2|750=3|55=IBM|10=115|
8=FIX.4.4|9=102|35=AQ|49=TESTI|56=TESTA|34=4|52=20030204-08:46:14|568=90001008|569=0|749=2|750=A|55=IBM|10=115|
8=FIX.4.4|9=102|35=AQ|49=TESTI|56=TESTA|34=4|52=20030204-08:46:14|568=90001008|569=0|749=2|750=b|55=IBM|10=115|
8=FIX.4.4|9=140|35=1|34=104|49=SNDR|56=TRGT|52=20090407-09:48:19.812|112= TEST #169 CHECK 4 REJECT MSGS with INVALID MESSAGE - INCORRECT DATA TYPE [MsgType:_AQ, Tag:_750]|10=018|
8=FIX.4.4|9=98|35=AR|49=TESTI|56=TESTA|34=4|52=20030204-08:46:14|571=90001008|150=F|751=-1|55=TESTB|10=236|
8=FIX.4.4|9=98|35=AR|49=TESTI|56=TESTA|34=4|52=20030204-08:46:14|571=90001008|150=F|751=5|55=TESTB|10=236|
8=FIX.4.4|9=98|35=AR|49=TESTI|56=TESTA|34=4|52=20030204-08:46:14|571=90001008|150=F|751=A|55=TESTB|10=236|
8=FIX.4.4|9=98|35=AR|49=TESTI|56=TESTA|34=4|52=20030204-08:46:14|571=90001008|150=F|751=b|55=TESTB|10=236|
8=FIX.4.4|9=140|35=1|34=104|49=SNDR|56=TRGT|52=20090407-09:48:19.812|112= TEST #170 CHECK 4 REJECT MSGS with INVALID MESSAGE - INCORRECT DATA TYPE [MsgType:_AR, Tag:_751]|10=018|
8=FIX.4.4|9=191|35=AE|49=TESTI|56=TESTA|34=4|52=20030204-08:46:14|571=90001008|150=F|570=N|55=TESTA|32=1000|31=10.4|75=20060217|60=20060217-10:00:00|552=1|54=1|37=0001|752=0|10=205|
8=FIX.4.4|9=191|35=AE|49=TESTI|56=TESTA|34=4|52=20030204-08:46:14|571=90001008|150=F|570=N|55=TESTA|32=1000|31=10.4|75=20060217|60=20060217-10:00:00|552=1|54=1|37=0001|752=-1|10=205|
8=FIX.4.4|9=191|35=AE|49=TESTI|56=TESTA|34=4|52=20030204-08:46:14|571=90001008|150=F|570=N|55=TESTA|32=1000|31=10.4|75=20060217|60=20060217-10:00:00|552=1|54=1|37=0001|752=A|10=205|
8=FIX.4.4|9=191|35=AE|49=TESTI|56=TESTA|34=4|52=20030204-08:46:14|571=90001008|150=F|570=N|55=TESTA|32=1000|31=10.4|75=20060217|60=20060217-10:00:00|552=1|54=1|37=0001|752=b|10=205|
8=FIX.4.4|9=140|35=1|34=104|49=SNDR|56=TRGT|52=20090407-09:48:19.812|112= TEST #171 CHECK 4 REJECT MSGS with INVALID MESSAGE - INCORRECT DATA TYPE [MsgType:_AE, Tag:_752]|10=018|
8=FIX.4.4|9=97|35=BB|49=TESTI|56=TESTA|34=4|52=20030204-08:46:14|768=1|769=20060217-10:00:00.100|770=0|10=048|
8=FIX.4.4|9=97|35=BB|49=TESTI|56=TESTA|34=4|52=20030204-08:46:14|768=1|769=20060217-10:00:00.100|770=-1|10=048|
8=FIX.4.4|9=97|35=BB|49=TESTI|56=TESTA|34=4|52=20030204-08:46:14|768=1|769=20060217-10:00:00.100|770=A|10=048|
8=FIX.4.4|9=97|35=BB|49=TESTI|56=TESTA|34=4|52=20030204-08:46:14|768=1|769=20060217-10:00:00.100|770=b|10=048|
8=FIX.4.4|9=140|35=1|34=104|49=SNDR|56=TRGT|52=20090407-09:48:19.812|112= TEST #172 CHECK 4 REJECT MSGS with INVALID MESSAGE - INCORRECT DATA TYPE [MsgType:_BB, Tag:_770]|10=018|
8=FIX.4.4|9=245|35=AK|49=TESTI|56=TESTA|34=4|52=20030204-08:46:14|664=0001|666=0|773=0|665=4|60=20060217-10:00:00|75=20060217|711=1|311=TST311|555=1|600=TST600|55=TESTA|80=1000|54=1|862=2|528=A|863=400|528=P|863=600|79=KTierney|6=20|381=20000|118=2000|10=239|
8=FIX.4.4|9=245|35=AK|49=TESTI|56=TESTA|34=4|52=20030204-08:46:14|664=0001|666=0|773=-1|665=4|60=20060217-10:00:00|75=20060217|711=1|311=TST311|555=1|600=TST600|55=TESTA|80=1000|54=1|862=2|528=A|863=400|528=P|863=600|79=KTierney|6=20|381=20000|118=2000|10=239|
8=FIX.4.4|9=245|35=AK|49=TESTI|56=TESTA|34=4|52=20030204-08:46:14|664=0001|666=0|773=A|665=4|60=20060217-10:00:00|75=20060217|711=1|311=TST311|555=1|600=TST600|55=TESTA|80=1000|54=1|862=2|528=A|863=400|528=P|863=600|79=KTierney|6=20|381=20000|118=2000|10=239|
8=FIX.4.4|9=245|35=AK|49=TESTI|56=TESTA|34=4|52=20030204-08:46:14|664=0001|666=0|773=b|665=4|60=20060217-10:00:00|75=20060217|711=1|311=TST311|555=1|600=TST600|55=TESTA|80=1000|54=1|862=2|528=A|863=400|528=P|863=600|79=KTierney|6=20|381=20000|118=2000|10=239|
8=FIX.4.4|9=140|35=1|34=104|49=SNDR|56=TRGT|52=20090407-09:48:19.812|112= TEST #173 CHECK 4 REJECT MSGS with INVALID MESSAGE - INCORRECT DATA TYPE [MsgType:_AK, Tag:_773]|10=018|
8=FIX.4.4|9=113|35=AU|49=TESTI|56=TESTA|34=4|52=20030204-08:46:14|664=0001|60=20060217-10:00:00|75=20060217|940=1|774=0|10=064|
8=FIX.4.4|9=113|35=AU|49=TESTI|56=TESTA|34=4|52=20030204-08:46:14|664=0001|60=20060217-10:00:00|75=20060217|940=1|774=-1|10=064|
8=FIX.4.4|9=113|35=AU|49=TESTI|56=TESTA|34=4|52=20030204-08:46:14|664=0001|60=20060217-10:00:00|75=20060217|940=1|774=A|10=064|
8=FIX.4.4|9=113|35=AU|49=TESTI|56=TESTA|34=4|52=20030204-08:46:14|664=0001|60=20060217-10:00:00|75=20060217|940=1|774=b|10=064|
8=FIX.4.4|9=140|35=1|34=104|49=SNDR|56=TRGT|52=20090407-09:48:19.812|112= TEST #174 CHECK 4 REJECT MSGS with INVALID MESSAGE - INCORRECT DATA TYPE [MsgType:_AU, Tag:_774]|10=018|
8=FIX.4.4|9=168|35=AC|49=TESTI|56=TESTA|34=4|52=20030204-08:46:14|11=90001008|41=93452234|54=1|55=TESTB|555=2|600=TESTA|600=TESTC|60=20060217-10:00:00|38=4000|40=1|775=-1|10=201|
8=FIX.4.4|9=168|35=AC|49=TESTI|56=TESTA|34=4|52=20030204-08:46:14|11=90001008|41=93452234|54=1|55=TESTB|555=2|600=TESTA|600=TESTC|60=20060217-10:00:00|38=4000|40=1|775=3|10=201|
8=FIX.4.4|9=168|35=AC|49=TESTI|56=TESTA|34=4|52=20030204-08:46:14|11=90001008|41=93452234|54=1|55=TESTB|555=2|600=TESTA|600=TESTC|60=20060217-10:00:00|38=4000|40=1|775=A|10=201|
8=FIX.4.4|9=168|35=AC|49=TESTI|56=TESTA|34=4|52=20030204-08:46:14|11=90001008|41=93452234|54=1|55=TESTB|555=2|600=TESTA|600=TESTC|60=20060217-10:00:00|38=4000|40=1|775=b|10=201|
8=FIX.4.4|9=140|35=1|34=104|49=SNDR|56=TRGT|52=20090407-09:48:19.812|112= TEST #175 CHECK 4 REJECT MSGS with INVALID MESSAGE - INCORRECT DATA TYPE [MsgType:_AC, Tag:_775]|10=018|
8=FIX.4.4|9=158|35=AS|49=TESTI|56=TESTA|34=4|52=20030204-08:46:14|755=0001|71=0|794=5|87=0|857=0|54=2|55=TESTB|53=10000|6=10.5|75=20060217|78=1|79=TST079|780=-1|10=027|
8=FIX.4.4|9=158|35=AS|49=TESTI|56=TESTA|34=4|52=20030204-08:46:14|755=0001|71=0|794=5|87=0|857=0|54=2|55=TESTB|53=10000|6=10.5|75=20060217|78=1|79=TST079|780=5|10=027|
8=FIX.4.4|9=158|35=AS|49=TESTI|56=TESTA|34=4|52=20030204-08:46:14|755=0001|71=0|794=5|87=0|857=0|54=2|55=TESTB|53=10000|6=10.5|75=20060217|78=1|79=TST079|780=A|10=027|
8=FIX.4.4|9=158|35=AS|49=TESTI|56=TESTA|34=4|52=20030204-08:46:14|755=0001|71=0|794=5|87=0|857=0|54=2|55=TESTB|53=10000|6=10.5|75=20060217|78=1|79=TST079|780=b|10=027|
8=FIX.4.4|9=140|35=1|34=104|49=SNDR|56=TRGT|52=20090407-09:48:19.812|112= TEST #176 CHECK 4 REJECT MSGS with INVALID MESSAGE - INCORRECT DATA TYPE [MsgType:_AS, Tag:_780]|10=018|
8=FIX.4.4|9=125|35=BA|49=TESTI|56=TESTA|34=4|52=20030204-08:46:14|908=0001|910=0|172=1|85=1|165=2|787=c|781=1|782=00078|783=1|784=1|10=015|
8=FIX.4.4|9=125|35=BA|49=TESTI|56=TESTA|34=4|52=20030204-08:46:14|908=0001|910=0|172=1|85=1|165=2|787=s|781=1|782=00078|783=1|784=1|10=015|
8=FIX.4.4|9=125|35=BA|49=TESTI|56=TESTA|34=4|52=20030204-08:46:14|908=0001|910=0|172=1|85=1|165=2|787=0|781=1|782=00078|783=1|784=1|10=015|
8=FIX.4.4|9=125|35=BA|49=TESTI|56=TESTA|34=4|52=20030204-08:46:14|908=0001|910=0|172=1|85=1|165=2|787=-1|781=1|782=00078|783=1|784=1|10=015|
8=FIX.4.4|9=140|35=1|34=104|49=SNDR|56=TRGT|52=20090407-09:48:19.812|112= TEST #177 CHECK 4 REJECT MSGS with INVALID MESSAGE - INCORRECT DATA TYPE [MsgType:_BA, Tag:_787]|10=018|
8=FIX.4.4|9=71|35=BB|49=TESTI|56=TESTA|34=4|52=20030204-08:46:14|913=1|788=0|10=050|
8=FIX.4.4|9=71|35=BB|49=TESTI|56=TESTA|34=4|52=20030204-08:46:14|913=1|788=-1|10=050|
8=FIX.4.4|9=71|35=BB|49=TESTI|56=TESTA|34=4|52=20030204-08:46:14|913=1|788=A|10=050|
8=FIX.4.4|9=71|35=BB|49=TESTI|56=TESTA|34=4|52=20030204-08:46:14|913=1|788=b|10=050|
8=FIX.4.4|9=140|35=1|34=104|49=SNDR|56=TRGT|52=20090407-09:48:19.812|112= TEST #178 CHECK 4 REJECT MSGS with INVALID MESSAGE - INCORRECT DATA TYPE [MsgType:_BB, Tag:_788]|10=018|
8=FIX.4.4|9=94|35=T|49=TESTI|56=TESTA|34=14|52=20030204-09:25:43|777=112233|160=5|792=-1|60=20060217-10:00:00|10=144|
8=FIX.4.4|9=94|35=T|49=TESTI|56=TESTA|34=14|52=20030204-09:25:43|777=112233|160=5|792=3|60=20060217-10:00:00|10=144|
8=FIX.4.4|9=94|35=T|49=TESTI|56=TESTA|34=14|52=20030204-09:25:43|777=112233|160=5|792=A|60=20060217-10:00:00|10=144|
8=FIX.4.4|9=94|35=T|49=TESTI|56=TESTA|34=14|52=20030204-09:25:43|777=112233|160=5|792=b|60=20060217-10:00:00|10=144|
8=FIX.4.4|9=140|35=1|34=104|49=SNDR|56=TRGT|52=20090407-09:48:19.812|112= TEST #179 CHECK 4 REJECT MSGS with INVALID MESSAGE - INCORRECT DATA TYPE [MsgType:_T, Tag:_792]|10=018|
8=FIX.4.4|9=161|35=AS|49=TESTI|56=TESTA|34=4|52=20030204-08:46:14|755=0001|71=0|794=0|87=0|857=0|54=2|55=TESTB|53=10000|6=10.5|75=20060217|78=1|79=TST79|80=10.400|10=159|
8=FIX.4.4|9=161|35=AS|49=TESTI|56=TESTA|34=4|52=20030204-08:46:14|755=0001|71=0|794=-1|87=0|857=0|54=2|55=TESTB|53=10000|6=10.5|75=20060217|78=1|79=TST79|80=10.400|10=159|
8=FIX.4.4|9=161|35=AS|49=TESTI|56=TESTA|34=4|52=20030204-08:46:14|755=0001|71=0|794=2|87=0|857=0|54=2|55=TESTB|53=10000|6=10.5|75=20060217|78=1|79=TST79|80=10.400|10=159|
8=FIX.4.4|9=161|35=AS|49=TESTI|56=TESTA|34=4|52=20030204-08:46:14|755=0001|71=0|794=A|87=0|857=0|54=2|55=TESTB|53=10000|6=10.5|75=20060217|78=1|79=TST79|80=10.400|10=159|
8=FIX.4.4|9=140|35=1|34=104|49=SNDR|56=TRGT|52=20090407-09:48:19.812|112= TEST #180 CHECK 4 REJECT MSGS with INVALID MESSAGE - INCORRECT DATA TYPE [MsgType:_AS, Tag:_794]|10=018|
8=FIX.4.4|9=184|35=J|49=TESTI|56=TESTA|34=4|52=20030204-08:56:41|70=1116226|71=0|626=1|796=0|857=0|54=1|55=TESTB|53=1004000|6=30|75=20030821|78=3|79=1000|80=500000|79=2000|80=400000|79=3000|80=104000|10=021|
8=FIX.4.4|9=184|35=J|49=TESTI|56=TESTA|34=4|52=20030204-08:56:41|70=1116226|71=0|626=1|796=-1|857=0|54=1|55=TESTB|53=1004000|6=30|75=20030821|78=3|79=1000|80=500000|79=2000|80=400000|79=3000|80=104000|10=021|
8=FIX.4.4|9=184|35=J|49=TESTI|56=TESTA|34=4|52=20030204-08:56:41|70=1116226|71=0|626=1|796=A|857=0|54=1|55=TESTB|53=1004000|6=30|75=20030821|78=3|79=1000|80=500000|79=2000|80=400000|79=3000|80=104000|10=021|
8=FIX.4.4|9=184|35=J|49=TESTI|56=TESTA|34=4|52=20030204-08:56:41|70=1116226|71=0|626=1|796=b|857=0|54=1|55=TESTB|53=1004000|6=30|75=20030821|78=3|79=1000|80=500000|79=2000|80=400000|79=3000|80=104000|10=021|
8=FIX.4.4|9=140|35=1|34=104|49=SNDR|56=TRGT|52=20090407-09:48:19.812|112= TEST #181 CHECK 4 REJECT MSGS with INVALID MESSAGE - INCORRECT DATA TYPE [MsgType:_J, Tag:_796]|10=018|
8=FIX.4.4|9=101|35=BH|49=TESTI|56=TESTA|34=4|52=20030204-08:46:14|859=0001|773=1|60=20060217-10:00:00|798=0|10=004|
8=FIX.4.4|9=101|35=BH|49=TESTI|56=TESTA|34=4|52=20030204-08:46:14|859=0001|773=1|60=20060217-10:00:00|798=11|10=004|
8=FIX.4.4|9=101|35=BH|49=TESTI|56=TESTA|34=4|52=20030204-08:46:14|859=0001|773=1|60=20060217-10:00:00|798=A|10=004|
8=FIX.4.4|9=101|35=BH|49=TESTI|56=TESTA|34=4|52=20030204-08:46:14|859=0001|773=1|60=20060217-10:00:00|798=b|10=004|
8=FIX.4.4|9=140|35=1|34=104|49=SNDR|56=TRGT|52=20090407-09:48:19.812|112= TEST #182 CHECK 4 REJECT MSGS with INVALID MESSAGE - INCORRECT DATA TYPE [MsgType:_BH, Tag:_798]|10=018|
