8=FIX.4.4|9=76|35=p|49=TESTI|56=TESTA|34=7|52=20030204-09:17:25|513=3659000000|514=0|506=h|10=085|
8=FIX.4.4|9=76|35=p|49=TESTI|56=TESTA|34=7|52=20030204-09:17:25|513=3659000000|514=0|506=a|10=085|
8=FIX.4.4|9=76|35=p|49=TESTI|56=TESTA|34=7|52=20030204-09:17:25|513=3659000000|514=0|506=0|10=085|
8=FIX.4.4|9=76|35=p|49=TESTI|56=TESTA|34=7|52=20030204-09:17:25|513=3659000000|514=0|506=-1|10=085|
8=FIX.4.4|9=140|35=1|34=104|49=SNDR|56=TRGT|52=20090407-09:48:19.812|112= TEST #110 CHECK 4 REJECT MSGS with INVALID MESSAGE - INCORRECT DATA TYPE [MsgType:_p, Tag:_506]|10=018|
8=FIX.4.4|9=82|35=p|49=TESTI|56=TESTA|34=7|52=20030204-09:17:25|513=3659000000|514=0|506=A|507=0|10=086|
8=FIX.4.4|9=82|35=p|49=TESTI|56=TESTA|34=7|52=20030204-09:17:25|513=3659000000|514=0|506=A|507=-1|10=086|
8=FIX.4.4|9=82|35=p|49=TESTI|56=TESTA|34=7|52=20030204-09:17:25|513=3659000000|514=0|506=A|507=A|10=086|
8=FIX.4.4|9=82|35=p|49=TESTI|56=TESTA|34=7|52=20030204-09:17:25|513=3659000000|514=0|506=A|507=b|10=086|
8=FIX.4.4|9=140|35=1|34=104|49=SNDR|56=TRGT|52=20090407-09:48:19.812|112= TEST #111 CHECK 4 REJECT MSGS with INVALID MESSAGE - INCORRECT DATA TYPE [MsgType:_p, Tag:_507]|10=018|
8=FIX.4.4|9=80|35=o|49=TESTI|56=TESTA|34=7|52=20030204-09:17:25|513=3659000000|514=-1|508=00058|10=006|
8=FIX.4.4|9=80|35=o|49=TESTI|56=TESTA|34=7|52=20030204-09:17:25|513=3659000000|514=3|508=00058|10=006|
8=FIX.4.4|9=80|35=o|49=TESTI|56=TESTA|34=7|52=20030204-09:17:25|513=3659000000|514=A|508=00058|10=006|
8=FIX.4.4|9=80|35=o|49=TESTI|56=TESTA|34=7|52=20030204-09:17:25|513=3659000000|514=b|508=00058|10=006|
8=FIX.4.4|9=140|35=1|34=104|49=SNDR|56=TRGT|52=20090407-09:48:19.812|112= TEST #112 CHECK 4 REJECT MSGS with INVALID MESSAGE - INCORRECT DATA TYPE [MsgType:_o, Tag:_514]|10=018|
8=FIX.4.4|9=191|35=AE|49=TESTI|56=TESTA|34=4|52=20030204-08:46:14|571=90001008|150=F|570=N|55=TESTA|32=1000|31=10.4|75=20060217|60=20060217-10:00:00|552=2|54=1|37=0001|518=1|519=0|54=2|37=0002|10=204|
8=FIX.4.4|9=191|35=AE|49=TESTI|56=TESTA|34=4|52=20030204-08:46:14|571=90001008|150=F|570=N|55=TESTA|32=1000|31=10.4|75=20060217|60=20060217-10:00:00|552=2|54=1|37=0001|518=1|519=-1|54=2|37=0002|10=204|
8=FIX.4.4|9=191|35=AE|49=TESTI|56=TESTA|34=4|52=20030204-08:46:14|571=90001008|150=F|570=N|55=TESTA|32=1000|31=10.4|75=20060217|60=20060217-10:00:00|552=2|54=1|37=0001|518=1|519=A|54=2|37=0002|10=204|
8=FIX.4.4|9=191|35=AE|49=TESTI|56=TESTA|34=4|52=20030204-08:46:14|571=90001008|150=F|570=N|55=TESTA|32=1000|31=10.4|75=20060217|60=20060217-10:00:00|552=2|54=1|37=0001|518=1|519=b|54=2|37=0002|10=204|
8=FIX.4.4|9=140|35=1|34=104|49=SNDR|56=TRGT|52=20090407-09:48:19.812|112= TEST #113 CHECK 4 REJECT MSGS with INVALID MESSAGE - INCORRECT DATA TYPE [MsgType:_AE, Tag:_519]|10=018|
8=FIX.4.4|9=103|35=o|49=TESTI|56=TESTA|34=7|52=20030204-09:17:25|513=3659000000|514=0|508=00058|473=1|509=000509|522=0|10=082|
8=FIX.4.4|9=103|35=o|49=TESTI|56=TESTA|34=7|52=20030204-09:17:25|513=3659000000|514=0|508=00058|473=1|509=000509|522=-1|10=082|
8=FIX.4.4|9=103|35=o|49=TESTI|56=TESTA|34=7|52=20030204-09:17:25|513=3659000000|514=0|508=00058|473=1|509=000509|522=A|10=082|
8=FIX.4.4|9=103|35=o|49=TESTI|56=TESTA|34=7|52=20030204-09:17:25|513=3659000000|514=0|508=00058|473=1|509=000509|522=b|10=082|
8=FIX.4.4|9=140|35=1|34=104|49=SNDR|56=TRGT|52=20090407-09:48:19.812|112= TEST #114 CHECK 4 REJECT MSGS with INVALID MESSAGE - INCORRECT DATA TYPE [MsgType:_o, Tag:_522]|10=018|
8=FIX.4.4|9=91|35=R|49=TESTI|56=TESTA|34=8|52=20030204-09:25:21|131=1272727|528=a|146=2|55=TESTA|55=TESTB|10=250|
8=FIX.4.4|9=91|35=R|49=TESTI|56=TESTA|34=8|52=20030204-09:25:21|131=1272727|528=g|146=2|55=TESTA|55=TESTB|10=250|
8=FIX.4.4|9=91|35=R|49=TESTI|56=TESTA|34=8|52=20030204-09:25:21|131=1272727|528=0|146=2|55=TESTA|55=TESTB|10=250|
8=FIX.4.4|9=91|35=R|49=TESTI|56=TESTA|34=8|52=20030204-09:25:21|131=1272727|528=-1|146=2|55=TESTA|55=TESTB|10=250|
8=FIX.4.4|9=140|35=1|34=104|49=SNDR|56=TRGT|52=20090407-09:48:19.812|112= TEST #115 CHECK 4 REJECT MSGS with INVALID MESSAGE - INCORRECT DATA TYPE [MsgType:_R, Tag:_528]|10=018|
8=FIX.4.4|9=73|35=r|49=TESTI|56=TESTA|34=14|52=20030204-09:25:43|37=4511223|530=0|531=7|10=169|
8=FIX.4.4|9=73|35=r|49=TESTI|56=TESTA|34=14|52=20030204-09:25:43|37=4511223|530=-1|531=7|10=169|
8=FIX.4.4|9=73|35=r|49=TESTI|56=TESTA|34=14|52=20030204-09:25:43|37=4511223|530=A|531=7|10=169|
8=FIX.4.4|9=73|35=r|49=TESTI|56=TESTA|34=14|52=20030204-09:25:43|37=4511223|530=b|531=7|10=169|
8=FIX.4.4|9=140|35=1|34=104|49=SNDR|56=TRGT|52=20090407-09:48:19.812|112= TEST #116 CHECK 4 REJECT MSGS with INVALID MESSAGE - INCORRECT DATA TYPE [MsgType:_r, Tag:_530]|10=018|
8=FIX.4.4|9=79|35=r|49=TESTI|56=TESTA|34=14|52=20030204-09:25:43|37=4511223|530=2|531=-1|532=3|10=180|
8=FIX.4.4|9=79|35=r|49=TESTI|56=TESTA|34=14|52=20030204-09:25:43|37=4511223|530=2|531=8|532=3|10=180|
8=FIX.4.4|9=79|35=r|49=TESTI|56=TESTA|34=14|52=20030204-09:25:43|37=4511223|530=2|531=A|532=3|10=180|
8=FIX.4.4|9=79|35=r|49=TESTI|56=TESTA|34=14|52=20030204-09:25:43|37=4511223|530=2|531=b|532=3|10=180|
8=FIX.4.4|9=140|35=1|34=104|49=SNDR|56=TRGT|52=20090407-09:48:19.812|112= TEST #117 CHECK 4 REJECT MSGS with INVALID MESSAGE - INCORRECT DATA TYPE [MsgType:_r, Tag:_531]|10=018|
8=FIX.4.4|9=79|35=r|49=TESTI|56=TESTA|34=14|52=20030204-09:25:43|37=4511223|530=7|531=7|532=-1|10=189|
8=FIX.4.4|9=79|35=r|49=TESTI|56=TESTA|34=14|52=20030204-09:25:43|37=4511223|530=7|531=7|532=7|10=189|
8=FIX.4.4|9=79|35=r|49=TESTI|56=TESTA|34=14|52=20030204-09:25:43|37=4511223|530=7|531=7|532=A|10=189|
8=FIX.4.4|9=79|35=r|49=TESTI|56=TESTA|34=14|52=20030204-09:25:43|37=4511223|530=7|531=7|532=b|10=189|
8=FIX.4.4|9=140|35=1|34=104|49=SNDR|56=TRGT|52=20090407-09:48:19.812|112= TEST #118 CHECK 4 REJECT MSGS with INVALID MESSAGE - INCORRECT DATA TYPE [MsgType:_r, Tag:_532]|10=018|
8=FIX.4.4|9=104|35=AH|49=TESTI|56=TESTA|34=4|50=30737|52=20030204-08:46:14|644=0001|146=2|55=TESTA|537=-1|55=TESTB|537=1|10=088|
8=FIX.4.4|9=104|35=AH|49=TESTI|56=TESTA|34=4|50=30737|52=20030204-08:46:14|644=0001|146=2|55=TESTA|537=4|55=TESTB|537=1|10=088|
8=FIX.4.4|9=104|35=AH|49=TESTI|56=TESTA|34=4|50=30737|52=20030204-08:46:14|644=0001|146=2|55=TESTA|537=A|55=TESTB|537=1|10=088|
8=FIX.4.4|9=104|35=AH|49=TESTI|56=TESTA|34=4|50=30737|52=20030204-08:46:14|644=0001|146=2|55=TESTA|537=b|55=TESTB|537=1|10=088|
8=FIX.4.4|9=140|35=1|34=104|49=SNDR|56=TRGT|52=20090407-09:48:19.812|112= TEST #119 CHECK 4 REJECT MSGS with INVALID MESSAGE - INCORRECT DATA TYPE [MsgType:_AH, Tag:_537]|10=018|
8=FIX.4.4|9=129|35=D|49=TESTI|56=TESTA|34=4|52=20030204-08:46:14|11=90001008|544=0|55=TESTB|54=1|60=20060217-10:00:00|38=4000|40=1|10=131|
8=FIX.4.4|9=129|35=D|49=TESTI|56=TESTA|34=4|52=20030204-08:46:14|11=90001008|544=-1|55=TESTB|54=1|60=20060217-10:00:00|38=4000|40=1|10=131|
8=FIX.4.4|9=129|35=D|49=TESTI|56=TESTA|34=4|52=20030204-08:46:14|11=90001008|544=A|55=TESTB|54=1|60=20060217-10:00:00|38=4000|40=1|10=131|
8=FIX.4.4|9=129|35=D|49=TESTI|56=TESTA|34=4|52=20030204-08:46:14|11=90001008|544=b|55=TESTB|54=1|60=20060217-10:00:00|38=4000|40=1|10=131|
8=FIX.4.4|9=140|35=1|34=104|49=SNDR|56=TRGT|52=20090407-09:48:19.812|112= TEST #120 CHECK 4 REJECT MSGS with INVALID MESSAGE - INCORRECT DATA TYPE [MsgType:_D, Tag:_544]|10=018|
8=FIX.4.4|9=120|35=V|49=TESTI|56=TESTA|34=14|52=20030204-09:25:43|262=11223|263=0|264=0|547=y|267=2|269=0|269=1|146=2|55=TESTA|55=TESTB|10=051|
8=FIX.4.4|9=120|35=V|49=TESTI|56=TESTA|34=14|52=20030204-09:25:43|262=11223|263=0|264=0|547=n|267=2|269=0|269=1|146=2|55=TESTA|55=TESTB|10=051|
8=FIX.4.4|9=120|35=V|49=TESTI|56=TESTA|34=14|52=20030204-09:25:43|262=11223|263=0|264=0|547=0|267=2|269=0|269=1|146=2|55=TESTA|55=TESTB|10=051|
8=FIX.4.4|9=120|35=V|49=TESTI|56=TESTA|34=14|52=20030204-09:25:43|262=11223|263=0|264=0|547=-1|267=2|269=0|269=1|146=2|55=TESTA|55=TESTB|10=051|
8=FIX.4.4|9=140|35=1|34=104|49=SNDR|56=TRGT|52=20090407-09:48:19.812|112= TEST #121 CHECK 4 REJECT MSGS with INVALID MESSAGE - INCORRECT DATA TYPE [MsgType:_V, Tag:_547]|10=018|
8=FIX.4.4|9=212|35=t|49=TESTI|56=TESTA|34=4|52=20030204-08:46:14|548=42444008|551=30000008|549=0|550=0|552=2|54=1|11=B202020|41=B101010|38=4000|54=2|11=S202020|41=S101010|38=5000|55=TESTA|60=20060217-10:00:00|40=1|10=248|
8=FIX.4.4|9=212|35=t|49=TESTI|56=TESTA|34=4|52=20030204-08:46:14|548=42444008|551=30000008|549=-1|550=0|552=2|54=1|11=B202020|41=B101010|38=4000|54=2|11=S202020|41=S101010|38=5000|55=TESTA|60=20060217-10:00:00|40=1|10=248|
8=FIX.4.4|9=212|35=t|49=TESTI|56=TESTA|34=4|52=20030204-08:46:14|548=42444008|551=30000008|549=A|550=0|552=2|54=1|11=B202020|41=B101010|38=4000|54=2|11=S202020|41=S101010|38=5000|55=TESTA|60=20060217-10:00:00|40=1|10=248|
8=FIX.4.4|9=212|35=t|49=TESTI|56=TESTA|34=4|52=20030204-08:46:14|548=42444008|551=30000008|549=b|550=0|552=2|54=1|11=B202020|41=B101010|38=4000|54=2|11=S202020|41=S101010|38=5000|55=TESTA|60=20060217-10:00:00|40=1|10=248|
8=FIX.4.4|9=140|35=1|34=104|49=SNDR|56=TRGT|52=20090407-09:48:19.812|112= TEST #122 CHECK 4 REJECT MSGS with INVALID MESSAGE - INCORRECT DATA TYPE [MsgType:_t, Tag:_549]|10=018|
8=FIX.4.4|9=212|35=t|49=TESTI|56=TESTA|34=4|52=20030204-08:46:14|548=42444008|551=30000008|549=2|550=-1|552=2|54=1|11=B202020|41=B101010|38=4000|54=2|11=S202020|41=S101010|38=5000|55=TESTA|60=20060217-10:00:00|40=1|10=249|
8=FIX.4.4|9=212|35=t|49=TESTI|56=TESTA|34=4|52=20030204-08:46:14|548=42444008|551=30000008|549=2|550=3|552=2|54=1|11=B202020|41=B101010|38=4000|54=2|11=S202020|41=S101010|38=5000|55=TESTA|60=20060217-10:00:00|40=1|10=249|
8=FIX.4.4|9=212|35=t|49=TESTI|56=TESTA|34=4|52=20030204-08:46:14|548=42444008|551=30000008|549=2|550=A|552=2|54=1|11=B202020|41=B101010|38=4000|54=2|11=S202020|41=S101010|38=5000|55=TESTA|60=20060217-10:00:00|40=1|10=249|
8=FIX.4.4|9=212|35=t|49=TESTI|56=TESTA|34=4|52=20030204-08:46:14|548=42444008|551=30000008|549=2|550=b|552=2|54=1|11=B202020|41=B101010|38=4000|54=2|11=S202020|41=S101010|38=5000|55=TESTA|60=20060217-10:00:00|40=1|10=249|
8=FIX.4.4|9=140|35=1|34=104|49=SNDR|56=TRGT|52=20090407-09:48:19.812|112= TEST #123 CHECK 4 REJECT MSGS with INVALID MESSAGE - INCORRECT DATA TYPE [MsgType:_t, Tag:_550]|10=018|
8=FIX.4.4|9=66|35=x|49=TESTI|56=TESTA|34=14|52=20030204-09:25:43|320=11223|559=-1|10=111|
8=FIX.4.4|9=66|35=x|49=TESTI|56=TESTA|34=14|52=20030204-09:25:43|320=11223|559=5|10=111|
8=FIX.4.4|9=66|35=x|49=TESTI|56=TESTA|34=14|52=20030204-09:25:43|320=11223|559=A|10=111|
8=FIX.4.4|9=66|35=x|49=TESTI|56=TESTA|34=14|52=20030204-09:25:43|320=11223|559=b|10=111|
8=FIX.4.4|9=140|35=1|34=104|49=SNDR|56=TRGT|52=20090407-09:48:19.812|112= TEST #124 CHECK 4 REJECT MSGS with INVALID MESSAGE - INCORRECT DATA TYPE [MsgType:_x, Tag:_559]|10=018|
8=FIX.4.4|9=75|35=AA|49=TESTI|56=TESTA|34=14|52=20030204-09:25:43|320=0001|322=0001|560=-1|10=207|
8=FIX.4.4|9=75|35=AA|49=TESTI|56=TESTA|34=14|52=20030204-09:25:43|320=0001|322=0001|560=6|10=207|
8=FIX.4.4|9=75|35=AA|49=TESTI|56=TESTA|34=14|52=20030204-09:25:43|320=0001|322=0001|560=A|10=207|
8=FIX.4.4|9=75|35=AA|49=TESTI|56=TESTA|34=14|52=20030204-09:25:43|320=0001|322=0001|560=b|10=207|
8=FIX.4.4|9=140|35=1|34=104|49=SNDR|56=TRGT|52=20090407-09:48:19.812|112= TEST #125 CHECK 4 REJECT MSGS with INVALID MESSAGE - INCORRECT DATA TYPE [MsgType:_AA, Tag:_560]|10=018|
8=FIX.4.4|9=156|35=AB|49=TESTI|56=TESTA|34=4|52=20030204-08:46:14|11=90001008|54=1|55=TESTB|555=2|600=TESTA|600=TESTC|38=4000|40=1|60=20060117-10:00:00|563=-1|10=124|
8=FIX.4.4|9=156|35=AB|49=TESTI|56=TESTA|34=4|52=20030204-08:46:14|11=90001008|54=1|55=TESTB|555=2|600=TESTA|600=TESTC|38=4000|40=1|60=20060117-10:00:00|563=3|10=124|
8=FIX.4.4|9=156|35=AB|49=TESTI|56=TESTA|34=4|52=20030204-08:46:14|11=90001008|54=1|55=TESTB|555=2|600=TESTA|600=TESTC|38=4000|40=1|60=20060117-10:00:00|563=A|10=124|
8=FIX.4.4|9=156|35=AB|49=TESTI|56=TESTA|34=4|52=20030204-08:46:14|11=90001008|54=1|55=TESTB|555=2|600=TESTA|600=TESTC|38=4000|40=1|60=20060117-10:00:00|563=b|10=124|
8=FIX.4.4|9=140|35=1|34=104|49=SNDR|56=TRGT|52=20090407-09:48:19.812|112= TEST #126 CHECK 4 REJECT MSGS with INVALID MESSAGE - INCORRECT DATA TYPE [MsgType:_AB, Tag:_563]|10=018|
8=FIX.4.4|9=75|35=h|49=TESTI|56=TESTA|34=12|52=20030204-08:49:42|336=PRE-OPEN|340=2|567=0|10=188|
8=FIX.4.4|9=75|35=h|49=TESTI|56=TESTA|34=12|52=20030204-08:49:42|336=PRE-OPEN|340=2|567=-1|10=188|
8=FIX.4.4|9=75|35=h|49=TESTI|56=TESTA|34=12|52=20030204-08:49:42|336=PRE-OPEN|340=2|567=A|10=188|
8=FIX.4.4|9=75|35=h|49=TESTI|56=TESTA|34=12|52=20030204-08:49:42|336=PRE-OPEN|340=2|567=b|10=188|
8=FIX.4.4|9=140|35=1|34=104|49=SNDR|56=TRGT|52=20090407-09:48:19.812|112= TEST #127 CHECK 4 REJECT MSGS with INVALID MESSAGE - INCORRECT DATA TYPE [MsgType:_h, Tag:_567]|10=018|
8=FIX.4.4|9=83|35=AD|49=TESTI|56=TESTA|34=4|52=20030204-08:46:14|568=90001008|569=-1|10=160|
8=FIX.4.4|9=83|35=AD|49=TESTI|56=TESTA|34=4|52=20030204-08:46:14|568=90001008|569=5|10=160|
8=FIX.4.4|9=83|35=AD|49=TESTI|56=TESTA|34=4|52=20030204-08:46:14|568=90001008|569=A|10=160|
8=FIX.4.4|9=83|35=AD|49=TESTI|56=TESTA|34=4|52=20030204-08:46:14|568=90001008|569=b|10=160|
8=FIX.4.4|9=140|35=1|34=104|49=SNDR|56=TRGT|52=20090407-09:48:19.812|112= TEST #128 CHECK 4 REJECT MSGS with INVALID MESSAGE - INCORRECT DATA TYPE [MsgType:_AD, Tag:_569]|10=018|
8=FIX.4.4|9=179|35=AE|49=TESTI|56=TESTA|34=4|52=20030204-08:46:14|571=90001008|150=F|570=y|55=TESTA|32=1000|31=10.4|75=20060217|60=20060217-10:00:00|552=2|54=1|37=0001|54=2|37=0002|10=183|
8=FIX.4.4|9=179|35=AE|49=TESTI|56=TESTA|34=4|52=20030204-08:46:14|571=90001008|150=F|570=n|55=TESTA|32=1000|31=10.4|75=20060217|60=20060217-10:00:00|552=2|54=1|37=0001|54=2|37=0002|10=183|
8=FIX.4.4|9=179|35=AE|49=TESTI|56=TESTA|34=4|52=20030204-08:46:14|571=90001008|150=F|570=0|55=TESTA|32=1000|31=10.4|75=20060217|60=20060217-10:00:00|552=2|54=1|37=0001|54=2|37=0002|10=183|
8=FIX.4.4|9=179|35=AE|49=TESTI|56=TESTA|34=4|52=20030204-08:46:14|571=90001008|150=F|570=-1|55=TESTA|32=1000|31=10.4|75=20060217|60=20060217-10:00:00|552=2|54=1|37=0001|54=2|37=0002|10=183|
8=FIX.4.4|9=140|35=1|34=104|49=SNDR|56=TRGT|52=20090407-09:48:19.812|112= TEST #129 CHECK 4 REJECT MSGS with INVALID MESSAGE - INCORRECT DATA TYPE [MsgType:_AE, Tag:_570]|10=018|
8=FIX.4.4|9=119|35=AU|49=TESTI|56=TESTA|34=4|52=20030204-08:46:14|664=0001|60=20060217-10:00:00|75=20060217|940=1|774=1|573=-1|10=082|
8=FIX.4.4|9=119|35=AU|49=TESTI|56=TESTA|34=4|52=20030204-08:46:14|664=0001|60=20060217-10:00:00|75=20060217|940=1|774=1|573=3|10=082|
8=FIX.4.4|9=119|35=AU|49=TESTI|56=TESTA|34=4|52=20030204-08:46:14|664=0001|60=20060217-10:00:00|75=20060217|940=1|774=1|573=A|10=082|
8=FIX.4.4|9=119|35=AU|49=TESTI|56=TESTA|34=4|52=20030204-08:46:14|664=0001|60=20060217-10:00:00|75=20060217|940=1|774=1|573=b|10=082|
8=FIX.4.4|9=140|35=1|34=104|49=SNDR|56=TRGT|52=20090407-09:48:19.812|112= TEST #130 CHECK 4 REJECT MSGS with INVALID MESSAGE - INCORRECT DATA TYPE [MsgType:_AU, Tag:_573]|10=018|
8=FIX.4.4|9=185|35=J|49=TESTI|56=TESTA|34=4|52=20030204-08:56:41|70=1116226|71=0|626=1|857=0|574=a1|54=1|55=TESTB|53=1004000|6=30|75=20030821|78=3|79=1000|80=500000|79=2000|80=400000|79=3000|80=104000|10=081|
8=FIX.4.4|9=185|35=J|49=TESTI|56=TESTA|34=4|52=20030204-08:56:41|70=1116226|71=0|626=1|857=0|574=m1|54=1|55=TESTB|53=1004000|6=30|75=20030821|78=3|79=1000|80=500000|79=2000|80=400000|79=3000|80=104000|10=081|
8=FIX.4.4|9=185|35=J|49=TESTI|56=TESTA|34=4|52=20030204-08:56:41|70=1116226|71=0|626=1|857=0|574=0|54=1|55=TESTB|53=1004000|6=30|75=20030821|78=3|79=1000|80=500000|79=2000|80=400000|79=3000|80=104000|10=081|
8=FIX.4.4|9=185|35=J|49=TESTI|56=TESTA|34=4|52=20030204-08:56:41|70=1116226|71=0|626=1|857=0|574=-1|54=1|55=TESTB|53=1004000|6=30|75=20030821|78=3|79=1000|80=500000|79=2000|80=400000|79=3000|80=104000|10=081|
8=FIX.4.4|9=140|35=1|34=104|49=SNDR|56=TRGT|52=20090407-09:48:19.812|112= TEST #131 CHECK 4 REJECT MSGS with INVALID MESSAGE - INCORRECT DATA TYPE [MsgType:_J, Tag:_574]|10=018|
8=FIX.4.4|9=191|35=AE|49=TESTI|56=TESTA|34=4|52=20030204-08:46:14|571=90001008|150=F|570=N|55=TESTA|32=1000|31=10.4|75=20060217|60=20060217-10:00:00|552=2|54=1|37=0001|575=N|54=2|37=0002|575=y|10=022|
8=FIX.4.4|9=191|35=AE|49=TESTI|56=TESTA|34=4|52=20030204-08:46:14|571=90001008|150=F|570=N|55=TESTA|32=1000|31=10.4|75=20060217|60=20060217-10:00:00|552=2|54=1|37=0001|575=N|54=2|37=0002|575=n|10=022|
8=FIX.4.4|9=191|35=AE|49=TESTI|56=TESTA|34=4|52=20030204-08:46:14|571=90001008|150=F|570=N|55=TESTA|32=1000|31=10.4|75=20060217|60=20060217-10:00:00|552=2|54=1|37=0001|575=N|54=2|37=0002|575=0|10=022|
8=FIX.4.4|9=191|35=AE|49=TESTI|56=TESTA|34=4|52=20030204-08:46:14|571=90001008|150=F|570=N|55=TESTA|32=1000|31=10.4|75=20060217|60=20060217-10:00:00|552=2|54=1|37=0001|575=N|54=2|37=0002|575=-1|10=022|
8=FIX.4.4|9=140|35=1|34=104|49=SNDR|56=TRGT|52=20090407-09:48:19.812|112= TEST #132 CHECK 4 REJECT MSGS with INVALID MESSAGE - INCORRECT DATA TYPE [MsgType:_AE, Tag:_575]|10=018|
8=FIX.4.4|9=204|35=AE|49=TESTI|56=TESTA|34=4|52=20030204-08:46:14|571=90001008|150=F|570=N|55=TESTA|32=1000|31=10.4|75=20060217|60=20060217-10:00:00|552=1|54=1|37=0001|576=1|577=-1|10=035|
8=FIX.4.4|9=204|35=AE|49=TESTI|56=TESTA|34=4|52=20030204-08:46:14|571=90001008|150=F|570=N|55=TESTA|32=1000|31=10.4|75=20060217|60=20060217-10:00:00|552=1|54=1|37=0001|576=1|577=14|10=035|
8=FIX.4.4|9=204|35=AE|49=TESTI|56=TESTA|34=4|52=20030204-08:46:14|571=90001008|150=F|570=N|55=TESTA|32=1000|31=10.4|75=20060217|60=20060217-10:00:00|552=1|54=1|37=0001|576=1|577=A|10=035|
8=FIX.4.4|9=204|35=AE|49=TESTI|56=TESTA|34=4|52=20030204-08:46:14|571=90001008|150=F|570=N|55=TESTA|32=1000|31=10.4|75=20060217|60=20060217-10:00:00|552=1|54=1|37=0001|576=1|577=b|10=035|
8=FIX.4.4|9=140|35=1|34=104|49=SNDR|56=TRGT|52=20090407-09:48:19.812|112= TEST #133 CHECK 4 REJECT MSGS with INVALID MESSAGE - INCORRECT DATA TYPE [MsgType:_AE, Tag:_577]|10=018|
8=FIX.4.4|9=215|35=AM|49=TESTI|56=TESTA|34=4|52=20030204-08:46:14|721=0001|709=1|712=1|713=TST73|722=0|715=20060217|1=KTierney|581=0|55=TESTA|60=20060217-10:00:00|702=2|703=TQ|703=IAS|753=2|707=FMTM|708=10|707=PREM|708=20|10=094|
8=FIX.4.4|9=215|35=AM|49=TESTI|56=TESTA|34=4|52=20030204-08:46:14|721=0001|709=1|712=1|713=TST73|722=0|715=20060217|1=KTierney|581=-1|55=TESTA|60=20060217-10:00:00|702=2|703=TQ|703=IAS|753=2|707=FMTM|708=10|707=PREM|708=20|10=094|
8=FIX.4.4|9=215|35=AM|49=TESTI|56=TESTA|34=4|52=20030204-08:46:14|721=0001|709=1|712=1|713=TST73|722=0|715=20060217|1=KTierney|581=A|55=TESTA|60=20060217-10:00:00|702=2|703=TQ|703=IAS|753=2|707=FMTM|708=10|707=PREM|708=20|10=094|
8=FIX.4.4|9=215|35=AM|49=TESTI|56=TESTA|34=4|52=20030204-08:46:14|721=0001|709=1|712=1|713=TST73|722=0|715=20060217|1=KTierney|581=b|55=TESTA|60=20060217-10:00:00|702=2|703=TQ|703=IAS|753=2|707=FMTM|708=10|707=PREM|708=20|10=094|
8=FIX.4.4|9=140|35=1|34=104|49=SNDR|56=TRGT|52=20090407-09:48:19.812|112= TEST #134 CHECK 4 REJECT MSGS with INVALID MESSAGE - INCORRECT DATA TYPE [MsgType:_AM, Tag:_581]|10=018|
8=FIX.4.4|9=161|35=E|49=TESTI|56=TESTA|34=3|52=20030204-08:18:22|66=20012411|394=3|68=1|73=2|11=1131|67=1|55=TESTB3|54=3|38=3000|582=0|11=1132|67=2|55=TESTB2|54=1|38=1000|582=4|10=058|
8=FIX.4.4|9=161|35=E|49=TESTI|56=TESTA|34=3|52=20030204-08:18:22|66=20012411|394=3|68=1|73=2|11=1131|67=1|55=TESTB3|54=3|38=3000|582=-1|11=1132|67=2|55=TESTB2|54=1|38=1000|582=4|10=058|
8=FIX.4.4|9=161|35=E|49=TESTI|56=TESTA|34=3|52=20030204-08:18:22|66=20012411|394=3|68=1|73=2|11=1131|67=1|55=TESTB3|54=3|38=3000|582=A|11=1132|67=2|55=TESTB2|54=1|38=1000|582=4|10=058|
8=FIX.4.4|9=161|35=E|49=TESTI|56=TESTA|34=3|52=20030204-08:18:22|66=20012411|394=3|68=1|73=2|11=1131|67=1|55=TESTB3|54=3|38=3000|582=b|11=1132|67=2|55=TESTB2|54=1|38=1000|582=4|10=058|
8=FIX.4.4|9=140|35=1|34=104|49=SNDR|56=TRGT|52=20090407-09:48:19.812|112= TEST #135 CHECK 4 REJECT MSGS with INVALID MESSAGE - INCORRECT DATA TYPE [MsgType:_E, Tag:_582]|10=018|
8=FIX.4.4|9=79|35=AF|49=TESTI|56=TESTA|34=4|52=20030204-08:46:14|584=0001|585=0|10=211|
8=FIX.4.4|9=79|35=AF|49=TESTI|56=TESTA|34=4|52=20030204-08:46:14|584=0001|585=-1|10=211|
8=FIX.4.4|9=79|35=AF|49=TESTI|56=TESTA|34=4|52=20030204-08:46:14|584=0001|585=A|10=211|
8=FIX.4.4|9=79|35=AF|49=TESTI|56=TESTA|34=4|52=20030204-08:46:14|584=0001|585=b|10=211|
8=FIX.4.4|9=140|35=1|34=104|49=SNDR|56=TRGT|52=20090407-09:48:19.812|112= TEST #136 CHECK 4 REJECT MSGS with INVALID MESSAGE - INCORRECT DATA TYPE [MsgType:_AF, Tag:_585]|10=018|
8=FIX.4.4|9=156|35=AB|49=TESTI|56=TESTA|34=4|52=20030204-08:46:14|11=90001008|589=-1|54=1|55=TESTB|555=2|600=TESTA|600=TESTC|38=4000|40=1|60=20060117-10:00:00|10=132|
8=FIX.4.4|9=156|35=AB|49=TESTI|56=TESTA|34=4|52=20030204-08:46:14|11=90001008|589=3|54=1|55=TESTB|555=2|600=TESTA|600=TESTC|38=4000|40=1|60=20060117-10:00:00|10=132|
8=FIX.4.4|9=156|35=AB|49=TESTI|56=TESTA|34=4|52=20030204-08:46:14|11=90001008|589=A|54=1|55=TESTB|555=2|600=TESTA|600=TESTC|38=4000|40=1|60=20060117-10:00:00|10=132|
8=FIX.4.4|9=156|35=AB|49=TESTI|56=TESTA|34=4|52=20030204-08:46:14|11=90001008|589=b|54=1|55=TESTB|555=2|600=TESTA|600=TESTC|38=4000|40=1|60=20060117-10:00:00|10=132|
8=FIX.4.4|9=140|35=1|34=104|49=SNDR|56=TRGT|52=20090407-09:48:19.812|112= TEST #137 CHECK 4 REJECT MSGS with INVALID MESSAGE - INCORRECT DATA TYPE [MsgType:_AB, Tag:_589]|10=018|
8=FIX.4.4|9=156|35=AB|49=TESTI|56=TESTA|34=4|52=20030204-08:46:14|11=90001008|590=-1|54=1|55=TESTB|555=2|600=TESTA|600=TESTC|38=4000|40=1|60=20060117-10:00:00|10=124|
8=FIX.4.4|9=156|35=AB|49=TESTI|56=TESTA|34=4|52=20030204-08:46:14|11=90001008|590=3|54=1|55=TESTB|555=2|600=TESTA|600=TESTC|38=4000|40=1|60=20060117-10:00:00|10=124|
8=FIX.4.4|9=156|35=AB|49=TESTI|56=TESTA|34=4|52=20030204-08:46:14|11=90001008|590=A|54=1|55=TESTB|555=2|600=TESTA|600=TESTC|38=4000|40=1|60=20060117-10:00:00|10=124|
8=FIX.4.4|9=156|35=AB|49=TESTI|56=TESTA|34=4|52=20030204-08:46:14|11=90001008|590=b|54=1|55=TESTB|555=2|600=TESTA|600=TESTC|38=4000|40=1|60=20060117-10:00:00|10=124|
8=FIX.4.4|9=140|35=1|34=104|49=SNDR|56=TRGT|52=20090407-09:48:19.812|112= TEST #138 CHECK 4 REJECT MSGS with INVALID MESSAGE - INCORRECT DATA TYPE [MsgType:_AB, Tag:_590]|10=018|
8=FIX.4.4|9=156|35=AB|49=TESTI|56=TESTA|34=4|52=20030204-08:46:14|11=90001008|591=-1|54=1|55=TESTB|555=2|600=TESTA|600=TESTC|38=4000|40=1|60=20060117-10:00:00|10=125|
8=FIX.4.4|9=156|35=AB|49=TESTI|56=TESTA|34=4|52=20030204-08:46:14|11=90001008|591=2|54=1|55=TESTB|555=2|600=TESTA|600=TESTC|38=4000|40=1|60=20060117-10:00:00|10=125|
8=FIX.4.4|9=156|35=AB|49=TESTI|56=TESTA|34=4|52=20030204-08:46:14|11=90001008|591=A|54=1|55=TESTB|555=2|600=TESTA|600=TESTC|38=4000|40=1|60=20060117-10:00:00|10=125|
8=FIX.4.4|9=156|35=AB|49=TESTI|56=TESTA|34=4|52=20030204-08:46:14|11=90001008|591=b|54=1|55=TESTB|555=2|600=TESTA|600=TESTC|38=4000|40=1|60=20060117-10:00:00|10=125|
8=FIX.4.4|9=140|35=1|34=104|49=SNDR|56=TRGT|52=20090407-09:48:19.812|112= TEST #139 CHECK 4 REJECT MSGS with INVALID MESSAGE - INCORRECT DATA TYPE [MsgType:_AB, Tag:_591]|10=018|
