8=FIX.4.4|9=83|35=7|49=TESTI|56=TESTA|34=31|52=20030203-16:02:35|2=20|5=N|55=TESTB|4=b|53=1000000|10=194|
8=FIX.4.4|9=83|35=7|49=TESTI|56=TESTA|34=31|52=20030203-16:02:35|2=20|5=N|55=TESTB|4=t|53=1000000|10=194|
8=FIX.4.4|9=83|35=7|49=TESTI|56=TESTA|34=31|52=20030203-16:02:35|2=20|5=N|55=TESTB|4=0|53=1000000|10=194|
8=FIX.4.4|9=83|35=7|49=TESTI|56=TESTA|34=31|52=20030203-16:02:35|2=20|5=N|55=TESTB|4=-1|53=1000000|10=194|
8=FIX.4.4|9=140|35=1|34=104|49=SNDR|56=TRGT|52=20090407-09:48:19.812|112= TEST #001 CHECK 4 REJECT MSGS with INVALID MESSAGE - INCORRECT DATA TYPE [MsgType:_7, Tag:_4]|10=018|
8=FIX.4.4|9=83|35=7|49=TESTI|56=TESTA|34=31|52=20030203-16:02:35|2=20|5=n|55=TESTB|4=T|53=1000000|10=194|
8=FIX.4.4|9=83|35=7|49=TESTI|56=TESTA|34=31|52=20030203-16:02:35|2=20|5=r|55=TESTB|4=T|53=1000000|10=194|
8=FIX.4.4|9=83|35=7|49=TESTI|56=TESTA|34=31|52=20030203-16:02:35|2=20|5=0|55=TESTB|4=T|53=1000000|10=194|
8=FIX.4.4|9=83|35=7|49=TESTI|56=TESTA|34=31|52=20030203-16:02:35|2=20|5=-1|55=TESTB|4=T|53=1000000|10=194|
8=FIX.4.4|9=140|35=1|34=104|49=SNDR|56=TRGT|52=20090407-09:48:19.812|112= TEST #002 CHECK 4 REJECT MSGS with INVALID MESSAGE - INCORRECT DATA TYPE [MsgType:_7, Tag:_5]|10=018|
8=FIX.4.4|9=91|35=AI|49=TESTI|56=TESTA|34=4|52=20030204-08:46:14|117=0001|55=TESTA|132=10.5|13=0|10=068|
8=FIX.4.4|9=91|35=AI|49=TESTI|56=TESTA|34=4|52=20030204-08:46:14|117=0001|55=TESTA|132=10.5|13=a|10=068|
8=FIX.4.4|9=91|35=AI|49=TESTI|56=TESTA|34=4|52=20030204-08:46:14|117=0001|55=TESTA|132=10.5|13=B|10=068|
8=FIX.4.4|9=91|35=AI|49=TESTI|56=TESTA|34=4|52=20030204-08:46:14|117=0001|55=TESTA|132=10.5|13=-1|10=068|
8=FIX.4.4|9=140|35=1|34=104|49=SNDR|56=TRGT|52=20090407-09:48:19.812|112= TEST #003 CHECK 4 REJECT MSGS with INVALID MESSAGE - INCORRECT DATA TYPE [MsgType:_AI, Tag:_13]|10=018|
8=FIX.4.4|9=90|35=7|49=TESTI|56=TESTA|34=31|52=20030203-16:02:35|2=20|5=N|55=TESTB|4=T|53=1000000|15=0|10=194|
8=FIX.4.4|9=90|35=7|49=TESTI|56=TESTA|34=31|52=20030203-16:02:35|2=20|5=N|55=TESTB|4=T|53=1000000|15=usd|10=194|
8=FIX.4.4|9=90|35=7|49=TESTI|56=TESTA|34=31|52=20030203-16:02:35|2=20|5=N|55=TESTB|4=T|53=1000000|15= |10=194|
8=FIX.4.4|9=90|35=7|49=TESTI|56=TESTA|34=31|52=20030203-16:02:35|2=20|5=N|55=TESTB|4=T|53=1000000|15=-1|10=194|
8=FIX.4.4|9=140|35=1|34=104|49=SNDR|56=TRGT|52=20090407-09:48:19.812|112= TEST #004 CHECK 4 REJECT MSGS with INVALID MESSAGE - INCORRECT DATA TYPE [MsgType: 7,_Tag:_15]|10=018|
8=FIX.4.4|9=128|35=D|49=TESTI|56=TESTA|34=4|52=20030204-08:46:14|11=90001008|21=0|55=TESTB|54=1|60=20060217-10:00:00|38=4000|40=1|10=072|
8=FIX.4.4|9=128|35=D|49=TESTI|56=TESTA|34=4|52=20030204-08:46:14|11=90001008|21=-1|55=TESTB|54=1|60=20060217-10:00:00|38=4000|40=1|10=074|
8=FIX.4.4|9=128|35=D|49=TESTI|56=TESTA|34=4|52=20030204-08:46:14|11=90001008|21=A|55=TESTB|54=1|60=20060217-10:00:00|38=4000|40=1|10=074|
8=FIX.4.4|9=128|35=D|49=TESTI|56=TESTA|34=4|52=20030204-08:46:14|11=90001008|21=b|55=TESTB|54=1|60=20060217-10:00:00|38=4000|40=1|10=074|
8=FIX.4.4|9=140|35=1|34=104|49=SNDR|56=TRGT|52=20090407-09:48:19.812|112= TEST #005 CHECK 4 REJECT MSGS with INVALID MESSAGE - INCORRECT DATA TYPE [MsgType:_D, Tag:_21]|10=018|
8=FIX.4.4|9=79|35=e|49=TESTI|56=TESTA|34=14|52=20030204-09:25:43|324=0001|55=TESTB|22=0|263=0|10=033|
8=FIX.4.4|9=79|35=e|49=TESTI|56=TESTA|34=14|52=20030204-09:25:43|324=0001|55=TESTB|22=-1|263=0|10=033|
8=FIX.4.4|9=79|35=e|49=TESTI|56=TESTA|34=14|52=20030204-09:25:43|324=0001|55=TESTB|22=K|263=0|10=033|
8=FIX.4.4|9=79|35=e|49=TESTI|56=TESTA|34=14|52=20030204-09:25:43|324=0001|55=TESTB|22=b|263=0|10=033|
8=FIX.4.4|9=140|35=1|34=104|49=SNDR|56=TRGT|52=20090407-09:48:19.812|112= TEST #006 CHECK 4 REJECT MSGS with INVALID MESSAGE - INCORRECT DATA TYPE [MsgType:_e, Tag:_22]|10=018|
8=FIX.4.4|9=86|35=6|49=TESTI|56=TESTA|34=121|52=20030203-16:10:01|23=24|28=N|55=TESTB|54=1|27=S|25=0|10=090|
8=FIX.4.4|9=86|35=6|49=TESTI|56=TESTA|34=121|52=20030203-16:10:01|23=24|28=N|55=TESTB|54=1|27=S|25=h|10=090|
8=FIX.4.4|9=86|35=6|49=TESTI|56=TESTA|34=121|52=20030203-16:10:01|23=24|28=N|55=TESTB|54=1|27=S|25=A|10=090|
8=FIX.4.4|9=86|35=6|49=TESTI|56=TESTA|34=121|52=20030203-16:10:01|23=24|28=N|55=TESTB|54=1|27=S|25=-1|10=090|
8=FIX.4.4|9=140|35=1|34=104|49=SNDR|56=TRGT|52=20090407-09:48:19.812|112= TEST #007 CHECK 4 REJECT MSGS with INVALID MESSAGE - INCORRECT DATA TYPE [MsgType:_6, Tag:_25]|10=018|
8=FIX.4.4|9=86|35=6|49=TESTI|56=TESTA|34=121|52=20030203-16:10:01|23=24|28=N|55=TESTB|54=1|27=-1|25=H|10=090|
8=FIX.4.4|9=86|35=6|49=TESTI|56=TESTA|34=121|52=20030203-16:10:01|23=24|28=N|55=TESTB|54=1|27=A|25=H|10=090|
8=FIX.4.4|9=86|35=6|49=TESTI|56=TESTA|34=121|52=20030203-16:10:01|23=24|28=N|55=TESTB|54=1|27=s|25=H|10=090|
8=FIX.4.4|9=86|35=6|49=TESTI|56=TESTA|34=121|52=20030203-16:10:01|23=24|28=N|55=TESTB|54=1|27=l|25=H|10=090|
8=FIX.4.4|9=140|35=1|34=104|49=SNDR|56=TRGT|52=20090407-09:48:19.812|112= TEST #008 CHECK 4 REJECT MSGS with INVALID MESSAGE - INCORRECT DATA TYPE [MsgType:_6, Tag:_27]|10=018|
8=FIX.4.4|9=81|35=6|49=TESTI|56=TESTA|34=121|52=20030203-16:10:01|23=24|28=0|55=TESTB|54=1|27=S|10=104|
8=FIX.4.4|9=81|35=6|49=TESTI|56=TESTA|34=121|52=20030203-16:10:01|23=24|28=-1|55=TESTB|54=1|27=S|10=104|
8=FIX.4.4|9=81|35=6|49=TESTI|56=TESTA|34=121|52=20030203-16:10:01|23=24|28=A|55=TESTB|54=1|27=S|10=104|
8=FIX.4.4|9=81|35=6|49=TESTI|56=TESTA|34=121|52=20030203-16:10:01|23=24|28=n|55=TESTB|54=1|27=S|10=104|
8=FIX.4.4|9=140|35=1|34=104|49=SNDR|56=TRGT|52=20090407-09:48:19.812|112= TEST #009 CHECK 4 REJECT MSGS with INVALID MESSAGE - INCORRECT DATA TYPE [MsgType:_6, Tag:_28]|10=018|
8=FIX.4.4|9=137|35=AS|49=TESTI|56=TESTA|34=4|52=20030204-08:46:14|755=0001|71=0|794=5|87=0|857=0|124=1|32=302|31=3.1|669=3|29=0|54=2|55=TESTB|53=10000|6=10.5|75=20060217|10=228|
8=FIX.4.4|9=137|35=AS|49=TESTI|56=TESTA|34=4|52=20030204-08:46:14|755=0001|71=0|794=5|87=0|857=0|124=1|32=302|31=3.1|669=3|29=-1|54=2|55=TESTB|53=10000|6=10.5|75=20060217|10=228|
8=FIX.4.4|9=137|35=AS|49=TESTI|56=TESTA|34=4|52=20030204-08:46:14|755=0001|71=0|794=5|87=0|857=0|124=1|32=302|31=3.1|669=3|29=A|54=2|55=TESTB|53=10000|6=10.5|75=20060217|10=228|
8=FIX.4.4|9=137|35=AS|49=TESTI|56=TESTA|34=4|52=20030204-08:46:14|755=0001|71=0|794=5|87=0|857=0|124=1|32=302|31=3.1|669=3|29=b|54=2|55=TESTB|53=10000|6=10.5|75=20060217|10=228|
8=FIX.4.4|9=140|35=1|34=104|49=SNDR|56=TRGT|52=20090407-09:48:19.812|112= TEST #010 CHECK 4 REJECT MSGS with INVALID MESSAGE - INCORRECT DATA TYPE [MsgType:_AS, Tag:_29]|10=018|
8=FIX.4.4|9=203|35=J|49=TESTI|56=TESTA|34=4|52=20030204-08:56:41|70=1116226|71=0|626=1|857=0|124=1|32=22|31=7.01|54=1|55=TESTB|53=1004000|30=X|6=30|75=20030821|78=3|79=1000|80=500000|79=2000|80=400000|79=3000|80=104000|10=028|
8=FIX.4.4|9=203|35=J|49=TESTI|56=TESTA|34=4|52=20030204-08:56:41|70=1116226|71=0|626=1|857=0|124=1|32=22|31=7.01|54=1|55=TESTB|53=1004000|30=0|6=30|75=20030821|78=3|79=1000|80=500000|79=2000|80=400000|79=3000|80=104000|10=028|
8=FIX.4.4|9=203|35=J|49=TESTI|56=TESTA|34=4|52=20030204-08:56:41|70=1116226|71=0|626=1|857=0|124=1|32=22|31=7.01|54=1|55=TESTB|53=1004000|30=-1|6=30|75=20030821|78=3|79=1000|80=500000|79=2000|80=400000|79=3000|80=104000|10=028|
8=FIX.4.4|9=203|35=J|49=TESTI|56=TESTA|34=4|52=20030204-08:56:41|70=1116226|71=0|626=1|857=0|124=1|32=22|31=7.01|54=1|55=TESTB|53=1004000|30=-xCUE|6=30|75=20030821|78=3|79=1000|80=500000|79=2000|80=400000|79=3000|80=104000|10=028|
8=FIX.4.4|9=140|35=1|34=104|49=SNDR|56=TRGT|52=20090407-09:48:19.812|112= TEST #011 CHECK 4 REJECT MSGS with INVALID MESSAGE - INCORRECT DATA TYPE [MsgType:_J, Tag:_30]|10=018|
8=FIX.4.4|9=135|35=8|49=TESTI|56=TESTA|34=114|52=20030203-16:09:30|37=11111111|17=12|39=-1|150=F|55=TESTB|54=1|38=1000|151=600|14=400|6=10|32=400|31=10|10=245|
8=FIX.4.4|9=135|35=8|49=TESTI|56=TESTA|34=114|52=20030203-16:09:30|37=11111111|17=12|39=10|150=F|55=TESTB|54=1|38=1000|151=600|14=400|6=10|32=400|31=10|10=245|
8=FIX.4.4|9=135|35=8|49=TESTI|56=TESTA|34=114|52=20030203-16:09:30|37=11111111|17=12|39=a|150=F|55=TESTB|54=1|38=1000|151=600|14=400|6=10|32=400|31=10|10=245|
8=FIX.4.4|9=135|35=8|49=TESTI|56=TESTA|34=114|52=20030203-16:09:30|37=11111111|17=12|39=F|150=F|55=TESTB|54=1|38=1000|151=600|14=400|6=10|32=400|31=10|10=245|
8=FIX.4.4|9=140|35=1|34=104|49=SNDR|56=TRGT|52=20090407-09:48:19.812|112= TEST #012 CHECK 4 REJECT MSGS with INVALID MESSAGE - INCORRECT DATA TYPE [MsgType:_8, Tag:_39]|10=018|
8=FIX.4.4|9=162|35=AC|49=TESTI|56=TESTA|34=4|52=20030204-08:46:14|11=90001008|41=93452234|54=1|55=TESTB|555=2|600=TESTA|600=TESTC|60=20060217-10:00:00|38=4000|40=0|10=178|
8=FIX.4.4|9=162|35=AC|49=TESTI|56=TESTA|34=4|52=20030204-08:46:14|11=90001008|41=93452234|54=1|55=TESTB|555=2|600=TESTA|600=TESTC|60=20060217-10:00:00|38=4000|40=-1|10=178|
8=FIX.4.4|9=162|35=AC|49=TESTI|56=TESTA|34=4|52=20030204-08:46:14|11=90001008|41=93452234|54=1|55=TESTB|555=2|600=TESTA|600=TESTC|60=20060217-10:00:00|38=4000|40=a|10=178|
8=FIX.4.4|9=162|35=AC|49=TESTI|56=TESTA|34=4|52=20030204-08:46:14|11=90001008|41=93452234|54=1|55=TESTB|555=2|600=TESTA|600=TESTC|60=20060217-10:00:00|38=4000|40=Q|10=178|
8=FIX.4.4|9=140|35=1|34=104|49=SNDR|56=TRGT|52=20090407-09:48:19.812|112= TEST #013 CHECK 4 REJECT MSGS with INVALID MESSAGE - INCORRECT DATA TYPE [MsgType:_AC, Tag:_40]|10=018|
8=FIX.4.4|9=135|35=8|49=TESTI|56=TESTA|34=114|52=20030203-16:09:30|37=11111111|17=12|39=1|150=F|55=TESTB|54=0|38=1000|151=600|14=400|6=10|32=400|31=10|10=246|
8=FIX.4.4|9=135|35=8|49=TESTI|56=TESTA|34=114|52=20030203-16:09:30|37=11111111|17=12|39=1|150=F|55=TESTB|54=-1|38=1000|151=600|14=400|6=10|32=400|31=10|10=246|
8=FIX.4.4|9=135|35=8|49=TESTI|56=TESTA|34=114|52=20030203-16:09:30|37=11111111|17=12|39=1|150=F|55=TESTB|54=a|38=1000|151=600|14=400|6=10|32=400|31=10|10=246|
8=FIX.4.4|9=135|35=8|49=TESTI|56=TESTA|34=114|52=20030203-16:09:30|37=11111111|17=12|39=1|150=F|55=TESTB|54=H|38=1000|151=600|14=400|6=10|32=400|31=10|10=246|
8=FIX.4.4|9=140|35=1|34=104|49=SNDR|56=TRGT|52=20090407-09:48:19.812|112= TEST #014 CHECK 4 REJECT MSGS with INVALID MESSAGE - INCORRECT DATA TYPE [MsgType:_8, Tag:_54]|10=018|
8=FIX.4.4|9=128|35=D|49=TESTI|56=TESTA|34=4|52=20030204-08:46:14|11=90001008|55=TESTB|54=1|60=20060217-10:00:00|38=4000|40=1|59=-1|10=082|
8=FIX.4.4|9=128|35=D|49=TESTI|56=TESTA|34=4|52=20030204-08:46:14|11=90001008|55=TESTB|54=1|60=20060217-10:00:00|38=4000|40=1|59=8|10=082|
8=FIX.4.4|9=128|35=D|49=TESTI|56=TESTA|34=4|52=20030204-08:46:14|11=90001008|55=TESTB|54=1|60=20060217-10:00:00|38=4000|40=1|59=A|10=082|
8=FIX.4.4|9=128|35=D|49=TESTI|56=TESTA|34=4|52=20030204-08:46:14|11=90001008|55=TESTB|54=1|60=20060217-10:00:00|38=4000|40=1|59=b|10=082|
8=FIX.4.4|9=140|35=1|34=104|49=SNDR|56=TRGT|52=20090407-09:48:19.812|112= TEST #015 CHECK 4 REJECT MSGS with INVALID MESSAGE - INCORRECT DATA TYPE [MsgType:_D, Tag:_59]|10=018|
8=FIX.4.4|9=148|35=B|49=TESTI|56=TESTA|34=19|52=20030203-16:21:17|61=-1|148=Weather|33=4|58=In the evening |58=it might be wet |58=and windy.|58= Take your coat on.|10=147|
8=FIX.4.4|9=148|35=B|49=TESTI|56=TESTA|34=19|52=20030203-16:21:17|61=3|148=Weather|33=4|58=In the evening |58=it might be wet |58=and windy.|58= Take your coat on.|10=147|
8=FIX.4.4|9=148|35=B|49=TESTI|56=TESTA|34=19|52=20030203-16:21:17|61=A|148=Weather|33=4|58=In the evening |58=it might be wet |58=and windy.|58= Take your coat on.|10=147|
8=FIX.4.4|9=148|35=B|49=TESTI|56=TESTA|34=19|52=20030203-16:21:17|61=b|148=Weather|33=4|58=In the evening |58=it might be wet |58=and windy.|58= Take your coat on.|10=147|
8=FIX.4.4|9=140|35=1|34=104|49=SNDR|56=TRGT|52=20090407-09:48:19.812|112= TEST #016 CHECK 4 REJECT MSGS with INVALID MESSAGE - INCORRECT DATA TYPE [MsgType:_B, Tag:_61]|10=018|
8=FIX.4.4|9=183|35=J|49=TESTI|56=TESTA|34=4|52=20030204-08:56:41|70=1116226|71=0|626=1|857=0|54=1|55=TESTB|53=1004000|6=30|75=20030821|63=-1|78=3|79=1000|80=500000|79=2000|80=400000|79=3000|80=104000|10=214|
8=FIX.4.4|9=183|35=J|49=TESTI|56=TESTA|34=4|52=20030204-08:56:41|70=1116226|71=0|626=1|857=0|54=1|55=TESTB|53=1004000|6=30|75=20030821|63=10|78=3|79=1000|80=500000|79=2000|80=400000|79=3000|80=104000|10=214|
8=FIX.4.4|9=183|35=J|49=TESTI|56=TESTA|34=4|52=20030204-08:56:41|70=1116226|71=0|626=1|857=0|54=1|55=TESTB|53=1004000|6=30|75=20030821|63=A|78=3|79=1000|80=500000|79=2000|80=400000|79=3000|80=104000|10=214|
8=FIX.4.4|9=183|35=J|49=TESTI|56=TESTA|34=4|52=20030204-08:56:41|70=1116226|71=0|626=1|857=0|54=1|55=TESTB|53=1004000|6=30|75=20030821|63=b|78=3|79=1000|80=500000|79=2000|80=400000|79=3000|80=104000|10=214|
8=FIX.4.4|9=140|35=1|34=104|49=SNDR|56=TRGT|52=20090407-09:48:19.812|112= TEST #017 CHECK 4 REJECT MSGS with INVALID MESSAGE - INCORRECT DATA TYPE [MsgType:_J, Tag:_63]|10=018|
8=FIX.4.4|9=137|35=AS|49=TESTI|56=TESTA|34=4|52=20030204-08:46:14|755=0001|71=-1|794=5|87=0|857=0|54=2|55=TESTB|53=10000|6=10.5|75=20060217|10=228|
8=FIX.4.4|9=137|35=AS|49=TESTI|56=TESTA|34=4|52=20030204-08:46:14|755=0001|71=3|794=5|87=0|857=0|54=2|55=TESTB|53=10000|6=10.5|75=20060217|10=228|
8=FIX.4.4|9=137|35=AS|49=TESTI|56=TESTA|34=4|52=20030204-08:46:14|755=0001|71=A|794=5|87=0|857=0|54=2|55=TESTB|53=10000|6=10.5|75=20060217|10=228|
8=FIX.4.4|9=137|35=AS|49=TESTI|56=TESTA|34=4|52=20030204-08:46:14|755=0001|71=b|794=5|87=0|857=0|54=2|55=TESTB|53=10000|6=10.5|75=20060217|10=228|
8=FIX.4.4|9=140|35=1|34=104|49=SNDR|56=TRGT|52=20090407-09:48:19.812|112= TEST #018 CHECK 4 REJECT MSGS with INVALID MESSAGE - INCORRECT DATA TYPE [MsgType:_AS, Tag:_71]|10=018|
8=FIX.4.4|9=155|35=AB|49=TESTI|56=TESTA|34=4|52=20030204-08:46:14|11=90001008|54=1|55=TESTB|555=2|600=TESTA|600=TESTC|38=4000|40=1|77=c|60=20060117-10:00:00|10=094|
8=FIX.4.4|9=155|35=AB|49=TESTI|56=TESTA|34=4|52=20030204-08:46:14|11=90001008|54=1|55=TESTB|555=2|600=TESTA|600=TESTC|38=4000|40=1|77=f|60=20060117-10:00:00|10=094|
8=FIX.4.4|9=155|35=AB|49=TESTI|56=TESTA|34=4|52=20030204-08:46:14|11=90001008|54=1|55=TESTB|555=2|600=TESTA|600=TESTC|38=4000|40=1|77=0|60=20060117-10:00:00|10=094|
8=FIX.4.4|9=155|35=AB|49=TESTI|56=TESTA|34=4|52=20030204-08:46:14|11=90001008|54=1|55=TESTB|555=2|600=TESTA|600=TESTC|38=4000|40=1|77=-1|60=20060117-10:00:00|10=094|
8=FIX.4.4|9=140|35=1|34=104|49=SNDR|56=TRGT|52=20090407-09:48:19.812|112= TEST #019 CHECK 4 REJECT MSGS with INVALID MESSAGE - INCORRECT DATA TYPE [MsgType:_AB, Tag:_77]|10=018|
8=FIX.4.4|9=128|35=D|49=TESTI|56=TESTA|34=4|52=20030204-08:46:14|11=90001008|81=-1|55=TESTB|54=1|60=20060217-10:00:00|38=4000|40=1|10=077|
8=FIX.4.4|9=128|35=D|49=TESTI|56=TESTA|34=4|52=20030204-08:46:14|11=90001008|81=7|55=TESTB|54=1|60=20060217-10:00:00|38=4000|40=1|10=077|
8=FIX.4.4|9=128|35=D|49=TESTI|56=TESTA|34=4|52=20030204-08:46:14|11=90001008|81=A|55=TESTB|54=1|60=20060217-10:00:00|38=4000|40=1|10=077|
8=FIX.4.4|9=128|35=D|49=TESTI|56=TESTA|34=4|52=20030204-08:46:14|11=90001008|81=b|55=TESTB|54=1|60=20060217-10:00:00|38=4000|40=1|10=077|
8=FIX.4.4|9=140|35=1|34=104|49=SNDR|56=TRGT|52=20090407-09:48:19.812|112= TEST #020 CHECK 4 REJECT MSGS with INVALID MESSAGE - INCORRECT DATA TYPE [MsgType:_D, Tag:_81]|10=018|
8=FIX.4.4|9=107|35=AT|49=TESTI|56=TESTA|34=4|52=20030204-08:46:14|755=0001|70=0001|60=20060217-10:00:00|87=-1|10=051|
8=FIX.4.4|9=107|35=AT|49=TESTI|56=TESTA|34=4|52=20030204-08:46:14|755=0001|70=0001|60=20060217-10:00:00|87=6|10=051|
8=FIX.4.4|9=107|35=AT|49=TESTI|56=TESTA|34=4|52=20030204-08:46:14|755=0001|70=0001|60=20060217-10:00:00|87=A|10=051|
8=FIX.4.4|9=107|35=AT|49=TESTI|56=TESTA|34=4|52=20030204-08:46:14|755=0001|70=0001|60=20060217-10:00:00|87=b|10=051|
8=FIX.4.4|9=140|35=1|34=104|49=SNDR|56=TRGT|52=20090407-09:48:19.812|112= TEST #021 CHECK 4 REJECT MSGS with INVALID MESSAGE - INCORRECT DATA TYPE [MsgType:_AT, Tag:_87]|10=018|
8=FIX.4.4|9=100|35=P|49=TESTI|56=TESTA|34=7|52=20030204-09:17:25|70=3659000001|60=20060108-10:00:53|87=0|573=0|88=-1|10=198|
8=FIX.4.4|9=100|35=P|49=TESTI|56=TESTA|34=7|52=20030204-09:17:25|70=3659000001|60=20060108-10:00:53|87=0|573=0|88=14|10=198|
8=FIX.4.4|9=100|35=P|49=TESTI|56=TESTA|34=7|52=20030204-09:17:25|70=3659000001|60=20060108-10:00:53|87=0|573=0|88=A|10=198|
8=FIX.4.4|9=100|35=P|49=TESTI|56=TESTA|34=7|52=20030204-09:17:25|70=3659000001|60=20060108-10:00:53|87=0|573=0|88=b|10=198|
8=FIX.4.4|9=140|35=1|34=104|49=SNDR|56=TRGT|52=20090407-09:48:19.812|112= TEST #022 CHECK 4 REJECT MSGS with INVALID MESSAGE - INCORRECT DATA TYPE [MsgType:_P, Tag:_88]|10=018|
8=FIX.4.4|9=147|35=C|49=TESTI|56=TESTA|34=4|52=20030203-16:20:05|164=111111111|94=-1|147=Bunny's Birthday|33=3|58=Hello, Bunny!|58=Happy Birthday to you :)|58=Bye.|10=133|
8=FIX.4.4|9=147|35=C|49=TESTI|56=TESTA|34=4|52=20030203-16:20:05|164=111111111|94=3|147=Bunny's Birthday|33=3|58=Hello, Bunny!|58=Happy Birthday to you :)|58=Bye.|10=133|
8=FIX.4.4|9=147|35=C|49=TESTI|56=TESTA|34=4|52=20030203-16:20:05|164=111111111|94=A|147=Bunny's Birthday|33=3|58=Hello, Bunny!|58=Happy Birthday to you :)|58=Bye.|10=133|
8=FIX.4.4|9=147|35=C|49=TESTI|56=TESTA|34=4|52=20030203-16:20:05|164=111111111|94=b|147=Bunny's Birthday|33=3|58=Hello, Bunny!|58=Happy Birthday to you :)|58=Bye.|10=133|
8=FIX.4.4|9=140|35=1|34=104|49=SNDR|56=TRGT|52=20090407-09:48:19.812|112= TEST #023 CHECK 4 REJECT MSGS with INVALID MESSAGE - INCORRECT DATA TYPE [MsgType:_C, Tag:_94]|10=018|
