8=FIX.4.4|9=129|35=D|49=TESTI|56=TESTA|34=4|52=20030204-08:46:14|11=90001008|55=TESTB|54=1|60=20060217-10:00:00|38=4000|40=1|203=-1|10=123|
8=FIX.4.4|9=129|35=D|49=TESTI|56=TESTA|34=4|52=20030204-08:46:14|11=90001008|55=TESTB|54=1|60=20060217-10:00:00|38=4000|40=1|203=2|10=123|
8=FIX.4.4|9=129|35=D|49=TESTI|56=TESTA|34=4|52=20030204-08:46:14|11=90001008|55=TESTB|54=1|60=20060217-10:00:00|38=4000|40=1|203=A|10=123|
8=FIX.4.4|9=129|35=D|49=TESTI|56=TESTA|34=4|52=20030204-08:46:14|11=90001008|55=TESTB|54=1|60=20060217-10:00:00|38=4000|40=1|203=b|10=123|
8=FIX.4.4|9=140|35=1|34=104|49=SNDR|56=TRGT|52=20090407-09:48:19.812|112= TEST #044 CHECK 4 REJECT MSGS with INVALID MESSAGE - INCORRECT DATA TYPE [MsgType:_D, Tag:_203]|10=018|
8=FIX.4.4|9=157|35=AS|49=TESTI|56=TESTA|34=4|52=20030204-08:46:14|755=0001|71=0|794=5|87=0|857=0|54=2|55=TESTB|53=10000|6=10.5|75=20060217|78=1|79=00079|208=y|10=152|
8=FIX.4.4|9=157|35=AS|49=TESTI|56=TESTA|34=4|52=20030204-08:46:14|755=0001|71=0|794=5|87=0|857=0|54=2|55=TESTB|53=10000|6=10.5|75=20060217|78=1|79=00079|208=n|10=152|
8=FIX.4.4|9=157|35=AS|49=TESTI|56=TESTA|34=4|52=20030204-08:46:14|755=0001|71=0|794=5|87=0|857=0|54=2|55=TESTB|53=10000|6=10.5|75=20060217|78=1|79=00079|208=0|10=152|
8=FIX.4.4|9=157|35=AS|49=TESTI|56=TESTA|34=4|52=20030204-08:46:14|755=0001|71=0|794=5|87=0|857=0|54=2|55=TESTB|53=10000|6=10.5|75=20060217|78=1|79=00079|208=-1|10=152|
8=FIX.4.4|9=140|35=1|34=104|49=SNDR|56=TRGT|52=20090407-09:48:19.812|112= TEST #045 CHECK 4 REJECT MSGS with INVALID MESSAGE - INCORRECT DATA TYPE [MsgType:_AS, Tag:_208]|10=018|
8=FIX.4.4|9=157|35=AS|49=TESTI|56=TESTA|34=4|52=20030204-08:46:14|755=0001|71=0|794=5|87=0|857=0|54=2|55=TESTB|53=10000|6=10.5|75=20060217|78=1|79=00079|209=0|10=124|
8=FIX.4.4|9=157|35=AS|49=TESTI|56=TESTA|34=4|52=20030204-08:46:14|755=0001|71=0|794=5|87=0|857=0|54=2|55=TESTB|53=10000|6=10.5|75=20060217|78=1|79=00079|209=-1|10=124|
8=FIX.4.4|9=157|35=AS|49=TESTI|56=TESTA|34=4|52=20030204-08:46:14|755=0001|71=0|794=5|87=0|857=0|54=2|55=TESTB|53=10000|6=10.5|75=20060217|78=1|79=00079|209=A|10=124|
8=FIX.4.4|9=157|35=AS|49=TESTI|56=TESTA|34=4|52=20030204-08:46:14|755=0001|71=0|794=5|87=0|857=0|54=2|55=TESTB|53=10000|6=10.5|75=20060217|78=1|79=00079|209=b|10=124|
8=FIX.4.4|9=140|35=1|34=104|49=SNDR|56=TRGT|52=20090407-09:48:19.812|112= TEST #046 CHECK 4 REJECT MSGS with INVALID MESSAGE - INCORRECT DATA TYPE [MsgType:_AS, Tag:_209]|10=018|
8=FIX.4.4|9=166|35=B|49=TESTI|56=TESTA|34=19|52=20030203-16:21:17|148=Weather|215=1|216=0|217=000217|33=4|58=In the evening |58=it might be wet |58=and windy.|58= Take your coat on.|10=207|
8=FIX.4.4|9=166|35=B|49=TESTI|56=TESTA|34=19|52=20030203-16:21:17|148=Weather|215=1|216=-1|217=000217|33=4|58=In the evening |58=it might be wet |58=and windy.|58= Take your coat on.|10=207|
8=FIX.4.4|9=166|35=B|49=TESTI|56=TESTA|34=19|52=20030203-16:21:17|148=Weather|215=1|216=A|217=000217|33=4|58=In the evening |58=it might be wet |58=and windy.|58= Take your coat on.|10=207|
8=FIX.4.4|9=166|35=B|49=TESTI|56=TESTA|34=19|52=20030203-16:21:17|148=Weather|215=1|216=b|217=000217|33=4|58=In the evening |58=it might be wet |58=and windy.|58= Take your coat on.|10=207|
8=FIX.4.4|9=140|35=1|34=104|49=SNDR|56=TRGT|52=20090407-09:48:19.812|112= TEST #047 CHECK 4 REJECT MSGS with INVALID MESSAGE - INCORRECT DATA TYPE [MsgType:_B, Tag:_216]|10=018|
8=FIX.4.4|9=194|35=AE|49=TESTI|56=TESTA|34=4|52=20030204-08:46:14|571=90001008|150=F|570=N|55=TESTA|32=1000|31=10.4|75=20060217|221=SwAP|60=20060217-10:00:00|552=2|54=1|37=0001|54=2|37=0002|10=204|
8=FIX.4.4|9=195|35=AE|49=TESTI|56=TESTA|34=4|52=20030204-08:46:14|571=90001008|150=F|570=N|55=TESTA|32=1000|31=10.4|75=20060217|221=Libor|60=20060217-10:00:00|552=2|54=1|37=0001|54=2|37=0002|10=010|
8=FIX.4.4|9=196|35=AE|49=TESTI|56=TESTA|34=4|52=20030204-08:46:14|571=90001008|150=F|570=N|55=TESTA|32=1000|31=10.4|75=20060217|221=0|60=20060217-10:00:00|552=2|54=1|37=0001|54=2|37=0002|10=099|
8=FIX.4.4|9=197|35=AE|49=TESTI|56=TESTA|34=4|52=20030204-08:46:14|571=90001008|150=F|570=N|55=TESTA|32=1000|31=10.4|75=20060217|221=-1|60=20060217-10:00:00|552=2|54=1|37=0001|54=2|37=0002|10=108|
8=FIX.4.4|9=140|35=1|34=104|49=SNDR|56=TRGT|52=20090407-09:48:19.812|112= TEST #048 CHECK 4 REJECT MSGS with INVALID MESSAGE - INCORRECT DATA TYPE [MsgType:_AE, Tag:_221]|10=018|
8=FIX.4.4|9=151|35=AS|49=TESTI|56=TESTA|34=4|52=20030204-08:46:14|755=0001|71=0|794=5|87=0|857=0|54=2|55=TESTB|53=10000|6=10.5|75=20060217|232=1|233=aMT|10=158|
8=FIX.4.4|9=152|35=AS|49=TESTI|56=TESTA|34=4|52=20030204-08:46:14|755=0001|71=0|794=5|87=0|857=0|54=2|55=TESTB|53=10000|6=10.5|75=20060217|232=1|233=Geog|10=223|
8=FIX.4.4|9=153|35=AS|49=TESTI|56=TESTA|34=4|52=20030204-08:46:14|755=0001|71=0|794=5|87=0|857=0|54=2|55=TESTB|53=10000|6=10.5|75=20060217|232=1|233=0|10=071|
8=FIX.4.4|9=154|35=AS|49=TESTI|56=TESTA|34=4|52=20030204-08:46:14|755=0001|71=0|794=5|87=0|857=0|54=2|55=TESTB|53=10000|6=10.5|75=20060217|232=1|233=-1|10=151|
8=FIX.4.4|9=140|35=1|34=104|49=SNDR|56=TRGT|52=20090407-09:48:19.812|112= TEST #049 CHECK 4 REJECT MSGS with INVALID MESSAGE - INCORRECT DATA TYPE [MsgType:_AS, Tag:_233]|10=018|
8=FIX.4.4|9=86|35=S|49=TESTI|56=TESTA|34=14|52=20030204-09:25:43|117=11223|55=TESTB|133=15.3|235=put|10=214|
8=FIX.4.4|9=88|35=S|49=TESTI|56=TESTA|34=14|52=20030204-09:25:43|117=11223|55=TESTB|133=15.3|235=gross|10=109|
8=FIX.4.4|9=89|35=S|49=TESTI|56=TESTA|34=14|52=20030204-09:25:43|117=11223|55=TESTB|133=15.3|235=0|10=134|
8=FIX.4.4|9=90|35=S|49=TESTI|56=TESTA|34=14|52=20030204-09:25:43|117=11223|55=TESTB|133=15.3|235=-1|10=251|
8=FIX.4.4|9=140|35=1|34=104|49=SNDR|56=TRGT|52=20090407-09:48:19.812|112= TEST #050 CHECK 4 REJECT MSGS with INVALID MESSAGE - INCORRECT DATA TYPE [MsgType:_S, Tag:_235]|10=018|
8=FIX.4.4|9=126|35=8|49=TESTI|56=TESTA|34=114|52=20030203-16:09:30|37=11111111|17=11|39=0|150=0|55=TESTB|54=1|38=1000|151=1000|14=0|6=0|258=n|10=101|
8=FIX.4.4|9=126|35=8|49=TESTI|56=TESTA|34=114|52=20030203-16:09:30|37=11111111|17=11|39=0|150=0|55=TESTB|54=1|38=1000|151=1000|14=0|6=0|258=y|10=101|
8=FIX.4.4|9=126|35=8|49=TESTI|56=TESTA|34=114|52=20030203-16:09:30|37=11111111|17=11|39=0|150=0|55=TESTB|54=1|38=1000|151=1000|14=0|6=0|258=0|10=101|
8=FIX.4.4|9=126|35=8|49=TESTI|56=TESTA|34=114|52=20030203-16:09:30|37=11111111|17=11|39=0|150=0|55=TESTB|54=1|38=1000|151=1000|14=0|6=0|258=-1|10=101|
8=FIX.4.4|9=140|35=1|34=104|49=SNDR|56=TRGT|52=20090407-09:48:19.812|112= TEST #051 CHECK 4 REJECT MSGS with INVALID MESSAGE - INCORRECT DATA TYPE [MsgType:_8, Tag:_258]|10=018|
8=FIX.4.4|9=65|35=g|49=TESTI|56=TESTA|34=14|52=20030204-09:25:43|335=0001|263=-1|10=035|
8=FIX.4.4|9=65|35=g|49=TESTI|56=TESTA|34=14|52=20030204-09:25:43|335=0001|263=3|10=035|
8=FIX.4.4|9=65|35=g|49=TESTI|56=TESTA|34=14|52=20030204-09:25:43|335=0001|263=A|10=035|
8=FIX.4.4|9=65|35=g|49=TESTI|56=TESTA|34=14|52=20030204-09:25:43|335=0001|263=b|10=035|
8=FIX.4.4|9=140|35=1|34=104|49=SNDR|56=TRGT|52=20090407-09:48:19.812|112= TEST #052 CHECK 4 REJECT MSGS with INVALID MESSAGE - INCORRECT DATA TYPE [MsgType:_g, Tag:_263]|10=018|
8=FIX.4.4|9=120|35=V|49=TESTI|56=TESTA|34=14|52=20030204-09:25:43|262=11223|263=0|264=0|265=3|267=2|269=0|269=1|146=2|55=TESTA|55=TESTB|10=019|
8=FIX.4.4|9=120|35=V|49=TESTI|56=TESTA|34=14|52=20030204-09:25:43|262=11223|263=0|264=0|265=-1|267=2|269=0|269=1|146=2|55=TESTA|55=TESTB|10=019|
8=FIX.4.4|9=120|35=V|49=TESTI|56=TESTA|34=14|52=20030204-09:25:43|262=11223|263=0|264=0|265=A|267=2|269=0|269=1|146=2|55=TESTA|55=TESTB|10=019|
8=FIX.4.4|9=120|35=V|49=TESTI|56=TESTA|34=14|52=20030204-09:25:43|262=11223|263=0|264=0|265=b|267=2|269=0|269=1|146=2|55=TESTA|55=TESTB|10=019|
8=FIX.4.4|9=140|35=1|34=104|49=SNDR|56=TRGT|52=20090407-09:48:19.812|112= TEST #053 CHECK 4 REJECT MSGS with INVALID MESSAGE - INCORRECT DATA TYPE [MsgType:_V, Tag:_265]|10=018|
8=FIX.4.4|9=101|35=W|49=TESTI|56=TESTA|34=14|52=20030204-09:25:43|55=TESTA|268=2|269=9|270=10|269=-1|270=11|271=17.09|10=082|
8=FIX.4.4|9=101|35=W|49=TESTI|56=TESTA|34=14|52=20030204-09:25:43|55=TESTA|268=2|269=9|270=10|269=10|270=11|271=17.09|10=082|
8=FIX.4.4|9=101|35=W|49=TESTI|56=TESTA|34=14|52=20030204-09:25:43|55=TESTA|268=2|269=9|270=10|269=D|270=11|271=17.09|10=082|
8=FIX.4.4|9=101|35=W|49=TESTI|56=TESTA|34=14|52=20030204-09:25:43|55=TESTA|268=2|269=9|270=10|269=a|270=11|271=17.09|10=082|
8=FIX.4.4|9=140|35=1|34=104|49=SNDR|56=TRGT|52=20090407-09:48:19.812|112= TEST #054 CHECK 4 REJECT MSGS with INVALID MESSAGE - INCORRECT DATA TYPE [MsgType:_W, Tag:_269]|10=018|
8=FIX.4.4|9=103|35=W|49=TESTI|56=TESTA|34=14|52=20030204-09:25:43|55=TESTA|268=2|269=4|270=10|274=0|269=5|270=11|274=4|10=129|
8=FIX.4.4|9=103|35=W|49=TESTI|56=TESTA|34=14|52=20030204-09:25:43|55=TESTA|268=2|269=4|270=10|274=0|269=5|270=11|274=-1|10=129|
8=FIX.4.4|9=103|35=W|49=TESTI|56=TESTA|34=14|52=20030204-09:25:43|55=TESTA|268=2|269=4|270=10|274=0|269=5|270=11|274=A|10=129|
8=FIX.4.4|9=103|35=W|49=TESTI|56=TESTA|34=14|52=20030204-09:25:43|55=TESTA|268=2|269=4|270=10|274=0|269=5|270=11|274=b|10=129|
8=FIX.4.4|9=140|35=1|34=104|49=SNDR|56=TRGT|52=20090407-09:48:19.812|112= TEST #055 CHECK 4 REJECT MSGS with INVALID MESSAGE - INCORRECT DATA TYPE [MsgType:_W, Tag:_274]|10=018|
8=FIX.4.4|9=130|35=X|49=TESTI|56=TESTA|34=14|52=20030204-09:25:43|268=2|279=0|269=2|280=0001|270=10|271=9.01|279=3|269=2|280=0002|270=11|271=.090|10=209|
8=FIX.4.4|9=130|35=X|49=TESTI|56=TESTA|34=14|52=20030204-09:25:43|268=2|279=0|269=2|280=0001|270=10|271=9.01|279=-1|269=2|280=0002|270=11|271=.090|10=209|
8=FIX.4.4|9=130|35=X|49=TESTI|56=TESTA|34=14|52=20030204-09:25:43|268=2|279=0|269=2|280=0001|270=10|271=9.01|279=A|269=2|280=0002|270=11|271=.090|10=209|
8=FIX.4.4|9=130|35=X|49=TESTI|56=TESTA|34=14|52=20030204-09:25:43|268=2|279=0|269=2|280=0001|270=10|271=9.01|279=b|269=2|280=0002|270=11|271=.090|10=209|
8=FIX.4.4|9=140|35=1|34=104|49=SNDR|56=TRGT|52=20090407-09:48:19.812|112= TEST #056 CHECK 4 REJECT MSGS with INVALID MESSAGE - INCORRECT DATA TYPE [MsgType:_X, Tag:_279]|10=018|
8=FIX.4.4|9=66|35=Y|49=TESTI|56=TESTA|34=14|52=20030204-09:25:43|262=11223|281=-1|10=077|
8=FIX.4.4|9=66|35=Y|49=TESTI|56=TESTA|34=14|52=20030204-09:25:43|262=11223|281=10|10=077|
8=FIX.4.4|9=66|35=Y|49=TESTI|56=TESTA|34=14|52=20030204-09:25:43|262=11223|281=D|10=077|
8=FIX.4.4|9=66|35=Y|49=TESTI|56=TESTA|34=14|52=20030204-09:25:43|262=11223|281=b|10=077|
8=FIX.4.4|9=140|35=1|34=104|49=SNDR|56=TRGT|52=20090407-09:48:19.812|112= TEST #057 CHECK 4 REJECT MSGS with INVALID MESSAGE - INCORRECT DATA TYPE [MsgType:_Y, Tag:_281]|10=018|
8=FIX.4.4|9=112|35=X|49=TESTI|56=TESTA|34=14|52=20030204-09:25:43|268=2|279=1|285=0|280=0001|270=10|279=0|285=-1|280=0002|270=11|10=139|
8=FIX.4.4|9=112|35=X|49=TESTI|56=TESTA|34=14|52=20030204-09:25:43|268=2|279=1|285=0|280=0001|270=10|279=0|285=2|280=0002|270=11|10=139|
8=FIX.4.4|9=112|35=X|49=TESTI|56=TESTA|34=14|52=20030204-09:25:43|268=2|279=1|285=0|280=0001|270=10|279=0|285=A|280=0002|270=11|10=139|
8=FIX.4.4|9=112|35=X|49=TESTI|56=TESTA|34=14|52=20030204-09:25:43|268=2|279=1|285=0|280=0001|270=10|279=0|285=b|280=0002|270=11|10=139|
8=FIX.4.4|9=140|35=1|34=104|49=SNDR|56=TRGT|52=20090407-09:48:19.812|112= TEST #058 CHECK 4 REJECT MSGS with INVALID MESSAGE - INCORRECT DATA TYPE [MsgType:_X, Tag:_285]|10=018|
8=FIX.4.4|9=56|35=b|49=TESTI|56=TESTA|34=14|52=20030204-09:25:43|297=-1|10=139|
8=FIX.4.4|9=56|35=b|49=TESTI|56=TESTA|34=14|52=20030204-09:25:43|297=16|10=139|
8=FIX.4.4|9=56|35=b|49=TESTI|56=TESTA|34=14|52=20030204-09:25:43|297=A|10=139|
8=FIX.4.4|9=56|35=b|49=TESTI|56=TESTA|34=14|52=20030204-09:25:43|297=b|10=139|
8=FIX.4.4|9=140|35=1|34=104|49=SNDR|56=TRGT|52=20090407-09:48:19.812|112= TEST #059 CHECK 4 REJECT MSGS with INVALID MESSAGE - INCORRECT DATA TYPE [MsgType:_b, Tag:_297]|10=018|
8=FIX.4.4|9=66|35=Z|49=TESTI|56=TESTA|34=14|52=20030204-09:25:43|117=11223|298=0|10=089|
8=FIX.4.4|9=66|35=Z|49=TESTI|56=TESTA|34=14|52=20030204-09:25:43|117=11223|298=-1|10=089|
8=FIX.4.4|9=66|35=Z|49=TESTI|56=TESTA|34=14|52=20030204-09:25:43|117=11223|298=A|10=089|
8=FIX.4.4|9=66|35=Z|49=TESTI|56=TESTA|34=14|52=20030204-09:25:43|117=11223|298=b|10=089|
8=FIX.4.4|9=140|35=1|34=104|49=SNDR|56=TRGT|52=20090407-09:48:19.812|112= TEST #060 CHECK 4 REJECT MSGS with INVALID MESSAGE - INCORRECT DATA TYPE [MsgType:_Z, Tag:_298]|10=018|
