8=FIX.4.4|9=178|35=J|49=TESTI|56=TESTA|34=4|52=20030204-08:56:41|70=1116226|71=0|626=0|857=0|54=1|55=TESTB|53=1004000|6=30|75=20030821|78=3|79=1000|80=500000|79=2000|80=400000|79=3000|80=104000|10=004|
8=FIX.4.4|9=178|35=J|49=TESTI|56=TESTA|34=4|52=20030204-08:56:41|70=1116226|71=0|626=-1|857=0|54=1|55=TESTB|53=1004000|6=30|75=20030821|78=3|79=1000|80=500000|79=2000|80=400000|79=3000|80=104000|10=004|
8=FIX.4.4|9=178|35=J|49=TESTI|56=TESTA|34=4|52=20030204-08:56:41|70=1116226|71=0|626=A|857=0|54=1|55=TESTB|53=1004000|6=30|75=20030821|78=3|79=1000|80=500000|79=2000|80=400000|79=3000|80=104000|10=004|
8=FIX.4.4|9=178|35=J|49=TESTI|56=TESTA|34=4|52=20030204-08:56:41|70=1116226|71=0|626=b|857=0|54=1|55=TESTB|53=1004000|6=30|75=20030821|78=3|79=1000|80=500000|79=2000|80=400000|79=3000|80=104000|10=004|
8=FIX.4.4|9=140|35=1|34=104|49=SNDR|56=TRGT|52=20090407-09:48:19.812|112= TEST #140 CHECK 4 REJECT MSGS with INVALID MESSAGE - INCORRECT DATA TYPE [MsgType:_J, Tag:_626]|10=018|
8=FIX.4.4|9=104|35=AR|49=TESTI|56=TESTA|34=4|52=20030204-08:46:14|571=90001008|150=F|751=0|55=TESTB|635=0|10=028|
8=FIX.4.4|9=104|35=AR|49=TESTI|56=TESTA|34=4|52=20030204-08:46:14|571=90001008|150=F|751=0|55=TESTB|635=-1|10=028|
8=FIX.4.4|9=104|35=AR|49=TESTI|56=TESTA|34=4|52=20030204-08:46:14|571=90001008|150=F|751=0|55=TESTB|635=b|10=028|
8=FIX.4.4|9=104|35=AR|49=TESTI|56=TESTA|34=4|52=20030204-08:46:14|571=90001008|150=F|751=0|55=TESTB|635=m|10=028|
8=FIX.4.4|9=140|35=1|34=104|49=SNDR|56=TRGT|52=20090407-09:48:19.812|112= TEST #141 CHECK 4 REJECT MSGS with INVALID MESSAGE - INCORRECT DATA TYPE [MsgType:_AR, Tag:_635]|10=018|
8=FIX.4.4|9=108|35=9|49=TESTI|56=TESTA|34=3|52=20030203-16:13:14|37=11111111|11=12121212122|41=11111111111|39=0|434=1|636=y|10=004|
8=FIX.4.4|9=108|35=9|49=TESTI|56=TESTA|34=3|52=20030203-16:13:14|37=11111111|11=12121212122|41=11111111111|39=0|434=1|636=n|10=004|
8=FIX.4.4|9=108|35=9|49=TESTI|56=TESTA|34=3|52=20030203-16:13:14|37=11111111|11=12121212122|41=11111111111|39=0|434=1|636=0|10=004|
8=FIX.4.4|9=108|35=9|49=TESTI|56=TESTA|34=3|52=20030203-16:13:14|37=11111111|11=12121212122|41=11111111111|39=0|434=1|636=-1|10=004|
8=FIX.4.4|9=140|35=1|34=104|49=SNDR|56=TRGT|52=20090407-09:48:19.812|112= TEST #142 CHECK 4 REJECT MSGS with INVALID MESSAGE - INCORRECT DATA TYPE [MsgType:_9, Tag:_636]|10=018|
8=FIX.4.4|9=126|35=8|49=TESTI|56=TESTA|34=114|52=20030203-16:09:30|37=11111111|17=11|39=0|150=0|55=TESTB|54=1|38=1000|151=1000|14=0|6=0|638=-1|10=073|
8=FIX.4.4|9=126|35=8|49=TESTI|56=TESTA|34=114|52=20030203-16:09:30|37=11111111|17=11|39=0|150=0|55=TESTB|54=1|38=1000|151=1000|14=0|6=0|638=2|10=073|
8=FIX.4.4|9=126|35=8|49=TESTI|56=TESTA|34=114|52=20030203-16:09:30|37=11111111|17=11|39=0|150=0|55=TESTB|54=1|38=1000|151=1000|14=0|6=0|638=A|10=073|
8=FIX.4.4|9=126|35=8|49=TESTI|56=TESTA|34=114|52=20030203-16:09:30|37=11111111|17=11|39=0|150=0|55=TESTB|54=1|38=1000|151=1000|14=0|6=0|638=b|10=073|
8=FIX.4.4|9=140|35=1|34=104|49=SNDR|56=TRGT|52=20090407-09:48:19.812|112= TEST #143 CHECK 4 REJECT MSGS with INVALID MESSAGE - INCORRECT DATA TYPE [MsgType:_8, Tag:_638]|10=018|
8=FIX.4.4|9=251|35=AK|49=TESTI|56=TESTA|34=4|52=20030204-08:46:14|664=0001|666=0|773=1|650=y|665=4|60=20060217-10:00:00|75=20060217|711=1|311=TST311|555=1|600=TST600|55=TESTA|80=1000|54=1|862=2|528=A|863=400|528=P|863=600|79=KTierney|6=20|381=20000|118=2000|10=019|
8=FIX.4.4|9=251|35=AK|49=TESTI|56=TESTA|34=4|52=20030204-08:46:14|664=0001|666=0|773=1|650=n|665=4|60=20060217-10:00:00|75=20060217|711=1|311=TST311|555=1|600=TST600|55=TESTA|80=1000|54=1|862=2|528=A|863=400|528=P|863=600|79=KTierney|6=20|381=20000|118=2000|10=019|
8=FIX.4.4|9=251|35=AK|49=TESTI|56=TESTA|34=4|52=20030204-08:46:14|664=0001|666=0|773=1|650=0|665=4|60=20060217-10:00:00|75=20060217|711=1|311=TST311|555=1|600=TST600|55=TESTA|80=1000|54=1|862=2|528=A|863=400|528=P|863=600|79=KTierney|6=20|381=20000|118=2000|10=019|
8=FIX.4.4|9=251|35=AK|49=TESTI|56=TESTA|34=4|52=20030204-08:46:14|664=0001|666=0|773=1|650=-1|665=4|60=20060217-10:00:00|75=20060217|711=1|311=TST311|555=1|600=TST600|55=TESTA|80=1000|54=1|862=2|528=A|863=400|528=P|863=600|79=KTierney|6=20|381=20000|118=2000|10=019|
8=FIX.4.4|9=140|35=1|34=104|49=SNDR|56=TRGT|52=20090407-09:48:19.812|112= TEST #144 CHECK 4 REJECT MSGS with INVALID MESSAGE - INCORRECT DATA TYPE [MsgType:_AK, Tag:_650]|10=018|
8=FIX.4.4|9=98|35=AG|49=TESTI|56=TESTA|34=4|52=20030204-08:46:14|131=0001|658=0|146=2|55=TESTA|55=TESTB|10=033|
8=FIX.4.4|9=98|35=AG|49=TESTI|56=TESTA|34=4|52=20030204-08:46:14|131=0001|658=-1|146=2|55=TESTA|55=TESTB|10=033|
8=FIX.4.4|9=98|35=AG|49=TESTI|56=TESTA|34=4|52=20030204-08:46:14|131=0001|658=A|146=2|55=TESTA|55=TESTB|10=033|
8=FIX.4.4|9=98|35=AG|49=TESTI|56=TESTA|34=4|52=20030204-08:46:14|131=0001|658=b|146=2|55=TESTA|55=TESTB|10=033|
8=FIX.4.4|9=140|35=1|34=104|49=SNDR|56=TRGT|52=20090407-09:48:19.812|112= TEST #145 CHECK 4 REJECT MSGS with INVALID MESSAGE - INCORRECT DATA TYPE [MsgType:_AG, Tag:_658]|10=018|
8=FIX.4.4|9=229|35=AM|49=TESTI|56=TESTA|34=4|52=20030204-08:46:14|721=0001|709=1|712=1|722=0|715=20060217|1=KTierney|660=0|581=1|55=TESTA|60=20060217-10:00:00|702=2|703=TQ|703=IAS|753=2|707=FMTM|708=10|707=PREM|708=20|713=00000001-1234|10=129|
8=FIX.4.4|9=229|35=AM|49=TESTI|56=TESTA|34=4|52=20030204-08:46:14|721=0001|709=1|712=1|722=0|715=20060217|1=KTierney|660=-1|581=1|55=TESTA|60=20060217-10:00:00|702=2|703=TQ|703=IAS|753=2|707=FMTM|708=10|707=PREM|708=20|713=00000001-1234|10=129|
8=FIX.4.4|9=229|35=AM|49=TESTI|56=TESTA|34=4|52=20030204-08:46:14|721=0001|709=1|712=1|722=0|715=20060217|1=KTierney|660=A|581=1|55=TESTA|60=20060217-10:00:00|702=2|703=TQ|703=IAS|753=2|707=FMTM|708=10|707=PREM|708=20|713=00000001-1234|10=129|
8=FIX.4.4|9=229|35=AM|49=TESTI|56=TESTA|34=4|52=20030204-08:46:14|721=0001|709=1|712=1|722=0|715=20060217|1=KTierney|660=b|581=1|55=TESTA|60=20060217-10:00:00|702=2|703=TQ|703=IAS|753=2|707=FMTM|708=10|707=PREM|708=20|713=00000001-1234|10=129|
8=FIX.4.4|9=140|35=1|34=104|49=SNDR|56=TRGT|52=20090407-09:48:19.812|112= TEST #146 CHECK 4 REJECT MSGS with INVALID MESSAGE - INCORRECT DATA TYPE [MsgType:_AM, Tag:_660]|10=018|
8=FIX.4.4|9=245|35=AK|49=TESTI|56=TESTA|34=4|52=20030204-08:46:14|664=0001|666=0|773=1|665=0|60=20060217-10:00:00|75=20060217|711=1|311=TST311|555=1|600=TST600|55=TESTA|80=1000|54=1|862=2|528=A|863=400|528=P|863=600|79=KTierney|6=20|381=20000|118=2000|10=236|
8=FIX.4.4|9=245|35=AK|49=TESTI|56=TESTA|34=4|52=20030204-08:46:14|664=0001|666=0|773=1|665=-1|60=20060217-10:00:00|75=20060217|711=1|311=TST311|555=1|600=TST600|55=TESTA|80=1000|54=1|862=2|528=A|863=400|528=P|863=600|79=KTierney|6=20|381=20000|118=2000|10=236|
8=FIX.4.4|9=245|35=AK|49=TESTI|56=TESTA|34=4|52=20030204-08:46:14|664=0001|666=0|773=1|665=A|60=20060217-10:00:00|75=20060217|711=1|311=TST311|555=1|600=TST600|55=TESTA|80=1000|54=1|862=2|528=A|863=400|528=P|863=600|79=KTierney|6=20|381=20000|118=2000|10=236|
8=FIX.4.4|9=245|35=AK|49=TESTI|56=TESTA|34=4|52=20030204-08:46:14|664=0001|666=0|773=1|665=b|60=20060217-10:00:00|75=20060217|711=1|311=TST311|555=1|600=TST600|55=TESTA|80=1000|54=1|862=2|528=A|863=400|528=P|863=600|79=KTierney|6=20|381=20000|118=2000|10=236|
8=FIX.4.4|9=140|35=1|34=104|49=SNDR|56=TRGT|52=20090407-09:48:19.812|112= TEST #147 CHECK 4 REJECT MSGS with INVALID MESSAGE - INCORRECT DATA TYPE [MsgType:_AK, Tag:_665]|10=018|
8=FIX.4.4|9=245|35=AK|49=TESTI|56=TESTA|34=4|52=20030204-08:46:14|664=0001|666=-1|773=1|665=4|60=20060217-10:00:00|75=20060217|711=1|311=TST311|555=1|600=TST600|55=TESTA|80=1000|54=1|862=2|528=A|863=400|528=P|863=600|79=KTierney|6=20|381=20000|118=2000|10=239|
8=FIX.4.4|9=245|35=AK|49=TESTI|56=TESTA|34=4|52=20030204-08:46:14|664=0001|666=3|773=1|665=4|60=20060217-10:00:00|75=20060217|711=1|311=TST311|555=1|600=TST600|55=TESTA|80=1000|54=1|862=2|528=A|863=400|528=P|863=600|79=KTierney|6=20|381=20000|118=2000|10=239|
8=FIX.4.4|9=245|35=AK|49=TESTI|56=TESTA|34=4|52=20030204-08:46:14|664=0001|666=A|773=1|665=4|60=20060217-10:00:00|75=20060217|711=1|311=TST311|555=1|600=TST600|55=TESTA|80=1000|54=1|862=2|528=A|863=400|528=P|863=600|79=KTierney|6=20|381=20000|118=2000|10=239|
8=FIX.4.4|9=245|35=AK|49=TESTI|56=TESTA|34=4|52=20030204-08:46:14|664=0001|666=b|773=1|665=4|60=20060217-10:00:00|75=20060217|711=1|311=TST311|555=1|600=TST600|55=TESTA|80=1000|54=1|862=2|528=A|863=400|528=P|863=600|79=KTierney|6=20|381=20000|118=2000|10=239|
8=FIX.4.4|9=140|35=1|34=104|49=SNDR|56=TRGT|52=20090407-09:48:19.812|112= TEST #148 CHECK 4 REJECT MSGS with INVALID MESSAGE - INCORRECT DATA TYPE [MsgType:_AK, Tag:_666]|10=018|
8=FIX.4.4|9=71|35=c|49=TESTI|56=TESTA|34=14|52=20030204-09:25:43|320=0001|321=0|668=0|10=036|
8=FIX.4.4|9=71|35=c|49=TESTI|56=TESTA|34=14|52=20030204-09:25:43|320=0001|321=0|668=-1|10=036|
8=FIX.4.4|9=71|35=c|49=TESTI|56=TESTA|34=14|52=20030204-09:25:43|320=0001|321=0|668=A|10=036|
8=FIX.4.4|9=71|35=c|49=TESTI|56=TESTA|34=14|52=20030204-09:25:43|320=0001|321=0|668=b|10=036|
8=FIX.4.4|9=140|35=1|34=104|49=SNDR|56=TRGT|52=20090407-09:48:19.812|112= TEST #149 CHECK 4 REJECT MSGS with INVALID MESSAGE - INCORRECT DATA TYPE [MsgType:_c, Tag:_668]|10=018|
8=FIX.4.4|9=153|35=AB|49=TESTI|56=TESTA|34=4|52=20030204-08:46:14|11=90001008|54=1|55=TESTB|555=1|600=TESTA|687=60|690=0|38=4000|40=1|60=20060117-10:00:00|10=112|
8=FIX.4.4|9=153|35=AB|49=TESTI|56=TESTA|34=4|52=20030204-08:46:14|11=90001008|54=1|55=TESTB|555=1|600=TESTA|687=60|690=-1|38=4000|40=1|60=20060117-10:00:00|10=112|
8=FIX.4.4|9=153|35=AB|49=TESTI|56=TESTA|34=4|52=20030204-08:46:14|11=90001008|54=1|55=TESTB|555=1|600=TESTA|687=60|690=3|38=4000|40=1|60=20060117-10:00:00|10=112|
8=FIX.4.4|9=153|35=AB|49=TESTI|56=TESTA|34=4|52=20030204-08:46:14|11=90001008|54=1|55=TESTB|555=1|600=TESTA|687=60|690=A|38=4000|40=1|60=20060117-10:00:00|10=112|
8=FIX.4.4|9=140|35=1|34=104|49=SNDR|56=TRGT|52=20090407-09:48:19.812|112= TEST #150 CHECK 4 REJECT MSGS with INVALID MESSAGE - INCORRECT DATA TYPE [MsgType:_AB, Tag:_690]|10=018|
8=FIX.4.4|9=97|35=R|49=TESTI|56=TESTA|34=8|52=20030204-09:25:21|131=1272727|146=2|55=TESTA|692=1|55=TESTB|692=0|10=004|
8=FIX.4.4|9=97|35=R|49=TESTI|56=TESTA|34=8|52=20030204-09:25:21|131=1272727|146=2|55=TESTA|692=1|55=TESTB|692=-1|10=004|
8=FIX.4.4|9=97|35=R|49=TESTI|56=TESTA|34=8|52=20030204-09:25:21|131=1272727|146=2|55=TESTA|692=1|55=TESTB|692=A|10=004|
8=FIX.4.4|9=97|35=R|49=TESTI|56=TESTA|34=8|52=20030204-09:25:21|131=1272727|146=2|55=TESTA|692=1|55=TESTB|692=b|10=004|
8=FIX.4.4|9=140|35=1|34=104|49=SNDR|56=TRGT|52=20090407-09:48:19.812|112= TEST #151 CHECK 4 REJECT MSGS with INVALID MESSAGE - INCORRECT DATA TYPE [MsgType:_R, Tag:_692]|10=018|
8=FIX.4.4|9=101|35=AJ|49=TESTI|56=TESTA|34=4|52=20030204-08:46:14|693=0001|117=9001|694=0|55=IBM|132=10.5|10=194|
8=FIX.4.4|9=101|35=AJ|49=TESTI|56=TESTA|34=4|52=20030204-08:46:14|693=0001|117=9001|694=-1|55=IBM|132=10.5|10=194|
8=FIX.4.4|9=101|35=AJ|49=TESTI|56=TESTA|34=4|52=20030204-08:46:14|693=0001|117=9001|694=A|55=IBM|132=10.5|10=194|
8=FIX.4.4|9=101|35=AJ|49=TESTI|56=TESTA|34=4|52=20030204-08:46:14|693=0001|117=9001|694=b|55=IBM|132=10.5|10=194|
8=FIX.4.4|9=140|35=1|34=104|49=SNDR|56=TRGT|52=20090407-09:48:19.812|112= TEST #152 CHECK 4 REJECT MSGS with INVALID MESSAGE - INCORRECT DATA TYPE [MsgType:_AJ, Tag:_694]|10=018|
