8=FIX.4.4|9=161|35=E|49=TESTI|56=TESTA|34=3|52=20030204-08:18:22|66=20012411|394=3|68=1|73=2|11=1131|67=1|55=TESTB3|54=3|401=2|38=3000|11=1132|67=2|55=TESTB2|54=1|401=0|38=1000|10=036|
8=FIX.4.4|9=161|35=E|49=TESTI|56=TESTA|34=3|52=20030204-08:18:22|66=20012411|394=3|68=1|73=2|11=1131|67=1|55=TESTB3|54=3|401=2|38=3000|11=1132|67=2|55=TESTB2|54=1|401=-1|38=1000|10=036|
8=FIX.4.4|9=161|35=E|49=TESTI|56=TESTA|34=3|52=20030204-08:18:22|66=20012411|394=3|68=1|73=2|11=1131|67=1|55=TESTB3|54=3|401=2|38=3000|11=1132|67=2|55=TESTB2|54=1|401=A|38=1000|10=036|
8=FIX.4.4|9=161|35=E|49=TESTI|56=TESTA|34=3|52=20030204-08:18:22|66=20012411|394=3|68=1|73=2|11=1131|67=1|55=TESTB3|54=3|401=2|38=3000|11=1132|67=2|55=TESTB2|54=1|401=b|38=1000|10=036|
8=FIX.4.4|9=140|35=1|34=104|49=SNDR|56=TRGT|52=20090407-09:48:19.812|112= TEST #083 CHECK 4 REJECT MSGS with INVALID MESSAGE - INCORRECT DATA TYPE [MsgType:_E, Tag:_401]|10=018|
8=FIX.4.4|9=98|35=k|49=TESTI|56=TESTA|34=6|52=20030204-09:07:50|391=20012411|374=N|393=2|394=3|409=0|418=A|419=4|10=068|
8=FIX.4.4|9=98|35=k|49=TESTI|56=TESTA|34=6|52=20030204-09:07:50|391=20012411|374=N|393=2|394=3|409=-1|418=A|419=4|10=068|
8=FIX.4.4|9=98|35=k|49=TESTI|56=TESTA|34=6|52=20030204-09:07:50|391=20012411|374=N|393=2|394=3|409=A|418=A|419=4|10=068|
8=FIX.4.4|9=98|35=k|49=TESTI|56=TESTA|34=6|52=20030204-09:07:50|391=20012411|374=N|393=2|394=3|409=b|418=A|419=4|10=068|
8=FIX.4.4|9=140|35=1|34=104|49=SNDR|56=TRGT|52=20090407-09:48:19.812|112= TEST #084 CHECK 4 REJECT MSGS with INVALID MESSAGE - INCORRECT DATA TYPE [MsgType:_k, Tag:_409]|10=018|
8=FIX.4.4|9=98|35=k|49=TESTI|56=TESTA|34=6|52=20030204-09:07:50|391=20012411|374=N|393=2|394=3|411=y|418=A|419=4|10=087|
8=FIX.4.4|9=98|35=k|49=TESTI|56=TESTA|34=6|52=20030204-09:07:50|391=20012411|374=N|393=2|394=3|411=n|418=A|419=4|10=087|
8=FIX.4.4|9=98|35=k|49=TESTI|56=TESTA|34=6|52=20030204-09:07:50|391=20012411|374=N|393=2|394=3|411=0|418=A|419=4|10=087|
8=FIX.4.4|9=98|35=k|49=TESTI|56=TESTA|34=6|52=20030204-09:07:50|391=20012411|374=N|393=2|394=3|411=-1|418=A|419=4|10=087|
8=FIX.4.4|9=140|35=1|34=104|49=SNDR|56=TRGT|52=20090407-09:48:19.812|112= TEST #085 CHECK 4 REJECT MSGS with INVALID MESSAGE - INCORRECT DATA TYPE [MsgType:_k, Tag:_411]|10=018|
8=FIX.4.4|9=155|35=E|49=TESTI|56=TESTA|34=3|52=20030204-08:18:22|66=20012411|414=0|394=3|68=1|73=2|11=1131|67=1|55=TESTB3|54=3|38=3000|11=1132|67=2|55=TESTB2|54=1|38=1000|10=038|
8=FIX.4.4|9=155|35=E|49=TESTI|56=TESTA|34=3|52=20030204-08:18:22|66=20012411|414=-1|394=3|68=1|73=2|11=1131|67=1|55=TESTB3|54=3|38=3000|11=1132|67=2|55=TESTB2|54=1|38=1000|10=038|
8=FIX.4.4|9=155|35=E|49=TESTI|56=TESTA|34=3|52=20030204-08:18:22|66=20012411|414=A|394=3|68=1|73=2|11=1131|67=1|55=TESTB3|54=3|38=3000|11=1132|67=2|55=TESTB2|54=1|38=1000|10=038|
8=FIX.4.4|9=155|35=E|49=TESTI|56=TESTA|34=3|52=20030204-08:18:22|66=20012411|414=b|394=3|68=1|73=2|11=1131|67=1|55=TESTB3|54=3|38=3000|11=1132|67=2|55=TESTB2|54=1|38=1000|10=038|
8=FIX.4.4|9=140|35=1|34=104|49=SNDR|56=TRGT|52=20090407-09:48:19.812|112= TEST #086 CHECK 4 REJECT MSGS with INVALID MESSAGE - INCORRECT DATA TYPE [MsgType:_E, Tag:_414]|10=018|
8=FIX.4.4|9=98|35=k|49=TESTI|56=TESTA|34=6|52=20030204-09:07:50|391=20012411|374=N|393=2|394=3|416=0|418=A|419=4|10=063|
8=FIX.4.4|9=98|35=k|49=TESTI|56=TESTA|34=6|52=20030204-09:07:50|391=20012411|374=N|393=2|394=3|416=-1|418=A|419=4|10=063|
8=FIX.4.4|9=98|35=k|49=TESTI|56=TESTA|34=6|52=20030204-09:07:50|391=20012411|374=N|393=2|394=3|416=A|418=A|419=4|10=063|
8=FIX.4.4|9=98|35=k|49=TESTI|56=TESTA|34=6|52=20030204-09:07:50|391=20012411|374=N|393=2|394=3|416=b|418=A|419=4|10=063|
8=FIX.4.4|9=140|35=1|34=104|49=SNDR|56=TRGT|52=20090407-09:48:19.812|112= TEST #087 CHECK 4 REJECT MSGS with INVALID MESSAGE - INCORRECT DATA TYPE [MsgType:_k, Tag:_416]|10=018|
8=FIX.4.4|9=92|35=k|49=TESTI|56=TESTA|34=6|52=20030204-09:07:50|391=20012411|374=N|393=2|394=3|418=a|419=4|10=047|
8=FIX.4.4|9=92|35=k|49=TESTI|56=TESTA|34=6|52=20030204-09:07:50|391=20012411|374=N|393=2|394=3|418=r|419=4|10=047|
8=FIX.4.4|9=92|35=k|49=TESTI|56=TESTA|34=6|52=20030204-09:07:50|391=20012411|374=N|393=2|394=3|418=0|419=4|10=047|
8=FIX.4.4|9=92|35=k|49=TESTI|56=TESTA|34=6|52=20030204-09:07:50|391=20012411|374=N|393=2|394=3|418=-1|419=4|10=047|
8=FIX.4.4|9=140|35=1|34=104|49=SNDR|56=TRGT|52=20090407-09:48:19.812|112= TEST #088 CHECK 4 REJECT MSGS with INVALID MESSAGE - INCORRECT DATA TYPE [MsgType:_k, Tag:_418]|10=018|
8=FIX.4.4|9=92|35=k|49=TESTI|56=TESTA|34=6|52=20030204-09:07:50|391=20012411|374=N|393=2|394=3|418=A|419=0|10=045|
8=FIX.4.4|9=92|35=k|49=TESTI|56=TESTA|34=6|52=20030204-09:07:50|391=20012411|374=N|393=2|394=3|418=A|419=-1|10=045|
8=FIX.4.4|9=92|35=k|49=TESTI|56=TESTA|34=6|52=20030204-09:07:50|391=20012411|374=N|393=2|394=3|418=A|419=a|10=045|
8=FIX.4.4|9=92|35=k|49=TESTI|56=TESTA|34=6|52=20030204-09:07:50|391=20012411|374=N|393=2|394=3|418=A|419=b|10=045|
8=FIX.4.4|9=140|35=1|34=104|49=SNDR|56=TRGT|52=20090407-09:48:19.812|112= TEST #089 CHECK 4 REJECT MSGS with INVALID MESSAGE - INCORRECT DATA TYPE [MsgType:_k, Tag:_419]|10=018|
8=FIX.4.4|9=95|35=AG|49=TESTI|56=TESTA|34=4|52=20030204-08:46:14|131=0001|658=1|146=1|55=TESTA|423=0|10=253|
8=FIX.4.4|9=95|35=AG|49=TESTI|56=TESTA|34=4|52=20030204-08:46:14|131=0001|658=1|146=1|55=TESTA|423=-1|10=253|
8=FIX.4.4|9=95|35=AG|49=TESTI|56=TESTA|34=4|52=20030204-08:46:14|131=0001|658=1|146=1|55=TESTA|423=A|10=253|
8=FIX.4.4|9=95|35=AG|49=TESTI|56=TESTA|34=4|52=20030204-08:46:14|131=0001|658=1|146=1|55=TESTA|423=b|10=253|
8=FIX.4.4|9=140|35=1|34=104|49=SNDR|56=TRGT|52=20090407-09:48:19.812|112= TEST #090 CHECK 4 REJECT MSGS with INVALID MESSAGE - INCORRECT DATA TYPE [MsgType:_AG, Tag:_423]|10=018|
8=FIX.4.4|9=161|35=E|49=TESTI|56=TESTA|34=3|52=20030204-08:18:22|66=20012411|394=3|68=1|73=2|11=1131|67=1|427=-1|55=TESTB3|54=3|38=3000|11=1132|67=2|427=2|55=TESTB2|54=1|38=1000|10=051|
8=FIX.4.4|9=161|35=E|49=TESTI|56=TESTA|34=3|52=20030204-08:18:22|66=20012411|394=3|68=1|73=2|11=1131|67=1|427=3|55=TESTB3|54=3|38=3000|11=1132|67=2|427=2|55=TESTB2|54=1|38=1000|10=051|
8=FIX.4.4|9=161|35=E|49=TESTI|56=TESTA|34=3|52=20030204-08:18:22|66=20012411|394=3|68=1|73=2|11=1131|67=1|427=A|55=TESTB3|54=3|38=3000|11=1132|67=2|427=2|55=TESTB2|54=1|38=1000|10=051|
8=FIX.4.4|9=161|35=E|49=TESTI|56=TESTA|34=3|52=20030204-08:18:22|66=20012411|394=3|68=1|73=2|11=1131|67=1|427=b|55=TESTB3|54=3|38=3000|11=1132|67=2|427=2|55=TESTB2|54=1|38=1000|10=051|
8=FIX.4.4|9=140|35=1|34=104|49=SNDR|56=TRGT|52=20090407-09:48:19.812|112= TEST #091 CHECK 4 REJECT MSGS with INVALID MESSAGE - INCORRECT DATA TYPE [MsgType:_E, Tag:_427]|10=018|
8=FIX.4.4|9=219|35=N|49=TESTI|56=TESTA|34=15|52=20030204-09:08:23|66=20012411|429=0|82=3|431=3|83=1|68=5|73=3|11=1111|14=11|39=1|151=89|84=0|6=12|11=1121|14=1000|39=1|151=500|84=1000|6=2.28|11=1131|14=2500|39=1|151=500|84=1500|6=34.11|10=055|
8=FIX.4.4|9=219|35=N|49=TESTI|56=TESTA|34=15|52=20030204-09:08:23|66=20012411|429=-1|82=3|431=3|83=1|68=5|73=3|11=1111|14=11|39=1|151=89|84=0|6=12|11=1121|14=1000|39=1|151=500|84=1000|6=2.28|11=1131|14=2500|39=1|151=500|84=1500|6=34.11|10=055|
8=FIX.4.4|9=219|35=N|49=TESTI|56=TESTA|34=15|52=20030204-09:08:23|66=20012411|429=A|82=3|431=3|83=1|68=5|73=3|11=1111|14=11|39=1|151=89|84=0|6=12|11=1121|14=1000|39=1|151=500|84=1000|6=2.28|11=1131|14=2500|39=1|151=500|84=1500|6=34.11|10=055|
8=FIX.4.4|9=219|35=N|49=TESTI|56=TESTA|34=15|52=20030204-09:08:23|66=20012411|429=b|82=3|431=3|83=1|68=5|73=3|11=1111|14=11|39=1|151=89|84=0|6=12|11=1121|14=1000|39=1|151=500|84=1000|6=2.28|11=1131|14=2500|39=1|151=500|84=1500|6=34.11|10=055|
8=FIX.4.4|9=140|35=1|34=104|49=SNDR|56=TRGT|52=20090407-09:48:19.812|112= TEST #092 CHECK 4 REJECT MSGS with INVALID MESSAGE - INCORRECT DATA TYPE [MsgType:_N, Tag:_429]|10=018|
8=FIX.4.4|9=90|35=l|49=TESTI|56=TESTA|34=6|52=20030204-09:07:50|420=2|12=5|13=1|430=1|12=0.07|13=2|430=0|10=072|
8=FIX.4.4|9=90|35=l|49=TESTI|56=TESTA|34=6|52=20030204-09:07:50|420=2|12=5|13=1|430=1|12=0.07|13=2|430=-1|10=072|
8=FIX.4.4|9=90|35=l|49=TESTI|56=TESTA|34=6|52=20030204-09:07:50|420=2|12=5|13=1|430=1|12=0.07|13=2|430=A|10=072|
8=FIX.4.4|9=90|35=l|49=TESTI|56=TESTA|34=6|52=20030204-09:07:50|420=2|12=5|13=1|430=1|12=0.07|13=2|430=b|10=072|
8=FIX.4.4|9=140|35=1|34=104|49=SNDR|56=TRGT|52=20090407-09:48:19.812|112= TEST #093 CHECK 4 REJECT MSGS with INVALID MESSAGE - INCORRECT DATA TYPE [MsgType:l, Tag:_430]|10=018|
8=FIX.4.4|9=219|35=N|49=TESTI|56=TESTA|34=15|52=20030204-09:08:23|66=20012411|429=1|82=3|431=0|83=1|68=5|73=3|11=1111|14=11|39=1|151=89|84=0|6=12|11=1121|14=1000|39=1|151=500|84=1000|6=2.28|11=1131|14=2500|39=1|151=500|84=1500|6=34.11|10=053|
8=FIX.4.4|9=219|35=N|49=TESTI|56=TESTA|34=15|52=20030204-09:08:23|66=20012411|429=1|82=3|431=-1|83=1|68=5|73=3|11=1111|14=11|39=1|151=89|84=0|6=12|11=1121|14=1000|39=1|151=500|84=1000|6=2.28|11=1131|14=2500|39=1|151=500|84=1500|6=34.11|10=053|
8=FIX.4.4|9=219|35=N|49=TESTI|56=TESTA|34=15|52=20030204-09:08:23|66=20012411|429=1|82=3|431=A|83=1|68=5|73=3|11=1111|14=11|39=1|151=89|84=0|6=12|11=1121|14=1000|39=1|151=500|84=1000|6=2.28|11=1131|14=2500|39=1|151=500|84=1500|6=34.11|10=053|
8=FIX.4.4|9=219|35=N|49=TESTI|56=TESTA|34=15|52=20030204-09:08:23|66=20012411|429=1|82=3|431=b|83=1|68=5|73=3|11=1111|14=11|39=1|151=89|84=0|6=12|11=1121|14=1000|39=1|151=500|84=1000|6=2.28|11=1131|14=2500|39=1|151=500|84=1500|6=34.11|10=053|
8=FIX.4.4|9=140|35=1|34=104|49=SNDR|56=TRGT|52=20090407-09:48:19.812|112= TEST #094 CHECK 4 REJECT MSGS with INVALID MESSAGE - INCORRECT DATA TYPE [MsgType:_N, Tag:_431]|10=018|
8=FIX.4.4|9=155|35=E|49=TESTI|56=TESTA|34=3|52=20030204-08:18:22|66=20012411|394=3|433=0|68=1|73=2|11=1131|67=1|55=TESTB3|54=3|38=3000|11=1132|67=2|55=TESTB2|54=1|38=1000|10=040|
8=FIX.4.4|9=155|35=E|49=TESTI|56=TESTA|34=3|52=20030204-08:18:22|66=20012411|394=3|433=-1|68=1|73=2|11=1131|67=1|55=TESTB3|54=3|38=3000|11=1132|67=2|55=TESTB2|54=1|38=1000|10=040|
8=FIX.4.4|9=155|35=E|49=TESTI|56=TESTA|34=3|52=20030204-08:18:22|66=20012411|394=3|433=A|68=1|73=2|11=1131|67=1|55=TESTB3|54=3|38=3000|11=1132|67=2|55=TESTB2|54=1|38=1000|10=040|
8=FIX.4.4|9=155|35=E|49=TESTI|56=TESTA|34=3|52=20030204-08:18:22|66=20012411|394=3|433=b|68=1|73=2|11=1131|67=1|55=TESTB3|54=3|38=3000|11=1132|67=2|55=TESTB2|54=1|38=1000|10=040|
8=FIX.4.4|9=140|35=1|34=104|49=SNDR|56=TRGT|52=20090407-09:48:19.812|112= TEST #095 CHECK 4 REJECT MSGS with INVALID MESSAGE - INCORRECT DATA TYPE [MsgType:_E, Tag:_433]|10=018|
8=FIX.4.4|9=102|35=9|49=TESTI|56=TESTA|34=3|52=20030203-16:13:14|37=11111111|11=12121212122|41=11111111111|39=0|434=0|10=211|
8=FIX.4.4|9=102|35=9|49=TESTI|56=TESTA|34=3|52=20030203-16:13:14|37=11111111|11=12121212122|41=11111111111|39=0|434=-1|10=211|
8=FIX.4.4|9=102|35=9|49=TESTI|56=TESTA|34=3|52=20030203-16:13:14|37=11111111|11=12121212122|41=11111111111|39=0|434=A|10=211|
8=FIX.4.4|9=102|35=9|49=TESTI|56=TESTA|34=3|52=20030203-16:13:14|37=11111111|11=12121212122|41=11111111111|39=0|434=b|10=211|
8=FIX.4.4|9=140|35=1|34=104|49=SNDR|56=TRGT|52=20090407-09:48:19.812|112= TEST #096 CHECK 4 REJECT MSGS with INVALID MESSAGE - INCORRECT DATA TYPE [MsgType:_9, Tag:_434]|10=018|
8=FIX.4.4|9=108|35=AQ|49=TESTI|56=TESTA|34=4|52=20030204-08:46:14|568=90001008|569=0|749=0|750=0|55=IBM|442=0|10=128|
8=FIX.4.4|9=108|35=AQ|49=TESTI|56=TESTA|34=4|52=20030204-08:46:14|568=90001008|569=0|749=0|750=0|55=IBM|442=-1|10=128|
8=FIX.4.4|9=108|35=AQ|49=TESTI|56=TESTA|34=4|52=20030204-08:46:14|568=90001008|569=0|749=0|750=0|55=IBM|442=A|10=128|
8=FIX.4.4|9=108|35=AQ|49=TESTI|56=TESTA|34=4|52=20030204-08:46:14|568=90001008|569=0|749=0|750=0|55=IBM|442=b|10=128|
8=FIX.4.4|9=140|35=1|34=104|49=SNDR|56=TRGT|52=20090407-09:48:19.812|112= TEST #097 CHECK 4 REJECT MSGS with INVALID MESSAGE - INCORRECT DATA TYPE [MsgType:_AQ, Tag:_442]|10=018|
8=FIX.4.4|9=152|35=AN|49=TESTI|56=TESTA|34=4|52=20030204-08:46:14|710=0001|724=0|453=1|448=ABNA|447=0|452=4|1=KTierney|581=1|715=20060217|60=20060217-10:00:00|10=015|
8=FIX.4.4|9=152|35=AN|49=TESTI|56=TESTA|34=4|52=20030204-08:46:14|710=0001|724=0|453=1|448=ABNA|447=-1|452=4|1=KTierney|581=1|715=20060217|60=20060217-10:00:00|10=015|
8=FIX.4.4|9=152|35=AN|49=TESTI|56=TESTA|34=4|52=20030204-08:46:14|710=0001|724=0|453=1|448=ABNA|447=a|452=4|1=KTierney|581=1|715=20060217|60=20060217-10:00:00|10=015|
8=FIX.4.4|9=152|35=AN|49=TESTI|56=TESTA|34=4|52=20030204-08:46:14|710=0001|724=0|453=1|448=ABNA|447=b|452=4|1=KTierney|581=1|715=20060217|60=20060217-10:00:00|10=015|
8=FIX.4.4|9=140|35=1|34=104|49=SNDR|56=TRGT|52=20090407-09:48:19.812|112= TEST #098 CHECK 4 REJECT MSGS with INVALID MESSAGE - INCORRECT DATA TYPE [MsgType:_AN, Tag:_447]|10=018|
8=FIX.4.4|9=152|35=AN|49=TESTI|56=TESTA|34=4|52=20030204-08:46:14|710=0001|724=0|453=1|448=ABNA|447=1|452=0|1=KTierney|581=1|715=20060217|60=20060217-10:00:00|10=012|
8=FIX.4.4|9=152|35=AN|49=TESTI|56=TESTA|34=4|52=20030204-08:46:14|710=0001|724=0|453=1|448=ABNA|447=1|452=-1|1=KTierney|581=1|715=20060217|60=20060217-10:00:00|10=012|
8=FIX.4.4|9=152|35=AN|49=TESTI|56=TESTA|34=4|52=20030204-08:46:14|710=0001|724=0|453=1|448=ABNA|447=1|452=A|1=KTierney|581=1|715=20060217|60=20060217-10:00:00|10=012|
8=FIX.4.4|9=152|35=AN|49=TESTI|56=TESTA|34=4|52=20030204-08:46:14|710=0001|724=0|453=1|448=ABNA|447=1|452=b|1=KTierney|581=1|715=20060217|60=20060217-10:00:00|10=012|
8=FIX.4.4|9=140|35=1|34=104|49=SNDR|56=TRGT|52=20090407-09:48:19.812|112= TEST #099 CHECK 4 REJECT MSGS with INVALID MESSAGE - INCORRECT DATA TYPE [MsgType:_AN, Tag:_452]|10=018|
8=FIX.4.4|9=95|35=AV|49=TESTI|56=TESTA|34=4|52=20030204-08:46:14|791=0001|60=20060217-10:00:00|460=0|10=202|
8=FIX.4.4|9=95|35=AV|49=TESTI|56=TESTA|34=4|52=20030204-08:46:14|791=0001|60=20060217-10:00:00|460=-1|10=202|
8=FIX.4.4|9=95|35=AV|49=TESTI|56=TESTA|34=4|52=20030204-08:46:14|791=0001|60=20060217-10:00:00|460=A|10=202|
8=FIX.4.4|9=95|35=AV|49=TESTI|56=TESTA|34=4|52=20030204-08:46:14|791=0001|60=20060217-10:00:00|460=b|10=202|
8=FIX.4.4|9=140|35=1|34=104|49=SNDR|56=TRGT|52=20090407-09:48:19.812|112= TEST #100 CHECK 4 REJECT MSGS with INVALID MESSAGE - INCORRECT DATA TYPE [MsgType:_AV, Tag:_460]|10=018|
8=FIX.4.4|9=101|35=Q|49=TESTI|56=TESTA|34=4|52=20030204-09:28:44|37=01923883|17=11|127=D|55=TESTB|54=1|38=4000|468=-1|10=081|
8=FIX.4.4|9=101|35=Q|49=TESTI|56=TESTA|34=4|52=20030204-09:28:44|37=01923883|17=11|127=D|55=TESTB|54=1|38=4000|468=3|10=081|
8=FIX.4.4|9=101|35=Q|49=TESTI|56=TESTA|34=4|52=20030204-09:28:44|37=01923883|17=11|127=D|55=TESTB|54=1|38=4000|468=A|10=081|
8=FIX.4.4|9=101|35=Q|49=TESTI|56=TESTA|34=4|52=20030204-09:28:44|37=01923883|17=11|127=D|55=TESTB|54=1|38=4000|468=b|10=081|
8=FIX.4.4|9=140|35=1|34=104|49=SNDR|56=TRGT|52=20090407-09:48:19.812|112= TEST #101 CHECK 4 REJECT MSGS with INVALID MESSAGE - INCORRECT DATA TYPE [MsgType:_Q, Tag:_468]|10=018|
8=FIX.4.4|9=82|35=o|49=TESTI|56=TESTA|34=7|52=20030204-09:17:25|513=3659000000|514=0|510=1|477=0|10=070|
8=FIX.4.4|9=82|35=o|49=TESTI|56=TESTA|34=7|52=20030204-09:17:25|513=3659000000|514=0|510=1|477=-1|10=070|
8=FIX.4.4|9=82|35=o|49=TESTI|56=TESTA|34=7|52=20030204-09:17:25|513=3659000000|514=0|510=1|477=A|10=070|
8=FIX.4.4|9=82|35=o|49=TESTI|56=TESTA|34=7|52=20030204-09:17:25|513=3659000000|514=0|510=1|477=b|10=070|
8=FIX.4.4|9=140|35=1|34=104|49=SNDR|56=TRGT|52=20090407-09:48:19.812|112= TEST #102 CHECK 4 REJECT MSGS with INVALID MESSAGE - INCORRECT DATA TYPE [MsgType:_o, Tag:_477]|10=018|
8=FIX.4.4|9=126|35=8|49=TESTI|56=TESTA|34=114|52=20030203-16:09:30|37=11111111|17=11|39=0|150=0|55=TESTB|54=1|38=1000|151=1000|14=0|6=0|480=y|10=097|
8=FIX.4.4|9=126|35=8|49=TESTI|56=TESTA|34=114|52=20030203-16:09:30|37=11111111|17=11|39=0|150=0|55=TESTB|54=1|38=1000|151=1000|14=0|6=0|480=n|10=097|
8=FIX.4.4|9=126|35=8|49=TESTI|56=TESTA|34=114|52=20030203-16:09:30|37=11111111|17=11|39=0|150=0|55=TESTB|54=1|38=1000|151=1000|14=0|6=0|480=0|10=097|
8=FIX.4.4|9=126|35=8|49=TESTI|56=TESTA|34=114|52=20030203-16:09:30|37=11111111|17=11|39=0|150=0|55=TESTB|54=1|38=1000|151=1000|14=0|6=0|480=-1|10=097|
8=FIX.4.4|9=140|35=1|34=104|49=SNDR|56=TRGT|52=20090407-09:48:19.812|112= TEST #103 CHECK 4 REJECT MSGS with INVALID MESSAGE - INCORRECT DATA TYPE [MsgType:_8, Tag:_480]|10=018|
8=FIX.4.4|9=132|35=G|49=TESTI|56=TESTA|34=6|52=20030204-08:49:18|11=12233345|41=90001008|21=2|55=TESTB|54=1|60=20060117-10:00:00|38=4000|40=1|481=y|10=015|
8=FIX.4.4|9=132|35=G|49=TESTI|56=TESTA|34=6|52=20030204-08:49:18|11=12233345|41=90001008|21=2|55=TESTB|54=1|60=20060117-10:00:00|38=4000|40=1|481=n|10=015|
8=FIX.4.4|9=132|35=G|49=TESTI|56=TESTA|34=6|52=20030204-08:49:18|11=12233345|41=90001008|21=2|55=TESTB|54=1|60=20060117-10:00:00|38=4000|40=1|481=0|10=015|
8=FIX.4.4|9=132|35=G|49=TESTI|56=TESTA|34=6|52=20030204-08:49:18|11=12233345|41=90001008|21=2|55=TESTB|54=1|60=20060117-10:00:00|38=4000|40=1|481=-1|10=015|
8=FIX.4.4|9=140|35=1|34=104|49=SNDR|56=TRGT|52=20090407-09:48:19.812|112= TEST #104 CHECK 4 REJECT MSGS with INVALID MESSAGE - INCORRECT DATA TYPE [MsgType:_G, Tag:_481]|10=018|
8=FIX.4.4|9=126|35=8|49=TESTI|56=TESTA|34=114|52=20030203-16:09:30|37=11111111|17=11|39=0|150=0|55=TESTB|54=1|38=1000|151=1000|14=0|6=0|484=A|10=091|
8=FIX.4.4|9=126|35=8|49=TESTI|56=TESTA|34=114|52=20030203-16:09:30|37=11111111|17=11|39=0|150=0|55=TESTB|54=1|38=1000|151=1000|14=0|6=0|484=c|10=091|
8=FIX.4.4|9=126|35=8|49=TESTI|56=TESTA|34=114|52=20030203-16:09:30|37=11111111|17=11|39=0|150=0|55=TESTB|54=1|38=1000|151=1000|14=0|6=0|484=0|10=091|
8=FIX.4.4|9=126|35=8|49=TESTI|56=TESTA|34=114|52=20030203-16:09:30|37=11111111|17=11|39=0|150=0|55=TESTB|54=1|38=1000|151=1000|14=0|6=0|484=-1|10=091|
8=FIX.4.4|9=140|35=1|34=104|49=SNDR|56=TRGT|52=20090407-09:48:19.812|112= TEST #105 CHECK 4 REJECT MSGS with INVALID MESSAGE - INCORRECT DATA TYPE [MsgType:_8, Tag:_484]|10=018|
8=FIX.4.4|9=104|35=AR|49=TESTI|56=TESTA|34=4|52=20030204-08:46:14|571=90001008|487=-1|150=F|751=0|55=TESTB|10=032|
8=FIX.4.4|9=104|35=AR|49=TESTI|56=TESTA|34=4|52=20030204-08:46:14|571=90001008|487=5|150=F|751=0|55=TESTB|10=032|
8=FIX.4.4|9=104|35=AR|49=TESTI|56=TESTA|34=4|52=20030204-08:46:14|571=90001008|487=A|150=F|751=0|55=TESTB|10=032|
8=FIX.4.4|9=104|35=AR|49=TESTI|56=TESTA|34=4|52=20030204-08:46:14|571=90001008|487=b|150=F|751=0|55=TESTB|10=032|
8=FIX.4.4|9=140|35=1|34=104|49=SNDR|56=TRGT|52=20090407-09:48:19.812|112= TEST #106 CHECK 4 REJECT MSGS with INVALID MESSAGE - INCORRECT DATA TYPE [MsgType:_AR, Tag:_487]|10=018|
8=FIX.4.4|9=124|35=T|49=TESTI|56=TESTA|34=14|52=20030204-09:25:43|777=112233|160=5|792=99|60=20060217-10:00:00|778=1|162=000602|163=N|492=0|10=068|
8=FIX.4.4|9=124|35=T|49=TESTI|56=TESTA|34=14|52=20030204-09:25:43|777=112233|160=5|792=99|60=20060217-10:00:00|778=1|162=000602|163=N|492=-1|10=068|
8=FIX.4.4|9=124|35=T|49=TESTI|56=TESTA|34=14|52=20030204-09:25:43|777=112233|160=5|792=99|60=20060217-10:00:00|778=1|162=000602|163=N|492=A|10=068|
8=FIX.4.4|9=124|35=T|49=TESTI|56=TESTA|34=14|52=20030204-09:25:43|777=112233|160=5|792=99|60=20060217-10:00:00|778=1|162=000602|163=N|492=b|10=068|
8=FIX.4.4|9=140|35=1|34=104|49=SNDR|56=TRGT|52=20090407-09:48:19.812|112= TEST #107 CHECK 4 REJECT MSGS with INVALID MESSAGE - INCORRECT DATA TYPE [MsgType:_T, Tag:_492]|10=018|
8=FIX.4.4|9=76|35=o|49=TESTI|56=TESTA|34=7|52=20030204-09:17:25|513=3659000000|514=0|495=-1|10=068|
8=FIX.4.4|9=76|35=o|49=TESTI|56=TESTA|34=7|52=20030204-09:17:25|513=3659000000|514=0|495=30|10=068|
8=FIX.4.4|9=76|35=o|49=TESTI|56=TESTA|34=7|52=20030204-09:17:25|513=3659000000|514=0|495=A|10=068|
8=FIX.4.4|9=76|35=o|49=TESTI|56=TESTA|34=7|52=20030204-09:17:25|513=3659000000|514=0|495=b|10=068|
8=FIX.4.4|9=140|35=1|34=104|49=SNDR|56=TRGT|52=20090407-09:48:19.812|112= TEST #108 CHECK 4 REJECT MSGS with INVALID MESSAGE - INCORRECT DATA TYPE [MsgType:_o, Tag:_495]|10=018|
8=FIX.4.4|9=90|35=l|49=TESTI|56=TESTA|34=6|52=20030204-09:07:50|420=2|12=5|13=1|497=N|12=0.07|13=2|497=y|10=166|
8=FIX.4.4|9=90|35=l|49=TESTI|56=TESTA|34=6|52=20030204-09:07:50|420=2|12=5|13=1|497=N|12=0.07|13=2|497=n|10=166|
8=FIX.4.4|9=90|35=l|49=TESTI|56=TESTA|34=6|52=20030204-09:07:50|420=2|12=5|13=1|497=N|12=0.07|13=2|497=0|10=166|
8=FIX.4.4|9=90|35=l|49=TESTI|56=TESTA|34=6|52=20030204-09:07:50|420=2|12=5|13=1|497=N|12=0.07|13=2|497=-1|10=166|
8=FIX.4.4|9=140|35=1|34=104|49=SNDR|56=TRGT|52=20090407-09:48:19.812|112= TEST #109 CHECK 4 REJECT MSGS with INVALID MESSAGE - INCORRECT DATA TYPE [MsgType:_l, Tag:_497]|10=018|
