8=FIX.4.4|9=237|35=AP|49=TESTI|56=TESTA|34=4|52=20030204-08:46:14|721=0001|728=0|715=20060217|453=1|448=ABNA|447=C|452=4|802=1|523=TST523|803=0|1=KTierney|581=1|730=10.5|731=1|734=10.3|702=2|703=TQ|703=IAS|753=2|707=FMTM|708=10|707=PREM|708=20|10=224|
8=FIX.4.4|9=237|35=AP|49=TESTI|56=TESTA|34=4|52=20030204-08:46:14|721=0001|728=0|715=20060217|453=1|448=ABNA|447=C|452=4|802=1|523=TST523|803=-1|1=KTierney|581=1|730=10.5|731=1|734=10.3|702=2|703=TQ|703=IAS|753=2|707=FMTM|708=10|707=PREM|708=20|10=224|
8=FIX.4.4|9=237|35=AP|49=TESTI|56=TESTA|34=4|52=20030204-08:46:14|721=0001|728=0|715=20060217|453=1|448=ABNA|447=C|452=4|802=1|523=TST523|803=A|1=KTierney|581=1|730=10.5|731=1|734=10.3|702=2|703=TQ|703=IAS|753=2|707=FMTM|708=10|707=PREM|708=20|10=224|
8=FIX.4.4|9=237|35=AP|49=TESTI|56=TESTA|34=4|52=20030204-08:46:14|721=0001|728=0|715=20060217|453=1|448=ABNA|447=C|452=4|802=1|523=TST523|803=b|1=KTierney|581=1|730=10.5|731=1|734=10.3|702=2|703=TQ|703=IAS|753=2|707=FMTM|708=10|707=PREM|708=20|10=224|
8=FIX.4.4|9=140|35=1|34=104|49=SNDR|56=TRGT|52=20090407-09:48:19.812|112= TEST #183 CHECK 4 REJECT MSGS with INVALID MESSAGE - INCORRECT DATA TYPE [MsgType:_AP, Tag:_803]|10=018|
8=FIX.4.4|9=101|35=P|49=TESTI|56=TESTA|34=7|52=20030204-09:17:25|70=3659000001|60=20060108-10:00:53|87=0|808=0|573=0|10=248|
8=FIX.4.4|9=101|35=P|49=TESTI|56=TESTA|34=7|52=20030204-09:17:25|70=3659000001|60=20060108-10:00:53|87=0|808=-1|573=0|10=248|
8=FIX.4.4|9=101|35=P|49=TESTI|56=TESTA|34=7|52=20030204-09:17:25|70=3659000001|60=20060108-10:00:53|87=0|808=A|573=0|10=248|
8=FIX.4.4|9=101|35=P|49=TESTI|56=TESTA|34=7|52=20030204-09:17:25|70=3659000001|60=20060108-10:00:53|87=0|808=b|573=0|10=248|
8=FIX.4.4|9=140|35=1|34=104|49=SNDR|56=TRGT|52=20090407-09:48:19.812|112= TEST #184 CHECK 4 REJECT MSGS with INVALID MESSAGE - INCORRECT DATA TYPE [MsgType:_P, Tag:_808]|10=018|
8=FIX.4.4|9=106|35=X|49=TESTI|56=TESTA|34=14|52=20030204-09:25:43|268=2|279=1|280=0001|270=10|279=1|280=0002|270=11|814=-1|10=126|
8=FIX.4.4|9=106|35=X|49=TESTI|56=TESTA|34=14|52=20030204-09:25:43|268=2|279=1|280=0001|270=10|279=1|280=0002|270=11|814=4|10=126|
8=FIX.4.4|9=106|35=X|49=TESTI|56=TESTA|34=14|52=20030204-09:25:43|268=2|279=1|280=0001|270=10|279=1|280=0002|270=11|814=A|10=126|
8=FIX.4.4|9=106|35=X|49=TESTI|56=TESTA|34=14|52=20030204-09:25:43|268=2|279=1|280=0001|270=10|279=1|280=0002|270=11|814=b|10=126|
8=FIX.4.4|9=140|35=1|34=104|49=SNDR|56=TRGT|52=20090407-09:48:19.812|112= TEST #185 CHECK 4 REJECT MSGS with INVALID MESSAGE - INCORRECT DATA TYPE [MsgType:_X, Tag:_814]|10=018|
8=FIX.4.4|9=120|35=V|49=TESTI|56=TESTA|34=14|52=20030204-09:25:43|262=11223|263=0|264=0|267=2|269=0|269=1|146=2|55=TESTA|55=TESTB|815=-1|10=019|
8=FIX.4.4|9=120|35=V|49=TESTI|56=TESTA|34=14|52=20030204-09:25:43|262=11223|263=0|264=0|267=2|269=0|269=1|146=2|55=TESTA|55=TESTB|815=4|10=019|
8=FIX.4.4|9=120|35=V|49=TESTI|56=TESTA|34=14|52=20030204-09:25:43|262=11223|263=0|264=0|267=2|269=0|269=1|146=2|55=TESTA|55=TESTB|815=A|10=019|
8=FIX.4.4|9=120|35=V|49=TESTI|56=TESTA|34=14|52=20030204-09:25:43|262=11223|263=0|264=0|267=2|269=0|269=1|146=2|55=TESTA|55=TESTB|815=b|10=019|
8=FIX.4.4|9=140|35=1|34=104|49=SNDR|56=TRGT|52=20090407-09:48:19.812|112= TEST #186 CHECK 4 REJECT MSGS with INVALID MESSAGE - INCORRECT DATA TYPE [MsgType:_V, Tag:_815]|10=018|
8=FIX.4.4|9=185|35=AE|49=TESTI|56=TESTA|34=4|52=20030204-08:46:14|571=90001008|150=F|570=N|55=TESTA|32=1000|31=10.4|75=20060217|819=-1|60=20060217-10:00:00|552=2|54=1|37=0001|54=2|37=0002|10=196|
8=FIX.4.4|9=185|35=AE|49=TESTI|56=TESTA|34=4|52=20030204-08:46:14|571=90001008|150=F|570=N|55=TESTA|32=1000|31=10.4|75=20060217|819=3|60=20060217-10:00:00|552=2|54=1|37=0001|54=2|37=0002|10=196|
8=FIX.4.4|9=185|35=AE|49=TESTI|56=TESTA|34=4|52=20030204-08:46:14|571=90001008|150=F|570=N|55=TESTA|32=1000|31=10.4|75=20060217|819=A|60=20060217-10:00:00|552=2|54=1|37=0001|54=2|37=0002|10=196|
8=FIX.4.4|9=185|35=AE|49=TESTI|56=TESTA|34=4|52=20030204-08:46:14|571=90001008|150=F|570=N|55=TESTA|32=1000|31=10.4|75=20060217|819=b|60=20060217-10:00:00|552=2|54=1|37=0001|54=2|37=0002|10=196|
8=FIX.4.4|9=140|35=1|34=104|49=SNDR|56=TRGT|52=20090407-09:48:19.812|112= TEST #187 CHECK 4 REJECT MSGS with INVALID MESSAGE - INCORRECT DATA TYPE [MsgType:_AE, Tag:_819]|10=018|
8=FIX.4.4|9=191|35=AE|49=TESTI|56=TESTA|34=4|52=20030204-08:46:14|571=90001008|150=F|570=N|55=TESTA|32=1000|31=10.4|75=20060217|60=20060217-10:00:00|552=2|54=1|37=0001|826=0|54=2|37=0002|826=-1|10=206|
8=FIX.4.4|9=191|35=AE|49=TESTI|56=TESTA|34=4|52=20030204-08:46:14|571=90001008|150=F|570=N|55=TESTA|32=1000|31=10.4|75=20060217|60=20060217-10:00:00|552=2|54=1|37=0001|826=0|54=2|37=0002|826=3|10=206|
8=FIX.4.4|9=191|35=AE|49=TESTI|56=TESTA|34=4|52=20030204-08:46:14|571=90001008|150=F|570=N|55=TESTA|32=1000|31=10.4|75=20060217|60=20060217-10:00:00|552=2|54=1|37=0001|826=0|54=2|37=0002|826=A|10=206|
8=FIX.4.4|9=191|35=AE|49=TESTI|56=TESTA|34=4|52=20030204-08:46:14|571=90001008|150=F|570=N|55=TESTA|32=1000|31=10.4|75=20060217|60=20060217-10:00:00|552=2|54=1|37=0001|826=0|54=2|37=0002|826=b|10=206|
8=FIX.4.4|9=140|35=1|34=104|49=SNDR|56=TRGT|52=20090407-09:48:19.812|112= TEST #188 CHECK 4 REJECT MSGS with INVALID MESSAGE - INCORRECT DATA TYPE [MsgType:_AE, Tag:_826]|10=018|
8=FIX.4.4|9=71|35=c|49=TESTI|56=TESTA|34=14|52=20030204-09:25:43|320=0001|321=0|827=-1|10=032|
8=FIX.4.4|9=71|35=c|49=TESTI|56=TESTA|34=14|52=20030204-09:25:43|320=0001|321=0|827=2|10=032|
8=FIX.4.4|9=71|35=c|49=TESTI|56=TESTA|34=14|52=20030204-09:25:43|320=0001|321=0|827=A|10=032|
8=FIX.4.4|9=71|35=c|49=TESTI|56=TESTA|34=14|52=20030204-09:25:43|320=0001|321=0|827=b|10=032|
8=FIX.4.4|9=140|35=1|34=104|49=SNDR|56=TRGT|52=20090407-09:48:19.812|112= TEST #189 CHECK 4 REJECT MSGS with INVALID MESSAGE - INCORRECT DATA TYPE [MsgType:_c, Tag:_827]|10=018|
8=FIX.4.4|9=89|35=AD|49=TESTI|56=TESTA|34=4|52=20030204-08:46:14|568=90001008|569=0|828=-1|10=182|
8=FIX.4.4|9=89|35=AD|49=TESTI|56=TESTA|34=4|52=20030204-08:46:14|568=90001008|569=0|828=11|10=182|
8=FIX.4.4|9=89|35=AD|49=TESTI|56=TESTA|34=4|52=20030204-08:46:14|568=90001008|569=0|828=A|10=182|
8=FIX.4.4|9=89|35=AD|49=TESTI|56=TESTA|34=4|52=20030204-08:46:14|568=90001008|569=0|828=b|10=182|
8=FIX.4.4|9=140|35=1|34=104|49=SNDR|56=TRGT|52=20090407-09:48:19.812|112= TEST #190 CHECK 4 REJECT MSGS with INVALID MESSAGE - INCORRECT DATA TYPE [MsgType:_AD, Tag:_828]|10=018|
8=FIX.4.4|9=142|35=G|49=TESTI|56=TESTA|34=6|52=20030204-08:49:18|11=12233345|41=90001008|21=2|55=TESTB|54=1|60=20060117-10:00:00|38=4000|40=1|211=0.211|835=-1|10=174|
8=FIX.4.4|9=142|35=G|49=TESTI|56=TESTA|34=6|52=20030204-08:49:18|11=12233345|41=90001008|21=2|55=TESTB|54=1|60=20060117-10:00:00|38=4000|40=1|211=0.211|835=2|10=174|
8=FIX.4.4|9=142|35=G|49=TESTI|56=TESTA|34=6|52=20030204-08:49:18|11=12233345|41=90001008|21=2|55=TESTB|54=1|60=20060117-10:00:00|38=4000|40=1|211=0.211|835=A|10=174|
8=FIX.4.4|9=142|35=G|49=TESTI|56=TESTA|34=6|52=20030204-08:49:18|11=12233345|41=90001008|21=2|55=TESTB|54=1|60=20060117-10:00:00|38=4000|40=1|211=0.211|835=b|10=174|
8=FIX.4.4|9=140|35=1|34=104|49=SNDR|56=TRGT|52=20090407-09:48:19.812|112= TEST #191 CHECK 4 REJECT MSGS with INVALID MESSAGE - INCORRECT DATA TYPE [MsgType:_G, Tag:_835]|10=018|
8=FIX.4.4|9=148|35=G|49=TESTI|56=TESTA|34=6|52=20030204-08:49:18|11=12233345|41=90001008|21=2|55=TESTB|54=1|60=20060117-10:00:00|38=4000|40=1|211=0.211|835=0|836=-1|10=195|
8=FIX.4.4|9=148|35=G|49=TESTI|56=TESTA|34=6|52=20030204-08:49:18|11=12233345|41=90001008|21=2|55=TESTB|54=1|60=20060117-10:00:00|38=4000|40=1|211=0.211|835=0|836=4|10=195|
8=FIX.4.4|9=148|35=G|49=TESTI|56=TESTA|34=6|52=20030204-08:49:18|11=12233345|41=90001008|21=2|55=TESTB|54=1|60=20060117-10:00:00|38=4000|40=1|211=0.211|835=0|836=A|10=195|
8=FIX.4.4|9=148|35=G|49=TESTI|56=TESTA|34=6|52=20030204-08:49:18|11=12233345|41=90001008|21=2|55=TESTB|54=1|60=20060117-10:00:00|38=4000|40=1|211=0.211|835=0|836=b|10=195|
8=FIX.4.4|9=140|35=1|34=104|49=SNDR|56=TRGT|52=20090407-09:48:19.812|112= TEST #192 CHECK 4 REJECT MSGS with INVALID MESSAGE - INCORRECT DATA TYPE [MsgType:_G, Tag:_836]|10=018|
8=FIX.4.4|9=154|35=G|49=TESTI|56=TESTA|34=6|52=20030204-08:49:18|11=12233345|41=90001008|21=2|55=TESTB|54=1|60=20060117-10:00:00|38=4000|40=1|211=0.211|835=1|836=1|837=-1|10=210|
8=FIX.4.4|9=154|35=G|49=TESTI|56=TESTA|34=6|52=20030204-08:49:18|11=12233345|41=90001008|21=2|55=TESTB|54=1|60=20060117-10:00:00|38=4000|40=1|211=0.211|835=1|836=1|837=3|10=210|
8=FIX.4.4|9=154|35=G|49=TESTI|56=TESTA|34=6|52=20030204-08:49:18|11=12233345|41=90001008|21=2|55=TESTB|54=1|60=20060117-10:00:00|38=4000|40=1|211=0.211|835=1|836=1|837=A|10=210|
8=FIX.4.4|9=154|35=G|49=TESTI|56=TESTA|34=6|52=20030204-08:49:18|11=12233345|41=90001008|21=2|55=TESTB|54=1|60=20060117-10:00:00|38=4000|40=1|211=0.211|835=1|836=1|837=b|10=210|
8=FIX.4.4|9=140|35=1|34=104|49=SNDR|56=TRGT|52=20090407-09:48:19.812|112= TEST #193 CHECK 4 REJECT MSGS with INVALID MESSAGE - INCORRECT DATA TYPE [MsgType:_G, Tag:_837]|10=018|
8=FIX.4.4|9=160|35=G|49=TESTI|56=TESTA|34=6|52=20030204-08:49:18|11=12233345|41=90001008|21=2|55=TESTB|54=1|60=20060117-10:00:00|38=4000|40=1|211=0.211|835=0|836=3|837=1|838=-1|10=227|
8=FIX.4.4|9=160|35=G|49=TESTI|56=TESTA|34=6|52=20030204-08:49:18|11=12233345|41=90001008|21=2|55=TESTB|54=1|60=20060117-10:00:00|38=4000|40=1|211=0.211|835=0|836=3|837=1|838=0|10=227|
8=FIX.4.4|9=160|35=G|49=TESTI|56=TESTA|34=6|52=20030204-08:49:18|11=12233345|41=90001008|21=2|55=TESTB|54=1|60=20060117-10:00:00|38=4000|40=1|211=0.211|835=0|836=3|837=1|838=A|10=227|
8=FIX.4.4|9=160|35=G|49=TESTI|56=TESTA|34=6|52=20030204-08:49:18|11=12233345|41=90001008|21=2|55=TESTB|54=1|60=20060117-10:00:00|38=4000|40=1|211=0.211|835=0|836=3|837=1|838=b|10=227|
8=FIX.4.4|9=140|35=1|34=104|49=SNDR|56=TRGT|52=20090407-09:48:19.812|112= TEST #194 CHECK 4 REJECT MSGS with INVALID MESSAGE - INCORRECT DATA TYPE [MsgType:_G, Tag:_838]|10=018|
8=FIX.4.4|9=166|35=G|49=TESTI|56=TESTA|34=6|52=20030204-08:49:18|11=12233345|41=90001008|21=2|55=TESTB|54=1|60=20060117-10:00:00|38=4000|40=1|211=0.211|835=1|836=2|837=0|838=2|840=0|10=244|
8=FIX.4.4|9=166|35=G|49=TESTI|56=TESTA|34=6|52=20030204-08:49:18|11=12233345|41=90001008|21=2|55=TESTB|54=1|60=20060117-10:00:00|38=4000|40=1|211=0.211|835=1|836=2|837=0|838=2|840=-1|10=244|
8=FIX.4.4|9=166|35=G|49=TESTI|56=TESTA|34=6|52=20030204-08:49:18|11=12233345|41=90001008|21=2|55=TESTB|54=1|60=20060117-10:00:00|38=4000|40=1|211=0.211|835=1|836=2|837=0|838=2|840=A|10=244|
8=FIX.4.4|9=166|35=G|49=TESTI|56=TESTA|34=6|52=20030204-08:49:18|11=12233345|41=90001008|21=2|55=TESTB|54=1|60=20060117-10:00:00|38=4000|40=1|211=0.211|835=1|836=2|837=0|838=2|840=b|10=244|
8=FIX.4.4|9=140|35=1|34=104|49=SNDR|56=TRGT|52=20090407-09:48:19.812|112= TEST #195 CHECK 4 REJECT MSGS with INVALID MESSAGE - INCORRECT DATA TYPE [MsgType:_G, Tag:_840]|10=018|
8=FIX.4.4|9=199|35=s|49=TESTI|56=TESTA|34=4|52=20030204-08:46:14|548=90001008|549=1|550=0|552=2|54=1|11=B101010|38=4000|54=2|11=S101010|38=5000|55=TESTA|60=20060217-10:00:00|40=1|388=0|389=0.389|841=-1|10=114|
8=FIX.4.4|9=199|35=s|49=TESTI|56=TESTA|34=4|52=20030204-08:46:14|548=90001008|549=1|550=0|552=2|54=1|11=B101010|38=4000|54=2|11=S101010|38=5000|55=TESTA|60=20060217-10:00:00|40=1|388=0|389=0.389|841=2|10=114|
8=FIX.4.4|9=199|35=s|49=TESTI|56=TESTA|34=4|52=20030204-08:46:14|548=90001008|549=1|550=0|552=2|54=1|11=B101010|38=4000|54=2|11=S101010|38=5000|55=TESTA|60=20060217-10:00:00|40=1|388=0|389=0.389|841=A|10=114|
8=FIX.4.4|9=199|35=s|49=TESTI|56=TESTA|34=4|52=20030204-08:46:14|548=90001008|549=1|550=0|552=2|54=1|11=B101010|38=4000|54=2|11=S101010|38=5000|55=TESTA|60=20060217-10:00:00|40=1|388=0|389=0.389|841=b|10=114|
8=FIX.4.4|9=140|35=1|34=104|49=SNDR|56=TRGT|52=20090407-09:48:19.812|112= TEST #196 CHECK 4 REJECT MSGS with INVALID MESSAGE - INCORRECT DATA TYPE [MsgType:_s, Tag:_841]|10=018|
8=FIX.4.4|9=205|35=s|49=TESTI|56=TESTA|34=4|52=20030204-08:46:14|548=90001008|549=1|550=0|552=2|54=1|11=B101010|38=4000|54=2|11=S101010|38=5000|55=TESTA|60=20060217-10:00:00|40=1|388=6|389=0.389|841=1|842=-1|10=121|
8=FIX.4.4|9=205|35=s|49=TESTI|56=TESTA|34=4|52=20030204-08:46:14|548=90001008|549=1|550=0|552=2|54=1|11=B101010|38=4000|54=2|11=S101010|38=5000|55=TESTA|60=20060217-10:00:00|40=1|388=6|389=0.389|841=1|842=4|10=121|
8=FIX.4.4|9=205|35=s|49=TESTI|56=TESTA|34=4|52=20030204-08:46:14|548=90001008|549=1|550=0|552=2|54=1|11=B101010|38=4000|54=2|11=S101010|38=5000|55=TESTA|60=20060217-10:00:00|40=1|388=6|389=0.389|841=1|842=A|10=121|
8=FIX.4.4|9=205|35=s|49=TESTI|56=TESTA|34=4|52=20030204-08:46:14|548=90001008|549=1|550=0|552=2|54=1|11=B101010|38=4000|54=2|11=S101010|38=5000|55=TESTA|60=20060217-10:00:00|40=1|388=6|389=0.389|841=1|842=b|10=121|
8=FIX.4.4|9=140|35=1|34=104|49=SNDR|56=TRGT|52=20090407-09:48:19.812|112= TEST #197 CHECK 4 REJECT MSGS with INVALID MESSAGE - INCORRECT DATA TYPE [MsgType:_s, Tag:_842]|10=018|
8=FIX.4.4|9=211|35=s|49=TESTI|56=TESTA|34=4|52=20030204-08:46:14|548=90001008|549=1|550=0|552=2|54=1|11=B101010|38=4000|54=2|11=S101010|38=5000|55=TESTA|60=20060217-10:00:00|40=1|388=4|389=0.389|841=0|842=3|843=-1|10=131|
8=FIX.4.4|9=211|35=s|49=TESTI|56=TESTA|34=4|52=20030204-08:46:14|548=90001008|549=1|550=0|552=2|54=1|11=B101010|38=4000|54=2|11=S101010|38=5000|55=TESTA|60=20060217-10:00:00|40=1|388=4|389=0.389|841=0|842=3|843=3|10=131|
8=FIX.4.4|9=211|35=s|49=TESTI|56=TESTA|34=4|52=20030204-08:46:14|548=90001008|549=1|550=0|552=2|54=1|11=B101010|38=4000|54=2|11=S101010|38=5000|55=TESTA|60=20060217-10:00:00|40=1|388=4|389=0.389|841=0|842=3|843=A|10=131|
8=FIX.4.4|9=211|35=s|49=TESTI|56=TESTA|34=4|52=20030204-08:46:14|548=90001008|549=1|550=0|552=2|54=1|11=B101010|38=4000|54=2|11=S101010|38=5000|55=TESTA|60=20060217-10:00:00|40=1|388=4|389=0.389|841=0|842=3|843=b|10=131|
8=FIX.4.4|9=140|35=1|34=104|49=SNDR|56=TRGT|52=20090407-09:48:19.812|112= TEST #198 CHECK 4 REJECT MSGS with INVALID MESSAGE - INCORRECT DATA TYPE [MsgType:_s, Tag:_843]|10=018|
8=FIX.4.4|9=217|35=s|49=TESTI|56=TESTA|34=4|52=20030204-08:46:14|548=90001008|549=1|550=0|552=2|54=1|11=B101010|38=4000|54=2|11=S101010|38=5000|55=TESTA|60=20060217-10:00:00|40=1|388=3|389=0.389|841=0|842=3|843=2|844=0|10=153|
8=FIX.4.4|9=217|35=s|49=TESTI|56=TESTA|34=4|52=20030204-08:46:14|548=90001008|549=1|550=0|552=2|54=1|11=B101010|38=4000|54=2|11=S101010|38=5000|55=TESTA|60=20060217-10:00:00|40=1|388=3|389=0.389|841=0|842=3|843=2|844=-1|10=153|
8=FIX.4.4|9=217|35=s|49=TESTI|56=TESTA|34=4|52=20030204-08:46:14|548=90001008|549=1|550=0|552=2|54=1|11=B101010|38=4000|54=2|11=S101010|38=5000|55=TESTA|60=20060217-10:00:00|40=1|388=3|389=0.389|841=0|842=3|843=2|844=A|10=153|
8=FIX.4.4|9=217|35=s|49=TESTI|56=TESTA|34=4|52=20030204-08:46:14|548=90001008|549=1|550=0|552=2|54=1|11=B101010|38=4000|54=2|11=S101010|38=5000|55=TESTA|60=20060217-10:00:00|40=1|388=3|389=0.389|841=0|842=3|843=2|844=b|10=153|
8=FIX.4.4|9=140|35=1|34=104|49=SNDR|56=TRGT|52=20090407-09:48:19.812|112= TEST #199 CHECK 4 REJECT MSGS with INVALID MESSAGE - INCORRECT DATA TYPE [MsgType:_s, Tag:_844]|10=018|
8=FIX.4.4|9=223|35=s|49=TESTI|56=TESTA|34=4|52=20030204-08:46:14|548=90001008|549=1|550=0|552=2|54=1|11=B101010|38=4000|54=2|11=S101010|38=5000|55=TESTA|60=20060217-10:00:00|40=1|388=1|389=0.389|841=0|842=0|843=0|844=2|846=0|10=161|
8=FIX.4.4|9=223|35=s|49=TESTI|56=TESTA|34=4|52=20030204-08:46:14|548=90001008|549=1|550=0|552=2|54=1|11=B101010|38=4000|54=2|11=S101010|38=5000|55=TESTA|60=20060217-10:00:00|40=1|388=1|389=0.389|841=0|842=0|843=0|844=2|846=-1|10=161|
8=FIX.4.4|9=223|35=s|49=TESTI|56=TESTA|34=4|52=20030204-08:46:14|548=90001008|549=1|550=0|552=2|54=1|11=B101010|38=4000|54=2|11=S101010|38=5000|55=TESTA|60=20060217-10:00:00|40=1|388=1|389=0.389|841=0|842=0|843=0|844=2|846=A|10=161|
8=FIX.4.4|9=223|35=s|49=TESTI|56=TESTA|34=4|52=20030204-08:46:14|548=90001008|549=1|550=0|552=2|54=1|11=B101010|38=4000|54=2|11=S101010|38=5000|55=TESTA|60=20060217-10:00:00|40=1|388=1|389=0.389|841=0|842=0|843=0|844=2|846=b|10=161|
8=FIX.4.4|9=140|35=1|34=104|49=SNDR|56=TRGT|52=20090407-09:48:19.812|112= TEST #200 CHECK 4 REJECT MSGS with INVALID MESSAGE - INCORRECT DATA TYPE [MsgType:_s, Tag:_846]|10=018|
8=FIX.4.4|9=129|35=D|49=TESTI|56=TESTA|34=4|52=20030204-08:46:14|11=90001008|55=TESTB|54=1|60=20060217-10:00:00|38=4000|40=1|847=0|10=137|
8=FIX.4.4|9=129|35=D|49=TESTI|56=TESTA|34=4|52=20030204-08:46:14|11=90001008|55=TESTB|54=1|60=20060217-10:00:00|38=4000|40=1|847=-1|10=137|
8=FIX.4.4|9=129|35=D|49=TESTI|56=TESTA|34=4|52=20030204-08:46:14|11=90001008|55=TESTB|54=1|60=20060217-10:00:00|38=4000|40=1|847=A|10=137|
8=FIX.4.4|9=129|35=D|49=TESTI|56=TESTA|34=4|52=20030204-08:46:14|11=90001008|55=TESTB|54=1|60=20060217-10:00:00|38=4000|40=1|847=b|10=137|
8=FIX.4.4|9=140|35=1|34=104|49=SNDR|56=TRGT|52=20090407-09:48:19.812|112= TEST #201 CHECK 4 REJECT MSGS with INVALID MESSAGE - INCORRECT DATA TYPE [MsgType:_D, Tag:_847]|10=018|
8=FIX.4.4|9=126|35=8|49=TESTI|56=TESTA|34=114|52=20030203-16:09:30|37=11111111|17=11|39=0|150=0|55=TESTB|54=1|38=1000|151=1000|14=0|6=0|851=0|10=071|
8=FIX.4.4|9=126|35=8|49=TESTI|56=TESTA|34=114|52=20030203-16:09:30|37=11111111|17=11|39=0|150=0|55=TESTB|54=1|38=1000|151=1000|14=0|6=0|851=-1|10=071|
8=FIX.4.4|9=126|35=8|49=TESTI|56=TESTA|34=114|52=20030203-16:09:30|37=11111111|17=11|39=0|150=0|55=TESTB|54=1|38=1000|151=1000|14=0|6=0|851=A|10=071|
8=FIX.4.4|9=126|35=8|49=TESTI|56=TESTA|34=114|52=20030203-16:09:30|37=11111111|17=11|39=0|150=0|55=TESTB|54=1|38=1000|151=1000|14=0|6=0|851=b|10=071|
8=FIX.4.4|9=140|35=1|34=104|49=SNDR|56=TRGT|52=20090407-09:48:19.812|112= TEST #202 CHECK 4 REJECT MSGS with INVALID MESSAGE - INCORRECT DATA TYPE [MsgType:_8, Tag:_851]|10=018|
8=FIX.4.4|9=185|35=AE|49=TESTI|56=TESTA|34=4|52=20030204-08:46:14|571=90001008|150=F|570=N|55=TESTA|32=1000|31=10.4|75=20060217|60=20060217-10:00:00|552=2|54=1|37=0001|54=2|37=0002|852=y|10=223|
8=FIX.4.4|9=185|35=AE|49=TESTI|56=TESTA|34=4|52=20030204-08:46:14|571=90001008|150=F|570=N|55=TESTA|32=1000|31=10.4|75=20060217|60=20060217-10:00:00|552=2|54=1|37=0001|54=2|37=0002|852=n|10=223|
8=FIX.4.4|9=185|35=AE|49=TESTI|56=TESTA|34=4|52=20030204-08:46:14|571=90001008|150=F|570=N|55=TESTA|32=1000|31=10.4|75=20060217|60=20060217-10:00:00|552=2|54=1|37=0001|54=2|37=0002|852=0|10=223|
8=FIX.4.4|9=185|35=AE|49=TESTI|56=TESTA|34=4|52=20030204-08:46:14|571=90001008|150=F|570=N|55=TESTA|32=1000|31=10.4|75=20060217|60=20060217-10:00:00|552=2|54=1|37=0001|54=2|37=0002|852=-1|10=223|
8=FIX.4.4|9=140|35=1|34=104|49=SNDR|56=TRGT|52=20090407-09:48:19.812|112= TEST #203 CHECK 4 REJECT MSGS with INVALID MESSAGE - INCORRECT DATA TYPE [MsgType:_AE, Tag:_852]|10=018|
8=FIX.4.4|9=185|35=AE|49=TESTI|56=TESTA|34=4|52=20030204-08:46:14|571=90001008|150=F|570=N|55=TESTA|32=1000|31=10.4|75=20060217|60=20060217-10:00:00|552=2|54=1|37=0001|54=2|37=0002|853=-1|10=194|
8=FIX.4.4|9=185|35=AE|49=TESTI|56=TESTA|34=4|52=20030204-08:46:14|571=90001008|150=F|570=N|55=TESTA|32=1000|31=10.4|75=20060217|60=20060217-10:00:00|552=2|54=1|37=0001|54=2|37=0002|853=6|10=194|
8=FIX.4.4|9=185|35=AE|49=TESTI|56=TESTA|34=4|52=20030204-08:46:14|571=90001008|150=F|570=N|55=TESTA|32=1000|31=10.4|75=20060217|60=20060217-10:00:00|552=2|54=1|37=0001|54=2|37=0002|853=A|10=194|
8=FIX.4.4|9=185|35=AE|49=TESTI|56=TESTA|34=4|52=20030204-08:46:14|571=90001008|150=F|570=N|55=TESTA|32=1000|31=10.4|75=20060217|60=20060217-10:00:00|552=2|54=1|37=0001|54=2|37=0002|853=b|10=194|
8=FIX.4.4|9=140|35=1|34=104|49=SNDR|56=TRGT|52=20090407-09:48:19.812|112= TEST #204 CHECK 4 REJECT MSGS with INVALID MESSAGE - INCORRECT DATA TYPE [MsgType:_AE, Tag:_853]|10=018|
8=FIX.4.4|9=89|35=7|49=TESTI|56=TESTA|34=31|52=20030203-16:02:35|2=20|5=N|55=TESTB|4=T|53=1000000|854=-1|10=215|
8=FIX.4.4|9=89|35=7|49=TESTI|56=TESTA|34=31|52=20030203-16:02:35|2=20|5=N|55=TESTB|4=T|53=1000000|854=2|10=215|
8=FIX.4.4|9=89|35=7|49=TESTI|56=TESTA|34=31|52=20030203-16:02:35|2=20|5=N|55=TESTB|4=T|53=1000000|854=A|10=215|
8=FIX.4.4|9=89|35=7|49=TESTI|56=TESTA|34=31|52=20030203-16:02:35|2=20|5=N|55=TESTB|4=T|53=1000000|854=b|10=215|
8=FIX.4.4|9=140|35=1|34=104|49=SNDR|56=TRGT|52=20090407-09:48:19.812|112= TEST #205 CHECK 4 REJECT MSGS with INVALID MESSAGE - INCORRECT DATA TYPE [MsgType:_7, Tag:_854]|10=018|
8=FIX.4.4|9=104|35=AR|49=TESTI|56=TESTA|34=4|52=20030204-08:46:14|571=90001008|856=-1|150=F|751=0|55=TESTB|10=032|
8=FIX.4.4|9=104|35=AR|49=TESTI|56=TESTA|34=4|52=20030204-08:46:14|571=90001008|856=8|150=F|751=0|55=TESTB|10=032|
8=FIX.4.4|9=104|35=AR|49=TESTI|56=TESTA|34=4|52=20030204-08:46:14|571=90001008|856=A|150=F|751=0|55=TESTB|10=032|
8=FIX.4.4|9=104|35=AR|49=TESTI|56=TESTA|34=4|52=20030204-08:46:14|571=90001008|856=b|150=F|751=0|55=TESTB|10=032|
8=FIX.4.4|9=140|35=1|34=104|49=SNDR|56=TRGT|52=20090407-09:48:19.812|112= TEST #206 CHECK 4 REJECT MSGS with INVALID MESSAGE - INCORRECT DATA TYPE [MsgType:_AR, Tag:_856]|10=018|
8=FIX.4.4|9=137|35=AS|49=TESTI|56=TESTA|34=4|52=20030204-08:46:14|755=0001|71=0|794=5|87=0|857=-1|54=2|55=TESTB|53=10000|6=10.5|75=20060217|10=228|
8=FIX.4.4|9=137|35=AS|49=TESTI|56=TESTA|34=4|52=20030204-08:46:14|755=0001|71=0|794=5|87=0|857=2|54=2|55=TESTB|53=10000|6=10.5|75=20060217|10=228|
8=FIX.4.4|9=137|35=AS|49=TESTI|56=TESTA|34=4|52=20030204-08:46:14|755=0001|71=0|794=5|87=0|857=A|54=2|55=TESTB|53=10000|6=10.5|75=20060217|10=228|
8=FIX.4.4|9=137|35=AS|49=TESTI|56=TESTA|34=4|52=20030204-08:46:14|755=0001|71=0|794=5|87=0|857=b|54=2|55=TESTB|53=10000|6=10.5|75=20060217|10=228|
8=FIX.4.4|9=140|35=1|34=104|49=SNDR|56=TRGT|52=20090407-09:48:19.812|112= TEST #207 CHECK 4 REJECT MSGS with INVALID MESSAGE - INCORRECT DATA TYPE [MsgType:_AS, Tag:_857]|10=018|
8=FIX.4.4|9=135|35=D|49=TESTI|56=TESTA|34=4|52=20030204-08:46:14|11=90001008|55=TESTB|864=1|865=0|54=1|60=20060217-10:00:00|38=4000|40=1|10=151|
8=FIX.4.4|9=135|35=D|49=TESTI|56=TESTA|34=4|52=20030204-08:46:14|11=90001008|55=TESTB|864=1|865=-1|54=1|60=20060217-10:00:00|38=4000|40=1|10=151|
8=FIX.4.4|9=135|35=D|49=TESTI|56=TESTA|34=4|52=20030204-08:46:14|11=90001008|55=TESTB|864=1|865=A|54=1|60=20060217-10:00:00|38=4000|40=1|10=151|
8=FIX.4.4|9=135|35=D|49=TESTI|56=TESTA|34=4|52=20030204-08:46:14|11=90001008|55=TESTB|864=1|865=b|54=1|60=20060217-10:00:00|38=4000|40=1|10=151|
8=FIX.4.4|9=140|35=1|34=104|49=SNDR|56=TRGT|52=20090407-09:48:19.812|112= TEST #208 CHECK 4 REJECT MSGS with INVALID MESSAGE - INCORRECT DATA TYPE [MsgType:_D, Tag:_865]|10=018|
8=FIX.4.4|9=77|35=f|49=TESTI|56=TESTA|34=14|52=20030204-09:25:43|55=TESTB|668=1|870=1|871=0|10=220|
8=FIX.4.4|9=77|35=f|49=TESTI|56=TESTA|34=14|52=20030204-09:25:43|55=TESTB|668=1|870=1|871=-1|10=220|
8=FIX.4.4|9=77|35=f|49=TESTI|56=TESTA|34=14|52=20030204-09:25:43|55=TESTB|668=1|870=1|871=A|10=220|
8=FIX.4.4|9=77|35=f|49=TESTI|56=TESTA|34=14|52=20030204-09:25:43|55=TESTB|668=1|870=1|871=b|10=220|
8=FIX.4.4|9=140|35=1|34=104|49=SNDR|56=TRGT|52=20090407-09:48:19.812|112= TEST #209 CHECK 4 REJECT MSGS with INVALID MESSAGE - INCORRECT DATA TYPE [MsgType:_f, Tag:_871]|10=018|
8=FIX.4.4|9=183|35=s|49=TESTI|56=TESTA|34=4|52=20030204-08:46:14|548=90001008|549=1|550=0|552=2|54=1|11=B101010|38=4000|54=2|11=S101010|38=5000|55=TESTA|875=0|60=20060217-10:00:00|40=1|10=126|
8=FIX.4.4|9=183|35=s|49=TESTI|56=TESTA|34=4|52=20030204-08:46:14|548=90001008|549=1|550=0|552=2|54=1|11=B101010|38=4000|54=2|11=S101010|38=5000|55=TESTA|875=-1|60=20060217-10:00:00|40=1|10=126|
8=FIX.4.4|9=183|35=s|49=TESTI|56=TESTA|34=4|52=20030204-08:46:14|548=90001008|549=1|550=0|552=2|54=1|11=B101010|38=4000|54=2|11=S101010|38=5000|55=TESTA|875=A|60=20060217-10:00:00|40=1|10=126|
8=FIX.4.4|9=183|35=s|49=TESTI|56=TESTA|34=4|52=20030204-08:46:14|548=90001008|549=1|550=0|552=2|54=1|11=B101010|38=4000|54=2|11=S101010|38=5000|55=TESTA|875=b|60=20060217-10:00:00|40=1|10=126|
8=FIX.4.4|9=140|35=1|34=104|49=SNDR|56=TRGT|52=20090407-09:48:19.812|112= TEST #210 CHECK 4 REJECT MSGS with INVALID MESSAGE - INCORRECT DATA TYPE [MsgType:_s, Tag:_875]|10=018|
8=FIX.4.4|9=238|35=AK|49=TESTI|56=TESTA|34=4|52=20030204-08:46:14|664=0001|666=0|773=1|665=4|60=20060217-10:00:00|75=20060217|55=TESTA|80=1000|54=1|862=2|528=A|863=400|528=P|863=600|79=KTierney|6=20|381=20000|118=2000|136=1|137=0037|139=1|891=-1|10=219|
8=FIX.4.4|9=238|35=AK|49=TESTI|56=TESTA|34=4|52=20030204-08:46:14|664=0001|666=0|773=1|665=4|60=20060217-10:00:00|75=20060217|55=TESTA|80=1000|54=1|862=2|528=A|863=400|528=P|863=600|79=KTierney|6=20|381=20000|118=2000|136=1|137=0037|139=1|891=3|10=219|
8=FIX.4.4|9=238|35=AK|49=TESTI|56=TESTA|34=4|52=20030204-08:46:14|664=0001|666=0|773=1|665=4|60=20060217-10:00:00|75=20060217|55=TESTA|80=1000|54=1|862=2|528=A|863=400|528=P|863=600|79=KTierney|6=20|381=20000|118=2000|136=1|137=0037|139=1|891=A|10=219|
8=FIX.4.4|9=238|35=AK|49=TESTI|56=TESTA|34=4|52=20030204-08:46:14|664=0001|666=0|773=1|665=4|60=20060217-10:00:00|75=20060217|55=TESTA|80=1000|54=1|862=2|528=A|863=400|528=P|863=600|79=KTierney|6=20|381=20000|118=2000|136=1|137=0037|139=1|891=b|10=219|
8=FIX.4.4|9=140|35=1|34=104|49=SNDR|56=TRGT|52=20090407-09:48:19.812|112= TEST #211 CHECK 4 REJECT MSGS with INVALID MESSAGE - INCORRECT DATA TYPE [MsgType:_AK, Tag:_891]|10=018|
8=FIX.4.4|9=81|35=AA|49=TESTI|56=TESTA|34=14|52=20030204-09:25:43|320=0001|322=0001|560=0|893=y|10=252|
8=FIX.4.4|9=81|35=AA|49=TESTI|56=TESTA|34=14|52=20030204-09:25:43|320=0001|322=0001|560=0|893=n|10=252|
8=FIX.4.4|9=81|35=AA|49=TESTI|56=TESTA|34=14|52=20030204-09:25:43|320=0001|322=0001|560=0|893=0|10=252|
8=FIX.4.4|9=81|35=AA|49=TESTI|56=TESTA|34=14|52=20030204-09:25:43|320=0001|322=0001|560=0|893=-1|10=252|
8=FIX.4.4|9=140|35=1|34=104|49=SNDR|56=TRGT|52=20090407-09:48:19.812|112= TEST #212 CHECK 4 REJECT MSGS with INVALID MESSAGE - INCORRECT DATA TYPE [MsgType:_AA, Tag:_893]|10=018|
8=FIX.4.4|9=101|35=AY|49=TESTI|56=TESTA|34=4|52=20030204-08:46:14|902=0001|895=-1|903=0|60=20060217-10:00:00|10=001|
8=FIX.4.4|9=101|35=AY|49=TESTI|56=TESTA|34=4|52=20030204-08:46:14|902=0001|895=8|903=0|60=20060217-10:00:00|10=001|
8=FIX.4.4|9=101|35=AY|49=TESTI|56=TESTA|34=4|52=20030204-08:46:14|902=0001|895=A|903=0|60=20060217-10:00:00|10=001|
8=FIX.4.4|9=101|35=AY|49=TESTI|56=TESTA|34=4|52=20030204-08:46:14|902=0001|895=b|903=0|60=20060217-10:00:00|10=001|
8=FIX.4.4|9=140|35=1|34=104|49=SNDR|56=TRGT|52=20090407-09:48:19.812|112= TEST #213 CHECK 4 REJECT MSGS with INVALID MESSAGE - INCORRECT DATA TYPE [MsgType:_AY, Tag:_895]|10=018|
8=FIX.4.4|9=86|35=BG|49=TESTI|56=TESTA|34=4|52=20030204-08:46:14|909=0001|945=0|938=1|896=-1|10=244|
8=FIX.4.4|9=86|35=BG|49=TESTI|56=TESTA|34=4|52=20030204-08:46:14|909=0001|945=0|938=1|896=8|10=244|
8=FIX.4.4|9=86|35=BG|49=TESTI|56=TESTA|34=4|52=20030204-08:46:14|909=0001|945=0|938=1|896=A|10=244|
8=FIX.4.4|9=86|35=BG|49=TESTI|56=TESTA|34=4|52=20030204-08:46:14|909=0001|945=0|938=1|896=b|10=244|
8=FIX.4.4|9=140|35=1|34=104|49=SNDR|56=TRGT|52=20090407-09:48:19.812|112= TEST #214 CHECK 4 REJECT MSGS with INVALID MESSAGE - INCORRECT DATA TYPE [MsgType:_BG, Tag:_896]|10=018|
