8=FIX.4.4|9=123|35=D|49=TESTI|56=TESTA|34=4|52=20030204-08:46:14|11=90001008|100=X|55=TESTB|54=1|60=20060217-10:00:00|38=4000|40=1|10=113|
8=FIX.4.4|9=123|35=D|49=TESTI|56=TESTA|34=4|52=20030204-08:46:14|11=90001008|100=0|55=TESTB|54=1|60=20060217-10:00:00|38=4000|40=1|10=113|
8=FIX.4.4|9=123|35=D|49=TESTI|56=TESTA|34=4|52=20030204-08:46:14|11=90001008|100=-1|55=TESTB|54=1|60=20060217-10:00:00|38=4000|40=1|10=113|
8=FIX.4.4|9=123|35=D|49=TESTI|56=TESTA|34=4|52=20030204-08:46:14|11=90001008|100=xCUE|55=TESTB|54=1|60=20060217-10:00:00|38=4000|40=1|10=113|
8=FIX.4.4|9=140|35=1|34=104|49=SNDR|56=TRGT|52=20090407-09:48:19.812|112= TEST #024 CHECK 4 REJECT MSGS with INVALID MESSAGE - INCORRECT DATA TYPE [MsgType:_D, Tag:_100]|10=018|
8=FIX.4.4|9=108|35=9|49=TESTI|56=TESTA|34=3|52=20030203-16:13:14|37=11111111|11=12121212122|41=11111111111|39=0|434=1|102=-1|10=218|
8=FIX.4.4|9=108|35=9|49=TESTI|56=TESTA|34=3|52=20030203-16:13:14|37=11111111|11=12121212122|41=11111111111|39=0|434=1|102=7|10=218|
8=FIX.4.4|9=108|35=9|49=TESTI|56=TESTA|34=3|52=20030203-16:13:14|37=11111111|11=12121212122|41=11111111111|39=0|434=1|102=A|10=218|
8=FIX.4.4|9=108|35=9|49=TESTI|56=TESTA|34=3|52=20030203-16:13:14|37=11111111|11=12121212122|41=11111111111|39=0|434=1|102=b|10=218|
8=FIX.4.4|9=140|35=1|34=104|49=SNDR|56=TRGT|52=20090407-09:48:19.812|112= TEST #025 CHECK 4 REJECT MSGS with INVALID MESSAGE - INCORRECT DATA TYPE [MsgType:_9, Tag:_102]|10=018|
8=FIX.4.4|9=126|35=8|49=TESTI|56=TESTA|34=114|52=20030203-16:09:30|37=11111111|17=11|39=0|103=-1|150=0|55=TESTB|54=1|38=1000|151=1000|14=0|6=0|10=060|
8=FIX.4.4|9=126|35=8|49=TESTI|56=TESTA|34=114|52=20030203-16:09:30|37=11111111|17=11|39=0|103=16|150=0|55=TESTB|54=1|38=1000|151=1000|14=0|6=0|10=060|
8=FIX.4.4|9=126|35=8|49=TESTI|56=TESTA|34=114|52=20030203-16:09:30|37=11111111|17=11|39=0|103=A|150=0|55=TESTB|54=1|38=1000|151=1000|14=0|6=0|10=060|
8=FIX.4.4|9=126|35=8|49=TESTI|56=TESTA|34=114|52=20030203-16:09:30|37=11111111|17=11|39=0|103=b|150=0|55=TESTB|54=1|38=1000|151=1000|14=0|6=0|10=060|
8=FIX.4.4|9=140|35=1|34=104|49=SNDR|56=TRGT|52=20090407-09:48:19.812|112= TEST #026 CHECK 4 REJECT MSGS with INVALID MESSAGE - INCORRECT DATA TYPE [MsgType:_8, Tag:_103]|10=018|
8=FIX.4.4|9=93|35=6|49=TESTI|56=TESTA|34=121|52=20030203-16:10:01|23=24|28=N|55=TESTB|54=1|27=S|199=1|104=a|10=145|
8=FIX.4.4|9=93|35=6|49=TESTI|56=TESTA|34=121|52=20030203-16:10:01|23=24|28=N|55=TESTB|54=1|27=S|199=1|104=z|10=145|
8=FIX.4.4|9=93|35=6|49=TESTI|56=TESTA|34=121|52=20030203-16:10:01|23=24|28=N|55=TESTB|54=1|27=S|199=1|104=-1|10=145|
8=FIX.4.4|9=93|35=6|49=TESTI|56=TESTA|34=121|52=20030203-16:10:01|23=24|28=N|55=TESTB|54=1|27=S|199=1|104=0|10=145|
8=FIX.4.4|9=140|35=1|34=104|49=SNDR|56=TRGT|52=20090407-09:48:19.812|112= TEST #027 CHECK 4 REJECT MSGS with INVALID MESSAGE - INCORRECT DATA TYPE [MsgType:_6, Tag:_104]|10=018|
8=FIX.4.4|9=126|35=8|49=TESTI|56=TESTA|34=114|52=20030203-16:09:30|37=11111111|17=11|39=0|150=0|55=TESTB|54=1|38=1000|151=1000|14=0|6=0|113=y|10=102|
8=FIX.4.4|9=126|35=8|49=TESTI|56=TESTA|34=114|52=20030203-16:09:30|37=11111111|17=11|39=0|150=0|55=TESTB|54=1|38=1000|151=1000|14=0|6=0|113=n|10=102|
8=FIX.4.4|9=126|35=8|49=TESTI|56=TESTA|34=114|52=20030203-16:09:30|37=11111111|17=11|39=0|150=0|55=TESTB|54=1|38=1000|151=1000|14=0|6=0|113=-1|10=102|
8=FIX.4.4|9=126|35=8|49=TESTI|56=TESTA|34=114|52=20030203-16:09:30|37=11111111|17=11|39=0|150=0|55=TESTB|54=1|38=1000|151=1000|14=0|6=0|113=0|10=102|
8=FIX.4.4|9=140|35=1|34=104|49=SNDR|56=TRGT|52=20090407-09:48:19.812|112= TEST #028 CHECK 4 REJECT MSGS with INVALID MESSAGE - INCORRECT DATA TYPE [MsgType:_8, Tag:_113]|10=018|
8=FIX.4.4|9=132|35=G|49=TESTI|56=TESTA|34=6|52=20030204-08:49:18|11=12233345|41=90001008|21=2|55=TESTB|54=1|60=20060117-10:00:00|38=4000|40=1|114=y|10=008|
8=FIX.4.4|9=132|35=G|49=TESTI|56=TESTA|34=6|52=20030204-08:49:18|11=12233345|41=90001008|21=2|55=TESTB|54=1|60=20060117-10:00:00|38=4000|40=1|114=n|10=008|
8=FIX.4.4|9=132|35=G|49=TESTI|56=TESTA|34=6|52=20030204-08:49:18|11=12233345|41=90001008|21=2|55=TESTB|54=1|60=20060117-10:00:00|38=4000|40=1|114=-1|10=008|
8=FIX.4.4|9=132|35=G|49=TESTI|56=TESTA|34=6|52=20030204-08:49:18|11=12233345|41=90001008|21=2|55=TESTB|54=1|60=20060117-10:00:00|38=4000|40=1|114=0|10=008|
8=FIX.4.4|9=140|35=1|34=104|49=SNDR|56=TRGT|52=20090407-09:48:19.812|112= TEST #029 CHECK 4 REJECT MSGS with INVALID MESSAGE - INCORRECT DATA TYPE [MsgType:_G, Tag:_114]|10=018|
8=FIX.4.4|9=123|35=D|49=TESTI|56=TESTA|34=4|52=20030204-08:46:14|11=90001008|55=TESTB|54=1|60=20060217-10:00:00|38=4000|40=1|121=Y|120=AfA|10=113|
8=FIX.4.4|9=123|35=D|49=TESTI|56=TESTA|34=4|52=20030204-08:46:14|11=90001008|55=TESTB|54=1|60=20060217-10:00:00|38=4000|40=1|121=Y|120=xxx|10=113|
8=FIX.4.4|9=123|35=D|49=TESTI|56=TESTA|34=4|52=20030204-08:46:14|11=90001008|55=TESTB|54=1|60=20060217-10:00:00|38=4000|40=1|121=Y|120=-1|10=113|
8=FIX.4.4|9=123|35=D|49=TESTI|56=TESTA|34=4|52=20030204-08:46:14|11=90001008|55=TESTB|54=1|60=20060217-10:00:00|38=4000|40=1|121=Y|120=0|10=113|
8=FIX.4.4|9=140|35=1|34=104|49=SNDR|56=TRGT|52=20090407-09:48:19.812|112= TEST #030 CHECK 4 REJECT MSGS with INVALID MESSAGE - INCORRECT DATA TYPE [MsgType:_D, Tag:_120]|10=018|
8=FIX.4.4|9=123|35=D|49=TESTI|56=TESTA|34=4|50=30737|97=Y|52=20030204-08:46:14|11=90001008|55=TESTB|54=1|60=20060217-10:00:00|38=4000|40=1|121=y|10=113|
8=FIX.4.4|9=123|35=D|49=TESTI|56=TESTA|34=4|50=30737|97=Y|52=20030204-08:46:14|11=90001008|55=TESTB|54=1|60=20060217-10:00:00|38=4000|40=1|121=n|10=113|
8=FIX.4.4|9=123|35=D|49=TESTI|56=TESTA|34=4|50=30737|97=Y|52=20030204-08:46:14|11=90001008|55=TESTB|54=1|60=20060217-10:00:00|38=4000|40=1|121=-1|10=113|
8=FIX.4.4|9=123|35=D|49=TESTI|56=TESTA|34=4|50=30737|97=Y|52=20030204-08:46:14|11=90001008|55=TESTB|54=1|60=20060217-10:00:00|38=4000|40=1|121=0|10=113|
8=FIX.4.4|9=140|35=1|34=104|49=SNDR|56=TRGT|52=20090407-09:48:19.812|112= TEST #031 CHECK 4 REJECT MSGS with INVALID MESSAGE - INCORRECT DATA TYPE [MsgType:_D, Tag:_121]|10=018|
8=FIX.4.4|9=95|35=Q|49=TESTI|56=TESTA|34=4|52=20030204-09:28:44|37=01923883|17=11|127=a|55=TESTB|54=1|38=4000|10=031|
8=FIX.4.4|9=95|35=Q|49=TESTI|56=TESTA|34=4|52=20030204-09:28:44|37=01923883|17=11|127=z|55=TESTB|54=1|38=4000|10=031|
8=FIX.4.4|9=95|35=Q|49=TESTI|56=TESTA|34=4|52=20030204-09:28:44|37=01923883|17=11|127=0|55=TESTB|54=1|38=4000|10=031|
8=FIX.4.4|9=95|35=Q|49=TESTI|56=TESTA|34=4|52=20030204-09:28:44|37=01923883|17=11|127=-1|55=TESTB|54=1|38=4000|10=031|
8=FIX.4.4|9=140|35=1|34=104|49=SNDR|56=TRGT|52=20090407-09:48:19.812|112= TEST #032 CHECK 4 REJECT MSGS with INVALID MESSAGE - INCORRECT DATA TYPE [MsgType:_Q, Tag:_127]|10=018|
8=FIX.4.4|9=87|35=6|49=TESTI|56=TESTA|34=121|52=20030203-16:10:01|23=24|28=N|55=TESTB|54=1|27=S|130=y|10=142|
8=FIX.4.4|9=87|35=6|49=TESTI|56=TESTA|34=121|52=20030203-16:10:01|23=24|28=N|55=TESTB|54=1|27=S|130=n|10=142|
8=FIX.4.4|9=87|35=6|49=TESTI|56=TESTA|34=121|52=20030203-16:10:01|23=24|28=N|55=TESTB|54=1|27=S|130=-1|10=142|
8=FIX.4.4|9=87|35=6|49=TESTI|56=TESTA|34=121|52=20030203-16:10:01|23=24|28=N|55=TESTB|54=1|27=S|130=0|10=142|
8=FIX.4.4|9=140|35=1|34=104|49=SNDR|56=TRGT|52=20090407-09:48:19.812|112= TEST #033 CHECK 4 REJECT MSGS with INVALID MESSAGE - INCORRECT DATA TYPE [MsgType:_6, Tag:_130]|10=018|
8=FIX.4.4|9=120|35=8|49=TESTI|56=TESTA|34=114|52=20030203-16:09:30|37=11111111|17=11|39=0|150=0|55=TESTB|54=1|38=1000|151=1000|14=0|6=0|136=1|137=10|138=AfA|139=1|10=052|
8=FIX.4.4|9=120|35=8|49=TESTI|56=TESTA|34=114|52=20030203-16:09:30|37=11111111|17=11|39=0|150=0|55=TESTB|54=1|38=1000|151=1000|14=0|6=0|136=1|137=10|138=xxx|139=1|10=052|
8=FIX.4.4|9=120|35=8|49=TESTI|56=TESTA|34=114|52=20030203-16:09:30|37=11111111|17=11|39=0|150=0|55=TESTB|54=1|38=1000|151=1000|14=0|6=0|136=1|137=10|138=-1|139=1|10=052|
8=FIX.4.4|9=120|35=8|49=TESTI|56=TESTA|34=114|52=20030203-16:09:30|37=11111111|17=11|39=0|150=0|55=TESTB|54=1|38=1000|151=1000|14=0|6=0|136=1|137=10|138=0|139=1|10=052|
8=FIX.4.4|9=140|35=1|34=104|49=SNDR|56=TRGT|52=20090407-09:48:19.812|112= TEST #034 CHECK 4 REJECT MSGS with INVALID MESSAGE - INCORRECT DATA TYPE [MsgType:_8, Tag:_138]|10=018|
8=FIX.4.4|9=94|35=BA|49=TESTI|56=TESTA|34=4|52=20030204-08:46:14|908=0001|910=0|136=1|137=22|139=0|10=062|
8=FIX.4.4|9=94|35=BA|49=TESTI|56=TESTA|34=4|52=20030204-08:46:14|908=0001|910=0|136=1|137=22|139=-1|10=062|
8=FIX.4.4|9=94|35=BA|49=TESTI|56=TESTA|34=4|52=20030204-08:46:14|908=0001|910=0|136=1|137=22|139=A|10=062|
8=FIX.4.4|9=94|35=BA|49=TESTI|56=TESTA|34=4|52=20030204-08:46:14|908=0001|910=0|136=1|137=22|139=b|10=062|
8=FIX.4.4|9=140|35=1|34=104|49=SNDR|56=TRGT|52=20090407-09:48:19.812|112= TEST #035 CHECK 4 REJECT MSGS with INVALID MESSAGE - INCORRECT DATA TYPE [MsgType:_BA, Tag:_139]|10=018|
8=FIX.4.4|9=120|35=8|49=TESTI|56=TESTA|34=114|52=20030203-16:09:30|37=11111111|17=11|39=0|150=-1|55=TESTB|54=1|38=1000|151=1000|14=0|6=0|10=052|
8=FIX.4.4|9=120|35=8|49=TESTI|56=TESTA|34=114|52=20030203-16:09:30|37=11111111|17=11|39=0|150=10|55=TESTB|54=1|38=1000|151=1000|14=0|6=0|10=052|
8=FIX.4.4|9=120|35=8|49=TESTI|56=TESTA|34=114|52=20030203-16:09:30|37=11111111|17=11|39=0|150=a|55=TESTB|54=1|38=1000|151=1000|14=0|6=0|10=052|
8=FIX.4.4|9=120|35=8|49=TESTI|56=TESTA|34=114|52=20030203-16:09:30|37=11111111|17=11|39=0|150=K|55=TESTB|54=1|38=1000|151=1000|14=0|6=0|10=052|
8=FIX.4.4|9=140|35=1|34=104|49=SNDR|56=TRGT|52=20090407-09:48:19.812|112= TEST #036 CHECK 4 REJECT MSGS with INVALID MESSAGE - INCORRECT DATA TYPE [MsgType:_8, Tag:_150]|10=018|
8=FIX.4.4|9=120|35=8|49=TESTI|56=TESTA|34=114|52=20030203-16:09:30|37=11111111|17=11|39=0|150=0|55=TESTB|54=1|38=1000|151=1000|14=0|6=0|156=m|10=052|
8=FIX.4.4|9=120|35=8|49=TESTI|56=TESTA|34=114|52=20030203-16:09:30|37=11111111|17=11|39=0|150=0|55=TESTB|54=1|38=1000|151=1000|14=0|6=0|156=d|10=052|
8=FIX.4.4|9=120|35=8|49=TESTI|56=TESTA|34=114|52=20030203-16:09:30|37=11111111|17=11|39=0|150=0|55=TESTB|54=1|38=1000|151=1000|14=0|6=0|156=-1|10=052|
8=FIX.4.4|9=120|35=8|49=TESTI|56=TESTA|34=114|52=20030203-16:09:30|37=11111111|17=11|39=0|150=0|55=TESTB|54=1|38=1000|151=1000|14=0|6=0|156=0|10=052|
8=FIX.4.4|9=140|35=1|34=104|49=SNDR|56=TRGT|52=20090407-09:48:19.812|112= TEST #037 CHECK 4 REJECT MSGS with INVALID MESSAGE - INCORRECT DATA TYPE [MsgType:_8, Tag:_156]|10=018|
8=FIX.4.4|9=95|35=T|49=TESTI|56=TESTA|34=14|52=20030204-09:25:43|777=112233|160=0|792=99|60=20060217-10:00:00|10=211|
8=FIX.4.4|9=95|35=T|49=TESTI|56=TESTA|34=14|52=20030204-09:25:43|777=112233|160=-1|792=99|60=20060217-10:00:00|10=211|
8=FIX.4.4|9=95|35=T|49=TESTI|56=TESTA|34=14|52=20030204-09:25:43|777=112233|160=A|792=99|60=20060217-10:00:00|10=211|
8=FIX.4.4|9=95|35=T|49=TESTI|56=TESTA|34=14|52=20030204-09:25:43|777=112233|160=b|792=99|60=20060217-10:00:00|10=211|
8=FIX.4.4|9=140|35=1|34=104|49=SNDR|56=TRGT|52=20090407-09:48:19.812|112= TEST #038 CHECK 4 REJECT MSGS with INVALID MESSAGE - INCORRECT DATA TYPE [MsgType:_T, Tag:_160]|10=018|
8=FIX.4.4|9=118|35=T|49=TESTI|56=TESTA|34=14|52=20030204-09:25:43|777=112233|160=5|792=99|60=20060217-10:00:00|778=1|162=100001|163=n|10=057|
8=FIX.4.4|9=118|35=T|49=TESTI|56=TESTA|34=14|52=20030204-09:25:43|777=112233|160=5|792=99|60=20060217-10:00:00|778=1|162=100001|163=t|10=057|
8=FIX.4.4|9=118|35=T|49=TESTI|56=TESTA|34=14|52=20030204-09:25:43|777=112233|160=5|792=99|60=20060217-10:00:00|778=1|162=100001|163=0|10=057|
8=FIX.4.4|9=118|35=T|49=TESTI|56=TESTA|34=14|52=20030204-09:25:43|777=112233|160=5|792=99|60=20060217-10:00:00|778=1|162=100001|163=-1|10=057|
8=FIX.4.4|9=140|35=1|34=104|49=SNDR|56=TRGT|52=20090407-09:48:19.812|112= TEST #039 CHECK 4 REJECT MSGS with INVALID MESSAGE - INCORRECT DATA TYPE [MsgType:_T, Tag:_163]|10=018|
8=FIX.4.4|9=153|35=AY|49=TESTI|56=TESTA|34=4|52=20030204-08:46:14|902=0001|895=0|903=0|60=20060217-10:00:00|172=1|85=1|165=0|787=C|781=1|782=TST782|783=8|784=1|10=210|
8=FIX.4.4|9=153|35=AY|49=TESTI|56=TESTA|34=4|52=20030204-08:46:14|902=0001|895=0|903=0|60=20060217-10:00:00|172=1|85=1|165=-1|787=C|781=1|782=TST782|783=8|784=1|10=210|
8=FIX.4.4|9=153|35=AY|49=TESTI|56=TESTA|34=4|52=20030204-08:46:14|902=0001|895=0|903=0|60=20060217-10:00:00|172=1|85=1|165=A|787=C|781=1|782=TST782|783=8|784=1|10=210|
8=FIX.4.4|9=153|35=AY|49=TESTI|56=TESTA|34=4|52=20030204-08:46:14|902=0001|895=0|903=0|60=20060217-10:00:00|172=1|85=1|165=b|787=C|781=1|782=TST782|783=8|784=1|10=210|
8=FIX.4.4|9=140|35=1|34=104|49=SNDR|56=TRGT|52=20090407-09:48:19.812|112= TEST #040 CHECK 4 REJECT MSGS with INVALID MESSAGE - INCORRECT DATA TYPE [MsgType:_AY, Tag:_165]|10=018|
8=FIX.4.4|9=67|35=v|49=TESTI|56=TESTA|34=14|52=20030204-09:25:43|320=11223|167=ba|10=188|
8=FIX.4.4|9=68|35=v|49=TESTI|56=TESTA|34=14|52=20030204-09:25:43|320=11223|167=aBS|10=016|
8=FIX.4.4|9=69|35=v|49=TESTI|56=TESTA|34=14|52=20030204-09:25:43|320=11223|167=0|10=096|
8=FIX.4.4|9=70|35=v|49=TESTI|56=TESTA|34=14|52=20030204-09:25:43|320=11223|167=-1|10=165|
8=FIX.4.4|9=140|35=1|34=104|49=SNDR|56=TRGT|52=20090407-09:48:19.812|112= TEST #041 CHECK 4 REJECT MSGS with INVALID MESSAGE - INCORRECT DATA TYPE [MsgType:_v, Tag:_167]|10=018|
8=FIX.4.4|9=86|35=BA|49=TESTI|56=TESTA|34=4|52=20030204-08:46:14|908=0001|910=0|172=1|169=5|10=216|
8=FIX.4.4|9=86|35=BA|49=TESTI|56=TESTA|34=4|52=20030204-08:46:14|908=0001|910=0|172=1|169=-1|10=216|
8=FIX.4.4|9=86|35=BA|49=TESTI|56=TESTA|34=4|52=20030204-08:46:14|908=0001|910=0|172=1|169=A|10=216|
8=FIX.4.4|9=86|35=BA|49=TESTI|56=TESTA|34=4|52=20030204-08:46:14|908=0001|910=0|172=1|169=b|10=216|
8=FIX.4.4|9=140|35=1|34=104|49=SNDR|56=TRGT|52=20090407-09:48:19.812|112= TEST #042 CHECK 4 REJECT MSGS with INVALID MESSAGE - INCORRECT DATA TYPE [MsgType:_BA, Tag:_169]|10=018|
8=FIX.4.4|9=143|35=AS|49=TESTI|56=TESTA|34=4|52=20030204-08:46:14|755=0001|71=0|794=5|87=0|197=2|857=0|54=2|55=TESTB|53=10000|6=10.5|75=20060217|10=240|
8=FIX.4.4|9=143|35=AS|49=TESTI|56=TESTA|34=4|52=20030204-08:46:14|755=0001|71=0|794=5|87=0|197=-1|857=0|54=2|55=TESTB|53=10000|6=10.5|75=20060217|10=240|
8=FIX.4.4|9=143|35=AS|49=TESTI|56=TESTA|34=4|52=20030204-08:46:14|755=0001|71=0|794=5|87=0|197=A|857=0|54=2|55=TESTB|53=10000|6=10.5|75=20060217|10=240|
8=FIX.4.4|9=143|35=AS|49=TESTI|56=TESTA|34=4|52=20030204-08:46:14|755=0001|71=0|794=5|87=0|197=b|857=0|54=2|55=TESTB|53=10000|6=10.5|75=20060217|10=240|
8=FIX.4.4|9=140|35=1|34=104|49=SNDR|56=TRGT|52=20090407-09:48:19.812|112= TEST #043 CHECK 4 REJECT MSGS with INVALID MESSAGE - INCORRECT DATA TYPE [MsgType:_AS, Tag:_197]|10=018|
