8=FIXT.1.1|9=112|35=7|1128=8|49=TESTI|56=TESTA|34=101|52=20080816-12:11:02|2=20002|5=N|55=IBM|1079=13:09:01+05:30|4=B|53=1000000|10=098|