8=FIXT.1.1|9=130|35=V|49=SNDR_50|56=TRGT_50|34=3|52=20100323-15:07:02.665|262=11223|263=0|264=0|267=2|269=0|269=1|146=1|55=TESTA|63=1|200=20081111|10=236|
8=FIXT.1.1|9=130|35=V|49=SNDR_50|56=TRGT_50|34=4|52=20100323-15:07:02.665|262=11223|263=0|264=0|267=2|269=0|269=1|146=1|55=TESTA|63=1|200=200811w1|10=051|
8=FIXT.1.1|9=130|35=V|49=SNDR_50|56=TRGT_50|34=5|52=20100323-15:07:02.665|262=11223|263=0|264=0|267=2|269=0|269=1|146=1|55=TESTA|63=1|200=200811w2|10=053|
8=FIXT.1.1|9=130|35=V|49=SNDR_50|56=TRGT_50|34=6|52=20100323-15:07:02.665|262=11223|263=0|264=0|267=2|269=0|269=1|146=1|55=TESTA|63=1|200=200811w3|10=055|
8=FIXT.1.1|9=130|35=V|49=SNDR_50|56=TRGT_50|34=7|52=20100323-15:07:02.665|262=11223|263=0|264=0|267=2|269=0|269=1|146=1|55=TESTA|63=1|200=200811w4|10=057|
8=FIXT.1.1|9=130|35=V|49=SNDR_50|56=TRGT_50|34=8|52=20100323-15:07:02.680|262=11223|263=0|264=0|267=2|269=0|269=1|146=1|55=TESTA|63=1|200=200811w5|10=056|