8=FIX.4.3|9=100|35=k|49=SNDR|56=TRGT|34=7|52=20090401-13:21:22.824|391=20012411|374=N|393=2|394=3|398=1|418=A|419=4|10=157|
8=FIX.4.3|9=140|35=1|34=104|49=SNDR|56=TRGT|52=20090407-09:48:19.812|112=  CHECK REJECT MSG with INVALID MESSAGE - REQUIRED TAG MISSING [MsgType:_k, Tag:_399]|10=018|
8=FIX.4.3|9=100|35=k|49=SNDR|56=TRGT|34=8|52=20090401-13:21:22.824|391=20012411|374=N|393=2|394=3|420=1|418=A|419=4|10=144|
8=FIX.4.3|9=140|35=1|34=104|49=SNDR|56=TRGT|52=20090407-09:48:19.812|112=  CHECK REJECT MSG with INVALID MESSAGE - REQUIRED TAG MISSING [MsgType:_k, Tag:_66]|10=018|
8=FIX.4.3|9=115|35=k|49=SNDR|56=TRGT|34=10|52=20090401-13:21:22.824|391=20012411|374=N|393=2|394=3|420=1|66=00066|63=6|418=A|419=4|10=066|
8=FIX.4.3|9=140|35=1|34=104|49=SNDR|56=TRGT|52=20090407-09:48:19.812|112=  CHECK REJECT MSG with INVALID MESSAGE - REQUIRED TAG MISSING [MsgType:_k, Tag:_64]|10=018|
8=FIX.4.3|9=73|35=o|49=SNDR|56=TRGT|34=11|52=20090401-13:21:22.824|513=3659000001|514=1|10=142|
8=FIX.4.3|9=140|35=1|34=104|49=SNDR|56=TRGT|52=20090407-09:48:19.812|112=  CHECK REJECT MSG with INVALID MESSAGE - REQUIRED TAG MISSING [MsgType:_o, Tag:_508]|10=018|
8=FIX.4.3|9=73|35=o|49=SNDR|56=TRGT|34=11|52=20090401-13:21:22.824|513=3659000001|514=0|473=1|10=142|
8=FIX.4.3|9=140|35=1|34=104|49=SNDR|56=TRGT|52=20090407-09:48:19.812|112=  CHECK REJECT MSG with INVALID MESSAGE - REQUIRED TAG MISSING [MsgType:_o, Tag:_509]|10=018|
8=FIX.4.3|9=73|35=o|49=SNDR|56=TRGT|34=11|52=20090401-13:21:22.824|513=3659000001|514=0|510=1|10=142|
8=FIX.4.3|9=140|35=1|34=104|49=SNDR|56=TRGT|52=20090407-09:48:19.812|112=  CHECK REJECT MSG with INVALID MESSAGE - REQUIRED TAG MISSING [MsgType:_o, Tag:_477]|10=018|
8=FIX.4.3|9=79|35=p|49=SNDR|56=TRGT|34=12|52=20090401-13:21:22.824|513=3659000001|514=1|506=A|10=176|
8=FIX.4.3|9=140|35=1|34=104|49=SNDR|56=TRGT|52=20090407-09:48:19.812|112=  CHECK REJECT MSG with INVALID MESSAGE - REQUIRED TAG MISSING [MsgType:_p, Tag:_508]|10=018|
8=FIX.4.3|9=75|35=r|49=SNDR|56=TRGT|34=13|52=20090401-13:21:22.824|37=4511223|530=7|531=0|10=219|
8=FIX.4.3|9=140|35=1|34=104|49=SNDR|56=TRGT|52=20090407-09:48:19.812|112=  CHECK REJECT MSG with INVALID MESSAGE - REQUIRED TAG MISSING [MsgType:_r, Tag:_532]|10=018|
8=FIX.4.3|9=75|35=r|49=SNDR|56=TRGT|34=13|52=20090401-13:21:22.824|37=4511223|530=7|531=1|534=1|10=219|
8=FIX.4.3|9=140|35=1|34=104|49=SNDR|56=TRGT|52=20090407-09:48:19.812|112=  CHECK REJECT MSG with INVALID MESSAGE - REQUIRED TAG MISSING [MsgType:_r, Tag:_41]|10=018|
