8=FIX.4.3|9=81|35=6|49=SNDR|56=TRGT|34=2|52=20090401-13:16:05.777|23=24|28=C|55=TESTB|54=1|27=S|10=072|
8=FIX.4.3|9=140|35=1|34=104|49=SNDR|56=TRGT|52=20090407-09:48:19.812|112=  CHECK REJECT MSG with INVALID MESSAGE - REQUIRED TAG MISSING [MsgType:_6, Tag:_26]|10=018|
8=FIX.4.3|9=81|35=6|49=SNDR|56=TRGT|34=2|52=20090401-13:16:05.777|23=24|28=N|55=TESTB|54=1|27=S|199=1|10=072|
8=FIX.4.3|9=140|35=1|34=104|49=SNDR|56=TRGT|52=20090407-09:48:19.812|112=  CHECK REJECT MSG with INVALID MESSAGE - REQUIRED TAG MISSING [MsgType:_6, Tag:_104]|10=018|
8=FIX.4.3|9=81|35=6|49=SNDR|56=TRGT|34=2|52=20090401-13:16:05.777|23=24|28=N|55=TESTB|54=1|27=S|215=1|10=072|
8=FIX.4.3|9=140|35=1|34=104|49=SNDR|56=TRGT|52=20090407-09:48:19.812|112=  CHECK REJECT MSG with INVALID MESSAGE - REQUIRED TAG MISSING [MsgType:_6, Tag:_216]|10=018|
8=FIX.4.3|9=87|35=6|49=SNDR|56=TRGT|34=3|52=20090401-13:16:05.777|23=24|28=N|55=TESTB|54=1|27=S|354=2|10=102|
8=FIX.4.3|9=140|35=1|34=104|49=SNDR|56=TRGT|52=20090407-09:48:19.812|112=  CHECK REJECT MSG with INVALID MESSAGE - REQUIRED TAG MISSING [MsgType:_6, Tag:_355]|10=018|
8=FIX.4.3|9=84|35=7|49=SNDR|56=TRGT|34=4|52=20090401-13:16:05.777|2=20|5=R|55=TESTB|4=T|53=1000000|10=220|
8=FIX.4.3|9=140|35=1|34=104|49=SNDR|56=TRGT|52=20090407-09:48:19.812|112=  CHECK REJECT MSG with INVALID MESSAGE - REQUIRED TAG MISSING [MsgType:_7, Tag:_3]|10=018|
