8=FIX.4.3|9=81|35=6|49=SNDR|56=TRGT|34=2|52=20090401-13:16:05.777|23=24|28=C|55=TESTB|54=1|27=S|10=072|
8=FIX.4.3|9=140|35=1|34=104|49=SNDR|56=TRGT|52=20090407-09:48:19.812|112=  CHECK REJECT MSG with INVALID MESSAGE - REQUIRED TAG MISSING [MsgType:_6, Tag:_26]|10=018|
8=FIX.4.3|9=81|35=6|49=SNDR|56=TRGT|34=2|52=20090401-13:16:05.777|23=24|28=N|55=TESTB|54=1|27=S|199=1|10=072|
8=FIX.4.3|9=140|35=1|34=104|49=SNDR|56=TRGT|52=20090407-09:48:19.812|112=  CHECK REJECT MSG with INVALID MESSAGE - REQUIRED TAG MISSING [MsgType:_6, Tag:_104]|10=018|
8=FIX.4.3|9=81|35=6|49=SNDR|56=TRGT|34=2|52=20090401-13:16:05.777|23=24|28=N|55=TESTB|54=1|27=S|215=1|10=072|
8=FIX.4.3|9=140|35=1|34=104|49=SNDR|56=TRGT|52=20090407-09:48:19.812|112=  CHECK REJECT MSG with INVALID MESSAGE - REQUIRED TAG MISSING [MsgType:_6, Tag:_216]|10=018|
8=FIX.4.3|9=87|35=6|49=SNDR|56=TRGT|34=3|52=20090401-13:16:05.777|23=24|28=N|55=TESTB|54=1|27=S|354=2|10=102|
8=FIX.4.3|9=140|35=1|34=104|49=SNDR|56=TRGT|52=20090407-09:48:19.812|112=  CHECK REJECT MSG with INVALID MESSAGE - REQUIRED TAG MISSING [MsgType:_6, Tag:_355]|10=018|
8=FIX.4.3|9=84|35=7|49=SNDR|56=TRGT|34=4|52=20090401-13:16:05.777|2=20|5=R|55=TESTB|4=T|53=1000000|10=220|
8=FIX.4.3|9=140|35=1|34=104|49=SNDR|56=TRGT|52=20090407-09:48:19.812|112=  CHECK REJECT MSG with INVALID MESSAGE - REQUIRED TAG MISSING [MsgType:_7, Tag:_3]|10=018|
8=FIX.4.3|9=120|35=8|49=SNDR|56=TRGT|34=5|52=20090401-13:17:58.371|37=11111111|17=11|39=0|150=4|55=TESTB|54=1|38=1000|151=1000|14=0|6=0|10=025|
8=FIX.4.3|9=140|35=1|34=104|49=SNDR|56=TRGT|52=20090407-09:48:19.812|112=  CHECK REJECT MSG with INVALID MESSAGE - REQUIRED TAG MISSING [MsgType:_8, Tag:_41]|10=018|
8=FIX.4.3|9=120|35=8|49=SNDR|56=TRGT|34=6|52=20090401-13:17:58.371|37=11111111|17=11|39=0|150=G|55=TESTB|54=1|38=1000|151=1000|14=0|6=0|10=045|
8=FIX.4.3|9=140|35=1|34=104|49=SNDR|56=TRGT|52=20090407-09:48:19.812|112=  CHECK REJECT MSG with INVALID MESSAGE - REQUIRED TAG MISSING [MsgType:_8, Tag:_19]|10=018|
8=FIX.4.3|9=120|35=8|49=SNDR|56=TRGT|34=7|52=20090401-13:17:58.371|37=11111111|17=11|39=0|150=D|55=TESTB|54=1|38=1000|151=1000|14=0|6=0|10=043|
8=FIX.4.3|9=140|35=1|34=104|49=SNDR|56=TRGT|52=20090407-09:48:19.812|112=  CHECK REJECT MSG with INVALID MESSAGE - REQUIRED TAG MISSING [MsgType:_8, Tag:_378]|10=018|
8=FIX.4.3|9=128|35=8|49=SNDR|56=TRGT|34=8|52=20090401-13:17:58.387|37=11111111|17=11|39=0|150=0|55=TESTB|54=1|38=1000|151=1000|14=0|6=0|389=0.1|10=152|
8=FIX.4.3|9=140|35=1|34=104|49=SNDR|56=TRGT|52=20090407-09:48:19.812|112=  CHECK REJECT MSG with INVALID MESSAGE - REQUIRED TAG MISSING [MsgType:_8, Tag:_388]|10=018|
8=FIX.4.3|9=120|35=8|49=SNDR|56=TRGT|34=9|52=20090401-13:17:58.387|37=11111111|17=11|39=0|150=F|55=TESTB|54=1|38=1000|151=1000|14=0|6=0|10=054|
8=FIX.4.3|9=140|35=1|34=104|49=SNDR|56=TRGT|52=20090407-09:48:19.812|112=  CHECK REJECT MSG with INVALID MESSAGE - REQUIRED TAG MISSING [MsgType:_8, Tag:_32]|10=018|
8=FIX.4.3|9=127|35=8|49=SNDR|56=TRGT|34=10|52=20090401-13:17:58.387|37=11111111|17=11|39=0|150=F|32=50|55=TESTB|54=1|38=1000|151=1000|14=0|6=0|10=109|
8=FIX.4.3|9=140|35=1|34=104|49=SNDR|56=TRGT|52=20090407-09:48:19.812|112=  CHECK REJECT MSG with INVALID MESSAGE - REQUIRED TAG MISSING [MsgType:_8, Tag:_31]|10=018|
8=FIX.4.3|9=120|35=8|49=SNDR|56=TRGT|34=5|52=20090401-13:17:58.371|37=11111111|17=11|39=0|150=0|55=TESTB|54=1|38=1000|151=1000|14=0|6=0|555=1|10=025|
8=FIX.4.3|9=140|35=1|34=104|49=SNDR|56=TRGT|52=20090407-09:48:19.812|112=  CHECK REJECT MSG with INVALID MESSAGE - REQUIRED TAG MISSING [MsgType:_8, Tag:_600]|10=018|
8=FIX.4.3|9=120|35=8|49=SNDR|56=TRGT|34=5|52=20090401-13:17:58.371|37=11111111|17=11|39=0|150=0|55=TESTB|54=1|38=1000|151=1000|14=0|6=0|555=1|600=000600|604=1|10=025|
8=FIX.4.3|9=140|35=1|34=104|49=SNDR|56=TRGT|52=20090407-09:48:19.812|112=  CHECK REJECT MSG with INVALID MESSAGE - REQUIRED TAG MISSING [MsgType:_8, Tag:_605]|10=018|
8=FIX.4.3|9=120|35=8|49=SNDR|56=TRGT|34=5|52=20090401-13:17:58.371|37=11111111|17=11|39=0|150=0|55=TESTB|54=1|38=1000|151=1000|14=0|6=0|555=1|600=000600|618=2|10=025|
8=FIX.4.3|9=140|35=1|34=104|49=SNDR|56=TRGT|52=20090407-09:48:19.812|112=  CHECK REJECT MSG with INVALID MESSAGE - REQUIRED TAG MISSING [MsgType:_8, Tag:_619]|10=018|
8=FIX.4.3|9=120|35=8|49=SNDR|56=TRGT|34=5|52=20090401-13:17:58.371|37=11111111|17=11|39=0|150=0|55=TESTB|54=1|38=1000|151=1000|14=0|6=0|555=1|600=000600|621=2|10=025|
8=FIX.4.3|9=140|35=1|34=104|49=SNDR|56=TRGT|52=20090407-09:48:19.812|112=  CHECK REJECT MSG with INVALID MESSAGE - REQUIRED TAG MISSING [MsgType:_8, Tag:_622]|10=018|
8=FIX.4.3|9=99|35=b|49=SNDR|56=TRGT|34=2|52=20030204-09:25:43|297=0|296=1|302=0001|311=TESTB|295=1|10=066|
8=FIX.4.3|9=140|35=1|34=104|49=SNDR|56=TRGT|52=20090407-09:48:19.812|112=  CHECK REJECT MSG with INVALID MESSAGE - REQUIRED TAG MISSING [MsgType:_b, Tag:_304]|10=018|
8=FIX.4.3|9=99|35=b|49=SNDR|56=TRGT|34=2|52=20030204-09:25:43|297=0|296=1|302=0001|311=TESTB|304=1|295=1|10=066|
8=FIX.4.3|9=140|35=1|34=104|49=SNDR|56=TRGT|52=20090407-09:48:19.812|112=  CHECK REJECT MSG with INVALID MESSAGE - REQUIRED TAG MISSING [MsgType:_b, Tag:_299]|10=018|
8=FIX.4.3|9=99|35=b|49=SNDR|56=TRGT|34=2|52=20030204-09:25:43|297=0|296=1|302=0001|311=TESTB|304=1|295=1|299=000299|10=066|
8=FIX.4.3|9=140|35=1|34=104|49=SNDR|56=TRGT|52=20090407-09:48:19.812|112=  CHECK REJECT MSG with INVALID MESSAGE - REQUIRED TAG MISSING [MsgType:_b, Tag:_132]|10=018|
8=FIX.4.3|9=64|35=c|49=SNDR|56=TRGT|34=2|52=20030204-09:25:43|320=0001|321=0|555=1|600=000600|618=2|10=222|
8=FIX.4.3|9=140|35=1|34=104|49=SNDR|56=TRGT|52=20090407-09:48:19.812|112=  CHECK REJECT MSG with INVALID MESSAGE - REQUIRED TAG MISSING [MsgType:_c, Tag:_619]|10=018|
8=FIX.4.3|9=64|35=c|49=SNDR|56=TRGT|34=2|52=20030204-09:25:43|320=0001|321=0|555=1|600=000600|621=2|10=222|
8=FIX.4.3|9=140|35=1|34=104|49=SNDR|56=TRGT|52=20090407-09:48:19.812|112=  CHECK REJECT MSG with INVALID MESSAGE - REQUIRED TAG MISSING [MsgType:_c, Tag:_622]|10=018|
8=FIX.4.3|9=84|35=e|49=SNDR|56=TRGT|34=2|52=20090401-13:20:37.949|324=0001|55=TESTB|48=00048|263=0|10=252|
8=FIX.4.3|9=140|35=1|34=104|49=SNDR|56=TRGT|52=20090407-09:48:19.812|112=  CHECK REJECT MSG with INVALID MESSAGE - REQUIRED TAG MISSING [MsgType:_e, Tag:_22]|10=018|
8=FIX.4.3|9=81|35=e|49=SNDR|56=TRGT|34=3|52=20090401-13:20:37.949|324=0001|55=TESTB|454=1|263=0|10=096|
8=FIX.4.3|9=140|35=1|34=104|49=SNDR|56=TRGT|52=20090407-09:48:19.812|112=  CHECK REJECT MSG with INVALID MESSAGE - REQUIRED TAG MISSING [MsgType:_e, Tag:_455]|10=018|
8=FIX.4.3|9=92|35=e|49=SNDR|56=TRGT|34=4|52=20090401-13:20:37.949|324=0001|55=TESTB|454=1|455=000455|263=0|10=109|
8=FIX.4.3|9=140|35=1|34=104|49=SNDR|56=TRGT|52=20090407-09:48:19.812|112=  CHECK REJECT MSG with INVALID MESSAGE - REQUIRED TAG MISSING [MsgType:_e, Tag:_456]|10=018|
8=FIX.4.3|9=81|35=e|49=SNDR|56=TRGT|34=5|52=20090401-13:20:37.949|324=0001|55=TESTB|348=5|263=0|10=104|
8=FIX.4.3|9=140|35=1|34=104|49=SNDR|56=TRGT|52=20090407-09:48:19.812|112=  CHECK REJECT MSG with INVALID MESSAGE - REQUIRED TAG MISSING [MsgType:_e, Tag:_349]|10=018|
8=FIX.4.3|9=81|35=e|49=SNDR|56=TRGT|34=6|52=20090401-13:20:37.949|324=0001|55=TESTB|350=5|263=0|10=098|
8=FIX.4.3|9=140|35=1|34=104|49=SNDR|56=TRGT|52=20090407-09:48:19.812|112=  CHECK REJECT MSG with INVALID MESSAGE - REQUIRED TAG MISSING [MsgType:_e, Tag:_351]|10=018|
8=FIX.4.3|9=100|35=k|49=SNDR|56=TRGT|34=7|52=20090401-13:21:22.824|391=20012411|374=N|393=2|394=3|398=1|418=A|419=4|10=157|
8=FIX.4.3|9=140|35=1|34=104|49=SNDR|56=TRGT|52=20090407-09:48:19.812|112=  CHECK REJECT MSG with INVALID MESSAGE - REQUIRED TAG MISSING [MsgType:_k, Tag:_399]|10=018|
8=FIX.4.3|9=100|35=k|49=SNDR|56=TRGT|34=8|52=20090401-13:21:22.824|391=20012411|374=N|393=2|394=3|420=1|418=A|419=4|10=144|
8=FIX.4.3|9=140|35=1|34=104|49=SNDR|56=TRGT|52=20090407-09:48:19.812|112=  CHECK REJECT MSG with INVALID MESSAGE - REQUIRED TAG MISSING [MsgType:_k, Tag:_66]|10=018|
8=FIX.4.3|9=115|35=k|49=SNDR|56=TRGT|34=10|52=20090401-13:21:22.824|391=20012411|374=N|393=2|394=3|420=1|66=00066|63=6|418=A|419=4|10=066|
8=FIX.4.3|9=140|35=1|34=104|49=SNDR|56=TRGT|52=20090407-09:48:19.812|112=  CHECK REJECT MSG with INVALID MESSAGE - REQUIRED TAG MISSING [MsgType:_k, Tag:_64]|10=018|
8=FIX.4.3|9=73|35=o|49=SNDR|56=TRGT|34=11|52=20090401-13:21:22.824|513=3659000001|514=1|10=142|
8=FIX.4.3|9=140|35=1|34=104|49=SNDR|56=TRGT|52=20090407-09:48:19.812|112=  CHECK REJECT MSG with INVALID MESSAGE - REQUIRED TAG MISSING [MsgType:_o, Tag:_508]|10=018|
8=FIX.4.3|9=73|35=o|49=SNDR|56=TRGT|34=11|52=20090401-13:21:22.824|513=3659000001|514=0|473=1|10=142|
8=FIX.4.3|9=140|35=1|34=104|49=SNDR|56=TRGT|52=20090407-09:48:19.812|112=  CHECK REJECT MSG with INVALID MESSAGE - REQUIRED TAG MISSING [MsgType:_o, Tag:_509]|10=018|
8=FIX.4.3|9=73|35=o|49=SNDR|56=TRGT|34=11|52=20090401-13:21:22.824|513=3659000001|514=0|510=1|10=142|
8=FIX.4.3|9=140|35=1|34=104|49=SNDR|56=TRGT|52=20090407-09:48:19.812|112=  CHECK REJECT MSG with INVALID MESSAGE - REQUIRED TAG MISSING [MsgType:_o, Tag:_477]|10=018|
8=FIX.4.3|9=79|35=p|49=SNDR|56=TRGT|34=12|52=20090401-13:21:22.824|513=3659000001|514=1|506=A|10=176|
8=FIX.4.3|9=140|35=1|34=104|49=SNDR|56=TRGT|52=20090407-09:48:19.812|112=  CHECK REJECT MSG with INVALID MESSAGE - REQUIRED TAG MISSING [MsgType:_p, Tag:_508]|10=018|
8=FIX.4.3|9=75|35=r|49=SNDR|56=TRGT|34=13|52=20090401-13:21:22.824|37=4511223|530=7|531=0|10=219|
8=FIX.4.3|9=140|35=1|34=104|49=SNDR|56=TRGT|52=20090407-09:48:19.812|112=  CHECK REJECT MSG with INVALID MESSAGE - REQUIRED TAG MISSING [MsgType:_r, Tag:_532]|10=018|
8=FIX.4.3|9=75|35=r|49=SNDR|56=TRGT|34=13|52=20090401-13:21:22.824|37=4511223|530=7|531=1|534=1|10=219|
8=FIX.4.3|9=140|35=1|34=104|49=SNDR|56=TRGT|52=20090407-09:48:19.812|112=  CHECK REJECT MSG with INVALID MESSAGE - REQUIRED TAG MISSING [MsgType:_r, Tag:_41]|10=018|
8=FIX.4.3|9=153|35=s|49=SNDR|56=TRGT|34=14|52=20090401-13:22:26.824|548=90001008|549=1|550=0|552=1|54=1|11=B101010|38=4000|121=Y|55=TESTA|21=1|60=20060217-10:00:00|40=1|10=193|
8=FIX.4.3|9=140|35=1|34=104|49=SNDR|56=TRGT|52=20090407-09:48:19.812|112=  CHECK REJECT MSG with INVALID MESSAGE - REQUIRED TAG MISSING [MsgType:_s, Tag:_120]|10=018|
8=FIX.4.3|9=147|35=s|49=SNDR|56=TRGT|34=15|52=20090401-13:22:26.824|548=90001008|549=1|550=0|552=1|54=1|11=B101010|38=4000|55=TESTA|21=1|60=20060217-10:00:00|40=2|10=155|
8=FIX.4.3|9=140|35=1|34=104|49=SNDR|56=TRGT|52=20090407-09:48:19.812|112=  CHECK REJECT MSG with INVALID MESSAGE - REQUIRED TAG MISSING [MsgType:_s, Tag:_44]|10=018|
8=FIX.4.3|9=147|35=s|49=SNDR|56=TRGT|34=16|52=20090401-13:22:26.824|548=90001008|549=1|550=0|552=1|54=1|11=B101010|38=4000|55=TESTA|21=1|60=20060217-10:00:00|40=3|10=157|
8=FIX.4.3|9=140|35=1|34=104|49=SNDR|56=TRGT|52=20090407-09:48:19.812|112=  CHECK REJECT MSG with INVALID MESSAGE - REQUIRED TAG MISSING [MsgType:_s, Tag:_99]|10=018|
8=FIX.4.3|9=147|35=s|49=SNDR|56=TRGT|34=17|52=20090401-13:22:26.824|548=90001008|549=1|550=0|552=1|54=1|11=B101010|38=4000|55=TESTA|21=1|60=20060217-10:00:00|40=D|10=175|
8=FIX.4.3|9=140|35=1|34=104|49=SNDR|56=TRGT|52=20090407-09:48:19.812|112=  CHECK REJECT MSG with INVALID MESSAGE - REQUIRED TAG MISSING [MsgType:_s, Tag:_117]|10=018|
8=FIX.4.3|9=147|35=s|49=SNDR|56=TRGT|34=18|52=20090401-13:22:26.824|548=90001008|549=1|550=0|552=1|54=1|11=B101010|38=4000|55=TESTA|21=1|60=20060217-10:00:00|40=E|10=177|
8=FIX.4.3|9=140|35=1|34=104|49=SNDR|56=TRGT|52=20090407-09:48:19.812|112=  CHECK REJECT MSG with INVALID MESSAGE - REQUIRED TAG MISSING [MsgType:_s, Tag:_23]|10=018|
8=FIX.4.3|9=147|35=s|49=SNDR|56=TRGT|34=18|52=20090401-13:22:26.824|548=90001008|549=1|550=0|552=1|54=1|11=B101010|78=1|79=00079|539=1|38=4000|55=TESTA|21=1|60=20060217-10:00:00|40=1|10=177|
8=FIX.4.3|9=140|35=1|34=104|49=SNDR|56=TRGT|52=20090407-09:48:19.812|112=  CHECK REJECT MSG with INVALID MESSAGE - REQUIRED TAG MISSING [MsgType:_s, Tag:_524]|10=018|
8=FIX.4.3|9=147|35=s|49=SNDR|56=TRGT|34=18|52=20090401-13:22:26.824|548=90001008|549=1|550=0|552=1|54=1|11=B101010|78=1|79=00079|539=1|524=000524|38=4000|55=TESTA|21=1|60=20060217-10:00:00|40=1|10=177|
8=FIX.4.3|9=140|35=1|34=104|49=SNDR|56=TRGT|52=20090407-09:48:19.812|112=  CHECK REJECT MSG with INVALID MESSAGE - REQUIRED TAG MISSING [MsgType:_s, Tag:_525]|10=018|
8=FIX.4.3|9=147|35=s|49=SNDR|56=TRGT|34=18|52=20090401-13:22:26.824|548=90001008|549=1|550=0|552=1|54=1|11=B101010|38=4000|55=TESTA|21=1|386=1|60=20060217-10:00:00|40=1|10=177|
8=FIX.4.3|9=140|35=1|34=104|49=SNDR|56=TRGT|52=20090407-09:48:19.812|112=  CHECK REJECT MSG with INVALID MESSAGE - REQUIRED TAG MISSING [MsgType:_s, Tag:_336]|10=018|
8=FIX.4.3|9=206|35=t|49=SNDR|56=TRGT|34=19|52=20090401-13:22:26.824|548=42444008|551=30001008|549=1|550=0|552=2|54=1|11=B202020|41=B101010|38=4000|54=2|11=S202020|41=S101010|78=1|38=5000|55=TESTA|60=20060217-10:00:00|40=1|10=157|
8=FIX.4.3|9=140|35=1|34=104|49=SNDR|56=TRGT|52=20090407-09:48:19.812|112=  CHECK REJECT MSG with INVALID MESSAGE - REQUIRED TAG MISSING [MsgType:_t, Tag:_79]|10=018|
8=FIX.4.3|9=206|35=t|49=SNDR|56=TRGT|34=19|52=20090401-13:22:26.824|548=42444008|551=30001008|549=1|550=0|552=2|54=1|11=B202020|41=B101010|38=4000|54=2|11=S202020|41=S101010|78=1|79=00079|539=1|38=5000|55=TESTA|60=20060217-10:00:00|40=1|10=157|
8=FIX.4.3|9=140|35=1|34=104|49=SNDR|56=TRGT|52=20090407-09:48:19.812|112=  CHECK REJECT MSG with INVALID MESSAGE - REQUIRED TAG MISSING [MsgType:_t, Tag:_524]|10=018|
8=FIX.4.3|9=206|35=t|49=SNDR|56=TRGT|34=19|52=20090401-13:22:26.824|548=42444008|551=30001008|549=1|550=0|552=2|54=1|11=B202020|41=B101010|38=4000|54=2|11=S202020|41=S101010|78=1|79=00079|539=1|524=000524|38=5000|55=TESTA|60=20060217-10:00:00|40=1|10=157|
8=FIX.4.3|9=140|35=1|34=104|49=SNDR|56=TRGT|52=20090407-09:48:19.812|112=  CHECK REJECT MSG with INVALID MESSAGE - REQUIRED TAG MISSING [MsgType:_t, Tag:_525]|10=018|
8=FIX.4.3|9=206|35=t|49=SNDR|56=TRGT|34=19|52=20090401-13:22:26.824|548=42444008|551=30001008|549=1|550=0|552=2|54=1|11=B202020|41=B101010|38=4000|54=2|11=S202020|41=S101010|78=1|79=00079|539=1|524=000524|525=000525|38=5000|55=TESTA|60=20060217-10:00:00|40=1|10=157|
8=FIX.4.3|9=140|35=1|34=104|49=SNDR|56=TRGT|52=20090407-09:48:19.812|112=  CHECK REJECT MSG with INVALID MESSAGE - REQUIRED TAG MISSING [MsgType:_t, Tag:_538]|10=018|
8=FIX.4.3|9=206|35=t|49=SNDR|56=TRGT|34=19|52=20090401-13:22:26.824|548=42444008|551=30001008|549=1|550=0|552=2|54=1|11=B202020|41=B101010|38=4000|54=2|11=S202020|41=S101010|38=5000|55=TESTA|60=20060217-10:00:00|40=1|59=6|10=157|
8=FIX.4.3|9=140|35=1|34=104|49=SNDR|56=TRGT|52=20090407-09:48:19.812|112=  CHECK REJECT MSG with INVALID MESSAGE - REQUIRED TAG MISSING [MsgType:_t, Tag:_432]|10=018|
8=FIX.4.3|9=84|35=w|49=SNDR|56=TRGT|34=20|52=20090401-13:22:26.824|320=11223|322=22115|323=1|558=1|10=121|
8=FIX.4.3|9=140|35=1|34=104|49=SNDR|56=TRGT|52=20090407-09:48:19.812|112=  CHECK REJECT MSG with INVALID MESSAGE - REQUIRED TAG MISSING [MsgType:_w, Tag:_167]|10=018|
8=FIX.4.3|9=152|35=B|49=SNDR|56=TRGT|34=21|52=20090401-13:23:38.183|148=Weather|358=10|33=4|58=In the evening |58=it might be wet |58=and windy.|58= Take your coat on.|10=048|
8=FIX.4.3|9=140|35=1|34=104|49=SNDR|56=TRGT|52=20090407-09:48:19.812|112=  CHECK REJECT MSG with INVALID MESSAGE - REQUIRED TAG MISSING [MsgType:_B, Tag:_359]|10=018|
8=FIX.4.3|9=150|35=B|49=SNDR|56=TRGT|34=22|52=20090401-13:23:38.183|148=Weather|33=4|58=In the evening |58=it might be wet |58=and windy.|58= Take your coat on.|95=2|10=206|
8=FIX.4.3|9=140|35=1|34=104|49=SNDR|56=TRGT|52=20090407-09:48:19.812|112=  CHECK REJECT MSG with INVALID MESSAGE - REQUIRED TAG MISSING [MsgType:_B, Tag:_96]|10=018|
8=FIX.4.3|9=157|35=C|49=SNDR|56=TRGT|34=23|52=20090401-13:23:38.183|164=111111111|94=0|147=Bunny's Birthday|356=10|33=3|58=Hello, Bunny!|58=Happy Birthday to you :)|58=Bye.|10=055|
8=FIX.4.3|9=140|35=1|34=104|49=SNDR|56=TRGT|52=20090407-09:48:19.812|112=  CHECK REJECT MSG with INVALID MESSAGE - REQUIRED TAG MISSING [MsgType:_C, Tag:_357]|10=018|
8=FIX.4.3|9=155|35=C|49=SNDR|56=TRGT|34=24|52=20090401-13:23:38.183|164=111111111|94=0|147=Bunny's Birthday|33=3|58=Hello, Bunny!|58=Happy Birthday to you :)|58=Bye.|95=2|10=215|
8=FIX.4.3|9=140|35=1|34=104|49=SNDR|56=TRGT|52=20090407-09:48:19.812|112=  CHECK REJECT MSG with INVALID MESSAGE - REQUIRED TAG MISSING [MsgType:_C, Tag:_96]|10=018|
8=FIX.4.3|9=201|35=J|49=SNDR|56=TRGT|34=2|52=20030204-08:56:41|70=1116226|71=1|626=1|73=2|11=90001008|11=90000008|54=1|55=TESTB|53=1004000|6=30|75=20030821|78=3|79=1000|80=500000|79=2000|80=400000|79=3000|80=104000|10=029|
8=FIX.4.3|9=140|35=1|34=104|49=SNDR|56=TRGT|52=20090407-09:48:19.812|112=  CHECK REJECT MSG with INVALID MESSAGE - REQUIRED TAG MISSING [MsgType:_J, Tag:_72]|10=018|
8=FIX.4.3|9=201|35=J|49=SNDR|56=TRGT|34=2|52=20030204-08:56:41|70=1116226|71=0|626=3|73=2|11=90001008|11=90000008|54=1|55=TESTB|53=1004000|6=30|75=20030821|78=3|79=1000|80=500000|79=2000|80=400000|79=3000|80=104000|10=029|
8=FIX.4.3|9=140|35=1|34=104|49=SNDR|56=TRGT|52=20090407-09:48:19.812|112=  CHECK REJECT MSG with INVALID MESSAGE - REQUIRED TAG MISSING [MsgType:_J, Tag:_72]|10=018|
8=FIX.4.3|9=201|35=J|49=SNDR|56=TRGT|34=2|52=20030204-08:56:41|70=1116226|71=0|626=1|196=000196|73=2|11=90001008|11=90000008|54=1|55=TESTB|53=1004000|6=30|75=20030821|78=3|79=1000|80=500000|79=2000|80=400000|79=3000|80=104000|10=029|
8=FIX.4.3|9=140|35=1|34=104|49=SNDR|56=TRGT|52=20090407-09:48:19.812|112=  CHECK REJECT MSG with INVALID MESSAGE - REQUIRED TAG MISSING [MsgType:_J, Tag:_197]|10=018|
8=FIX.4.3|9=201|35=J|49=SNDR|56=TRGT|34=2|52=20030204-08:56:41|70=1116226|71=0|626=1|73=2|11=90001008|11=90000008|54=1|55=TESTB|53=1004000|6=30|75=20030821|78=1|79=1000|10=029|
8=FIX.4.3|9=140|35=1|34=104|49=SNDR|56=TRGT|52=20090407-09:48:19.812|112=  CHECK REJECT MSG with INVALID MESSAGE - REQUIRED TAG MISSING [MsgType:_J, Tag:_80]|10=018|
8=FIX.4.3|9=201|35=J|49=SNDR|56=TRGT|34=2|52=20030204-08:56:41|70=1116226|71=0|626=1|73=2|11=90001008|11=90000008|54=1|55=TESTB|53=1004000|6=30|75=20030821|78=1|79=1000|80=500000|119=119|10=029|
8=FIX.4.3|9=140|35=1|34=104|49=SNDR|56=TRGT|52=20090407-09:48:19.812|112=  CHECK REJECT MSG with INVALID MESSAGE - REQUIRED TAG MISSING [MsgType:_J, Tag:_120]|10=018|
8=FIX.4.3|9=201|35=J|49=SNDR|56=TRGT|34=2|52=20030204-08:56:41|70=1116226|71=0|626=1|73=2|11=90001008|11=90000008|54=1|55=TESTB|53=1004000|6=30|75=20030821|78=1|79=1000|80=500000|136=1|10=029|
8=FIX.4.3|9=140|35=1|34=104|49=SNDR|56=TRGT|52=20090407-09:48:19.812|112=  CHECK REJECT MSG with INVALID MESSAGE - REQUIRED TAG MISSING [MsgType:_J, Tag:_137]|10=018|
8=FIX.4.3|9=201|35=J|49=SNDR|56=TRGT|34=2|52=20030204-08:56:41|70=1116226|71=0|626=1|73=2|11=90001008|11=90000008|54=1|55=TESTB|53=1004000|6=30|75=20030821|78=1|79=1000|80=500000|136=1|137=9|10=029|
8=FIX.4.3|9=140|35=1|34=104|49=SNDR|56=TRGT|52=20090407-09:48:19.812|112=  CHECK REJECT MSG with INVALID MESSAGE - REQUIRED TAG MISSING [MsgType:_J, Tag:_138]|10=018|
8=FIX.4.3|9=201|35=J|49=SNDR|56=TRGT|34=2|52=20030204-08:56:41|70=1116226|71=0|626=1|73=2|11=90001008|11=90000008|54=1|55=TESTB|53=1004000|6=30|75=20030821|78=1|79=1000|80=500000|136=1|137=9|138=959|10=029|
8=FIX.4.3|9=140|35=1|34=104|49=SNDR|56=TRGT|52=20090407-09:48:19.812|112=  CHECK REJECT MSG with INVALID MESSAGE - REQUIRED TAG MISSING [MsgType:_J, Tag:_139]|10=018|
8=FIX.4.3|9=218|35=N|49=SNDR|56=TRGT|34=2|52=20030204-09:08:23|66=20012411|429=1|82=3|431=3|83=1|445=10|68=5|73=3|11=1111|14=11|39=1|151=89|84=0|6=12|11=1121|14=1000|39=1|151=500|84=1000|6=2.28|11=1131|14=2500|39=1|151=500|84=1500|6=34.11|10=000|
8=FIX.4.3|9=140|35=1|34=104|49=SNDR|56=TRGT|52=20090407-09:48:19.812|112=  CHECK REJECT MSG with INVALID MESSAGE - REQUIRED TAG MISSING [MsgType:_N, Tag:_446]|10=018|
8=FIX.4.3|9=80|35=P|49=SNDR|56=TRGT|34=2|52=20030204-09:17:25|70=3659000001|75=20030808|87=1|10=235|
8=FIX.4.3|9=140|35=1|34=104|49=SNDR|56=TRGT|52=20090407-09:48:19.812|112=  CHECK REJECT MSG with INVALID MESSAGE - REQUIRED TAG MISSING [MsgType:_P, Tag:_88]|10=018|
8=FIX.4.3|9=112|35=T|49=SNDR|56=TRGT|34=2|52=20090401-13:30:42.949|162=11223|163=R|160=0|165=1|79=KTierney|60=20060217-10:00:00|10=122|
8=FIX.4.3|9=140|35=1|34=104|49=SNDR|56=TRGT|52=20090407-09:48:19.812|112=  CHECK REJECT MSG with INVALID MESSAGE - REQUIRED TAG MISSING [MsgType:_T, Tag:_214]|10=018|
8=FIX.4.3|9=100|35=T|49=SNDR|56=TRGT|34=3|52=20090401-13:30:42.949|162=11223|163=N|160=1|165=1|60=20060217-10:00:00|10=156|
8=FIX.4.3|9=140|35=1|34=104|49=SNDR|56=TRGT|52=20090407-09:48:19.812|112=  CHECK REJECT MSG with INVALID MESSAGE - REQUIRED TAG MISSING [MsgType:_T, Tag:_79]|10=018|
8=FIX.4.3|9=112|35=T|49=SNDR|56=TRGT|34=4|52=20090401-13:30:42.949|162=11223|163=N|160=4|165=1|79=KTierney|60=20060217-10:00:00|10=124|
8=FIX.4.3|9=140|35=1|34=104|49=SNDR|56=TRGT|52=20090407-09:48:19.812|112=  CHECK REJECT MSG with INVALID MESSAGE - REQUIRED TAG MISSING [MsgType:_T, Tag:_11]|10=018|
8=FIX.4.3|9=112|35=T|49=SNDR|56=TRGT|34=5|52=20090401-13:30:42.949|162=11223|163=N|160=2|165=1|79=KTierney|60=20060217-10:00:00|10=123|
8=FIX.4.3|9=140|35=1|34=104|49=SNDR|56=TRGT|52=20090407-09:48:19.812|112=  CHECK REJECT MSG with INVALID MESSAGE - REQUIRED TAG MISSING [MsgType:_T, Tag:_75]|10=018|
8=FIX.4.3|9=124|35=T|49=SNDR|56=TRGT|34=6|52=20090401-13:30:42.949|162=11223|163=N|160=2|165=1|79=KTierney|75=20060216|60=20060217-10:00:00|10=186|
8=FIX.4.3|9=140|35=1|34=104|49=SNDR|56=TRGT|52=20090407-09:48:19.812|112=  CHECK REJECT MSG with INVALID MESSAGE - REQUIRED TAG MISSING [MsgType:_T, Tag:_70]|10=018|
8=FIX.4.3|9=133|35=T|49=SNDR|56=TRGT|34=7|52=20090401-13:30:42.949|162=11223|163=N|160=2|165=1|79=KTierney|75=20060216|70=00070|60=20060217-10:00:00|10=087|
8=FIX.4.3|9=140|35=1|34=104|49=SNDR|56=TRGT|52=20090407-09:48:19.812|112=  CHECK REJECT MSG with INVALID MESSAGE - REQUIRED TAG MISSING [MsgType:_T, Tag:_30]|10=018|
8=FIX.4.3|9=141|35=T|49=SNDR|56=TRGT|34=8|52=20090401-13:30:42.949|162=11223|163=N|160=2|165=1|79=KTierney|75=20060216|70=00070|30=XZRH|60=20060217-10:00:00|10=068|
8=FIX.4.3|9=140|35=1|34=104|49=SNDR|56=TRGT|52=20090407-09:48:19.812|112=  CHECK REJECT MSG with INVALID MESSAGE - REQUIRED TAG MISSING [MsgType:_T, Tag:_54]|10=018|
8=FIX.4.3|9=115|35=V|49=SNDR|56=TRGT|34=9|52=20090401-13:31:28.137|262=11223|263=1|264=0|267=2|269=0|269=1|146=2|55=TESTA|55=TESTB|10=022|
8=FIX.4.3|9=140|35=1|34=104|49=SNDR|56=TRGT|52=20090407-09:48:19.812|112=  CHECK REJECT MSG with INVALID MESSAGE - REQUIRED TAG MISSING [MsgType:_V, Tag:_265]|10=018|
8=FIX.4.3|9=115|35=V|49=SNDR|56=TRGT|34=9|52=20090401-13:31:28.137|262=11223|263=0|264=0|267=2|269=0|269=1|146=2|55=TESTA|55=TESTB|386=1|10=022|
8=FIX.4.3|9=140|35=1|34=104|49=SNDR|56=TRGT|52=20090407-09:48:19.812|112=  CHECK REJECT MSG with INVALID MESSAGE - REQUIRED TAG MISSING [MsgType:_V, Tag:_336]|10=018|
8=FIX.4.3|9=73|35=W|49=SNDR|56=TRGT|34=10|52=20090401-13:31:28.137|55=TESTA|268=1|269=0|10=232|
8=FIX.4.3|9=140|35=1|34=104|49=SNDR|56=TRGT|52=20090407-09:48:19.812|112=  CHECK REJECT MSG with INVALID MESSAGE - REQUIRED TAG MISSING [MsgType:_W, Tag:_270]|10=018|
8=FIX.4.3|9=83|35=W|49=SNDR|56=TRGT|34=11|52=20090401-13:31:28.137|55=TESTA|268=1|269=0|270=27.01|10=185|
8=FIX.4.3|9=140|35=1|34=104|49=SNDR|56=TRGT|52=20090407-09:48:19.812|112=  CHECK REJECT MSG with INVALID MESSAGE - REQUIRED TAG MISSING [MsgType:_W, Tag:_271]|10=018|
8=FIX.4.3|9=64|35=X|49=SNDR|56=TRGT|34=12|52=20090401-13:31:28.137|268=1|279=0|10=195|
8=FIX.4.3|9=140|35=1|34=104|49=SNDR|56=TRGT|52=20090407-09:48:19.812|112=  CHECK REJECT MSG with INVALID MESSAGE - REQUIRED TAG MISSING [MsgType:_X, Tag:_269]|10=018|
8=FIX.4.3|9=81|35=X|49=SNDR|56=TRGT|34=13|52=20090401-13:31:28.137|268=1|279=0|269=0|280=000280|10=212|
8=FIX.4.3|9=140|35=1|34=104|49=SNDR|56=TRGT|52=20090407-09:48:19.812|112=  CHECK REJECT MSG with INVALID MESSAGE - REQUIRED TAG MISSING [MsgType:_X, Tag:_270]|10=018|
8=FIX.4.3|9=92|35=X|49=SNDR|56=TRGT|34=14|52=20090401-13:31:28.137|268=1|279=0|269=0|280=000280|270=000270|10=215|
8=FIX.4.3|9=140|35=1|34=104|49=SNDR|56=TRGT|52=20090407-09:48:19.812|112=  CHECK REJECT MSG with INVALID MESSAGE - REQUIRED TAG MISSING [MsgType:_X, Tag:_271]|10=018|
8=FIX.4.3|9=102|35=X|49=SNDR|56=TRGT|34=15|52=20090401-13:31:28.137|268=1|279=0|269=4|280=000280|270=000270|271=27.34|10=218|
8=FIX.4.3|9=140|35=1|34=104|49=SNDR|56=TRGT|52=20090407-09:48:19.812|112=  CHECK REJECT MSG with INVALID MESSAGE - REQUIRED TAG MISSING [MsgType:_X, Tag:_286]|10=018|
8=FIX.4.3|9=102|35=X|49=SNDR|56=TRGT|34=15|52=20090401-13:31:28.137|268=1|279=0|269=4|280=000280|55=IBM|48=00048|270=000270|271=27.34|10=218|
8=FIX.4.3|9=140|35=1|34=104|49=SNDR|56=TRGT|52=20090407-09:48:19.812|112=  CHECK REJECT MSG with INVALID MESSAGE - REQUIRED TAG MISSING [MsgType:_X, Tag:_22]|10=018|
8=FIX.4.3|9=102|35=X|49=SNDR|56=TRGT|34=15|52=20090401-13:31:28.137|268=1|279=0|269=4|280=000280|55=IBM|454=1|270=000270|271=27.34|10=218|
8=FIX.4.3|9=140|35=1|34=104|49=SNDR|56=TRGT|52=20090407-09:48:19.812|112=  CHECK REJECT MSG with INVALID MESSAGE - REQUIRED TAG MISSING [MsgType:_X, Tag:_455]|10=018|
