8=FIX.4.3|9=84|35=e|49=SNDR|56=TRGT|34=2|52=20090401-13:20:37.949|324=0001|55=TESTB|48=00048|263=0|10=252|
8=FIX.4.3|9=140|35=1|34=104|49=SNDR|56=TRGT|52=20090407-09:48:19.812|112=  CHECK REJECT MSG with INVALID MESSAGE - REQUIRED TAG MISSING [MsgType:_e, Tag:_22]|10=018|
8=FIX.4.3|9=81|35=e|49=SNDR|56=TRGT|34=3|52=20090401-13:20:37.949|324=0001|55=TESTB|454=1|263=0|10=096|
8=FIX.4.3|9=140|35=1|34=104|49=SNDR|56=TRGT|52=20090407-09:48:19.812|112=  CHECK REJECT MSG with INVALID MESSAGE - REQUIRED TAG MISSING [MsgType:_e, Tag:_455]|10=018|
8=FIX.4.3|9=92|35=e|49=SNDR|56=TRGT|34=4|52=20090401-13:20:37.949|324=0001|55=TESTB|454=1|455=000455|263=0|10=109|
8=FIX.4.3|9=140|35=1|34=104|49=SNDR|56=TRGT|52=20090407-09:48:19.812|112=  CHECK REJECT MSG with INVALID MESSAGE - REQUIRED TAG MISSING [MsgType:_e, Tag:_456]|10=018|
8=FIX.4.3|9=81|35=e|49=SNDR|56=TRGT|34=5|52=20090401-13:20:37.949|324=0001|55=TESTB|348=5|263=0|10=104|
8=FIX.4.3|9=140|35=1|34=104|49=SNDR|56=TRGT|52=20090407-09:48:19.812|112=  CHECK REJECT MSG with INVALID MESSAGE - REQUIRED TAG MISSING [MsgType:_e, Tag:_349]|10=018|
8=FIX.4.3|9=81|35=e|49=SNDR|56=TRGT|34=6|52=20090401-13:20:37.949|324=0001|55=TESTB|350=5|263=0|10=098|
8=FIX.4.3|9=140|35=1|34=104|49=SNDR|56=TRGT|52=20090407-09:48:19.812|112=  CHECK REJECT MSG with INVALID MESSAGE - REQUIRED TAG MISSING [MsgType:_e, Tag:_351]|10=018|
