8=FIX.4.3|9=152|35=B|49=SNDR|56=TRGT|34=21|52=20090401-13:23:38.183|148=Weather|358=10|33=4|58=In the evening |58=it might be wet |58=and windy.|58= Take your coat on.|10=048|
8=FIX.4.3|9=140|35=1|34=104|49=SNDR|56=TRGT|52=20090407-09:48:19.812|112=  CHECK REJECT MSG with INVALID MESSAGE - REQUIRED TAG MISSING [MsgType:_B, Tag:_359]|10=018|
8=FIX.4.3|9=150|35=B|49=SNDR|56=TRGT|34=22|52=20090401-13:23:38.183|148=Weather|33=4|58=In the evening |58=it might be wet |58=and windy.|58= Take your coat on.|95=2|10=206|
8=FIX.4.3|9=140|35=1|34=104|49=SNDR|56=TRGT|52=20090407-09:48:19.812|112=  CHECK REJECT MSG with INVALID MESSAGE - REQUIRED TAG MISSING [MsgType:_B, Tag:_96]|10=018|
8=FIX.4.3|9=157|35=C|49=SNDR|56=TRGT|34=23|52=20090401-13:23:38.183|164=111111111|94=0|147=Bunny's Birthday|356=10|33=3|58=Hello, Bunny!|58=Happy Birthday to you :)|58=Bye.|10=055|
8=FIX.4.3|9=140|35=1|34=104|49=SNDR|56=TRGT|52=20090407-09:48:19.812|112=  CHECK REJECT MSG with INVALID MESSAGE - REQUIRED TAG MISSING [MsgType:_C, Tag:_357]|10=018|
8=FIX.4.3|9=155|35=C|49=SNDR|56=TRGT|34=24|52=20090401-13:23:38.183|164=111111111|94=0|147=Bunny's Birthday|33=3|58=Hello, Bunny!|58=Happy Birthday to you :)|58=Bye.|95=2|10=215|
8=FIX.4.3|9=140|35=1|34=104|49=SNDR|56=TRGT|52=20090407-09:48:19.812|112=  CHECK REJECT MSG with INVALID MESSAGE - REQUIRED TAG MISSING [MsgType:_C, Tag:_96]|10=018|
