8=FIX.4.2|9=64|35=a|49=TESTI|56=TESTA|34=14|52=20030204-09:25:43|55=TESTB|54=1|10=121|
