8=FIX.4.2|9=91|35=c|49=TESTI|56=TESTA|34=14|52=20030204-09:25:43|320=0001|321=0|146=2|311=TESTB|311=TESTC|10=199|
