8=FIX.4.2|9=68|35=f|49=TESTI|56=TESTA|34=14|52=20030204-09:25:43|324=0001|55=TESTB|10=066|
