8=FIX.4.2|9=114|35=W|49=TESTI|56=TESTA|34=14|52=20030204-09:25:43|262=0001|55=TESTA|268=2|269=0|270=10|271=50|269=1|270=11|271=40|10=116|
