<?xml version="1.0" encoding="UTF-8"?>

<!DOCTYPE cases SYSTEM "../../../cases.dtd" [
        <!ENTITY % content SYSTEM "../../../Engine/Entities/definitions.inc">
        %content; ]>

<cases>
  <case name="CME specification test Process close requested sequence gap block with GapFill" disableReason="expected open RR range end: 16=0">
    &CLEAN_LOGS;

    <task className="FixEngine.SetGlobalConfig">
      <param name="sourceFile">./Engine/Cases/Cme/cme_config.properties</param>
    </task>

    <task className="FixEngine.EngineUpWithEchoApp">
      <param name="port">&ENGINE_PORT;</param>
      <param name="name">SERVER</param>
    </task>


    <transport className="InitiatorSocketTransport" host="localhost" port="&ENGINE_PORT;">

        <send>    8=FIX.4.2#9=123#35=A#34=1#49=CME#52=20031027-14:29:11.123#56=B08004N#98=0#108=5#10=000#</send>
        <expect>  8=FIX\.4\.2#9=\d{1,3}#35=A#34=1#49=B08004N#52=\d{8}-\d{2}:\d{2}:\d{2}(\.\d{3})?#56=CME#10=\d{3}#</expect>


        <send>    8=FIX.4.2#9=307#35=8#34=2#369=1#52=20031027-14:29:11.123#49=CME#50=99#56=B08004N#57=0J4L#143=US#17=0002A#10=000#</send>
        <expect>  8=FIX\.4\.2#9=\d{1,3}#35=8#34=2#49=B08004N#52=\d{8}-\d{2}:\d{2}:\d{2}(\.\d{3})?#56=CME#17=0002A#10=\d{3}#</expect>


        <send>    8=FIX.4.2#9=307#35=0#34=6000#369=2#52=20031027-14:29:11.123#49=CME#50=99#56=B08004N#57=0J4L#143=US#10=000#</send>
        <expect>  8=FIX\.4\.2#9=\d{1,3}#35=2#34=3#49=B08004N#52=\d{8}-\d{2}:\d{2}:\d{2}(\.\d{3})?#56=CME#7=3#16=2501#10=\d{3}#</expect>


        <send>    8=FIX.4.2#9=307#35=4#34=3#369=3#52=20031027-14:29:11.123#43=Y#49=CME#50=99#56=B08004N#57=0J4L#143=US#36=1000#123=Y#10=000#</send>
        <send>    8=FIX.4.2#9=307#35=8#34=1000#369=3#52=20031027-14:29:11.123#43=Y#49=CME#50=99#56=B08004N#57=0J4L#143=US#17=1000B#10=000#</send>
        <expect>  8=FIX\.4\.2#9=\d{1,3}#35=8#34=4#49=B08004N#52=\d{8}-\d{2}:\d{2}:\d{2}(\.\d{3})?#56=CME#17=1000B#10=\d{3}#</expect>

        <!-- NewSeqNo(36)=6001 means no other application messages are available within the requested range [7=3 16=2501] -->
        <send>    8=FIX.4.2#9=307#35=4#34=1001#369=3#52=20031027-14:29:11.123#43=Y#49=CME#50=99#56=B08004N#57=0J4L#143=US#36=6001#123=Y#10=000#</send>
        <expect>  8=FIX\.4\.2#9=\d{1,3}#35=2#34=5#49=B08004N#52=\d{8}-\d{2}:\d{2}:\d{2}(\.\d{3})?#56=CME#7=2502#16=5000#10=\d{3}#</expect>

        <!-- NewSeqNo(36)=6001 means no other application messages are available within the requested range [7=2502 16=5000] -->
        <send>    8=FIX.4.2#9=307#35=4#34=2502#369=5#52=20031027-14:29:11.123#43=Y#49=CME#50=99#56=B08004N#57=0J4L#143=US#36=6001#123=Y#10=000#</send>
        <expect>  8=FIX\.4\.2#9=\d{1,3}#35=2#34=6#49=B08004N#52=\d{8}-\d{2}:\d{2}:\d{2}(\.\d{3})?#56=CME#7=5001#16=0#10=\d{3}#</expect>

        <send>    8=FIX.4.2#9=307#35=4#34=5001#369=6#52=20031027-14:29:11.123#43=Y#49=CME#50=99#56=B08004N#57=0J4L#143=US#36=6001#123=Y#10=000#</send>

        <send>    8=FIX.4.2#9=307#35=8#34=6001#369=6#52=20031027-14:29:11.123#49=CME#50=99#56=B08004N#57=0J4L#143=US#17=6001A#10=000#</send>
        <expect>  8=FIX\.4\.2#9=\d{1,3}#35=8#34=7#49=B08004N#52=\d{8}-\d{2}:\d{2}:\d{2}(\.\d{3})?#56=CME#17=6001A#10=\d{3}#</expect>


        <send>    8=FIX.4.2#9=123#35=5#34=6002#49=CME#52=20031027-14:29:11#56=B08004N#10=000#</send>
        <expect>  8=FIX\.4\.2#9=\d{1,3}#35=5#34=8#49=B08004N#52=\d{8}-\d{2}:\d{2}:\d{2}(\.\d{3})?#56=CME#10=\d{3}#</expect>

    </transport>

    &ENGINE_DOWN;
  </case>
</cases>
