8=FIX.4.1|9=80|35=P|49=TESTI|56=TESTA|34=2|52=20030204-09:17:25|70=3659000001|75=20030808|87=1|10=239|
8=FIX.4.1|9=140|35=1|34=104|49=SNDR|56=TRGT|52=20090407-09:48:19.812|112=check REJECT: INVALID MESSAGE - REQUIRED TAG MISSING [MsgType:_P, Tag:_88]|10=018|
8=FIX.4.1|9=77|35=Q|49=TESTI|56=TESTA|34=4|52=20030204-09:28:44|127=D|55=TESTB|54=1|10=200|
8=FIX.4.1|9=140|35=1|34=104|49=SNDR|56=TRGT|52=20090407-09:48:19.812|112=check REJECT: INVALID MESSAGE - REQUIRED TAG MISSING [MsgType:_Q, Tag:_38]|10=018|
8=FIX.4.1|9=78|35=S|49=TESTI|56=TESTA|34=14|52=20030204-09:25:43|117=11223|55=TESTB|10=003|
8=FIX.4.1|9=140|35=1|34=104|49=SNDR|56=TRGT|52=20090407-09:48:19.812|112=check REJECT: INVALID MESSAGE - REQUIRED TAG MISSING [MsgType:_S, Tag:_132]|10=018|
8=FIX.4.1|9=111|35=T|49=TESTI|56=TESTA|34=14|52=20030204-09:25:43|162=11223|163=N|160=2|165=1|79=KTierney|60=20060217-10:00:00|10=105|
8=FIX.4.1|9=140|35=1|34=104|49=SNDR|56=TRGT|52=20090407-09:48:19.812|112=check REJECT: INVALID MESSAGE - REQUIRED TAG MISSING [MsgType:_T, Tag:_166]|10=018|
8=FIX.4.1|9=111|35=T|49=TESTI|56=TESTA|34=14|52=20030204-09:25:43|162=11223|163=N|160=2|165=1|79=KTierney|166=CED|60=20060217-10:00:00|10=105|
8=FIX.4.1|9=140|35=1|34=104|49=SNDR|56=TRGT|52=20090407-09:48:19.812|112=check REJECT: INVALID MESSAGE - REQUIRED TAG MISSING [MsgType:_T, Tag:_75]|10=018|
8=FIX.4.1|9=111|35=T|49=TESTI|56=TESTA|34=14|52=20030204-09:25:43|162=11223|163=N|160=2|165=1|79=KTierney|166=CED|75=20060217|60=20060217-10:00:00|10=105|
8=FIX.4.1|9=140|35=1|34=104|49=SNDR|56=TRGT|52=20090407-09:48:19.812|112=check REJECT: INVALID MESSAGE - REQUIRED TAG MISSING [MsgType:_T, Tag:_70]|10=018|
8=FIX.4.1|9=111|35=T|49=TESTI|56=TESTA|34=14|52=20030204-09:25:43|162=11223|163=N|160=2|165=1|79=KTierney|166=CED|75=20060217|70=00070|30=A|60=20060217-10:00:00|10=105|
8=FIX.4.1|9=140|35=1|34=104|49=SNDR|56=TRGT|52=20090407-09:48:19.812|112=check REJECT: INVALID MESSAGE - REQUIRED TAG MISSING [MsgType:_T, Tag:_54]|10=018|
