8=FIX.4.1|9=81|35=6|49=TESTI|56=TESTA|34=2|52=20030203-16:10:01|23=24|28=R|55=TESTB|54=1|27=S|10=101|
8=FIX.4.1|9=140|35=1|34=104|49=SNDR|56=TRGT|52=20090407-09:48:19.812|112=check REJECT: INVALID MESSAGE - REQUIRED TAG MISSING [MsgType:_6, Tag:_26]|10=018|
8=FIX.4.1|9=81|35=6|49=TESTI|56=TESTA|34=2|52=20030203-16:10:01|23=24|28=N|55=TESTB|54=1|27=S|199=1|10=101|
8=FIX.4.1|9=140|35=1|34=104|49=SNDR|56=TRGT|52=20090407-09:48:19.812|112=check REJECT: INVALID MESSAGE - REQUIRED TAG MISSING [MsgType:_6, Tag:_104]|10=018|
8=FIX.4.1|9=83|35=7|49=TESTI|56=TESTA|34=2|52=20030203-16:02:35|2=20|5=C|55=TESTB|4=T|53=1000000|10=191|
8=FIX.4.1|9=140|35=1|34=104|49=SNDR|56=TRGT|52=20090407-09:48:19.812|112=check REJECT: INVALID MESSAGE - REQUIRED TAG MISSING [MsgType:_7, Tag:_3]|10=018|
8=FIX.4.1|9=83|35=7|49=TESTI|56=TESTA|34=2|52=20030203-16:02:35|2=20|5=N|55=TESTB|4=T|53=1000000|205=31|10=191|
8=FIX.4.1|9=140|35=1|34=104|49=SNDR|56=TRGT|52=20090407-09:48:19.812|112=check REJECT: INVALID MESSAGE - REQUIRED TAG MISSING [MsgType:_7, Tag:_200]|10=018|
