8=FIX.4.1|9=127|35=E|49=TESTI|56=TESTA|34=2|52=20030204-08:18:22|66=20012411|67=1|68=3|11=1130|63=6|21=3|55=TESTB3|54=1|38=5000|40=1|10=068|
8=FIX.4.1|9=140|35=1|34=104|49=SNDR|56=TRGT|52=20090407-09:48:19.812|112=check REJECT: INVALID MESSAGE - REQUIRED TAG MISSING [MsgType:_E, Tag:_64]|10=018|
8=FIX.4.1|9=127|35=E|49=TESTI|56=TESTA|34=2|52=20030204-08:18:22|66=20012411|67=1|68=3|11=1130|21=3|55=TESTB3|54=1|167=OPT|200=200303|38=5000|40=1|10=068|
8=FIX.4.1|9=140|35=1|34=104|49=SNDR|56=TRGT|52=20090407-09:48:19.812|112=check REJECT: INVALID MESSAGE - REQUIRED TAG MISSING [MsgType:_E, Tag:_201]|10=018|
8=FIX.4.1|9=127|35=E|49=TESTI|56=TESTA|34=2|52=20030204-08:18:22|66=20012411|67=1|68=3|11=1130|21=3|55=TESTB3|54=5|38=5000|40=1|10=068|
8=FIX.4.1|9=140|35=1|34=104|49=SNDR|56=TRGT|52=20090407-09:48:19.812|112=check REJECT: INVALID MESSAGE - REQUIRED TAG MISSING [MsgType:_E, Tag:_114]|10=018|
8=FIX.4.1|9=127|35=E|49=TESTI|56=TESTA|34=2|52=20030204-08:18:22|66=20012411|67=1|68=3|11=1130|21=3|55=TESTB3|54=1|38=5000|40=2|10=068|
8=FIX.4.1|9=140|35=1|34=104|49=SNDR|56=TRGT|52=20090407-09:48:19.812|112=check REJECT: INVALID MESSAGE - REQUIRED TAG MISSING [MsgType:_E, Tag:_44]|10=018|
8=FIX.4.1|9=127|35=E|49=TESTI|56=TESTA|34=2|52=20030204-08:18:22|66=20012411|67=1|68=3|11=1130|21=3|55=TESTB3|54=1|38=5000|40=3|10=068|
8=FIX.4.1|9=140|35=1|34=104|49=SNDR|56=TRGT|52=20090407-09:48:19.812|112=check REJECT: INVALID MESSAGE - REQUIRED TAG MISSING [MsgType:_E, Tag:_99]|10=018|
8=FIX.4.1|9=95|35=F|49=TESTI|56=TESTA|34=2|52=20030204-08:46:38|41=90001008|11=16161516|55=TESTB|54=1|10=024|
8=FIX.4.1|9=140|35=1|34=104|49=SNDR|56=TRGT|52=20090407-09:48:19.812|112=check REJECT: INVALID MESSAGE - REQUIRED TAG MISSING [MsgType:_F, Tag:_38]|10=018|
8=FIX.4.1|9=105|35=G|49=TESTI|56=TESTA|34=2|52=20030204-08:49:18|11=12233345|41=90001008|21=2|55=TESTB|54=5|38=4000|40=1|10=225|
8=FIX.4.1|9=140|35=1|34=104|49=SNDR|56=TRGT|52=20090407-09:48:19.812|112=check REJECT: INVALID MESSAGE - REQUIRED TAG MISSING [MsgType:_G, Tag:_114]|10=018|
8=FIX.4.1|9=105|35=G|49=TESTI|56=TESTA|34=2|52=20030204-08:49:18|11=12233345|41=90001008|21=2|55=TESTB|54=1|40=1|10=225|
8=FIX.4.1|9=140|35=1|34=104|49=SNDR|56=TRGT|52=20090407-09:48:19.812|112=check REJECT: INVALID MESSAGE - REQUIRED TAG MISSING [MsgType:_G, Tag:_38]|10=018|
8=FIX.4.1|9=76|35=H|49=TESTI|56=TESTA|34=2|52=20030204-08:49:42|11=90001008|55=TESTB|205=31|54=1|10=150|
8=FIX.4.1|9=140|35=1|34=104|49=SNDR|56=TRGT|52=20090407-09:48:19.812|112=check REJECT: INVALID MESSAGE - REQUIRED TAG MISSING [MsgType:_H, Tag:_200]|10=018|
8=FIX.4.1|9=76|35=H|49=TESTI|56=TESTA|34=2|52=20030204-08:49:42|11=90001008|55=TESTB|167=OPT|200=200302|54=1|10=150|
8=FIX.4.1|9=140|35=1|34=104|49=SNDR|56=TRGT|52=20090407-09:48:19.812|112=check REJECT: INVALID MESSAGE - REQUIRED TAG MISSING [MsgType:_H, Tag:_201]|10=018|
