8=FIX.4.1|9=107|35=D|49=TESTI|56=TESTA|34=2|52=20030204-08:46:14|11=90001008|21=2|55=TESTB|167=OPT|200=200303|54=1|38=4000|40=1|10=075|
8=FIX.4.1|9=140|35=1|34=104|49=SNDR|56=TRGT|52=20090407-09:48:19.812|112=check REJECT: INVALID MESSAGE - REQUIRED TAG MISSING [MsgType:_D, Tag:_201]|10=018|
8=FIX.4.1|9=107|35=D|49=TESTI|56=TESTA|34=2|52=20030204-08:46:14|11=90001008|21=2|55=TESTB|54=5|38=4000|40=1|10=075|
8=FIX.4.1|9=140|35=1|34=104|49=SNDR|56=TRGT|52=20090407-09:48:19.812|112=check REJECT: INVALID MESSAGE - REQUIRED TAG MISSING [MsgType:_D, Tag:_114]|10=018|
8=FIX.4.1|9=107|35=D|49=TESTI|56=TESTA|34=2|52=20030204-08:46:14|11=90001008|21=2|55=TESTB|54=1|40=1|10=075|
8=FIX.4.1|9=140|35=1|34=104|49=SNDR|56=TRGT|52=20090407-09:48:19.812|112=check REJECT: INVALID MESSAGE - REQUIRED TAG MISSING [MsgType:_D, Tag:_38]|10=018|
8=FIX.4.1|9=107|35=D|49=TESTI|56=TESTA|34=2|52=20030204-08:46:14|11=90001008|21=2|55=TESTB|54=1|38=4000|40=2|10=075|
8=FIX.4.1|9=140|35=1|34=104|49=SNDR|56=TRGT|52=20090407-09:48:19.812|112=check REJECT: INVALID MESSAGE - REQUIRED TAG MISSING [MsgType:_D, Tag:_44]|10=018|
8=FIX.4.1|9=107|35=D|49=TESTI|56=TESTA|34=2|52=20030204-08:46:14|11=90001008|21=2|55=TESTB|54=1|38=4000|40=3|10=075|
8=FIX.4.1|9=140|35=1|34=104|49=SNDR|56=TRGT|52=20090407-09:48:19.812|112=check REJECT: INVALID MESSAGE - REQUIRED TAG MISSING [MsgType:_D, Tag:_99]|10=018|
8=FIX.4.1|9=107|35=D|49=TESTI|56=TESTA|34=2|52=20030204-08:46:14|11=90001008|21=2|55=TESTB|54=1|38=4000|40=E|10=075|
8=FIX.4.1|9=140|35=1|34=104|49=SNDR|56=TRGT|52=20090407-09:48:19.812|112=check REJECT: INVALID MESSAGE - REQUIRED TAG MISSING [MsgType:_D, Tag:_23]|10=018|
8=FIX.4.1|9=107|35=D|49=TESTI|56=TESTA|34=2|52=20030204-08:46:14|11=90001008|21=2|55=TESTB|54=1|38=4000|40=D|10=075|
8=FIX.4.1|9=140|35=1|34=104|49=SNDR|56=TRGT|52=20090407-09:48:19.812|112=check REJECT: INVALID MESSAGE - REQUIRED TAG MISSING [MsgType:_D, Tag:_117]|10=018|
8=FIX.4.1|9=107|35=D|49=TESTI|56=TESTA|34=2|52=20030204-08:46:14|11=90001008|21=2|55=TESTB|54=1|38=4000|40=1|121=Y|10=075|
8=FIX.4.1|9=140|35=1|34=104|49=SNDR|56=TRGT|52=20090407-09:48:19.812|112=check REJECT: INVALID MESSAGE - REQUIRED TAG MISSING [MsgType:_D, Tag:_120]|10=018|
