8=FIX.4.0|9=218|35=7|49=C|56=C|115=C|128=C|90=1|91=D|34=1|50=C|57=C|116=C|129=C|43=Y|97=C|52=20010101-01:01:01|122=20010101-01:01:01|2=1|5=N|3=1|55=C|65=C|48=C|22=1|106=C|107=C|4=B|53=0|44=0|15=AFA|60=20010101-01:01:01|58=C|93=1|89=D|10=247|