8=FIX.4.0|9=175|35=Q|49=C|56=C|115=C|128=C|90=1|91=D|34=1|50=C|57=C|116=C|129=C|43=Y|97=C|52=20010101-01:01:01|122=20010101-01:01:01|37=C|17=1|127=A|55=C|54=1|38=0|32=1|31=1.1|58=C|93=1|89=D|10=011|