8=FIX.4.0|9=244|35=6|49=C|56=C|115=C|128=C|90=1|91=D|34=1|50=C|57=C|116=C|129=C|43=Y|97=C|52=20010101-01:01:01|122=20010101-01:01:01|23=1|28=N|26=1|55=C|65=C|48=C|22=1|106=C|107=C|54=1|27=S|44=0|15=AFA|62=20010101-01:01:01|25=L|24=A|130=Y|104=X|58=C|93=1|89=D|10=008|