8=FIX.4.0|9=174|35=N|49=C|56=C|115=C|128=C|90=1|91=D|34=1|50=C|57=C|116=C|129=C|43=Y|97=C|52=20010101-01:01:01|122=20010101-01:01:01|66=C|105=C|82=1|83=1|73=1|11=C|14=0|84=1|6=1.1|93=1|89=D|10=193|