8=FIX.4.0|9=175|35=H|49=C|56=C|115=C|128=C|90=1|91=D|34=1|50=C|57=C|116=C|129=C|43=Y|97=C|52=20010101-01:01:01|122=20010101-01:01:01|37=C|11=C|109=C|76=C|55=C|65=C|106=C|107=C|54=1|93=1|89=D|10=078|