8=FIX.4.0|9=211|35=F|49=C|56=C|115=C|128=C|90=1|91=D|34=1|50=C|57=C|116=C|129=C|43=Y|97=C|52=20010101-01:01:01|122=20010101-01:01:01|41=C|37=C|11=C|66=C|125=P|109=C|76=C|55=C|65=C|48=C|22=1|106=C|107=C|54=1|38=0|58=C|93=1|89=D|10=195|