8=FIX.4.0|9=336|35=G|49=C|56=C|115=C|128=C|90=1|91=D|34=1|50=C|57=C|116=C|129=C|43=Y|97=C|52=20010101-01:01:01|122=20010101-01:01:01|37=C|109=C|76=C|41=C|11=C|66=C|1=C|63=0|64=20010101|21=1|18=1 2|110=1|111=1|100=0|55=C|65=C|48=C|22=1|106=C|107=C|54=1|38=0|40=1|44=0|99=0|15=AFA|59=0|126=20010101-01:01:01|12=1.1|13=1|47=A|121=Y|120=AFA|58=C|93=1|89=D|10=253|