8=FIX.4.2|9=128|35=D|49=TESTI|56=TESTA|34=4|52=20030204-08:46:14|11=90001008|21=2|100=-1|55=TESTB|54=1|60=20060217-10:00:00|38=4000|40=1|10=071|
8=FIX.4.2|9=128|35=D|49=TESTI|56=TESTA|34=4|52=20030204-08:46:14|11=90001008|21=2|100=18|55=TESTB|54=1|60=20060217-10:00:00|38=4000|40=1|10=071|
8=FIX.4.2|9=128|35=D|49=TESTI|56=TESTA|34=4|52=20030204-08:46:14|11=90001008|21=2|100=o|55=TESTB|54=1|60=20060217-10:00:00|38=4000|40=1|10=071|
8=FIX.4.2|9=128|35=D|49=TESTI|56=TESTA|34=4|52=20030204-08:46:14|11=90001008|21=2|100=Vl|55=TESTB|54=1|60=20060217-10:00:00|38=4000|40=1|10=071|
8=FIX.4.2|9=140|35=1|34=104|49=SNDR|56=TRGT|52=20090407-09:48:19.812|112= TEST #026 CHECK 4 REJECT MSGS with INVALID MESSAGE - INCORRECT DATA TYPE [MsgType:_D, Tag:_100]|10=018|
8=FIX.4.2|9=102|35=9|49=TESTI|56=TESTA|34=3|52=20030203-16:13:14|37=11111111|11=12121212122|41=11111111111|39=0|434=1|102=-1|10=209|
8=FIX.4.2|9=102|35=9|49=TESTI|56=TESTA|34=3|52=20030203-16:13:14|37=11111111|11=12121212122|41=11111111111|39=0|434=1|102=4|10=209|
8=FIX.4.2|9=102|35=9|49=TESTI|56=TESTA|34=3|52=20030203-16:13:14|37=11111111|11=12121212122|41=11111111111|39=0|434=1|102=A|10=209|
8=FIX.4.2|9=102|35=9|49=TESTI|56=TESTA|34=3|52=20030203-16:13:14|37=11111111|11=12121212122|41=11111111111|39=0|434=1|102=b|10=209|
8=FIX.4.2|9=140|35=1|34=104|49=SNDR|56=TRGT|52=20090407-09:48:19.812|112= TEST #027 CHECK 4 REJECT MSGS with INVALID MESSAGE - INCORRECT DATA TYPE [MsgType:_9, Tag:_102]|10=018|
8=FIX.4.2|9=125|35=8|49=TESTI|56=TESTA|34=114|52=20030203-16:09:30|37=11111111|17=12|20=3|39=0|150=8|103=-1|55=TESTB|54=1|38=1000|151=1000|14=0|6=0|10=011|
8=FIX.4.2|9=125|35=8|49=TESTI|56=TESTA|34=114|52=20030203-16:09:30|37=11111111|17=12|20=3|39=0|150=8|103=10|55=TESTB|54=1|38=1000|151=1000|14=0|6=0|10=011|
8=FIX.4.2|9=125|35=8|49=TESTI|56=TESTA|34=114|52=20030203-16:09:30|37=11111111|17=12|20=3|39=0|150=8|103=A|55=TESTB|54=1|38=1000|151=1000|14=0|6=0|10=011|
8=FIX.4.2|9=125|35=8|49=TESTI|56=TESTA|34=114|52=20030203-16:09:30|37=11111111|17=12|20=3|39=0|150=8|103=b|55=TESTB|54=1|38=1000|151=1000|14=0|6=0|10=011|
8=FIX.4.2|9=140|35=1|34=104|49=SNDR|56=TRGT|52=20090407-09:48:19.812|112= TEST #028 CHECK 4 REJECT MSGS with INVALID MESSAGE - INCORRECT DATA TYPE [MsgType:_8, Tag:_103]|10=018|
8=FIX.4.2|9=93|35=6|49=TESTI|56=TESTA|34=121|52=20030203-16:10:01|23=24|28=N|55=TESTB|54=1|27=S|199=1|104=a|10=145|
8=FIX.4.2|9=93|35=6|49=TESTI|56=TESTA|34=121|52=20030203-16:10:01|23=24|28=N|55=TESTB|54=1|27=S|199=1|104=z|10=145|
8=FIX.4.2|9=93|35=6|49=TESTI|56=TESTA|34=121|52=20030203-16:10:01|23=24|28=N|55=TESTB|54=1|27=S|199=1|104=-1|10=145|
8=FIX.4.2|9=93|35=6|49=TESTI|56=TESTA|34=121|52=20030203-16:10:01|23=24|28=N|55=TESTB|54=1|27=S|199=1|104=0|10=145|
8=FIX.4.2|9=140|35=1|34=104|49=SNDR|56=TRGT|52=20090407-09:48:19.812|112= TEST #029 CHECK 4 REJECT MSGS with INVALID MESSAGE - INCORRECT DATA TYPE [MsgType:_6, Tag:_104]|10=018|
8=FIX.4.2|9=125|35=8|49=TESTI|56=TESTA|34=114|52=20030203-16:09:30|37=11111111|17=12|20=3|39=0|150=0|55=TESTB|54=1|38=1000|151=1000|14=0|6=0|113=y|10=011|
8=FIX.4.2|9=125|35=8|49=TESTI|56=TESTA|34=114|52=20030203-16:09:30|37=11111111|17=12|20=3|39=0|150=0|55=TESTB|54=1|38=1000|151=1000|14=0|6=0|113=n|10=011|
8=FIX.4.2|9=125|35=8|49=TESTI|56=TESTA|34=114|52=20030203-16:09:30|37=11111111|17=12|20=3|39=0|150=0|55=TESTB|54=1|38=1000|151=1000|14=0|6=0|113=-1|10=011|
8=FIX.4.2|9=125|35=8|49=TESTI|56=TESTA|34=114|52=20030203-16:09:30|37=11111111|17=12|20=3|39=0|150=0|55=TESTB|54=1|38=1000|151=1000|14=0|6=0|113=0|10=011|
8=FIX.4.2|9=140|35=1|34=104|49=SNDR|56=TRGT|52=20090407-09:48:19.812|112= TEST #030 CHECK 4 REJECT MSGS with INVALID MESSAGE - INCORRECT DATA TYPE [MsgType:_8, Tag:_113]|10=018|
8=FIX.4.2|9=126|35=G|49=TESTI|56=TESTA|34=6|52=20030204-08:49:18|11=12233345|41=90001008|21=2|55=TESTB|54=1|60=20060117-10:00:00|38=4000|40=1|114=y|10=220|
8=FIX.4.2|9=126|35=G|49=TESTI|56=TESTA|34=6|52=20030204-08:49:18|11=12233345|41=90001008|21=2|55=TESTB|54=1|60=20060117-10:00:00|38=4000|40=1|114=n|10=220|
8=FIX.4.2|9=126|35=G|49=TESTI|56=TESTA|34=6|52=20030204-08:49:18|11=12233345|41=90001008|21=2|55=TESTB|54=1|60=20060117-10:00:00|38=4000|40=1|114=0|10=220|
8=FIX.4.2|9=126|35=G|49=TESTI|56=TESTA|34=6|52=20030204-08:49:18|11=12233345|41=90001008|21=2|55=TESTB|54=1|60=20060117-10:00:00|38=4000|40=1|114=-1|10=220|
8=FIX.4.2|9=140|35=1|34=104|49=SNDR|56=TRGT|52=20090407-09:48:19.812|112= TEST #031 CHECK 4 REJECT MSGS with INVALID MESSAGE - INCORRECT DATA TYPE [MsgType:_G, Tag:_114]|10=018|
8=FIX.4.2|9=128|35=D|49=TESTI|56=TESTA|34=4|52=20030204-08:46:14|11=90001008|21=2|55=TESTB|54=1|60=20060217-10:00:00|38=4000|40=1|121=Y|120=AfA|10=071|
8=FIX.4.2|9=128|35=D|49=TESTI|56=TESTA|34=4|52=20030204-08:46:14|11=90001008|21=2|55=TESTB|54=1|60=20060217-10:00:00|38=4000|40=1|121=Y|120=xxx|10=071|
8=FIX.4.2|9=128|35=D|49=TESTI|56=TESTA|34=4|52=20030204-08:46:14|11=90001008|21=2|55=TESTB|54=1|60=20060217-10:00:00|38=4000|40=1|121=Y|120=-1|10=071|
8=FIX.4.2|9=128|35=D|49=TESTI|56=TESTA|34=4|52=20030204-08:46:14|11=90001008|21=2|55=TESTB|54=1|60=20060217-10:00:00|38=4000|40=1|121=Y|120=0|10=071|
8=FIX.4.2|9=140|35=1|34=104|49=SNDR|56=TRGT|52=20090407-09:48:19.812|112= TEST #032 CHECK 4 REJECT MSGS with INVALID MESSAGE - INCORRECT DATA TYPE [MsgType:_D, Tag:_120]|10=018|
8=FIX.4.2|9=128|35=D|49=TESTI|56=TESTA|34=4|52=20030204-08:46:14|11=90001008|21=2|55=TESTB|54=1|60=20060217-10:00:00|38=4000|40=1|121=y|10=071|
8=FIX.4.2|9=128|35=D|49=TESTI|56=TESTA|34=4|52=20030204-08:46:14|11=90001008|21=2|55=TESTB|54=1|60=20060217-10:00:00|38=4000|40=1|121=n|10=071|
8=FIX.4.2|9=128|35=D|49=TESTI|56=TESTA|34=4|52=20030204-08:46:14|11=90001008|21=2|55=TESTB|54=1|60=20060217-10:00:00|38=4000|40=1|121=0|10=071|
8=FIX.4.2|9=128|35=D|49=TESTI|56=TESTA|34=4|52=20030204-08:46:14|11=90001008|21=2|55=TESTB|54=1|60=20060217-10:00:00|38=4000|40=1|121=-1|10=071|
8=FIX.4.2|9=140|35=1|34=104|49=SNDR|56=TRGT|52=20090407-09:48:19.812|112= TEST #033 CHECK 4 REJECT MSGS with INVALID MESSAGE - INCORRECT DATA TYPE [MsgType:_D, Tag:_121]|10=018|
8=FIX.4.2|9=95|35=Q|49=TESTI|56=TESTA|34=4|52=20030204-09:28:44|37=01923883|17=11|127=a|55=TESTB|54=1|38=4000|10=027|
8=FIX.4.2|9=95|35=Q|49=TESTI|56=TESTA|34=4|52=20030204-09:28:44|37=01923883|17=11|127=z|55=TESTB|54=1|38=4000|10=027|
8=FIX.4.2|9=95|35=Q|49=TESTI|56=TESTA|34=4|52=20030204-09:28:44|37=01923883|17=11|127=0|55=TESTB|54=1|38=4000|10=027|
8=FIX.4.2|9=95|35=Q|49=TESTI|56=TESTA|34=4|52=20030204-09:28:44|37=01923883|17=11|127=-1|55=TESTB|54=1|38=4000|10=027|
8=FIX.4.2|9=140|35=1|34=104|49=SNDR|56=TRGT|52=20090407-09:48:19.812|112= TEST #034 CHECK 4 REJECT MSGS with INVALID MESSAGE - INCORRECT DATA TYPE [MsgType:_Q, Tag:_127]|10=018|
8=FIX.4.2|9=87|35=6|49=TESTI|56=TESTA|34=121|52=20030203-16:10:01|23=24|28=N|55=TESTB|54=1|27=S|130=y|10=142|
8=FIX.4.2|9=87|35=6|49=TESTI|56=TESTA|34=121|52=20030203-16:10:01|23=24|28=N|55=TESTB|54=1|27=S|130=n|10=142|
8=FIX.4.2|9=87|35=6|49=TESTI|56=TESTA|34=121|52=20030203-16:10:01|23=24|28=N|55=TESTB|54=1|27=S|130=-1|10=142|
8=FIX.4.2|9=87|35=6|49=TESTI|56=TESTA|34=121|52=20030203-16:10:01|23=24|28=N|55=TESTB|54=1|27=S|130=0|10=142|
8=FIX.4.2|9=140|35=1|34=104|49=SNDR|56=TRGT|52=20090407-09:48:19.812|112= TEST #035 CHECK 4 REJECT MSGS with INVALID MESSAGE - INCORRECT DATA TYPE [MsgType:_6, Tag:_130]|10=018|
8=FIX.4.2|9=195|35=J|49=TESTI|56=TESTA|34=4|52=20030204-08:56:41|70=1116226|71=0|73=2|11=90001008|11=90000008|54=1|55=TESTB|53=1004000|6=30|75=20030821|78=3|79=1000|80=500000|79=2000|80=400000|79=3000|80=104000|136=1|137=10|138=AfA|139=7|10=030|
8=FIX.4.2|9=195|35=J|49=TESTI|56=TESTA|34=4|52=20030204-08:56:41|70=1116226|71=0|73=2|11=90001008|11=90000008|54=1|55=TESTB|53=1004000|6=30|75=20030821|78=3|79=1000|80=500000|79=2000|80=400000|79=3000|80=104000|136=1|137=10|138=xxx139=7|10=030|
8=FIX.4.2|9=195|35=J|49=TESTI|56=TESTA|34=4|52=20030204-08:56:41|70=1116226|71=0|73=2|11=90001008|11=90000008|54=1|55=TESTB|53=1004000|6=30|75=20030821|78=3|79=1000|80=500000|79=2000|80=400000|79=3000|80=104000|136=1|137=10|138=-1|139=7|10=030|
8=FIX.4.2|9=195|35=J|49=TESTI|56=TESTA|34=4|52=20030204-08:56:41|70=1116226|71=0|73=2|11=90001008|11=90000008|54=1|55=TESTB|53=1004000|6=30|75=20030821|78=3|79=1000|80=500000|79=2000|80=400000|79=3000|80=104000|136=1|137=10|138=0|139=7|10=030|
8=FIX.4.2|9=140|35=1|34=104|49=SNDR|56=TRGT|52=20090407-09:48:19.812|112= TEST #036 CHECK 4 REJECT MSGS with INVALID MESSAGE - INCORRECT DATA TYPE [MsgType:_J, Tag:_138]|10=018|
8=FIX.4.2|9=195|35=J|49=TESTI|56=TESTA|34=4|52=20030204-08:56:41|70=1116226|71=0|73=2|11=90001008|11=90000008|54=1|55=TESTB|53=1004000|6=30|75=20030821|78=3|79=1000|80=500000|79=2000|80=400000|79=3000|80=104000|136=1|137=10|138=AFA|139=0|10=030|
8=FIX.4.2|9=195|35=J|49=TESTI|56=TESTA|34=4|52=20030204-08:56:41|70=1116226|71=0|73=2|11=90001008|11=90000008|54=1|55=TESTB|53=1004000|6=30|75=20030821|78=3|79=1000|80=500000|79=2000|80=400000|79=3000|80=104000|136=1|137=10|138=AFA|139=-1|10=030|
8=FIX.4.2|9=195|35=J|49=TESTI|56=TESTA|34=4|52=20030204-08:56:41|70=1116226|71=0|73=2|11=90001008|11=90000008|54=1|55=TESTB|53=1004000|6=30|75=20030821|78=3|79=1000|80=500000|79=2000|80=400000|79=3000|80=104000|136=1|137=10|138=AFA|139=A|10=030|
8=FIX.4.2|9=195|35=J|49=TESTI|56=TESTA|34=4|52=20030204-08:56:41|70=1116226|71=0|73=2|11=90001008|11=90000008|54=1|55=TESTB|53=1004000|6=30|75=20030821|78=3|79=1000|80=500000|79=2000|80=400000|79=3000|80=104000|136=1|137=10|138=AFA|139=b|10=030|
8=FIX.4.2|9=140|35=1|34=104|49=SNDR|56=TRGT|52=20090407-09:48:19.812|112= TEST #037 CHECK 4 REJECT MSGS with INVALID MESSAGE - INCORRECT DATA TYPE [MsgType:_J, Tag:_139]|10=018|
8=FIX.4.2|9=125|35=8|49=TESTI|56=TESTA|34=114|52=20030203-16:09:30|37=11111111|17=12|20=3|39=0|150=-1|55=TESTB|54=1|38=1000|151=1000|14=0|6=0|10=011|
8=FIX.4.2|9=125|35=8|49=TESTI|56=TESTA|34=114|52=20030203-16:09:30|37=11111111|17=12|20=3|39=0|150=10|55=TESTB|54=1|38=1000|151=1000|14=0|6=0|10=011|
8=FIX.4.2|9=125|35=8|49=TESTI|56=TESTA|34=114|52=20030203-16:09:30|37=11111111|17=12|20=3|39=0|150=F|55=TESTB|54=1|38=1000|151=1000|14=0|6=0|10=011|
8=FIX.4.2|9=125|35=8|49=TESTI|56=TESTA|34=114|52=20030203-16:09:30|37=11111111|17=12|20=3|39=0|150=a|55=TESTB|54=1|38=1000|151=1000|14=0|6=0|10=011|
8=FIX.4.2|9=140|35=1|34=104|49=SNDR|56=TRGT|52=20090407-09:48:19.812|112= TEST #038 CHECK 4 REJECT MSGS with INVALID MESSAGE - INCORRECT DATA TYPE [MsgType:_8, Tag:_150]|10=018|
8=FIX.4.2|9=125|35=8|49=TESTI|56=TESTA|34=114|52=20030203-16:09:30|37=11111111|17=12|20=3|39=0|150=0|55=TESTB|54=1|38=1000|151=1000|14=0|6=0|156=m|10=011|
8=FIX.4.2|9=125|35=8|49=TESTI|56=TESTA|34=114|52=20030203-16:09:30|37=11111111|17=12|20=3|39=0|150=0|55=TESTB|54=1|38=1000|151=1000|14=0|6=0|156=d|10=011|
8=FIX.4.2|9=125|35=8|49=TESTI|56=TESTA|34=114|52=20030203-16:09:30|37=11111111|17=12|20=3|39=0|150=0|55=TESTB|54=1|38=1000|151=1000|14=0|6=0|156=0|10=011|
8=FIX.4.2|9=125|35=8|49=TESTI|56=TESTA|34=114|52=20030203-16:09:30|37=11111111|17=12|20=3|39=0|150=0|55=TESTB|54=1|38=1000|151=1000|14=0|6=0|156=-1|10=011|
8=FIX.4.2|9=140|35=1|34=104|49=SNDR|56=TRGT|52=20090407-09:48:19.812|112= TEST #039 CHECK 4 REJECT MSGS with INVALID MESSAGE - INCORRECT DATA TYPE [MsgType:_8, Tag:_156]|10=018|
8=FIX.4.2|9=157|35=T|49=TESTI|56=TESTA|34=1|52=20030204-09:25:43|162=11223|163=N|160=-1|165=1|60=20060217-10:00:00|10=105|
8=FIX.4.2|9=157|35=T|49=TESTI|56=TESTA|34=1|52=20030204-09:25:43|162=11223|163=N|160=4|165=1|60=20060217-10:00:00|10=105|
8=FIX.4.2|9=157|35=T|49=TESTI|56=TESTA|34=1|52=20030204-09:25:43|162=11223|163=N|160=A|165=1|60=20060217-10:00:00|10=105|
8=FIX.4.2|9=157|35=T|49=TESTI|56=TESTA|34=1|52=20030204-09:25:43|162=11223|163=N|160=b|165=1|60=20060217-10:00:00|10=105|
8=FIX.4.2|9=140|35=1|34=104|49=SNDR|56=TRGT|52=20090407-09:48:19.812|112= TEST #040 CHECK 4 REJECT MSGS with INVALID MESSAGE - INCORRECT DATA TYPE [MsgType:_T, Tag:_160]|10=018|
8=FIX.4.2|9=157|35=T|49=TESTI|56=TESTA|34=1|52=20030204-09:25:43|162=11223|163=n|160=0|165=1|60=20060217-10:00:00|10=105|
8=FIX.4.2|9=157|35=T|49=TESTI|56=TESTA|34=1|52=20030204-09:25:43|162=11223|163=r|160=0|165=1|60=20060217-10:00:00|10=105|
8=FIX.4.2|9=157|35=T|49=TESTI|56=TESTA|34=1|52=20030204-09:25:43|162=11223|163=0|160=0|165=1|60=20060217-10:00:00|10=105|
8=FIX.4.2|9=157|35=T|49=TESTI|56=TESTA|34=1|52=20030204-09:25:43|162=11223|163=-1|160=0|165=1|60=20060217-10:00:00|10=105|
8=FIX.4.2|9=140|35=1|34=104|49=SNDR|56=TRGT|52=20090407-09:48:19.812|112= TEST #041 CHECK 4 REJECT MSGS with INVALID MESSAGE - INCORRECT DATA TYPE [MsgType:_T, Tag:_163]|10=018|
8=FIX.4.2|9=157|35=T|49=TESTI|56=TESTA|34=1|52=20030204-09:25:43|162=11223|163=N|160=0|165=0|60=20060217-10:00:00|10=105|
8=FIX.4.2|9=157|35=T|49=TESTI|56=TESTA|34=1|52=20030204-09:25:43|162=11223|163=N|160=0|165=-1|60=20060217-10:00:00|10=105|
8=FIX.4.2|9=157|35=T|49=TESTI|56=TESTA|34=1|52=20030204-09:25:43|162=11223|163=N|160=0|165=A|60=20060217-10:00:00|10=105|
8=FIX.4.2|9=157|35=T|49=TESTI|56=TESTA|34=1|52=20030204-09:25:43|162=11223|163=N|160=0|165=b|60=20060217-10:00:00|10=105|
8=FIX.4.2|9=140|35=1|34=104|49=SNDR|56=TRGT|52=20090407-09:48:19.812|112= TEST #042 CHECK 4 REJECT MSGS with INVALID MESSAGE - INCORRECT DATA TYPE [MsgType:_T, Tag:_165]|10=018|
8=FIX.4.2|9=157|35=T|49=TESTI|56=TESTA|34=1|52=20030204-09:25:43|162=11223|163=N|160=0|165=1|166=0|60=20060217-10:00:00|10=105|
8=FIX.4.2|9=157|35=T|49=TESTI|56=TESTA|34=1|52=20030204-09:25:43|162=11223|163=N|160=0|165=1|166=-1|60=20060217-10:00:00|10=105|
8=FIX.4.2|9=157|35=T|49=TESTI|56=TESTA|34=1|52=20030204-09:25:43|162=11223|163=N|160=0|165=1|166=Ced0|60=20060217-10:00:00|10=105|
8=FIX.4.2|9=157|35=T|49=TESTI|56=TESTA|34=1|52=20030204-09:25:43|162=11223|163=N|160=0|165=1|166=EUr|60=20060217-10:00:00|10=105|
8=FIX.4.2|9=140|35=1|34=104|49=SNDR|56=TRGT|52=20090407-09:48:19.812|112= TEST #043 CHECK 4 REJECT MSGS with INVALID MESSAGE - INCORRECT DATA TYPE [MsgType:_T, Tag:_166]|10=018|
8=FIX.4.2|9=111|35=W|49=TESTI|56=TESTA|34=1|52=20030204-09:25:43|55=TESTA|167=OPt|268=2|269=0|270=10|271=50|269=1|270=11|271=40|10=019|
8=FIX.4.2|9=111|35=W|49=TESTI|56=TESTA|34=1|52=20030204-09:25:43|55=TESTA|167=fut|268=2|269=0|270=10|271=50|269=1|270=11|271=40|10=019|
8=FIX.4.2|9=111|35=W|49=TESTI|56=TESTA|34=1|52=20030204-09:25:43|55=TESTA|167=0|268=2|269=0|270=10|271=50|269=1|270=11|271=40|10=019|
8=FIX.4.2|9=111|35=W|49=TESTI|56=TESTA|34=1|52=20030204-09:25:43|55=TESTA|167=-1|268=2|269=0|270=10|271=50|269=1|270=11|271=40|10=019|
8=FIX.4.2|9=140|35=1|34=104|49=SNDR|56=TRGT|52=20090407-09:48:19.812|112= TEST #044 CHECK 4 REJECT MSGS with INVALID MESSAGE - INCORRECT DATA TYPE [MsgType:_W, Tag:_167]|10=018|
8=FIX.4.2|9=111|35=T|49=TESTI|56=TESTA|34=14|52=20030204-09:25:43|162=11223|163=N|160=0|165=1|79=KTierney|60=20060217-10:00:00|169=-1|10=106|
8=FIX.4.2|9=111|35=T|49=TESTI|56=TESTA|34=14|52=20030204-09:25:43|162=11223|163=N|160=0|165=1|79=KTierney|60=20060217-10:00:00|169=4|10=106|
8=FIX.4.2|9=111|35=T|49=TESTI|56=TESTA|34=14|52=20030204-09:25:43|162=11223|163=N|160=0|165=1|79=KTierney|60=20060217-10:00:00|169=A|10=106|
8=FIX.4.2|9=111|35=T|49=TESTI|56=TESTA|34=14|52=20030204-09:25:43|162=11223|163=N|160=0|165=1|79=KTierney|60=20060217-10:00:00|169=b|10=106|
8=FIX.4.2|9=140|35=1|34=104|49=SNDR|56=TRGT|52=20090407-09:48:19.812|112= TEST #045 CHECK 4 REJECT MSGS with INVALID MESSAGE - INCORRECT DATA TYPE [MsgType:_T, Tag:_169]|10=018|
8=FIX.4.2|9=195|35=J|49=TESTI|56=TESTA|34=4|52=20030204-08:56:41|70=1116226|71=0|196=00096|197=-1|73=2|11=90001008|11=90000008|54=1|55=TESTB|53=1004000|6=30|75=20030821|78=3|79=1000|80=500000|79=2000|80=400000|79=3000|80=104000|10=030|
8=FIX.4.2|9=195|35=J|49=TESTI|56=TESTA|34=4|52=20030204-08:56:41|70=1116226|71=0|196=00096|197=2|73=2|11=90001008|11=90000008|54=1|55=TESTB|53=1004000|6=30|75=20030821|78=3|79=1000|80=500000|79=2000|80=400000|79=3000|80=104000|10=030|
8=FIX.4.2|9=195|35=J|49=TESTI|56=TESTA|34=4|52=20030204-08:56:41|70=1116226|71=0|196=00096|197=A|73=2|11=90001008|11=90000008|54=1|55=TESTB|53=1004000|6=30|75=20030821|78=3|79=1000|80=500000|79=2000|80=400000|79=3000|80=104000|10=030|
8=FIX.4.2|9=195|35=J|49=TESTI|56=TESTA|34=4|52=20030204-08:56:41|70=1116226|71=0|196=00096|197=b|73=2|11=90001008|11=90000008|54=1|55=TESTB|53=1004000|6=30|75=20030821|78=3|79=1000|80=500000|79=2000|80=400000|79=3000|80=104000|10=030|
8=FIX.4.2|9=140|35=1|34=104|49=SNDR|56=TRGT|52=20090407-09:48:19.812|112= TEST #046 CHECK 4 REJECT MSGS with INVALID MESSAGE - INCORRECT DATA TYPE [MsgType:_J, Tag:_197]|10=018|
