8=FIXT.1.1|9=107|35=W|49=SNDR|56=TRGT|34=38|52=20100325-10:33:01.213|55=TESTA|268=2|269=4|270=10|276=ABC|269=5|270=11|276=D|10=171|
8=FIXT.1.1|9=109|35=W|49=SNDR|56=TRGT|34=39|52=20100325-10:33:01.213|55=TESTA|268=2|269=4|270=10|276=B Z 8|269=5|270=11|276=D|10=252|
8=FIXT.1.1|9=108|35=W|49=SNDR|56=TRGT|34=40|52=20100325-10:33:01.213|55=TESTA|268=2|269=4|270=10|276=a ii|269=5|270=11|276=D|10=050|
8=FIXT.1.1|9=106|35=W|49=SNDR|56=TRGT|34=41|52=20100325-10:33:01.213|55=TESTA|268=2|269=4|270=10|276=10|269=5|270=11|276=D|10=063|
8=FIXT.1.1|9=153|35=1|34=42|49=SNDR|56=TRGT|52=20100325-10:33:01.213|112= TEST #008 CHECK 4 REJECT MSGS with INVALID MESSAGE - INCORRECT DATA TYPE [MsgType:_W, Tag:_276]|10=013|
8=FIXT.1.1|9=118|35=X|49=SNDR|56=TRGT|34=43|52=20100325-10:33:01.213|268=2|279=1|280=0001|270=10|277=AA zz|279=1|280=0002|270=11|277=G|10=132|
8=FIXT.1.1|9=116|35=X|49=SNDR|56=TRGT|34=44|52=20100325-10:33:01.213|268=2|279=1|280=0001|270=10|277=AV1|279=1|280=0002|270=11|277=G|10=181|
8=FIXT.1.1|9=118|35=X|49=SNDR|56=TRGT|34=45|52=20100325-10:33:01.213|268=2|279=1|280=0001|270=10|277=CC DD|279=1|280=0002|270=11|277=G|10=030|
8=FIXT.1.1|9=115|35=X|49=SNDR|56=TRGT|34=46|52=20100325-10:33:01.213|268=2|279=1|280=0001|270=10|277=00|279=1|280=0002|270=11|277=G|10=078|
8=FIXT.1.1|9=153|35=1|34=47|49=SNDR|56=TRGT|52=20100325-10:33:01.213|112= TEST #009 CHECK 4 REJECT MSGS with INVALID MESSAGE - INCORRECT DATA TYPE [MsgType:_X, Tag:_277]|10=021|
8=FIXT.1.1|9=122|35=D|49=SNDR|56=TRGT|34=48|52=20100325-10:33:01.213|11=90001008|55=IBM|54=1|60=20080817-10:00:00|38=4000|40=1|1031=ADDDIR|10=118|
8=FIXT.1.1|9=123|35=D|49=SNDR|56=TRGT|34=49|52=20100325-10:33:01.213|11=90001008|55=IBM|54=1|60=20080817-10:00:00|38=4000|40=1|1031=ADD dir|10=248|
8=FIXT.1.1|9=125|35=D|49=SNDR|56=TRGT|34=50|52=20100325-10:33:01.213|11=90001008|55=IBM|54=1|60=20080817-10:00:00|38=4000|40=1|1031=NH SCLTMO|10=082|
8=FIXT.1.1|9=120|35=D|49=SNDR|56=TRGT|34=51|52=20100325-10:33:01.213|11=90001008|55=IBM|54=1|60=20080817-10:00:00|38=4000|40=1|1031=TS *|10=183|
8=FIXT.1.1|9=154|35=1|34=52|49=SNDR|56=TRGT|52=20100325-10:33:01.213|112= TEST #010 CHECK 4 REJECT MSGS with INVALID MESSAGE - INCORRECT DATA TYPE [MsgType:_D, Tag:_1031]|10=027|
8=FIXT.1.1|9=117|35=AR|49=SNDR|56=TRGT|34=53|52=20100325-10:33:01.213|55=TEST|552=1|54=1|768=1|769=20080816-12:31:20|770=1|1035=ADDTS|10=250|
8=FIXT.1.1|9=118|35=AR|49=SNDR|56=TRGT|34=54|52=20100325-10:33:01.213|55=TEST|552=1|54=1|768=1|769=20080816-12:31:20|770=1|1035=ts ADD|10=092|
8=FIXT.1.1|9=121|35=AR|49=SNDR|56=TRGT|34=55|52=20100325-10:33:01.213|55=TEST|552=1|54=1|768=1|769=20080816-12:31:20|770=1|1035=IO MAOMAC|10=237|
8=FIXT.1.1|9=116|35=AR|49=SNDR|56=TRGT|34=56|52=20100325-10:33:01.213|55=TEST|552=1|54=1|768=1|769=20080816-12:31:20|770=1|1035=WRK |10=160|
8=FIXT.1.1|9=155|35=1|34=57|49=SNDR|56=TRGT|52=20100325-10:33:01.213|112= TEST #011 CHECK 4 REJECT MSGS with INVALID MESSAGE - INCORRECT DATA TYPE [MsgType:_AR, Tag:_1035]|10=117|
