8=FIXT.1.1|9=180|35=s|49=SNDR|56=TRGT|34=2|52=20100325-10:46:06.286|548=90001008|549=1|550=0|552=2|54=1|11=B101010|38=4000|54=2|11=S101010|38=5000|55=TESTA|60=20060217-10:00:00|40=1|18=0 9 A Z a t|10=094|
8=FIXT.1.1|9=180|35=s|49=SNDR|56=TRGT|34=3|52=20100325-10:46:06.302|548=90001008|549=1|550=0|552=2|54=1|11=B101010|38=4000|54=2|11=S101010|38=5000|55=TESTA|60=20060217-10:00:00|40=1|18=t k Z Z 1 1|10=112|
8=FIXT.1.1|9=176|35=s|49=SNDR|56=TRGT|34=4|52=20100325-10:46:06.302|548=90001008|549=1|550=0|552=2|54=1|11=B101010|38=4000|54=2|11=S101010|38=5000|55=TESTA|60=20060217-10:00:00|40=1|18=A B C D|10=075|
8=FIXT.1.1|9=182|35=s|49=SNDR|56=TRGT|34=5|52=20100325-10:46:06.302|548=90001008|549=1|550=0|552=2|54=1|11=B101010|38=4000|54=2|11=S101010|38=5000|55=TESTA|60=20060217-10:00:00|40=1|18=a b c d 1 2 3|10=191|
8=FIXT.1.1|9=103|35=1|34=6|49=SNDR|56=TRGT|52=20100325-10:46:06.302|112= TEST #001 -- 4 valid messages MsgType "s"     |10=155|
8=FIXT.1.1|9=135|35=V|49=SNDR|56=TRGT|34=7|52=20100325-10:46:06.302|262=11223|263=0|264=0|286=0 1 5|267=2|269=0|269=1|146=2|55=TESTA|63=1|55=TESTB|63=1|10=190|
8=FIXT.1.1|9=139|35=V|49=SNDR|56=TRGT|34=8|52=20100325-10:46:06.302|262=11223|263=0|264=0|286=5 4 3 2 1|267=2|269=0|269=1|146=2|55=TESTA|63=1|55=TESTB|63=1|10=108|
8=FIXT.1.1|9=139|35=V|49=SNDR|56=TRGT|34=9|52=20100325-10:46:06.302|262=11223|263=0|264=0|286=1 1 5 5 0|267=2|269=0|269=1|146=2|55=TESTA|63=1|55=TESTB|63=1|10=106|
8=FIXT.1.1|9=142|35=V|49=SNDR|56=TRGT|34=10|52=20100325-10:46:06.302|262=11223|263=0|264=0|286=0 3 0 3 0 3|267=2|269=0|269=1|146=2|55=TESTA|63=1|55=TESTB|63=1|10=217|
8=FIXT.1.1|9=104|35=1|34=11|49=SNDR|56=TRGT|52=20100325-10:46:06.302|112= TEST #002 -- 4 valid messages MsgType "V"     |10=172|
8=FIXT.1.1|9=71|35=f|49=SNDR|56=TRGT|34=12|52=20100325-10:46:06.302|55=TESTB|291=1 2 3|10=207|
8=FIXT.1.1|9=71|35=f|49=SNDR|56=TRGT|34=13|52=20100325-10:46:06.302|55=TESTB|291=3 2 1|10=208|
8=FIXT.1.1|9=77|35=f|49=SNDR|56=TRGT|34=14|52=20100325-10:46:06.302|55=TESTB|291=1 1 2 2 3 3|10=205|
8=FIXT.1.1|9=77|35=f|49=SNDR|56=TRGT|34=15|52=20100325-10:46:06.302|55=TESTB|291=2 2 2 1 1 1|10=203|
8=FIXT.1.1|9=104|35=1|34=16|49=SNDR|56=TRGT|52=20100325-10:46:06.302|112= TEST #003 -- 4 valid messages MsgType "f"     |10=194|
8=FIXT.1.1|9=69|35=f|49=SNDR|56=TRGT|34=17|52=20100325-10:46:06.302|55=TESTB|292=A W|10=190|
8=FIXT.1.1|9=75|35=f|49=SNDR|56=TRGT|34=18|52=20100325-10:46:06.302|55=TESTB|292=W A I J K|10=250|
8=FIXT.1.1|9=73|35=f|49=SNDR|56=TRGT|34=19|52=20100325-10:46:06.302|55=TESTB|292=A B B B|10=106|
8=FIXT.1.1|9=77|35=f|49=SNDR|56=TRGT|34=20|52=20100325-10:46:06.302|55=TESTB|292=G G L L M M|10=095|
8=FIXT.1.1|9=104|35=1|34=21|49=SNDR|56=TRGT|52=20100325-10:46:06.302|112= TEST #004 -- 4 valid messages MsgType "f"     |10=191|
8=FIXT.1.1|9=255|35=AK|49=SNDR|56=TRGT|34=22|52=20100325-10:46:06.302|664=0001|666=0|773=1|665=4|60=20060217-10:00:00|75=20060217|711=1|311=TST311|555=1|600=TST600|55=TESTA|80=1000|54=1|862=2|528=A|529=1 E 9|863=400|528=P|529=8|863=600|79=KTierney|6=20|381=20000|118=2000|10=215|
8=FIXT.1.1|9=259|35=AK|49=SNDR|56=TRGT|34=23|52=20100325-10:46:06.302|664=0001|666=0|773=1|665=4|60=20060217-10:00:00|75=20060217|711=1|311=TST311|555=1|600=TST600|55=TESTA|80=1000|54=1|862=2|528=A|529=9 8 7 6 1|863=400|528=P|529=8|863=600|79=KTierney|6=20|381=20000|118=2000|10=124|
8=FIXT.1.1|9=261|35=AK|49=SNDR|56=TRGT|34=24|52=20100325-10:46:06.302|664=0001|666=0|773=1|665=4|60=20060217-10:00:00|75=20060217|711=1|311=TST311|555=1|600=TST600|55=TESTA|80=1000|54=1|862=2|528=A|529=5 5 5 9 9 9|863=400|528=P|529=8|863=600|79=KTierney|6=20|381=20000|118=2000|10=209|
8=FIXT.1.1|9=259|35=AK|49=SNDR|56=TRGT|34=25|52=20100325-10:46:06.302|664=0001|666=0|773=1|665=4|60=20060217-10:00:00|75=20060217|711=1|311=TST311|555=1|600=TST600|55=TESTA|80=1000|54=1|862=2|528=A|529=4 4 7 7 7|863=400|528=P|529=8|863=600|79=KTierney|6=20|381=20000|118=2000|10=124|
8=FIXT.1.1|9=104|35=1|34=26|49=SNDR|56=TRGT|52=20100325-10:46:06.302|112= TEST #005 -- 4 valid messages MsgType "AK"    |10=203|
8=FIXT.1.1|9=136|35=V|49=SNDR|56=TRGT|34=27|52=20100325-10:46:06.302|262=11223|263=0|264=0|546=1 2 3|267=2|269=0|269=1|146=2|55=TESTA|63=1|55=TESTB|63=1|10=240|
8=FIXT.1.1|9=136|35=V|49=SNDR|56=TRGT|34=28|52=20100325-10:46:06.302|262=11223|263=0|264=0|546=3 2 1|267=2|269=0|269=1|146=2|55=TESTA|63=1|55=TESTB|63=1|10=241|
8=FIXT.1.1|9=142|35=V|49=SNDR|56=TRGT|34=29|52=20100325-10:46:06.302|262=11223|263=0|264=0|546=1 1 2 2 3 3|267=2|269=0|269=1|146=2|55=TESTA|63=1|55=TESTB|63=1|10=229|
8=FIXT.1.1|9=142|35=V|49=SNDR|56=TRGT|34=30|52=20100325-10:46:06.317|262=11223|263=0|264=0|546=2 2 2 1 1 1|267=2|269=0|269=1|146=2|55=TESTA|63=1|55=TESTB|63=1|10=224|
8=FIXT.1.1|9=104|35=1|34=31|49=SNDR|56=TRGT|52=20100325-10:46:06.317|112= TEST #006 -- 4 valid messages MsgType "V"     |10=184|
8=FIXT.1.1|9=150|35=8|49=SNDR|56=TRGT|34=32|52=20100325-10:46:06.317|37=55667788|17=33|39=0|150=0|55=IBM|54=2|38=1000000|151=1000000|14=0|6=0|555=1|600=1|1384=0 9 B Y|10=184|
8=FIXT.1.1|9=156|35=8|49=SNDR|56=TRGT|34=33|52=20100325-10:46:06.317|37=55667788|17=33|39=0|150=0|55=IBM|54=2|38=1000000|151=1000000|14=0|6=0|555=1|600=1|1384=a b c d r s t|10=254|
8=FIXT.1.1|9=156|35=8|49=SNDR|56=TRGT|34=35|52=20100325-10:46:06.317|37=55667788|17=33|39=0|150=0|55=IBM|54=2|38=1000000|151=1000000|14=0|6=0|555=1|600=1|1384=E E E o o o o|10=168|
8=FIXT.1.1|9=104|35=1|34=36|49=SNDR|56=TRGT|52=20100325-10:46:06.317|112= TEST #007 -- 4 valid messages MsgType "8"     |10=160|
