8=FIX.4.4|9=62|35=b|49=TESTI|56=TESTA|34=14|52=20030204-09:25:43|297=0|300=0|10=138|
8=FIX.4.4|9=62|35=b|49=TESTI|56=TESTA|34=14|52=20030204-09:25:43|297=0|300=-1|10=138|
8=FIX.4.4|9=62|35=b|49=TESTI|56=TESTA|34=14|52=20030204-09:25:43|297=0|300=A|10=138|
8=FIX.4.4|9=62|35=b|49=TESTI|56=TESTA|34=14|52=20030204-09:25:43|297=0|300=b|10=138|
8=FIX.4.4|9=140|35=1|34=104|49=SNDR|56=TRGT|52=20090407-09:48:19.812|112= TEST #061 CHECK 4 REJECT MSGS with INVALID MESSAGE - INCORRECT DATA TYPE [MsgType:_b, Tag:_300]|10=018|
8=FIX.4.4|9=84|35=S|49=TESTI|56=TESTA|34=14|52=20030204-09:25:43|117=11223|301=-1|55=TESTB|133=15.3|10=005|
8=FIX.4.4|9=84|35=S|49=TESTI|56=TESTA|34=14|52=20030204-09:25:43|117=11223|301=3|55=TESTB|133=15.3|10=005|
8=FIX.4.4|9=84|35=S|49=TESTI|56=TESTA|34=14|52=20030204-09:25:43|117=11223|301=A|55=TESTB|133=15.3|10=005|
8=FIX.4.4|9=84|35=S|49=TESTI|56=TESTA|34=14|52=20030204-09:25:43|117=11223|301=b|55=TESTB|133=15.3|10=005|
8=FIX.4.4|9=140|35=1|34=104|49=SNDR|56=TRGT|52=20090407-09:48:19.812|112= TEST #062 CHECK 4 REJECT MSGS with INVALID MESSAGE - INCORRECT DATA TYPE [MsgType:_S, Tag:_301]|10=018|
8=FIX.4.4|9=97|35=R|49=TESTI|56=TESTA|34=8|52=20030204-09:25:21|131=1272727|146=2|55=TESTA|303=1|55=TESTB|303=0|10=231|
8=FIX.4.4|9=97|35=R|49=TESTI|56=TESTA|34=8|52=20030204-09:25:21|131=1272727|146=2|55=TESTA|303=1|55=TESTB|303=-1|10=231|
8=FIX.4.4|9=97|35=R|49=TESTI|56=TESTA|34=8|52=20030204-09:25:21|131=1272727|146=2|55=TESTA|303=1|55=TESTB|303=A|10=231|
8=FIX.4.4|9=97|35=R|49=TESTI|56=TESTA|34=8|52=20030204-09:25:21|131=1272727|146=2|55=TESTA|303=1|55=TESTB|303=b|10=231|
8=FIX.4.4|9=140|35=1|34=104|49=SNDR|56=TRGT|52=20090407-09:48:19.812|112= TEST #063 CHECK 4 REJECT MSGS with INVALID MESSAGE - INCORRECT DATA TYPE [MsgType:_R, Tag:_303]|10=018|
8=FIX.4.4|9=65|35=c|49=TESTI|56=TESTA|34=14|52=20030204-09:25:43|320=0001|321=-1|10=021|
8=FIX.4.4|9=65|35=c|49=TESTI|56=TESTA|34=14|52=20030204-09:25:43|320=0001|321=4|10=021|
8=FIX.4.4|9=65|35=c|49=TESTI|56=TESTA|34=14|52=20030204-09:25:43|320=0001|321=A|10=021|
8=FIX.4.4|9=65|35=c|49=TESTI|56=TESTA|34=14|52=20030204-09:25:43|320=0001|321=b|10=021|
8=FIX.4.4|9=140|35=1|34=104|49=SNDR|56=TRGT|52=20090407-09:48:19.812|112= TEST #064 CHECK 4 REJECT MSGS with INVALID MESSAGE - INCORRECT DATA TYPE [MsgType:_c, Tag:_321]|10=018|
8=FIX.4.4|9=74|35=d|49=TESTI|56=TESTA|34=14|52=20030204-09:25:43|320=0001|322=0001|323=0|10=175|
8=FIX.4.4|9=74|35=d|49=TESTI|56=TESTA|34=14|52=20030204-09:25:43|320=0001|322=0001|323=-1|10=175|
8=FIX.4.4|9=74|35=d|49=TESTI|56=TESTA|34=14|52=20030204-09:25:43|320=0001|322=0001|323=A|10=175|
8=FIX.4.4|9=74|35=d|49=TESTI|56=TESTA|34=14|52=20030204-09:25:43|320=0001|322=0001|323=b|10=175|
8=FIX.4.4|9=140|35=1|34=104|49=SNDR|56=TRGT|52=20090407-09:48:19.812|112= TEST #065 CHECK 4 REJECT MSGS with INVALID MESSAGE - INCORRECT DATA TYPE [MsgType:_d, Tag:_323]|10=018|
8=FIX.4.4|9=75|35=h|49=TESTI|56=TESTA|34=12|52=20030204-08:49:42|336=PRE-OPEN|325=y|340=2|10=209|
8=FIX.4.4|9=75|35=h|49=TESTI|56=TESTA|34=12|52=20030204-08:49:42|336=PRE-OPEN|325=n|340=2|10=209|
8=FIX.4.4|9=75|35=h|49=TESTI|56=TESTA|34=12|52=20030204-08:49:42|336=PRE-OPEN|325=0|340=2|10=209|
8=FIX.4.4|9=75|35=h|49=TESTI|56=TESTA|34=12|52=20030204-08:49:42|336=PRE-OPEN|325=-1|340=2|10=209|
8=FIX.4.4|9=140|35=1|34=104|49=SNDR|56=TRGT|52=20090407-09:48:19.812|112= TEST #066 CHECK 4 REJECT MSGS with INVALID MESSAGE - INCORRECT DATA TYPE [MsgType:_h, Tag:_325]|10=018|
8=FIX.4.4|9=65|35=f|49=TESTI|56=TESTA|34=14|52=20030204-09:25:43|55=TESTB|326=0|10=179|
8=FIX.4.4|9=65|35=f|49=TESTI|56=TESTA|34=14|52=20030204-09:25:43|55=TESTB|326=-1|10=179|
8=FIX.4.4|9=65|35=f|49=TESTI|56=TESTA|34=14|52=20030204-09:25:43|55=TESTB|326=A|10=179|
8=FIX.4.4|9=65|35=f|49=TESTI|56=TESTA|34=14|52=20030204-09:25:43|55=TESTB|326=b|10=179|
8=FIX.4.4|9=140|35=1|34=104|49=SNDR|56=TRGT|52=20090407-09:48:19.812|112= TEST #067 CHECK 4 REJECT MSGS with INVALID MESSAGE - INCORRECT DATA TYPE [MsgType:_f, Tag:_326]|10=018|
8=FIX.4.4|9=65|35=f|49=TESTI|56=TESTA|34=14|52=20030204-09:25:43|55=TESTB|327=d|10=199|
8=FIX.4.4|9=65|35=f|49=TESTI|56=TESTA|34=14|52=20030204-09:25:43|55=TESTB|327=x|10=199|
8=FIX.4.4|9=65|35=f|49=TESTI|56=TESTA|34=14|52=20030204-09:25:43|55=TESTB|327=0|10=199|
8=FIX.4.4|9=65|35=f|49=TESTI|56=TESTA|34=14|52=20030204-09:25:43|55=TESTB|327=-1|10=199|
8=FIX.4.4|9=140|35=1|34=104|49=SNDR|56=TRGT|52=20090407-09:48:19.812|112= TEST #068 CHECK 4 REJECT MSGS with INVALID MESSAGE - INCORRECT DATA TYPE [MsgType:_f, Tag:_327]|10=018|
8=FIX.4.4|9=65|35=f|49=TESTI|56=TESTA|34=14|52=20030204-09:25:43|55=TESTB|328=y|10=210|
8=FIX.4.4|9=65|35=f|49=TESTI|56=TESTA|34=14|52=20030204-09:25:43|55=TESTB|328=n|10=210|
8=FIX.4.4|9=65|35=f|49=TESTI|56=TESTA|34=14|52=20030204-09:25:43|55=TESTB|328=0|10=210|
8=FIX.4.4|9=65|35=f|49=TESTI|56=TESTA|34=14|52=20030204-09:25:43|55=TESTB|328=-1|10=210|
8=FIX.4.4|9=140|35=1|34=104|49=SNDR|56=TRGT|52=20090407-09:48:19.812|112= TEST #069 CHECK 4 REJECT MSGS with INVALID MESSAGE - INCORRECT DATA TYPE [MsgType:_f, Tag:_328]|10=018|
8=FIX.4.4|9=65|35=f|49=TESTI|56=TESTA|34=14|52=20030204-09:25:43|55=TESTB|329=y|10=211|
8=FIX.4.4|9=65|35=f|49=TESTI|56=TESTA|34=14|52=20030204-09:25:43|55=TESTB|329=n|10=211|
8=FIX.4.4|9=65|35=f|49=TESTI|56=TESTA|34=14|52=20030204-09:25:43|55=TESTB|329=0|10=211|
8=FIX.4.4|9=65|35=f|49=TESTI|56=TESTA|34=14|52=20030204-09:25:43|55=TESTB|329=-1|10=211|
8=FIX.4.4|9=140|35=1|34=104|49=SNDR|56=TRGT|52=20090407-09:48:19.812|112= TEST #070 CHECK 4 REJECT MSGS with INVALID MESSAGE - INCORRECT DATA TYPE [MsgType:_f, Tag:_329]|10=018|
8=FIX.4.4|9=65|35=f|49=TESTI|56=TESTA|34=14|52=20030204-09:25:43|55=TESTB|334=0|10=178|
8=FIX.4.4|9=65|35=f|49=TESTI|56=TESTA|34=14|52=20030204-09:25:43|55=TESTB|334=-1|10=178|
8=FIX.4.4|9=65|35=f|49=TESTI|56=TESTA|34=14|52=20030204-09:25:43|55=TESTB|334=A|10=178|
8=FIX.4.4|9=65|35=f|49=TESTI|56=TESTA|34=14|52=20030204-09:25:43|55=TESTB|334=b|10=178|
8=FIX.4.4|9=140|35=1|34=104|49=SNDR|56=TRGT|52=20090407-09:48:19.812|112= TEST #071 CHECK 4 REJECT MSGS with INVALID MESSAGE - INCORRECT DATA TYPE [MsgType:_f, Tag:_334]|10=018|
8=FIX.4.4|9=75|35=h|49=TESTI|56=TESTA|34=12|52=20030204-08:49:42|336=PRE-OPEN|338=0|340=0|10=185|
8=FIX.4.4|9=75|35=h|49=TESTI|56=TESTA|34=12|52=20030204-08:49:42|336=PRE-OPEN|338=-1|340=0|10=185|
8=FIX.4.4|9=75|35=h|49=TESTI|56=TESTA|34=12|52=20030204-08:49:42|336=PRE-OPEN|338=A|340=0|10=185|
8=FIX.4.4|9=75|35=h|49=TESTI|56=TESTA|34=12|52=20030204-08:49:42|336=PRE-OPEN|338=b|340=0|10=185|
8=FIX.4.4|9=140|35=1|34=104|49=SNDR|56=TRGT|52=20090407-09:48:19.812|112= TEST #072 CHECK 4 REJECT MSGS with INVALID MESSAGE - INCORRECT DATA TYPE [MsgType:_h, Tag:_338]|10=018|
8=FIX.4.4|9=75|35=h|49=TESTI|56=TESTA|34=12|52=20030204-08:49:42|336=PRE-OPEN|339=0|340=2|10=185|
8=FIX.4.4|9=75|35=h|49=TESTI|56=TESTA|34=12|52=20030204-08:49:42|336=PRE-OPEN|339=-1|340=2|10=185|
8=FIX.4.4|9=75|35=h|49=TESTI|56=TESTA|34=12|52=20030204-08:49:42|336=PRE-OPEN|339=A|340=2|10=185|
8=FIX.4.4|9=75|35=h|49=TESTI|56=TESTA|34=12|52=20030204-08:49:42|336=PRE-OPEN|339=b|340=2|10=185|
8=FIX.4.4|9=140|35=1|34=104|49=SNDR|56=TRGT|52=20090407-09:48:19.812|112= TEST #073 CHECK 4 REJECT MSGS with INVALID MESSAGE - INCORRECT DATA TYPE [MsgType:_h, Tag:_339]|10=018|
8=FIX.4.4|9=69|35=h|49=TESTI|56=TESTA|34=12|52=20030204-08:49:42|336=PRE-OPEN|340=7|10=172|
8=FIX.4.4|9=69|35=h|49=TESTI|56=TESTA|34=12|52=20030204-08:49:42|336=PRE-OPEN|340=-1|10=172|
8=FIX.4.4|9=69|35=h|49=TESTI|56=TESTA|34=12|52=20030204-08:49:42|336=PRE-OPEN|340=A|10=172|
8=FIX.4.4|9=69|35=h|49=TESTI|56=TESTA|34=12|52=20030204-08:49:42|336=PRE-OPEN|340=b|10=172|
8=FIX.4.4|9=140|35=1|34=104|49=SNDR|56=TRGT|52=20090407-09:48:19.812|112= TEST #074 CHECK 4 REJECT MSGS with INVALID MESSAGE - INCORRECT DATA TYPE [MsgType:_h, Tag:_340]|10=018|
8=FIX.4.4|9=125|35=b|49=TESTI|56=TESTA|34=14|52=20030204-09:25:43|297=0|296=1|302=000302|311=TEST3|304=12|295=1|299=000299|132=0.99999|368=0|10=194|
8=FIX.4.4|9=125|35=b|49=TESTI|56=TESTA|34=14|52=20030204-09:25:43|297=0|296=1|302=000302|311=TEST3|304=12|295=1|299=000299|132=0.99999|368=-1|10=194|
8=FIX.4.4|9=125|35=b|49=TESTI|56=TESTA|34=14|52=20030204-09:25:43|297=0|296=1|302=000302|311=TEST3|304=12|295=1|299=000299|132=0.99999|368=A|10=194|
8=FIX.4.4|9=125|35=b|49=TESTI|56=TESTA|34=14|52=20030204-09:25:43|297=0|296=1|302=000302|311=TEST3|304=12|295=1|299=000299|132=0.99999|368=b|10=194|
8=FIX.4.4|9=140|35=1|34=104|49=SNDR|56=TRGT|52=20090407-09:48:19.812|112= TEST #075 CHECK 4 REJECT MSGS with INVALID MESSAGE - INCORRECT DATA TYPE [MsgType:_b, Tag:_368]|10=018|
8=FIX.4.4|9=92|35=k|49=TESTI|56=TESTA|34=6|52=20030204-09:07:50|391=20012411|374=n|393=2|394=3|418=A|419=4|10=047|
8=FIX.4.4|9=92|35=k|49=TESTI|56=TESTA|34=6|52=20030204-09:07:50|391=20012411|374=c|393=2|394=3|418=A|419=4|10=047|
8=FIX.4.4|9=92|35=k|49=TESTI|56=TESTA|34=6|52=20030204-09:07:50|391=20012411|374=0|393=2|394=3|418=A|419=4|10=047|
8=FIX.4.4|9=92|35=k|49=TESTI|56=TESTA|34=6|52=20030204-09:07:50|391=20012411|374=-1|393=2|394=3|418=A|419=4|10=047|
8=FIX.4.4|9=140|35=1|34=104|49=SNDR|56=TRGT|52=20090407-09:48:19.812|112= TEST #076 CHECK 4 REJECT MSGS with INVALID MESSAGE - INCORRECT DATA TYPE [MsgType:_k, Tag:_374]|10=018|
8=FIX.4.4|9=132|35=G|49=TESTI|56=TESTA|34=6|52=20030204-08:49:18|11=12233345|41=90001008|21=2|55=TESTB|54=1|60=20060117-10:00:00|38=4000|40=1|377=n|10=008|
8=FIX.4.4|9=132|35=G|49=TESTI|56=TESTA|34=6|52=20030204-08:49:18|11=12233345|41=90001008|21=2|55=TESTB|54=1|60=20060117-10:00:00|38=4000|40=1|377=y|10=008|
8=FIX.4.4|9=132|35=G|49=TESTI|56=TESTA|34=6|52=20030204-08:49:18|11=12233345|41=90001008|21=2|55=TESTB|54=1|60=20060117-10:00:00|38=4000|40=1|377=0|10=008|
8=FIX.4.4|9=132|35=G|49=TESTI|56=TESTA|34=6|52=20030204-08:49:18|11=12233345|41=90001008|21=2|55=TESTB|54=1|60=20060117-10:00:00|38=4000|40=1|377=-1|10=008|
8=FIX.4.4|9=140|35=1|34=104|49=SNDR|56=TRGT|52=20090407-09:48:19.812|112= TEST #077 CHECK 4 REJECT MSGS with INVALID MESSAGE - INCORRECT DATA TYPE [MsgType:_G, Tag:_377]|10=018|
8=FIX.4.4|9=185|35=AE|49=TESTI|56=TESTA|34=4|52=20030204-08:46:14|571=90001008|150=F|378=-1|570=N|55=TESTA|32=1000|31=10.4|75=20060217|60=20060217-10:00:00|552=2|54=1|37=0001|54=2|37=0002|10=196|
8=FIX.4.4|9=185|35=AE|49=TESTI|56=TESTA|34=4|52=20030204-08:46:14|571=90001008|150=F|378=11|570=N|55=TESTA|32=1000|31=10.4|75=20060217|60=20060217-10:00:00|552=2|54=1|37=0001|54=2|37=0002|10=196|
8=FIX.4.4|9=185|35=AE|49=TESTI|56=TESTA|34=4|52=20030204-08:46:14|571=90001008|150=F|378=A|570=N|55=TESTA|32=1000|31=10.4|75=20060217|60=20060217-10:00:00|552=2|54=1|37=0001|54=2|37=0002|10=196|
8=FIX.4.4|9=185|35=AE|49=TESTI|56=TESTA|34=4|52=20030204-08:46:14|571=90001008|150=F|378=b|570=N|55=TESTA|32=1000|31=10.4|75=20060217|60=20060217-10:00:00|552=2|54=1|37=0001|54=2|37=0002|10=196|
8=FIX.4.4|9=140|35=1|34=104|49=SNDR|56=TRGT|52=20090407-09:48:19.812|112= TEST #078 CHECK 4 REJECT MSGS with INVALID MESSAGE - INCORRECT DATA TYPE [MsgType:_AE, Tag:_378]|10=018|
8=FIX.4.4|9=61|35=j|49=TESTI|56=TESTA|34=4|52=20030204-08:56:41|372=9|380=-1|10=107|
8=FIX.4.4|9=61|35=j|49=TESTI|56=TESTA|34=4|52=20030204-08:56:41|372=9|380=8|10=107|
8=FIX.4.4|9=61|35=j|49=TESTI|56=TESTA|34=4|52=20030204-08:56:41|372=9|380=A|10=107|
8=FIX.4.4|9=61|35=j|49=TESTI|56=TESTA|34=4|52=20030204-08:56:41|372=9|380=b|10=107|
8=FIX.4.4|9=140|35=1|34=104|49=SNDR|56=TRGT|52=20090407-09:48:19.812|112= TEST #079 CHECK 4 REJECT MSGS with INVALID MESSAGE - INCORRECT DATA TYPE [MsgType:_j, Tag:_380]|10=018|
8=FIX.4.4|9=218|35=t|49=TESTI|56=TESTA|34=4|52=20030204-08:46:14|548=42444008|551=30000008|549=1|550=0|552=2|54=1|11=B202020|41=B101010|38=4000|54=2|11=S202020|41=S101010|38=5000|55=TESTA|60=20060217-10:00:00|40=1|388=-1|10=015|
8=FIX.4.4|9=218|35=t|49=TESTI|56=TESTA|34=4|52=20030204-08:46:14|548=42444008|551=30000008|549=1|550=0|552=2|54=1|11=B202020|41=B101010|38=4000|54=2|11=S202020|41=S101010|38=5000|55=TESTA|60=20060217-10:00:00|40=1|388=7|10=015|
8=FIX.4.4|9=218|35=t|49=TESTI|56=TESTA|34=4|52=20030204-08:46:14|548=42444008|551=30000008|549=1|550=0|552=2|54=1|11=B202020|41=B101010|38=4000|54=2|11=S202020|41=S101010|38=5000|55=TESTA|60=20060217-10:00:00|40=1|388=A|10=015|
8=FIX.4.4|9=218|35=t|49=TESTI|56=TESTA|34=4|52=20030204-08:46:14|548=42444008|551=30000008|549=1|550=0|552=2|54=1|11=B202020|41=B101010|38=4000|54=2|11=S202020|41=S101010|38=5000|55=TESTA|60=20060217-10:00:00|40=1|388=b|10=015|
8=FIX.4.4|9=140|35=1|34=104|49=SNDR|56=TRGT|52=20090407-09:48:19.812|112= TEST #080 CHECK 4 REJECT MSGS with INVALID MESSAGE - INCORRECT DATA TYPE [MsgType:_t, Tag:_388]|10=018|
8=FIX.4.4|9=92|35=k|49=TESTI|56=TESTA|34=6|52=20030204-09:07:50|391=20012411|374=N|393=2|394=0|418=A|419=4|10=047|
8=FIX.4.4|9=92|35=k|49=TESTI|56=TESTA|34=6|52=20030204-09:07:50|391=20012411|374=N|393=2|394=-1|418=A|419=4|10=047|
8=FIX.4.4|9=92|35=k|49=TESTI|56=TESTA|34=6|52=20030204-09:07:50|391=20012411|374=N|393=2|394=A|418=A|419=4|10=047|
8=FIX.4.4|9=92|35=k|49=TESTI|56=TESTA|34=6|52=20030204-09:07:50|391=20012411|374=N|393=2|394=b|418=A|419=4|10=047|
8=FIX.4.4|9=140|35=1|34=104|49=SNDR|56=TRGT|52=20090407-09:48:19.812|112= TEST #081 CHECK 4 REJECT MSGS with INVALID MESSAGE - INCORRECT DATA TYPE [MsgType:_k, Tag:_394]|10=018|
8=FIX.4.4|9=104|35=k|49=TESTI|56=TESTA|34=6|52=20030204-09:07:50|391=20012411|374=N|393=2|394=3|398=1|399=0|418=A|419=4|10=128|
8=FIX.4.4|9=104|35=k|49=TESTI|56=TESTA|34=6|52=20030204-09:07:50|391=20012411|374=N|393=2|394=3|398=1|399=-1|418=A|419=4|10=128|
8=FIX.4.4|9=104|35=k|49=TESTI|56=TESTA|34=6|52=20030204-09:07:50|391=20012411|374=N|393=2|394=3|398=1|399=A|418=A|419=4|10=128|
8=FIX.4.4|9=104|35=k|49=TESTI|56=TESTA|34=6|52=20030204-09:07:50|391=20012411|374=N|393=2|394=3|398=1|399=b|418=A|419=4|10=128|
8=FIX.4.4|9=140|35=1|34=104|49=SNDR|56=TRGT|52=20090407-09:48:19.812|112= TEST #082 CHECK 4 REJECT MSGS with INVALID MESSAGE - INCORRECT DATA TYPE [MsgType:_k, Tag:_399]|10=018|
