8=FIX.4.4|9=101|35=AY|49=TESTI|56=TESTA|34=4|52=20030204-08:46:14|902=0001|895=0|903=-1|60=20060217-10:00:00|10=001|
8=FIX.4.4|9=101|35=AY|49=TESTI|56=TESTA|34=4|52=20030204-08:46:14|902=0001|895=0|903=5|60=20060217-10:00:00|10=001|
8=FIX.4.4|9=101|35=AY|49=TESTI|56=TESTA|34=4|52=20030204-08:46:14|902=0001|895=0|903=A|60=20060217-10:00:00|10=001|
8=FIX.4.4|9=101|35=AY|49=TESTI|56=TESTA|34=4|52=20030204-08:46:14|902=0001|895=0|903=b|60=20060217-10:00:00|10=001|
8=FIX.4.4|9=140|35=1|34=104|49=SNDR|56=TRGT|52=20090407-09:48:19.812|112= TEST #215 CHECK 4 REJECT MSGS with INVALID MESSAGE - INCORRECT DATA TYPE [MsgType:_AY, Tag:_903]|10=018|
8=FIX.4.4|9=116|35=AZ|49=TESTI|56=TESTA|34=4|52=20030204-08:46:14|904=0001|902=0001|895=0|905=2|906=-1|60=20060217-10:00:00|10=180|
8=FIX.4.4|9=116|35=AZ|49=TESTI|56=TESTA|34=4|52=20030204-08:46:14|904=0001|902=0001|895=0|905=2|906=6|60=20060217-10:00:00|10=180|
8=FIX.4.4|9=116|35=AZ|49=TESTI|56=TESTA|34=4|52=20030204-08:46:14|904=0001|902=0001|895=0|905=2|906=A|60=20060217-10:00:00|10=180|
8=FIX.4.4|9=116|35=AZ|49=TESTI|56=TESTA|34=4|52=20030204-08:46:14|904=0001|902=0001|895=0|905=2|906=b|60=20060217-10:00:00|10=180|
8=FIX.4.4|9=140|35=1|34=104|49=SNDR|56=TRGT|52=20090407-09:48:19.812|112= TEST #216 CHECK 4 REJECT MSGS with INVALID MESSAGE - INCORRECT DATA TYPE [MsgType:_AZ, Tag:_906]|10=018|
8=FIX.4.4|9=74|35=BA|49=TESTI|56=TESTA|34=4|50=30737|52=20030204-08:46:14|908=0001|910=-1|10=187|
8=FIX.4.4|9=74|35=BA|49=TESTI|56=TESTA|34=4|50=30737|52=20030204-08:46:14|908=0001|910=5|10=187|
8=FIX.4.4|9=74|35=BA|49=TESTI|56=TESTA|34=4|50=30737|52=20030204-08:46:14|908=0001|910=A|10=187|
8=FIX.4.4|9=74|35=BA|49=TESTI|56=TESTA|34=4|50=30737|52=20030204-08:46:14|908=0001|910=b|10=187|
8=FIX.4.4|9=140|35=1|34=104|49=SNDR|56=TRGT|52=20090407-09:48:19.812|112= TEST #217 CHECK 4 REJECT MSGS with INVALID MESSAGE - INCORRECT DATA TYPE [MsgType:_BA, Tag:_910]|10=018|
8=FIX.4.4|9=216|35=AW|49=TESTI|56=TESTA|34=4|52=20030204-08:46:14|833=0001|912=y|453=1|448=ABNA|447=C|452=4|581=1|702=1|703=ASF|753=1|707=CASH|708=1000|730=10.5|731=1|732=11.5|744=P|746=5.5|747=M|716=ITD|717=1|715=20060217|10=254|
8=FIX.4.4|9=216|35=AW|49=TESTI|56=TESTA|34=4|52=20030204-08:46:14|833=0001|912=n|453=1|448=ABNA|447=C|452=4|581=1|702=1|703=ASF|753=1|707=CASH|708=1000|730=10.5|731=1|732=11.5|744=P|746=5.5|747=M|716=ITD|717=1|715=20060217|10=254|
8=FIX.4.4|9=216|35=AW|49=TESTI|56=TESTA|34=4|52=20030204-08:46:14|833=0001|912=0|453=1|448=ABNA|447=C|452=4|581=1|702=1|703=ASF|753=1|707=CASH|708=1000|730=10.5|731=1|732=11.5|744=P|746=5.5|747=M|716=ITD|717=1|715=20060217|10=254|
8=FIX.4.4|9=216|35=AW|49=TESTI|56=TESTA|34=4|52=20030204-08:46:14|833=0001|912=-1|453=1|448=ABNA|447=C|452=4|581=1|702=1|703=ASF|753=1|707=CASH|708=1000|730=10.5|731=1|732=11.5|744=P|746=5.5|747=M|716=ITD|717=1|715=20060217|10=254|
8=FIX.4.4|9=140|35=1|34=104|49=SNDR|56=TRGT|52=20090407-09:48:19.812|112= TEST #218 CHECK 4 REJECT MSGS with INVALID MESSAGE - INCORRECT DATA TYPE [MsgType:_AW, Tag:_912]|10=018|
8=FIX.4.4|9=65|35=a|49=TESTI|56=TESTA|34=14|52=20030204-09:25:43|55=TESTB|919=-1|10=167|
8=FIX.4.4|9=65|35=a|49=TESTI|56=TESTA|34=14|52=20030204-09:25:43|55=TESTB|919=4|10=167|
8=FIX.4.4|9=65|35=a|49=TESTI|56=TESTA|34=14|52=20030204-09:25:43|55=TESTB|919=A|10=167|
8=FIX.4.4|9=65|35=a|49=TESTI|56=TESTA|34=14|52=20030204-09:25:43|55=TESTB|919=b|10=167|
8=FIX.4.4|9=140|35=1|34=104|49=SNDR|56=TRGT|52=20090407-09:48:19.812|112= TEST #219 CHECK 4 REJECT MSGS with INVALID MESSAGE - INCORRECT DATA TYPE [MsgType:_a, Tag:_919]|10=018|
8=FIX.4.4|9=87|35=BE|49=TESTI|56=TESTA|34=4|50=30737|52=20030204-08:46:14|923=0001|924=0|553=TestUser|10=224|
8=FIX.4.4|9=87|35=BE|49=TESTI|56=TESTA|34=4|50=30737|52=20030204-08:46:14|923=0001|924=-1|553=TestUser|10=224|
8=FIX.4.4|9=87|35=BE|49=TESTI|56=TESTA|34=4|50=30737|52=20030204-08:46:14|923=0001|924=A|553=TestUser|10=224|
8=FIX.4.4|9=87|35=BE|49=TESTI|56=TESTA|34=4|50=30737|52=20030204-08:46:14|923=0001|924=b|553=TestUser|10=224|
8=FIX.4.4|9=140|35=1|34=104|49=SNDR|56=TRGT|52=20090407-09:48:19.812|112= TEST #220 CHECK 4 REJECT MSGS with INVALID MESSAGE - INCORRECT DATA TYPE [MsgType:_BE, Tag:_924]|10=018|
8=FIX.4.4|9=87|35=BF|49=TESTI|56=TESTA|34=4|52=20030204-08:46:14|923=0001|553=TestUser|926=0|10=226|
8=FIX.4.4|9=87|35=BF|49=TESTI|56=TESTA|34=4|52=20030204-08:46:14|923=0001|553=TestUser|926=-1|10=226|
8=FIX.4.4|9=87|35=BF|49=TESTI|56=TESTA|34=4|52=20030204-08:46:14|923=0001|553=TestUser|926=A|10=226|
8=FIX.4.4|9=87|35=BF|49=TESTI|56=TESTA|34=4|52=20030204-08:46:14|923=0001|553=TestUser|926=b|10=226|
8=FIX.4.4|9=140|35=1|34=104|49=SNDR|56=TRGT|52=20090407-09:48:19.812|112= TEST #221 CHECK 4 REJECT MSGS with INVALID MESSAGE - INCORRECT DATA TYPE [MsgType:_BF, Tag:_926]|10=018|
8=FIX.4.4|9=112|35=BD|49=TESTI|56=TESTA|34=4|52=20030204-08:46:14|937=1|932=0001|936=1|930=COMP1|928=0|10=153|
8=FIX.4.4|9=112|35=BD|49=TESTI|56=TESTA|34=4|52=20030204-08:46:14|937=1|932=0001|936=1|930=COMP1|928=-1|10=153|
8=FIX.4.4|9=112|35=BD|49=TESTI|56=TESTA|34=4|52=20030204-08:46:14|937=1|932=0001|936=1|930=COMP1|928=A|10=153|
8=FIX.4.4|9=112|35=BD|49=TESTI|56=TESTA|34=4|52=20030204-08:46:14|937=1|932=0001|936=1|930=COMP1|928=b|10=153|
8=FIX.4.4|9=140|35=1|34=104|49=SNDR|56=TRGT|52=20090407-09:48:19.812|112= TEST #222 CHECK 4 REJECT MSGS with INVALID MESSAGE - INCORRECT DATA TYPE [MsgType:_BD, Tag:_928]|10=018|
8=FIX.4.4|9=74|35=BC|49=TESTI|56=TESTA|34=4|52=20030204-08:46:14|935=0|933=0001|10=195|
8=FIX.4.4|9=74|35=BC|49=TESTI|56=TESTA|34=4|52=20030204-08:46:14|935=3|933=0001|10=195|
8=FIX.4.4|9=74|35=BC|49=TESTI|56=TESTA|34=4|52=20030204-08:46:14|935=6|933=0001|10=195|
8=FIX.4.4|9=74|35=BC|49=TESTI|56=TESTA|34=4|52=20030204-08:46:14|935=A|933=0001|10=195|
8=FIX.4.4|9=140|35=1|34=104|49=SNDR|56=TRGT|52=20090407-09:48:19.812|112= TEST #223 CHECK 4 REJECT MSGS with INVALID MESSAGE - INCORRECT DATA TYPE [MsgType:_BC, Tag:_935]|10=018|
8=FIX.4.4|9=100|35=BD|49=TESTI|56=TESTA|34=4|52=20030204-08:46:14|937=0|932=0001|936=2|930=COMP1|930=COMP2|10=113|
8=FIX.4.4|9=100|35=BD|49=TESTI|56=TESTA|34=4|52=20030204-08:46:14|937=-1|932=0001|936=2|930=COMP1|930=COMP2|10=113|
8=FIX.4.4|9=100|35=BD|49=TESTI|56=TESTA|34=4|52=20030204-08:46:14|937=3|932=0001|936=2|930=COMP1|930=COMP2|10=113|
8=FIX.4.4|9=100|35=BD|49=TESTI|56=TESTA|34=4|52=20030204-08:46:14|937=A|932=0001|936=2|930=COMP1|930=COMP2|10=113|
8=FIX.4.4|9=140|35=1|34=104|49=SNDR|56=TRGT|52=20090407-09:48:19.812|112= TEST #224 CHECK 4 REJECT MSGS with INVALID MESSAGE - INCORRECT DATA TYPE [MsgType:_BD, Tag:_937]|10=018|
8=FIX.4.4|9=104|35=AR|49=TESTI|56=TESTA|34=4|52=20030204-08:46:14|571=90001008|150=F|939=-1|751=0|55=TESTB|10=034|
8=FIX.4.4|9=104|35=AR|49=TESTI|56=TESTA|34=4|52=20030204-08:46:14|571=90001008|150=F|939=2|751=0|55=TESTB|10=034|
8=FIX.4.4|9=104|35=AR|49=TESTI|56=TESTA|34=4|52=20030204-08:46:14|571=90001008|150=F|939=A|751=0|55=TESTB|10=034|
8=FIX.4.4|9=104|35=AR|49=TESTI|56=TESTA|34=4|52=20030204-08:46:14|571=90001008|150=F|939=b|751=0|55=TESTB|10=034|
8=FIX.4.4|9=140|35=1|34=104|49=SNDR|56=TRGT|52=20090407-09:48:19.812|112= TEST #225 CHECK 4 REJECT MSGS with INVALID MESSAGE - INCORRECT DATA TYPE [MsgType:_AR, Tag:_939]|10=018|
8=FIX.4.4|9=113|35=AU|49=TESTI|56=TESTA|34=4|52=20030204-08:46:14|664=0001|60=20060217-10:00:00|75=20060217|940=0|774=1|10=064|
8=FIX.4.4|9=113|35=AU|49=TESTI|56=TESTA|34=4|52=20030204-08:46:14|664=0001|60=20060217-10:00:00|75=20060217|940=-1|774=1|10=064|
8=FIX.4.4|9=113|35=AU|49=TESTI|56=TESTA|34=4|52=20030204-08:46:14|664=0001|60=20060217-10:00:00|75=20060217|940=4|774=1|10=064|
8=FIX.4.4|9=113|35=AU|49=TESTI|56=TESTA|34=4|52=20030204-08:46:14|664=0001|60=20060217-10:00:00|75=20060217|940=A|774=1|10=064|
8=FIX.4.4|9=140|35=1|34=104|49=SNDR|56=TRGT|52=20090407-09:48:19.812|112= TEST #226 CHECK 4 REJECT MSGS with INVALID MESSAGE - INCORRECT DATA TYPE [MsgType:_AU, Tag:_940]|10=018|
8=FIX.4.4|9=113|35=AY|49=TESTI|56=TESTA|34=4|52=20030204-08:46:14|902=0001|895=0|903=0|60=20060217-10:00:00|711=1|944=-1|10=000|
8=FIX.4.4|9=113|35=AY|49=TESTI|56=TESTA|34=4|52=20030204-08:46:14|902=0001|895=0|903=0|60=20060217-10:00:00|711=1|944=3|10=000|
8=FIX.4.4|9=113|35=AY|49=TESTI|56=TESTA|34=4|52=20030204-08:46:14|902=0001|895=0|903=0|60=20060217-10:00:00|711=1|944=A|10=000|
8=FIX.4.4|9=113|35=AY|49=TESTI|56=TESTA|34=4|52=20030204-08:46:14|902=0001|895=0|903=0|60=20060217-10:00:00|711=1|944=b|10=000|
8=FIX.4.4|9=140|35=1|34=104|49=SNDR|56=TRGT|52=20090407-09:48:19.812|112= TEST #227 CHECK 4 REJECT MSGS with INVALID MESSAGE - INCORRECT DATA TYPE [MsgType:_AY, Tag:_944]|10=018|
8=FIX.4.4|9=74|35=BG|49=TESTI|56=TESTA|34=4|50=30737|52=20030204-08:46:14|909=0001|945=-1|10=202|
8=FIX.4.4|9=74|35=BG|49=TESTI|56=TESTA|34=4|50=30737|52=20030204-08:46:14|909=0001|945=5|10=202|
8=FIX.4.4|9=74|35=BG|49=TESTI|56=TESTA|34=4|50=30737|52=20030204-08:46:14|909=0001|945=A|10=202|
8=FIX.4.4|9=74|35=BG|49=TESTI|56=TESTA|34=4|50=30737|52=20030204-08:46:14|909=0001|945=b|10=202|
8=FIX.4.4|9=140|35=1|34=104|49=SNDR|56=TRGT|52=20090407-09:48:19.812|112= TEST #228 CHECK 4 REJECT MSGS with INVALID MESSAGE - INCORRECT DATA TYPE [MsgType:_BG, Tag:_945]|10=018|
8=FIX.4.4|9=80|35=BG|49=TESTI|56=TESTA|34=4|52=20030204-08:46:14|909=0001|945=0|946=-1|10=215|
8=FIX.4.4|9=80|35=BG|49=TESTI|56=TESTA|34=4|52=20030204-08:46:14|909=0001|945=0|946=10|10=215|
8=FIX.4.4|9=80|35=BG|49=TESTI|56=TESTA|34=4|52=20030204-08:46:14|909=0001|945=0|946=A|10=215|
8=FIX.4.4|9=80|35=BG|49=TESTI|56=TESTA|34=4|52=20030204-08:46:14|909=0001|945=0|946=b|10=215|
8=FIX.4.4|9=140|35=1|34=104|49=SNDR|56=TRGT|52=20090407-09:48:19.812|112= TEST #229 CHECK 4 REJECT MSGS with INVALID MESSAGE - INCORRECT DATA TYPE [MsgType:_BG, Tag:_946]|10=018|
