8=FIX.4.2|9=56|35=b|49=SNDR|56=TRGT|34=2|52=20030204-09:25:43|297=0|296=1|10=137|
8=FIX.4.2|9=140|35=1|34=104|49=SNDR|56=TRGT|52=20090407-09:48:19.812|112=  CHECK REJECT MSG with INVALID MESSAGE - REQUIRED TAG MISSING [MsgType:_b, Tag:_302]|10=018|
8=FIX.4.2|9=56|35=b|49=SNDR|56=TRGT|34=2|52=20030204-09:25:43|297=0|296=1|302=000302|10=137|
8=FIX.4.2|9=140|35=1|34=104|49=SNDR|56=TRGT|52=20090407-09:48:19.812|112=  CHECK REJECT MSG with INVALID MESSAGE - REQUIRED TAG MISSING [MsgType:_b, Tag:_311]|10=018|
8=FIX.4.2|9=56|35=b|49=SNDR|56=TRGT|34=2|52=20030204-09:25:43|297=0|296=1|302=000302|311=000311|314=01|10=137|
8=FIX.4.2|9=140|35=1|34=104|49=SNDR|56=TRGT|52=20090407-09:48:19.812|112=  CHECK REJECT MSG with INVALID MESSAGE - REQUIRED TAG MISSING [MsgType:_b, Tag:_313]|10=018|
8=FIX.4.2|9=65|35=c|49=SNDR|56=TRGT|34=2|52=20030204-09:25:43|320=0001|321=0|146=1|10=018|
8=FIX.4.2|9=140|35=1|34=104|49=SNDR|56=TRGT|52=20090407-09:48:19.812|112=  CHECK REJECT MSG with INVALID MESSAGE - REQUIRED TAG MISSING [MsgType:_c, Tag:_311]|10=018|
8=FIX.4.2|9=244|35=i|49=SNDR|56=TRGT|34=2|52=20030204-08:56:41|117=1116226|296=1|302=0001|311=TESTA|304=5|295=1|299=11|10=035|
8=FIX.4.2|9=140|35=1|34=104|49=SNDR|56=TRGT|52=20090407-09:48:19.812|112=  CHECK REJECT MSG with INVALID MESSAGE - REQUIRED TAG MISSING [MsgType:_i, Tag:_132]|10=018|
8=FIX.4.2|9=61|35=j|49=SNDR|56=TRGT|34=2|52=20030204-08:56:41|372=9|380=0|354=2|10=105|
8=FIX.4.2|9=140|35=1|34=104|49=SNDR|56=TRGT|52=20090407-09:48:19.812|112=  CHECK REJECT MSG with INVALID MESSAGE - REQUIRED TAG MISSING [MsgType:_j, Tag:_355]|10=018|
8=FIX.4.2|9=92|35=k|49=SNDR|56=TRGT|34=2|52=20030204-09:07:50|391=20012411|374=N|393=2|394=1|398=1|418=A|419=4|10=045|
8=FIX.4.2|9=140|35=1|34=104|49=SNDR|56=TRGT|52=20090407-09:48:19.812|112=  CHECK REJECT MSG with INVALID MESSAGE - REQUIRED TAG MISSING [MsgType:_k, Tag:_399]|10=018|
8=FIX.4.2|9=92|35=k|49=SNDR|56=TRGT|34=2|52=20030204-09:07:50|391=20012411|374=N|393=2|394=2|420=1|418=A|419=4|10=045|
8=FIX.4.2|9=140|35=1|34=104|49=SNDR|56=TRGT|52=20090407-09:48:19.812|112=  CHECK REJECT MSG with INVALID MESSAGE - REQUIRED TAG MISSING [MsgType:_k, Tag:_66]|10=018|
