8=FIX.4.2|9=111|35=T|49=SNDR|56=TRGT|34=2|52=20030204-09:25:43|162=11223|163=R|160=0|165=1|79=KTierney|60=20060217-10:00:00|10=106|
8=FIX.4.2|9=140|35=1|34=104|49=SNDR|56=TRGT|52=20090407-09:48:19.812|112=  CHECK REJECT MSG with INVALID MESSAGE - REQUIRED TAG MISSING [MsgType:_T, Tag:_214]|10=018|
8=FIX.4.2|9=111|35=T|49=SNDR|56=TRGT|34=2|52=20030204-09:25:43|162=11223|163=N|160=1|165=1|60=20060217-10:00:00|10=106|
8=FIX.4.2|9=140|35=1|34=104|49=SNDR|56=TRGT|52=20090407-09:48:19.812|112=  CHECK REJECT MSG with INVALID MESSAGE - REQUIRED TAG MISSING [MsgType:_T, Tag:_79]|10=018|
8=FIX.4.2|9=111|35=T|49=SNDR|56=TRGT|34=2|52=20030204-09:25:43|162=11223|163=N|160=2|165=1|79=KTierney|60=20060217-10:00:00|10=106|
8=FIX.4.2|9=140|35=1|34=104|49=SNDR|56=TRGT|52=20090407-09:48:19.812|112=  CHECK REJECT MSG with INVALID MESSAGE - REQUIRED TAG MISSING [MsgType:_T, Tag:_166]|10=018|
8=FIX.4.2|9=111|35=T|49=SNDR|56=TRGT|34=2|52=20030204-09:25:43|162=11223|163=N|160=2|165=1|79=KTierney|166=PNY|60=20060217-10:00:00|10=106|
8=FIX.4.2|9=140|35=1|34=104|49=SNDR|56=TRGT|52=20090407-09:48:19.812|112=  CHECK REJECT MSG with INVALID MESSAGE - REQUIRED TAG MISSING [MsgType:_T, Tag:_75]|10=018|
8=FIX.4.2|9=111|35=T|49=SNDR|56=TRGT|34=2|52=20030204-09:25:43|162=11223|163=N|160=2|165=1|79=KTierney|166=PNY|75=20060217|60=20060217-10:00:00|10=106|
8=FIX.4.2|9=140|35=1|34=104|49=SNDR|56=TRGT|52=20090407-09:48:19.812|112=  CHECK REJECT MSG with INVALID MESSAGE - REQUIRED TAG MISSING [MsgType:_T, Tag:_70]|10=018|
8=FIX.4.2|9=111|35=T|49=SNDR|56=TRGT|34=2|52=20030204-09:25:43|162=11223|163=N|160=2|165=1|79=KTierney|166=PNY|75=20060217|70=00070|60=20060217-10:00:00|10=106|
8=FIX.4.2|9=140|35=1|34=104|49=SNDR|56=TRGT|52=20090407-09:48:19.812|112=  CHECK REJECT MSG with INVALID MESSAGE - REQUIRED TAG MISSING [MsgType:_T, Tag:_30]|10=018|
8=FIX.4.2|9=111|35=T|49=SNDR|56=TRGT|34=2|52=20030204-09:25:43|162=11223|163=N|160=2|165=1|79=KTierney|166=PNY|75=20060217|70=00070|30=O|60=20060217-10:00:00|10=106|
8=FIX.4.2|9=140|35=1|34=104|49=SNDR|56=TRGT|52=20090407-09:48:19.812|112=  CHECK REJECT MSG with INVALID MESSAGE - REQUIRED TAG MISSING [MsgType:_T, Tag:_54]|10=018|
