8=FIX.4.2|9=81|35=6|49=SNDR|56=TRGT|34=2|52=20030203-16:10:01|23=24|28=C|55=TESTB|54=1|27=S|10=102|
8=FIX.4.2|9=140|35=1|34=104|49=SNDR|56=TRGT|52=20090407-09:48:19.812|112=  CHECK REJECT MSG with INVALID MESSAGE - REQUIRED TAG MISSING [MsgType:_6, Tag:_26]|10=018|
8=FIX.4.2|9=83|35=7|49=SNDR|56=TRGT|34=2|52=20030203-16:02:35|2=20|5=R|55=TESTB|4=T|53=1000000|10=192|
8=FIX.4.2|9=140|35=1|34=104|49=SNDR|56=TRGT|52=20090407-09:48:19.812|112=  CHECK REJECT MSG with INVALID MESSAGE - REQUIRED TAG MISSING [MsgType:_7, Tag:_3]|10=018|
8=FIX.4.2|9=125|35=8|49=SNDR|56=TRGT|34=2|52=20030203-16:09:30|37=11111111|17=12|20=3|39=0|150=4|55=TESTB|54=1|38=1000|151=1000|14=0|6=0|10=011|
8=FIX.4.2|9=140|35=1|34=104|49=SNDR|56=TRGT|52=20090407-09:48:19.812|112=  CHECK REJECT MSG with INVALID MESSAGE - REQUIRED TAG MISSING [MsgType:_8, Tag:_41]|10=018|
8=FIX.4.2|9=125|35=8|49=SNDR|56=TRGT|34=2|52=20030203-16:09:30|37=11111111|17=12|20=2|39=0|150=0|55=TESTB|54=1|38=1000|151=1000|14=0|6=0|10=011|
8=FIX.4.2|9=140|35=1|34=104|49=SNDR|56=TRGT|52=20090407-09:48:19.812|112=  CHECK REJECT MSG with INVALID MESSAGE - REQUIRED TAG MISSING [MsgType:_8, Tag:_19]|10=018|
8=FIX.4.2|9=125|35=8|49=SNDR|56=TRGT|34=2|52=20030203-16:09:30|37=11111111|17=12|20=3|39=0|150=D|55=TESTB|54=1|38=1000|151=1000|14=0|6=0|10=011|
8=FIX.4.2|9=140|35=1|34=104|49=SNDR|56=TRGT|52=20090407-09:48:19.812|112=  CHECK REJECT MSG with INVALID MESSAGE - REQUIRED TAG MISSING [MsgType:_8, Tag:_378]|10=018|
8=FIX.4.2|9=56|35=b|49=SNDR|56=TRGT|34=2|52=20030204-09:25:43|297=0|296=1|10=137|
8=FIX.4.2|9=140|35=1|34=104|49=SNDR|56=TRGT|52=20090407-09:48:19.812|112=  CHECK REJECT MSG with INVALID MESSAGE - REQUIRED TAG MISSING [MsgType:_b, Tag:_302]|10=018|
8=FIX.4.2|9=56|35=b|49=SNDR|56=TRGT|34=2|52=20030204-09:25:43|297=0|296=1|302=000302|10=137|
8=FIX.4.2|9=140|35=1|34=104|49=SNDR|56=TRGT|52=20090407-09:48:19.812|112=  CHECK REJECT MSG with INVALID MESSAGE - REQUIRED TAG MISSING [MsgType:_b, Tag:_311]|10=018|
8=FIX.4.2|9=56|35=b|49=SNDR|56=TRGT|34=2|52=20030204-09:25:43|297=0|296=1|302=000302|311=000311|314=01|10=137|
8=FIX.4.2|9=140|35=1|34=104|49=SNDR|56=TRGT|52=20090407-09:48:19.812|112=  CHECK REJECT MSG with INVALID MESSAGE - REQUIRED TAG MISSING [MsgType:_b, Tag:_313]|10=018|
8=FIX.4.2|9=65|35=c|49=SNDR|56=TRGT|34=2|52=20030204-09:25:43|320=0001|321=0|146=1|10=018|
8=FIX.4.2|9=140|35=1|34=104|49=SNDR|56=TRGT|52=20090407-09:48:19.812|112=  CHECK REJECT MSG with INVALID MESSAGE - REQUIRED TAG MISSING [MsgType:_c, Tag:_311]|10=018|
8=FIX.4.2|9=244|35=i|49=SNDR|56=TRGT|34=2|52=20030204-08:56:41|117=1116226|296=1|302=0001|311=TESTA|304=5|295=1|299=11|10=035|
8=FIX.4.2|9=140|35=1|34=104|49=SNDR|56=TRGT|52=20090407-09:48:19.812|112=  CHECK REJECT MSG with INVALID MESSAGE - REQUIRED TAG MISSING [MsgType:_i, Tag:_132]|10=018|
8=FIX.4.2|9=61|35=j|49=SNDR|56=TRGT|34=2|52=20030204-08:56:41|372=9|380=0|354=2|10=105|
8=FIX.4.2|9=140|35=1|34=104|49=SNDR|56=TRGT|52=20090407-09:48:19.812|112=  CHECK REJECT MSG with INVALID MESSAGE - REQUIRED TAG MISSING [MsgType:_j, Tag:_355]|10=018|
8=FIX.4.2|9=92|35=k|49=SNDR|56=TRGT|34=2|52=20030204-09:07:50|391=20012411|374=N|393=2|394=1|398=1|418=A|419=4|10=045|
8=FIX.4.2|9=140|35=1|34=104|49=SNDR|56=TRGT|52=20090407-09:48:19.812|112=  CHECK REJECT MSG with INVALID MESSAGE - REQUIRED TAG MISSING [MsgType:_k, Tag:_399]|10=018|
8=FIX.4.2|9=92|35=k|49=SNDR|56=TRGT|34=2|52=20030204-09:07:50|391=20012411|374=N|393=2|394=2|420=1|418=A|419=4|10=045|
8=FIX.4.2|9=140|35=1|34=104|49=SNDR|56=TRGT|52=20090407-09:48:19.812|112=  CHECK REJECT MSG with INVALID MESSAGE - REQUIRED TAG MISSING [MsgType:_k, Tag:_66]|10=018|
8=FIX.4.2|9=143|35=B|49=SNDR|56=TRGT|34=2|52=20030203-16:21:17|148=Weather|215=1|33=4|58=In the evening |58=it might be wet |58=and windy.|58= Take your coat on.|10=183|
8=FIX.4.2|9=140|35=1|34=104|49=SNDR|56=TRGT|52=20090407-09:48:19.812|112=  CHECK REJECT MSG with INVALID MESSAGE - REQUIRED TAG MISSING [MsgType:_B, Tag:_216]|10=018|
8=FIX.4.2|9=143|35=B|49=SNDR|56=TRGT|34=2|52=20030203-16:21:17|148=Weather|215=1|216=1|33=4|58=In the evening |58=it might be wet |58=and windy.|58= Take your coat on.|10=183|
8=FIX.4.2|9=140|35=1|34=104|49=SNDR|56=TRGT|52=20090407-09:48:19.812|112=  CHECK REJECT MSG with INVALID MESSAGE - REQUIRED TAG MISSING [MsgType:_B, Tag:_217]|10=018|
8=FIX.4.2|9=143|35=B|49=SNDR|56=TRGT|34=2|52=20030203-16:21:17|148=Weather|146=1|33=4|58=In the evening |58=it might be wet |58=and windy.|58= Take your coat on.|10=183|
8=FIX.4.2|9=140|35=1|34=104|49=SNDR|56=TRGT|52=20090407-09:48:19.812|112=  CHECK REJECT MSG with INVALID MESSAGE - REQUIRED TAG MISSING [MsgType:_B, Tag:_46]|10=018|
8=FIX.4.2|9=143|35=B|49=SNDR|56=TRGT|34=2|52=20030203-16:21:17|148=Weather|33=4|58=In the evening |58=it might be wet |58=and windy.|58= Take your coat on.|354=2|10=183|
8=FIX.4.2|9=140|35=1|34=104|49=SNDR|56=TRGT|52=20090407-09:48:19.812|112=  CHECK REJECT MSG with INVALID MESSAGE - REQUIRED TAG MISSING [MsgType:_B, Tag:_355]|10=018|
8=FIX.4.2|9=143|35=B|49=SNDR|56=TRGT|34=2|52=20030203-16:21:17|148=Weather|33=4|58=In the evening |58=it might be wet |58=and windy.|58= Take your coat on.|95=2|10=183|
8=FIX.4.2|9=140|35=1|34=104|49=SNDR|56=TRGT|52=20090407-09:48:19.812|112=  CHECK REJECT MSG with INVALID MESSAGE - REQUIRED TAG MISSING [MsgType:_B, Tag:_96]|10=018|
8=FIX.4.2|9=147|35=C|49=SNDR|56=TRGT|34=2|52=20030203-16:20:05|164=111111111|94=0|147=Bunny's Birthday|356=10|33=3|58=Hello, Bunny!|58=Happy Birthday to you :)|58=Bye.|10=131|
8=FIX.4.2|9=140|35=1|34=104|49=SNDR|56=TRGT|52=20090407-09:48:19.812|112=  CHECK REJECT MSG with INVALID MESSAGE - REQUIRED TAG MISSING [MsgType:_C, Tag:_357]|10=018|
8=FIX.4.2|9=147|35=C|49=SNDR|56=TRGT|34=2|52=20030203-16:20:05|164=111111111|94=0|147=Bunny's Birthday|215=1|33=3|58=Hello, Bunny!|58=Happy Birthday to you :)|58=Bye.|10=131|
8=FIX.4.2|9=140|35=1|34=104|49=SNDR|56=TRGT|52=20090407-09:48:19.812|112=  CHECK REJECT MSG with INVALID MESSAGE - REQUIRED TAG MISSING [MsgType:_C, Tag:_216]|10=018|
8=FIX.4.2|9=147|35=C|49=SNDR|56=TRGT|34=2|52=20030203-16:20:05|164=111111111|94=0|147=Bunny's Birthday|215=1|216=1|33=3|58=Hello, Bunny!|58=Happy Birthday to you :)|58=Bye.|10=131|
8=FIX.4.2|9=140|35=1|34=104|49=SNDR|56=TRGT|52=20090407-09:48:19.812|112=  CHECK REJECT MSG with INVALID MESSAGE - REQUIRED TAG MISSING [MsgType:_C, Tag:_217]|10=018|
8=FIX.4.2|9=147|35=C|49=SNDR|56=TRGT|34=2|52=20030203-16:20:05|164=111111111|94=0|147=Bunny's Birthday|146=1|33=3|58=Hello, Bunny!|58=Happy Birthday to you :)|58=Bye.|10=131|
8=FIX.4.2|9=140|35=1|34=104|49=SNDR|56=TRGT|52=20090407-09:48:19.812|112=  CHECK REJECT MSG with INVALID MESSAGE - REQUIRED TAG MISSING [MsgType:_C, Tag:_46]|10=018|
8=FIX.4.2|9=128|35=D|49=SNDR|56=TRGT|34=2|52=20030204-08:46:14|11=90001008|78=1|21=2|55=TESTB|54=1|60=20060217-10:00:00|38=4000|40=1|10=071|
8=FIX.4.2|9=140|35=1|34=104|49=SNDR|56=TRGT|52=20090407-09:48:19.812|112=  CHECK REJECT MSG with INVALID MESSAGE - REQUIRED TAG MISSING [MsgType:_D, Tag:_79]|10=018|
8=FIX.4.2|9=128|35=D|49=SNDR|56=TRGT|34=2|52=20030204-08:46:14|11=90001008|63=8|21=2|55=TESTB|54=1|60=20060217-10:00:00|38=4000|40=1|10=071|
8=FIX.4.2|9=140|35=1|34=104|49=SNDR|56=TRGT|52=20090407-09:48:19.812|112=  CHECK REJECT MSG with INVALID MESSAGE - REQUIRED TAG MISSING [MsgType:_D, Tag:_64]|10=018|
8=FIX.4.2|9=128|35=D|49=SNDR|56=TRGT|34=2|52=20030204-08:46:14|11=90001008|386=1|21=2|55=TESTB|54=1|60=20060217-10:00:00|38=4000|40=1|10=071|
8=FIX.4.2|9=140|35=1|34=104|49=SNDR|56=TRGT|52=20090407-09:48:19.812|112=  CHECK REJECT MSG with INVALID MESSAGE - REQUIRED TAG MISSING [MsgType:_D, Tag:_336]|10=018|
8=FIX.4.2|9=149|35=E|49=SNDR|56=TRGT|34=2|52=20030204-08:18:22|66=20012411|394=3|68=1|73=1|11=1131|67=1|55=TESTB3|54=1|10=031|
8=FIX.4.2|9=140|35=1|34=104|49=SNDR|56=TRGT|52=20090407-09:48:19.812|112=  CHECK REJECT MSG with INVALID MESSAGE - REQUIRED TAG MISSING [MsgType:_E, Tag:_38]|10=018|
8=FIX.4.2|9=149|35=E|49=SNDR|56=TRGT|34=2|52=20030204-08:18:22|66=20012411|394=3|68=1|73=1|11=1131|67=1|55=TESTB3|54=1|38=3000|59=6|10=031|
8=FIX.4.2|9=140|35=1|34=104|49=SNDR|56=TRGT|52=20090407-09:48:19.812|112=  CHECK REJECT MSG with INVALID MESSAGE - REQUIRED TAG MISSING [MsgType:_E, Tag:_432]|10=018|
8=FIX.4.2|9=149|35=E|49=SNDR|56=TRGT|34=2|52=20030204-08:18:22|66=20012411|394=3|68=1|73=1|11=1131|67=1|55=TESTB3|54=1|38=3000|389=0.1|10=031|
8=FIX.4.2|9=140|35=1|34=104|49=SNDR|56=TRGT|52=20090407-09:48:19.812|112=  CHECK REJECT MSG with INVALID MESSAGE - REQUIRED TAG MISSING [MsgType:_E, Tag:_388]|10=018|
8=FIX.4.2|9=116|35=F|49=SNDR|56=TRGT|34=2|52=20030204-08:46:38|41=90001008|11=16161516|55=TESTB|54=1|60=20060117-10:00:00|10=058|
8=FIX.4.2|9=140|35=1|34=104|49=SNDR|56=TRGT|52=20090407-09:48:19.812|112=  CHECK REJECT MSG with INVALID MESSAGE - REQUIRED TAG MISSING [MsgType:_F, Tag:_38]|10=018|
8=FIX.4.2|9=116|35=F|49=SNDR|56=TRGT|34=2|52=20030204-08:46:38|41=90001008|11=16161516|55=TESTB|348=10|54=1|60=20060117-10:00:00|38=4000|10=058|
8=FIX.4.2|9=140|35=1|34=104|49=SNDR|56=TRGT|52=20090407-09:48:19.812|112=  CHECK REJECT MSG with INVALID MESSAGE - REQUIRED TAG MISSING [MsgType:_F, Tag:_349]|10=018|
8=FIX.4.2|9=116|35=F|49=SNDR|56=TRGT|34=2|52=20030204-08:46:38|41=90001008|11=16161516|55=TESTB|350=10|54=1|60=20060117-10:00:00|38=4000|10=058|
8=FIX.4.2|9=140|35=1|34=104|49=SNDR|56=TRGT|52=20090407-09:48:19.812|112=  CHECK REJECT MSG with INVALID MESSAGE - REQUIRED TAG MISSING [MsgType:_F, Tag:_351]|10=018|
8=FIX.4.2|9=126|35=G|49=SNDR|56=TRGT|34=2|52=20030204-08:49:18|11=12233345|41=90001008|21=2|55=TESTB|54=1|60=20060117-10:00:00|38=4000|40=2|10=220|
8=FIX.4.2|9=140|35=1|34=104|49=SNDR|56=TRGT|52=20090407-09:48:19.812|112=  CHECK REJECT MSG with INVALID MESSAGE - REQUIRED TAG MISSING [MsgType:_G, Tag:_44]|10=018|
8=FIX.4.2|9=126|35=G|49=SNDR|56=TRGT|34=2|52=20030204-08:49:18|11=12233345|41=90001008|21=2|55=TESTB|54=1|60=20060117-10:00:00|38=4000|40=4|44=10|10=220|
8=FIX.4.2|9=140|35=1|34=104|49=SNDR|56=TRGT|52=20090407-09:48:19.812|112=  CHECK REJECT MSG with INVALID MESSAGE - REQUIRED TAG MISSING [MsgType:_G, Tag:_99]|10=018|
8=FIX.4.2|9=126|35=G|49=SNDR|56=TRGT|34=2|52=20030204-08:49:18|11=12233345|41=90001008|21=2|55=TESTB|54=1|60=20060117-10:00:00|38=4000|40=1|121=Y|10=220|
8=FIX.4.2|9=140|35=1|34=104|49=SNDR|56=TRGT|52=20090407-09:48:19.812|112=  CHECK REJECT MSG with INVALID MESSAGE - REQUIRED TAG MISSING [MsgType:_G, Tag:_120]|10=018|
8=FIX.4.2|9=195|35=J|49=SNDR|56=TRGT|34=2|52=20030204-08:56:41|70=1116226|71=2|73=1|11=90000008|54=1|55=TESTB|53=1004000|6=30|75=20030821|78=1|79=1000|80=500000|10=030|
8=FIX.4.2|9=140|35=1|34=104|49=SNDR|56=TRGT|52=20090407-09:48:19.812|112=  CHECK REJECT MSG with INVALID MESSAGE - REQUIRED TAG MISSING [MsgType:_J, Tag:_72]|10=018|
8=FIX.4.2|9=195|35=J|49=SNDR|56=TRGT|34=2|52=20030204-08:56:41|70=1116226|71=0|11=90000008|54=1|55=TESTB|53=1004000|6=30|75=20030821|78=1|79=1000|80=500000|10=030|
8=FIX.4.2|9=140|35=1|34=104|49=SNDR|56=TRGT|52=20090407-09:48:19.812|112=  CHECK REJECT MSG with INVALID MESSAGE - REQUIRED TAG MISSING [MsgType:_J, Tag:_73]|10=018|
8=FIX.4.2|9=195|35=J|49=SNDR|56=TRGT|34=2|52=20030204-08:56:41|70=1116226|71=0|196=000196|73=1|11=90000008|54=1|55=TESTB|53=1004000|6=30|75=20030821|78=1|79=1000|80=500000|10=030|
8=FIX.4.2|9=140|35=1|34=104|49=SNDR|56=TRGT|52=20090407-09:48:19.812|112=  CHECK REJECT MSG with INVALID MESSAGE - REQUIRED TAG MISSING [MsgType:_J, Tag:_197]|10=018|
8=FIX.4.2|9=195|35=J|49=SNDR|56=TRGT|34=2|52=20030204-08:56:41|70=1116226|71=0|73=1|54=1|55=TESTB|53=1004000|6=30|75=20030821|78=1|79=1000|80=500000|10=030|
8=FIX.4.2|9=140|35=1|34=104|49=SNDR|56=TRGT|52=20090407-09:48:19.812|112=  CHECK REJECT MSG with INVALID MESSAGE - REQUIRED TAG MISSING [MsgType:_J, Tag:_11]|10=018|
8=FIX.4.2|9=195|35=J|49=SNDR|56=TRGT|34=2|52=20030204-08:56:41|70=1116226|71=0|73=1|11=90000008|124=1|54=1|55=TESTB|53=1004000|6=30|75=20030821|78=1|79=1000|80=500000|10=030|
8=FIX.4.2|9=140|35=1|34=104|49=SNDR|56=TRGT|52=20090407-09:48:19.812|112=  CHECK REJECT MSG with INVALID MESSAGE - REQUIRED TAG MISSING [MsgType:_J, Tag:_32]|10=018|
8=FIX.4.2|9=195|35=J|49=SNDR|56=TRGT|34=2|52=20030204-08:56:41|70=1116226|71=0|73=1|11=90000008|54=1|55=TESTB|53=1004000|6=30|75=20030821|78=1|79=1000|80=500000|136=1|10=030|
8=FIX.4.2|9=140|35=1|34=104|49=SNDR|56=TRGT|52=20090407-09:48:19.812|112=  CHECK REJECT MSG with INVALID MESSAGE - REQUIRED TAG MISSING [MsgType:_J, Tag:_137]|10=018|
8=FIX.4.2|9=195|35=J|49=SNDR|56=TRGT|34=2|52=20030204-08:56:41|70=1116226|71=0|73=1|11=90000008|54=1|55=TESTB|53=1004000|6=30|75=20030821|78=1|79=1000|80=500000|136=1|137=10|10=030|
8=FIX.4.2|9=140|35=1|34=104|49=SNDR|56=TRGT|52=20090407-09:48:19.812|112=  CHECK REJECT MSG with INVALID MESSAGE - REQUIRED TAG MISSING [MsgType:_J, Tag:_138]|10=018|
8=FIX.4.2|9=195|35=J|49=SNDR|56=TRGT|34=2|52=20030204-08:56:41|70=1116226|71=0|73=1|11=90000008|54=1|55=TESTB|53=1004000|6=30|75=20030821|78=1|79=1000|80=500000|136=1|137=10|138=USD|10=030|
8=FIX.4.2|9=140|35=1|34=104|49=SNDR|56=TRGT|52=20090407-09:48:19.812|112=  CHECK REJECT MSG with INVALID MESSAGE - REQUIRED TAG MISSING [MsgType:_J, Tag:_139]|10=018|
8=FIX.4.2|9=219|35=N|49=SNDR|56=TRGT|34=2|52=20030204-09:08:23|66=20012411|429=1|82=3|431=3|83=1|445=10|68=5|73=3|11=1111|14=11|39=1|151=89|84=0|6=12|11=1121|14=1000|39=1|151=500|84=1000|6=2.28|11=1131|14=2500|39=1|151=500|84=1500|6=34.11|10=053|
8=FIX.4.2|9=140|35=1|34=104|49=SNDR|56=TRGT|52=20090407-09:48:19.812|112=  CHECK REJECT MSG with INVALID MESSAGE - REQUIRED TAG MISSING [MsgType:_N, Tag:_446]|10=018|
8=FIX.4.2|9=80|35=P|49=SNDR|56=TRGT|34=2|52=20030204-09:17:25|70=3659000001|75=20030808|87=1|10=240|
8=FIX.4.2|9=140|35=1|34=104|49=SNDR|56=TRGT|52=20090407-09:48:19.812|112=  CHECK REJECT MSG with INVALID MESSAGE - REQUIRED TAG MISSING [MsgType:_P, Tag:_88]|10=018|
8=FIX.4.2|9=95|35=Q|49=SNDR|56=TRGT|34=2|52=20030204-09:28:44|37=01923883|17=11|127=D|55=TESTB|167=FUT|54=1|38=4000|10=027|
8=FIX.4.2|9=140|35=1|34=104|49=SNDR|56=TRGT|52=20090407-09:48:19.812|112=  CHECK REJECT MSG with INVALID MESSAGE - REQUIRED TAG MISSING [MsgType:_Q, Tag:_200]|10=018|
8=FIX.4.2|9=95|35=Q|49=SNDR|56=TRGT|34=2|52=20030204-09:28:44|37=01923883|17=11|127=D|55=TESTB|205=31|54=1|38=4000|10=027|
8=FIX.4.2|9=140|35=1|34=104|49=SNDR|56=TRGT|52=20090407-09:48:19.812|112=  CHECK REJECT MSG with INVALID MESSAGE - REQUIRED TAG MISSING [MsgType:_Q, Tag:_200]|10=018|
8=FIX.4.2|9=95|35=Q|49=SNDR|56=TRGT|34=2|52=20030204-09:28:44|37=01923883|17=11|127=D|55=TESTB|167=OPT|200=200302|54=1|38=4000|10=027|
8=FIX.4.2|9=140|35=1|34=104|49=SNDR|56=TRGT|52=20090407-09:48:19.812|112=  CHECK REJECT MSG with INVALID MESSAGE - REQUIRED TAG MISSING [MsgType:_Q, Tag:_201]|10=018|
8=FIX.4.2|9=95|35=Q|49=SNDR|56=TRGT|34=2|52=20030204-09:28:44|37=01923883|17=11|127=D|55=TESTB|54=1|10=027|
8=FIX.4.2|9=140|35=1|34=104|49=SNDR|56=TRGT|52=20090407-09:48:19.812|112=  CHECK REJECT MSG with INVALID MESSAGE - REQUIRED TAG MISSING [MsgType:_Q, Tag:_38]|10=018|
8=FIX.4.2|9=111|35=T|49=SNDR|56=TRGT|34=2|52=20030204-09:25:43|162=11223|163=R|160=0|165=1|79=KTierney|60=20060217-10:00:00|10=106|
8=FIX.4.2|9=140|35=1|34=104|49=SNDR|56=TRGT|52=20090407-09:48:19.812|112=  CHECK REJECT MSG with INVALID MESSAGE - REQUIRED TAG MISSING [MsgType:_T, Tag:_214]|10=018|
8=FIX.4.2|9=111|35=T|49=SNDR|56=TRGT|34=2|52=20030204-09:25:43|162=11223|163=N|160=1|165=1|60=20060217-10:00:00|10=106|
8=FIX.4.2|9=140|35=1|34=104|49=SNDR|56=TRGT|52=20090407-09:48:19.812|112=  CHECK REJECT MSG with INVALID MESSAGE - REQUIRED TAG MISSING [MsgType:_T, Tag:_79]|10=018|
8=FIX.4.2|9=111|35=T|49=SNDR|56=TRGT|34=2|52=20030204-09:25:43|162=11223|163=N|160=2|165=1|79=KTierney|60=20060217-10:00:00|10=106|
8=FIX.4.2|9=140|35=1|34=104|49=SNDR|56=TRGT|52=20090407-09:48:19.812|112=  CHECK REJECT MSG with INVALID MESSAGE - REQUIRED TAG MISSING [MsgType:_T, Tag:_166]|10=018|
8=FIX.4.2|9=111|35=T|49=SNDR|56=TRGT|34=2|52=20030204-09:25:43|162=11223|163=N|160=2|165=1|79=KTierney|166=PNY|60=20060217-10:00:00|10=106|
8=FIX.4.2|9=140|35=1|34=104|49=SNDR|56=TRGT|52=20090407-09:48:19.812|112=  CHECK REJECT MSG with INVALID MESSAGE - REQUIRED TAG MISSING [MsgType:_T, Tag:_75]|10=018|
8=FIX.4.2|9=111|35=T|49=SNDR|56=TRGT|34=2|52=20030204-09:25:43|162=11223|163=N|160=2|165=1|79=KTierney|166=PNY|75=20060217|60=20060217-10:00:00|10=106|
8=FIX.4.2|9=140|35=1|34=104|49=SNDR|56=TRGT|52=20090407-09:48:19.812|112=  CHECK REJECT MSG with INVALID MESSAGE - REQUIRED TAG MISSING [MsgType:_T, Tag:_70]|10=018|
8=FIX.4.2|9=111|35=T|49=SNDR|56=TRGT|34=2|52=20030204-09:25:43|162=11223|163=N|160=2|165=1|79=KTierney|166=PNY|75=20060217|70=00070|60=20060217-10:00:00|10=106|
8=FIX.4.2|9=140|35=1|34=104|49=SNDR|56=TRGT|52=20090407-09:48:19.812|112=  CHECK REJECT MSG with INVALID MESSAGE - REQUIRED TAG MISSING [MsgType:_T, Tag:_30]|10=018|
8=FIX.4.2|9=111|35=T|49=SNDR|56=TRGT|34=2|52=20030204-09:25:43|162=11223|163=N|160=2|165=1|79=KTierney|166=PNY|75=20060217|70=00070|30=O|60=20060217-10:00:00|10=106|
8=FIX.4.2|9=140|35=1|34=104|49=SNDR|56=TRGT|52=20090407-09:48:19.812|112=  CHECK REJECT MSG with INVALID MESSAGE - REQUIRED TAG MISSING [MsgType:_T, Tag:_54]|10=018|
8=FIX.4.2|9=114|35=V|49=SNDR|56=TRGT|34=2|52=20030204-09:25:43|262=11223|263=1|264=0|267=2|269=0|269=1|146=2|55=TESTA|55=TESTB|10=008|
8=FIX.4.2|9=140|35=1|34=104|49=SNDR|56=TRGT|52=20090407-09:48:19.812|112=  CHECK REJECT MSG with INVALID MESSAGE - REQUIRED TAG MISSING [MsgType:_V, Tag:_265]|10=018|
8=FIX.4.2|9=105|35=W|49=SNDR|56=TRGT|34=2|52=20030204-09:25:43|55=TESTA|268=1|269=2|270=10|10=219|
8=FIX.4.2|9=140|35=1|34=104|49=SNDR|56=TRGT|52=20090407-09:48:19.812|112=  CHECK REJECT MSG with INVALID MESSAGE - REQUIRED TAG MISSING [MsgType:_W, Tag:_271]|10=018|
8=FIX.4.2|9=105|35=W|49=SNDR|56=TRGT|34=2|52=20030204-09:25:43|55=TESTA|268=1|269=2|270=10|271=50|59=6|10=219|
8=FIX.4.2|9=140|35=1|34=104|49=SNDR|56=TRGT|52=20090407-09:48:19.812|112=  CHECK REJECT MSG with INVALID MESSAGE - REQUIRED TAG MISSING [MsgType:_W, Tag:_432]|10=018|
8=FIX.4.2|9=100|35=X|49=SNDR|56=TRGT|34=2|52=20030204-09:25:43|268=1|279=0|280=0002|270=11|10=107|
8=FIX.4.2|9=140|35=1|34=104|49=SNDR|56=TRGT|52=20090407-09:48:19.812|112=  CHECK REJECT MSG with INVALID MESSAGE - REQUIRED TAG MISSING [MsgType:_X, Tag:_269]|10=018|
