8=FIX.4.2|9=114|35=V|49=SNDR|56=TRGT|34=2|52=20030204-09:25:43|262=11223|263=1|264=0|267=2|269=0|269=1|146=2|55=TESTA|55=TESTB|10=008|
8=FIX.4.2|9=140|35=1|34=104|49=SNDR|56=TRGT|52=20090407-09:48:19.812|112=  CHECK REJECT MSG with INVALID MESSAGE - REQUIRED TAG MISSING [MsgType:_V, Tag:_265]|10=018|
8=FIX.4.2|9=105|35=W|49=SNDR|56=TRGT|34=2|52=20030204-09:25:43|55=TESTA|268=1|269=2|270=10|10=219|
8=FIX.4.2|9=140|35=1|34=104|49=SNDR|56=TRGT|52=20090407-09:48:19.812|112=  CHECK REJECT MSG with INVALID MESSAGE - REQUIRED TAG MISSING [MsgType:_W, Tag:_271]|10=018|
8=FIX.4.2|9=105|35=W|49=SNDR|56=TRGT|34=2|52=20030204-09:25:43|55=TESTA|268=1|269=2|270=10|271=50|59=6|10=219|
8=FIX.4.2|9=140|35=1|34=104|49=SNDR|56=TRGT|52=20090407-09:48:19.812|112=  CHECK REJECT MSG with INVALID MESSAGE - REQUIRED TAG MISSING [MsgType:_W, Tag:_432]|10=018|
8=FIX.4.2|9=100|35=X|49=SNDR|56=TRGT|34=2|52=20030204-09:25:43|268=1|279=0|280=0002|270=11|10=107|
8=FIX.4.2|9=140|35=1|34=104|49=SNDR|56=TRGT|52=20090407-09:48:19.812|112=  CHECK REJECT MSG with INVALID MESSAGE - REQUIRED TAG MISSING [MsgType:_X, Tag:_269]|10=018|
