<?xml version="1.0" encoding="UTF-8"?>
<send>8=FIX.4.2#9=0#35=A#49=&ME;#56=&YOU;#34=1#52=00000000-00:00:00#98=0#108=5#10=000#</send>