8=FIX.4.3|9=99|35=b|49=SNDR|56=TRGT|34=2|52=20030204-09:25:43|297=0|296=1|302=0001|311=TESTB|295=1|10=066|
8=FIX.4.3|9=140|35=1|34=104|49=SNDR|56=TRGT|52=20090407-09:48:19.812|112=  CHECK REJECT MSG with INVALID MESSAGE - REQUIRED TAG MISSING [MsgType:_b, Tag:_304]|10=018|
8=FIX.4.3|9=99|35=b|49=SNDR|56=TRGT|34=2|52=20030204-09:25:43|297=0|296=1|302=0001|311=TESTB|304=1|295=1|10=066|
8=FIX.4.3|9=140|35=1|34=104|49=SNDR|56=TRGT|52=20090407-09:48:19.812|112=  CHECK REJECT MSG with INVALID MESSAGE - REQUIRED TAG MISSING [MsgType:_b, Tag:_299]|10=018|
8=FIX.4.3|9=99|35=b|49=SNDR|56=TRGT|34=2|52=20030204-09:25:43|297=0|296=1|302=0001|311=TESTB|304=1|295=1|299=000299|10=066|
8=FIX.4.3|9=140|35=1|34=104|49=SNDR|56=TRGT|52=20090407-09:48:19.812|112=  CHECK REJECT MSG with INVALID MESSAGE - REQUIRED TAG MISSING [MsgType:_b, Tag:_132]|10=018|
8=FIX.4.3|9=64|35=c|49=SNDR|56=TRGT|34=2|52=20030204-09:25:43|320=0001|321=0|555=1|600=000600|618=2|10=222|
8=FIX.4.3|9=140|35=1|34=104|49=SNDR|56=TRGT|52=20090407-09:48:19.812|112=  CHECK REJECT MSG with INVALID MESSAGE - REQUIRED TAG MISSING [MsgType:_c, Tag:_619]|10=018|
8=FIX.4.3|9=64|35=c|49=SNDR|56=TRGT|34=2|52=20030204-09:25:43|320=0001|321=0|555=1|600=000600|621=2|10=222|
8=FIX.4.3|9=140|35=1|34=104|49=SNDR|56=TRGT|52=20090407-09:48:19.812|112=  CHECK REJECT MSG with INVALID MESSAGE - REQUIRED TAG MISSING [MsgType:_c, Tag:_622]|10=018|
