8=FIX.4.3|9=115|35=V|49=SNDR|56=TRGT|34=9|52=20090401-13:31:28.137|262=11223|263=1|264=0|267=2|269=0|269=1|146=2|55=TESTA|55=TESTB|10=022|
8=FIX.4.3|9=140|35=1|34=104|49=SNDR|56=TRGT|52=20090407-09:48:19.812|112=  CHECK REJECT MSG with INVALID MESSAGE - REQUIRED TAG MISSING [MsgType:_V, Tag:_265]|10=018|
8=FIX.4.3|9=115|35=V|49=SNDR|56=TRGT|34=9|52=20090401-13:31:28.137|262=11223|263=0|264=0|267=2|269=0|269=1|146=2|55=TESTA|55=TESTB|386=1|10=022|
8=FIX.4.3|9=140|35=1|34=104|49=SNDR|56=TRGT|52=20090407-09:48:19.812|112=  CHECK REJECT MSG with INVALID MESSAGE - REQUIRED TAG MISSING [MsgType:_V, Tag:_336]|10=018|
8=FIX.4.3|9=73|35=W|49=SNDR|56=TRGT|34=10|52=20090401-13:31:28.137|55=TESTA|268=1|269=0|10=232|
8=FIX.4.3|9=140|35=1|34=104|49=SNDR|56=TRGT|52=20090407-09:48:19.812|112=  CHECK REJECT MSG with INVALID MESSAGE - REQUIRED TAG MISSING [MsgType:_W, Tag:_270]|10=018|
8=FIX.4.3|9=83|35=W|49=SNDR|56=TRGT|34=11|52=20090401-13:31:28.137|55=TESTA|268=1|269=0|270=27.01|10=185|
8=FIX.4.3|9=140|35=1|34=104|49=SNDR|56=TRGT|52=20090407-09:48:19.812|112=  CHECK REJECT MSG with INVALID MESSAGE - REQUIRED TAG MISSING [MsgType:_W, Tag:_271]|10=018|
8=FIX.4.3|9=64|35=X|49=SNDR|56=TRGT|34=12|52=20090401-13:31:28.137|268=1|279=0|10=195|
8=FIX.4.3|9=140|35=1|34=104|49=SNDR|56=TRGT|52=20090407-09:48:19.812|112=  CHECK REJECT MSG with INVALID MESSAGE - REQUIRED TAG MISSING [MsgType:_X, Tag:_269]|10=018|
8=FIX.4.3|9=81|35=X|49=SNDR|56=TRGT|34=13|52=20090401-13:31:28.137|268=1|279=0|269=0|280=000280|55=IBM|10=212|
8=FIX.4.3|9=140|35=1|34=104|49=SNDR|56=TRGT|52=20090407-09:48:19.812|112=  CHECK REJECT MSG with INVALID MESSAGE - REQUIRED TAG MISSING [MsgType:_X, Tag:_270]|10=018|
8=FIX.4.3|9=92|35=X|49=SNDR|56=TRGT|34=14|52=20090401-13:31:28.137|268=1|279=0|269=0|280=000280|55=IBM|270=000270|10=215|
8=FIX.4.3|9=140|35=1|34=104|49=SNDR|56=TRGT|52=20090407-09:48:19.812|112=  CHECK REJECT MSG with INVALID MESSAGE - REQUIRED TAG MISSING [MsgType:_X, Tag:_271]|10=018|
8=FIX.4.3|9=102|35=X|49=SNDR|56=TRGT|34=15|52=20090401-13:31:28.137|268=1|279=0|269=4|280=000280|55=IBM|270=000270|271=27.34|10=218|
8=FIX.4.3|9=140|35=1|34=104|49=SNDR|56=TRGT|52=20090407-09:48:19.812|112=  CHECK REJECT MSG with INVALID MESSAGE - REQUIRED TAG MISSING [MsgType:_X, Tag:_286]|10=018|
8=FIX.4.3|9=102|35=X|49=SNDR|56=TRGT|34=15|52=20090401-13:31:28.137|268=1|279=0|269=4|280=000280|55=IBM|48=00048|270=000270|271=27.34|10=218|
8=FIX.4.3|9=140|35=1|34=104|49=SNDR|56=TRGT|52=20090407-09:48:19.812|112=  CHECK REJECT MSG with INVALID MESSAGE - REQUIRED TAG MISSING [MsgType:_X, Tag:_22]|10=018|
8=FIX.4.3|9=102|35=X|49=SNDR|56=TRGT|34=15|52=20090401-13:31:28.137|268=1|279=0|269=4|280=000280|55=IBM|454=1|270=000270|271=27.34|10=218|
8=FIX.4.3|9=140|35=1|34=104|49=SNDR|56=TRGT|52=20090407-09:48:19.812|112=  CHECK REJECT MSG with INVALID MESSAGE - REQUIRED TAG MISSING [MsgType:_X, Tag:_455]|10=018|
