8=FIX.4.3|9=153|35=s|49=SNDR|56=TRGT|34=14|52=20090401-13:22:26.824|548=90001008|549=1|550=0|552=1|54=1|11=B101010|38=4000|121=Y|55=TESTA|21=1|60=20060217-10:00:00|40=1|10=193|
8=FIX.4.3|9=140|35=1|34=104|49=SNDR|56=TRGT|52=20090407-09:48:19.812|112=  CHECK REJECT MSG with INVALID MESSAGE - REQUIRED TAG MISSING [MsgType:_s, Tag:_120]|10=018|
8=FIX.4.3|9=147|35=s|49=SNDR|56=TRGT|34=15|52=20090401-13:22:26.824|548=90001008|549=1|550=0|552=1|54=1|11=B101010|38=4000|55=TESTA|21=1|60=20060217-10:00:00|40=2|10=155|
8=FIX.4.3|9=140|35=1|34=104|49=SNDR|56=TRGT|52=20090407-09:48:19.812|112=  CHECK REJECT MSG with INVALID MESSAGE - REQUIRED TAG MISSING [MsgType:_s, Tag:_44]|10=018|
8=FIX.4.3|9=147|35=s|49=SNDR|56=TRGT|34=16|52=20090401-13:22:26.824|548=90001008|549=1|550=0|552=1|54=1|11=B101010|38=4000|55=TESTA|21=1|60=20060217-10:00:00|40=3|10=157|
8=FIX.4.3|9=140|35=1|34=104|49=SNDR|56=TRGT|52=20090407-09:48:19.812|112=  CHECK REJECT MSG with INVALID MESSAGE - REQUIRED TAG MISSING [MsgType:_s, Tag:_99]|10=018|
8=FIX.4.3|9=147|35=s|49=SNDR|56=TRGT|34=17|52=20090401-13:22:26.824|548=90001008|549=1|550=0|552=1|54=1|11=B101010|38=4000|55=TESTA|21=1|60=20060217-10:00:00|40=D|10=175|
8=FIX.4.3|9=140|35=1|34=104|49=SNDR|56=TRGT|52=20090407-09:48:19.812|112=  CHECK REJECT MSG with INVALID MESSAGE - REQUIRED TAG MISSING [MsgType:_s, Tag:_117]|10=018|
8=FIX.4.3|9=147|35=s|49=SNDR|56=TRGT|34=18|52=20090401-13:22:26.824|548=90001008|549=1|550=0|552=1|54=1|11=B101010|38=4000|55=TESTA|21=1|60=20060217-10:00:00|40=E|10=177|
8=FIX.4.3|9=140|35=1|34=104|49=SNDR|56=TRGT|52=20090407-09:48:19.812|112=  CHECK REJECT MSG with INVALID MESSAGE - REQUIRED TAG MISSING [MsgType:_s, Tag:_23]|10=018|
8=FIX.4.3|9=147|35=s|49=SNDR|56=TRGT|34=18|52=20090401-13:22:26.824|548=90001008|549=1|550=0|552=1|54=1|11=B101010|78=1|79=00079|539=1|38=4000|55=TESTA|21=1|60=20060217-10:00:00|40=1|10=177|
8=FIX.4.3|9=140|35=1|34=104|49=SNDR|56=TRGT|52=20090407-09:48:19.812|112=  CHECK REJECT MSG with INVALID MESSAGE - REQUIRED TAG MISSING [MsgType:_s, Tag:_524]|10=018|
8=FIX.4.3|9=147|35=s|49=SNDR|56=TRGT|34=18|52=20090401-13:22:26.824|548=90001008|549=1|550=0|552=1|54=1|11=B101010|78=1|79=00079|539=1|524=000524|38=4000|55=TESTA|21=1|60=20060217-10:00:00|40=1|10=177|
8=FIX.4.3|9=140|35=1|34=104|49=SNDR|56=TRGT|52=20090407-09:48:19.812|112=  CHECK REJECT MSG with INVALID MESSAGE - REQUIRED TAG MISSING [MsgType:_s, Tag:_525]|10=018|
8=FIX.4.3|9=147|35=s|49=SNDR|56=TRGT|34=18|52=20090401-13:22:26.824|548=90001008|549=1|550=0|552=1|54=1|11=B101010|38=4000|55=TESTA|21=1|386=1|60=20060217-10:00:00|40=1|10=177|
8=FIX.4.3|9=140|35=1|34=104|49=SNDR|56=TRGT|52=20090407-09:48:19.812|112=  CHECK REJECT MSG with INVALID MESSAGE - REQUIRED TAG MISSING [MsgType:_s, Tag:_336]|10=018|
8=FIX.4.3|9=206|35=t|49=SNDR|56=TRGT|34=19|52=20090401-13:22:26.824|548=42444008|551=30001008|549=1|550=0|552=2|54=1|11=B202020|41=B101010|38=4000|54=2|11=S202020|41=S101010|78=1|38=5000|55=TESTA|60=20060217-10:00:00|40=1|10=157|
8=FIX.4.3|9=140|35=1|34=104|49=SNDR|56=TRGT|52=20090407-09:48:19.812|112=  CHECK REJECT MSG with INVALID MESSAGE - REQUIRED TAG MISSING [MsgType:_t, Tag:_79]|10=018|
8=FIX.4.3|9=206|35=t|49=SNDR|56=TRGT|34=19|52=20090401-13:22:26.824|548=42444008|551=30001008|549=1|550=0|552=2|54=1|11=B202020|41=B101010|38=4000|54=2|11=S202020|41=S101010|78=1|79=00079|539=1|38=5000|55=TESTA|60=20060217-10:00:00|40=1|10=157|
8=FIX.4.3|9=140|35=1|34=104|49=SNDR|56=TRGT|52=20090407-09:48:19.812|112=  CHECK REJECT MSG with INVALID MESSAGE - REQUIRED TAG MISSING [MsgType:_t, Tag:_524]|10=018|
8=FIX.4.3|9=206|35=t|49=SNDR|56=TRGT|34=19|52=20090401-13:22:26.824|548=42444008|551=30001008|549=1|550=0|552=2|54=1|11=B202020|41=B101010|38=4000|54=2|11=S202020|41=S101010|78=1|79=00079|539=1|524=000524|38=5000|55=TESTA|60=20060217-10:00:00|40=1|10=157|
8=FIX.4.3|9=140|35=1|34=104|49=SNDR|56=TRGT|52=20090407-09:48:19.812|112=  CHECK REJECT MSG with INVALID MESSAGE - REQUIRED TAG MISSING [MsgType:_t, Tag:_525]|10=018|
8=FIX.4.3|9=206|35=t|49=SNDR|56=TRGT|34=19|52=20090401-13:22:26.824|548=42444008|551=30001008|549=1|550=0|552=2|54=1|11=B202020|41=B101010|38=4000|54=2|11=S202020|41=S101010|78=1|79=00079|539=1|524=000524|525=000525|38=5000|55=TESTA|60=20060217-10:00:00|40=1|10=157|
8=FIX.4.3|9=140|35=1|34=104|49=SNDR|56=TRGT|52=20090407-09:48:19.812|112=  CHECK REJECT MSG with INVALID MESSAGE - REQUIRED TAG MISSING [MsgType:_t, Tag:_538]|10=018|
8=FIX.4.3|9=206|35=t|49=SNDR|56=TRGT|34=19|52=20090401-13:22:26.824|548=42444008|551=30001008|549=1|550=0|552=2|54=1|11=B202020|41=B101010|38=4000|54=2|11=S202020|41=S101010|38=5000|55=TESTA|60=20060217-10:00:00|40=1|59=6|10=157|
8=FIX.4.3|9=140|35=1|34=104|49=SNDR|56=TRGT|52=20090407-09:48:19.812|112=  CHECK REJECT MSG with INVALID MESSAGE - REQUIRED TAG MISSING [MsgType:_t, Tag:_432]|10=018|
8=FIX.4.3|9=84|35=w|49=SNDR|56=TRGT|34=20|52=20090401-13:22:26.824|320=11223|322=22115|323=1|558=1|10=121|
8=FIX.4.3|9=140|35=1|34=104|49=SNDR|56=TRGT|52=20090407-09:48:19.812|112=  CHECK REJECT MSG with INVALID MESSAGE - REQUIRED TAG MISSING [MsgType:_w, Tag:_167]|10=018|
