8=FIX.4.3|9=112|35=T|49=SNDR|56=TRGT|34=2|52=20090401-13:30:42.949|162=11223|163=R|160=0|165=1|79=KTierney|60=20060217-10:00:00|10=122|
8=FIX.4.3|9=140|35=1|34=104|49=SNDR|56=TRGT|52=20090407-09:48:19.812|112=  CHECK REJECT MSG with INVALID MESSAGE - REQUIRED TAG MISSING [MsgType:_T, Tag:_214]|10=018|
8=FIX.4.3|9=100|35=T|49=SNDR|56=TRGT|34=3|52=20090401-13:30:42.949|162=11223|163=N|160=1|165=1|60=20060217-10:00:00|10=156|
8=FIX.4.3|9=140|35=1|34=104|49=SNDR|56=TRGT|52=20090407-09:48:19.812|112=  CHECK REJECT MSG with INVALID MESSAGE - REQUIRED TAG MISSING [MsgType:_T, Tag:_79]|10=018|
8=FIX.4.3|9=112|35=T|49=SNDR|56=TRGT|34=4|52=20090401-13:30:42.949|162=11223|163=N|160=4|165=1|79=KTierney|60=20060217-10:00:00|10=124|
8=FIX.4.3|9=140|35=1|34=104|49=SNDR|56=TRGT|52=20090407-09:48:19.812|112=  CHECK REJECT MSG with INVALID MESSAGE - REQUIRED TAG MISSING [MsgType:_T, Tag:_11]|10=018|
8=FIX.4.3|9=112|35=T|49=SNDR|56=TRGT|34=5|52=20090401-13:30:42.949|162=11223|163=N|160=2|165=1|79=KTierney|60=20060217-10:00:00|10=123|
8=FIX.4.3|9=140|35=1|34=104|49=SNDR|56=TRGT|52=20090407-09:48:19.812|112=  CHECK REJECT MSG with INVALID MESSAGE - REQUIRED TAG MISSING [MsgType:_T, Tag:_75]|10=018|
8=FIX.4.3|9=124|35=T|49=SNDR|56=TRGT|34=6|52=20090401-13:30:42.949|162=11223|163=N|160=2|165=1|79=KTierney|75=20060216|60=20060217-10:00:00|10=186|
8=FIX.4.3|9=140|35=1|34=104|49=SNDR|56=TRGT|52=20090407-09:48:19.812|112=  CHECK REJECT MSG with INVALID MESSAGE - REQUIRED TAG MISSING [MsgType:_T, Tag:_70]|10=018|
8=FIX.4.3|9=133|35=T|49=SNDR|56=TRGT|34=7|52=20090401-13:30:42.949|162=11223|163=N|160=2|165=1|79=KTierney|75=20060216|70=00070|60=20060217-10:00:00|10=087|
8=FIX.4.3|9=140|35=1|34=104|49=SNDR|56=TRGT|52=20090407-09:48:19.812|112=  CHECK REJECT MSG with INVALID MESSAGE - REQUIRED TAG MISSING [MsgType:_T, Tag:_30]|10=018|
8=FIX.4.3|9=141|35=T|49=SNDR|56=TRGT|34=8|52=20090401-13:30:42.949|162=11223|163=N|160=2|165=1|79=KTierney|75=20060216|70=00070|30=XZRH|60=20060217-10:00:00|10=068|
8=FIX.4.3|9=140|35=1|34=104|49=SNDR|56=TRGT|52=20090407-09:48:19.812|112=  CHECK REJECT MSG with INVALID MESSAGE - REQUIRED TAG MISSING [MsgType:_T, Tag:_54]|10=018|
