8=FIX.4.3|9=201|35=J|49=SNDR|56=TRGT|34=2|52=20030204-08:56:41|70=1116226|71=1|626=1|73=2|11=90001008|11=90000008|54=1|55=TESTB|53=1004000|6=30|75=20030821|78=3|79=1000|80=500000|79=2000|80=400000|79=3000|80=104000|10=029|
8=FIX.4.3|9=140|35=1|34=104|49=SNDR|56=TRGT|52=20090407-09:48:19.812|112=  CHECK REJECT MSG with INVALID MESSAGE - REQUIRED TAG MISSING [MsgType:_J, Tag:_72]|10=018|
8=FIX.4.3|9=201|35=J|49=SNDR|56=TRGT|34=2|52=20030204-08:56:41|70=1116226|71=0|626=3|73=2|11=90001008|11=90000008|54=1|55=TESTB|53=1004000|6=30|75=20030821|78=3|79=1000|80=500000|79=2000|80=400000|79=3000|80=104000|10=029|
8=FIX.4.3|9=140|35=1|34=104|49=SNDR|56=TRGT|52=20090407-09:48:19.812|112=  CHECK REJECT MSG with INVALID MESSAGE - REQUIRED TAG MISSING [MsgType:_J, Tag:_72]|10=018|
8=FIX.4.3|9=201|35=J|49=SNDR|56=TRGT|34=2|52=20030204-08:56:41|70=1116226|71=0|626=1|196=000196|73=2|11=90001008|11=90000008|54=1|55=TESTB|53=1004000|6=30|75=20030821|78=3|79=1000|80=500000|79=2000|80=400000|79=3000|80=104000|10=029|
8=FIX.4.3|9=140|35=1|34=104|49=SNDR|56=TRGT|52=20090407-09:48:19.812|112=  CHECK REJECT MSG with INVALID MESSAGE - REQUIRED TAG MISSING [MsgType:_J, Tag:_197]|10=018|
8=FIX.4.3|9=201|35=J|49=SNDR|56=TRGT|34=2|52=20030204-08:56:41|70=1116226|71=0|626=1|73=2|11=90001008|11=90000008|54=1|55=TESTB|53=1004000|6=30|75=20030821|78=1|79=1000|10=029|
8=FIX.4.3|9=140|35=1|34=104|49=SNDR|56=TRGT|52=20090407-09:48:19.812|112=  CHECK REJECT MSG with INVALID MESSAGE - REQUIRED TAG MISSING [MsgType:_J, Tag:_80]|10=018|
8=FIX.4.3|9=201|35=J|49=SNDR|56=TRGT|34=2|52=20030204-08:56:41|70=1116226|71=0|626=1|73=2|11=90001008|11=90000008|54=1|55=TESTB|53=1004000|6=30|75=20030821|78=1|79=1000|80=500000|119=119|10=029|
8=FIX.4.3|9=140|35=1|34=104|49=SNDR|56=TRGT|52=20090407-09:48:19.812|112=  CHECK REJECT MSG with INVALID MESSAGE - REQUIRED TAG MISSING [MsgType:_J, Tag:_120]|10=018|
8=FIX.4.3|9=201|35=J|49=SNDR|56=TRGT|34=2|52=20030204-08:56:41|70=1116226|71=0|626=1|73=2|11=90001008|11=90000008|54=1|55=TESTB|53=1004000|6=30|75=20030821|78=1|79=1000|80=500000|136=1|10=029|
8=FIX.4.3|9=140|35=1|34=104|49=SNDR|56=TRGT|52=20090407-09:48:19.812|112=  CHECK REJECT MSG with INVALID MESSAGE - REQUIRED TAG MISSING [MsgType:_J, Tag:_137]|10=018|
8=FIX.4.3|9=201|35=J|49=SNDR|56=TRGT|34=2|52=20030204-08:56:41|70=1116226|71=0|626=1|73=2|11=90001008|11=90000008|54=1|55=TESTB|53=1004000|6=30|75=20030821|78=1|79=1000|80=500000|136=1|137=9|10=029|
8=FIX.4.3|9=140|35=1|34=104|49=SNDR|56=TRGT|52=20090407-09:48:19.812|112=  CHECK REJECT MSG with INVALID MESSAGE - REQUIRED TAG MISSING [MsgType:_J, Tag:_138]|10=018|
8=FIX.4.3|9=201|35=J|49=SNDR|56=TRGT|34=2|52=20030204-08:56:41|70=1116226|71=0|626=1|73=2|11=90001008|11=90000008|54=1|55=TESTB|53=1004000|6=30|75=20030821|78=1|79=1000|80=500000|136=1|137=9|138=959|10=029|
8=FIX.4.3|9=140|35=1|34=104|49=SNDR|56=TRGT|52=20090407-09:48:19.812|112=  CHECK REJECT MSG with INVALID MESSAGE - REQUIRED TAG MISSING [MsgType:_J, Tag:_139]|10=018|
8=FIX.4.3|9=218|35=N|49=SNDR|56=TRGT|34=2|52=20030204-09:08:23|66=20012411|429=1|82=3|431=3|83=1|445=10|68=5|73=3|11=1111|14=11|39=1|151=89|84=0|6=12|11=1121|14=1000|39=1|151=500|84=1000|6=2.28|11=1131|14=2500|39=1|151=500|84=1500|6=34.11|10=000|
8=FIX.4.3|9=140|35=1|34=104|49=SNDR|56=TRGT|52=20090407-09:48:19.812|112=  CHECK REJECT MSG with INVALID MESSAGE - REQUIRED TAG MISSING [MsgType:_N, Tag:_446]|10=018|
8=FIX.4.3|9=80|35=P|49=SNDR|56=TRGT|34=2|52=20030204-09:17:25|70=3659000001|75=20030808|87=1|10=235|
8=FIX.4.3|9=140|35=1|34=104|49=SNDR|56=TRGT|52=20090407-09:48:19.812|112=  CHECK REJECT MSG with INVALID MESSAGE - REQUIRED TAG MISSING [MsgType:_P, Tag:_88]|10=018|
