8=FIX.4.3|9=120|35=8|49=SNDR|56=TRGT|34=5|52=20090401-13:17:58.371|37=11111111|17=11|39=0|150=4|55=TESTB|54=1|38=1000|151=1000|14=0|6=0|10=025|
8=FIX.4.3|9=140|35=1|34=104|49=SNDR|56=TRGT|52=20090407-09:48:19.812|112=  CHECK REJECT MSG with INVALID MESSAGE - REQUIRED TAG MISSING [MsgType:_8, Tag:_41]|10=018|
8=FIX.4.3|9=120|35=8|49=SNDR|56=TRGT|34=6|52=20090401-13:17:58.371|37=11111111|17=11|39=0|150=G|55=TESTB|54=1|38=1000|151=1000|14=0|6=0|10=045|
8=FIX.4.3|9=140|35=1|34=104|49=SNDR|56=TRGT|52=20090407-09:48:19.812|112=  CHECK REJECT MSG with INVALID MESSAGE - REQUIRED TAG MISSING [MsgType:_8, Tag:_19]|10=018|
8=FIX.4.3|9=120|35=8|49=SNDR|56=TRGT|34=7|52=20090401-13:17:58.371|37=11111111|17=11|39=0|150=D|55=TESTB|54=1|38=1000|151=1000|14=0|6=0|10=043|
8=FIX.4.3|9=140|35=1|34=104|49=SNDR|56=TRGT|52=20090407-09:48:19.812|112=  CHECK REJECT MSG with INVALID MESSAGE - REQUIRED TAG MISSING [MsgType:_8, Tag:_378]|10=018|
8=FIX.4.3|9=128|35=8|49=SNDR|56=TRGT|34=8|52=20090401-13:17:58.387|37=11111111|17=11|39=0|150=0|55=TESTB|54=1|38=1000|151=1000|14=0|6=0|389=0.1|10=152|
8=FIX.4.3|9=140|35=1|34=104|49=SNDR|56=TRGT|52=20090407-09:48:19.812|112=  CHECK REJECT MSG with INVALID MESSAGE - REQUIRED TAG MISSING [MsgType:_8, Tag:_388]|10=018|
8=FIX.4.3|9=120|35=8|49=SNDR|56=TRGT|34=9|52=20090401-13:17:58.387|37=11111111|17=11|39=0|150=F|55=TESTB|54=1|38=1000|151=1000|14=0|6=0|10=054|
8=FIX.4.3|9=140|35=1|34=104|49=SNDR|56=TRGT|52=20090407-09:48:19.812|112=  CHECK REJECT MSG with INVALID MESSAGE - REQUIRED TAG MISSING [MsgType:_8, Tag:_32]|10=018|
8=FIX.4.3|9=127|35=8|49=SNDR|56=TRGT|34=10|52=20090401-13:17:58.387|37=11111111|17=11|39=0|150=F|32=50|55=TESTB|54=1|38=1000|151=1000|14=0|6=0|10=109|
8=FIX.4.3|9=140|35=1|34=104|49=SNDR|56=TRGT|52=20090407-09:48:19.812|112=  CHECK REJECT MSG with INVALID MESSAGE - REQUIRED TAG MISSING [MsgType:_8, Tag:_31]|10=018|
8=FIX.4.3|9=120|35=8|49=SNDR|56=TRGT|34=5|52=20090401-13:17:58.371|37=11111111|17=11|39=0|150=0|55=TESTB|54=1|38=1000|151=1000|14=0|6=0|555=1|600=000600|604=1|10=025|
8=FIX.4.3|9=140|35=1|34=104|49=SNDR|56=TRGT|52=20090407-09:48:19.812|112=  CHECK REJECT MSG with INVALID MESSAGE - REQUIRED TAG MISSING [MsgType:_8, Tag:_605]|10=018|
8=FIX.4.3|9=120|35=8|49=SNDR|56=TRGT|34=5|52=20090401-13:17:58.371|37=11111111|17=11|39=0|150=0|55=TESTB|54=1|38=1000|151=1000|14=0|6=0|555=1|600=000600|618=2|10=025|
8=FIX.4.3|9=140|35=1|34=104|49=SNDR|56=TRGT|52=20090407-09:48:19.812|112=  CHECK REJECT MSG with INVALID MESSAGE - REQUIRED TAG MISSING [MsgType:_8, Tag:_619]|10=018|
8=FIX.4.3|9=120|35=8|49=SNDR|56=TRGT|34=5|52=20090401-13:17:58.371|37=11111111|17=11|39=0|150=0|55=TESTB|54=1|38=1000|151=1000|14=0|6=0|555=1|600=000600|621=2|10=025|
8=FIX.4.3|9=140|35=1|34=104|49=SNDR|56=TRGT|52=20090407-09:48:19.812|112=  CHECK REJECT MSG with INVALID MESSAGE - REQUIRED TAG MISSING [MsgType:_8, Tag:_622]|10=018|
