8=FIX.4.0|9=112|35=E|49=TESTI|56=TESTA|34=2|52=20030204-08:18:22|66=20012411|68=1|67=3|11=1131|63=6|21=3|55=TESTB3|54=3|38=3000|40=1|10=239|
8=FIX.4.0|9=140|35=1|34=104|49=SNDR|56=TRGT|52=20090407-09:48:19.812|112=ch. REJECT: INVALID MESSAGE - REQUIRED TAG MISSING [MsgType:_E, Tag:_64]|10=018|
8=FIX.4.0|9=112|35=E|49=TESTI|56=TESTA|34=2|52=20030204-08:18:22|66=20012411|68=1|67=3|11=1131|21=3|55=TESTB3|54=5|38=3000|40=1|10=239|
8=FIX.4.0|9=140|35=1|34=104|49=SNDR|56=TRGT|52=20090407-09:48:19.812|112=ch. REJECT: INVALID MESSAGE - REQUIRED TAG MISSING [MsgType:_E, Tag:_114]|10=018|
8=FIX.4.0|9=112|35=E|49=TESTI|56=TESTA|34=2|52=20030204-08:18:22|66=20012411|68=1|67=3|11=1131|21=3|55=TESTB3|54=3|38=3000|40=2|10=239|
8=FIX.4.0|9=140|35=1|34=104|49=SNDR|56=TRGT|52=20090407-09:48:19.812|112=ch. REJECT: INVALID MESSAGE - REQUIRED TAG MISSING [MsgType:_E, Tag:_44]|10=018|
8=FIX.4.0|9=112|35=E|49=TESTI|56=TESTA|34=2|52=20030204-08:18:22|66=20012411|68=1|67=3|11=1131|21=3|55=TESTB3|54=3|38=3000|40=3|10=239|
8=FIX.4.0|9=140|35=1|34=104|49=SNDR|56=TRGT|52=20090407-09:48:19.812|112=ch. REJECT: INVALID MESSAGE - REQUIRED TAG MISSING [MsgType:_E, Tag:_99]|10=018|
8=FIX.4.0|9=105|35=G|49=TESTI|56=TESTA|34=2|52=20030204-08:49:18|11=12233345|41=90001008|63=6|21=2|55=TESTB|54=1|38=4000|40=1|10=224|
8=FIX.4.0|9=140|35=1|34=104|49=SNDR|56=TRGT|52=20090407-09:48:19.812|112=ch. REJECT: INVALID MESSAGE - REQUIRED TAG MISSING [MsgType:_G, Tag:_64]|10=018|
8=FIX.4.0|9=105|35=G|49=TESTI|56=TESTA|34=2|52=20030204-08:49:18|11=12233345|41=90001008|21=2|55=TESTB|54=1|38=4000|40=2|10=224|
8=FIX.4.0|9=140|35=1|34=104|49=SNDR|56=TRGT|52=20090407-09:48:19.812|112=ch. REJECT: INVALID MESSAGE - REQUIRED TAG MISSING [MsgType:_G, Tag:_44]|10=018|
8=FIX.4.0|9=105|35=G|49=TESTI|56=TESTA|34=2|52=20030204-08:49:18|11=12233345|41=90001008|21=2|55=TESTB|54=1|38=4000|40=3|10=224|
8=FIX.4.0|9=140|35=1|34=104|49=SNDR|56=TRGT|52=20090407-09:48:19.812|112=ch. REJECT: INVALID MESSAGE - REQUIRED TAG MISSING [MsgType:_G, Tag:_99]|10=018|
