8=FIX.4.0|9=81|35=6|49=TESTI|56=TESTA|34=2|52=20030203-16:10:01|23=24|28=C|55=TESTB|54=1|27=S|10=100|
8=FIX.4.0|9=140|35=1|34=104|49=SNDR|56=TRGT|52=20090407-09:48:19.812|112=ch. REJECT: INVALID MESSAGE - REQUIRED TAG MISSING [MsgType:_6, Tag:_26]|10=018|
8=FIX.4.0|9=83|35=7|49=TESTI|56=TESTA|34=2|52=20030203-16:02:35|2=20|5=R|55=TESTB|4=T|53=1000000|10=190|
8=FIX.4.0|9=140|35=1|34=104|49=SNDR|56=TRGT|52=20090407-09:48:19.812|112=ch. REJECT: INVALID MESSAGE - REQUIRED TAG MISSING [MsgType:_7, Tag:_3]|10=018|
8=FIX.4.0|9=110|35=8|49=TESTI|56=TESTA|34=2|52=20030203-16:09:30|37=11111111|17=12|20=2|39=0|55=TESTB|54=1|38=1000|14=0|6=0|10=105|
8=FIX.4.0|9=140|35=1|34=104|49=SNDR|56=TRGT|52=20090407-09:48:19.812|112=ch. REJECT: INVALID MESSAGE - REQUIRED TAG MISSING [MsgType:_8, Tag:_19]|10=018|
8=FIX.4.0|9=110|35=8|49=TESTI|56=TESTA|34=2|52=20030203-16:09:30|37=11111111|17=12|20=3|39=0|63=6|55=TESTB|54=1|38=1000|14=0|6=0|10=105|
8=FIX.4.0|9=140|35=1|34=104|49=SNDR|56=TRGT|52=20090407-09:48:19.812|112=ch. REJECT: INVALID MESSAGE - REQUIRED TAG MISSING [MsgType:_8, Tag:_64]|10=018|
8=FIX.4.0|9=110|35=8|49=TESTI|56=TESTA|34=2|52=20030203-16:09:30|37=11111111|17=12|20=3|39=0|55=TESTB|54=1|38=1000|40=4|14=0|6=0|10=105|
8=FIX.4.0|9=140|35=1|34=104|49=SNDR|56=TRGT|52=20090407-09:48:19.812|112=ch. REJECT: INVALID MESSAGE - REQUIRED TAG MISSING [MsgType:_8, Tag:_99]|10=018|
8=FIX.4.0|9=110|35=8|49=TESTI|56=TESTA|34=2|52=20030203-16:09:30|37=11111111|17=12|20=3|39=0|55=TESTB|54=1|38=1000|59=6|14=0|6=0|10=105|
8=FIX.4.0|9=140|35=1|34=104|49=SNDR|56=TRGT|52=20090407-09:48:19.812|112=ch. REJECT: INVALID MESSAGE - REQUIRED TAG MISSING [MsgType:_8, Tag:_126]|10=018|
8=FIX.4.0|9=110|35=8|49=TESTI|56=TESTA|34=2|52=20030203-16:09:30|37=11111111|17=12|20=3|39=0|55=TESTB|54=1|38=1000|14=0|6=0|136=1|10=105|
8=FIX.4.0|9=140|35=1|34=104|49=SNDR|56=TRGT|52=20090407-09:48:19.812|112=ch. REJECT: INVALID MESSAGE - REQUIRED TAG MISSING [MsgType:_8, Tag:_137]|10=018|
8=FIX.4.0|9=110|35=8|49=TESTI|56=TESTA|34=2|52=20030203-16:09:30|37=11111111|17=12|20=3|39=0|55=TESTB|54=1|38=1000|14=0|6=0|136=1|137=10|10=105|
8=FIX.4.0|9=140|35=1|34=104|49=SNDR|56=TRGT|52=20090407-09:48:19.812|112=ch. REJECT: INVALID MESSAGE - REQUIRED TAG MISSING [MsgType:_8, Tag:_138]|10=018|
8=FIX.4.0|9=110|35=8|49=TESTI|56=TESTA|34=2|52=20030203-16:09:30|37=11111111|17=12|20=3|39=0|55=TESTB|54=1|38=1000|14=0|6=0|136=1|137=10|138=AUD|10=105|
8=FIX.4.0|9=140|35=1|34=104|49=SNDR|56=TRGT|52=20090407-09:48:19.812|112=ch. REJECT: INVALID MESSAGE - REQUIRED TAG MISSING [MsgType:_8, Tag:_139]|10=018|
8=FIX.4.0|9=131|35=B|49=TESTI|56=TESTA|34=2|52=20030203-16:21:17|33=4|58=In the evening |58=it might be wet |58=and windy.|58= Take your coat on.|95=2|10=007|
8=FIX.4.0|9=140|35=1|34=104|49=SNDR|56=TRGT|52=20090407-09:48:19.812|112=ch. REJECT: INVALID MESSAGE - REQUIRED TAG MISSING [MsgType:_B, Tag:_96]|10=018|
8=FIX.4.0|9=112|35=C|49=TESTI|56=TESTA|34=2|52=20030203-16:20:05|94=0|33=3|58=Hello, Bunny!|58=Happy Birthday to you :)|58=Bye.|95=2|10=016|
8=FIX.4.0|9=140|35=1|34=104|49=SNDR|56=TRGT|52=20090407-09:48:19.812|112=ch. REJECT: INVALID MESSAGE - REQUIRED TAG MISSING [MsgType:_C, Tag:_96]|10=018|
8=FIX.4.0|9=107|35=D|49=TESTI|56=TESTA|34=2|52=20030204-08:46:14|11=90001008|63=6|21=2|55=TESTB|54=1|38=4000|40=1|10=074|
8=FIX.4.0|9=140|35=1|34=104|49=SNDR|56=TRGT|52=20090407-09:48:19.812|112=ch. REJECT: INVALID MESSAGE - REQUIRED TAG MISSING [MsgType:_D, Tag:_64]|10=018|
8=FIX.4.0|9=107|35=D|49=TESTI|56=TESTA|34=2|52=20030204-08:46:14|11=90001008|21=2|55=TESTB|54=5|38=4000|40=1|10=074|
8=FIX.4.0|9=140|35=1|34=104|49=SNDR|56=TRGT|52=20090407-09:48:19.812|112=ch. REJECT: INVALID MESSAGE - REQUIRED TAG MISSING [MsgType:_D, Tag:_114]|10=018|
8=FIX.4.0|9=107|35=D|49=TESTI|56=TESTA|34=2|52=20030204-08:46:14|11=90001008|21=2|55=TESTB|54=1|38=4000|40=2|10=074|
8=FIX.4.0|9=140|35=1|34=104|49=SNDR|56=TRGT|52=20090407-09:48:19.812|112=ch. REJECT: INVALID MESSAGE - REQUIRED TAG MISSING [MsgType:_D, Tag:_44]|10=018|
8=FIX.4.0|9=107|35=D|49=TESTI|56=TESTA|34=2|52=20030204-08:46:14|11=90001008|21=2|55=TESTB|54=1|38=4000|40=3|10=074|
8=FIX.4.0|9=140|35=1|34=104|49=SNDR|56=TRGT|52=20090407-09:48:19.812|112=ch. REJECT: INVALID MESSAGE - REQUIRED TAG MISSING [MsgType:_D, Tag:_99]|10=018|
8=FIX.4.0|9=107|35=D|49=TESTI|56=TESTA|34=2|52=20030204-08:46:14|11=90001008|21=2|55=TESTB|54=1|38=4000|40=E|10=074|
8=FIX.4.0|9=140|35=1|34=104|49=SNDR|56=TRGT|52=20090407-09:48:19.812|112=ch. REJECT: INVALID MESSAGE - REQUIRED TAG MISSING [MsgType:_D, Tag:_23]|10=018|
8=FIX.4.0|9=107|35=D|49=TESTI|56=TESTA|34=2|52=20030204-08:46:14|11=90001008|21=2|55=TESTB|54=1|38=4000|40=D|10=074|
8=FIX.4.0|9=140|35=1|34=104|49=SNDR|56=TRGT|52=20090407-09:48:19.812|112=ch. REJECT: INVALID MESSAGE - REQUIRED TAG MISSING [MsgType:_D, Tag:_117]|10=018|
8=FIX.4.0|9=107|35=D|49=TESTI|56=TESTA|34=2|52=20030204-08:46:14|11=90001008|21=2|55=TESTB|54=1|38=4000|40=1|59=6|10=074|
8=FIX.4.0|9=140|35=1|34=104|49=SNDR|56=TRGT|52=20090407-09:48:19.812|112=ch. REJECT: INVALID MESSAGE - REQUIRED TAG MISSING [MsgType:_D, Tag:_126]|10=018|
8=FIX.4.0|9=107|35=D|49=TESTI|56=TESTA|34=2|52=20030204-08:46:14|11=90001008|21=2|55=TESTB|54=1|38=4000|40=1|121=Y|10=074|
8=FIX.4.0|9=140|35=1|34=104|49=SNDR|56=TRGT|52=20090407-09:48:19.812|112=ch. REJECT: INVALID MESSAGE - REQUIRED TAG MISSING [MsgType:_D, Tag:_120]|10=018|
8=FIX.4.0|9=112|35=E|49=TESTI|56=TESTA|34=2|52=20030204-08:18:22|66=20012411|68=1|67=3|11=1131|63=6|21=3|55=TESTB3|54=3|38=3000|40=1|10=239|
8=FIX.4.0|9=140|35=1|34=104|49=SNDR|56=TRGT|52=20090407-09:48:19.812|112=ch. REJECT: INVALID MESSAGE - REQUIRED TAG MISSING [MsgType:_E, Tag:_64]|10=018|
8=FIX.4.0|9=112|35=E|49=TESTI|56=TESTA|34=2|52=20030204-08:18:22|66=20012411|68=1|67=3|11=1131|21=3|55=TESTB3|54=5|38=3000|40=1|10=239|
8=FIX.4.0|9=140|35=1|34=104|49=SNDR|56=TRGT|52=20090407-09:48:19.812|112=ch. REJECT: INVALID MESSAGE - REQUIRED TAG MISSING [MsgType:_E, Tag:_114]|10=018|
8=FIX.4.0|9=112|35=E|49=TESTI|56=TESTA|34=2|52=20030204-08:18:22|66=20012411|68=1|67=3|11=1131|21=3|55=TESTB3|54=3|38=3000|40=2|10=239|
8=FIX.4.0|9=140|35=1|34=104|49=SNDR|56=TRGT|52=20090407-09:48:19.812|112=ch. REJECT: INVALID MESSAGE - REQUIRED TAG MISSING [MsgType:_E, Tag:_44]|10=018|
8=FIX.4.0|9=112|35=E|49=TESTI|56=TESTA|34=2|52=20030204-08:18:22|66=20012411|68=1|67=3|11=1131|21=3|55=TESTB3|54=3|38=3000|40=3|10=239|
8=FIX.4.0|9=140|35=1|34=104|49=SNDR|56=TRGT|52=20090407-09:48:19.812|112=ch. REJECT: INVALID MESSAGE - REQUIRED TAG MISSING [MsgType:_E, Tag:_99]|10=018|
8=FIX.4.0|9=105|35=G|49=TESTI|56=TESTA|34=2|52=20030204-08:49:18|11=12233345|41=90001008|63=6|21=2|55=TESTB|54=1|38=4000|40=1|10=224|
8=FIX.4.0|9=140|35=1|34=104|49=SNDR|56=TRGT|52=20090407-09:48:19.812|112=ch. REJECT: INVALID MESSAGE - REQUIRED TAG MISSING [MsgType:_G, Tag:_64]|10=018|
8=FIX.4.0|9=105|35=G|49=TESTI|56=TESTA|34=2|52=20030204-08:49:18|11=12233345|41=90001008|21=2|55=TESTB|54=1|38=4000|40=2|10=224|
8=FIX.4.0|9=140|35=1|34=104|49=SNDR|56=TRGT|52=20090407-09:48:19.812|112=ch. REJECT: INVALID MESSAGE - REQUIRED TAG MISSING [MsgType:_G, Tag:_44]|10=018|
8=FIX.4.0|9=105|35=G|49=TESTI|56=TESTA|34=2|52=20030204-08:49:18|11=12233345|41=90001008|21=2|55=TESTB|54=1|38=4000|40=3|10=224|
8=FIX.4.0|9=140|35=1|34=104|49=SNDR|56=TRGT|52=20090407-09:48:19.812|112=ch. REJECT: INVALID MESSAGE - REQUIRED TAG MISSING [MsgType:_G, Tag:_99]|10=018|
8=FIX.4.0|9=195|35=J|49=TESTI|56=TESTA|34=2|52=20030204-08:56:41|70=1116226|71=0|73=1|11=90000008|124=1|54=1|55=TESTB|53=1004000|6=30|75=20030821|78=1|79=1000|80=500000|10=028|
8=FIX.4.0|9=140|35=1|34=104|49=SNDR|56=TRGT|52=20090407-09:48:19.812|112=ch. REJECT: INVALID MESSAGE - REQUIRED TAG MISSING [MsgType:_J, Tag:_17]|10=018|
8=FIX.4.0|9=195|35=J|49=TESTI|56=TESTA|34=2|52=20030204-08:56:41|70=1116226|71=0|73=1|11=90000008|124=1|17=1001|54=1|55=TESTB|53=1004000|6=30|75=20030821|78=1|79=1000|80=500000|10=028|
8=FIX.4.0|9=140|35=1|34=104|49=SNDR|56=TRGT|52=20090407-09:48:19.812|112=ch. REJECT: INVALID MESSAGE - REQUIRED TAG MISSING [MsgType:_J, Tag:_32]|10=018|
8=FIX.4.0|9=195|35=J|49=TESTI|56=TESTA|34=2|52=20030204-08:56:41|70=1116226|71=0|73=1|11=90000008|124=1|17=1001|32=3002|54=1|55=TESTB|53=1004000|6=30|75=20030821|78=1|79=1000|80=500000|10=028|
8=FIX.4.0|9=140|35=1|34=104|49=SNDR|56=TRGT|52=20090407-09:48:19.812|112=ch. REJECT: INVALID MESSAGE - REQUIRED TAG MISSING [MsgType:_J, Tag:_31]|10=018|
8=FIX.4.0|9=195|35=J|49=TESTI|56=TESTA|34=2|52=20030204-08:56:41|70=1116226|71=0|73=1|11=90000008|54=1|55=TESTB|53=1004000|6=30|136=1|75=20030821|78=1|79=1000|80=500000|10=028|
8=FIX.4.0|9=140|35=1|34=104|49=SNDR|56=TRGT|52=20090407-09:48:19.812|112=ch. REJECT: INVALID MESSAGE - REQUIRED TAG MISSING [MsgType:_J, Tag:_137]|10=018|
8=FIX.4.0|9=195|35=J|49=TESTI|56=TESTA|34=2|52=20030204-08:56:41|70=1116226|71=0|73=1|11=90000008|54=1|55=TESTB|53=1004000|6=30|136=1|137=10|75=20030821|78=1|79=1000|80=500000|10=028|
8=FIX.4.0|9=140|35=1|34=104|49=SNDR|56=TRGT|52=20090407-09:48:19.812|112=ch. REJECT: INVALID MESSAGE - REQUIRED TAG MISSING [MsgType:_J, Tag:_138]|10=018|
8=FIX.4.0|9=195|35=J|49=TESTI|56=TESTA|34=2|52=20030204-08:56:41|70=1116226|71=0|73=1|11=90000008|54=1|55=TESTB|53=1004000|6=30|136=1|137=10|138=USD|75=20030821|78=1|79=1000|80=500000|10=028|
8=FIX.4.0|9=140|35=1|34=104|49=SNDR|56=TRGT|52=20090407-09:48:19.812|112=ch. REJECT: INVALID MESSAGE - REQUIRED TAG MISSING [MsgType:_J, Tag:_139]|10=018|
8=FIX.4.0|9=195|35=J|49=TESTI|56=TESTA|34=2|52=20030204-08:56:41|70=1116226|71=0|73=1|11=90000008|54=1|55=TESTB|53=1004000|6=30|75=20030821|78=1|79=1000|80=500000|85=1|10=028|
8=FIX.4.0|9=140|35=1|34=104|49=SNDR|56=TRGT|52=20090407-09:48:19.812|112=ch. REJECT: INVALID MESSAGE - REQUIRED TAG MISSING [MsgType:_J, Tag:_92]|10=018|
8=FIX.4.0|9=195|35=J|49=TESTI|56=TESTA|34=2|52=20030204-08:56:41|70=1116226|71=0|73=1|11=90000008|54=1|55=TESTB|53=1004000|6=30|75=20030821|78=1|79=1000|80=500000|85=1|92=00092|10=028|
8=FIX.4.0|9=140|35=1|34=104|49=SNDR|56=TRGT|52=20090407-09:48:19.812|112=ch. REJECT: INVALID MESSAGE - REQUIRED TAG MISSING [MsgType:_J, Tag:_86]|10=018|
8=FIX.4.0|9=80|35=P|49=TESTI|56=TESTA|34=2|52=20030204-09:17:25|70=3659000001|75=20030808|87=1|10=238|
8=FIX.4.0|9=140|35=1|34=104|49=SNDR|56=TRGT|52=20090407-09:48:19.812|112=ch. REJECT: INVALID MESSAGE - REQUIRED TAG MISSING [MsgType:_P, Tag:_88]|10=018|
