8=FIXT.1.1|9=174|35=s|49=SNDR|56=TRGT|34=2|52=20100325-10:22:03.983|548=90001008|549=1|550=0|552=2|54=1|11=B101010|38=4000|54=2|11=S101010|38=5000|55=TESTA|60=20060217-10:00:00|40=1|18=11 ek|10=053|
8=FIXT.1.1|9=171|35=s|49=SNDR|56=TRGT|34=3|52=20100325-10:22:03.998|548=90001008|549=1|550=0|552=2|54=1|11=B101010|38=4000|54=2|11=S101010|38=5000|55=TESTA|60=20060217-10:00:00|40=1|18=-1|10=069|
8=FIXT.1.1|9=173|35=s|49=SNDR|56=TRGT|34=4|52=20100325-10:22:03.998|548=90001008|549=1|550=0|552=2|54=1|11=B101010|38=4000|54=2|11=S101010|38=5000|55=TESTA|60=20060217-10:00:00|40=1|18=A0 a|10=220|
8=FIXT.1.1|9=175|35=s|49=SNDR|56=TRGT|34=5|52=20100325-10:22:03.998|548=90001008|549=1|550=0|552=2|54=1|11=B101010|38=4000|54=2|11=S101010|38=5000|55=TESTA|60=20060217-10:00:00|40=1|18=b ee 5|10=142|
8=FIXT.1.1|9=151|35=1|34=6|49=SNDR|56=TRGT|52=20100325-10:22:03.998|112= TEST #001 CHECK 4 REJECT MSGS with INVALID MESSAGE - INCORRECT DATA TYPE [MsgType:_s, Tag:_18]|10=206|
8=FIXT.1.1|9=134|35=V|49=SNDR|56=TRGT|34=7|52=20100325-10:22:03.998|262=11223|263=0|264=0|286=0 15|267=2|269=0|269=1|146=2|55=TESTA|63=1|55=TESTB|63=1|10=169|
8=FIXT.1.1|9=132|35=V|49=SNDR|56=TRGT|34=8|52=20100325-10:22:03.998|262=11223|263=0|264=0|286=-1|267=2|269=0|269=1|146=2|55=TESTA|63=1|55=TESTB|63=1|10=080|
8=FIXT.1.1|9=133|35=V|49=SNDR|56=TRGT|34=9|52=20100325-10:22:03.998|262=11223|263=0|264=0|286=A B|267=2|269=0|269=1|146=2|55=TESTA|63=1|55=TESTB|63=1|10=151|
8=FIXT.1.1|9=134|35=V|49=SNDR|56=TRGT|34=10|52=20100325-10:22:03.998|262=11223|263=0|264=0|286=b c|267=2|269=0|269=1|146=2|55=TESTA|63=1|55=TESTB|63=1|10=002|
8=FIXT.1.1|9=153|35=1|34=11|49=SNDR|56=TRGT|52=20100325-10:22:03.998|112= TEST #002 CHECK 4 REJECT MSGS with INVALID MESSAGE - INCORRECT DATA TYPE [MsgType:_V, Tag:_286]|10=023|
8=FIXT.1.1|9=68|35=f|49=SNDR|56=TRGT|34=12|52=20100325-10:22:03.998|55=TESTB|291=13|10=111|
8=FIXT.1.1|9=68|35=f|49=SNDR|56=TRGT|34=13|52=20100325-10:22:03.998|55=TESTB|291=-1|10=106|
8=FIXT.1.1|9=67|35=f|49=SNDR|56=TRGT|34=14|52=20100325-10:22:03.998|55=TESTB|291=0|10=060|
8=FIXT.1.1|9=69|35=f|49=SNDR|56=TRGT|34=15|52=20100325-10:22:03.998|55=TESTB|291=A b|10=210|
8=FIXT.1.1|9=153|35=1|34=16|49=SNDR|56=TRGT|52=20100325-10:22:03.998|112= TEST #003 CHECK 4 REJECT MSGS with INVALID MESSAGE - INCORRECT DATA TYPE [MsgType:_f, Tag:_291]|10=041|
8=FIXT.1.1|9=68|35=f|49=SNDR|56=TRGT|34=17|52=20100325-10:22:03.998|55=TESTB|292=AV|10=168|
8=FIXT.1.1|9=68|35=f|49=SNDR|56=TRGT|34=18|52=20100325-10:22:03.998|55=TESTB|292=-1|10=112|
8=FIXT.1.1|9=69|35=f|49=SNDR|56=TRGT|34=19|52=20100325-10:22:03.998|55=TESTB|292=A b|10=215|
8=FIXT.1.1|9=69|35=f|49=SNDR|56=TRGT|34=20|52=20100325-10:22:03.998|55=TESTB|292=c D|10=211|
8=FIXT.1.1|9=153|35=1|34=21|49=SNDR|56=TRGT|52=20100325-10:22:03.998|112= TEST #004 CHECK 4 REJECT MSGS with INVALID MESSAGE - INCORRECT DATA TYPE [MsgType:_f, Tag:_292]|10=039|
8=FIXT.1.1|9=253|35=AK|49=SNDR|56=TRGT|34=22|52=20100325-10:22:03.998|664=0001|666=0|773=1|665=4|60=20060217-10:00:00|75=20060217|711=1|311=TST311|555=1|600=TST600|55=TESTA|80=1000|54=1|862=2|528=A|529=0 1|863=400|528=P|529=8|863=600|79=KTierney|6=20|381=20000|118=2000|10=115|
8=FIXT.1.1|9=253|35=AK|49=SNDR|56=TRGT|34=23|52=20100325-10:22:03.998|664=0001|666=0|773=1|665=4|60=20060217-10:00:00|75=20060217|711=1|311=TST311|555=1|600=TST600|55=TESTA|80=1000|54=1|862=2|528=A|529=1 B|863=400|528=P|529=8|863=600|79=KTierney|6=20|381=20000|118=2000|10=134|
8=FIXT.1.1|9=255|35=AK|49=SNDR|56=TRGT|34=24|52=20100325-10:22:03.998|664=0001|666=0|773=1|665=4|60=20060217-10:00:00|75=20060217|711=1|311=TST311|555=1|600=TST600|55=TESTA|80=1000|54=1|862=2|528=A|529=a 3 k|863=400|528=P|529=8|863=600|79=KTierney|6=20|381=20000|118=2000|10=053|
8=FIXT.1.1|9=254|35=AK|49=SNDR|56=TRGT|34=25|52=20100325-10:22:04.014|664=0001|666=0|773=1|665=4|60=20060217-10:00:00|75=20060217|711=1|311=TST311|555=1|600=TST600|55=TESTA|80=1000|54=1|862=2|528=A|529=1A 9|863=400|528=P|529=8|863=600|79=KTierney|6=20|381=20000|118=2000|10=173|
8=FIXT.1.1|9=154|35=1|34=26|49=SNDR|56=TRGT|52=20100325-10:22:04.014|112= TEST #005 CHECK 4 REJECT MSGS with INVALID MESSAGE - INCORRECT DATA TYPE [MsgType:_AK, Tag:_529]|10=067|
8=FIXT.1.1|9=135|35=V|49=SNDR|56=TRGT|34=27|52=20100325-10:22:04.014|262=11223|263=0|264=0|546=12 3|267=2|269=0|269=1|146=2|55=TESTA|63=1|55=TESTB|63=1|10=199|
8=FIXT.1.1|9=135|35=V|49=SNDR|56=TRGT|34=28|52=20100325-10:22:04.014|262=11223|263=0|264=0|546=3 21|267=2|269=0|269=1|146=2|55=TESTA|63=1|55=TESTB|63=1|10=200|
8=FIXT.1.1|9=134|35=V|49=SNDR|56=TRGT|34=29|52=20100325-10:22:04.014|262=11223|263=0|264=0|546=A 1|267=2|269=0|269=1|146=2|55=TESTA|63=1|55=TESTB|63=1|10=164|
8=FIXT.1.1|9=134|35=V|49=SNDR|56=TRGT|34=30|52=20100325-10:22:04.014|262=11223|263=0|264=0|546=b 2|267=2|269=0|269=1|146=2|55=TESTA|63=1|55=TESTB|63=1|10=190|
8=FIXT.1.1|9=153|35=1|34=31|49=SNDR|56=TRGT|52=20100325-10:22:04.014|112= TEST #006 CHECK 4 REJECT MSGS with INVALID MESSAGE - INCORRECT DATA TYPE [MsgType:_V, Tag:_546]|10=008|
