8=FIXT.1.1|9=107|35=W|49=SNDR|56=TRGT|34=33|52=20100325-10:22:21.998|55=TESTA|268=2|269=4|270=10|276=ABC|269=5|270=11|276=D|10=186|
8=FIXT.1.1|9=109|35=W|49=SNDR|56=TRGT|34=34|52=20100325-10:22:21.998|55=TESTA|268=2|269=4|270=10|276=B Z 8|269=5|270=11|276=D|10=011|
8=FIXT.1.1|9=108|35=W|49=SNDR|56=TRGT|34=35|52=20100325-10:22:21.998|55=TESTA|268=2|269=4|270=10|276=a iz|269=5|270=11|276=D|10=091|
8=FIXT.1.1|9=106|35=W|49=SNDR|56=TRGT|34=36|52=20100325-10:22:21.998|55=TESTA|268=2|269=4|270=10|276=10|269=5|270=11|276=D|10=087|
8=FIXT.1.1|9=153|35=1|34=37|49=SNDR|56=TRGT|52=20100325-10:22:21.998|112= TEST #007 CHECK 4 REJECT MSGS with INVALID MESSAGE - INCORRECT DATA TYPE [MsgType:_W, Tag:_276]|10=036|
8=FIXT.1.1|9=118|35=X|49=SNDR|56=TRGT|34=38|52=20100325-10:22:21.998|268=2|279=1|280=0001|270=10|277=AA zz|279=1|280=0002|270=11|277=G|10=156|
8=FIXT.1.1|9=116|35=X|49=SNDR|56=TRGT|34=39|52=20100325-10:22:21.998|268=2|279=1|280=0001|270=10|277=AT1|279=1|280=0002|270=11|277=G|10=203|
8=FIXT.1.1|9=118|35=X|49=SNDR|56=TRGT|34=40|52=20100325-10:22:21.998|268=2|279=1|280=0001|270=10|277=CC Dy|279=1|280=0002|270=11|277=G|10=098|
8=FIXT.1.1|9=115|35=X|49=SNDR|56=TRGT|34=41|52=20100325-10:22:21.998|268=2|279=1|280=0001|270=10|277=-0|279=1|280=0002|270=11|277=G|10=090|
8=FIXT.1.1|9=153|35=1|34=42|49=SNDR|56=TRGT|52=20100325-10:22:21.998|112= TEST #008 CHECK 4 REJECT MSGS with INVALID MESSAGE - INCORRECT DATA TYPE [MsgType:_X, Tag:_277]|10=035|
8=FIXT.1.1|9=122|35=D|49=SNDR|56=TRGT|34=43|52=20100325-10:22:21.998|11=90001008|55=IBM|54=1|60=20080817-10:00:00|38=4000|40=1|1031=ADDDIR|10=133|
8=FIXT.1.1|9=123|35=D|49=SNDR|56=TRGT|34=44|52=20100325-10:22:21.998|11=90001008|55=IBM|54=1|60=20080817-10:00:00|38=4000|40=1|1031=ADD dir|10=007|
8=FIXT.1.1|9=125|35=D|49=SNDR|56=TRGT|34=45|52=20100325-10:22:21.998|11=90001008|55=IBM|54=1|60=20080817-10:00:00|38=4000|40=1|1031=NH SCLTMO|10=106|
8=FIXT.1.1|9=120|35=D|49=SNDR|56=TRGT|34=46|52=20100325-10:22:21.998|11=90001008|55=IBM|54=1|60=20080817-10:00:00|38=4000|40=1|1031=TS *|10=207|
8=FIXT.1.1|9=154|35=1|34=47|49=SNDR|56=TRGT|52=20100325-10:22:21.998|112= TEST #009 CHECK 4 REJECT MSGS with INVALID MESSAGE - INCORRECT DATA TYPE [MsgType:_D, Tag:_1031]|10=059|
8=FIXT.1.1|9=117|35=AR|49=SNDR|56=TRGT|34=48|52=20100325-10:22:21.998|55=TEST|552=1|54=1|768=1|769=20080816-12:31:20|770=1|1035=ADDTS|10=018|
8=FIXT.1.1|9=118|35=AR|49=SNDR|56=TRGT|34=49|52=20100325-10:22:21.998|55=TEST|552=1|54=1|768=1|769=20080816-12:31:20|770=1|1035=ts ADD|10=116|
8=FIXT.1.1|9=121|35=AR|49=SNDR|56=TRGT|34=50|52=20100325-10:22:21.998|55=TEST|552=1|54=1|768=1|769=20080816-12:31:20|770=1|1035=IO MAOMAC|10=252|
8=FIXT.1.1|9=116|35=AR|49=SNDR|56=TRGT|34=51|52=20100325-10:22:21.998|55=TEST|552=1|54=1|768=1|769=20080816-12:31:20|770=1|1035=WRK |10=175|
8=FIXT.1.1|9=155|35=1|34=52|49=SNDR|56=TRGT|52=20100325-10:22:22.014|112= TEST #010 CHECK 4 REJECT MSGS with INVALID MESSAGE - INCORRECT DATA TYPE [MsgType:_AR, Tag:_1035]|10=111|
