8=FIXT.1.1|9=113|35=W|49=SNDR|56=TRGT|34=85|52=20100325-10:22:37.889|55=TESTA|268=2|269=4|270=10|276=A B C|269=5|270=11|276=a b c|10=038|
8=FIXT.1.1|9=121|35=W|49=SNDR|56=TRGT|34=86|52=20100325-10:22:37.889|55=TESTA|268=2|269=4|270=10|276=0 1 2 k l|269=5|270=11|276=2 1 0 z b|10=147|
8=FIXT.1.1|9=125|35=W|49=SNDR|56=TRGT|34=87|52=20100325-10:22:37.889|55=TESTA|268=2|269=4|270=10|276=A A b b c c|269=5|270=11|276=D D D K k k|10=248|
8=FIXT.1.1|9=123|35=W|49=SNDR|56=TRGT|34=88|52=20100325-10:22:37.889|55=TESTA|268=2|269=4|270=10|276=w w v v 0 0|269=5|270=11|276=G G G G G|10=123|
8=FIXT.1.1|9=104|35=1|34=89|49=SNDR|56=TRGT|52=20100325-10:22:37.889|112= TEST #007 -- 4 valid messages MsgType "W"     |10=211|
8=FIXT.1.1|9=129|35=X|49=SNDR|56=TRGT|34=90|52=20100325-10:22:37.889|268=2|279=1|280=0001|270=10|277=A Z a z|279=1|280=0002|270=11|277=a a z z AA|10=083|
8=FIXT.1.1|9=131|35=X|49=SNDR|56=TRGT|34=91|52=20100325-10:22:37.889|268=2|279=1|280=0001|270=10|277=AK AL AM|279=1|280=0002|270=11|277=A K A L A M|10=237|
8=FIXT.1.1|9=136|35=X|49=SNDR|56=TRGT|34=92|52=20100325-10:22:37.889|268=2|279=1|280=0001|270=10|277=0 AT 0 AT AQ|279=1|280=0002|270=11|277=AE AF AG A F|10=253|
8=FIXT.1.1|9=128|35=X|49=SNDR|56=TRGT|34=93|52=20100325-10:22:37.889|268=2|279=1|280=0001|270=10|277=AA a AB|279=1|280=0002|270=11|277=AP AR A T|10=134|
8=FIXT.1.1|9=104|35=1|34=94|49=SNDR|56=TRGT|52=20100325-10:22:37.889|112= TEST #008 -- 4 valid messages MsgType "X"     |10=209|
8=FIXT.1.1|9=126|35=D|49=SNDR|56=TRGT|34=95|52=20100325-10:22:37.889|11=90001008|55=IBM|54=1|60=20080817-10:00:00|38=4000|40=1|1031=E.W TS TMO|10=143|
8=FIXT.1.1|9=127|35=D|49=SNDR|56=TRGT|34=96|52=20100325-10:22:37.889|11=90001008|55=IBM|54=1|60=20080817-10:00:00|38=4000|40=1|1031=ADD DIR DIR|10=183|
8=FIXT.1.1|9=130|35=D|49=SNDR|56=TRGT|34=97|52=20100325-10:22:37.889|11=90001008|55=IBM|54=1|60=20080817-10:00:00|38=4000|40=1|1031=NH SCL TMO TMO|10=163|
8=FIXT.1.1|9=133|35=D|49=SNDR|56=TRGT|34=98|52=20100325-10:22:37.889|11=90001008|55=IBM|54=1|60=20080817-10:00:00|38=4000|40=1|1031=TS LOO LOC LOO TS|10=111|
8=FIXT.1.1|9=104|35=1|34=99|49=SNDR|56=TRGT|52=20100325-10:22:37.889|112= TEST #009 -- 4 valid messages MsgType "D"     |10=195|
8=FIXT.1.1|9=128|35=AR|49=SNDR|56=TRGT|34=100|52=20100325-10:22:37.904|55=TEST|552=1|54=1|768=1|769=20080816-12:31:20|770=1|1035=E.W S.W E.W S.W|10=103|
8=FIXT.1.1|9=123|35=AR|49=SNDR|56=TRGT|34=101|52=20100325-10:22:37.904|55=TEST|552=1|54=1|768=1|769=20080816-12:31:20|770=1|1035=TS OVD MQT|10=129|
8=FIXT.1.1|9=124|35=AR|49=SNDR|56=TRGT|34=102|52=20100325-10:22:37.904|55=TEST|552=1|54=1|768=1|769=20080816-12:31:20|770=1|1035=FOK MAO MAC|10=143|
8=FIXT.1.1|9=124|35=AR|49=SNDR|56=TRGT|34=103|52=20100325-10:22:37.904|55=TEST|552=1|54=1|768=1|769=20080816-12:31:20|770=1|1035=WRK PEG WRK|10=198|
8=FIXT.1.1|9=105|35=1|34=104|49=SNDR|56=TRGT|52=20100325-10:22:37.904|112= TEST #010 -- 4 valid messages MsgType "AR"    |10=002|
