8=FIXT.1.1|9=181|35=s|49=SNDR|56=TRGT|34=54|52=20100325-10:22:30.936|548=90001008|549=1|550=0|552=2|54=1|11=B101010|38=4000|54=2|11=S101010|38=5000|55=TESTA|60=20060217-10:00:00|40=1|18=0 9 A Z a k|10=134|
8=FIXT.1.1|9=181|35=s|49=SNDR|56=TRGT|34=55|52=20100325-10:22:30.936|548=90001008|549=1|550=0|552=2|54=1|11=B101010|38=4000|54=2|11=S101010|38=5000|55=TESTA|60=20060217-10:00:00|40=1|18=k k Z Z 1 1|10=163|
8=FIXT.1.1|9=177|35=s|49=SNDR|56=TRGT|34=56|52=20100325-10:22:30.936|548=90001008|549=1|550=0|552=2|54=1|11=B101010|38=4000|54=2|11=S101010|38=5000|55=TESTA|60=20060217-10:00:00|40=1|18=A B C D|10=135|
8=FIXT.1.1|9=183|35=s|49=SNDR|56=TRGT|34=57|52=20100325-10:22:30.936|548=90001008|549=1|550=0|552=2|54=1|11=B101010|38=4000|54=2|11=S101010|38=5000|55=TESTA|60=20060217-10:00:00|40=1|18=a b c d 1 2 3|10=251|
8=FIXT.1.1|9=104|35=1|34=58|49=SNDR|56=TRGT|52=20100325-10:22:30.936|112= TEST #001 -- 4 valid messages MsgType "s"     |10=215|
8=FIXT.1.1|9=136|35=V|49=SNDR|56=TRGT|34=59|52=20100325-10:22:30.936|262=11223|263=0|264=0|286=0 1 5|267=2|269=0|269=1|146=2|55=TESTA|63=1|55=TESTB|63=1|10=250|
8=FIXT.1.1|9=140|35=V|49=SNDR|56=TRGT|34=60|52=20100325-10:22:30.936|262=11223|263=0|264=0|286=5 4 3 2 1|267=2|269=0|269=1|146=2|55=TESTA|63=1|55=TESTB|63=1|10=150|
8=FIXT.1.1|9=140|35=V|49=SNDR|56=TRGT|34=61|52=20100325-10:22:30.936|262=11223|263=0|264=0|286=1 1 5 5 0|267=2|269=0|269=1|146=2|55=TESTA|63=1|55=TESTB|63=1|10=148|
8=FIXT.1.1|9=142|35=V|49=SNDR|56=TRGT|34=62|52=20100325-10:22:30.936|262=11223|263=0|264=0|286=0 3 0 3 0 3|267=2|269=0|269=1|146=2|55=TESTA|63=1|55=TESTB|63=1|10=228|
8=FIXT.1.1|9=104|35=1|34=63|49=SNDR|56=TRGT|52=20100325-10:22:30.936|112= TEST #002 -- 4 valid messages MsgType "V"     |10=183|
8=FIXT.1.1|9=71|35=f|49=SNDR|56=TRGT|34=64|52=20100325-10:22:30.951|55=TESTB|291=1 2 3|10=215|
8=FIXT.1.1|9=71|35=f|49=SNDR|56=TRGT|34=65|52=20100325-10:22:30.951|55=TESTB|291=3 2 1|10=216|
8=FIXT.1.1|9=77|35=f|49=SNDR|56=TRGT|34=66|52=20100325-10:22:30.951|55=TESTB|291=1 1 2 2 3 3|10=213|
8=FIXT.1.1|9=77|35=f|49=SNDR|56=TRGT|34=67|52=20100325-10:22:30.951|55=TESTB|291=2 2 2 1 1 1|10=211|
8=FIXT.1.1|9=104|35=1|34=68|49=SNDR|56=TRGT|52=20100325-10:22:30.951|112= TEST #003 -- 4 valid messages MsgType "f"     |10=202|
8=FIXT.1.1|9=69|35=f|49=SNDR|56=TRGT|34=69|52=20100325-10:22:30.951|55=TESTB|292=A V|10=197|
8=FIXT.1.1|9=75|35=f|49=SNDR|56=TRGT|34=70|52=20100325-10:22:30.951|55=TESTB|292=V A I J K|10=248|
8=FIXT.1.1|9=73|35=f|49=SNDR|56=TRGT|34=71|52=20100325-10:22:30.951|55=TESTB|292=A B B B|10=105|
8=FIXT.1.1|9=77|35=f|49=SNDR|56=TRGT|34=72|52=20100325-10:22:30.951|55=TESTB|292=G G L L M M|10=103|
8=FIXT.1.1|9=104|35=1|34=73|49=SNDR|56=TRGT|52=20100325-10:22:30.951|112= TEST #004 -- 4 valid messages MsgType "f"     |10=199|
8=FIXT.1.1|9=255|35=AK|49=SNDR|56=TRGT|34=74|52=20100325-10:22:30.951|664=0001|666=0|773=1|665=4|60=20060217-10:00:00|75=20060217|711=1|311=TST311|555=1|600=TST600|55=TESTA|80=1000|54=1|862=2|528=A|529=1 A 9|863=400|528=P|529=8|863=600|79=KTierney|6=20|381=20000|118=2000|10=219|
8=FIXT.1.1|9=259|35=AK|49=SNDR|56=TRGT|34=75|52=20100325-10:22:30.951|664=0001|666=0|773=1|665=4|60=20060217-10:00:00|75=20060217|711=1|311=TST311|555=1|600=TST600|55=TESTA|80=1000|54=1|862=2|528=A|529=9 8 7 6 1|863=400|528=P|529=8|863=600|79=KTierney|6=20|381=20000|118=2000|10=132|
8=FIXT.1.1|9=261|35=AK|49=SNDR|56=TRGT|34=76|52=20100325-10:22:30.951|664=0001|666=0|773=1|665=4|60=20060217-10:00:00|75=20060217|711=1|311=TST311|555=1|600=TST600|55=TESTA|80=1000|54=1|862=2|528=A|529=5 5 5 9 9 9|863=400|528=P|529=8|863=600|79=KTierney|6=20|381=20000|118=2000|10=217|
8=FIXT.1.1|9=259|35=AK|49=SNDR|56=TRGT|34=77|52=20100325-10:22:30.951|664=0001|666=0|773=1|665=4|60=20060217-10:00:00|75=20060217|711=1|311=TST311|555=1|600=TST600|55=TESTA|80=1000|54=1|862=2|528=A|529=4 4 7 7 7|863=400|528=P|529=8|863=600|79=KTierney|6=20|381=20000|118=2000|10=132|
8=FIXT.1.1|9=104|35=1|34=78|49=SNDR|56=TRGT|52=20100325-10:22:30.951|112= TEST #005 -- 4 valid messages MsgType "AK"    |10=211|
8=FIXT.1.1|9=136|35=V|49=SNDR|56=TRGT|34=79|52=20100325-10:22:30.951|262=11223|263=0|264=0|546=1 2 3|267=2|269=0|269=1|146=2|55=TESTA|63=1|55=TESTB|63=1|10=248|
8=FIXT.1.1|9=136|35=V|49=SNDR|56=TRGT|34=80|52=20100325-10:22:30.951|262=11223|263=0|264=0|546=3 2 1|267=2|269=0|269=1|146=2|55=TESTA|63=1|55=TESTB|63=1|10=240|
8=FIXT.1.1|9=142|35=V|49=SNDR|56=TRGT|34=81|52=20100325-10:22:30.951|262=11223|263=0|264=0|546=1 1 2 2 3 3|267=2|269=0|269=1|146=2|55=TESTA|63=1|55=TESTB|63=1|10=228|
8=FIXT.1.1|9=142|35=V|49=SNDR|56=TRGT|34=82|52=20100325-10:22:30.951|262=11223|263=0|264=0|546=2 2 2 1 1 1|267=2|269=0|269=1|146=2|55=TESTA|63=1|55=TESTB|63=1|10=226|
8=FIXT.1.1|9=104|35=1|34=83|49=SNDR|56=TRGT|52=20100325-10:22:30.951|112= TEST #006 -- 4 valid messages MsgType "V"     |10=186|
