<?xml version="1.0" encoding="UTF-8"?>
<!DOCTYPE cases SYSTEM "misc/cases.dtd" [
        <!ENTITY % content SYSTEM "misc/entity/definitions.inc">
        %content; ]>
<cases>


    <case name="logon with seq number higher than expected">
        &CLEAN_LOGS;
        &ENGINE_UP_WITH_APP;

        <transport className="InitiatorSocketTransport" host="localhost" port="3000">

            <send>8=FIX.4.4#9=65#35=A#49=SNDR#56=TRGT#34=2#52=20081225-18:32:15#98=0#108=30#141=Y#10=224#</send>
            <expect>
                8=FIX\.4\.4#9=\d{1,3}#35=A#34=1#49=TRGT#52=\d{8}-\d{2}:\d{2}:\d{2}(\.\d{3})?#141=Y#56=SNDR#98=0#108=30#10=\d{3}#
            </expect>
            <expect>35=2</expect>
            <send>
                8=FIX.4.4#9=81#35=4#49=SNDR#56=TRGT#34=1#43=Y#52=20090729-11:08:20#122=20090729-11:08:20#123=Y#36=2#10=151#
            </send>

            <send>8=FIX.4.4#9=57#35=1#49=SNDR#56=TRGT#34=2#52=20031027-14:29:11#112=test01#10=126#</send>
            <expect>35=0</expect>

        </transport>
        &ENGINE_DOWN;
    </case>

</cases>