<?xml version="1.0" encoding="UTF-8"?>
<!DOCTYPE cases SYSTEM "misc/cases.dtd" [
        <!ENTITY % content SYSTEM "misc/entity/definitions.inc">
        %content; ]>
<cases>
    <case name="resetFlag.def">
        &CLEAN_LOGS;
        &ENGINE_UP;

        <transport className="InitiatorSocketTransport" host="localhost" port="3000">

            <send>8=FIX.4.4#9=123#35=A#34=1#49=TW#52=20031027-14:29:11#56=ISLD#98=0#108=0#141=Y#10=000#</send>
            <expect>
                8=FIX\.4\.4#9=\d{1,3}#35=A#34=1#49=ISLD#52=\d{8}-\d{2}:\d{2}:\d{2}(\.\d{3})?#141=Y#56=TW#98=0#108=0#10=\d{3}#
            </expect>


            <send updater="DefaultUpdater">
                8=FIX.4.4#9=209#35=AK#49=TW#56=ISLD#34=2#50=30737#52=20030204-08:46:14#664=0001#666=0#773=1#665=4#60=20060217-10:00:00#75=20060217#55=TESTA#80=1000#54=1#862=2#528=A#863=400#528=P#863=600#79=KTierney#6=20#381=20000#118=2000#10=125
            </send>
            <send>8=FIX.4.4#9=123#35=1#34=2#49=TW#52=20031027-14:29:11#56=ISLD#112=TEST#10=000#</send>
            <send>8=FIX.4.4#9=123#35=1#34=2#49=TW#52=20031027-14:29:11#56=ISLD#112=TEST#10=000#</send>
            <expect>35=0#112=TEST</expect>
        </transport>
        &ENGINE_DOWN;
    </case>


    <case name="108 is missing .def">
        &CLEAN_LOGS;
        &ENGINE_UP;

        <transport className="InitiatorSocketTransport" host="localhost" port="3000">

            <send>8=FIX.4.4#9=123#35=A#34=1#49=TW#52=20031027-14:29:11#56=ISLD#98=0#141=Y#10=000#</send>
            <expect>35=3</expect>
            <expect>35=5</expect>
        </transport>
        &ENGINE_DOWN;
    </case>


    <case name="108 is negative .def">
        &CLEAN_LOGS;
        &ENGINE_UP;

        <transport className="InitiatorSocketTransport" host="localhost" port="3000">

            <send>8=FIX.4.4#9=123#35=A#34=1#49=TW#52=20031027-14:29:11#56=ISLD#98=0#108=-1#141=Y#10=000#</send>
            <expect>35=3</expect>
            <expect>35=5</expect>
        </transport>
        &ENGINE_DOWN;
    </case>


    <case name="logout has incorrect sequence number.def">
        &CLEAN_LOGS;
        &ENGINE_UP;

        <transport className="InitiatorSocketTransport" host="localhost" port="3000">

            <send>8=FIX.4.4#9=123#35=A#34=1#49=TW#52=20031027-14:29:11#56=ISLD#98=0#108=10#141=Y#10=000#</send>
            <expect>
                8=FIX\.4\.4#9=\d{1,3}#35=A#34=1#49=ISLD#52=\d{8}-\d{2}:\d{2}:\d{2}(\.\d{3})?#141=Y#56=TW#98=0#108=10#10=\d{3}#
            </expect>

            <send>8=FIX.4.4#9=123#35=0#34=2#49=TW#52=20031027-14:29:11#56=ISLD#10=000124=5</send>
            <expect>35=0</expect>
            <expect>35=1</expect>
            <expect>35=5</expect>
            <send>8=FIX.4.4#9=123#35=5#34=3#49=TW#52=20031027-14:29:11#56=ISLD#10=000#</send>
            <expect/>
        </transport>
        s
        &ENGINE_DOWN;
    </case>
</cases>
