<?xml version="1.0" encoding="UTF-8"?>

<!DOCTYPE cases SYSTEM "../../../cases.dtd" [
        <!ENTITY % content SYSTEM "../../../Engine/Entities/definitions.inc">
        %content; ]>

<cases>
    <case name="ResendRequest after high incoming seq" updater="SmartLazyUpdater">
        &CLEAN_LOGS;
        &ENGINE_UP;
        <transport className="AcceptorSocketTransport" port="&PORT;">
            &SESSION_UP;
            &RECEIVE_LOGON;
            <send>8=FIX.4.2#9=0#35=A#49=&ME;#56=&YOU;#34=1#52=00000000-00:00:00#98=0#108=5#10=000#</send>

            <send>8=FIX.4.2#9=0#35=0#49=&ME;#56=&YOU;#34=3#52=00000000-00:00:00#10=000#</send>
            <expect>8=FIX\.4\.2#9=\d*#35=2#34=\d*#49=&YOU;#56=&ME;#52=&DATETIMEMS;#7=2#16=0#10=\d{3}#</expect>

            <send>8=FIX.4.2#9=85#35=4#49=&ME;#56=&YOU;#34=2#43=Y#52=00000000-00:00:00#122=00000000-00:00:00#123=Y#36=4#10=000#</send>

            <send>8=FIX.4.2#9=0#35=0#49=&ME;#56=&YOU;#34=4#52=00000000-00:00:00#10=000#</send>
            <expect>8=FIX\.4\.2#9=\d*#35=0#34=3#49=&YOU;#56=&ME;#52=&DATETIMEMS;#10=\d{3}#</expect>

            <!-- logout -->
            <send>8=FIX.4.2#9=136#35=5#49=&ME;#56=&YOU;#34=4#52=20031027-14:29:11#10=213#</send>
            &SESSION_DOWN;
        </transport>
        &ENGINE_DOWN;
    </case>
</cases>
