<?xml version="1.0" encoding="UTF-8"?>

<!DOCTYPE cases SYSTEM "../../../cases.dtd" [
        <!ENTITY % content SYSTEM "../../../Engine/Entities/definitions.inc">
        %content; ]>

<cases>
    <case name="Send RR with invalid 7 and 16 tags" updater="SmartLazyUpdater">
        &CLEAN_LOGS;
        &ENGINE_UP;
        <transport className="AcceptorSocketTransport" port="&PORT;">
            &SESSION_UP;
            &RECEIVE_LOGON;
            <send>8=FIX.4.2#9=0#35=A#49=&ME;#56=&YOU;#34=1#52=00000000-00:00:00#98=0#108=5#10=000#</send>

            <send>8=FIX.4.2#9=123#35=2#49=&ME;#34=2#56=&YOU;#52=00000000-00:00:00#7=12#16=@#10=000#</send>
            <expect>8=FIX\.4\.2#9=\d{1,3}#35=3#34=2#49=&YOU;#52=\d{8}-\d{2}:\d{2}:\d{2}(\.\d{3})?#56=&ME;#10=\d{3}#</expect>

            <send>8=FIX.4.2#9=123#35=3#49=&ME;#34=3#56=&YOU;#52=00000000-00:00:00#7=$#16=3#10=000#</send>
            <expect>8=FIX\.4\.2#9=\d{1,3}#35=3#34=3#49=&YOU;#52=\d{8}-\d{2}:\d{2}:\d{2}(\.\d{3})?#56=&ME;#10=\d{3}#</expect>

            <!-- logout -->
            <send>8=FIX.4.2#9=136#35=5#49=&ME;#56=&YOU;#34=4#52=00000000-00:00:00#10=213#</send>
            <expect>8=FIX\.4\.2#9=\d{1,3}#35=5#34=4#49=&YOU;#52=\d{8}-\d{2}:\d{2}:\d{2}(\.\d{3})?#56=&ME;#10=\d{3}#</expect>
            &SESSION_DOWN;
        </transport>
        &ENGINE_DOWN;
    </case>
</cases>
