<?xml version="1.0" encoding="UTF-8"?>
<!DOCTYPE cases SYSTEM "../../../cases.dtd" [
        <!ENTITY % content SYSTEM "../../../Engine/Entities/definitions.inc">
        %content; ]>
<cases>
    <case name="bug16337">
        &CLEAN_LOGS;
        &ENGINE_UP_WITH_ECHO_APP;


        <transport className="InitiatorSocketTransport" host="localhost" port="3000">

            <send>8=FIX.4.4#9=123#35=A#34=1#49=TW#52=20031027-14:29:11#56=ISLD#98=0#108=5#10=000#</send>
            <expect>
                8=FIX\.4\.4#9=\d{1,3}#35=A#34=1#49=ISLD#52=\d{8}-\d{2}:\d{2}:\d{2}(\.\d{3})?#56=TW#10=\d{3}#
            </expect>

            <send>8=FIX.4.4#9=0#35=0#34=2#49=TW#52=20031027-14:29:11#56=ISLD#10=000#</send>
            <expect>
                8=FIX\.4\.4#9=\d{1,3}#35=0#34=2#49=ISLD#52=\d{8}-\d{2}:\d{2}:\d{2}(\.\d{3})?#56=TW#10=\d{3}#
            </expect>

            <send>8=FIX.4.4#9=0#35=0#34=3#49=TW#52=20031027-14:29:11#56=ISLD#10=000#</send>
            <expect>
                8=FIX\.4\.4#9=\d{1,3}#35=0#34=3#49=ISLD#52=\d{8}-\d{2}:\d{2}:\d{2}(\.\d{3})?#56=TW#10=\d{3}#
            </expect>

            <send>8=FIX.4.4#9=0#35=0#34=4#49=TW#52=20031027-14:29:11#56=ISLD#10=000#</send>
            <expect>
                8=FIX\.4\.4#9=\d{1,3}#35=0#34=4#49=ISLD#52=\d{8}-\d{2}:\d{2}:\d{2}(\.\d{3})?#56=TW#10=\d{3}#
            </expect>

            <send>8=FIX.4.4#9=0#35=6#34=5#49=TW#56=ISLD#52=20101111-11:46:33.755#23=24#28=N#55=IBM#54=2#27=M#10=000#
            </send>
            <expect>
                8=FIX\.4\.4#9=\d{1,3}#35=6#34=5#49=ISLD#52=\d{8}-\d{2}:\d{2}:\d{2}(\.\d{3})?#56=TW#10=\d{3}#
            </expect>

            <send>8=FIX.4.4#9=0#35=0#34=6#49=TW#52=20031027-14:29:11#56=ISLD#10=000#</send>
            <expect>
                8=FIX\.4\.4#9=\d{1,3}#35=0#34=6#49=ISLD#52=\d{8}-\d{2}:\d{2}:\d{2}(\.\d{3})?#56=TW#10=\d{3}#
            </expect>

            <send>8=FIX.4.4#9=0#35=0#34=7#49=TW#52=20031027-14:29:11#56=ISLD#10=000#</send>
            <expect>
                8=FIX\.4\.4#9=\d{1,3}#35=0#34=7#49=ISLD#52=\d{8}-\d{2}:\d{2}:\d{2}(\.\d{3})?#56=TW#10=\d{3}#
            </expect>

            <send>8=FIX.4.4#9=0#35=0#34=8#49=TW#52=20031027-14:29:11#56=ISLD#10=000#</send>
            <expect>
                8=FIX\.4\.4#9=\d{1,3}#35=0#34=8#49=ISLD#52=\d{8}-\d{2}:\d{2}:\d{2}(\.\d{3})?#56=TW#10=\d{3}#
            </expect>

            <send>8=FIX.4.4#9=0#35=2#34=9#49=TW#52=20031027-14:29:11#56=ISLD#7=1#16=0#10=000#</send>
            <expect>
                8=FIX\.4\.4#9=\d{1,3}#35=4#34=1#49=ISLD#52=\d{8}-\d{2}:\d{2}:\d{2}(\.\d{3})?#56=TW#36=5#10=\d{3}#
            </expect>

            <expect>
                8=FIX\.4\.4#9=\d{1,3}#35=6#34=5#49=ISLD#52=\d{8}-\d{2}:\d{2}:\d{2}(\.\d{3})?#56=TW#10=\d{3}#
            </expect>

            <expect>
                8=FIX\.4\.4#9=\d{1,3}#35=4#34=6#49=ISLD#52=\d{8}-\d{2}:\d{2}:\d{2}(\.\d{3})?#56=TW#36=9#10=\d{3}#
            </expect>
        </transport>
        &ENGINE_DOWN;
    </case>
</cases>
