8=FIX.4.2|9=290|35=4|49=STRING|56=STRING|115=STRING|128=STRING|90=1|91=D|34=1|50=STRING|142=STRING|57=STRING|143=STRING|116=STRING|144=STRING|129=STRING|145=STRING|43=Y|97=Y|52=20010101-01:01:01.001|122=20010101-01:01:01.001|212=1|213=D|347=ISO-2022-JP|369=1|370=20010101-01:01:01.001|123=Y|36=1|93=1|89=D|10=000|