8=FIX.4.2|9=128|35=D|49=SNDR|56=TRGT|34=2|52=20030204-08:46:14|11=90001008|78=1|21=2|55=TESTB|54=1|60=20060217-10:00:00|38=4000|40=1|10=071|
8=FIX.4.2|9=140|35=1|34=104|49=SNDR|56=TRGT|52=20090407-09:48:19.812|112=  CHECK REJECT MSG with INVALID MESSAGE - REQUIRED TAG MISSING [MsgType:_D, Tag:_79]|10=018|
8=FIX.4.2|9=128|35=D|49=SNDR|56=TRGT|34=2|52=20030204-08:46:14|11=90001008|63=8|21=2|55=TESTB|54=1|60=20060217-10:00:00|38=4000|40=1|10=071|
8=FIX.4.2|9=140|35=1|34=104|49=SNDR|56=TRGT|52=20090407-09:48:19.812|112=  CHECK REJECT MSG with INVALID MESSAGE - REQUIRED TAG MISSING [MsgType:_D, Tag:_64]|10=018|
8=FIX.4.2|9=128|35=D|49=SNDR|56=TRGT|34=2|52=20030204-08:46:14|11=90001008|386=1|21=2|55=TESTB|54=1|60=20060217-10:00:00|38=4000|40=1|10=071|
8=FIX.4.2|9=140|35=1|34=104|49=SNDR|56=TRGT|52=20090407-09:48:19.812|112=  CHECK REJECT MSG with INVALID MESSAGE - REQUIRED TAG MISSING [MsgType:_D, Tag:_336]|10=018|
8=FIX.4.2|9=149|35=E|49=SNDR|56=TRGT|34=2|52=20030204-08:18:22|66=20012411|394=3|68=1|73=1|11=1131|67=1|55=TESTB3|54=1|10=031|
8=FIX.4.2|9=140|35=1|34=104|49=SNDR|56=TRGT|52=20090407-09:48:19.812|112=  CHECK REJECT MSG with INVALID MESSAGE - REQUIRED TAG MISSING [MsgType:_E, Tag:_38]|10=018|
8=FIX.4.2|9=149|35=E|49=SNDR|56=TRGT|34=2|52=20030204-08:18:22|66=20012411|394=3|68=1|73=1|11=1131|67=1|55=TESTB3|54=1|38=3000|59=6|10=031|
8=FIX.4.2|9=140|35=1|34=104|49=SNDR|56=TRGT|52=20090407-09:48:19.812|112=  CHECK REJECT MSG with INVALID MESSAGE - REQUIRED TAG MISSING [MsgType:_E, Tag:_432]|10=018|
8=FIX.4.2|9=149|35=E|49=SNDR|56=TRGT|34=2|52=20030204-08:18:22|66=20012411|394=3|68=1|73=1|11=1131|67=1|55=TESTB3|54=1|38=3000|389=0.1|10=031|
8=FIX.4.2|9=140|35=1|34=104|49=SNDR|56=TRGT|52=20090407-09:48:19.812|112=  CHECK REJECT MSG with INVALID MESSAGE - REQUIRED TAG MISSING [MsgType:_E, Tag:_388]|10=018|
