8=FIX.4.2|9=81|35=6|49=SNDR|56=TRGT|34=2|52=20030203-16:10:01|23=24|28=C|55=TESTB|54=1|27=S|10=102|
8=FIX.4.2|9=140|35=1|34=104|49=SNDR|56=TRGT|52=20090407-09:48:19.812|112=  CHECK REJECT MSG with INVALID MESSAGE - REQUIRED TAG MISSING [MsgType:_6, Tag:_26]|10=018|
8=FIX.4.2|9=83|35=7|49=SNDR|56=TRGT|34=2|52=20030203-16:02:35|2=20|5=R|55=TESTB|4=T|53=1000000|10=192|
8=FIX.4.2|9=140|35=1|34=104|49=SNDR|56=TRGT|52=20090407-09:48:19.812|112=  CHECK REJECT MSG with INVALID MESSAGE - REQUIRED TAG MISSING [MsgType:_7, Tag:_3]|10=018|
8=FIX.4.2|9=125|35=8|49=SNDR|56=TRGT|34=2|52=20030203-16:09:30|37=11111111|17=12|20=3|39=0|150=4|55=TESTB|54=1|38=1000|151=1000|14=0|6=0|10=011|
8=FIX.4.2|9=140|35=1|34=104|49=SNDR|56=TRGT|52=20090407-09:48:19.812|112=  CHECK REJECT MSG with INVALID MESSAGE - REQUIRED TAG MISSING [MsgType:_8, Tag:_41]|10=018|
8=FIX.4.2|9=125|35=8|49=SNDR|56=TRGT|34=2|52=20030203-16:09:30|37=11111111|17=12|20=2|39=0|150=0|55=TESTB|54=1|38=1000|151=1000|14=0|6=0|10=011|
8=FIX.4.2|9=140|35=1|34=104|49=SNDR|56=TRGT|52=20090407-09:48:19.812|112=  CHECK REJECT MSG with INVALID MESSAGE - REQUIRED TAG MISSING [MsgType:_8, Tag:_19]|10=018|
8=FIX.4.2|9=125|35=8|49=SNDR|56=TRGT|34=2|52=20030203-16:09:30|37=11111111|17=12|20=3|39=0|150=D|55=TESTB|54=1|38=1000|151=1000|14=0|6=0|10=011|
8=FIX.4.2|9=140|35=1|34=104|49=SNDR|56=TRGT|52=20090407-09:48:19.812|112=  CHECK REJECT MSG with INVALID MESSAGE - REQUIRED TAG MISSING [MsgType:_8, Tag:_378]|10=018|
