8=FIX.4.2|9=116|35=F|49=SNDR|56=TRGT|34=2|52=20030204-08:46:38|41=90001008|11=16161516|55=TESTB|54=1|60=20060117-10:00:00|10=058|
8=FIX.4.2|9=140|35=1|34=104|49=SNDR|56=TRGT|52=20090407-09:48:19.812|112=  CHECK REJECT MSG with INVALID MESSAGE - REQUIRED TAG MISSING [MsgType:_F, Tag:_38]|10=018|
8=FIX.4.2|9=116|35=F|49=SNDR|56=TRGT|34=2|52=20030204-08:46:38|41=90001008|11=16161516|55=TESTB|348=10|54=1|60=20060117-10:00:00|38=4000|10=058|
8=FIX.4.2|9=140|35=1|34=104|49=SNDR|56=TRGT|52=20090407-09:48:19.812|112=  CHECK REJECT MSG with INVALID MESSAGE - REQUIRED TAG MISSING [MsgType:_F, Tag:_349]|10=018|
8=FIX.4.2|9=116|35=F|49=SNDR|56=TRGT|34=2|52=20030204-08:46:38|41=90001008|11=16161516|55=TESTB|350=10|54=1|60=20060117-10:00:00|38=4000|10=058|
8=FIX.4.2|9=140|35=1|34=104|49=SNDR|56=TRGT|52=20090407-09:48:19.812|112=  CHECK REJECT MSG with INVALID MESSAGE - REQUIRED TAG MISSING [MsgType:_F, Tag:_351]|10=018|
8=FIX.4.2|9=126|35=G|49=SNDR|56=TRGT|34=2|52=20030204-08:49:18|11=12233345|41=90001008|21=2|55=TESTB|54=1|60=20060117-10:00:00|38=4000|40=2|10=220|
8=FIX.4.2|9=140|35=1|34=104|49=SNDR|56=TRGT|52=20090407-09:48:19.812|112=  CHECK REJECT MSG with INVALID MESSAGE - REQUIRED TAG MISSING [MsgType:_G, Tag:_44]|10=018|
8=FIX.4.2|9=126|35=G|49=SNDR|56=TRGT|34=2|52=20030204-08:49:18|11=12233345|41=90001008|21=2|55=TESTB|54=1|60=20060117-10:00:00|38=4000|40=4|44=10|10=220|
8=FIX.4.2|9=140|35=1|34=104|49=SNDR|56=TRGT|52=20090407-09:48:19.812|112=  CHECK REJECT MSG with INVALID MESSAGE - REQUIRED TAG MISSING [MsgType:_G, Tag:_99]|10=018|
8=FIX.4.2|9=126|35=G|49=SNDR|56=TRGT|34=2|52=20030204-08:49:18|11=12233345|41=90001008|21=2|55=TESTB|54=1|60=20060117-10:00:00|38=4000|40=1|121=Y|10=220|
8=FIX.4.2|9=140|35=1|34=104|49=SNDR|56=TRGT|52=20090407-09:48:19.812|112=  CHECK REJECT MSG with INVALID MESSAGE - REQUIRED TAG MISSING [MsgType:_G, Tag:_120]|10=018|
