8=FIX.4.2|9=219|35=N|49=SNDR|56=TRGT|34=2|52=20030204-09:08:23|66=20012411|429=1|82=3|431=3|83=1|445=10|68=5|73=3|11=1111|14=11|39=1|151=89|84=0|6=12|11=1121|14=1000|39=1|151=500|84=1000|6=2.28|11=1131|14=2500|39=1|151=500|84=1500|6=34.11|10=053|
8=FIX.4.2|9=140|35=1|34=104|49=SNDR|56=TRGT|52=20090407-09:48:19.812|112=  CHECK REJECT MSG with INVALID MESSAGE - REQUIRED TAG MISSING [MsgType:_N, Tag:_446]|10=018|
8=FIX.4.2|9=80|35=P|49=SNDR|56=TRGT|34=2|52=20030204-09:17:25|70=3659000001|75=20030808|87=1|10=240|
8=FIX.4.2|9=140|35=1|34=104|49=SNDR|56=TRGT|52=20090407-09:48:19.812|112=  CHECK REJECT MSG with INVALID MESSAGE - REQUIRED TAG MISSING [MsgType:_P, Tag:_88]|10=018|
8=FIX.4.2|9=95|35=Q|49=SNDR|56=TRGT|34=2|52=20030204-09:28:44|37=01923883|17=11|127=D|55=TESTB|167=FUT|54=1|38=4000|10=027|
8=FIX.4.2|9=140|35=1|34=104|49=SNDR|56=TRGT|52=20090407-09:48:19.812|112=  CHECK REJECT MSG with INVALID MESSAGE - REQUIRED TAG MISSING [MsgType:_Q, Tag:_200]|10=018|
8=FIX.4.2|9=95|35=Q|49=SNDR|56=TRGT|34=2|52=20030204-09:28:44|37=01923883|17=11|127=D|55=TESTB|205=31|54=1|38=4000|10=027|
8=FIX.4.2|9=140|35=1|34=104|49=SNDR|56=TRGT|52=20090407-09:48:19.812|112=  CHECK REJECT MSG with INVALID MESSAGE - REQUIRED TAG MISSING [MsgType:_Q, Tag:_200]|10=018|
8=FIX.4.2|9=95|35=Q|49=SNDR|56=TRGT|34=2|52=20030204-09:28:44|37=01923883|17=11|127=D|55=TESTB|167=OPT|200=200302|54=1|38=4000|10=027|
8=FIX.4.2|9=140|35=1|34=104|49=SNDR|56=TRGT|52=20090407-09:48:19.812|112=  CHECK REJECT MSG with INVALID MESSAGE - REQUIRED TAG MISSING [MsgType:_Q, Tag:_201]|10=018|
8=FIX.4.2|9=95|35=Q|49=SNDR|56=TRGT|34=2|52=20030204-09:28:44|37=01923883|17=11|127=D|55=TESTB|54=1|10=027|
8=FIX.4.2|9=140|35=1|34=104|49=SNDR|56=TRGT|52=20090407-09:48:19.812|112=  CHECK REJECT MSG with INVALID MESSAGE - REQUIRED TAG MISSING [MsgType:_Q, Tag:_38]|10=018|
