8=FIX.4.4|9=138|35=AB|49=SNDR|56=TRGT|34=3|52=20090331-09:27:52.151|11=90001008|54=1|55=TESTB|555=2|600=TESTA|600=TESTC|38=4000|40=2|60=20060117-10:00:00|10=253|
8=FIX.4.4|9=140|35=1|34=104|49=SNDR|56=TRGT|52=20090407-09:48:19.812|112=         CHECK REJECT MSG with INVALID MESSAGE - REQUIRED TAG MISSING [MsgType:_AB, Tag:_44]|10=018|
8=FIX.4.4|9=138|35=AB|49=SNDR|56=TRGT|34=3|52=20090331-09:27:52.151|11=90001008|54=1|55=TESTB|555=2|600=TESTA|600=TESTC|38=4000|40=4|44=10|60=20060117-10:00:00|10=253|
8=FIX.4.4|9=140|35=1|34=104|49=SNDR|56=TRGT|52=20090407-09:48:19.812|112=         CHECK REJECT MSG with INVALID MESSAGE - REQUIRED TAG MISSING [MsgType:_AB, Tag:_99]|10=018|
8=FIX.4.4|9=138|35=AB|49=SNDR|56=TRGT|34=3|52=20090331-09:27:52.151|11=90001008|54=1|55=TESTB|555=2|600=TESTA|600=TESTC|38=4000|40=E|60=20060117-10:00:00|10=253|
8=FIX.4.4|9=140|35=1|34=104|49=SNDR|56=TRGT|52=20090407-09:48:19.812|112=         CHECK REJECT MSG with INVALID MESSAGE - REQUIRED TAG MISSING [MsgType:_AB, Tag:_23]|10=018|
8=FIX.4.4|9=138|35=AB|49=SNDR|56=TRGT|34=3|52=20090331-09:27:52.151|11=90001008|54=1|55=TESTB|555=2|600=TESTA|600=TESTC|38=4000|40=D|60=20060117-10:00:00|10=253|
8=FIX.4.4|9=140|35=1|34=104|49=SNDR|56=TRGT|52=20090407-09:48:19.812|112=         CHECK REJECT MSG with INVALID MESSAGE - REQUIRED TAG MISSING [MsgType:_AB, Tag:_117]|10=018|
8=FIX.4.4|9=138|35=AB|49=SNDR|56=TRGT|34=3|52=20090331-09:27:52.151|11=90001008|54=1|55=TESTB|555=2|600=TESTA|600=TESTC|38=4000|40=1|847=2|60=20060117-10:00:00|10=253|
8=FIX.4.4|9=140|35=1|34=104|49=SNDR|56=TRGT|52=20090407-09:48:19.812|112=         CHECK REJECT MSG with INVALID MESSAGE - REQUIRED TAG MISSING [MsgType:_AB, Tag:_849]|10=018|
8=FIX.4.4|9=150|35=AC|49=SNDR|56=TRGT|34=4|52=20090331-09:27:52.151|11=90001008|41=93452234|63=6|54=1|55=TESTB|555=2|600=TESTA|600=TESTC|60=20060217-10:00:00|38=4000|40=1|10=061|
8=FIX.4.4|9=140|35=1|34=104|49=SNDR|56=TRGT|52=20090407-09:48:19.812|112=         CHECK REJECT MSG with INVALID MESSAGE - REQUIRED TAG MISSING [MsgType:_AC, Tag:_64]|10=018|
8=FIX.4.4|9=150|35=AC|49=SNDR|56=TRGT|34=4|52=20090331-09:27:52.151|11=90001008|41=93452234|54=1|55=TESTB|555=2|600=TESTA|600=TESTC|587=6|60=20060217-10:00:00|38=4000|40=1|10=061|
8=FIX.4.4|9=140|35=1|34=104|49=SNDR|56=TRGT|52=20090407-09:48:19.812|112=         CHECK REJECT MSG with INVALID MESSAGE - REQUIRED TAG MISSING [MsgType:_AC, Tag:_588]|10=018|
8=FIX.4.4|9=167|35=AE|49=SNDR|56=TRGT|34=6|52=20090331-09:27:52.151|571=90001008|150=F|570=N|55=TESTA|48=00048|32=1000|31=10.4|75=20060217|60=20060217-10:00:00|552=2|54=1|37=0001|54=2|37=0002|10=068|
8=FIX.4.4|9=140|35=1|34=104|49=SNDR|56=TRGT|52=20090407-09:48:19.812|112=         CHECK REJECT MSG with INVALID MESSAGE - REQUIRED TAG MISSING [MsgType:_AE, Tag:_22]|10=018|
8=FIX.4.4|9=92|35=AJ|49=SNDR|56=TRGT|34=11|52=20090331-09:27:52.151|693=0001|694=1|55=IBM|38=4000|132=10.5|10=026|
8=FIX.4.4|9=140|35=1|34=104|49=SNDR|56=TRGT|52=20090407-09:48:19.812|112=         CHECK REJECT MSG with INVALID MESSAGE - REQUIRED TAG MISSING [MsgType:_AJ, Tag:_11]|10=018|
8=FIX.4.4|9=92|35=AJ|49=SNDR|56=TRGT|34=11|52=20090331-09:27:52.151|693=0001|694=2|55=IBM|38=4000|132=10.5|10=026|
8=FIX.4.4|9=140|35=1|34=104|49=SNDR|56=TRGT|52=20090407-09:48:19.812|112=         CHECK REJECT MSG with INVALID MESSAGE - REQUIRED TAG MISSING [MsgType:_AJ, Tag:_11]|10=018|
8=FIX.4.4|9=205|35=AK|49=SNDR|56=TRGT|34=12|52=20090331-09:27:52.151|664=0001|666=1|773=1|665=4|60=20060217-10:00:00|75=20060217|55=TESTA|80=1000|54=1|862=2|528=A|863=400|528=P|863=600|79=KTierney|6=20|381=20000|118=2000|10=209|
8=FIX.4.4|9=140|35=1|34=104|49=SNDR|56=TRGT|52=20090407-09:48:19.812|112=         CHECK REJECT MSG with INVALID MESSAGE - REQUIRED TAG MISSING [MsgType:_AK, Tag:_772]|10=018|
8=FIX.4.4|9=205|35=AK|49=SNDR|56=TRGT|34=12|52=20090331-09:27:52.151|664=0001|666=2|773=1|665=4|60=20060217-10:00:00|75=20060217|55=TESTA|80=1000|54=1|862=2|528=A|863=400|528=P|863=600|79=KTierney|6=20|381=20000|118=2000|10=209|
8=FIX.4.4|9=140|35=1|34=104|49=SNDR|56=TRGT|52=20090407-09:48:19.812|112=         CHECK REJECT MSG with INVALID MESSAGE - REQUIRED TAG MISSING [MsgType:_AK, Tag:_772]|10=018|
