8=FIX.4.4|9=81|35=6|49=SNDR|56=TRGT|34=2|52=20090331-09:08:20.372|23=24|28=C|55=TESTB|54=1|27=S|10=080|
8=FIX.4.4|9=140|35=1|34=104|49=SNDR|56=TRGT|52=20090407-09:48:19.812|112=         CHECK REJECT MSG with INVALID MESSAGE - REQUIRED TAG MISSING [MsgType:_6, Tag:_26]|10=018|
8=FIX.4.4|9=84|35=7|49=SNDR|56=TRGT|34=3|52=20090331-09:08:20.372|2=20|5=R|55=TESTB|4=T|53=1000000|10=212|
8=FIX.4.4|9=140|35=1|34=104|49=SNDR|56=TRGT|52=20090407-09:48:19.812|112=         CHECK REJECT MSG with INVALID MESSAGE - REQUIRED TAG MISSING [MsgType:_7, Tag:_3]|10=018|
8=FIX.4.4|9=135|35=8|49=SNDR|56=TRGT|34=4|52=20090331-09:08:20.372|37=11111111|17=12|39=1|150=F|55=TESTB|54=1|38=1000|847=2|151=600|14=400|6=10|32=400|31=10|10=212|
8=FIX.4.4|9=140|35=1|34=104|49=SNDR|56=TRGT|52=20090407-09:48:19.812|112=         CHECK REJECT MSG with INVALID MESSAGE - REQUIRED TAG MISSING [MsgType:_8, Tag:_849]|10=018|
8=FIX.4.4|9=57|35=b|49=SNDR|56=TRGT|34=3|52=20090331-09:13:20.413|297=10|296=1|302=000302|311=000311|295=1|10=141|
8=FIX.4.4|9=140|35=1|34=104|49=SNDR|56=TRGT|52=20090407-09:48:19.812|112=         CHECK REJECT MSG with INVALID MESSAGE - REQUIRED TAG MISSING [MsgType:_b, Tag:_304]|10=018|
8=FIX.4.4|9=57|35=b|49=SNDR|56=TRGT|34=3|52=20090331-09:13:20.413|297=10|296=1|302=000302|311=000311|304=1|295=1|10=141|
8=FIX.4.4|9=140|35=1|34=104|49=SNDR|56=TRGT|52=20090407-09:48:19.812|112=         CHECK REJECT MSG with INVALID MESSAGE - REQUIRED TAG MISSING [MsgType:_b, Tag:_299]|10=018|
8=FIX.4.4|9=57|35=b|49=SNDR|56=TRGT|34=3|52=20090331-09:13:20.413|297=10|296=1|302=000302|311=000311|304=1|295=1|299=000299|10=141|
8=FIX.4.4|9=140|35=1|34=104|49=SNDR|56=TRGT|52=20090407-09:48:19.812|112=         CHECK REJECT MSG with INVALID MESSAGE - REQUIRED TAG MISSING [MsgType:_b, Tag:_132]|10=018|
8=FIX.4.4|9=182|35=i|49=SNDR|56=TRGT|34=10|52=20090331-09:13:20.413|117=1116226|296=1|302=000302|304=1|295=1|299=000299|10=246|
8=FIX.4.4|9=140|35=1|34=104|49=SNDR|56=TRGT|52=20090407-09:48:19.812|112=         CHECK REJECT MSG with INVALID MESSAGE - REQUIRED TAG MISSING [MsgType:_i, Tag:_132]|10=018|
8=FIX.4.4|9=95|35=k|49=SNDR|56=TRGT|34=12|52=20090331-09:13:20.413|391=20012411|374=N|393=2|394=1|398=1|418=A|419=4|10=148|
8=FIX.4.4|9=140|35=1|34=104|49=SNDR|56=TRGT|52=20090407-09:48:19.812|112=         CHECK REJECT MSG with INVALID MESSAGE - REQUIRED TAG MISSING [MsgType:_k, Tag:_399]|10=018|
8=FIX.4.4|9=95|35=k|49=SNDR|56=TRGT|34=12|52=20090331-09:13:20.413|391=20012411|374=N|393=2|394=2|420=1|418=A|419=4|10=148|
8=FIX.4.4|9=140|35=1|34=104|49=SNDR|56=TRGT|52=20090407-09:48:19.812|112=         CHECK REJECT MSG with INVALID MESSAGE - REQUIRED TAG MISSING [MsgType:_k, Tag:_66]|10=018|
8=FIX.4.4|9=95|35=k|49=SNDR|56=TRGT|34=12|52=20090331-09:13:20.413|391=20012411|374=N|393=2|394=2|420=1|66=00066|63=6|418=A|419=4|10=148|
8=FIX.4.4|9=140|35=1|34=104|49=SNDR|56=TRGT|52=20090407-09:48:19.812|112=         CHECK REJECT MSG with INVALID MESSAGE - REQUIRED TAG MISSING [MsgType:_k, Tag:_64]|10=018|
8=FIX.4.4|9=81|35=l|49=SNDR|56=TRGT|34=13|52=20090331-09:13:20.413|420=2|12=5|13=1|12=0.07|13=2|63=6|10=158|
8=FIX.4.4|9=140|35=1|34=104|49=SNDR|56=TRGT|52=20090407-09:48:19.812|112=         CHECK REJECT MSG with INVALID MESSAGE - REQUIRED TAG MISSING [MsgType:_l, Tag:_64]|10=018|
8=FIX.4.4|9=119|35=m|49=SNDR|56=TRGT|34=14|52=20090331-09:13:20.413|66=0002|422=4|428=1|55=TESTA|48=00048|711=1|311=IBM|44=11.8|10=077|
8=FIX.4.4|9=140|35=1|34=104|49=SNDR|56=TRGT|52=20090407-09:48:19.812|112=         CHECK REJECT MSG with INVALID MESSAGE - REQUIRED TAG MISSING [MsgType:_m, Tag:_22]|10=018|
8=FIX.4.4|9=119|35=m|49=SNDR|56=TRGT|34=14|52=20090331-09:13:20.413|66=0002|422=4|428=1|55=TESTA|48=00048|22=1|454=1|711=1|311=IBM|44=11.8|10=077|
8=FIX.4.4|9=140|35=1|34=104|49=SNDR|56=TRGT|52=20090407-09:48:19.812|112=         CHECK REJECT MSG with INVALID MESSAGE - REQUIRED TAG MISSING [MsgType:_m, Tag:_455]|10=018|
8=FIX.4.4|9=119|35=m|49=SNDR|56=TRGT|34=14|52=20090331-09:13:20.413|66=0002|422=4|428=1|55=TESTA|48=00048|22=1|454=1|455=000455|711=1|311=IBM|44=11.8|10=077|
8=FIX.4.4|9=140|35=1|34=104|49=SNDR|56=TRGT|52=20090407-09:48:19.812|112=         CHECK REJECT MSG with INVALID MESSAGE - REQUIRED TAG MISSING [MsgType:_m, Tag:_456]|10=018|
8=FIX.4.4|9=119|35=m|49=SNDR|56=TRGT|34=14|52=20090331-09:13:20.413|66=0002|422=4|428=1|55=TESTA|48=00048|22=1|454=1|455=000455|456=000456|762=MLEG|711=1|311=IBM|457=1|44=11.8|10=077|
8=FIX.4.4|9=140|35=1|34=104|49=SNDR|56=TRGT|52=20090407-09:48:19.812|112=         CHECK REJECT MSG with INVALID MESSAGE - REQUIRED TAG MISSING [MsgType:_m, Tag:_167]|10=018|
8=FIX.4.4|9=119|35=m|49=SNDR|56=TRGT|34=14|52=20090331-09:13:20.413|66=0002|422=4|428=1|55=TESTA|48=00048|22=1|454=1|455=000455|456=000456|711=1|311=IBM|457=1|44=11.8|10=077|
8=FIX.4.4|9=140|35=1|34=104|49=SNDR|56=TRGT|52=20090407-09:48:19.812|112=         CHECK REJECT MSG with INVALID MESSAGE - REQUIRED TAG MISSING [MsgType:_m, Tag:_458]|10=018|
8=FIX.4.4|9=119|35=m|49=SNDR|56=TRGT|34=14|52=20090331-09:13:20.413|66=0002|422=4|428=1|55=TESTA|48=00048|22=1|454=1|455=000455|456=000456|461=000461|711=1|311=IBM|44=11.8|887=1|10=077|
8=FIX.4.4|9=140|35=1|34=104|49=SNDR|56=TRGT|52=20090407-09:48:19.812|112=         CHECK REJECT MSG with INVALID MESSAGE - REQUIRED TAG MISSING [MsgType:_m, Tag:_888]|10=018|
8=FIX.4.4|9=72|35=o|49=SNDR|56=TRGT|34=3|52=20090331-09:15:28.055|513=3659000000|514=1|10=105|
8=FIX.4.4|9=140|35=1|34=104|49=SNDR|56=TRGT|52=20090407-09:48:19.812|112=         CHECK REJECT MSG with INVALID MESSAGE - REQUIRED TAG MISSING [MsgType:_o, Tag:_508]|10=018|
8=FIX.4.4|9=78|35=p|49=SNDR|56=TRGT|34=4|52=20090331-09:15:28.055|513=3659000000|514=2|506=A|10=139|
8=FIX.4.4|9=140|35=1|34=104|49=SNDR|56=TRGT|52=20090407-09:48:19.812|112=         CHECK REJECT MSG with INVALID MESSAGE - REQUIRED TAG MISSING [MsgType:_p, Tag:_508]|10=018|
8=FIX.4.4|9=74|35=r|49=SNDR|56=TRGT|34=6|52=20090331-09:15:28.055|37=4511223|530=7|531=0|10=192|
8=FIX.4.4|9=140|35=1|34=104|49=SNDR|56=TRGT|52=20090407-09:48:19.812|112=         CHECK REJECT MSG with INVALID MESSAGE - REQUIRED TAG MISSING [MsgType:_r, Tag:_532]|10=018|
8=FIX.4.4|9=74|35=r|49=SNDR|56=TRGT|34=6|52=20090331-09:15:28.055|37=4511223|530=7|531=0|532=1|534=1|10=192|
8=FIX.4.4|9=140|35=1|34=104|49=SNDR|56=TRGT|52=20090407-09:48:19.812|112=         CHECK REJECT MSG with INVALID MESSAGE - REQUIRED TAG MISSING [MsgType:_r, Tag:_41]|10=018|
8=FIX.4.4|9=165|35=s|49=SNDR|56=TRGT|34=7|52=20090331-09:15:28.071|548=90001008|549=1|550=0|552=2|54=1|11=B101010|38=4000|54=2|11=S101010|38=5000|121=Y|55=TESTA|60=20060217-10:00:00|40=1|10=253|
8=FIX.4.4|9=140|35=1|34=104|49=SNDR|56=TRGT|52=20090407-09:48:19.812|112=         CHECK REJECT MSG with INVALID MESSAGE - REQUIRED TAG MISSING [MsgType:_s, Tag:_120]|10=018|
8=FIX.4.4|9=165|35=s|49=SNDR|56=TRGT|34=7|52=20090331-09:15:28.071|548=90001008|549=1|550=0|552=2|54=1|11=B101010|38=4000|54=2|11=S101010|38=5000|55=TESTA|48=00048|60=20060217-10:00:00|40=1|10=253|
8=FIX.4.4|9=140|35=1|34=104|49=SNDR|56=TRGT|52=20090407-09:48:19.812|112=         CHECK REJECT MSG with INVALID MESSAGE - REQUIRED TAG MISSING [MsgType:_s, Tag:_22]|10=018|
8=FIX.4.4|9=165|35=s|49=SNDR|56=TRGT|34=7|52=20090331-09:15:28.071|548=90001008|549=1|550=0|552=2|54=1|11=B101010|38=4000|54=2|11=S101010|38=5000|55=TESTA|63=6|60=20060217-10:00:00|40=1|10=253|
8=FIX.4.4|9=140|35=1|34=104|49=SNDR|56=TRGT|52=20090407-09:48:19.812|112=         CHECK REJECT MSG with INVALID MESSAGE - REQUIRED TAG MISSING [MsgType:_s, Tag:_64]|10=018|
8=FIX.4.4|9=165|35=s|49=SNDR|56=TRGT|34=7|52=20090331-09:15:28.071|548=90001008|549=1|550=0|552=2|54=1|11=B101010|38=4000|54=2|11=S101010|38=5000|55=TESTA|60=20060217-10:00:00|40=4|44=10|10=253|
8=FIX.4.4|9=140|35=1|34=104|49=SNDR|56=TRGT|52=20090407-09:48:19.812|112=         CHECK REJECT MSG with INVALID MESSAGE - REQUIRED TAG MISSING [MsgType:_s, Tag:_99]|10=018|
8=FIX.4.4|9=165|35=s|49=SNDR|56=TRGT|34=7|52=20090331-09:15:28.071|548=90001008|549=1|550=0|552=2|54=1|11=B101010|38=4000|54=2|11=S101010|38=5000|55=TESTA|60=20060217-10:00:00|40=E|10=253|
8=FIX.4.4|9=140|35=1|34=104|49=SNDR|56=TRGT|52=20090407-09:48:19.812|112=         CHECK REJECT MSG with INVALID MESSAGE - REQUIRED TAG MISSING [MsgType:_s, Tag:_23]|10=018|
8=FIX.4.4|9=165|35=s|49=SNDR|56=TRGT|34=7|52=20090331-09:15:28.071|548=90001008|549=1|550=0|552=2|54=1|11=B101010|38=4000|54=2|11=S101010|38=5000|55=TESTA|60=20060217-10:00:00|40=D|10=253|
8=FIX.4.4|9=140|35=1|34=104|49=SNDR|56=TRGT|52=20090407-09:48:19.812|112=         CHECK REJECT MSG with INVALID MESSAGE - REQUIRED TAG MISSING [MsgType:_s, Tag:_117]|10=018|
8=FIX.4.4|9=165|35=s|49=SNDR|56=TRGT|34=7|52=20090331-09:15:28.071|548=90001008|549=1|550=0|552=2|54=1|11=B101010|38=4000|54=2|11=S101010|38=5000|55=TESTA|60=20060217-10:00:00|40=1|59=6|10=253|
8=FIX.4.4|9=140|35=1|34=104|49=SNDR|56=TRGT|52=20090407-09:48:19.812|112=         CHECK REJECT MSG with INVALID MESSAGE - REQUIRED TAG MISSING [MsgType:_s, Tag:_432]|10=018|
8=FIX.4.4|9=165|35=s|49=SNDR|56=TRGT|34=7|52=20090331-09:15:28.071|548=90001008|549=1|550=0|552=2|54=1|11=B101010|38=4000|54=2|11=S101010|38=5000|55=TESTA|60=20060217-10:00:00|40=1|847=2|10=253|
8=FIX.4.4|9=140|35=1|34=104|49=SNDR|56=TRGT|52=20090407-09:48:19.812|112=         CHECK REJECT MSG with INVALID MESSAGE - REQUIRED TAG MISSING [MsgType:_s, Tag:_849]|10=018|
8=FIX.4.4|9=200|35=t|49=SNDR|56=TRGT|34=8|52=20090331-09:15:28.071|548=42444008|551=30000008|549=1|550=0|552=2|54=1|11=B202020|41=B101010|38=4000|54=2|11=S202020|41=S101010|38=5000|121=Y|55=TESTA|60=20060217-10:00:00|40=1|10=136|
8=FIX.4.4|9=140|35=1|34=104|49=SNDR|56=TRGT|52=20090407-09:48:19.812|112=         CHECK REJECT MSG with INVALID MESSAGE - REQUIRED TAG MISSING [MsgType:_t, Tag:_120]|10=018|
8=FIX.4.4|9=200|35=t|49=SNDR|56=TRGT|34=8|52=20090331-09:15:28.071|548=42444008|551=30000008|549=1|550=0|552=2|54=1|11=B202020|41=B101010|38=4000|54=2|11=S202020|41=S101010|38=5000|354=10|55=TESTA|60=20060217-10:00:00|40=1|10=136|
8=FIX.4.4|9=140|35=1|34=104|49=SNDR|56=TRGT|52=20090407-09:48:19.812|112=         CHECK REJECT MSG with INVALID MESSAGE - REQUIRED TAG MISSING [MsgType:_t, Tag:_355]|10=018|
8=FIX.4.4|9=200|35=t|49=SNDR|56=TRGT|34=8|52=20090331-09:15:28.071|548=42444008|551=30000008|549=1|550=0|552=2|54=1|11=B202020|41=B101010|38=4000|54=2|11=S202020|41=S101010|38=5000|55=TESTA|63=6|60=20060217-10:00:00|40=1|10=136|
8=FIX.4.4|9=140|35=1|34=104|49=SNDR|56=TRGT|52=20090407-09:48:19.812|112=         CHECK REJECT MSG with INVALID MESSAGE - REQUIRED TAG MISSING [MsgType:_t, Tag:_64]|10=018|
8=FIX.4.4|9=200|35=t|49=SNDR|56=TRGT|34=8|52=20090331-09:15:28.071|548=42444008|551=30000008|549=1|550=0|552=2|54=1|11=B202020|41=B101010|38=4000|54=2|11=S202020|41=S101010|38=5000|55=TESTA|60=20060217-10:00:00|40=E|10=136|
8=FIX.4.4|9=140|35=1|34=104|49=SNDR|56=TRGT|52=20090407-09:48:19.812|112=         CHECK REJECT MSG with INVALID MESSAGE - REQUIRED TAG MISSING [MsgType:_t, Tag:_23]|10=018|
8=FIX.4.4|9=200|35=t|49=SNDR|56=TRGT|34=8|52=20090331-09:15:28.071|548=42444008|551=30000008|549=1|550=0|552=2|54=1|11=B202020|41=B101010|38=4000|54=2|11=S202020|41=S101010|38=5000|55=TESTA|60=20060217-10:00:00|40=D|10=136|
8=FIX.4.4|9=140|35=1|34=104|49=SNDR|56=TRGT|52=20090407-09:48:19.812|112=         CHECK REJECT MSG with INVALID MESSAGE - REQUIRED TAG MISSING [MsgType:_t, Tag:_117]|10=018|
8=FIX.4.4|9=200|35=t|49=SNDR|56=TRGT|34=8|52=20090331-09:15:28.071|548=42444008|551=30000008|549=1|550=0|552=2|54=1|11=B202020|41=B101010|38=4000|54=2|11=S202020|41=S101010|38=5000|55=TESTA|60=20060217-10:00:00|40=1|59=6|10=136|
8=FIX.4.4|9=140|35=1|34=104|49=SNDR|56=TRGT|52=20090407-09:48:19.812|112=         CHECK REJECT MSG with INVALID MESSAGE - REQUIRED TAG MISSING [MsgType:_t, Tag:_432]|10=018|
8=FIX.4.4|9=200|35=t|49=SNDR|56=TRGT|34=8|52=20090331-09:15:28.071|548=42444008|551=30000008|549=1|550=0|552=2|54=1|11=B202020|41=B101010|38=4000|54=2|11=S202020|41=S101010|38=5000|55=TESTA|60=20060217-10:00:00|40=1|847=2|10=136|
8=FIX.4.4|9=140|35=1|34=104|49=SNDR|56=TRGT|52=20090407-09:48:19.812|112=         CHECK REJECT MSG with INVALID MESSAGE - REQUIRED TAG MISSING [MsgType:_t, Tag:_849]|10=018|
8=FIX.4.4|9=195|35=u|49=SNDR|56=TRGT|34=9|52=20090331-09:15:28.071|548=42444008|551=30001008|549=1|550=0|552=2|54=1|11=B202020|41=B101010|38=4000|54=2|11=S202020|41=S101010|453=1|38=5000|55=TESTA|60=20060217-10:00:00|10=197|
8=FIX.4.4|9=140|35=1|34=104|49=SNDR|56=TRGT|52=20090407-09:48:19.812|112=         CHECK REJECT MSG with INVALID MESSAGE - REQUIRED TAG MISSING [MsgType:_u, Tag:_448]|10=018|
8=FIX.4.4|9=195|35=u|49=SNDR|56=TRGT|34=9|52=20090331-09:15:28.071|548=42444008|551=30001008|549=1|550=0|552=2|54=1|11=B202020|41=B101010|38=4000|54=2|11=S202020|41=S101010|453=1|448=000448|38=5000|55=TESTA|60=20060217-10:00:00|10=197|
8=FIX.4.4|9=140|35=1|34=104|49=SNDR|56=TRGT|52=20090407-09:48:19.812|112=         CHECK REJECT MSG with INVALID MESSAGE - REQUIRED TAG MISSING [MsgType:_u, Tag:_447]|10=018|
8=FIX.4.4|9=195|35=u|49=SNDR|56=TRGT|34=9|52=20090331-09:15:28.071|548=42444008|551=30001008|549=1|550=0|552=2|54=1|11=B202020|41=B101010|38=4000|54=2|11=S202020|41=S101010|453=1|448=000448|447=B|38=5000|55=TESTA|60=20060217-10:00:00|10=197|
8=FIX.4.4|9=140|35=1|34=104|49=SNDR|56=TRGT|52=20090407-09:48:19.812|112=         CHECK REJECT MSG with INVALID MESSAGE - REQUIRED TAG MISSING [MsgType:_u, Tag:_452]|10=018|
8=FIX.4.4|9=195|35=u|49=SNDR|56=TRGT|34=9|52=20090331-09:15:28.071|548=42444008|551=30001008|549=1|550=0|552=2|54=1|11=B202020|41=B101010|38=4000|54=2|11=S202020|41=S101010|453=1|448=000448|447=B|452=3|802=1|38=5000|55=TESTA|60=20060217-10:00:00|10=197|
8=FIX.4.4|9=140|35=1|34=104|49=SNDR|56=TRGT|52=20090407-09:48:19.812|112=         CHECK REJECT MSG with INVALID MESSAGE - REQUIRED TAG MISSING [MsgType:_u, Tag:_523]|10=018|
8=FIX.4.4|9=195|35=u|49=SNDR|56=TRGT|34=9|52=20090331-09:15:28.071|548=42444008|551=30001008|549=1|550=0|552=2|54=1|11=B202020|41=B101010|38=4000|54=2|11=S202020|41=S101010|453=1|448=000448|447=B|452=3|802=1|523=Clearing Firm|38=5000|55=TESTA|60=20060217-10:00:00|10=197|
8=FIX.4.4|9=140|35=1|34=104|49=SNDR|56=TRGT|52=20090407-09:48:19.812|112=         CHECK REJECT MSG with INVALID MESSAGE - REQUIRED TAG MISSING [MsgType:_u, Tag:_803]|10=018|
8=FIX.4.4|9=62|35=v|49=SNDR|56=TRGT|34=10|52=20090331-09:15:28.071|320=11223|354=2|10=145|
8=FIX.4.4|9=140|35=1|34=104|49=SNDR|56=TRGT|52=20090407-09:48:19.812|112=         CHECK REJECT MSG with INVALID MESSAGE - REQUIRED TAG MISSING [MsgType:_v, Tag:_355]|10=018|
8=FIX.4.4|9=78|35=w|49=SNDR|56=TRGT|34=11|52=20090331-09:15:28.071|320=11223|322=22115|323=1|354=2|10=113|
8=FIX.4.4|9=140|35=1|34=104|49=SNDR|56=TRGT|52=20090407-09:48:19.812|112=         CHECK REJECT MSG with INVALID MESSAGE - REQUIRED TAG MISSING [MsgType:_w, Tag:_355]|10=018|
8=FIX.4.4|9=144|35=B|49=SNDR|56=TRGT|34=2|52=20090331-09:17:04.212|148=Weather|358=10|33=4|58=In the evening |58=it might be wet |58=and windy.|58= Take your coat on.|10=190|
8=FIX.4.4|9=140|35=1|34=104|49=SNDR|56=TRGT|52=20090407-09:48:19.812|112=         CHECK REJECT MSG with INVALID MESSAGE - REQUIRED TAG MISSING [MsgType:_B, Tag:_359]|10=018|
8=FIX.4.4|9=144|35=B|49=SNDR|56=TRGT|34=2|52=20090331-09:17:04.212|148=Weather|33=4|58=In the evening |58=it might be wet |58=and windy.|58= Take your coat on.|95=2|10=190|
8=FIX.4.4|9=140|35=1|34=104|49=SNDR|56=TRGT|52=20090407-09:48:19.812|112=         CHECK REJECT MSG with INVALID MESSAGE - REQUIRED TAG MISSING [MsgType:_B, Tag:_96]|10=018|
8=FIX.4.4|9=149|35=C|49=SNDR|56=TRGT|34=3|52=20090331-09:17:04.212|164=111111111|94=0|147=Bunny's Birthday|356=10|33=3|58=Hello, Bunny!|58=Happy Birthday to you :)|58=Bye.|10=198|
8=FIX.4.4|9=140|35=1|34=104|49=SNDR|56=TRGT|52=20090407-09:48:19.812|112=         CHECK REJECT MSG with INVALID MESSAGE - REQUIRED TAG MISSING [MsgType:_C, Tag:_357]|10=018|
8=FIX.4.4|9=149|35=C|49=SNDR|56=TRGT|34=3|52=20090331-09:17:04.212|164=111111111|94=0|147=Bunny's Birthday|33=3|58=Hello, Bunny!|58=Happy Birthday to you :)|58=Bye.|95=2|10=198|
8=FIX.4.4|9=140|35=1|34=104|49=SNDR|56=TRGT|52=20090407-09:48:19.812|112=         CHECK REJECT MSG with INVALID MESSAGE - REQUIRED TAG MISSING [MsgType:_C, Tag:_96]|10=018|
8=FIX.4.4|9=111|35=D|49=SNDR|56=TRGT|34=4|52=20090331-09:17:04.212|11=90001008|63=6|55=TESTB|54=1|60=20060217-10:00:00|38=4000|40=1|10=246|
8=FIX.4.4|9=140|35=1|34=104|49=SNDR|56=TRGT|52=20090407-09:48:19.812|112=         CHECK REJECT MSG with INVALID MESSAGE - REQUIRED TAG MISSING [MsgType:_D, Tag:_64]|10=018|
8=FIX.4.4|9=111|35=D|49=SNDR|56=TRGT|34=4|52=20090331-09:17:04.212|11=90001008|55=TESTB|54=5|60=20060217-10:00:00|38=4000|40=1|10=246|
8=FIX.4.4|9=140|35=1|34=104|49=SNDR|56=TRGT|52=20090407-09:48:19.812|112=         CHECK REJECT MSG with INVALID MESSAGE - REQUIRED TAG MISSING [MsgType:_D, Tag:_114]|10=018|
8=FIX.4.4|9=151|35=E|49=SNDR|56=TRGT|34=5|52=20090331-09:17:04.212|66=20012411|394=3|68=1|73=2|11=1131|67=1|55=TESTB3|54=3|38=3000|11=1132|67=2|55=TESTB2|54=1|38=1000|40=E|10=084|
8=FIX.4.4|9=140|35=1|34=104|49=SNDR|56=TRGT|52=20090407-09:48:19.812|112=         CHECK REJECT MSG with INVALID MESSAGE - REQUIRED TAG MISSING [MsgType:_E, Tag:_23]|10=018|
8=FIX.4.4|9=151|35=E|49=SNDR|56=TRGT|34=5|52=20090331-09:17:04.212|66=20012411|394=3|68=1|73=2|11=1131|67=1|55=TESTB3|54=3|38=3000|11=1132|67=2|55=TESTB2|54=1|38=1000|40=D|10=084|
8=FIX.4.4|9=140|35=1|34=104|49=SNDR|56=TRGT|52=20090407-09:48:19.812|112=         CHECK REJECT MSG with INVALID MESSAGE - REQUIRED TAG MISSING [MsgType:_E, Tag:_117]|10=018|
8=FIX.4.4|9=128|35=G|49=SNDR|56=TRGT|34=7|52=20090331-09:17:04.228|11=12233345|41=90001008|21=2|55=TESTB|48=00048|54=1|60=20060117-10:00:00|38=4000|40=1|10=023|
8=FIX.4.4|9=140|35=1|34=104|49=SNDR|56=TRGT|52=20090407-09:48:19.812|112=         CHECK REJECT MSG with INVALID MESSAGE - REQUIRED TAG MISSING [MsgType:_G, Tag:_22]|10=018|
8=FIX.4.4|9=128|35=G|49=SNDR|56=TRGT|34=7|52=20090331-09:17:04.228|11=12233345|41=90001008|21=2|55=TESTB|54=1|60=20060117-10:00:00|38=4000|40=1|847=2|10=023|
8=FIX.4.4|9=140|35=1|34=104|49=SNDR|56=TRGT|52=20090407-09:48:19.812|112=         CHECK REJECT MSG with INVALID MESSAGE - REQUIRED TAG MISSING [MsgType:_G, Tag:_849]|10=018|
8=FIX.4.4|9=180|35=J|49=SNDR|56=TRGT|34=9|52=20090331-09:17:04.228|70=1116226|71=1|626=1|857=0|54=1|55=TESTB|53=1004000|6=30|75=20030821|78=3|79=1000|80=500000|79=2000|80=400000|79=3000|80=104000|10=061|
8=FIX.4.4|9=140|35=1|34=104|49=SNDR|56=TRGT|52=20090407-09:48:19.812|112=         CHECK REJECT MSG with INVALID MESSAGE - REQUIRED TAG MISSING [MsgType:_J, Tag:_72]|10=018|
8=FIX.4.4|9=180|35=J|49=SNDR|56=TRGT|34=9|52=20090331-09:17:04.228|70=1116226|71=1|72=00072|626=1|857=0|54=1|55=TESTB|53=1004000|6=30|75=20030821|78=3|79=1000|80=500000|79=2000|80=400000|79=3000|80=104000|10=061|
8=FIX.4.4|9=140|35=1|34=104|49=SNDR|56=TRGT|52=20090407-09:48:19.812|112=         CHECK REJECT MSG with INVALID MESSAGE - REQUIRED TAG MISSING [MsgType:_J, Tag:_796]|10=018|
8=FIX.4.4|9=180|35=J|49=SNDR|56=TRGT|34=9|52=20090331-09:17:04.228|70=1116226|71=0|626=8|857=0|54=1|55=TESTB|53=1004000|6=30|75=20030821|78=3|79=1000|80=500000|79=2000|80=400000|79=3000|80=104000|10=061|
8=FIX.4.4|9=140|35=1|34=104|49=SNDR|56=TRGT|52=20090407-09:48:19.812|112=         CHECK REJECT MSG with INVALID MESSAGE - REQUIRED TAG MISSING [MsgType:_J, Tag:_808]|10=018|
8=FIX.4.4|9=180|35=J|49=SNDR|56=TRGT|34=9|52=20090331-09:17:04.228|70=1116226|71=0|626=1|196=000196|857=0|54=1|55=TESTB|53=1004000|6=30|75=20030821|78=3|79=1000|80=500000|79=2000|80=400000|79=3000|80=104000|10=061|
8=FIX.4.4|9=140|35=1|34=104|49=SNDR|56=TRGT|52=20090407-09:48:19.812|112=         CHECK REJECT MSG with INVALID MESSAGE - REQUIRED TAG MISSING [MsgType:_J, Tag:_197]|10=018|
8=FIX.4.4|9=180|35=J|49=SNDR|56=TRGT|34=9|52=20090331-09:17:04.228|70=1116226|71=0|626=1|857=1|54=1|55=TESTB|53=1004000|6=30|75=20030821|78=3|79=1000|80=500000|79=2000|80=400000|79=3000|80=104000|10=061|
8=FIX.4.4|9=140|35=1|34=104|49=SNDR|56=TRGT|52=20090407-09:48:19.812|112=         CHECK REJECT MSG with INVALID MESSAGE - REQUIRED TAG MISSING [MsgType:_J, Tag:_73]|10=018|
8=FIX.4.4|9=180|35=J|49=SNDR|56=TRGT|34=9|52=20090331-09:17:04.228|70=1116226|71=0|626=1|857=1|73=1|54=1|55=TESTB|53=1004000|6=30|75=20030821|78=3|79=1000|80=500000|79=2000|80=400000|79=3000|80=104000|10=061|
8=FIX.4.4|9=140|35=1|34=104|49=SNDR|56=TRGT|52=20090407-09:48:19.812|112=         CHECK REJECT MSG with INVALID MESSAGE - REQUIRED TAG MISSING [MsgType:_J, Tag:_11]|10=018|
8=FIX.4.4|9=180|35=J|49=SNDR|56=TRGT|34=9|52=20090331-09:17:04.228|70=1116226|71=0|626=1|857=0|54=1|55=TESTB|53=1004000|6=30|75=20030821|78=1|79=1000|10=061|
8=FIX.4.4|9=140|35=1|34=104|49=SNDR|56=TRGT|52=20090407-09:48:19.812|112=         CHECK REJECT MSG with INVALID MESSAGE - REQUIRED TAG MISSING [MsgType:_J, Tag:_80]|10=018|
8=FIX.4.4|9=180|35=J|49=SNDR|56=TRGT|34=9|52=20090331-09:17:04.228|70=1116226|71=0|626=1|857=0|54=1|55=TESTB|53=1004000|6=30|75=20030821|78=1|79=1000|80=500000|360=2|10=061|
8=FIX.4.4|9=140|35=1|34=104|49=SNDR|56=TRGT|52=20090407-09:48:19.812|112=         CHECK REJECT MSG with INVALID MESSAGE - REQUIRED TAG MISSING [MsgType:_J, Tag:_361]|10=018|
8=FIX.4.4|9=180|35=J|49=SNDR|56=TRGT|34=9|52=20090331-09:17:04.228|70=1116226|71=0|626=1|857=0|54=1|55=TESTB|53=1004000|6=30|75=20030821|78=1|79=1000|80=500000|119=0.5|10=061|
8=FIX.4.4|9=140|35=1|34=104|49=SNDR|56=TRGT|52=20090407-09:48:19.812|112=         CHECK REJECT MSG with INVALID MESSAGE - REQUIRED TAG MISSING [MsgType:_J, Tag:_120]|10=018|
8=FIX.4.4|9=180|35=J|49=SNDR|56=TRGT|34=9|52=20090331-09:17:04.228|70=1116226|71=0|626=1|857=0|54=1|55=TESTB|53=1004000|6=30|75=20030821|78=1|79=1000|80=500000|737=0.5|10=061|
8=FIX.4.4|9=140|35=1|34=104|49=SNDR|56=TRGT|52=20090407-09:48:19.812|112=         CHECK REJECT MSG with INVALID MESSAGE - REQUIRED TAG MISSING [MsgType:_J, Tag:_736]|10=018|
8=FIX.4.4|9=180|35=J|49=SNDR|56=TRGT|34=9|52=20090331-09:17:04.228|70=1116226|71=0|626=1|857=0|54=1|55=TESTB|53=1004000|6=30|75=20030821|78=1|79=1000|80=500000|780=2|10=061|
8=FIX.4.4|9=140|35=1|34=104|49=SNDR|56=TRGT|52=20090407-09:48:19.812|112=         CHECK REJECT MSG with INVALID MESSAGE - REQUIRED TAG MISSING [MsgType:_J, Tag:_172]|10=018|
8=FIX.4.4|9=180|35=J|49=SNDR|56=TRGT|34=9|52=20090331-09:17:04.228|70=1116226|71=0|626=1|857=0|54=1|55=TESTB|53=1004000|6=30|75=20030821|78=1|79=1000|80=500000|780=2|172=1|10=061|
8=FIX.4.4|9=140|35=1|34=104|49=SNDR|56=TRGT|52=20090407-09:48:19.812|112=         CHECK REJECT MSG with INVALID MESSAGE - REQUIRED TAG MISSING [MsgType:_J, Tag:_85]|10=018|
8=FIX.4.4|9=180|35=J|49=SNDR|56=TRGT|34=9|52=20090331-09:17:04.228|70=1116226|71=0|626=1|857=0|54=1|55=TESTB|53=1004000|6=30|75=20030821|78=1|79=1000|80=500000|780=2|172=1|85=1|10=061|
8=FIX.4.4|9=140|35=1|34=104|49=SNDR|56=TRGT|52=20090407-09:48:19.812|112=         CHECK REJECT MSG with INVALID MESSAGE - REQUIRED TAG MISSING [MsgType:_J, Tag:_165]|10=018|
8=FIX.4.4|9=180|35=J|49=SNDR|56=TRGT|34=9|52=20090331-09:17:04.228|70=1116226|71=0|626=1|857=0|54=1|55=TESTB|53=1004000|6=30|75=20030821|78=1|79=1000|80=500000|780=2|172=1|85=1|165=1|10=061|
8=FIX.4.4|9=140|35=1|34=104|49=SNDR|56=TRGT|52=20090407-09:48:19.812|112=         CHECK REJECT MSG with INVALID MESSAGE - REQUIRED TAG MISSING [MsgType:_J, Tag:_787]|10=018|
8=FIX.4.4|9=180|35=J|49=SNDR|56=TRGT|34=9|52=20090331-09:17:04.228|70=1116226|71=0|626=1|857=0|54=1|55=TESTB|53=1004000|6=30|75=20030821|78=1|79=1000|80=500000|780=2|172=1|85=1|165=1|787=S|781=1|10=061|
8=FIX.4.4|9=140|35=1|34=104|49=SNDR|56=TRGT|52=20090407-09:48:19.812|112=         CHECK REJECT MSG with INVALID MESSAGE - REQUIRED TAG MISSING [MsgType:_J, Tag:_782]|10=018|
8=FIX.4.4|9=180|35=J|49=SNDR|56=TRGT|34=9|52=20090331-09:17:04.228|70=1116226|71=0|626=1|857=0|54=1|55=TESTB|53=1004000|6=30|75=20030821|78=1|79=1000|80=500000|780=2|172=1|85=1|165=1|787=S|781=1|782=000782|10=061|
8=FIX.4.4|9=140|35=1|34=104|49=SNDR|56=TRGT|52=20090407-09:48:19.812|112=         CHECK REJECT MSG with INVALID MESSAGE - REQUIRED TAG MISSING [MsgType:_J, Tag:_783]|10=018|
8=FIX.4.4|9=180|35=J|49=SNDR|56=TRGT|34=9|52=20090331-09:17:04.228|70=1116226|71=0|626=1|857=0|54=1|55=TESTB|53=1004000|6=30|75=20030821|78=1|79=1000|80=500000|780=2|172=1|85=1|165=1|787=S|781=1|782=000782|783=E|10=061|
8=FIX.4.4|9=140|35=1|34=104|49=SNDR|56=TRGT|52=20090407-09:48:19.812|112=         CHECK REJECT MSG with INVALID MESSAGE - REQUIRED TAG MISSING [MsgType:_J, Tag:_784]|10=018|
8=FIX.4.4|9=180|35=J|49=SNDR|56=TRGT|34=9|52=20090331-09:17:04.228|70=1116226|71=0|626=1|857=0|54=1|55=TESTB|53=1004000|6=30|75=20030821|78=1|79=1000|80=500000|780=2|172=1|85=1|165=1|787=S|781=1|782=000782|783=E|784=22|801=1|10=061|
8=FIX.4.4|9=140|35=1|34=104|49=SNDR|56=TRGT|52=20090407-09:48:19.812|112=         CHECK REJECT MSG with INVALID MESSAGE - REQUIRED TAG MISSING [MsgType:_J, Tag:_785]|10=018|
8=FIX.4.4|9=180|35=J|49=SNDR|56=TRGT|34=9|52=20090331-09:17:04.228|70=1116226|71=0|626=1|857=0|54=1|55=TESTB|53=1004000|6=30|75=20030821|78=1|79=1000|80=500000|780=2|172=1|85=1|165=1|787=S|781=1|782=000782|783=E|784=22|801=1|785=000785|10=061|
8=FIX.4.4|9=140|35=1|34=104|49=SNDR|56=TRGT|52=20090407-09:48:19.812|112=         CHECK REJECT MSG with INVALID MESSAGE - REQUIRED TAG MISSING [MsgType:_J, Tag:_786]|10=018|
8=FIX.4.4|9=180|35=J|49=SNDR|56=TRGT|34=9|52=20090331-09:17:04.228|70=1116226|71=0|626=1|857=0|54=1|55=TESTB|53=1004000|6=30|75=20030821|78=1|79=1000|80=500000|780=3|10=061|
8=FIX.4.4|9=140|35=1|34=104|49=SNDR|56=TRGT|52=20090407-09:48:19.812|112=         CHECK REJECT MSG with INVALID MESSAGE - REQUIRED TAG MISSING [MsgType:_J, Tag:_169]|10=018|
8=FIX.4.4|9=180|35=J|49=SNDR|56=TRGT|34=9|52=20090331-09:17:04.228|70=1116226|71=0|626=1|857=0|54=1|55=TESTB|53=1004000|6=30|75=20030821|78=1|79=1000|80=500000|780=3|169=0|10=061|
8=FIX.4.4|9=140|35=1|34=104|49=SNDR|56=TRGT|52=20090407-09:48:19.812|112=         CHECK REJECT MSG with INVALID MESSAGE - REQUIRED TAG MISSING [MsgType:_J, Tag:_170]|10=018|
8=FIX.4.4|9=180|35=J|49=SNDR|56=TRGT|34=9|52=20090331-09:17:04.228|70=1116226|71=0|626=1|857=0|54=1|55=TESTB|53=1004000|6=30|75=20030821|78=1|79=1000|80=500000|780=3|169=0|170=DB|10=061|
8=FIX.4.4|9=140|35=1|34=104|49=SNDR|56=TRGT|52=20090407-09:48:19.812|112=         CHECK REJECT MSG with INVALID MESSAGE - REQUIRED TAG MISSING [MsgType:_J, Tag:_171]|10=018|
8=FIX.4.4|9=220|35=N|49=SNDR|56=TRGT|34=2|52=20090331-09:26:19.244|66=20012411|429=1|82=3|431=3|83=1|445=10|68=5|73=3|11=1111|14=11|39=1|151=89|84=0|6=12|11=1121|14=1000|39=1|151=500|84=1000|6=2.28|11=1131|14=2500|39=1|151=500|84=1500|6=34.11|10=061|
8=FIX.4.4|9=140|35=1|34=104|49=SNDR|56=TRGT|52=20090407-09:48:19.812|112=         CHECK REJECT MSG with INVALID MESSAGE - REQUIRED TAG MISSING [MsgType:_N, Tag:_446]|10=018|
8=FIX.4.4|9=97|35=P|49=SNDR|56=TRGT|34=3|52=20090331-09:26:19.244|70=3659000001|60=20060108-10:00:53|87=0|10=003|
8=FIX.4.4|9=140|35=1|34=104|49=SNDR|56=TRGT|52=20090407-09:48:19.812|112=         CHECK REJECT MSG with INVALID MESSAGE - REQUIRED TAG MISSING [MsgType:_P, Tag:_573]|10=018|
8=FIX.4.4|9=97|35=P|49=SNDR|56=TRGT|34=3|52=20090331-09:26:19.244|70=3659000001|60=20060108-10:00:53|87=1|573=0|10=003|
8=FIX.4.4|9=140|35=1|34=104|49=SNDR|56=TRGT|52=20090407-09:48:19.812|112=         CHECK REJECT MSG with INVALID MESSAGE - REQUIRED TAG MISSING [MsgType:_P, Tag:_88]|10=018|
8=FIX.4.4|9=97|35=P|49=SNDR|56=TRGT|34=3|52=20090331-09:26:19.244|70=3659000001|60=20060108-10:00:53|87=2|573=0|10=003|
8=FIX.4.4|9=140|35=1|34=104|49=SNDR|56=TRGT|52=20090407-09:48:19.812|112=         CHECK REJECT MSG with INVALID MESSAGE - REQUIRED TAG MISSING [MsgType:_P, Tag:_88]|10=018|
8=FIX.4.4|9=97|35=P|49=SNDR|56=TRGT|34=3|52=20090331-09:26:19.244|70=3659000001|60=20060108-10:00:53|87=0|573=0|626=8|10=003|
8=FIX.4.4|9=140|35=1|34=104|49=SNDR|56=TRGT|52=20090407-09:48:19.812|112=         CHECK REJECT MSG with INVALID MESSAGE - REQUIRED TAG MISSING [MsgType:_P, Tag:_808]|10=018|
8=FIX.4.4|9=97|35=P|49=SNDR|56=TRGT|34=3|52=20090331-09:26:19.244|70=3659000001|60=20060108-10:00:53|87=0|573=0|78=1|10=003|
8=FIX.4.4|9=140|35=1|34=104|49=SNDR|56=TRGT|52=20090407-09:48:19.812|112=         CHECK REJECT MSG with INVALID MESSAGE - REQUIRED TAG MISSING [MsgType:_P, Tag:_79]|10=018|
8=FIX.4.4|9=97|35=P|49=SNDR|56=TRGT|34=3|52=20090331-09:26:19.244|70=3659000001|60=20060108-10:00:53|87=0|573=0|78=1|79=00079|10=003|
8=FIX.4.4|9=140|35=1|34=104|49=SNDR|56=TRGT|52=20090407-09:48:19.812|112=         CHECK REJECT MSG with INVALID MESSAGE - REQUIRED TAG MISSING [MsgType:_P, Tag:_661]|10=018|
8=FIX.4.4|9=97|35=P|49=SNDR|56=TRGT|34=3|52=20090331-09:26:19.244|70=3659000001|60=20060108-10:00:53|87=0|573=0|78=1|79=00079|661=99|10=003|
8=FIX.4.4|9=140|35=1|34=104|49=SNDR|56=TRGT|52=20090407-09:48:19.812|112=         CHECK REJECT MSG with INVALID MESSAGE - REQUIRED TAG MISSING [MsgType:_P, Tag:_776]|10=018|
8=FIX.4.4|9=87|35=R|49=SNDR|56=TRGT|34=5|52=20090331-09:26:19.244|131=1272727|146=1|55=TESTA|537=1|40=2|10=029|
8=FIX.4.4|9=140|35=1|34=104|49=SNDR|56=TRGT|52=20090407-09:48:19.812|112=         CHECK REJECT MSG with INVALID MESSAGE - REQUIRED TAG MISSING [MsgType:_R, Tag:_11]|10=018|
8=FIX.4.4|9=79|35=S|49=SNDR|56=TRGT|34=6|52=20090331-09:26:19.244|117=11223|537=1|55=TESTB|133=15.3|10=025|
8=FIX.4.4|9=140|35=1|34=104|49=SNDR|56=TRGT|52=20090407-09:48:19.812|112=         CHECK REJECT MSG with INVALID MESSAGE - REQUIRED TAG MISSING [MsgType:_S, Tag:_54]|10=018|
8=FIX.4.4|9=96|35=T|49=SNDR|56=TRGT|34=7|52=20090331-09:26:19.244|777=112233|160=5|60=20060217-10:00:00|10=231|
8=FIX.4.4|9=140|35=1|34=104|49=SNDR|56=TRGT|52=20090407-09:48:19.812|112=         CHECK REJECT MSG with INVALID MESSAGE - REQUIRED TAG MISSING [MsgType:_T, Tag:_792]|10=018|
8=FIX.4.4|9=96|35=T|49=SNDR|56=TRGT|34=7|52=20090331-09:26:19.244|777=112233|160=4|60=20060217-10:00:00|10=231|
8=FIX.4.4|9=140|35=1|34=104|49=SNDR|56=TRGT|52=20090407-09:48:19.812|112=         CHECK REJECT MSG with INVALID MESSAGE - REQUIRED TAG MISSING [MsgType:_T, Tag:_11]|10=018|
8=FIX.4.4|9=96|35=T|49=SNDR|56=TRGT|34=7|52=20090331-09:26:19.244|777=112233|160=1|60=20060217-10:00:00|10=231|
8=FIX.4.4|9=140|35=1|34=104|49=SNDR|56=TRGT|52=20090407-09:48:19.812|112=         CHECK REJECT MSG with INVALID MESSAGE - REQUIRED TAG MISSING [MsgType:_T, Tag:_778]|10=018|
8=FIX.4.4|9=96|35=T|49=SNDR|56=TRGT|34=7|52=20090331-09:26:19.244|777=112233|160=1|778=1|60=20060217-10:00:00|10=231|
8=FIX.4.4|9=140|35=1|34=104|49=SNDR|56=TRGT|52=20090407-09:48:19.812|112=         CHECK REJECT MSG with INVALID MESSAGE - REQUIRED TAG MISSING [MsgType:_T, Tag:_162]|10=018|
8=FIX.4.4|9=96|35=T|49=SNDR|56=TRGT|34=7|52=20090331-09:26:19.244|777=112233|160=1|778=1|162=000162|163=C|60=20060217-10:00:00|10=231|
8=FIX.4.4|9=140|35=1|34=104|49=SNDR|56=TRGT|52=20090407-09:48:19.812|112=         CHECK REJECT MSG with INVALID MESSAGE - REQUIRED TAG MISSING [MsgType:_T, Tag:_214]|10=018|
8=FIX.4.4|9=96|35=T|49=SNDR|56=TRGT|34=7|52=20090331-09:26:19.244|777=112233|160=1|778=1|162=000162|163=C|214=000214|60=20060217-10:00:00|10=231|
8=FIX.4.4|9=140|35=1|34=104|49=SNDR|56=TRGT|52=20090407-09:48:19.812|112=         CHECK REJECT MSG with INVALID MESSAGE - REQUIRED TAG MISSING [MsgType:_T, Tag:_168]|10=018|
8=FIX.4.4|9=96|35=T|49=SNDR|56=TRGT|34=7|52=20090331-09:26:19.244|777=112233|160=1|778=1|162=000162|163=C|214=000214|168=20060218-10:00:00|60=20060217-10:00:00|10=231|
8=FIX.4.4|9=140|35=1|34=104|49=SNDR|56=TRGT|52=20090407-09:48:19.812|112=         CHECK REJECT MSG with INVALID MESSAGE - REQUIRED TAG MISSING [MsgType:_T, Tag:_779]|10=018|
8=FIX.4.4|9=115|35=V|49=SNDR|56=TRGT|34=8|52=20090331-09:26:19.244|262=11223|263=1|264=0|267=2|269=0|269=1|146=1|55=TESTA|10=031|
8=FIX.4.4|9=140|35=1|34=104|49=SNDR|56=TRGT|52=20090407-09:48:19.812|112=         CHECK REJECT MSG with INVALID MESSAGE - REQUIRED TAG MISSING [MsgType:_V, Tag:_265]|10=018|
8=FIX.4.4|9=92|35=W|49=SNDR|56=TRGT|34=9|52=20090331-09:26:19.244|55=TESTA|268=1|269=4|10=086|
8=FIX.4.4|9=140|35=1|34=104|49=SNDR|56=TRGT|52=20090407-09:48:19.812|112=         CHECK REJECT MSG with INVALID MESSAGE - REQUIRED TAG MISSING [MsgType:_W, Tag:_270]|10=018|
8=FIX.4.4|9=92|35=W|49=SNDR|56=TRGT|34=9|52=20090331-09:26:19.244|55=TESTA|268=1|269=2|270=11|10=086|
8=FIX.4.4|9=140|35=1|34=104|49=SNDR|56=TRGT|52=20090407-09:48:19.812|112=         CHECK REJECT MSG with INVALID MESSAGE - REQUIRED TAG MISSING [MsgType:_W, Tag:_271]|10=018|
8=FIX.4.4|9=102|35=X|49=SNDR|56=TRGT|34=10|52=20090331-09:26:19.244|268=1|279=0|10=172|
8=FIX.4.4|9=140|35=1|34=104|49=SNDR|56=TRGT|52=20090407-09:48:19.812|112=         CHECK REJECT MSG with INVALID MESSAGE - REQUIRED TAG MISSING [MsgType:_X, Tag:_269]|10=018|
8=FIX.4.4|9=102|35=X|49=SNDR|56=TRGT|34=10|52=20090331-09:26:19.244|268=1|279=0|269=2|10=172|
8=FIX.4.4|9=140|35=1|34=104|49=SNDR|56=TRGT|52=20090407-09:48:19.812|112=         CHECK REJECT MSG with INVALID MESSAGE - REQUIRED TAG MISSING [MsgType:_X, Tag:_280]|10=018|
8=FIX.4.4|9=102|35=X|49=SNDR|56=TRGT|34=10|52=20090331-09:26:19.244|268=1|279=0|269=2|280=0002|10=172|
8=FIX.4.4|9=140|35=1|34=104|49=SNDR|56=TRGT|52=20090407-09:48:19.812|112=         CHECK REJECT MSG with INVALID MESSAGE - REQUIRED TAG MISSING [MsgType:_X, Tag:_270]|10=018|
8=FIX.4.4|9=102|35=X|49=SNDR|56=TRGT|34=10|52=20090331-09:26:19.244|268=1|279=0|269=2|280=0002|270=11|10=172|
8=FIX.4.4|9=140|35=1|34=104|49=SNDR|56=TRGT|52=20090407-09:48:19.812|112=         CHECK REJECT MSG with INVALID MESSAGE - REQUIRED TAG MISSING [MsgType:_X, Tag:_271]|10=018|
8=FIX.4.4|9=68|35=Z|49=SNDR|56=TRGT|34=12|52=20090331-09:26:19.244|117=11223|298=1|10=154|
8=FIX.4.4|9=140|35=1|34=104|49=SNDR|56=TRGT|52=20090407-09:48:19.812|112=         CHECK REJECT MSG with INVALID MESSAGE - REQUIRED TAG MISSING [MsgType:_Z, Tag:_295]|10=018|
8=FIX.4.4|9=138|35=AB|49=SNDR|56=TRGT|34=3|52=20090331-09:27:52.151|11=90001008|54=1|55=TESTB|555=2|600=TESTA|600=TESTC|38=4000|40=2|60=20060117-10:00:00|10=253|
8=FIX.4.4|9=140|35=1|34=104|49=SNDR|56=TRGT|52=20090407-09:48:19.812|112=         CHECK REJECT MSG with INVALID MESSAGE - REQUIRED TAG MISSING [MsgType:_AB, Tag:_44]|10=018|
8=FIX.4.4|9=138|35=AB|49=SNDR|56=TRGT|34=3|52=20090331-09:27:52.151|11=90001008|54=1|55=TESTB|555=2|600=TESTA|600=TESTC|38=4000|40=4|44=10|60=20060117-10:00:00|10=253|
8=FIX.4.4|9=140|35=1|34=104|49=SNDR|56=TRGT|52=20090407-09:48:19.812|112=         CHECK REJECT MSG with INVALID MESSAGE - REQUIRED TAG MISSING [MsgType:_AB, Tag:_99]|10=018|
8=FIX.4.4|9=138|35=AB|49=SNDR|56=TRGT|34=3|52=20090331-09:27:52.151|11=90001008|54=1|55=TESTB|555=2|600=TESTA|600=TESTC|38=4000|40=E|60=20060117-10:00:00|10=253|
8=FIX.4.4|9=140|35=1|34=104|49=SNDR|56=TRGT|52=20090407-09:48:19.812|112=         CHECK REJECT MSG with INVALID MESSAGE - REQUIRED TAG MISSING [MsgType:_AB, Tag:_23]|10=018|
8=FIX.4.4|9=138|35=AB|49=SNDR|56=TRGT|34=3|52=20090331-09:27:52.151|11=90001008|54=1|55=TESTB|555=2|600=TESTA|600=TESTC|38=4000|40=D|60=20060117-10:00:00|10=253|
8=FIX.4.4|9=140|35=1|34=104|49=SNDR|56=TRGT|52=20090407-09:48:19.812|112=         CHECK REJECT MSG with INVALID MESSAGE - REQUIRED TAG MISSING [MsgType:_AB, Tag:_117]|10=018|
8=FIX.4.4|9=138|35=AB|49=SNDR|56=TRGT|34=3|52=20090331-09:27:52.151|11=90001008|54=1|55=TESTB|555=2|600=TESTA|600=TESTC|38=4000|40=1|847=2|60=20060117-10:00:00|10=253|
8=FIX.4.4|9=140|35=1|34=104|49=SNDR|56=TRGT|52=20090407-09:48:19.812|112=         CHECK REJECT MSG with INVALID MESSAGE - REQUIRED TAG MISSING [MsgType:_AB, Tag:_849]|10=018|
8=FIX.4.4|9=150|35=AC|49=SNDR|56=TRGT|34=4|52=20090331-09:27:52.151|11=90001008|41=93452234|63=6|54=1|55=TESTB|555=2|600=TESTA|600=TESTC|60=20060217-10:00:00|38=4000|40=1|10=061|
8=FIX.4.4|9=140|35=1|34=104|49=SNDR|56=TRGT|52=20090407-09:48:19.812|112=         CHECK REJECT MSG with INVALID MESSAGE - REQUIRED TAG MISSING [MsgType:_AC, Tag:_64]|10=018|
8=FIX.4.4|9=150|35=AC|49=SNDR|56=TRGT|34=4|52=20090331-09:27:52.151|11=90001008|41=93452234|54=1|55=TESTB|555=2|600=TESTA|600=TESTC|587=6|60=20060217-10:00:00|38=4000|40=1|10=061|
8=FIX.4.4|9=140|35=1|34=104|49=SNDR|56=TRGT|52=20090407-09:48:19.812|112=         CHECK REJECT MSG with INVALID MESSAGE - REQUIRED TAG MISSING [MsgType:_AC, Tag:_588]|10=018|
8=FIX.4.4|9=167|35=AE|49=SNDR|56=TRGT|34=6|52=20090331-09:27:52.151|571=90001008|150=F|570=N|55=TESTA|48=00048|32=1000|31=10.4|75=20060217|60=20060217-10:00:00|552=2|54=1|37=0001|54=2|37=0002|10=068|
8=FIX.4.4|9=140|35=1|34=104|49=SNDR|56=TRGT|52=20090407-09:48:19.812|112=         CHECK REJECT MSG with INVALID MESSAGE - REQUIRED TAG MISSING [MsgType:_AE, Tag:_22]|10=018|
8=FIX.4.4|9=92|35=AJ|49=SNDR|56=TRGT|34=11|52=20090331-09:27:52.151|693=0001|694=1|55=IBM|38=4000|132=10.5|10=026|
8=FIX.4.4|9=140|35=1|34=104|49=SNDR|56=TRGT|52=20090407-09:48:19.812|112=         CHECK REJECT MSG with INVALID MESSAGE - REQUIRED TAG MISSING [MsgType:_AJ, Tag:_11]|10=018|
8=FIX.4.4|9=92|35=AJ|49=SNDR|56=TRGT|34=11|52=20090331-09:27:52.151|693=0001|694=2|55=IBM|38=4000|132=10.5|10=026|
8=FIX.4.4|9=140|35=1|34=104|49=SNDR|56=TRGT|52=20090407-09:48:19.812|112=         CHECK REJECT MSG with INVALID MESSAGE - REQUIRED TAG MISSING [MsgType:_AJ, Tag:_11]|10=018|
8=FIX.4.4|9=205|35=AK|49=SNDR|56=TRGT|34=12|52=20090331-09:27:52.151|664=0001|666=1|773=1|665=4|60=20060217-10:00:00|75=20060217|55=TESTA|80=1000|54=1|862=2|528=A|863=400|528=P|863=600|79=KTierney|6=20|381=20000|118=2000|10=209|
8=FIX.4.4|9=140|35=1|34=104|49=SNDR|56=TRGT|52=20090407-09:48:19.812|112=         CHECK REJECT MSG with INVALID MESSAGE - REQUIRED TAG MISSING [MsgType:_AK, Tag:_772]|10=018|
8=FIX.4.4|9=205|35=AK|49=SNDR|56=TRGT|34=12|52=20090331-09:27:52.151|664=0001|666=2|773=1|665=4|60=20060217-10:00:00|75=20060217|55=TESTA|80=1000|54=1|862=2|528=A|863=400|528=P|863=600|79=KTierney|6=20|381=20000|118=2000|10=209|
8=FIX.4.4|9=140|35=1|34=104|49=SNDR|56=TRGT|52=20090407-09:48:19.812|112=         CHECK REJECT MSG with INVALID MESSAGE - REQUIRED TAG MISSING [MsgType:_AK, Tag:_772]|10=018|
8=FIX.4.4|9=125|35=AS|49=SNDR|56=TRGT|34=7|52=20090331-09:29:10.885|755=0001|71=1|794=5|87=0|857=0|54=2|55=TESTB|53=10000|6=10.5|75=20060217|10=124|
8=FIX.4.4|9=140|35=1|34=104|49=SNDR|56=TRGT|52=20090407-09:48:19.812|112=         CHECK REJECT MSG with INVALID MESSAGE - REQUIRED TAG MISSING [MsgType:_AS, Tag:_795]|10=018|
8=FIX.4.4|9=125|35=AS|49=SNDR|56=TRGT|34=7|52=20090331-09:29:10.885|755=0001|71=1|795=000795|794=5|87=0|857=0|54=2|55=TESTB|53=10000|6=10.5|75=20060217|10=124|
8=FIX.4.4|9=140|35=1|34=104|49=SNDR|56=TRGT|52=20090407-09:48:19.812|112=         CHECK REJECT MSG with INVALID MESSAGE - REQUIRED TAG MISSING [MsgType:_AS, Tag:_796]|10=018|
8=FIX.4.4|9=125|35=AS|49=SNDR|56=TRGT|34=7|52=20090331-09:29:10.885|755=0001|71=0|794=5|87=1|857=0|54=2|55=TESTB|53=10000|6=10.5|75=20060217|10=124|
8=FIX.4.4|9=140|35=1|34=104|49=SNDR|56=TRGT|52=20090407-09:48:19.812|112=         CHECK REJECT MSG with INVALID MESSAGE - REQUIRED TAG MISSING [MsgType:_AS, Tag:_88]|10=018|
8=FIX.4.4|9=95|35=AT|49=SNDR|56=TRGT|34=8|52=20090331-09:29:10.885|755=0001|70=0001|60=20060217-10:00:00|87=1|10=165|
8=FIX.4.4|9=140|35=1|34=104|49=SNDR|56=TRGT|52=20090407-09:48:19.812|112=         CHECK REJECT MSG with INVALID MESSAGE - REQUIRED TAG MISSING [MsgType:_AT, Tag:_88]|10=018|
8=FIX.4.4|9=95|35=AT|49=SNDR|56=TRGT|34=8|52=20090331-09:29:10.885|755=0001|70=0001|60=20060217-10:00:00|87=0|794=8|10=165|
8=FIX.4.4|9=140|35=1|34=104|49=SNDR|56=TRGT|52=20090407-09:48:19.812|112=         CHECK REJECT MSG with INVALID MESSAGE - REQUIRED TAG MISSING [MsgType:_AT, Tag:_808]|10=018|
8=FIX.4.4|9=106|35=AU|49=SNDR|56=TRGT|34=9|52=20090331-09:29:10.885|664=0001|60=20060217-10:00:00|75=20060217|940=1|10=229|
8=FIX.4.4|9=140|35=1|34=104|49=SNDR|56=TRGT|52=20090407-09:48:19.812|112=         CHECK REJECT MSG with INVALID MESSAGE - REQUIRED TAG MISSING [MsgType:_AU, Tag:_774]|10=018|
8=FIX.4.4|9=83|35=AV|49=SNDR|56=TRGT|34=10|52=20090331-09:29:10.885|791=0001|60=20060217-10:00:00|79=00079|10=138|
8=FIX.4.4|9=140|35=1|34=104|49=SNDR|56=TRGT|52=20090407-09:48:19.812|112=         CHECK REJECT MSG with INVALID MESSAGE - REQUIRED TAG MISSING [MsgType:_AV, Tag:_661]|10=018|