8=FIX.4.4|9=87|35=R|49=SNDR|56=TRGT|34=5|52=20090331-09:26:19.244|131=1272727|146=1|55=TESTA|537=1|40=2|10=029|
8=FIX.4.4|9=140|35=1|34=104|49=SNDR|56=TRGT|52=20090407-09:48:19.812|112=         CHECK REJECT MSG with INVALID MESSAGE - REQUIRED TAG MISSING [MsgType:_R, Tag:_11]|10=018|
8=FIX.4.4|9=79|35=S|49=SNDR|56=TRGT|34=6|52=20090331-09:26:19.244|117=11223|537=1|55=TESTB|133=15.3|10=025|
8=FIX.4.4|9=140|35=1|34=104|49=SNDR|56=TRGT|52=20090407-09:48:19.812|112=         CHECK REJECT MSG with INVALID MESSAGE - REQUIRED TAG MISSING [MsgType:_S, Tag:_54]|10=018|
8=FIX.4.4|9=96|35=T|49=SNDR|56=TRGT|34=7|52=20090331-09:26:19.244|777=112233|160=5|60=20060217-10:00:00|10=231|
8=FIX.4.4|9=140|35=1|34=104|49=SNDR|56=TRGT|52=20090407-09:48:19.812|112=         CHECK REJECT MSG with INVALID MESSAGE - REQUIRED TAG MISSING [MsgType:_T, Tag:_792]|10=018|
8=FIX.4.4|9=96|35=T|49=SNDR|56=TRGT|34=7|52=20090331-09:26:19.244|777=112233|160=4|60=20060217-10:00:00|10=231|
8=FIX.4.4|9=140|35=1|34=104|49=SNDR|56=TRGT|52=20090407-09:48:19.812|112=         CHECK REJECT MSG with INVALID MESSAGE - REQUIRED TAG MISSING [MsgType:_T, Tag:_11]|10=018|
8=FIX.4.4|9=96|35=T|49=SNDR|56=TRGT|34=7|52=20090331-09:26:19.244|777=112233|160=1|60=20060217-10:00:00|10=231|
8=FIX.4.4|9=140|35=1|34=104|49=SNDR|56=TRGT|52=20090407-09:48:19.812|112=         CHECK REJECT MSG with INVALID MESSAGE - REQUIRED TAG MISSING [MsgType:_T, Tag:_778]|10=018|
8=FIX.4.4|9=96|35=T|49=SNDR|56=TRGT|34=7|52=20090331-09:26:19.244|777=112233|160=1|778=1|60=20060217-10:00:00|10=231|
8=FIX.4.4|9=140|35=1|34=104|49=SNDR|56=TRGT|52=20090407-09:48:19.812|112=         CHECK REJECT MSG with INVALID MESSAGE - REQUIRED TAG MISSING [MsgType:_T, Tag:_162]|10=018|
8=FIX.4.4|9=96|35=T|49=SNDR|56=TRGT|34=7|52=20090331-09:26:19.244|777=112233|160=1|778=1|162=000162|163=C|60=20060217-10:00:00|10=231|
8=FIX.4.4|9=140|35=1|34=104|49=SNDR|56=TRGT|52=20090407-09:48:19.812|112=         CHECK REJECT MSG with INVALID MESSAGE - REQUIRED TAG MISSING [MsgType:_T, Tag:_214]|10=018|
8=FIX.4.4|9=96|35=T|49=SNDR|56=TRGT|34=7|52=20090331-09:26:19.244|777=112233|160=1|778=1|162=000162|163=C|214=000214|60=20060217-10:00:00|10=231|
8=FIX.4.4|9=140|35=1|34=104|49=SNDR|56=TRGT|52=20090407-09:48:19.812|112=         CHECK REJECT MSG with INVALID MESSAGE - REQUIRED TAG MISSING [MsgType:_T, Tag:_168]|10=018|
8=FIX.4.4|9=96|35=T|49=SNDR|56=TRGT|34=7|52=20090331-09:26:19.244|777=112233|160=1|778=1|162=000162|163=C|214=000214|168=20060218-10:00:00|60=20060217-10:00:00|10=231|
8=FIX.4.4|9=140|35=1|34=104|49=SNDR|56=TRGT|52=20090407-09:48:19.812|112=         CHECK REJECT MSG with INVALID MESSAGE - REQUIRED TAG MISSING [MsgType:_T, Tag:_779]|10=018|
