8=FIX.4.4|9=81|35=6|49=SNDR|56=TRGT|34=2|52=20090331-09:08:20.372|23=24|28=C|55=TESTB|54=1|27=S|10=080|
8=FIX.4.4|9=140|35=1|34=104|49=SNDR|56=TRGT|52=20090407-09:48:19.812|112=         CHECK REJECT MSG with INVALID MESSAGE - REQUIRED TAG MISSING [MsgType:_6, Tag:_26]|10=018|
8=FIX.4.4|9=84|35=7|49=SNDR|56=TRGT|34=3|52=20090331-09:08:20.372|2=20|5=R|55=TESTB|4=T|53=1000000|10=212|
8=FIX.4.4|9=140|35=1|34=104|49=SNDR|56=TRGT|52=20090407-09:48:19.812|112=         CHECK REJECT MSG with INVALID MESSAGE - REQUIRED TAG MISSING [MsgType:_7, Tag:_3]|10=018|
8=FIX.4.4|9=135|35=8|49=SNDR|56=TRGT|34=4|52=20090331-09:08:20.372|37=11111111|17=12|39=1|150=F|55=TESTB|54=1|38=1000|847=2|151=600|14=400|6=10|32=400|31=10|10=212|
8=FIX.4.4|9=140|35=1|34=104|49=SNDR|56=TRGT|52=20090407-09:48:19.812|112=         CHECK REJECT MSG with INVALID MESSAGE - REQUIRED TAG MISSING [MsgType:_8, Tag:_849]|10=018|
