8=FIX.4.4|9=165|35=s|49=SNDR|56=TRGT|34=7|52=20090331-09:15:28.071|548=90001008|549=1|550=0|552=2|54=1|11=B101010|38=4000|54=2|11=S101010|38=5000|121=Y|55=TESTA|60=20060217-10:00:00|40=1|10=253|
8=FIX.4.4|9=140|35=1|34=104|49=SNDR|56=TRGT|52=20090407-09:48:19.812|112=         CHECK REJECT MSG with INVALID MESSAGE - REQUIRED TAG MISSING [MsgType:_s, Tag:_120]|10=018|
8=FIX.4.4|9=165|35=s|49=SNDR|56=TRGT|34=7|52=20090331-09:15:28.071|548=90001008|549=1|550=0|552=2|54=1|11=B101010|38=4000|54=2|11=S101010|38=5000|55=TESTA|48=00048|60=20060217-10:00:00|40=1|10=253|
8=FIX.4.4|9=140|35=1|34=104|49=SNDR|56=TRGT|52=20090407-09:48:19.812|112=         CHECK REJECT MSG with INVALID MESSAGE - REQUIRED TAG MISSING [MsgType:_s, Tag:_22]|10=018|
8=FIX.4.4|9=165|35=s|49=SNDR|56=TRGT|34=7|52=20090331-09:15:28.071|548=90001008|549=1|550=0|552=2|54=1|11=B101010|38=4000|54=2|11=S101010|38=5000|55=TESTA|63=6|60=20060217-10:00:00|40=1|10=253|
8=FIX.4.4|9=140|35=1|34=104|49=SNDR|56=TRGT|52=20090407-09:48:19.812|112=         CHECK REJECT MSG with INVALID MESSAGE - REQUIRED TAG MISSING [MsgType:_s, Tag:_64]|10=018|
8=FIX.4.4|9=165|35=s|49=SNDR|56=TRGT|34=7|52=20090331-09:15:28.071|548=90001008|549=1|550=0|552=2|54=1|11=B101010|38=4000|54=2|11=S101010|38=5000|55=TESTA|60=20060217-10:00:00|40=4|44=10|10=253|
8=FIX.4.4|9=140|35=1|34=104|49=SNDR|56=TRGT|52=20090407-09:48:19.812|112=         CHECK REJECT MSG with INVALID MESSAGE - REQUIRED TAG MISSING [MsgType:_s, Tag:_99]|10=018|
8=FIX.4.4|9=165|35=s|49=SNDR|56=TRGT|34=7|52=20090331-09:15:28.071|548=90001008|549=1|550=0|552=2|54=1|11=B101010|38=4000|54=2|11=S101010|38=5000|55=TESTA|60=20060217-10:00:00|40=E|10=253|
8=FIX.4.4|9=140|35=1|34=104|49=SNDR|56=TRGT|52=20090407-09:48:19.812|112=         CHECK REJECT MSG with INVALID MESSAGE - REQUIRED TAG MISSING [MsgType:_s, Tag:_23]|10=018|
8=FIX.4.4|9=165|35=s|49=SNDR|56=TRGT|34=7|52=20090331-09:15:28.071|548=90001008|549=1|550=0|552=2|54=1|11=B101010|38=4000|54=2|11=S101010|38=5000|55=TESTA|60=20060217-10:00:00|40=D|10=253|
8=FIX.4.4|9=140|35=1|34=104|49=SNDR|56=TRGT|52=20090407-09:48:19.812|112=         CHECK REJECT MSG with INVALID MESSAGE - REQUIRED TAG MISSING [MsgType:_s, Tag:_117]|10=018|
8=FIX.4.4|9=165|35=s|49=SNDR|56=TRGT|34=7|52=20090331-09:15:28.071|548=90001008|549=1|550=0|552=2|54=1|11=B101010|38=4000|54=2|11=S101010|38=5000|55=TESTA|60=20060217-10:00:00|40=1|59=6|10=253|
8=FIX.4.4|9=140|35=1|34=104|49=SNDR|56=TRGT|52=20090407-09:48:19.812|112=         CHECK REJECT MSG with INVALID MESSAGE - REQUIRED TAG MISSING [MsgType:_s, Tag:_432]|10=018|
8=FIX.4.4|9=165|35=s|49=SNDR|56=TRGT|34=7|52=20090331-09:15:28.071|548=90001008|549=1|550=0|552=2|54=1|11=B101010|38=4000|54=2|11=S101010|38=5000|55=TESTA|60=20060217-10:00:00|40=1|847=2|10=253|
8=FIX.4.4|9=140|35=1|34=104|49=SNDR|56=TRGT|52=20090407-09:48:19.812|112=         CHECK REJECT MSG with INVALID MESSAGE - REQUIRED TAG MISSING [MsgType:_s, Tag:_849]|10=018|
