8=FIX.4.4|9=125|35=AS|49=SNDR|56=TRGT|34=7|52=20090331-09:29:10.885|755=0001|71=1|794=5|87=0|857=0|54=2|55=TESTB|53=10000|6=10.5|75=20060217|10=124|
8=FIX.4.4|9=140|35=1|34=104|49=SNDR|56=TRGT|52=20090407-09:48:19.812|112=         CHECK REJECT MSG with INVALID MESSAGE - REQUIRED TAG MISSING [MsgType:_AS, Tag:_795]|10=018|
8=FIX.4.4|9=125|35=AS|49=SNDR|56=TRGT|34=7|52=20090331-09:29:10.885|755=0001|71=1|795=000795|794=5|87=0|857=0|54=2|55=TESTB|53=10000|6=10.5|75=20060217|10=124|
8=FIX.4.4|9=140|35=1|34=104|49=SNDR|56=TRGT|52=20090407-09:48:19.812|112=         CHECK REJECT MSG with INVALID MESSAGE - REQUIRED TAG MISSING [MsgType:_AS, Tag:_796]|10=018|
8=FIX.4.4|9=125|35=AS|49=SNDR|56=TRGT|34=7|52=20090331-09:29:10.885|755=0001|71=0|794=5|87=1|857=0|54=2|55=TESTB|53=10000|6=10.5|75=20060217|10=124|
8=FIX.4.4|9=140|35=1|34=104|49=SNDR|56=TRGT|52=20090407-09:48:19.812|112=         CHECK REJECT MSG with INVALID MESSAGE - REQUIRED TAG MISSING [MsgType:_AS, Tag:_88]|10=018|
8=FIX.4.4|9=95|35=AT|49=SNDR|56=TRGT|34=8|52=20090331-09:29:10.885|755=0001|70=0001|60=20060217-10:00:00|87=1|10=165|
8=FIX.4.4|9=140|35=1|34=104|49=SNDR|56=TRGT|52=20090407-09:48:19.812|112=         CHECK REJECT MSG with INVALID MESSAGE - REQUIRED TAG MISSING [MsgType:_AT, Tag:_88]|10=018|
8=FIX.4.4|9=95|35=AT|49=SNDR|56=TRGT|34=8|52=20090331-09:29:10.885|755=0001|70=0001|60=20060217-10:00:00|87=0|794=8|10=165|
8=FIX.4.4|9=140|35=1|34=104|49=SNDR|56=TRGT|52=20090407-09:48:19.812|112=         CHECK REJECT MSG with INVALID MESSAGE - REQUIRED TAG MISSING [MsgType:_AT, Tag:_808]|10=018|
8=FIX.4.4|9=106|35=AU|49=SNDR|56=TRGT|34=9|52=20090331-09:29:10.885|664=0001|60=20060217-10:00:00|75=20060217|940=1|10=229|
8=FIX.4.4|9=140|35=1|34=104|49=SNDR|56=TRGT|52=20090407-09:48:19.812|112=         CHECK REJECT MSG with INVALID MESSAGE - REQUIRED TAG MISSING [MsgType:_AU, Tag:_774]|10=018|
8=FIX.4.4|9=83|35=AV|49=SNDR|56=TRGT|34=10|52=20090331-09:29:10.885|791=0001|60=20060217-10:00:00|79=00079|10=138|
8=FIX.4.4|9=140|35=1|34=104|49=SNDR|56=TRGT|52=20090407-09:48:19.812|112=         CHECK REJECT MSG with INVALID MESSAGE - REQUIRED TAG MISSING [MsgType:_AV, Tag:_661]|10=018|
