8=FIX.4.4|9=144|35=B|49=SNDR|56=TRGT|34=2|52=20090331-09:17:04.212|148=Weather|358=10|33=4|58=In the evening |58=it might be wet |58=and windy.|58= Take your coat on.|10=190|
8=FIX.4.4|9=140|35=1|34=104|49=SNDR|56=TRGT|52=20090407-09:48:19.812|112=         CHECK REJECT MSG with INVALID MESSAGE - REQUIRED TAG MISSING [MsgType:_B, Tag:_359]|10=018|
8=FIX.4.4|9=144|35=B|49=SNDR|56=TRGT|34=2|52=20090331-09:17:04.212|148=Weather|33=4|58=In the evening |58=it might be wet |58=and windy.|58= Take your coat on.|95=2|10=190|
8=FIX.4.4|9=140|35=1|34=104|49=SNDR|56=TRGT|52=20090407-09:48:19.812|112=         CHECK REJECT MSG with INVALID MESSAGE - REQUIRED TAG MISSING [MsgType:_B, Tag:_96]|10=018|
8=FIX.4.4|9=149|35=C|49=SNDR|56=TRGT|34=3|52=20090331-09:17:04.212|164=111111111|94=0|147=Bunny's Birthday|356=10|33=3|58=Hello, Bunny!|58=Happy Birthday to you :)|58=Bye.|10=198|
8=FIX.4.4|9=140|35=1|34=104|49=SNDR|56=TRGT|52=20090407-09:48:19.812|112=         CHECK REJECT MSG with INVALID MESSAGE - REQUIRED TAG MISSING [MsgType:_C, Tag:_357]|10=018|
8=FIX.4.4|9=149|35=C|49=SNDR|56=TRGT|34=3|52=20090331-09:17:04.212|164=111111111|94=0|147=Bunny's Birthday|33=3|58=Hello, Bunny!|58=Happy Birthday to you :)|58=Bye.|95=2|10=198|
8=FIX.4.4|9=140|35=1|34=104|49=SNDR|56=TRGT|52=20090407-09:48:19.812|112=         CHECK REJECT MSG with INVALID MESSAGE - REQUIRED TAG MISSING [MsgType:_C, Tag:_96]|10=018|
8=FIX.4.4|9=111|35=D|49=SNDR|56=TRGT|34=4|52=20090331-09:17:04.212|11=90001008|63=6|55=TESTB|54=1|60=20060217-10:00:00|38=4000|40=1|10=246|
8=FIX.4.4|9=140|35=1|34=104|49=SNDR|56=TRGT|52=20090407-09:48:19.812|112=         CHECK REJECT MSG with INVALID MESSAGE - REQUIRED TAG MISSING [MsgType:_D, Tag:_64]|10=018|
8=FIX.4.4|9=111|35=D|49=SNDR|56=TRGT|34=4|52=20090331-09:17:04.212|11=90001008|55=TESTB|54=5|60=20060217-10:00:00|38=4000|40=1|10=246|
8=FIX.4.4|9=140|35=1|34=104|49=SNDR|56=TRGT|52=20090407-09:48:19.812|112=         CHECK REJECT MSG with INVALID MESSAGE - REQUIRED TAG MISSING [MsgType:_D, Tag:_114]|10=018|
8=FIX.4.4|9=151|35=E|49=SNDR|56=TRGT|34=5|52=20090331-09:17:04.212|66=20012411|394=3|68=1|73=2|11=1131|67=1|55=TESTB3|54=3|38=3000|11=1132|67=2|55=TESTB2|54=1|38=1000|40=E|10=084|
8=FIX.4.4|9=140|35=1|34=104|49=SNDR|56=TRGT|52=20090407-09:48:19.812|112=         CHECK REJECT MSG with INVALID MESSAGE - REQUIRED TAG MISSING [MsgType:_E, Tag:_23]|10=018|
8=FIX.4.4|9=151|35=E|49=SNDR|56=TRGT|34=5|52=20090331-09:17:04.212|66=20012411|394=3|68=1|73=2|11=1131|67=1|55=TESTB3|54=3|38=3000|11=1132|67=2|55=TESTB2|54=1|38=1000|40=D|10=084|
8=FIX.4.4|9=140|35=1|34=104|49=SNDR|56=TRGT|52=20090407-09:48:19.812|112=         CHECK REJECT MSG with INVALID MESSAGE - REQUIRED TAG MISSING [MsgType:_E, Tag:_117]|10=018|
8=FIX.4.4|9=128|35=G|49=SNDR|56=TRGT|34=7|52=20090331-09:17:04.228|11=12233345|41=90001008|21=2|55=TESTB|48=00048|54=1|60=20060117-10:00:00|38=4000|40=1|10=023|
8=FIX.4.4|9=140|35=1|34=104|49=SNDR|56=TRGT|52=20090407-09:48:19.812|112=         CHECK REJECT MSG with INVALID MESSAGE - REQUIRED TAG MISSING [MsgType:_G, Tag:_22]|10=018|
8=FIX.4.4|9=128|35=G|49=SNDR|56=TRGT|34=7|52=20090331-09:17:04.228|11=12233345|41=90001008|21=2|55=TESTB|54=1|60=20060117-10:00:00|38=4000|40=1|847=2|10=023|
8=FIX.4.4|9=140|35=1|34=104|49=SNDR|56=TRGT|52=20090407-09:48:19.812|112=         CHECK REJECT MSG with INVALID MESSAGE - REQUIRED TAG MISSING [MsgType:_G, Tag:_849]|10=018|
