8=FIX.4.4|9=182|35=i|49=SNDR|56=TRGT|34=10|52=20090331-09:13:20.413|117=1116226|296=1|302=000302|304=1|295=1|299=000299|10=246|
8=FIX.4.4|9=140|35=1|34=104|49=SNDR|56=TRGT|52=20090407-09:48:19.812|112=         CHECK REJECT MSG with INVALID MESSAGE - REQUIRED TAG MISSING [MsgType:_i, Tag:_132]|10=018|
8=FIX.4.4|9=95|35=k|49=SNDR|56=TRGT|34=12|52=20090331-09:13:20.413|391=20012411|374=N|393=2|394=1|398=1|418=A|419=4|10=148|
8=FIX.4.4|9=140|35=1|34=104|49=SNDR|56=TRGT|52=20090407-09:48:19.812|112=         CHECK REJECT MSG with INVALID MESSAGE - REQUIRED TAG MISSING [MsgType:_k, Tag:_399]|10=018|
8=FIX.4.4|9=95|35=k|49=SNDR|56=TRGT|34=12|52=20090331-09:13:20.413|391=20012411|374=N|393=2|394=2|420=1|418=A|419=4|10=148|
8=FIX.4.4|9=140|35=1|34=104|49=SNDR|56=TRGT|52=20090407-09:48:19.812|112=         CHECK REJECT MSG with INVALID MESSAGE - REQUIRED TAG MISSING [MsgType:_k, Tag:_66]|10=018|
8=FIX.4.4|9=95|35=k|49=SNDR|56=TRGT|34=12|52=20090331-09:13:20.413|391=20012411|374=N|393=2|394=2|420=1|66=00066|63=6|418=A|419=4|10=148|
8=FIX.4.4|9=140|35=1|34=104|49=SNDR|56=TRGT|52=20090407-09:48:19.812|112=         CHECK REJECT MSG with INVALID MESSAGE - REQUIRED TAG MISSING [MsgType:_k, Tag:_64]|10=018|
8=FIX.4.4|9=81|35=l|49=SNDR|56=TRGT|34=13|52=20090331-09:13:20.413|420=2|12=5|13=1|12=0.07|13=2|63=6|10=158|
8=FIX.4.4|9=140|35=1|34=104|49=SNDR|56=TRGT|52=20090407-09:48:19.812|112=         CHECK REJECT MSG with INVALID MESSAGE - REQUIRED TAG MISSING [MsgType:_l, Tag:_64]|10=018|
