8=FIX.4.4|9=72|35=o|49=SNDR|56=TRGT|34=3|52=20090331-09:15:28.055|513=3659000000|514=1|10=105|
8=FIX.4.4|9=140|35=1|34=104|49=SNDR|56=TRGT|52=20090407-09:48:19.812|112=         CHECK REJECT MSG with INVALID MESSAGE - REQUIRED TAG MISSING [MsgType:_o, Tag:_508]|10=018|
8=FIX.4.4|9=78|35=p|49=SNDR|56=TRGT|34=4|52=20090331-09:15:28.055|513=3659000000|514=2|506=A|10=139|
8=FIX.4.4|9=140|35=1|34=104|49=SNDR|56=TRGT|52=20090407-09:48:19.812|112=         CHECK REJECT MSG with INVALID MESSAGE - REQUIRED TAG MISSING [MsgType:_p, Tag:_508]|10=018|
8=FIX.4.4|9=74|35=r|49=SNDR|56=TRGT|34=6|52=20090331-09:15:28.055|37=4511223|530=7|531=0|10=192|
8=FIX.4.4|9=140|35=1|34=104|49=SNDR|56=TRGT|52=20090407-09:48:19.812|112=         CHECK REJECT MSG with INVALID MESSAGE - REQUIRED TAG MISSING [MsgType:_r, Tag:_532]|10=018|
8=FIX.4.4|9=74|35=r|49=SNDR|56=TRGT|34=6|52=20090331-09:15:28.055|37=4511223|530=7|531=0|532=1|534=1|10=192|
8=FIX.4.4|9=140|35=1|34=104|49=SNDR|56=TRGT|52=20090407-09:48:19.812|112=         CHECK REJECT MSG with INVALID MESSAGE - REQUIRED TAG MISSING [MsgType:_r, Tag:_41]|10=018|
