8=FIX.4.0|9=119|35=E|49=SNDR40|56=TRGT40|34=2|52=20090318-10:23:25|66=20012411|68=1|67=3|11=1131|63=6|21=3|55=TESTB3|54=3|38=3000|40=1|10=012|