8=FIX.4.1|9=119|35=E|49=SNDR41|56=TRGT41|34=2|52=20090318-10:23:58|66=20012411|67=2|68=3|11=1131|63=6|21=3|55=TESTB3|54=3|38=3000|40=1|10=022|