8=FIX.4.2|9=104|35=T|49=SNDR42|56=TRGT42|34=3|52=20090318-10:24:33.006|162=11223|163=N|160=2|165=1|60=20060217-10:00:00|10=099|