8=FIX.4.3|9=132|35=G|49=SNDR43|56=TRGT43|34=2|52=20090318-10:24:43.490|11=12233345|41=90001008|21=2|55=TESTB|54=1|60=20060117-10:00:00|38=4000|40=2|10=218|