8=FIX.4.3|9=104|35=T|49=SNDR43|56=TRGT43|34=3|52=20090318-10:28:12.362|162=11223|163=N|160=3|165=1|60=20060217-10:00:00|10=109|