8=FIXT.1.1|9=132|35=G|1128=7|49=SNDR50|56=TRGT50|34=2|52=20090318-10:30:05.236|41=90001008|11=12233345|55=IBM|54=1|60=20080717-10:00:00|38=4000|40=2|10=234|