8=FIXT.1.1|9=88|35=6|49=SNDR|56=TRGT|1128=5|34=2|52=20090311-17:12:19.731|23=24|28=N|55=TESTB|54=1|27=S|10=227|
8=FIXT.1.1|9=91|35=7|49=SNDR|56=TRGT|1128=5|34=3|52=20090311-17:12:19.731|2=20|5=N|55=TESTB|4=T|53=1000000|10=094|
8=FIXT.1.1|9=127|35=8|49=SNDR|56=TRGT|1128=5|34=4|52=20090311-17:12:19.746|37=11111111|17=11|39=0|150=0|55=TESTB|54=1|38=1000|151=1000|14=0|6=0|10=171|
8=FIXT.1.1|9=142|35=8|49=SNDR|56=TRGT|1128=5|34=5|52=20090311-17:12:19.746|37=11111111|17=12|39=1|150=F|55=TESTB|54=1|38=1000|151=600|14=400|6=10|32=400|31=10|10=101|
8=FIXT.1.1|9=111|35=9|49=SNDR|56=TRGT|1128=5|34=6|52=20090311-17:12:19.746|37=11111111|11=12121212122|41=11111111111|39=0|434=1|10=171|
8=FIXT.1.1|9=83|35=AA|49=SNDR|56=TRGT|1128=5|34=7|52=20090311-17:12:19.746|320=0001|322=0001|560=0|10=109|
8=FIXT.1.1|9=164|35=AB|49=SNDR|56=TRGT|1128=5|34=8|50=30737|97=Y|52=20090311-17:12:19.746|11=90001008|21=2|54=1|55=TESTB|555=2|600=TESTA|600=TESTC|60=20060217-10:00:00|38=4000|40=1|10=020|
8=FIXT.1.1|9=176|35=AC|49=SNDR|56=TRGT|1128=5|34=9|50=30737|97=Y|52=20090311-17:12:19.746|11=90001008|41=93452234|21=2|54=1|55=TESTB|555=2|600=TESTA|600=TESTC|60=20060217-10:00:00|38=4000|40=1|10=092|
8=FIXT.1.1|9=93|35=AD|49=SNDR|56=TRGT|1128=5|34=10|50=30737|97=Y|52=20090311-17:12:19.746|568=90001008|569=0|10=155|
8=FIXT.1.1|9=197|35=AE|49=SNDR|56=TRGT|1128=5|34=11|50=30737|97=Y|52=20090311-17:12:19.746|571=90001008|150=F|570=N|55=TESTA|38=1000|32=1000|31=10.4|75=20060217|60=20060217-10:00:00|552=2|54=1|37=0001|54=2|37=0002|10=028|
8=FIXT.1.1|9=89|35=AF|49=SNDR|56=TRGT|1128=5|34=12|50=30737|97=Y|52=20090311-17:12:19.746|584=0001|585=1|10=208|
8=FIXT.1.1|9=108|35=AG|49=SNDR|56=TRGT|1128=5|34=13|50=30737|52=20090311-17:12:19.746|131=0001|658=1|146=2|55=TESTA|55=TESTB|10=070|
8=FIXT.1.1|9=102|35=AH|49=SNDR|56=TRGT|1128=5|34=14|50=30737|52=20090311-17:12:19.746|644=0001|146=2|55=TESTA|55=TESTB|10=057|
8=FIXT.1.1|9=96|35=AI|49=SNDR|56=TRGT|1128=5|34=15|50=30737|52=20090311-17:12:19.746|117=0001|55=TESTA|132=10.5|10=117|
8=FIXT.1.1|9=68|35=a|49=SNDR|56=TRGT|1128=5|34=16|52=20090311-17:12:19.762|55=TESTB|10=116|
8=FIXT.1.1|9=65|35=b|49=SNDR|56=TRGT|1128=5|34=17|52=20090311-17:12:19.762|297=0|10=089|
8=FIXT.1.1|9=109|35=b|49=SNDR|56=TRGT|1128=5|34=18|52=20090311-17:12:19.762|297=0|296=2|302=0001|311=TESTB|302=0002|311=TESTC|10=110|
8=FIXT.1.1|9=152|35=B|49=SNDR|56=TRGT|1128=5|34=19|52=20090311-17:12:19.778|148=Weather|33=4|58=In the evening |58=it might be wet |58=and windy.|58= Take your coat on.|10=145|
8=FIXT.1.1|9=157|35=C|49=SNDR|56=TRGT|1128=5|34=20|52=20090311-17:12:19.778|164=111111111|94=0|147=Bunny's Birthday|33=3|58=Hello, Bunny!|58=Happy Birthday to you :)|58=Bye.|10=144|
8=FIXT.1.1|9=74|35=c|49=SNDR|56=TRGT|1128=5|34=21|52=20090311-17:12:19.778|320=0001|321=0|10=228|
8=FIXT.1.1|9=138|35=D|49=SNDR|56=TRGT|1128=5|34=22|50=30737|97=Y|52=20090311-17:12:19.778|11=90001008|21=2|55=TESTB|54=1|60=20060217-10:00:00|38=4000|40=1|10=076|
8=FIXT.1.1|9=150|35=D|49=SNDR|56=TRGT|1128=5|34=23|50=30737|97=Y|52=20090311-17:12:19.778|11=90001008|21=2|55=TESTB|54=1|60=20060217-10:00:00|38=4000|40=G|640=80000.0|10=139|
8=FIXT.1.1|9=83|35=d|49=SNDR|56=TRGT|1128=5|34=24|52=20090311-17:12:19.778|320=0001|322=0001|323=1|10=129|
8=FIXT.1.1|9=159|35=E|49=SNDR|56=TRGT|1128=5|34=25|52=20090311-17:12:19.778|66=20012411|394=3|68=1|73=2|11=1131|67=1|55=TESTB3|54=3|38=3000|11=1132|67=2|55=TESTB2|54=1|38=1000|10=042|
8=FIXT.1.1|9=83|35=e|49=SNDR|56=TRGT|1128=5|34=26|52=20090311-17:12:19.778|324=0001|55=TESTB|263=0|10=030|
8=FIXT.1.1|9=126|35=F|49=SNDR|56=TRGT|1128=5|34=27|52=20090311-17:12:19.778|41=90001008|11=16161516|55=TESTB|54=1|60=20060117-10:00:00|38=4000|10=057|
8=FIXT.1.1|9=68|35=f|49=SNDR|56=TRGT|1128=5|34=28|52=20090311-17:12:19.778|55=TESTB|10=131|
8=FIXT.1.1|9=136|35=G|49=SNDR|56=TRGT|1128=5|34=29|52=20090311-17:12:19.778|11=12233345|41=90001008|21=2|55=TESTB|54=1|60=20060117-10:00:00|38=4000|40=1|10=223|
8=FIXT.1.1|9=74|35=g|49=SNDR|56=TRGT|1128=5|34=30|52=20090311-17:12:19.778|335=0001|263=0|10=243|
8=FIXT.1.1|9=85|35=H|49=SNDR|56=TRGT|1128=5|34=31|52=20090311-17:12:19.778|11=90001008|55=TESTB|54=1|10=104|
8=FIXT.1.1|9=78|35=h|49=SNDR|56=TRGT|1128=5|34=32|52=20090311-17:12:19.793|336=PRE-OPEN|340=2|10=123|
8=FIXT.1.1|9=189|35=i|49=SNDR|56=TRGT|1128=5|34=33|52=20090311-17:12:19.793|117=1116226|296=2|302=0001|304=5|295=2|299=11|132=10|299=12|133=11|302=0002|304=5|295=3|299=21|132=12|299=22|133=13|299=23|133=14|10=163|
8=FIXT.1.1|9=211|35=J|49=SNDR|56=TRGT|1128=5|34=34|52=20090311-17:12:19.793|70=1116226|71=0|626=1|73=2|11=90001008|11=90000008|54=1|55=TESTB|53=1004000|6=30|75=20030821|78=3|79=1000|80=500000|79=2000|80=400000|79=3000|80=104000|10=035|
8=FIXT.1.1|9=71|35=j|49=SNDR|56=TRGT|1128=5|34=35|52=20090311-17:12:19.793|372=9|380=0|10=110|
8=FIXT.1.1|9=102|35=k|49=SNDR|56=TRGT|1128=5|34=36|52=20090311-17:12:19.793|391=20012411|374=N|393=2|394=3|418=A|419=4|10=091|
8=FIXT.1.1|9=114|35=k|49=SNDR|56=TRGT|1128=5|34=37|52=20090311-17:12:19.793|391=20012411|374=N|393=2|394=1|398=1|399=1|418=A|419=4|10=132|
8=FIXT.1.1|9=92|35=K|49=SNDR|56=TRGT|1128=5|34=38|52=20090311-17:12:19.793|66=20012411|60=20060217-10:00:00|10=102|
8=FIXT.1.1|9=88|35=l|49=SNDR|56=TRGT|1128=5|34=39|52=20090311-17:12:19.793|420=2|12=5|13=1|12=0.07|13=2|10=073|
8=FIXT.1.1|9=92|35=L|49=SNDR|56=TRGT|1128=5|34=40|52=20090311-17:12:19.793|66=20012411|60=20060217-09:00:00|10=104|
8=FIXT.1.1|9=71|35=M|49=SNDR|56=TRGT|1128=5|34=41|52=20090311-17:12:19.793|66=20012411|10=103|
8=FIXT.1.1|9=113|35=m|49=SNDR|56=TRGT|1128=5|34=42|52=20090311-17:12:19.793|66=0002|422=4|428=2|55=TESTA|44=10.5|55=TESTB|44=11.8|10=047|
8=FIXT.1.1|9=228|35=N|49=SNDR|56=TRGT|1128=5|34=43|52=20090311-17:12:19.793|66=20012411|429=1|82=3|431=3|83=1|68=5|73=3|11=1111|14=11|39=1|151=89|84=0|6=12|11=1121|14=1000|39=1|151=500|84=1000|6=2.28|11=1131|14=2500|39=1|151=500|84=1500|6=34.11|10=008|
8=FIXT.1.1|9=197|35=n|49=SNDR|56=TRGT|1128=5|34=44|52=20090311-17:12:19.793|212=125|213=<?xml version="1.0" encoding="UTF-8"?><Message id="9688b52c7d01" type="TEST"><Tag name="SecurityID">873168AL2</Tag></Message>|10=208|
8=FIXT.1.1|9=80|35=o|49=SNDR|56=TRGT|1128=5|34=45|52=20090311-17:12:19.793|513=3659000001|514=0|10=047|
8=FIXT.1.1|9=91|35=o|49=SNDR|56=TRGT|1128=5|34=46|52=20090311-17:12:19.793|513=3659000001|514=1|508=000005|10=051|
8=FIXT.1.1|9=90|35=P|49=SNDR|56=TRGT|1128=5|34=47|52=20090311-17:12:19.809|70=3659000001|75=20030808|87=0|10=243|
8=FIXT.1.1|9=86|35=p|49=SNDR|56=TRGT|1128=5|34=48|52=20090311-17:12:19.809|513=3659000001|514=0|506=A|10=081|
8=FIXT.1.1|9=96|35=p|49=SNDR|56=TRGT|1128=5|34=49|52=20090311-17:12:19.809|513=3659000001|514=1|508=00007|506=A|10=038|
8=FIXT.1.1|9=105|35=Q|49=SNDR|56=TRGT|1128=5|34=50|52=20090311-17:12:19.809|37=01923883|17=11|127=D|55=TESTB|54=1|38=4000|10=063|
8=FIXT.1.1|9=95|35=q|49=SNDR|56=TRGT|1128=5|34=51|52=20090311-17:12:19.809|11=11223|530=7|60=20060117-10:00:00|10=248|
8=FIXT.1.1|9=114|35=q|49=SNDR|56=TRGT|1128=5|34=52|52=20090311-17:12:19.809|11=11223|530=7|55=TESTA|311=TESTB|60=20060117-10:00:00|10=159|
8=FIXT.1.1|9=82|35=r|49=SNDR|56=TRGT|1128=5|34=53|52=20090311-17:12:19.809|37=4511223|530=7|531=7|10=127|
8=FIXT.1.1|9=122|35=r|49=SNDR|56=TRGT|1128=5|34=54|52=20090311-17:12:19.809|37=4511223|530=7|531=7|55=TESTA|311=TESTB|60=20060117-10:00:00|10=032|
8=FIXT.1.1|9=95|35=R|49=SNDR|56=TRGT|1128=5|34=55|52=20090311-17:12:19.809|131=1272727|146=2|55=TESTA|55=TESTB|10=221|
8=FIXT.1.1|9=192|35=s|49=SNDR|56=TRGT|1128=5|34=56|50=30737|97=Y|52=20090311-17:12:19.809|548=90001008|549=1|550=0|552=2|54=1|11=B101010|38=4000|54=2|11=S101010|38=5000|55=TESTA|21=1|60=20060217-10:00:00|40=1|10=065|
8=FIXT.1.1|9=234|35=s|49=SNDR|56=TRGT|1128=5|34=57|50=30737|97=Y|52=20090311-17:12:19.809|548=90001008|549=1|550=0|552=2|54=1|11=B101010|229=20070226|1=15785|38=4000|54=2|11=S101010|229=20070226|1=15785|38=5000|55=TESTA|21=1|60=20060217-10:00:00|40=1|10=013|
8=FIXT.1.1|9=87|35=S|49=SNDR|56=TRGT|1128=5|34=58|52=20090311-17:12:19.809|117=11223|55=TESTB|133=15.3|10=219|
8=FIXT.1.1|9=222|35=t|49=SNDR|56=TRGT|1128=5|34=59|50=30737|97=Y|52=20090311-17:12:19.809|548=42444008|551=30001008|549=1|550=0|552=2|54=1|11=B202020|41=B101010|38=4000|54=2|11=S202020|41=S101010|38=5000|55=TESTA|60=20060217-10:00:00|40=1|10=001|
8=FIXT.1.1|9=274|35=t|49=SNDR|56=TRGT|1128=5|34=60|50=30737|97=Y|52=20090311-17:12:19.809|548=42444008|551=30001008|549=1|550=0|552=2|54=1|11=B202020|41=B101010|229=20070223|1=15079|38=4000|54=2|11=S202020|41=S101010|229=20070222|1=15080|38=5000|55=TESTA|63=0|21=1|60=20060217-10:00:00|40=1|10=096|
8=FIXT.1.1|9=120|35=T|49=SNDR|56=TRGT|1128=5|34=61|52=20090311-17:12:19.809|162=11223|163=N|160=0|165=1|79=KTierney|60=20060217-10:00:00|10=059|
8=FIXT.1.1|9=129|35=T|49=SNDR|56=TRGT|1128=5|34=62|52=20090311-17:12:19.809|162=11223|163=N|214=0002|160=0|165=1|79=KTierney|60=20060217-10:00:00|10=220|
8=FIXT.1.1|9=217|35=u|49=SNDR|56=TRGT|1128=5|34=63|50=30737|97=Y|52=20090311-17:12:19.809|548=42444008|551=30001008|549=1|550=0|552=2|54=1|11=B202020|41=B101010|38=4000|54=2|11=S202020|41=S101010|38=5000|55=TESTA|60=20060217-10:00:00|10=046|
8=FIXT.1.1|9=123|35=V|49=SNDR|56=TRGT|1128=5|34=64|52=20090311-17:12:19.809|262=11223|263=0|264=0|267=2|269=0|269=1|146=2|55=TESTA|55=TESTB|10=220|
8=FIXT.1.1|9=69|35=v|49=SNDR|56=TRGT|1128=5|34=65|52=20090311-17:12:19.809|320=11223|10=050|
8=FIXT.1.1|9=100|35=W|49=SNDR|56=TRGT|1128=5|34=66|52=20090311-17:12:19.809|55=TESTA|268=2|269=4|270=10|269=5|270=11|10=059|
8=FIXT.1.1|9=100|35=W|49=SNDR|56=TRGT|1128=5|34=67|52=20090311-17:12:19.809|55=TESTA|268=2|269=4|270=10|269=5|270=11|10=060|
8=FIXT.1.1|9=85|35=w|49=SNDR|56=TRGT|1128=5|34=68|52=20090311-17:12:19.809|320=11223|322=22115|323=1|10=011|
8=FIXT.1.1|9=109|35=X|49=SNDR|56=TRGT|1128=5|34=69|52=20090311-17:12:19.809|268=2|279=1|280=0001|270=10|279=1|280=0002|270=11|10=077|
8=FIXT.1.1|9=75|35=x|49=SNDR|56=TRGT|1128=5|34=70|52=20090311-17:12:19.809|320=11223|559=4|10=066|
8=FIXT.1.1|9=69|35=Y|49=SNDR|56=TRGT|1128=5|34=71|52=20090311-17:12:19.809|262=11223|10=023|
8=FIXT.1.1|9=85|35=y|49=SNDR|56=TRGT|1128=5|34=72|52=20090311-17:12:19.809|320=11223|322=22334|560=0|10=013|
8=FIXT.1.1|9=75|35=z|49=SNDR|56=TRGT|1128=5|34=73|52=20090311-17:12:19.809|320=11223|559=4|10=071|
8=FIXT.1.1|9=75|35=Z|49=SNDR|56=TRGT|1128=5|34=74|52=20090311-17:12:19.809|117=11223|298=4|10=044|