8=FIX.4.4|9=180|35=J|49=SNDR|56=TRGT|34=9|52=20090331-09:17:04.228|70=1116226|71=1|626=1|857=0|54=1|55=TESTB|53=1004000|6=30|75=20030821|78=3|79=1000|80=500000|79=2000|80=400000|79=3000|80=104000|10=061|
8=FIX.4.4|9=140|35=1|34=104|49=SNDR|56=TRGT|52=20090407-09:48:19.812|112=         CHECK REJECT MSG with INVALID MESSAGE - REQUIRED TAG MISSING [MsgType:_J, Tag:_72]|10=018|
8=FIX.4.4|9=180|35=J|49=SNDR|56=TRGT|34=9|52=20090331-09:17:04.228|70=1116226|71=1|72=00072|626=1|857=0|54=1|55=TESTB|53=1004000|6=30|75=20030821|78=3|79=1000|80=500000|79=2000|80=400000|79=3000|80=104000|10=061|
8=FIX.4.4|9=140|35=1|34=104|49=SNDR|56=TRGT|52=20090407-09:48:19.812|112=         CHECK REJECT MSG with INVALID MESSAGE - REQUIRED TAG MISSING [MsgType:_J, Tag:_796]|10=018|
8=FIX.4.4|9=180|35=J|49=SNDR|56=TRGT|34=9|52=20090331-09:17:04.228|70=1116226|71=0|626=8|857=0|54=1|55=TESTB|53=1004000|6=30|75=20030821|78=3|79=1000|80=500000|79=2000|80=400000|79=3000|80=104000|10=061|
8=FIX.4.4|9=140|35=1|34=104|49=SNDR|56=TRGT|52=20090407-09:48:19.812|112=         CHECK REJECT MSG with INVALID MESSAGE - REQUIRED TAG MISSING [MsgType:_J, Tag:_808]|10=018|
8=FIX.4.4|9=180|35=J|49=SNDR|56=TRGT|34=9|52=20090331-09:17:04.228|70=1116226|71=0|626=1|196=000196|857=0|54=1|55=TESTB|53=1004000|6=30|75=20030821|78=3|79=1000|80=500000|79=2000|80=400000|79=3000|80=104000|10=061|
8=FIX.4.4|9=140|35=1|34=104|49=SNDR|56=TRGT|52=20090407-09:48:19.812|112=         CHECK REJECT MSG with INVALID MESSAGE - REQUIRED TAG MISSING [MsgType:_J, Tag:_197]|10=018|
8=FIX.4.4|9=180|35=J|49=SNDR|56=TRGT|34=9|52=20090331-09:17:04.228|70=1116226|71=0|626=1|857=1|54=1|55=TESTB|53=1004000|6=30|75=20030821|78=3|79=1000|80=500000|79=2000|80=400000|79=3000|80=104000|10=061|
8=FIX.4.4|9=140|35=1|34=104|49=SNDR|56=TRGT|52=20090407-09:48:19.812|112=         CHECK REJECT MSG with INVALID MESSAGE - REQUIRED TAG MISSING [MsgType:_J, Tag:_73]|10=018|
8=FIX.4.4|9=180|35=J|49=SNDR|56=TRGT|34=9|52=20090331-09:17:04.228|70=1116226|71=0|626=1|857=1|73=1|54=1|55=TESTB|53=1004000|6=30|75=20030821|78=3|79=1000|80=500000|79=2000|80=400000|79=3000|80=104000|10=061|
8=FIX.4.4|9=140|35=1|34=104|49=SNDR|56=TRGT|52=20090407-09:48:19.812|112=         CHECK REJECT MSG with INVALID MESSAGE - REQUIRED TAG MISSING [MsgType:_J, Tag:_11]|10=018|
8=FIX.4.4|9=180|35=J|49=SNDR|56=TRGT|34=9|52=20090331-09:17:04.228|70=1116226|71=0|626=1|857=0|54=1|55=TESTB|53=1004000|6=30|75=20030821|78=1|79=1000|10=061|
8=FIX.4.4|9=140|35=1|34=104|49=SNDR|56=TRGT|52=20090407-09:48:19.812|112=         CHECK REJECT MSG with INVALID MESSAGE - REQUIRED TAG MISSING [MsgType:_J, Tag:_80]|10=018|
8=FIX.4.4|9=180|35=J|49=SNDR|56=TRGT|34=9|52=20090331-09:17:04.228|70=1116226|71=0|626=1|857=0|54=1|55=TESTB|53=1004000|6=30|75=20030821|78=1|79=1000|80=500000|360=2|10=061|
8=FIX.4.4|9=140|35=1|34=104|49=SNDR|56=TRGT|52=20090407-09:48:19.812|112=         CHECK REJECT MSG with INVALID MESSAGE - REQUIRED TAG MISSING [MsgType:_J, Tag:_361]|10=018|
8=FIX.4.4|9=180|35=J|49=SNDR|56=TRGT|34=9|52=20090331-09:17:04.228|70=1116226|71=0|626=1|857=0|54=1|55=TESTB|53=1004000|6=30|75=20030821|78=1|79=1000|80=500000|119=0.5|10=061|
8=FIX.4.4|9=140|35=1|34=104|49=SNDR|56=TRGT|52=20090407-09:48:19.812|112=         CHECK REJECT MSG with INVALID MESSAGE - REQUIRED TAG MISSING [MsgType:_J, Tag:_120]|10=018|
8=FIX.4.4|9=180|35=J|49=SNDR|56=TRGT|34=9|52=20090331-09:17:04.228|70=1116226|71=0|626=1|857=0|54=1|55=TESTB|53=1004000|6=30|75=20030821|78=1|79=1000|80=500000|737=0.5|10=061|
8=FIX.4.4|9=140|35=1|34=104|49=SNDR|56=TRGT|52=20090407-09:48:19.812|112=         CHECK REJECT MSG with INVALID MESSAGE - REQUIRED TAG MISSING [MsgType:_J, Tag:_736]|10=018|
8=FIX.4.4|9=180|35=J|49=SNDR|56=TRGT|34=9|52=20090331-09:17:04.228|70=1116226|71=0|626=1|857=0|54=1|55=TESTB|53=1004000|6=30|75=20030821|78=1|79=1000|80=500000|780=2|10=061|
8=FIX.4.4|9=140|35=1|34=104|49=SNDR|56=TRGT|52=20090407-09:48:19.812|112=         CHECK REJECT MSG with INVALID MESSAGE - REQUIRED TAG MISSING [MsgType:_J, Tag:_172]|10=018|
8=FIX.4.4|9=180|35=J|49=SNDR|56=TRGT|34=9|52=20090331-09:17:04.228|70=1116226|71=0|626=1|857=0|54=1|55=TESTB|53=1004000|6=30|75=20030821|78=1|79=1000|80=500000|780=2|172=1|10=061|
8=FIX.4.4|9=140|35=1|34=104|49=SNDR|56=TRGT|52=20090407-09:48:19.812|112=         CHECK REJECT MSG with INVALID MESSAGE - REQUIRED TAG MISSING [MsgType:_J, Tag:_85]|10=018|
8=FIX.4.4|9=180|35=J|49=SNDR|56=TRGT|34=9|52=20090331-09:17:04.228|70=1116226|71=0|626=1|857=0|54=1|55=TESTB|53=1004000|6=30|75=20030821|78=1|79=1000|80=500000|780=2|172=1|85=1|10=061|
8=FIX.4.4|9=140|35=1|34=104|49=SNDR|56=TRGT|52=20090407-09:48:19.812|112=         CHECK REJECT MSG with INVALID MESSAGE - REQUIRED TAG MISSING [MsgType:_J, Tag:_165]|10=018|
8=FIX.4.4|9=180|35=J|49=SNDR|56=TRGT|34=9|52=20090331-09:17:04.228|70=1116226|71=0|626=1|857=0|54=1|55=TESTB|53=1004000|6=30|75=20030821|78=1|79=1000|80=500000|780=2|172=1|85=1|165=1|10=061|
8=FIX.4.4|9=140|35=1|34=104|49=SNDR|56=TRGT|52=20090407-09:48:19.812|112=         CHECK REJECT MSG with INVALID MESSAGE - REQUIRED TAG MISSING [MsgType:_J, Tag:_787]|10=018|
8=FIX.4.4|9=180|35=J|49=SNDR|56=TRGT|34=9|52=20090331-09:17:04.228|70=1116226|71=0|626=1|857=0|54=1|55=TESTB|53=1004000|6=30|75=20030821|78=1|79=1000|80=500000|780=2|172=1|85=1|165=1|787=S|781=1|10=061|
8=FIX.4.4|9=140|35=1|34=104|49=SNDR|56=TRGT|52=20090407-09:48:19.812|112=         CHECK REJECT MSG with INVALID MESSAGE - REQUIRED TAG MISSING [MsgType:_J, Tag:_782]|10=018|
8=FIX.4.4|9=180|35=J|49=SNDR|56=TRGT|34=9|52=20090331-09:17:04.228|70=1116226|71=0|626=1|857=0|54=1|55=TESTB|53=1004000|6=30|75=20030821|78=1|79=1000|80=500000|780=2|172=1|85=1|165=1|787=S|781=1|782=000782|10=061|
8=FIX.4.4|9=140|35=1|34=104|49=SNDR|56=TRGT|52=20090407-09:48:19.812|112=         CHECK REJECT MSG with INVALID MESSAGE - REQUIRED TAG MISSING [MsgType:_J, Tag:_783]|10=018|
8=FIX.4.4|9=180|35=J|49=SNDR|56=TRGT|34=9|52=20090331-09:17:04.228|70=1116226|71=0|626=1|857=0|54=1|55=TESTB|53=1004000|6=30|75=20030821|78=1|79=1000|80=500000|780=2|172=1|85=1|165=1|787=S|781=1|782=000782|783=E|10=061|
8=FIX.4.4|9=140|35=1|34=104|49=SNDR|56=TRGT|52=20090407-09:48:19.812|112=         CHECK REJECT MSG with INVALID MESSAGE - REQUIRED TAG MISSING [MsgType:_J, Tag:_784]|10=018|
8=FIX.4.4|9=180|35=J|49=SNDR|56=TRGT|34=9|52=20090331-09:17:04.228|70=1116226|71=0|626=1|857=0|54=1|55=TESTB|53=1004000|6=30|75=20030821|78=1|79=1000|80=500000|780=2|172=1|85=1|165=1|787=S|781=1|782=000782|783=E|784=22|801=1|10=061|
8=FIX.4.4|9=140|35=1|34=104|49=SNDR|56=TRGT|52=20090407-09:48:19.812|112=         CHECK REJECT MSG with INVALID MESSAGE - REQUIRED TAG MISSING [MsgType:_J, Tag:_785]|10=018|
8=FIX.4.4|9=180|35=J|49=SNDR|56=TRGT|34=9|52=20090331-09:17:04.228|70=1116226|71=0|626=1|857=0|54=1|55=TESTB|53=1004000|6=30|75=20030821|78=1|79=1000|80=500000|780=2|172=1|85=1|165=1|787=S|781=1|782=000782|783=E|784=22|801=1|785=000785|10=061|
8=FIX.4.4|9=140|35=1|34=104|49=SNDR|56=TRGT|52=20090407-09:48:19.812|112=         CHECK REJECT MSG with INVALID MESSAGE - REQUIRED TAG MISSING [MsgType:_J, Tag:_786]|10=018|
8=FIX.4.4|9=180|35=J|49=SNDR|56=TRGT|34=9|52=20090331-09:17:04.228|70=1116226|71=0|626=1|857=0|54=1|55=TESTB|53=1004000|6=30|75=20030821|78=1|79=1000|80=500000|780=3|10=061|
8=FIX.4.4|9=140|35=1|34=104|49=SNDR|56=TRGT|52=20090407-09:48:19.812|112=         CHECK REJECT MSG with INVALID MESSAGE - REQUIRED TAG MISSING [MsgType:_J, Tag:_169]|10=018|
8=FIX.4.4|9=180|35=J|49=SNDR|56=TRGT|34=9|52=20090331-09:17:04.228|70=1116226|71=0|626=1|857=0|54=1|55=TESTB|53=1004000|6=30|75=20030821|78=1|79=1000|80=500000|780=3|169=0|10=061|
8=FIX.4.4|9=140|35=1|34=104|49=SNDR|56=TRGT|52=20090407-09:48:19.812|112=         CHECK REJECT MSG with INVALID MESSAGE - REQUIRED TAG MISSING [MsgType:_J, Tag:_170]|10=018|
8=FIX.4.4|9=180|35=J|49=SNDR|56=TRGT|34=9|52=20090331-09:17:04.228|70=1116226|71=0|626=1|857=0|54=1|55=TESTB|53=1004000|6=30|75=20030821|78=1|79=1000|80=500000|780=3|169=0|170=DB|10=061|
8=FIX.4.4|9=140|35=1|34=104|49=SNDR|56=TRGT|52=20090407-09:48:19.812|112=         CHECK REJECT MSG with INVALID MESSAGE - REQUIRED TAG MISSING [MsgType:_J, Tag:_171]|10=018|
