8=FIX.4.4|9=195|35=u|49=SNDR|56=TRGT|34=9|52=20090331-09:15:28.071|548=42444008|551=30001008|549=1|550=0|552=2|54=1|11=B202020|41=B101010|38=4000|54=2|11=S202020|41=S101010|453=1|38=5000|55=TESTA|60=20060217-10:00:00|10=197|
8=FIX.4.4|9=140|35=1|34=104|49=SNDR|56=TRGT|52=20090407-09:48:19.812|112=         CHECK REJECT MSG with INVALID MESSAGE - REQUIRED TAG MISSING [MsgType:_u, Tag:_448]|10=018|
8=FIX.4.4|9=195|35=u|49=SNDR|56=TRGT|34=9|52=20090331-09:15:28.071|548=42444008|551=30001008|549=1|550=0|552=2|54=1|11=B202020|41=B101010|38=4000|54=2|11=S202020|41=S101010|453=1|448=000448|38=5000|55=TESTA|60=20060217-10:00:00|10=197|
8=FIX.4.4|9=140|35=1|34=104|49=SNDR|56=TRGT|52=20090407-09:48:19.812|112=         CHECK REJECT MSG with INVALID MESSAGE - REQUIRED TAG MISSING [MsgType:_u, Tag:_447]|10=018|
8=FIX.4.4|9=195|35=u|49=SNDR|56=TRGT|34=9|52=20090331-09:15:28.071|548=42444008|551=30001008|549=1|550=0|552=2|54=1|11=B202020|41=B101010|38=4000|54=2|11=S202020|41=S101010|453=1|448=000448|447=B|38=5000|55=TESTA|60=20060217-10:00:00|10=197|
8=FIX.4.4|9=140|35=1|34=104|49=SNDR|56=TRGT|52=20090407-09:48:19.812|112=         CHECK REJECT MSG with INVALID MESSAGE - REQUIRED TAG MISSING [MsgType:_u, Tag:_452]|10=018|
8=FIX.4.4|9=195|35=u|49=SNDR|56=TRGT|34=9|52=20090331-09:15:28.071|548=42444008|551=30001008|549=1|550=0|552=2|54=1|11=B202020|41=B101010|38=4000|54=2|11=S202020|41=S101010|453=1|448=000448|447=B|452=3|802=1|38=5000|55=TESTA|60=20060217-10:00:00|10=197|
8=FIX.4.4|9=140|35=1|34=104|49=SNDR|56=TRGT|52=20090407-09:48:19.812|112=         CHECK REJECT MSG with INVALID MESSAGE - REQUIRED TAG MISSING [MsgType:_u, Tag:_523]|10=018|
8=FIX.4.4|9=195|35=u|49=SNDR|56=TRGT|34=9|52=20090331-09:15:28.071|548=42444008|551=30001008|549=1|550=0|552=2|54=1|11=B202020|41=B101010|38=4000|54=2|11=S202020|41=S101010|453=1|448=000448|447=B|452=3|802=1|523=Clearing Firm|38=5000|55=TESTA|60=20060217-10:00:00|10=197|
8=FIX.4.4|9=140|35=1|34=104|49=SNDR|56=TRGT|52=20090407-09:48:19.812|112=         CHECK REJECT MSG with INVALID MESSAGE - REQUIRED TAG MISSING [MsgType:_u, Tag:_803]|10=018|
8=FIX.4.4|9=62|35=v|49=SNDR|56=TRGT|34=10|52=20090331-09:15:28.071|320=11223|354=2|10=145|
8=FIX.4.4|9=140|35=1|34=104|49=SNDR|56=TRGT|52=20090407-09:48:19.812|112=         CHECK REJECT MSG with INVALID MESSAGE - REQUIRED TAG MISSING [MsgType:_v, Tag:_355]|10=018|
8=FIX.4.4|9=78|35=w|49=SNDR|56=TRGT|34=11|52=20090331-09:15:28.071|320=11223|322=22115|323=1|354=2|10=113|
8=FIX.4.4|9=140|35=1|34=104|49=SNDR|56=TRGT|52=20090407-09:48:19.812|112=         CHECK REJECT MSG with INVALID MESSAGE - REQUIRED TAG MISSING [MsgType:_w, Tag:_355]|10=018|
