8=FIX.4.4|9=115|35=V|49=SNDR|56=TRGT|34=8|52=20090331-09:26:19.244|262=11223|263=1|264=0|267=2|269=0|269=1|146=1|55=TESTA|10=031|
8=FIX.4.4|9=140|35=1|34=104|49=SNDR|56=TRGT|52=20090407-09:48:19.812|112=         CHECK REJECT MSG with INVALID MESSAGE - REQUIRED TAG MISSING [MsgType:_V, Tag:_265]|10=018|
8=FIX.4.4|9=92|35=W|49=SNDR|56=TRGT|34=9|52=20090331-09:26:19.244|55=TESTA|268=1|269=4|10=086|
8=FIX.4.4|9=140|35=1|34=104|49=SNDR|56=TRGT|52=20090407-09:48:19.812|112=         CHECK REJECT MSG with INVALID MESSAGE - REQUIRED TAG MISSING [MsgType:_W, Tag:_270]|10=018|
8=FIX.4.4|9=92|35=W|49=SNDR|56=TRGT|34=9|52=20090331-09:26:19.244|55=TESTA|268=1|269=2|270=11|10=086|
8=FIX.4.4|9=140|35=1|34=104|49=SNDR|56=TRGT|52=20090407-09:48:19.812|112=         CHECK REJECT MSG with INVALID MESSAGE - REQUIRED TAG MISSING [MsgType:_W, Tag:_271]|10=018|
8=FIX.4.4|9=102|35=X|49=SNDR|56=TRGT|34=10|52=20090331-09:26:19.244|268=1|279=0|10=172|
8=FIX.4.4|9=140|35=1|34=104|49=SNDR|56=TRGT|52=20090407-09:48:19.812|112=         CHECK REJECT MSG with INVALID MESSAGE - REQUIRED TAG MISSING [MsgType:_X, Tag:_269]|10=018|
8=FIX.4.4|9=102|35=X|49=SNDR|56=TRGT|34=10|52=20090331-09:26:19.244|268=1|279=0|269=2|10=172|
8=FIX.4.4|9=140|35=1|34=104|49=SNDR|56=TRGT|52=20090407-09:48:19.812|112=         CHECK REJECT MSG with INVALID MESSAGE - REQUIRED TAG MISSING [MsgType:_X, Tag:_280]|10=018|
8=FIX.4.4|9=102|35=X|49=SNDR|56=TRGT|34=10|52=20090331-09:26:19.244|268=1|279=0|269=2|280=0002|10=172|
8=FIX.4.4|9=140|35=1|34=104|49=SNDR|56=TRGT|52=20090407-09:48:19.812|112=         CHECK REJECT MSG with INVALID MESSAGE - REQUIRED TAG MISSING [MsgType:_X, Tag:_270]|10=018|
8=FIX.4.4|9=102|35=X|49=SNDR|56=TRGT|34=10|52=20090331-09:26:19.244|268=1|279=0|269=2|280=0002|270=11|10=172|
8=FIX.4.4|9=140|35=1|34=104|49=SNDR|56=TRGT|52=20090407-09:48:19.812|112=         CHECK REJECT MSG with INVALID MESSAGE - REQUIRED TAG MISSING [MsgType:_X, Tag:_271]|10=018|
8=FIX.4.4|9=68|35=Z|49=SNDR|56=TRGT|34=12|52=20090331-09:26:19.244|117=11223|298=1|10=154|
8=FIX.4.4|9=140|35=1|34=104|49=SNDR|56=TRGT|52=20090407-09:48:19.812|112=         CHECK REJECT MSG with INVALID MESSAGE - REQUIRED TAG MISSING [MsgType:_Z, Tag:_295]|10=018|
