8=FIX.4.4|9=220|35=N|49=SNDR|56=TRGT|34=2|52=20090331-09:26:19.244|66=20012411|429=1|82=3|431=3|83=1|445=10|68=5|73=3|11=1111|14=11|39=1|151=89|84=0|6=12|11=1121|14=1000|39=1|151=500|84=1000|6=2.28|11=1131|14=2500|39=1|151=500|84=1500|6=34.11|10=061|
8=FIX.4.4|9=140|35=1|34=104|49=SNDR|56=TRGT|52=20090407-09:48:19.812|112=         CHECK REJECT MSG with INVALID MESSAGE - REQUIRED TAG MISSING [MsgType:_N, Tag:_446]|10=018|
8=FIX.4.4|9=97|35=P|49=SNDR|56=TRGT|34=3|52=20090331-09:26:19.244|70=3659000001|60=20060108-10:00:53|87=0|10=003|
8=FIX.4.4|9=140|35=1|34=104|49=SNDR|56=TRGT|52=20090407-09:48:19.812|112=         CHECK REJECT MSG with INVALID MESSAGE - REQUIRED TAG MISSING [MsgType:_P, Tag:_573]|10=018|
8=FIX.4.4|9=97|35=P|49=SNDR|56=TRGT|34=3|52=20090331-09:26:19.244|70=3659000001|60=20060108-10:00:53|87=1|573=0|10=003|
8=FIX.4.4|9=140|35=1|34=104|49=SNDR|56=TRGT|52=20090407-09:48:19.812|112=         CHECK REJECT MSG with INVALID MESSAGE - REQUIRED TAG MISSING [MsgType:_P, Tag:_88]|10=018|
8=FIX.4.4|9=97|35=P|49=SNDR|56=TRGT|34=3|52=20090331-09:26:19.244|70=3659000001|60=20060108-10:00:53|87=2|573=0|10=003|
8=FIX.4.4|9=140|35=1|34=104|49=SNDR|56=TRGT|52=20090407-09:48:19.812|112=         CHECK REJECT MSG with INVALID MESSAGE - REQUIRED TAG MISSING [MsgType:_P, Tag:_88]|10=018|
8=FIX.4.4|9=97|35=P|49=SNDR|56=TRGT|34=3|52=20090331-09:26:19.244|70=3659000001|60=20060108-10:00:53|87=0|573=0|626=8|10=003|
8=FIX.4.4|9=140|35=1|34=104|49=SNDR|56=TRGT|52=20090407-09:48:19.812|112=         CHECK REJECT MSG with INVALID MESSAGE - REQUIRED TAG MISSING [MsgType:_P, Tag:_808]|10=018|
8=FIX.4.4|9=97|35=P|49=SNDR|56=TRGT|34=3|52=20090331-09:26:19.244|70=3659000001|60=20060108-10:00:53|87=0|573=0|78=1|10=003|
8=FIX.4.4|9=140|35=1|34=104|49=SNDR|56=TRGT|52=20090407-09:48:19.812|112=         CHECK REJECT MSG with INVALID MESSAGE - REQUIRED TAG MISSING [MsgType:_P, Tag:_79]|10=018|
8=FIX.4.4|9=97|35=P|49=SNDR|56=TRGT|34=3|52=20090331-09:26:19.244|70=3659000001|60=20060108-10:00:53|87=0|573=0|78=1|79=00079|10=003|
8=FIX.4.4|9=140|35=1|34=104|49=SNDR|56=TRGT|52=20090407-09:48:19.812|112=         CHECK REJECT MSG with INVALID MESSAGE - REQUIRED TAG MISSING [MsgType:_P, Tag:_661]|10=018|
8=FIX.4.4|9=97|35=P|49=SNDR|56=TRGT|34=3|52=20090331-09:26:19.244|70=3659000001|60=20060108-10:00:53|87=0|573=0|78=1|79=00079|661=99|10=003|
8=FIX.4.4|9=140|35=1|34=104|49=SNDR|56=TRGT|52=20090407-09:48:19.812|112=         CHECK REJECT MSG with INVALID MESSAGE - REQUIRED TAG MISSING [MsgType:_P, Tag:_776]|10=018|
