8=FIX.4.4|9=57|35=b|49=SNDR|56=TRGT|34=3|52=20090331-09:13:20.413|297=10|296=1|302=000302|311=000311|295=1|10=141|
8=FIX.4.4|9=140|35=1|34=104|49=SNDR|56=TRGT|52=20090407-09:48:19.812|112=         CHECK REJECT MSG with INVALID MESSAGE - REQUIRED TAG MISSING [MsgType:_b, Tag:_304]|10=018|
8=FIX.4.4|9=57|35=b|49=SNDR|56=TRGT|34=3|52=20090331-09:13:20.413|297=10|296=1|302=000302|311=000311|304=1|295=1|10=141|
8=FIX.4.4|9=140|35=1|34=104|49=SNDR|56=TRGT|52=20090407-09:48:19.812|112=         CHECK REJECT MSG with INVALID MESSAGE - REQUIRED TAG MISSING [MsgType:_b, Tag:_299]|10=018|
8=FIX.4.4|9=57|35=b|49=SNDR|56=TRGT|34=3|52=20090331-09:13:20.413|297=10|296=1|302=000302|311=000311|304=1|295=1|299=000299|10=141|
8=FIX.4.4|9=140|35=1|34=104|49=SNDR|56=TRGT|52=20090407-09:48:19.812|112=         CHECK REJECT MSG with INVALID MESSAGE - REQUIRED TAG MISSING [MsgType:_b, Tag:_132]|10=018|
