8=FIX.4.4|9=119|35=m|49=SNDR|56=TRGT|34=14|52=20090331-09:13:20.413|66=0002|422=4|428=1|55=TESTA|48=00048|711=1|311=IBM|44=11.8|10=077|
8=FIX.4.4|9=140|35=1|34=104|49=SNDR|56=TRGT|52=20090407-09:48:19.812|112=         CHECK REJECT MSG with INVALID MESSAGE - REQUIRED TAG MISSING [MsgType:_m, Tag:_22]|10=018|
8=FIX.4.4|9=119|35=m|49=SNDR|56=TRGT|34=14|52=20090331-09:13:20.413|66=0002|422=4|428=1|55=TESTA|48=00048|22=1|454=1|711=1|311=IBM|44=11.8|10=077|
8=FIX.4.4|9=140|35=1|34=104|49=SNDR|56=TRGT|52=20090407-09:48:19.812|112=         CHECK REJECT MSG with INVALID MESSAGE - REQUIRED TAG MISSING [MsgType:_m, Tag:_455]|10=018|
8=FIX.4.4|9=119|35=m|49=SNDR|56=TRGT|34=14|52=20090331-09:13:20.413|66=0002|422=4|428=1|55=TESTA|48=00048|22=1|454=1|455=000455|711=1|311=IBM|44=11.8|10=077|
8=FIX.4.4|9=140|35=1|34=104|49=SNDR|56=TRGT|52=20090407-09:48:19.812|112=         CHECK REJECT MSG with INVALID MESSAGE - REQUIRED TAG MISSING [MsgType:_m, Tag:_456]|10=018|
8=FIX.4.4|9=119|35=m|49=SNDR|56=TRGT|34=14|52=20090331-09:13:20.413|66=0002|422=4|428=1|55=TESTA|48=00048|22=1|454=1|455=000455|456=000456|762=MLEG|711=1|311=IBM|457=1|44=11.8|10=077|
8=FIX.4.4|9=140|35=1|34=104|49=SNDR|56=TRGT|52=20090407-09:48:19.812|112=         CHECK REJECT MSG with INVALID MESSAGE - REQUIRED TAG MISSING [MsgType:_m, Tag:_167]|10=018|
8=FIX.4.4|9=119|35=m|49=SNDR|56=TRGT|34=14|52=20090331-09:13:20.413|66=0002|422=4|428=1|55=TESTA|48=00048|22=1|454=1|455=000455|456=000456|711=1|311=IBM|457=1|44=11.8|10=077|
8=FIX.4.4|9=140|35=1|34=104|49=SNDR|56=TRGT|52=20090407-09:48:19.812|112=         CHECK REJECT MSG with INVALID MESSAGE - REQUIRED TAG MISSING [MsgType:_m, Tag:_458]|10=018|
8=FIX.4.4|9=119|35=m|49=SNDR|56=TRGT|34=14|52=20090331-09:13:20.413|66=0002|422=4|428=1|55=TESTA|48=00048|22=1|454=1|455=000455|456=000456|461=000461|711=1|311=IBM|44=11.8|887=1|10=077|
8=FIX.4.4|9=140|35=1|34=104|49=SNDR|56=TRGT|52=20090407-09:48:19.812|112=         CHECK REJECT MSG with INVALID MESSAGE - REQUIRED TAG MISSING [MsgType:_m, Tag:_888]|10=018|
