8=FIX.4.4|9=71|35=S|49=SNDR|56=TRGT|34=14|52=20090611-11:11:44.011|117=11223|55=TESTB|10=142|
8=FIX.4.4|9=101|35=b|49=SNDR|56=TRGT|34=36|52=20090611-11:37:05.839|297=0|296=1|302=TST|311=TST|304=10|295=1|299=TST|10=198|
8=FIX.4.4|9=111|35=b|49=SNDR|56=TRGT|34=37|52=20090611-11:37:05.839|297=0|296=1|302=TST|311=TST|304=10|295=2|299=TST1|299=TST2|10=009|
8=FIX.4.4|9=119|35=b|49=SNDR|56=TRGT|34=38|52=20090611-11:37:05.839|297=0|296=1|302=TST|311=TST|304=10|295=2|299=TST1|132=0.1|299=TST2|10=117|
8=FIX.4.4|9=119|35=b|49=SNDR|56=TRGT|34=39|52=20090611-11:37:05.839|297=0|296=1|302=TST|311=TST|304=10|295=2|299=TST1|299=TST2|132=0.1|10=118|
8=FIX.4.4|9=119|35=b|49=SNDR|56=TRGT|34=40|52=20090611-11:37:05.839|297=0|296=1|302=TST|311=TST|304=10|295=2|299=TST1|133=0.2|299=TST2|10=111|
8=FIX.4.4|9=119|35=b|49=SNDR|56=TRGT|34=41|52=20090611-11:37:05.839|297=0|296=1|302=TST|311=TST|304=10|295=2|299=TST1|299=TST2|133=0.2|10=112|
8=FIX.4.4|9=127|35=b|49=SNDR|56=TRGT|34=42|52=20090611-11:37:05.839|297=0|296=1|302=TST|311=TST|304=10|295=2|299=TST1|132=0.1|133=0.2|299=TST2|10=212|
8=FIX.4.4|9=127|35=b|49=SNDR|56=TRGT|34=43|52=20090611-11:37:05.839|297=0|296=1|302=TST|311=TST|304=10|295=2|299=TST1|299=TST2|132=0.1|133=0.2|10=213|