8=FIX.4.4|9=80|35=S|49=SNDR|56=TRGT|34=15|52=20090611-11:11:44.011|117=11223|55=TESTB|132=15.3|10=042|
8=FIX.4.4|9=80|35=S|49=SNDR|56=TRGT|34=16|52=20090611-11:11:44.011|117=11223|55=TESTB|133=15.3|10=044|
8=FIX.4.4|9=89|35=S|49=SNDR|56=TRGT|34=17|52=20090611-11:11:44.011|117=11223|55=TESTB|133=15.3|132=15.3|10=209|