8=FIX.4.4|9=140|35=8|49=SNDR|56=TRGT|34=204|52=20090610-14:55:53.795|37=1|17=11|39=0|150=0|55=TESTB|54=1|38=1000|151=1000|14=0|6=0|453=2|448=44|447=B|452=1|10=166|
8=FIX.4.4|9=140|35=8|49=SNDR|56=TRGT|34=204|52=20090610-14:55:53.795|37=1|17=11|39=0|150=0|55=TESTB|54=1|38=1000|151=1000|14=0|6=0|453=3|448=44|447=B|452=1|10=166|
8=FIX.4.4|9=140|35=8|49=SNDR|56=TRGT|34=204|52=20090610-14:55:53.795|37=1|17=11|39=0|150=0|55=TESTB|54=1|38=1000|151=1000|14=0|6=0|453=1|448=44|447=B|452=1|802=2|523=000523|803=1|10=166|
8=FIX.4.4|9=140|35=8|49=SNDR|56=TRGT|34=204|52=20090610-14:55:53.795|37=1|17=11|39=0|150=0|55=TESTB|54=1|38=1000|151=1000|14=0|6=0|453=1|448=44|447=B|452=1|802=3|523=000523|803=1|10=166|
