8=FIX.4.4|9=133|35=V|49=SNDR|56=TRGT|34=2|52=20090611-10:25:44.527|262=10|263=0|264=0|267=2|269=0|269=1|146=1|55=IBM|555=2|600=SA|601=1|600=SB|602=1|10=148|