8=FIX.4.4|9=172|35=8|49=TESTI|56=TESTA|34=114|52=20030203-16:09:30|37=11111111|17=11|39=0|150=0|55=TESTB|54=1|38=1000|151=1000|14=0|6=0|453=1|448=000448|447=B|452=1|802=1|523=000523|803=1|10=146|
8=FIX.4.4|9=218|35=8|49=TESTI|56=TESTA|34=114|52=20030203-16:09:30|37=11111111|17=11|39=0|150=0|55=TESTB|54=1|38=1000|151=1000|14=0|6=0|453=2|448=000448|447=B|452=1|802=1|523=000523|803=1|448=000448|447=B|452=1|802=1|523=000523|803=1|10=224|
8=FIX.4.4|9=264|35=8|49=TESTI|56=TESTA|34=114|52=20030203-16:09:30|37=11111111|17=11|39=0|150=0|55=TESTB|54=1|38=1000|151=1000|14=0|6=0|453=3|448=000448|447=B|452=1|802=1|523=000523|803=1|448=000448|447=B|452=1|802=1|523=000523|803=1|448=000448|447=B|452=1|802=1|523=000523|803=1|10=046|
8=FIX.4.4|9=189|35=8|49=TESTI|56=TESTA|34=114|52=20030203-16:09:30|37=11111111|17=11|39=0|150=0|55=TESTB|54=1|38=1000|151=1000|14=0|6=0|453=1|448=000448|447=B|452=1|802=2|523=000523|803=1|523=000523|803=1|10=167|
8=FIX.4.4|9=206|35=8|49=TESTI|56=TESTA|34=114|52=20030203-16:09:30|37=11111111|17=11|39=0|150=0|55=TESTB|54=1|38=1000|151=1000|14=0|6=0|453=1|448=000448|447=B|452=1|802=3|523=000523|803=1|523=000523|803=1|523=000523|803=1|10=170|
8=FIX.4.4|9=235|35=8|49=TESTI|56=TESTA|34=114|52=20030203-16:09:30|37=11111111|17=11|39=0|150=0|55=TESTB|54=1|38=1000|151=1000|14=0|6=0|453=2|448=000448|447=B|452=1|802=1|523=000523|803=1|448=000448|447=B|452=1|802=2|523=000523|803=1|523=000523|803=1|10=236|
8=FIX.4.4|9=366|35=8|49=TESTI|56=TESTA|34=114|52=20030203-16:09:30|37=11111111|17=11|39=0|150=0|55=TESTB|54=1|38=1000|151=1000|14=0|6=0|453=3|448=000448|447=B|452=1|802=3|523=000523|803=1|523=000523|803=1|523=000523|803=1|448=000448|447=B|452=1|802=3|523=000523|803=1|523=000523|803=1|523=000523|803=1|448=000448|447=B|452=1|802=3|523=000523|803=1|523=000523|803=1|523=000523|803=1|10=127|
8=FIX.4.4|9=375|35=8|49=TESTI|56=TESTA|34=114|52=20030203-16:09:30|37=11111111|17=11|39=0|150=0|55=TESTB|54=1|38=1000|151=1000|14=0|6=0|453=3|448=000448|447=B|452=1|802=3|523=000523|803=1|523=000523|803=1|523=000523|803=1|448=000448|447=B|452=1|802=3|523=000523|803=1|523=000523|803=1|523=000523|803=1|448=000448|447=B|452=1|802=3|523=000523|803=1|523=000523|803=1|523=000523|803=1|66=00066|10=037|
8=FIX.4.4|9=184|35=8|49=TESTI|56=TESTA|34=114|52=20030203-16:09:30|37=11111111|17=11|39=0|150=0|55=TESTB|54=1|38=1000|151=1000|14=0|6=0|555=1|600=1|539=1|524=000524|525=B|538=1|804=1|545=000545|805=1|10=177|
8=FIX.4.4|9=230|35=8|49=TESTI|56=TESTA|34=114|52=20030203-16:09:30|37=11111111|17=11|39=0|150=0|55=TESTB|54=1|38=1000|151=1000|14=0|6=0|555=1|600=1|539=2|524=000524|525=B|538=1|804=1|545=000545|805=1|524=000524|525=B|538=1|804=1|545=000545|805=1|10=250|
8=FIX.4.4|9=276|35=8|49=TESTI|56=TESTA|34=114|52=20030203-16:09:30|37=11111111|17=11|39=0|150=0|55=TESTB|54=1|38=1000|151=1000|14=0|6=0|555=1|600=1|539=3|524=000524|525=B|538=1|804=1|545=000545|805=1|524=000524|525=B|538=1|804=1|545=000545|805=1|524=000524|525=B|538=1|804=1|545=000545|805=1|10=085|
8=FIX.4.4|9=201|35=8|49=TESTI|56=TESTA|34=114|52=20030203-16:09:30|37=11111111|17=11|39=0|150=0|55=TESTB|54=1|38=1000|151=1000|14=0|6=0|555=1|600=1|539=1|524=000524|525=B|538=1|804=2|545=000545|805=1|545=000545|805=1|10=190|
8=FIX.4.4|9=218|35=8|49=TESTI|56=TESTA|34=114|52=20030203-16:09:30|37=11111111|17=11|39=0|150=0|55=TESTB|54=1|38=1000|151=1000|14=0|6=0|555=1|600=1|539=1|524=000524|525=B|538=1|804=3|545=000545|805=1|545=000545|805=1|545=000545|805=1|10=221|
8=FIX.4.4|9=247|35=8|49=TESTI|56=TESTA|34=114|52=20030203-16:09:30|37=11111111|17=11|39=0|150=0|55=TESTB|54=1|38=1000|151=1000|14=0|6=0|555=1|600=1|539=2|524=000524|525=B|538=1|804=1|545=000545|805=1|524=000524|525=B|538=1|804=2|545=000545|805=1|545=000545|805=1|10=025|
8=FIX.4.4|9=378|35=8|49=TESTI|56=TESTA|34=114|52=20030203-16:09:30|37=11111111|17=11|39=0|150=0|55=TESTB|54=1|38=1000|151=1000|14=0|6=0|555=1|600=1|539=3|524=000524|525=B|538=1|804=3|545=000545|805=1|545=000545|805=1|545=000545|805=1|524=000524|525=B|538=1|804=3|545=000545|805=1|545=000545|805=1|545=000545|805=1|524=000524|525=B|538=1|804=3|545=000545|805=1|545=000545|805=1|545=000545|805=1|10=226|
8=FIX.4.4|9=384|35=8|49=TESTI|56=TESTA|34=114|52=20030203-16:09:30|37=11111111|17=11|39=0|150=0|55=TESTB|54=1|38=1000|151=1000|14=0|6=0|555=1|600=1|539=3|524=000524|525=B|538=1|804=3|545=000545|805=1|545=000545|805=1|545=000545|805=1|524=000524|525=B|538=1|804=3|545=000545|805=1|545=000545|805=1|545=000545|805=1|524=000524|525=B|538=1|804=3|545=000545|805=1|545=000545|805=1|545=000545|805=1|797=N|10=018|