8=FIX.4.4|9=120|35=8|49=TESTI|56=TESTA|34=114|52=20030203-16:09:30|37=11111111|17=11|39=0|150=0|55=TESTB|54=1|38=1000|151=1000|14=0|6=0|311=TEST311|887=1|888=SECTYPE|10=052|
8=FIX.4.4|9=120|35=8|49=TESTI|56=TESTA|34=114|52=20030203-16:09:30|37=11111111|17=11|39=0|150=0|55=TESTB|54=1|38=1000|151=1000|14=0|6=0|711=1|311=TEST311|887=2|888=SECTYPE|10=052|
8=FIX.4.4|9=120|35=8|49=TESTI|56=TESTA|34=114|52=20030203-16:09:30|37=11111111|17=11|39=0|150=0|55=TESTB|54=1|38=1000|151=1000|14=0|6=0|711=1|311=TEST311|887=1|888=SECTYPE|888=PURPOSE|10=052|
8=FIX.4.4|9=120|35=8|49=TESTI|56=TESTA|34=114|52=20030203-16:09:30|37=11111111|17=11|39=0|150=0|55=TESTB|54=1|38=1000|151=1000|14=0|6=0|711=1|311=TEST311|887=3|888=SECTYPE|888=PURPOSE|10=052|
8=FIX.4.4|9=120|35=8|49=TESTI|56=TESTA|34=114|52=20030203-16:09:30|37=11111111|17=11|39=0|150=0|55=TESTB|54=1|38=1000|151=1000|14=0|6=0|711=1|311=TEST311|887=3|888=SECTYPE|854=0|888=PURPOSE|888=YIELD|10=052|
8=FIX.4.4|9=120|35=8|49=TESTI|56=TESTA|34=114|52=20030203-16:09:30|37=11111111|17=11|39=0|150=0|55=TESTB|54=1|38=1000|151=1000|14=0|6=0|711=1|311=TEST311|887=3|888=SECTYPE|888=PURPOSE|854=0|888=YIELD|10=052|
8=FIX.4.4|9=120|35=8|49=TESTI|56=TESTA|34=114|52=20030203-16:09:30|37=11111111|17=11|39=0|150=0|55=TESTB|54=1|38=1000|151=1000|14=0|6=0|232=2|233=CURRENCY|10=052|
8=FIX.4.4|9=120|35=8|49=TESTI|56=TESTA|34=114|52=20030203-16:09:30|37=11111111|17=11|39=0|150=0|55=TESTB|54=1|38=1000|151=1000|14=0|6=0|232=1|233=CURRENCY|233=LOTVAR|10=052|
8=FIX.4.4|9=120|35=8|49=TESTI|56=TESTA|34=114|52=20030203-16:09:30|37=11111111|17=11|39=0|150=0|55=TESTB|54=1|38=1000|151=1000|14=0|6=0|232=3|233=CURRENCY|233=LOTVAR|10=052|
8=FIX.4.4|9=120|35=8|49=TESTI|56=TESTA|34=114|52=20030203-16:09:30|37=11111111|17=11|39=0|150=0|55=TESTB|54=1|38=1000|151=1000|14=0|6=0|232=3|233=CURRENCY|854=0|233=LOTVAR|233=HEP|10=052|
8=FIX.4.4|9=120|35=8|49=TESTI|56=TESTA|34=114|52=20030203-16:09:30|37=11111111|17=11|39=0|150=0|55=TESTB|54=1|38=1000|151=1000|14=0|6=0|232=3|233=CURRENCY|233=LOTVAR|854=0|233=HEP|10=052|
8=FIX.4.4|9=120|35=8|49=TESTI|56=TESTA|34=114|52=20030203-16:09:30|37=11111111|17=11|39=0|150=0|55=TESTB|54=1|38=1000|151=1000|14=0|6=0|683=2|688=BANKQUAL|10=052|
8=FIX.4.4|9=120|35=8|49=TESTI|56=TESTA|34=114|52=20030203-16:09:30|37=11111111|17=11|39=0|150=0|55=TESTB|54=1|38=1000|151=1000|14=0|6=0|683=1|688=BANKQUAL|688=BANKQUAL|10=052|
8=FIX.4.4|9=120|35=8|49=TESTI|56=TESTA|34=114|52=20030203-16:09:30|37=11111111|17=11|39=0|150=0|55=TESTB|54=1|38=1000|151=1000|14=0|6=0|683=3|688=BANKQUAL|688=BANKQUAL|10=052|
8=FIX.4.4|9=120|35=8|49=TESTI|56=TESTA|34=114|52=20030203-16:09:30|37=11111111|17=11|39=0|150=0|55=TESTB|54=1|38=1000|151=1000|14=0|6=0|683=3|688=BANKQUAL|854=0|688=PMAX|688=STRUCT|10=052|
8=FIX.4.4|9=120|35=8|49=TESTI|56=TESTA|34=114|52=20030203-16:09:30|37=11111111|17=11|39=0|150=0|55=TESTB|54=1|38=1000|151=1000|14=0|6=0|683=3|688=BANKQUAL|688=PMAX|854=0|688=STRUCT|10=052|