8=FIX.4.0|9=191|35=P|49=C|56=C|115=C|128=C|90=1|91=D|34=1|50=C|57=C|116=C|129=C|43=Y|97=C|52=20010101-01:01:01|122=20010101-01:01:01|109=C|76=C|70=1|75=20010101|60=20010101-01:01:01|87=0|88=0|58=C|93=1|89=D|10=065|