8=FIX.4.0|9=178|35=B|49=C|56=C|115=C|128=C|90=1|91=D|34=1|50=C|57=C|116=C|129=C|43=Y|97=C|52=20010101-01:01:01|122=20010101-01:01:01|42=20010101-01:01:01|61=0|46=C|33=1|58=C|95=1|96=D|93=1|89=D|10=210|