8=FIX.4.0|9=220|35=S|49=C|56=C|115=C|128=C|90=1|91=D|34=1|50=C|57=C|116=C|129=C|43=Y|97=C|52=20010101-01:01:01|122=20010101-01:01:01|131=C|117=C|55=C|65=C|48=C|22=1|106=C|107=C|132=1.1|133=1.1|134=1|135=1|62=20010101-01:01:01|93=1|89=D|10=088|