8=FIX.4.4|9=182|35=s|49=TESTI|56=TESTA|34=4|52=20030204-08:46:14|548=90001008|549=1|550=0|552=2|54=1|11=B101010|38=4000|54=2|11=S101010|38=5000|55=TESTA|60=20060217-10:00:00|40=1|18=11 ee|10=065|
8=FIX.4.4|9=182|35=s|49=TESTI|56=TESTA|34=4|52=20030204-08:46:14|548=90001008|549=1|550=0|552=2|54=1|11=B101010|38=4000|54=2|11=S101010|38=5000|55=TESTA|60=20060217-10:00:00|40=1|18=-1|10=065|
8=FIX.4.4|9=182|35=s|49=TESTI|56=TESTA|34=4|52=20030204-08:46:14|548=90001008|549=1|550=0|552=2|54=1|11=B101010|38=4000|54=2|11=S101010|38=5000|55=TESTA|60=20060217-10:00:00|40=1|18=AA aaa|10=065|
8=FIX.4.4|9=182|35=s|49=TESTI|56=TESTA|34=4|52=20030204-08:46:14|548=90001008|549=1|550=0|552=2|54=1|11=B101010|38=4000|54=2|11=S101010|38=5000|55=TESTA|60=20060217-10:00:00|40=1|18=b ee 5|10=065|
8=FIX.4.4|9=140|35=1|34=104|49=SNDR|56=TRGT|52=20090407-09:48:19.812|112= TEST #001 CHECK 4 REJECT MSGS with INVALID MESSAGE - INCORRECT DATA TYPE [MsgType:_s, Tag:_18]|10=018|
8=FIX.4.4|9=103|35=W|49=TESTI|56=TESTA|34=14|52=20030204-09:25:43|55=TESTA|268=2|269=4|270=10|276=ABC|269=5|270=11|276=D|10=169|
8=FIX.4.4|9=103|35=W|49=TESTI|56=TESTA|34=14|52=20030204-09:25:43|55=TESTA|268=2|269=4|270=10|276=B Z D|269=5|270=11|276=D|10=169|
8=FIX.4.4|9=103|35=W|49=TESTI|56=TESTA|34=14|52=20030204-09:25:43|55=TESTA|268=2|269=4|270=10|276=a i|269=5|270=11|276=D|10=169|
8=FIX.4.4|9=103|35=W|49=TESTI|56=TESTA|34=14|52=20030204-09:25:43|55=TESTA|268=2|269=4|270=10|276=0|269=5|270=11|276=D|10=169|
8=FIX.4.4|9=140|35=1|34=104|49=SNDR|56=TRGT|52=20090407-09:48:19.812|112= TEST #002 CHECK 4 REJECT MSGS with INVALID MESSAGE - INCORRECT DATA TYPE [MsgType:_W, Tag:_276]|10=018|
8=FIX.4.4|9=112|35=X|49=TESTI|56=TESTA|34=14|52=20030204-09:25:43|268=2|279=1|280=0001|270=10|277=A RR|279=1|280=0002|270=11|277=G|10=181|
8=FIX.4.4|9=112|35=X|49=TESTI|56=TESTA|34=14|52=20030204-09:25:43|268=2|279=1|280=0001|270=10|277=b d|279=1|280=0002|270=11|277=G|10=181|
8=FIX.4.4|9=112|35=X|49=TESTI|56=TESTA|34=14|52=20030204-09:25:43|268=2|279=1|280=0001|270=10|277=CC DD|279=1|280=0002|270=11|277=G|10=181|
8=FIX.4.4|9=112|35=X|49=TESTI|56=TESTA|34=14|52=20030204-09:25:43|268=2|279=1|280=0001|270=10|277=0|279=1|280=0002|270=11|277=G|10=181|
8=FIX.4.4|9=140|35=1|34=104|49=SNDR|56=TRGT|52=20090407-09:48:19.812|112= TEST #003 CHECK 4 REJECT MSGS with INVALID MESSAGE - INCORRECT DATA TYPE [MsgType:_X, Tag:_277]|10=018|
8=FIX.4.4|9=120|35=V|49=TESTI|56=TESTA|34=14|52=20030204-09:25:43|262=11223|263=0|264=0|286=0 12|267=2|269=0|269=1|146=2|55=TESTA|55=TESTB|10=021|
8=FIX.4.4|9=120|35=V|49=TESTI|56=TESTA|34=14|52=20030204-09:25:43|262=11223|263=0|264=0|286=-1|267=2|269=0|269=1|146=2|55=TESTA|55=TESTB|10=021|
8=FIX.4.4|9=120|35=V|49=TESTI|56=TESTA|34=14|52=20030204-09:25:43|262=11223|263=0|264=0|286=A B|267=2|269=0|269=1|146=2|55=TESTA|55=TESTB|10=021|
8=FIX.4.4|9=120|35=V|49=TESTI|56=TESTA|34=14|52=20030204-09:25:43|262=11223|263=0|264=0|286=b c|267=2|269=0|269=1|146=2|55=TESTA|55=TESTB|10=021|
8=FIX.4.4|9=140|35=1|34=104|49=SNDR|56=TRGT|52=20090407-09:48:19.812|112= TEST #004 CHECK 4 REJECT MSGS with INVALID MESSAGE - INCORRECT DATA TYPE [MsgType:_V, Tag:_286]|10=018|
8=FIX.4.4|9=65|35=f|49=TESTI|56=TESTA|34=14|52=20030204-09:25:43|55=TESTB|291=12|10=181|
8=FIX.4.4|9=65|35=f|49=TESTI|56=TESTA|34=14|52=20030204-09:25:43|55=TESTB|291=-1|10=181|
8=FIX.4.4|9=65|35=f|49=TESTI|56=TESTA|34=14|52=20030204-09:25:43|55=TESTB|291=0|10=181|
8=FIX.4.4|9=65|35=f|49=TESTI|56=TESTA|34=14|52=20030204-09:25:43|55=TESTB|291=A b|10=181|
8=FIX.4.4|9=140|35=1|34=104|49=SNDR|56=TRGT|52=20090407-09:48:19.812|112= TEST #005 CHECK 4 REJECT MSGS with INVALID MESSAGE - INCORRECT DATA TYPE [MsgType:_f, Tag:_291]|10=018|
8=FIX.4.4|9=65|35=f|49=TESTI|56=TESTA|34=14|52=20030204-09:25:43|55=TESTB|292=AE|10=201|
8=FIX.4.4|9=65|35=f|49=TESTI|56=TESTA|34=14|52=20030204-09:25:43|55=TESTB|292=-1|10=201|
8=FIX.4.4|9=65|35=f|49=TESTI|56=TESTA|34=14|52=20030204-09:25:43|55=TESTB|292=A b|10=201|
8=FIX.4.4|9=65|35=f|49=TESTI|56=TESTA|34=14|52=20030204-09:25:43|55=TESTB|292=c D|10=201|
8=FIX.4.4|9=140|35=1|34=104|49=SNDR|56=TRGT|52=20090407-09:48:19.812|112= TEST #006 CHECK 4 REJECT MSGS with INVALID MESSAGE - INCORRECT DATA TYPE [MsgType:_f, Tag:_292]|10=018|
8=FIX.4.4|9=257|35=AK|49=TESTI|56=TESTA|34=4|52=20030204-08:46:14|664=0001|666=0|773=1|665=4|60=20060217-10:00:00|75=20060217|711=1|311=TST311|555=1|600=TST600|55=TESTA|80=1000|54=1|862=2|528=A|529=0 12|863=400|528=P|529=8|863=600|79=KTierney|6=20|381=20000|118=2000|10=023|
8=FIX.4.4|9=257|35=AK|49=TESTI|56=TESTA|34=4|52=20030204-08:46:14|664=0001|666=0|773=1|665=4|60=20060217-10:00:00|75=20060217|711=1|311=TST311|555=1|600=TST600|55=TESTA|80=1000|54=1|862=2|528=A|529=1 B|863=400|528=P|529=8|863=600|79=KTierney|6=20|381=20000|118=2000|10=023|
8=FIX.4.4|9=257|35=AK|49=TESTI|56=TESTA|34=4|52=20030204-08:46:14|664=0001|666=0|773=1|665=4|60=20060217-10:00:00|75=20060217|711=1|311=TST311|555=1|600=TST600|55=TESTA|80=1000|54=1|862=2|528=A|529=a 3|863=400|528=P|529=8|863=600|79=KTierney|6=20|381=20000|118=2000|10=023|
8=FIX.4.4|9=257|35=AK|49=TESTI|56=TESTA|34=4|52=20030204-08:46:14|664=0001|666=0|773=1|665=4|60=20060217-10:00:00|75=20060217|711=1|311=TST311|555=1|600=TST600|55=TESTA|80=1000|54=1|862=2|528=A|529=10 9|863=400|528=P|529=8|863=600|79=KTierney|6=20|381=20000|118=2000|10=023|
8=FIX.4.4|9=140|35=1|34=104|49=SNDR|56=TRGT|52=20090407-09:48:19.812|112= TEST #007 CHECK 4 REJECT MSGS with INVALID MESSAGE - INCORRECT DATA TYPE [MsgType:_AK, Tag:_529]|10=018|
8=FIX.4.4|9=120|35=V|49=TESTI|56=TESTA|34=14|52=20030204-09:25:43|262=11223|263=0|264=0|546=12 3|267=2|269=0|269=1|146=2|55=TESTA|55=TESTB|10=021|
8=FIX.4.4|9=120|35=V|49=TESTI|56=TESTA|34=14|52=20030204-09:25:43|262=11223|263=0|264=0|546=3 21|267=2|269=0|269=1|146=2|55=TESTA|55=TESTB|10=021|
8=FIX.4.4|9=120|35=V|49=TESTI|56=TESTA|34=14|52=20030204-09:25:43|262=11223|263=0|264=0|546=A 1|267=2|269=0|269=1|146=2|55=TESTA|55=TESTB|10=021|
8=FIX.4.4|9=120|35=V|49=TESTI|56=TESTA|34=14|52=20030204-09:25:43|262=11223|263=0|264=0|546=b 2|267=2|269=0|269=1|146=2|55=TESTA|55=TESTB|10=021|
8=FIX.4.4|9=140|35=1|34=104|49=SNDR|56=TRGT|52=20090407-09:48:19.812|112= TEST #008 CHECK 4 REJECT MSGS with INVALID MESSAGE - INCORRECT DATA TYPE [MsgType:_V, Tag:_546]|10=018|
