<?xml version="1.0" encoding="UTF-8"?>
<!DOCTYPE cases SYSTEM "../../../../cases.dtd" [
        <!ENTITY % content SYSTEM "../../../../Engine/Entities/definitions.inc">
        %content; ]>
<cases>
    <case name="4a_NoDataSentDuringHeartBtInt.def">
        &CLEAN_LOGS;
        &ENGINE_UP_WITH_ECHO_APP;

        <!--# We should expect heartbeats if we wait around-->
        <transport className="InitiatorSocketTransport" host="localhost" port="3000">

            <send>8=FIX.4.4#9=123#35=A#34=1#49=TW#52=20031027-14:29:11#56=ISLD#98=0#108=2#10=000#</send>
            <expect>
                8=FIX\.4\.4#9=\d{1,3}#35=A#34=1#49=ISLD#52=\d{8}-\d{2}:\d{2}:\d{2}(\.\d{3})?#56=TW#98=0#108=2#10=\d{3}#
            </expect>
            <send>8=FIX.4.4#9=123#35=0#34=2#49=TW#52=20031027-14:29:11#56=ISLD#10=000#</send>

            <!--# Wait for quickfix to send a heartbeat to us-->

            <expect>8=FIX\.4\.4#9=\d{1,3}#35=0#34=2#49=ISLD#52=\d{8}-\d{2}:\d{2}:\d{2}(\.\d{3})?#56=TW#10=\d{3}#
            </expect>

            <!--# we respond with a heartbeat-->

            <send>8=FIX.4.4#9=123#35=0#34=3#49=TW#52=20031027-14:29:11#56=ISLD#10=000#</send>
            <!--# we should get a heartbeat back-->

            <expect>8=FIX\.4\.4#9=\d{1,3}#35=0#34=3#49=ISLD#52=\d{8}-\d{2}:\d{2}:\d{2}(\.\d{3})?#56=TW#10=\d{3}#
            </expect>

            <!--# we will send one more for good measure-->

            <send>8=FIX.4.4#9=123#35=0#34=4#49=TW#52=20031027-14:29:11#56=ISLD#10=000#</send>
            <!--# logout message and response-->

            <send>8=FIX.4.4#9=123#35=5#34=5#49=TW#52=20031027-14:29:11#56=ISLD#10=000#</send>
            <expect>8=FIX\.4\.4#9=\d{1,3}#35=5#34=4#49=ISLD#52=\d{8}-\d{2}:\d{2}:\d{2}(\.\d{3})?#56=TW#10=\d{3}#
            </expect>
        </transport>
        &ENGINE_DOWN;
    </case>
</cases>
