<?xml version="1.0" encoding="UTF-8"?>
<!DOCTYPE cases SYSTEM "../../../../cases.dtd" [
        <!ENTITY % content SYSTEM "../../../../Engine/Entities/definitions.inc">
        %content; ]>
<cases>
    <case name="8_OnlyAdminMessages.def">
        &CLEAN_LOGS;
        &ENGINE_UP_WITH_ECHO_APP;

        <!--# ResendRequest message requesting Admin messages-->
        <transport className="InitiatorSocketTransport" host="localhost" port="3000">

            <send>8=FIX.4.4#9=123#35=A#34=1#49=TW#52=20031027-14:29:11#56=ISLD#98=0#108=60#10=000#</send>
            <expect>
                8=FIX\.4\.4#9=\d{1,3}#35=A#34=1#49=ISLD#52=\d{8}-\d{2}:\d{2}:\d{2}(\.\d{3})?#56=TW#98=0#108=60#10=\d{3}#
            </expect>

            <send>8=FIX.4.4#9=123#35=1#34=2#49=TW#52=20031027-14:29:11#56=ISLD#112=HELLO#10=000#</send>
            <expect>
                8=FIX\.4\.4#9=\d{1,3}#35=0#34=2#49=ISLD#52=\d{8}-\d{2}:\d{2}:\d{2}(\.\d{3})?#56=TW#112=HELLO#10=\d{3}#
            </expect>

            <send>8=FIX.4.4#9=123#35=1#34=3#49=TW#52=20031027-14:29:11#56=ISLD#112=HELLO#10=000#</send>
            <expect>
                8=FIX\.4\.4#9=\d{1,3}#35=0#34=3#49=ISLD#52=\d{8}-\d{2}:\d{2}:\d{2}(\.\d{3})?#56=TW#112=HELLO#10=\d{3}#
            </expect>

            <send>8=FIX.4.4#9=123#35=1#34=4#49=TW#52=20031027-14:29:11#56=ISLD#112=HELLO#10=000#</send>
            <expect>
                8=FIX\.4\.4#9=\d{1,3}#35=0#34=4#49=ISLD#52=\d{8}-\d{2}:\d{2}:\d{2}(\.\d{3})?#56=TW#112=HELLO#10=\d{3}#
            </expect>

            <!--# Only admin messages requested, expect one gap fill-->

            <send>8=FIX.4.4#9=123#35=2#34=5#49=TW#52=20031027-14:29:11#56=ISLD#7=1#16=4#10=000#</send>
            <expect>
                8=FIX\.4\.4#9=\d{1,3}#35=4#34=1#43=Y#49=ISLD#52=\d{8}-\d{2}:\d{2}:\d{2}(\.\d{3})?#56=TW#122=\d{8}-\d{2}:\d{2}:\d{2}(\.\d{3})?#36=5#123=Y#10=\d{3}#
            </expect>

            <!--# make sure our seq numbers are still correct-->

            <send>8=FIX.4.4#9=123#35=1#34=6#49=TW#52=20031027-14:29:11#56=ISLD#112=HELLO#10=000#</send>
            <expect>
                8=FIX\.4\.4#9=\d{1,3}#35=0#34=5#49=ISLD#52=\d{8}-\d{2}:\d{2}:\d{2}(\.\d{3})?#56=TW#112=HELLO#10=\d{3}#
            </expect>

            <!--# Request message to 0 (infinity)-->

            <send>8=FIX.4.4#9=123#35=2#34=7#49=TW#52=20031027-14:29:11#56=ISLD#7=1#16=0#10=000#</send>
            <expect>
                8=FIX\.4\.4#9=\d{1,3}#35=4#34=1#43=Y#49=ISLD#52=\d{8}-\d{2}:\d{2}:\d{2}(\.\d{3})?#56=TW#122=\d{8}-\d{2}:\d{2}:\d{2}(\.\d{3})?#36=6#123=Y#10=\d{3}#
            </expect>

            <!--# logout message and response-->

            <send>8=FIX.4.4#9=123#35=5#34=8#49=TW#52=20031027-14:29:11#56=ISLD#10=000#</send>
            <expect>8=FIX\.4\.4#9=\d{1,3}#35=5#34=6#49=ISLD#52=\d{8}-\d{2}:\d{2}:\d{2}(\.\d{3})?#56=TW#10=\d{3}#
            </expect>
        </transport>
        &ENGINE_DOWN;
    </case>
</cases>
