<?xml version="1.0" encoding="UTF-8"?>
<!DOCTYPE cases SYSTEM "misc/cases.dtd" [
        <!ENTITY % content SYSTEM "misc/entity/definitions.inc">
        %content; ]>
<cases>
    <case name="20_SimultaneousResendRequest.def">
        &CLEAN_LOGS;
        &ENGINE_UP_WITH_ECHO_APP;

        <!--# missing messages-->
        <transport className="InitiatorSocketTransport" host="localhost" port="3000">

            <send>8=FIX.4.4#9=123#35=A#34=1#49=TW#52=20031027-14:29:11#56=ISLD#98=0#108=5#10=000#</send>
            <expect>
                8=FIX\.4\.4#9=\d{1,3}#35=A#34=1#49=ISLD#52=\d{8}-\d{2}:\d{2}:\d{2}(\.\d{3})?#56=TW#98=0#108=5#10=\d{3}#
            </expect>

            <send>
                8=FIX.4.4#9=123#35=D#34=2#49=TW#52=20031027-14:29:11#56=ISLD#11=ID#21=3#40=1#54=1#55=INTC#38=1#60=20031027-14:29:11#10=000#
            </send>
            <expect>
                8=FIX\.4\.4#9=\d{1,3}#35=D#34=2#49=ISLD#52=\d{8}-\d{2}:\d{2}:\d{2}(\.\d{3})?#56=TW#11=ID#21=3#40=1#54=1#55=INTC#38=1#60=\d{8}-\d{2}:\d{2}:\d{2}#10=\d{3}#
            </expect>

            <send>
                8=FIX.4.4#9=123#35=D#34=3#49=TW#52=20031027-14:29:11#56=ISLD#11=ID#21=3#40=1#54=1#55=INTC#38=1#60=20031027-14:29:11#10=000#
            </send>
            <expect>
                8=FIX\.4\.4#9=\d{1,3}#35=D#34=3#49=ISLD#52=\d{8}-\d{2}:\d{2}:\d{2}(\.\d{3})?#56=TW#11=ID#21=3#40=1#54=1#55=INTC#38=1#60=\d{8}-\d{2}:\d{2}:\d{2}#10=\d{3}#
            </expect>

            <!--# Sending message 7 when last message sent was 3-->

            <send>8=FIX.4.4#9=123#35=0#34=7#49=TW#52=20031027-14:29:11#56=ISLD#10=000#</send>
            <!--# Receive Resend request for messages 4 to 6-->

            <expect>
                8=FIX\.4\.4#9=\d{1,3}#35=2#34=4#49=ISLD#52=\d{8}-\d{2}:\d{2}:\d{2}(\.\d{3})?#56=TW#7=4#16=0#10=\d{3}#
            </expect>

            <!--# Send Resend request for messages 2 to 3-->

            <send>8=FIX.4.4#9=123#35=2#34=8#49=TW#52=20031027-14:29:11#56=ISLD#7=2#16=3#10=000#</send>
            <expect>
                8=FIX\.4\.4#9=\d{1,3}#35=D#34=2#43=Y#49=ISLD#52=\d{8}-\d{2}:\d{2}:\d{2}(\.\d{3})?#56=TW#122=\d{8}-\d{2}:\d{2}:\d{2}(\.\d{3})?#11=ID#21=3#40=1#54=1#55=INTC#38=1#60=\d{8}-\d{2}:\d{2}:\d{2}#10=\d{3}#
            </expect>

            <expect>
                8=FIX\.4\.4#9=\d{1,3}#35=D#34=3#43=Y#49=ISLD#52=\d{8}-\d{2}:\d{2}:\d{2}(\.\d{3})?#56=TW#122=\d{8}-\d{2}:\d{2}:\d{2}(\.\d{3})?#11=ID#21=3#40=1#54=1#55=INTC#38=1#60=\d{8}-\d{2}:\d{2}:\d{2}#10=\d{3}#
            </expect>


            <send>8=FIX.4.4#9=123#35=0#34=4#43=Y#49=TW#52=20031027-14:29:11#122=20031027-14:29:10#56=ISLD#10=000#</send>
            <send>8=FIX.4.4#9=123#35=0#34=5#43=Y#49=TW#52=20031027-14:29:11#122=20031027-14:29:10#56=ISLD#10=000#</send>
            <send>8=FIX.4.4#9=123#35=0#34=6#43=Y#49=TW#52=20031027-14:29:11#122=20031027-14:29:10#56=ISLD#10=000#</send>
            <!--# logout message and response-->

            <send>8=FIX.4.4#9=123#35=5#34=7#49=TW#52=20031027-14:29:11#56=ISLD#10=000#</send>
            <expect>8=FIX\.4\.4#9=\d{1,3}#35=5#34=5#49=ISLD#52=\d{8}-\d{2}:\d{2}:\d{2}(\.\d{3})?#56=TW#10=\d{3}#
            </expect>
        </transport>
        &ENGINE_DOWN;
    </case>
</cases>
