8=FIX.4.1|9=81|35=6|49=TESTI|56=TESTA|34=2|52=20030203-16:10:01|23=24|28=R|55=TESTB|54=1|27=S|10=101|
8=FIX.4.1|9=140|35=1|34=104|49=SNDR|56=TRGT|52=20090407-09:48:19.812|112=check REJECT: INVALID MESSAGE - REQUIRED TAG MISSING [MsgType:_6, Tag:_26]|10=018|
8=FIX.4.1|9=81|35=6|49=TESTI|56=TESTA|34=2|52=20030203-16:10:01|23=24|28=N|55=TESTB|54=1|27=S|199=1|10=101|
8=FIX.4.1|9=140|35=1|34=104|49=SNDR|56=TRGT|52=20090407-09:48:19.812|112=check REJECT: INVALID MESSAGE - REQUIRED TAG MISSING [MsgType:_6, Tag:_104]|10=018|
8=FIX.4.1|9=83|35=7|49=TESTI|56=TESTA|34=2|52=20030203-16:02:35|2=20|5=C|55=TESTB|4=T|53=1000000|10=191|
8=FIX.4.1|9=140|35=1|34=104|49=SNDR|56=TRGT|52=20090407-09:48:19.812|112=check REJECT: INVALID MESSAGE - REQUIRED TAG MISSING [MsgType:_7, Tag:_3]|10=018|
8=FIX.4.1|9=83|35=7|49=TESTI|56=TESTA|34=2|52=20030203-16:02:35|2=20|5=N|55=TESTB|4=T|53=1000000|205=31|10=191|
8=FIX.4.1|9=140|35=1|34=104|49=SNDR|56=TRGT|52=20090407-09:48:19.812|112=check REJECT: INVALID MESSAGE - REQUIRED TAG MISSING [MsgType:_7, Tag:_200]|10=018|
8=FIX.4.1|9=125|35=8|49=TESTI|56=TESTA|34=2|52=20030203-16:09:30|37=11111111|17=12|20=3|39=0|150=6|55=TESTB|54=1|38=1000|151=1000|14=0|6=0|10=010|
8=FIX.4.1|9=140|35=1|34=104|49=SNDR|56=TRGT|52=20090407-09:48:19.812|112=check REJECT: INVALID MESSAGE - REQUIRED TAG MISSING [MsgType:_8, Tag:_41]|10=018|
8=FIX.4.1|9=125|35=8|49=TESTI|56=TESTA|34=2|52=20030203-16:09:30|37=11111111|17=12|20=2|39=0|150=0|55=TESTB|54=1|38=1000|151=1000|14=0|6=0|10=010|
8=FIX.4.1|9=140|35=1|34=104|49=SNDR|56=TRGT|52=20090407-09:48:19.812|112=check REJECT: INVALID MESSAGE - REQUIRED TAG MISSING [MsgType:_8, Tag:_19]|10=018|
8=FIX.4.1|9=125|35=8|49=TESTI|56=TESTA|34=2|52=20030203-16:09:30|37=11111111|17=12|20=3|39=0|150=0|63=8|55=TESTB|54=1|38=1000|151=1000|14=0|6=0|10=010|
8=FIX.4.1|9=140|35=1|34=104|49=SNDR|56=TRGT|52=20090407-09:48:19.812|112=check REJECT: INVALID MESSAGE - REQUIRED TAG MISSING [MsgType:_8, Tag:_64]|10=018|
8=FIX.4.1|9=125|35=8|49=TESTI|56=TESTA|34=2|52=20030203-16:09:30|37=11111111|17=12|20=3|39=0|150=0|55=TESTB|54=1|59=6|38=1000|151=1000|14=0|6=0|10=010|
8=FIX.4.1|9=140|35=1|34=104|49=SNDR|56=TRGT|52=20090407-09:48:19.812|112=check REJECT: INVALID MESSAGE - REQUIRED TAG MISSING [MsgType:_8, Tag:_126]|10=018|
8=FIX.4.1|9=143|35=B|49=TESTI|56=TESTA|34=2|52=20030203-16:21:17|148=Weather|146=1|33=4|58=In the evening |58=it might be wet |58=and windy.|58= Take your coat on.|10=182|
8=FIX.4.1|9=140|35=1|34=104|49=SNDR|56=TRGT|52=20090407-09:48:19.812|112=check REJECT: INVALID MESSAGE - REQUIRED TAG MISSING [MsgType:_B, Tag:_46]|10=018|
8=FIX.4.1|9=143|35=B|49=TESTI|56=TESTA|34=2|52=20030203-16:21:17|148=Weather|33=4|58=In the evening |58=it might be wet |58=and windy.|58= Take your coat on.|95=2|10=182|
8=FIX.4.1|9=140|35=1|34=104|49=SNDR|56=TRGT|52=20090407-09:48:19.812|112=check REJECT: INVALID MESSAGE - REQUIRED TAG MISSING [MsgType:_B, Tag:_96]|10=018|
8=FIX.4.1|9=147|35=C|49=TESTI|56=TESTA|34=2|52=20030203-16:20:05|164=111111111|94=0|147=Bunny's Birthday|146=1|33=3|58=Hello, Bunny!|58=Happy Birthday to you :)|58=Bye.|10=130|
8=FIX.4.1|9=140|35=1|34=104|49=SNDR|56=TRGT|52=20090407-09:48:19.812|112=check REJECT: INVALID MESSAGE - REQUIRED TAG MISSING [MsgType:_C, Tag:_46]|10=018|
8=FIX.4.1|9=147|35=C|49=TESTI|56=TESTA|34=2|52=20030203-16:20:05|164=111111111|94=0|147=Bunny's Birthday|33=3|58=Hello, Bunny!|58=Happy Birthday to you :)|58=Bye.|95=2|10=130|
8=FIX.4.1|9=140|35=1|34=104|49=SNDR|56=TRGT|52=20090407-09:48:19.812|112=check REJECT: INVALID MESSAGE - REQUIRED TAG MISSING [MsgType:_C, Tag:_96]|10=018|
8=FIX.4.1|9=107|35=D|49=TESTI|56=TESTA|34=2|52=20030204-08:46:14|11=90001008|21=2|55=TESTB|167=OPT|200=200303|54=1|38=4000|40=1|10=075|
8=FIX.4.1|9=140|35=1|34=104|49=SNDR|56=TRGT|52=20090407-09:48:19.812|112=check REJECT: INVALID MESSAGE - REQUIRED TAG MISSING [MsgType:_D, Tag:_201]|10=018|
8=FIX.4.1|9=107|35=D|49=TESTI|56=TESTA|34=2|52=20030204-08:46:14|11=90001008|21=2|55=TESTB|54=5|38=4000|40=1|10=075|
8=FIX.4.1|9=140|35=1|34=104|49=SNDR|56=TRGT|52=20090407-09:48:19.812|112=check REJECT: INVALID MESSAGE - REQUIRED TAG MISSING [MsgType:_D, Tag:_114]|10=018|
8=FIX.4.1|9=107|35=D|49=TESTI|56=TESTA|34=2|52=20030204-08:46:14|11=90001008|21=2|55=TESTB|54=1|40=1|10=075|
8=FIX.4.1|9=140|35=1|34=104|49=SNDR|56=TRGT|52=20090407-09:48:19.812|112=check REJECT: INVALID MESSAGE - REQUIRED TAG MISSING [MsgType:_D, Tag:_38]|10=018|
8=FIX.4.1|9=107|35=D|49=TESTI|56=TESTA|34=2|52=20030204-08:46:14|11=90001008|21=2|55=TESTB|54=1|38=4000|40=2|10=075|
8=FIX.4.1|9=140|35=1|34=104|49=SNDR|56=TRGT|52=20090407-09:48:19.812|112=check REJECT: INVALID MESSAGE - REQUIRED TAG MISSING [MsgType:_D, Tag:_44]|10=018|
8=FIX.4.1|9=107|35=D|49=TESTI|56=TESTA|34=2|52=20030204-08:46:14|11=90001008|21=2|55=TESTB|54=1|38=4000|40=3|10=075|
8=FIX.4.1|9=140|35=1|34=104|49=SNDR|56=TRGT|52=20090407-09:48:19.812|112=check REJECT: INVALID MESSAGE - REQUIRED TAG MISSING [MsgType:_D, Tag:_99]|10=018|
8=FIX.4.1|9=107|35=D|49=TESTI|56=TESTA|34=2|52=20030204-08:46:14|11=90001008|21=2|55=TESTB|54=1|38=4000|40=E|10=075|
8=FIX.4.1|9=140|35=1|34=104|49=SNDR|56=TRGT|52=20090407-09:48:19.812|112=check REJECT: INVALID MESSAGE - REQUIRED TAG MISSING [MsgType:_D, Tag:_23]|10=018|
8=FIX.4.1|9=107|35=D|49=TESTI|56=TESTA|34=2|52=20030204-08:46:14|11=90001008|21=2|55=TESTB|54=1|38=4000|40=D|10=075|
8=FIX.4.1|9=140|35=1|34=104|49=SNDR|56=TRGT|52=20090407-09:48:19.812|112=check REJECT: INVALID MESSAGE - REQUIRED TAG MISSING [MsgType:_D, Tag:_117]|10=018|
8=FIX.4.1|9=107|35=D|49=TESTI|56=TESTA|34=2|52=20030204-08:46:14|11=90001008|21=2|55=TESTB|54=1|38=4000|40=1|121=Y|10=075|
8=FIX.4.1|9=140|35=1|34=104|49=SNDR|56=TRGT|52=20090407-09:48:19.812|112=check REJECT: INVALID MESSAGE - REQUIRED TAG MISSING [MsgType:_D, Tag:_120]|10=018|
8=FIX.4.1|9=127|35=E|49=TESTI|56=TESTA|34=2|52=20030204-08:18:22|66=20012411|67=1|68=3|11=1130|63=6|21=3|55=TESTB3|54=1|38=5000|40=1|10=068|
8=FIX.4.1|9=140|35=1|34=104|49=SNDR|56=TRGT|52=20090407-09:48:19.812|112=check REJECT: INVALID MESSAGE - REQUIRED TAG MISSING [MsgType:_E, Tag:_64]|10=018|
8=FIX.4.1|9=127|35=E|49=TESTI|56=TESTA|34=2|52=20030204-08:18:22|66=20012411|67=1|68=3|11=1130|21=3|55=TESTB3|54=1|167=OPT|200=200303|38=5000|40=1|10=068|
8=FIX.4.1|9=140|35=1|34=104|49=SNDR|56=TRGT|52=20090407-09:48:19.812|112=check REJECT: INVALID MESSAGE - REQUIRED TAG MISSING [MsgType:_E, Tag:_201]|10=018|
8=FIX.4.1|9=127|35=E|49=TESTI|56=TESTA|34=2|52=20030204-08:18:22|66=20012411|67=1|68=3|11=1130|21=3|55=TESTB3|54=5|38=5000|40=1|10=068|
8=FIX.4.1|9=140|35=1|34=104|49=SNDR|56=TRGT|52=20090407-09:48:19.812|112=check REJECT: INVALID MESSAGE - REQUIRED TAG MISSING [MsgType:_E, Tag:_114]|10=018|
8=FIX.4.1|9=127|35=E|49=TESTI|56=TESTA|34=2|52=20030204-08:18:22|66=20012411|67=1|68=3|11=1130|21=3|55=TESTB3|54=1|38=5000|40=2|10=068|
8=FIX.4.1|9=140|35=1|34=104|49=SNDR|56=TRGT|52=20090407-09:48:19.812|112=check REJECT: INVALID MESSAGE - REQUIRED TAG MISSING [MsgType:_E, Tag:_44]|10=018|
8=FIX.4.1|9=127|35=E|49=TESTI|56=TESTA|34=2|52=20030204-08:18:22|66=20012411|67=1|68=3|11=1130|21=3|55=TESTB3|54=1|38=5000|40=3|10=068|
8=FIX.4.1|9=140|35=1|34=104|49=SNDR|56=TRGT|52=20090407-09:48:19.812|112=check REJECT: INVALID MESSAGE - REQUIRED TAG MISSING [MsgType:_E, Tag:_99]|10=018|
8=FIX.4.1|9=95|35=F|49=TESTI|56=TESTA|34=2|52=20030204-08:46:38|41=90001008|11=16161516|55=TESTB|54=1|10=024|
8=FIX.4.1|9=140|35=1|34=104|49=SNDR|56=TRGT|52=20090407-09:48:19.812|112=check REJECT: INVALID MESSAGE - REQUIRED TAG MISSING [MsgType:_F, Tag:_38]|10=018|
8=FIX.4.1|9=105|35=G|49=TESTI|56=TESTA|34=2|52=20030204-08:49:18|11=12233345|41=90001008|21=2|55=TESTB|54=5|38=4000|40=1|10=225|
8=FIX.4.1|9=140|35=1|34=104|49=SNDR|56=TRGT|52=20090407-09:48:19.812|112=check REJECT: INVALID MESSAGE - REQUIRED TAG MISSING [MsgType:_G, Tag:_114]|10=018|
8=FIX.4.1|9=105|35=G|49=TESTI|56=TESTA|34=2|52=20030204-08:49:18|11=12233345|41=90001008|21=2|55=TESTB|54=1|40=1|10=225|
8=FIX.4.1|9=140|35=1|34=104|49=SNDR|56=TRGT|52=20090407-09:48:19.812|112=check REJECT: INVALID MESSAGE - REQUIRED TAG MISSING [MsgType:_G, Tag:_38]|10=018|
8=FIX.4.1|9=76|35=H|49=TESTI|56=TESTA|34=2|52=20030204-08:49:42|11=90001008|55=TESTB|205=31|54=1|10=150|
8=FIX.4.1|9=140|35=1|34=104|49=SNDR|56=TRGT|52=20090407-09:48:19.812|112=check REJECT: INVALID MESSAGE - REQUIRED TAG MISSING [MsgType:_H, Tag:_200]|10=018|
8=FIX.4.1|9=76|35=H|49=TESTI|56=TESTA|34=2|52=20030204-08:49:42|11=90001008|55=TESTB|167=OPT|200=200302|54=1|10=150|
8=FIX.4.1|9=140|35=1|34=104|49=SNDR|56=TRGT|52=20090407-09:48:19.812|112=check REJECT: INVALID MESSAGE - REQUIRED TAG MISSING [MsgType:_H, Tag:_201]|10=018|
8=FIX.4.1|9=195|35=J|49=TESTI|56=TESTA|34=2|52=20030204-08:56:41|70=1116226|71=1|73=1|11=90001008|54=1|55=TESTB|53=1004000|6=30|75=20030821|78=1|79=1000|80=500000|10=029|
8=FIX.4.1|9=140|35=1|34=104|49=SNDR|56=TRGT|52=20090407-09:48:19.812|112=check REJECT: INVALID MESSAGE - REQUIRED TAG MISSING [MsgType:_J, Tag:_72]|10=018|
8=FIX.4.1|9=195|35=J|49=TESTI|56=TESTA|34=2|52=20030204-08:56:41|70=1116226|71=0|196=000196|73=1|11=90001008|54=1|55=TESTB|53=1004000|6=30|75=20030821|78=1|79=1000|80=500000|10=029|
8=FIX.4.1|9=140|35=1|34=104|49=SNDR|56=TRGT|52=20090407-09:48:19.812|112=check REJECT: INVALID MESSAGE - REQUIRED TAG MISSING [MsgType:_J, Tag:_197]|10=018|
8=FIX.4.1|9=195|35=J|49=TESTI|56=TESTA|34=2|52=20030204-08:56:41|70=1116226|71=0|73=1|54=1|55=TESTB|53=1004000|6=30|75=20030821|78=1|79=1000|80=500000|10=029|
8=FIX.4.1|9=140|35=1|34=104|49=SNDR|56=TRGT|52=20090407-09:48:19.812|112=check REJECT: INVALID MESSAGE - REQUIRED TAG MISSING [MsgType:_J, Tag:_11]|10=018|
8=FIX.4.1|9=195|35=J|49=TESTI|56=TESTA|34=2|52=20030204-08:56:41|70=1116226|71=0|73=1|11=90001008|124=1|54=1|55=TESTB|53=1004000|6=30|75=20030821|78=1|79=1000|80=500000|10=029|
8=FIX.4.1|9=140|35=1|34=104|49=SNDR|56=TRGT|52=20090407-09:48:19.812|112=check REJECT: INVALID MESSAGE - REQUIRED TAG MISSING [MsgType:_J, Tag:_32]|10=018|
8=FIX.4.1|9=195|35=J|49=TESTI|56=TESTA|34=2|52=20030204-08:56:41|70=1116226|71=0|73=1|11=90001008|124=1|32=0|54=1|55=TESTB|53=1004000|6=30|75=20030821|78=1|79=1000|80=500000|10=029|
8=FIX.4.1|9=140|35=1|34=104|49=SNDR|56=TRGT|52=20090407-09:48:19.812|112=check REJECT: INVALID MESSAGE - REQUIRED TAG MISSING [MsgType:_J, Tag:_31]|10=018|
8=FIX.4.1|9=195|35=J|49=TESTI|56=TESTA|34=2|52=20030204-08:56:41|70=1116226|71=0|73=1|11=90001008|54=1|55=TESTB|53=1004000|6=30|75=20030821|78=1|10=029|
8=FIX.4.1|9=140|35=1|34=104|49=SNDR|56=TRGT|52=20090407-09:48:19.812|112=check REJECT: INVALID MESSAGE - REQUIRED TAG MISSING [MsgType:_J, Tag:_79]|10=018|
8=FIX.4.1|9=195|35=J|49=TESTI|56=TESTA|34=2|52=20030204-08:56:41|70=1116226|71=0|73=1|11=90001008|54=1|55=TESTB|53=1004000|6=30|75=20030821|78=1|79=1000|10=029|
8=FIX.4.1|9=140|35=1|34=104|49=SNDR|56=TRGT|52=20090407-09:48:19.812|112=check REJECT: INVALID MESSAGE - REQUIRED TAG MISSING [MsgType:_J, Tag:_80]|10=018|
8=FIX.4.1|9=195|35=J|49=TESTI|56=TESTA|34=2|52=20030204-08:56:41|70=1116226|71=0|73=1|11=90001008|54=1|55=TESTB|53=1004000|6=30|75=20030821|78=1|79=1000|80=500000|81=3|10=029|
8=FIX.4.1|9=140|35=1|34=104|49=SNDR|56=TRGT|52=20090407-09:48:19.812|112=check REJECT: INVALID MESSAGE - REQUIRED TAG MISSING [MsgType:_J, Tag:_92]|10=018|
8=FIX.4.1|9=195|35=J|49=TESTI|56=TESTA|34=2|52=20030204-08:56:41|70=1116226|71=0|73=1|11=90001008|54=1|55=TESTB|53=1004000|6=30|75=20030821|78=1|79=1000|80=500000|81=3|92=00092|10=029|
8=FIX.4.1|9=140|35=1|34=104|49=SNDR|56=TRGT|52=20090407-09:48:19.812|112=check REJECT: INVALID MESSAGE - REQUIRED TAG MISSING [MsgType:_J, Tag:_76]|10=018|
8=FIX.4.1|9=195|35=J|49=TESTI|56=TESTA|34=2|52=20030204-08:56:41|70=1116226|71=0|73=1|11=90001008|54=1|55=TESTB|53=1004000|6=30|75=20030821|78=1|79=1000|80=500000|136=1|10=029|
8=FIX.4.1|9=140|35=1|34=104|49=SNDR|56=TRGT|52=20090407-09:48:19.812|112=check REJECT: INVALID MESSAGE - REQUIRED TAG MISSING [MsgType:_J, Tag:_137]|10=018|
8=FIX.4.1|9=195|35=J|49=TESTI|56=TESTA|34=2|52=20030204-08:56:41|70=1116226|71=0|73=1|11=90001008|54=1|55=TESTB|53=1004000|6=30|75=20030821|78=1|79=1000|80=500000|136=1|137=5|10=029|
8=FIX.4.1|9=140|35=1|34=104|49=SNDR|56=TRGT|52=20090407-09:48:19.812|112=check REJECT: INVALID MESSAGE - REQUIRED TAG MISSING [MsgType:_J, Tag:_138]|10=018|
8=FIX.4.1|9=80|35=P|49=TESTI|56=TESTA|34=2|52=20030204-09:17:25|70=3659000001|75=20030808|87=1|10=239|
8=FIX.4.1|9=140|35=1|34=104|49=SNDR|56=TRGT|52=20090407-09:48:19.812|112=check REJECT: INVALID MESSAGE - REQUIRED TAG MISSING [MsgType:_P, Tag:_88]|10=018|
8=FIX.4.1|9=77|35=Q|49=TESTI|56=TESTA|34=4|52=20030204-09:28:44|127=D|55=TESTB|54=1|10=200|
8=FIX.4.1|9=140|35=1|34=104|49=SNDR|56=TRGT|52=20090407-09:48:19.812|112=check REJECT: INVALID MESSAGE - REQUIRED TAG MISSING [MsgType:_Q, Tag:_38]|10=018|
8=FIX.4.1|9=78|35=S|49=TESTI|56=TESTA|34=14|52=20030204-09:25:43|117=11223|55=TESTB|10=003|
8=FIX.4.1|9=140|35=1|34=104|49=SNDR|56=TRGT|52=20090407-09:48:19.812|112=check REJECT: INVALID MESSAGE - REQUIRED TAG MISSING [MsgType:_S, Tag:_132]|10=018|
8=FIX.4.1|9=111|35=T|49=TESTI|56=TESTA|34=14|52=20030204-09:25:43|162=11223|163=N|160=2|165=1|79=KTierney|60=20060217-10:00:00|10=105|
8=FIX.4.1|9=140|35=1|34=104|49=SNDR|56=TRGT|52=20090407-09:48:19.812|112=check REJECT: INVALID MESSAGE - REQUIRED TAG MISSING [MsgType:_T, Tag:_166]|10=018|
8=FIX.4.1|9=111|35=T|49=TESTI|56=TESTA|34=14|52=20030204-09:25:43|162=11223|163=N|160=2|165=1|79=KTierney|166=CED|60=20060217-10:00:00|10=105|
8=FIX.4.1|9=140|35=1|34=104|49=SNDR|56=TRGT|52=20090407-09:48:19.812|112=check REJECT: INVALID MESSAGE - REQUIRED TAG MISSING [MsgType:_T, Tag:_75]|10=018|
8=FIX.4.1|9=111|35=T|49=TESTI|56=TESTA|34=14|52=20030204-09:25:43|162=11223|163=N|160=2|165=1|79=KTierney|166=CED|75=20060217|60=20060217-10:00:00|10=105|
8=FIX.4.1|9=140|35=1|34=104|49=SNDR|56=TRGT|52=20090407-09:48:19.812|112=check REJECT: INVALID MESSAGE - REQUIRED TAG MISSING [MsgType:_T, Tag:_70]|10=018|
8=FIX.4.1|9=111|35=T|49=TESTI|56=TESTA|34=14|52=20030204-09:25:43|162=11223|163=N|160=2|165=1|79=KTierney|166=CED|75=20060217|70=00070|30=A|60=20060217-10:00:00|10=105|
8=FIX.4.1|9=140|35=1|34=104|49=SNDR|56=TRGT|52=20090407-09:48:19.812|112=check REJECT: INVALID MESSAGE - REQUIRED TAG MISSING [MsgType:_T, Tag:_54]|10=018|
