8=FIX.4.1|9=125|35=8|49=TESTI|56=TESTA|34=2|52=20030203-16:09:30|37=11111111|17=12|20=3|39=0|150=6|55=TESTB|54=1|38=1000|151=1000|14=0|6=0|10=010|
8=FIX.4.1|9=140|35=1|34=104|49=SNDR|56=TRGT|52=20090407-09:48:19.812|112=check REJECT: INVALID MESSAGE - REQUIRED TAG MISSING [MsgType:_8, Tag:_41]|10=018|
8=FIX.4.1|9=125|35=8|49=TESTI|56=TESTA|34=2|52=20030203-16:09:30|37=11111111|17=12|20=2|39=0|150=0|55=TESTB|54=1|38=1000|151=1000|14=0|6=0|10=010|
8=FIX.4.1|9=140|35=1|34=104|49=SNDR|56=TRGT|52=20090407-09:48:19.812|112=check REJECT: INVALID MESSAGE - REQUIRED TAG MISSING [MsgType:_8, Tag:_19]|10=018|
8=FIX.4.1|9=125|35=8|49=TESTI|56=TESTA|34=2|52=20030203-16:09:30|37=11111111|17=12|20=3|39=0|150=0|63=8|55=TESTB|54=1|38=1000|151=1000|14=0|6=0|10=010|
8=FIX.4.1|9=140|35=1|34=104|49=SNDR|56=TRGT|52=20090407-09:48:19.812|112=check REJECT: INVALID MESSAGE - REQUIRED TAG MISSING [MsgType:_8, Tag:_64]|10=018|
8=FIX.4.1|9=125|35=8|49=TESTI|56=TESTA|34=2|52=20030203-16:09:30|37=11111111|17=12|20=3|39=0|150=0|55=TESTB|54=1|59=6|38=1000|151=1000|14=0|6=0|10=010|
8=FIX.4.1|9=140|35=1|34=104|49=SNDR|56=TRGT|52=20090407-09:48:19.812|112=check REJECT: INVALID MESSAGE - REQUIRED TAG MISSING [MsgType:_8, Tag:_126]|10=018|
