8=FIX.4.1|9=195|35=J|49=TESTI|56=TESTA|34=2|52=20030204-08:56:41|70=1116226|71=1|73=1|11=90001008|54=1|55=TESTB|53=1004000|6=30|75=20030821|78=1|79=1000|80=500000|10=029|
8=FIX.4.1|9=140|35=1|34=104|49=SNDR|56=TRGT|52=20090407-09:48:19.812|112=check REJECT: INVALID MESSAGE - REQUIRED TAG MISSING [MsgType:_J, Tag:_72]|10=018|
8=FIX.4.1|9=195|35=J|49=TESTI|56=TESTA|34=2|52=20030204-08:56:41|70=1116226|71=0|196=000196|73=1|11=90001008|54=1|55=TESTB|53=1004000|6=30|75=20030821|78=1|79=1000|80=500000|10=029|
8=FIX.4.1|9=140|35=1|34=104|49=SNDR|56=TRGT|52=20090407-09:48:19.812|112=check REJECT: INVALID MESSAGE - REQUIRED TAG MISSING [MsgType:_J, Tag:_197]|10=018|
8=FIX.4.1|9=195|35=J|49=TESTI|56=TESTA|34=2|52=20030204-08:56:41|70=1116226|71=0|73=1|54=1|55=TESTB|53=1004000|6=30|75=20030821|78=1|79=1000|80=500000|10=029|
8=FIX.4.1|9=140|35=1|34=104|49=SNDR|56=TRGT|52=20090407-09:48:19.812|112=check REJECT: INVALID MESSAGE - REQUIRED TAG MISSING [MsgType:_J, Tag:_11]|10=018|
8=FIX.4.1|9=195|35=J|49=TESTI|56=TESTA|34=2|52=20030204-08:56:41|70=1116226|71=0|73=1|11=90001008|124=1|54=1|55=TESTB|53=1004000|6=30|75=20030821|78=1|79=1000|80=500000|10=029|
8=FIX.4.1|9=140|35=1|34=104|49=SNDR|56=TRGT|52=20090407-09:48:19.812|112=check REJECT: INVALID MESSAGE - REQUIRED TAG MISSING [MsgType:_J, Tag:_32]|10=018|
8=FIX.4.1|9=195|35=J|49=TESTI|56=TESTA|34=2|52=20030204-08:56:41|70=1116226|71=0|73=1|11=90001008|124=1|32=0|54=1|55=TESTB|53=1004000|6=30|75=20030821|78=1|79=1000|80=500000|10=029|
8=FIX.4.1|9=140|35=1|34=104|49=SNDR|56=TRGT|52=20090407-09:48:19.812|112=check REJECT: INVALID MESSAGE - REQUIRED TAG MISSING [MsgType:_J, Tag:_31]|10=018|
8=FIX.4.1|9=195|35=J|49=TESTI|56=TESTA|34=2|52=20030204-08:56:41|70=1116226|71=0|73=1|11=90001008|54=1|55=TESTB|53=1004000|6=30|75=20030821|78=1|10=029|
8=FIX.4.1|9=140|35=1|34=104|49=SNDR|56=TRGT|52=20090407-09:48:19.812|112=check REJECT: INVALID MESSAGE - REQUIRED TAG MISSING [MsgType:_J, Tag:_79]|10=018|
8=FIX.4.1|9=195|35=J|49=TESTI|56=TESTA|34=2|52=20030204-08:56:41|70=1116226|71=0|73=1|11=90001008|54=1|55=TESTB|53=1004000|6=30|75=20030821|78=1|79=1000|10=029|
8=FIX.4.1|9=140|35=1|34=104|49=SNDR|56=TRGT|52=20090407-09:48:19.812|112=check REJECT: INVALID MESSAGE - REQUIRED TAG MISSING [MsgType:_J, Tag:_80]|10=018|
8=FIX.4.1|9=195|35=J|49=TESTI|56=TESTA|34=2|52=20030204-08:56:41|70=1116226|71=0|73=1|11=90001008|54=1|55=TESTB|53=1004000|6=30|75=20030821|78=1|79=1000|80=500000|81=3|10=029|
8=FIX.4.1|9=140|35=1|34=104|49=SNDR|56=TRGT|52=20090407-09:48:19.812|112=check REJECT: INVALID MESSAGE - REQUIRED TAG MISSING [MsgType:_J, Tag:_92]|10=018|
8=FIX.4.1|9=195|35=J|49=TESTI|56=TESTA|34=2|52=20030204-08:56:41|70=1116226|71=0|73=1|11=90001008|54=1|55=TESTB|53=1004000|6=30|75=20030821|78=1|79=1000|80=500000|81=3|92=00092|10=029|
8=FIX.4.1|9=140|35=1|34=104|49=SNDR|56=TRGT|52=20090407-09:48:19.812|112=check REJECT: INVALID MESSAGE - REQUIRED TAG MISSING [MsgType:_J, Tag:_76]|10=018|
8=FIX.4.1|9=195|35=J|49=TESTI|56=TESTA|34=2|52=20030204-08:56:41|70=1116226|71=0|73=1|11=90001008|54=1|55=TESTB|53=1004000|6=30|75=20030821|78=1|79=1000|80=500000|136=1|10=029|
8=FIX.4.1|9=140|35=1|34=104|49=SNDR|56=TRGT|52=20090407-09:48:19.812|112=check REJECT: INVALID MESSAGE - REQUIRED TAG MISSING [MsgType:_J, Tag:_137]|10=018|
8=FIX.4.1|9=195|35=J|49=TESTI|56=TESTA|34=2|52=20030204-08:56:41|70=1116226|71=0|73=1|11=90001008|54=1|55=TESTB|53=1004000|6=30|75=20030821|78=1|79=1000|80=500000|136=1|137=5|10=029|
8=FIX.4.1|9=140|35=1|34=104|49=SNDR|56=TRGT|52=20090407-09:48:19.812|112=check REJECT: INVALID MESSAGE - REQUIRED TAG MISSING [MsgType:_J, Tag:_138]|10=018|
