8=FIX.4.1|9=143|35=B|49=TESTI|56=TESTA|34=2|52=20030203-16:21:17|148=Weather|146=1|33=4|58=In the evening |58=it might be wet |58=and windy.|58= Take your coat on.|10=182|
8=FIX.4.1|9=140|35=1|34=104|49=SNDR|56=TRGT|52=20090407-09:48:19.812|112=check REJECT: INVALID MESSAGE - REQUIRED TAG MISSING [MsgType:_B, Tag:_46]|10=018|
8=FIX.4.1|9=143|35=B|49=TESTI|56=TESTA|34=2|52=20030203-16:21:17|148=Weather|33=4|58=In the evening |58=it might be wet |58=and windy.|58= Take your coat on.|95=2|10=182|
8=FIX.4.1|9=140|35=1|34=104|49=SNDR|56=TRGT|52=20090407-09:48:19.812|112=check REJECT: INVALID MESSAGE - REQUIRED TAG MISSING [MsgType:_B, Tag:_96]|10=018|
8=FIX.4.1|9=147|35=C|49=TESTI|56=TESTA|34=2|52=20030203-16:20:05|164=111111111|94=0|147=Bunny's Birthday|146=1|33=3|58=Hello, Bunny!|58=Happy Birthday to you :)|58=Bye.|10=130|
8=FIX.4.1|9=140|35=1|34=104|49=SNDR|56=TRGT|52=20090407-09:48:19.812|112=check REJECT: INVALID MESSAGE - REQUIRED TAG MISSING [MsgType:_C, Tag:_46]|10=018|
8=FIX.4.1|9=147|35=C|49=TESTI|56=TESTA|34=2|52=20030203-16:20:05|164=111111111|94=0|147=Bunny's Birthday|33=3|58=Hello, Bunny!|58=Happy Birthday to you :)|58=Bye.|95=2|10=130|
8=FIX.4.1|9=140|35=1|34=104|49=SNDR|56=TRGT|52=20090407-09:48:19.812|112=check REJECT: INVALID MESSAGE - REQUIRED TAG MISSING [MsgType:_C, Tag:_96]|10=018|
