8=FIX.4.2|9=100|35=X|49=TESTI|56=TESTA|34=14|52=20030204-09:25:43|268=1|279=1|280=0001|270=10|277=A b|10=107|
8=FIX.4.2|9=100|35=X|49=TESTI|56=TESTA|34=14|52=20030204-09:25:43|268=1|279=1|280=0001|270=10|277=O I|10=107|
8=FIX.4.2|9=100|35=X|49=TESTI|56=TESTA|34=14|52=20030204-09:25:43|268=1|279=1|280=0001|270=10|277=1 2 B|10=107|
8=FIX.4.2|9=100|35=X|49=TESTI|56=TESTA|34=14|52=20030204-09:25:43|268=1|279=1|280=0001|270=10|277=-1|10=107|
8=FIX.4.2|9=140|35=1|34=104|49=SNDR|56=TRGT|52=20090407-09:48:19.812|112= TEST #003 CHECK 4 REJECT MSGS with INVALID MESSAGE - INCORRECT DATA TYPE [MsgType:_X, Tag:_277]|10=018|
