8=FIX.4.2|9=126|35=G|49=TESTI|56=TESTA|34=6|52=20030204-08:49:18|11=12233345|41=90001008|21=2|18=1 23|55=TESTB|54=1|60=20060117-10:00:00|38=4000|40=1|10=220|
8=FIX.4.2|9=126|35=G|49=TESTI|56=TESTA|34=6|52=20030204-08:49:18|11=12233345|41=90001008|21=2|18=0 a B|55=TESTB|54=1|60=20060117-10:00:00|38=4000|40=1|10=220|
8=FIX.4.2|9=126|35=G|49=TESTI|56=TESTA|34=6|52=20030204-08:49:18|11=12233345|41=90001008|21=2|18=W Bb|55=TESTB|54=1|60=20060117-10:00:00|38=4000|40=1|10=220|
8=FIX.4.2|9=126|35=G|49=TESTI|56=TESTA|34=6|52=20030204-08:49:18|11=12233345|41=90001008|21=2|18=-1|55=TESTB|54=1|60=20060117-10:00:00|38=4000|40=1|10=220|
8=FIX.4.2|9=140|35=1|34=104|49=SNDR|56=TRGT|52=20090407-09:48:19.812|112= TEST #001 CHECK 4 REJECT MSGS with INVALID MESSAGE - INCORRECT DATA TYPE [MsgType:_G, Tag:_18]|10=018|
8=FIX.4.2|9=100|35=X|49=TESTI|56=TESTA|34=14|52=20030204-09:25:43|268=1|279=1|280=0001|270=10|276=A b|10=107|
8=FIX.4.2|9=100|35=X|49=TESTI|56=TESTA|34=14|52=20030204-09:25:43|268=1|279=1|280=0001|270=10|276=K I|10=107|
8=FIX.4.2|9=100|35=X|49=TESTI|56=TESTA|34=14|52=20030204-09:25:43|268=1|279=1|280=0001|270=10|276=1 2 B|10=107|
8=FIX.4.2|9=100|35=X|49=TESTI|56=TESTA|34=14|52=20030204-09:25:43|268=1|279=1|280=0001|270=10|276=-1|10=107|
8=FIX.4.2|9=140|35=1|34=104|49=SNDR|56=TRGT|52=20090407-09:48:19.812|112= TEST #002 CHECK 4 REJECT MSGS with INVALID MESSAGE - INCORRECT DATA TYPE [MsgType:_X, Tag:_276]|10=018|
8=FIX.4.2|9=100|35=X|49=TESTI|56=TESTA|34=14|52=20030204-09:25:43|268=1|279=1|280=0001|270=10|277=A b|10=107|
8=FIX.4.2|9=100|35=X|49=TESTI|56=TESTA|34=14|52=20030204-09:25:43|268=1|279=1|280=0001|270=10|277=O I|10=107|
8=FIX.4.2|9=100|35=X|49=TESTI|56=TESTA|34=14|52=20030204-09:25:43|268=1|279=1|280=0001|270=10|277=1 2 B|10=107|
8=FIX.4.2|9=100|35=X|49=TESTI|56=TESTA|34=14|52=20030204-09:25:43|268=1|279=1|280=0001|270=10|277=-1|10=107|
8=FIX.4.2|9=140|35=1|34=104|49=SNDR|56=TRGT|52=20090407-09:48:19.812|112= TEST #003 CHECK 4 REJECT MSGS with INVALID MESSAGE - INCORRECT DATA TYPE [MsgType:_X, Tag:_277]|10=018|
