8=FIX.4.2|9=159|35=E|49=TESTI|56=TESTA|34=3|52=20030204-08:18:22|66=20012411|394=3|68=1|73=2|11=1131|67=1|21=1|55=TESTB3|54=3|38=3000|11=1132|67=2|21=1|55=TESTB2|54=1|38=1000|10=196|
