8=FIX.4.2|9=131|35=G|49=TESTI|56=TESTA|34=6|52=20030204-08:49:18|11=12233345|41=90001008|63=0|21=2|55=TESTB|54=1|60=20060117-10:00:00|38=4000|40=1|10=175|
