8=FIX.4.2|9=244|35=i|49=TESTI|56=TESTA|34=4|52=20030204-08:56:41|117=1116226|296=2|302=0001|311=TESTA|304=5|295=2|299=11|55=TESTB|132=11|299=12|55=TESTC|133=12|302=0002|311=TESTB|304=5|295=3|299=21|55=TESTD|132=13|299=22|55=TESTE|133=14|299=23|55=TESTF|133=15|10=035|
