8=FIX.4.2|9=109|35=X|49=TESTI|56=TESTA|34=14|52=20030204-09:25:43|262=0001|268=2|279=1|280=0001|270=10|279=1|280=0002|270=11|10=013|
