8=FIX.4.4|9=90|35=7|49=TESTI|56=TESTA|34=31|52=20030203-16:02:35|2=20|5=R|3=0003|55=TESTB|4=B|53=1000000|10=230|
8=FIX.4.4|9=90|35=7|49=TESTI|56=TESTA|34=31|52=20030203-16:02:35|2=20|5=R|3=0003|55=TESTB|4=X|53=1000000|10=252|
8=FIX.4.4|9=90|35=7|49=TESTI|56=TESTA|34=31|52=20030203-16:02:35|2=20|5=C|3=0003|55=TESTB|4=T|53=1000000|10=233|
8=FIX.4.4|9=83|35=7|49=TESTI|56=TESTA|34=31|52=20030203-16:02:35|2=20|5=N|55=TESTB|4=T|53=1000000|10=194|
8=FIX.4.4|9=90|35=7|49=TESTI|56=TESTA|34=31|52=20030203-16:02:35|2=20|5=R|3=0003|55=TESTB|4=T|53=1000000|10=248|
8=FIX.4.4|9=91|35=AI|49=TESTI|56=TESTA|34=4|50=30737|52=20030204-08:46:14|117=0001|55=TESTA|132=10.5|13=1|10=068|
8=FIX.4.4|9=91|35=AI|49=TESTI|56=TESTA|34=4|50=30737|52=20030204-08:46:14|117=0001|55=TESTA|132=10.5|13=6|10=073|
8=FIX.4.4|9=182|35=s|49=TESTI|56=TESTA|34=4|50=30737|97=Y|52=20030204-08:46:14|548=90001008|549=1|550=0|552=2|54=1|11=B101010|38=4000|54=2|11=S101010|38=5000|55=TESTA|60=20060217-10:00:00|40=1|18=0|10=065|
8=FIX.4.4|9=182|35=s|49=TESTI|56=TESTA|34=4|50=30737|97=Y|52=20030204-08:46:14|548=90001008|549=1|550=0|552=2|54=1|11=B101010|38=4000|54=2|11=S101010|38=5000|55=TESTA|60=20060217-10:00:00|40=1|18=9|10=074|
8=FIX.4.4|9=182|35=s|49=TESTI|56=TESTA|34=4|50=30737|97=Y|52=20030204-08:46:14|548=90001008|549=1|550=0|552=2|54=1|11=B101010|38=4000|54=2|11=S101010|38=5000|55=TESTA|60=20060217-10:00:00|40=1|18=A|10=082|
8=FIX.4.4|9=182|35=s|49=TESTI|56=TESTA|34=4|50=30737|97=Y|52=20030204-08:46:14|548=90001008|549=1|550=0|552=2|54=1|11=B101010|38=4000|54=2|11=S101010|38=5000|55=TESTA|60=20060217-10:00:00|40=1|18=Z|10=107|
8=FIX.4.4|9=182|35=s|49=TESTI|56=TESTA|34=4|50=30737|97=Y|52=20030204-08:46:14|548=90001008|549=1|550=0|552=2|54=1|11=B101010|38=4000|54=2|11=S101010|38=5000|55=TESTA|60=20060217-10:00:00|40=1|18=a|10=114|
8=FIX.4.4|9=182|35=s|49=TESTI|56=TESTA|34=4|50=30737|97=Y|52=20030204-08:46:14|548=90001008|549=1|550=0|552=2|54=1|11=B101010|38=4000|54=2|11=S101010|38=5000|55=TESTA|60=20060217-10:00:00|40=1|18=e|10=118|
8=FIX.4.4|9=128|35=D|49=TESTI|56=TESTA|34=4|50=30737|97=Y|52=20030204-08:46:14|11=90001008|21=1|55=TESTB|54=1|60=20060217-10:00:00|38=4000|40=1|10=072|
8=FIX.4.4|9=128|35=D|49=TESTI|56=TESTA|34=4|50=30737|97=Y|52=20030204-08:46:14|11=90001008|21=3|55=TESTB|54=1|60=20060217-10:00:00|38=4000|40=1|10=074|
8=FIX.4.4|9=79|35=e|49=TESTI|56=TESTA|34=14|52=20030204-09:25:43|324=0001|55=TESTB|22=1|263=0|10=033|
8=FIX.4.4|9=79|35=e|49=TESTI|56=TESTA|34=14|52=20030204-09:25:43|324=0001|55=TESTB|22=9|263=0|10=041|
8=FIX.4.4|9=79|35=e|49=TESTI|56=TESTA|34=14|52=20030204-09:25:43|324=0001|55=TESTB|22=A|263=0|10=049|
8=FIX.4.4|9=79|35=e|49=TESTI|56=TESTA|34=14|52=20030204-09:25:43|324=0001|55=TESTB|22=J|263=0|10=058|
8=FIX.4.4|9=86|35=6|49=TESTI|56=TESTA|34=121|52=20030203-16:10:01|23=24|28=N|55=TESTB|54=1|27=S|25=H|10=090|
8=FIX.4.4|9=86|35=6|49=TESTI|56=TESTA|34=121|52=20030203-16:10:01|23=24|28=N|55=TESTB|54=1|27=S|25=M|10=095|
8=FIX.4.4|9=90|35=6|49=TESTI|56=TESTA|34=121|52=20030203-16:10:01|23=24|28=C|26=00026|55=TESTB|54=1|27=S|10=251|
8=FIX.4.4|9=81|35=6|49=TESTI|56=TESTA|34=121|52=20030203-16:10:01|23=24|28=N|55=TESTB|54=1|27=S|10=104|
8=FIX.4.4|9=90|35=6|49=TESTI|56=TESTA|34=121|52=20030203-16:10:01|23=24|28=R|26=00026|55=TESTB|54=1|27=S|10=010|
8=FIX.4.4|9=172|35=AS|49=TESTI|56=TESTA|34=4|50=30737|97=Y|52=20030204-08:46:14|755=0001|71=0|794=5|87=0|857=0|124=1|32=5000|31=1.3|669=1.25|29=1|54=2|55=TESTB|53=10000|6=10.5|75=20060217|10=008|
8=FIX.4.4|9=172|35=AS|49=TESTI|56=TESTA|34=4|50=30737|97=Y|52=20030204-08:46:14|755=0001|71=0|794=5|87=0|857=0|124=1|32=5000|31=1.3|669=1.25|29=4|54=2|55=TESTB|53=10000|6=10.5|75=20060217|10=011|
8=FIX.4.4|9=135|35=8|49=TESTI|56=TESTA|34=114|52=20030203-16:09:30|37=11111111|17=12|39=0|150=F|55=TESTB|54=1|38=1000|151=600|14=400|6=10|32=400|31=10|10=245|
8=FIX.4.4|9=135|35=8|49=TESTI|56=TESTA|34=114|52=20030203-16:09:30|37=11111111|17=12|39=E|150=F|55=TESTB|54=1|38=1000|151=600|14=400|6=10|32=400|31=10|10=010|
8=FIX.4.4|9=162|35=AC|49=TESTI|56=TESTA|34=4|50=30737|97=Y|52=20030204-08:46:14|11=90001008|41=93452234|54=1|55=TESTB|555=2|600=TESTA|600=TESTC|60=20060217-10:00:00|38=4000|40=1|10=178|
8=FIX.4.4|9=162|35=AC|49=TESTI|56=TESTA|34=4|50=30737|97=Y|52=20030204-08:46:14|11=90001008|41=93452234|54=1|55=TESTB|555=2|600=TESTA|600=TESTC|60=20060217-10:00:00|38=4000|40=P|10=209|
8=FIX.4.4|9=135|35=8|49=TESTI|56=TESTA|34=114|52=20030203-16:09:30|37=11111111|17=12|39=1|150=F|55=TESTB|54=1|38=1000|151=600|14=400|6=10|32=400|31=10|10=246|
8=FIX.4.4|9=135|35=8|49=TESTI|56=TESTA|34=114|52=20030203-16:09:30|37=11111111|17=12|39=1|150=F|55=TESTB|54=G|38=1000|151=600|14=400|6=10|32=400|31=10|10=012|
8=FIX.4.4|9=128|35=D|49=TESTI|56=TESTA|34=4|50=30737|97=Y|52=20030204-08:46:14|11=90001008|55=TESTB|54=1|60=20060217-10:00:00|38=4000|40=1|59=0|10=082|
8=FIX.4.4|9=128|35=D|49=TESTI|56=TESTA|34=4|50=30737|97=Y|52=20030204-08:46:14|11=90001008|55=TESTB|54=1|60=20060217-10:00:00|38=4000|40=1|59=7|10=089|
8=FIX.4.4|9=148|35=B|49=TESTI|56=TESTA|34=19|52=20030203-16:21:17|61=0|148=Weather|33=4|58=In the evening |58=it might be wet |58=and windy.|58= Take your coat on.|10=147|
8=FIX.4.4|9=148|35=B|49=TESTI|56=TESTA|34=19|52=20030203-16:21:17|61=2|148=Weather|33=4|58=In the evening |58=it might be wet |58=and windy.|58= Take your coat on.|10=149|
8=FIX.4.4|9=183|35=J|49=TESTI|56=TESTA|34=4|52=20030204-08:56:41|70=1116226|71=0|626=1|857=0|54=1|55=TESTB|53=1004000|6=30|75=20030821|63=0|78=3|79=1000|80=500000|79=2000|80=400000|79=3000|80=104000|10=214|
8=FIX.4.4|9=183|35=J|49=TESTI|56=TESTA|34=4|52=20030204-08:56:41|70=1116226|71=0|626=1|857=0|54=1|55=TESTB|53=1004000|6=30|75=20030821|63=9|78=3|79=1000|80=500000|79=2000|80=400000|79=3000|80=104000|10=223|
8=FIX.4.4|9=65|35=f|49=TESTI|56=TESTA|34=14|52=20030204-09:25:43|55=TESTB|65=CD|10=217|
8=FIX.4.4|9=65|35=f|49=TESTI|56=TESTA|34=14|52=20030204-09:25:43|55=TESTB|65=WI|10=242|
8=FIX.4.4|9=137|35=AS|49=TESTI|56=TESTA|34=4|50=30737|97=Y|52=20030204-08:46:14|755=0001|71=0|794=5|87=0|857=0|54=2|55=TESTB|53=10000|6=10.5|75=20060217|10=228|
8=FIX.4.4|9=164|35=AS|49=TESTI|56=TESTA|34=4|50=30737|97=Y|52=20030204-08:46:14|755=0001|71=2|795=000795|796=99|794=5|87=0|72=00072|857=0|54=2|55=TESTB|53=10000|6=10.5|75=20060217|10=244|
8=FIX.4.4|9=155|35=AB|49=TESTI|56=TESTA|34=4|50=30737|97=Y|52=20030204-08:46:14|11=90001008|54=1|55=TESTB|555=2|600=TESTA|600=TESTC|38=4000|40=1|77=C|60=20060117-10:00:00|10=094|
8=FIX.4.4|9=155|35=AB|49=TESTI|56=TESTA|34=4|50=30737|97=Y|52=20030204-08:46:14|11=90001008|54=1|55=TESTB|555=2|600=TESTA|600=TESTC|38=4000|40=1|77=R|60=20060117-10:00:00|10=109|
8=FIX.4.4|9=128|35=D|49=TESTI|56=TESTA|34=4|50=30737|97=Y|52=20030204-08:46:14|11=90001008|81=0|55=TESTB|54=1|60=20060217-10:00:00|38=4000|40=1|10=077|
8=FIX.4.4|9=128|35=D|49=TESTI|56=TESTA|34=4|50=30737|97=Y|52=20030204-08:46:14|11=90001008|81=6|55=TESTB|54=1|60=20060217-10:00:00|38=4000|40=1|10=083|
8=FIX.4.4|9=107|35=AT|49=TESTI|56=TESTA|34=4|50=30737|97=Y|52=20030204-08:46:14|755=0001|70=0001|60=20060217-10:00:00|87=0|10=051|
8=FIX.4.4|9=107|35=AT|49=TESTI|56=TESTA|34=4|50=30737|97=Y|52=20030204-08:46:14|755=0001|70=0001|60=20060217-10:00:00|87=5|10=056|
8=FIX.4.4|9=100|35=P|49=TESTI|56=TESTA|34=7|52=20030204-09:17:25|70=3659000001|60=20060108-10:00:53|87=0|573=0|88=0|10=198|
8=FIX.4.4|9=101|35=P|49=TESTI|56=TESTA|34=7|52=20030204-09:17:25|70=3659000001|60=20060108-10:00:53|87=0|573=0|88=13|10=251|
8=FIX.4.4|9=108|35=9|49=TESTI|56=TESTA|34=3|52=20030203-16:13:14|37=11111111|11=12121212122|41=11111111111|39=0|434=1|102=0|10=218|
8=FIX.4.4|9=108|35=9|49=TESTI|56=TESTA|34=3|52=20030203-16:13:14|37=11111111|11=12121212122|41=11111111111|39=0|434=1|102=6|10=224|
8=FIX.4.4|9=109|35=9|49=TESTI|56=TESTA|34=3|52=20030203-16:13:14|37=11111111|11=12121212122|41=11111111111|39=0|434=1|102=99|10=029|
8=FIX.4.4|9=126|35=8|49=TESTI|56=TESTA|34=114|52=20030203-16:09:30|37=11111111|17=11|39=0|103=0|150=0|55=TESTB|54=1|38=1000|151=1000|14=0|6=0|10=060|
8=FIX.4.4|9=127|35=8|49=TESTI|56=TESTA|34=114|52=20030203-16:09:30|37=11111111|17=11|39=0|103=15|150=0|55=TESTB|54=1|38=1000|151=1000|14=0|6=0|10=115|
8=FIX.4.4|9=127|35=8|49=TESTI|56=TESTA|34=114|52=20030203-16:09:30|37=11111111|17=11|39=0|103=99|150=0|55=TESTB|54=1|38=1000|151=1000|14=0|6=0|10=127|
8=FIX.4.4|9=93|35=6|49=TESTI|56=TESTA|34=121|52=20030203-16:10:01|23=24|28=N|55=TESTB|54=1|27=S|199=1|104=A|10=145|
8=FIX.4.4|9=99|35=6|49=TESTI|56=TESTA|34=121|52=20030203-16:10:01|23=24|28=N|55=TESTB|54=1|27=S|199=2|104=I|104=Z|10=205|
8=FIX.4.4|9=126|35=8|49=TESTI|56=TESTA|34=114|52=20030203-16:09:30|37=11111111|17=11|39=0|150=0|55=TESTB|54=1|38=1000|151=1000|14=0|6=0|113=Y|10=102|
8=FIX.4.4|9=126|35=8|49=TESTI|56=TESTA|34=114|52=20030203-16:09:30|37=11111111|17=11|39=0|150=0|55=TESTB|54=1|38=1000|151=1000|14=0|6=0|113=N|10=091|
8=FIX.4.4|9=132|35=G|49=TESTI|56=TESTA|34=6|52=20030204-08:49:18|11=12233345|41=90001008|21=2|55=TESTB|54=1|60=20060117-10:00:00|38=4000|40=1|114=Y|10=008|
8=FIX.4.4|9=132|35=G|49=TESTI|56=TESTA|34=6|52=20030204-08:49:18|11=12233345|41=90001008|21=2|55=TESTB|54=1|60=20060117-10:00:00|38=4000|40=1|114=N|10=253|
8=FIX.4.4|9=137|35=D|49=TESTI|56=TESTA|34=4|50=30737|97=Y|52=20030204-08:46:14|11=90001008|55=TESTB|54=1|60=20060217-10:00:00|38=4000|40=1|121=Y|120=USD|10=094|
8=FIX.4.4|9=129|35=D|49=TESTI|56=TESTA|34=4|50=30737|97=Y|52=20030204-08:46:14|11=90001008|55=TESTB|54=1|60=20060217-10:00:00|38=4000|40=1|121=N|10=151|
8=FIX.4.4|9=95|35=Q|49=TESTI|56=TESTA|34=4|52=20030204-09:28:44|37=01923883|17=11|127=F|55=TESTB|54=1|38=4000|10=031|
8=FIX.4.4|9=95|35=Q|49=TESTI|56=TESTA|34=4|52=20030204-09:28:44|37=01923883|17=11|127=Z|55=TESTB|54=1|38=4000|10=051|
8=FIX.4.4|9=87|35=6|49=TESTI|56=TESTA|34=121|52=20030203-16:10:01|23=24|28=N|55=TESTB|54=1|27=S|130=N|10=142|
8=FIX.4.4|9=87|35=6|49=TESTI|56=TESTA|34=121|52=20030203-16:10:01|23=24|28=N|55=TESTB|54=1|27=S|130=Y|10=153|
8=FIX.4.4|9=94|35=BA|49=TESTI|56=TESTA|34=4|50=30737|52=20030204-08:46:14|908=0001|910=0|136=1|137=22|139=10|10=062|
8=FIX.4.4|9=107|35=BA|49=TESTI|56=TESTA|34=4|50=30737|52=20030204-08:46:14|908=0001|910=0|136=2|137=22|139=1|137=22|139=12|10=181|
8=FIX.4.4|9=120|35=8|49=TESTI|56=TESTA|34=114|52=20030203-16:09:30|37=11111111|17=11|39=0|150=0|55=TESTB|54=1|38=1000|151=1000|14=0|6=0|10=052|
8=FIX.4.4|9=120|35=8|49=TESTI|56=TESTA|34=114|52=20030203-16:09:30|37=11111111|17=11|39=0|150=I|55=TESTB|54=1|38=1000|151=1000|14=0|6=0|10=077|
8=FIX.4.4|9=181|35=T|49=TESTI|56=TESTA|34=14|52=20030204-09:25:43|777=112233|160=1|792=99|778=1|162=000162|163=R|214=TST214|168=20060217-10:00:00.100|779=20060217-10:00:01.200|60=20060217-10:00:00|10=139|
8=FIX.4.4|9=95|35=T|49=TESTI|56=TESTA|34=14|52=20030204-09:25:43|777=112233|160=5|792=99|60=20060217-10:00:00|10=211|
8=FIX.4.4|9=118|35=T|49=TESTI|56=TESTA|34=14|52=20030204-09:25:43|777=112233|160=5|792=99|60=20060217-10:00:00|778=1|162=100001|163=T|10=057|
8=FIX.4.4|9=261|35=T|49=TESTI|56=TESTA|34=14|52=20030204-09:25:43|777=112233|160=5|792=99|60=20060217-10:00:00|778=2|162=100001|163=C|214=TST214|168=20060217-10:00:00.100|779=20060217-10:00:01.200|162=100002|163=R|214=TST214|168=20060217-10:00:01.100|779=20060217-10:00:02.200|10=240|
8=FIX.4.4|9=153|35=AY|49=TESTI|56=TESTA|34=4|50=30737|52=20030204-08:46:14|902=0001|895=0|903=0|60=20060217-10:00:00|172=1|85=1|165=1|787=C|781=1|782=TST782|783=8|784=1|10=210|
8=FIX.4.4|9=153|35=AY|49=TESTI|56=TESTA|34=4|50=30737|52=20030204-08:46:14|902=0001|895=0|903=0|60=20060217-10:00:00|172=1|85=1|165=2|787=C|781=1|782=TST782|783=8|784=1|10=211|
8=FIX.4.4|9=153|35=AY|49=TESTI|56=TESTA|34=4|50=30737|52=20030204-08:46:14|902=0001|895=0|903=0|60=20060217-10:00:00|172=1|85=1|165=3|787=C|781=1|782=TST782|783=8|784=1|10=212|
8=FIX.4.4|9=67|35=v|49=TESTI|56=TESTA|34=14|52=20030204-09:25:43|320=11223|167=BA|10=188|
8=FIX.4.4|9=68|35=v|49=TESTI|56=TESTA|34=14|52=20030204-09:25:43|320=11223|167=ABS|10=016|
8=FIX.4.4|9=69|35=v|49=TESTI|56=TESTA|34=14|52=20030204-09:25:43|320=11223|167=CMBS|10=096|
8=FIX.4.4|9=70|35=v|49=TESTI|56=TESTA|34=14|52=20030204-09:25:43|320=11223|167=SWING|10=187|
8=FIX.4.4|9=71|35=v|49=TESTI|56=TESTA|34=14|52=20030204-09:25:43|320=11223|167=EUCORP|10=002|
8=FIX.4.4|9=72|35=v|49=TESTI|56=TESTA|34=14|52=20030204-09:25:43|320=11223|167=EUSUPRA|10=090|
8=FIX.4.4|9=74|35=v|49=TESTI|56=TESTA|34=14|52=20030204-09:25:43|320=11223|167=SECPLEDGE|10=195|
8=FIX.4.4|9=86|35=BA|49=TESTI|56=TESTA|34=4|50=30737|52=20030204-08:46:14|908=0001|910=0|172=1|169=4|10=216|
8=FIX.4.4|9=86|35=BA|49=TESTI|56=TESTA|34=4|50=30737|52=20030204-08:46:14|908=0001|910=0|172=1|169=0|10=212|
8=FIX.4.4|9=143|35=AS|49=TESTI|56=TESTA|34=4|50=30737|97=Y|52=20030204-08:46:14|755=0001|71=0|794=5|87=0|197=0|857=0|54=2|55=TESTB|53=10000|6=10.5|75=20060217|10=240|
8=FIX.4.4|9=143|35=AS|49=TESTI|56=TESTA|34=4|50=30737|97=Y|52=20030204-08:46:14|755=0001|71=0|794=5|87=0|197=1|857=0|54=2|55=TESTB|53=10000|6=10.5|75=20060217|10=241|
8=FIX.4.4|9=129|35=D|49=TESTI|56=TESTA|34=4|50=30737|97=Y|52=20030204-08:46:14|11=90001008|55=TESTB|54=1|60=20060217-10:00:00|38=4000|40=1|203=1|10=123|
8=FIX.4.4|9=129|35=D|49=TESTI|56=TESTA|34=4|50=30737|97=Y|52=20030204-08:46:14|11=90001008|55=TESTB|54=1|60=20060217-10:00:00|38=4000|40=1|203=0|10=122|
8=FIX.4.4|9=157|35=AS|49=TESTI|56=TESTA|34=4|50=30737|97=Y|52=20030204-08:46:14|755=0001|71=0|794=5|87=0|857=0|54=2|55=TESTB|53=10000|6=10.5|75=20060217|78=1|79=00079|208=N|10=152|
8=FIX.4.4|9=157|35=AS|49=TESTI|56=TESTA|34=4|50=30737|97=Y|52=20030204-08:46:14|755=0001|71=0|794=5|87=0|857=0|54=2|55=TESTB|53=10000|6=10.5|75=20060217|78=1|79=00079|208=Y|10=163|
8=FIX.4.4|9=157|35=AS|49=TESTI|56=TESTA|34=4|50=30737|97=Y|52=20030204-08:46:14|755=0001|71=0|794=5|87=0|857=0|54=2|55=TESTB|53=10000|6=10.5|75=20060217|78=1|79=00079|209=1|10=124|
8=FIX.4.4|9=157|35=AS|49=TESTI|56=TESTA|34=4|50=30737|97=Y|52=20030204-08:46:14|755=0001|71=0|794=5|87=0|857=0|54=2|55=TESTB|53=10000|6=10.5|75=20060217|78=1|79=00079|209=3|10=126|
8=FIX.4.4|9=166|35=B|49=TESTI|56=TESTA|34=19|52=20030203-16:21:17|148=Weather|215=1|216=1|217=000217|33=4|58=In the evening |58=it might be wet |58=and windy.|58= Take your coat on.|10=207|
8=FIX.4.4|9=166|35=B|49=TESTI|56=TESTA|34=19|52=20030203-16:21:17|148=Weather|215=1|216=4|217=000217|33=4|58=In the evening |58=it might be wet |58=and windy.|58= Take your coat on.|10=210|
8=FIX.4.4|9=188|35=AE|49=TESTI|56=TESTA|34=4|50=30737|97=Y|52=20030204-08:46:14|571=90001008|150=F|570=N|55=TESTA|32=1000|31=10.4|75=20060217|221=SWAP|60=20060217-10:00:00|552=2|54=1|37=0001|54=2|37=0002|10=197|
8=FIX.4.4|9=189|35=AE|49=TESTI|56=TESTA|34=4|50=30737|97=Y|52=20030204-08:46:14|571=90001008|150=F|570=N|55=TESTA|32=1000|31=10.4|75=20060217|221=LIBOR|60=20060217-10:00:00|552=2|54=1|37=0001|54=2|37=0002|10=003|
8=FIX.4.4|9=190|35=AE|49=TESTI|56=TESTA|34=4|50=30737|97=Y|52=20030204-08:46:14|571=90001008|150=F|570=N|55=TESTA|32=1000|31=10.4|75=20060217|221=EUREPO|60=20060217-10:00:00|552=2|54=1|37=0001|54=2|37=0002|10=083|
8=FIX.4.4|9=191|35=AE|49=TESTI|56=TESTA|34=4|50=30737|97=Y|52=20030204-08:46:14|571=90001008|150=F|570=N|55=TESTA|32=1000|31=10.4|75=20060217|221=Euribor|60=20060217-10:00:00|552=2|54=1|37=0001|54=2|37=0002|10=092|
8=FIX.4.4|9=192|35=AE|49=TESTI|56=TESTA|34=4|50=30737|97=Y|52=20030204-08:46:14|571=90001008|150=F|570=N|55=TESTA|32=1000|31=10.4|75=20060217|221=Treasury|60=20060217-10:00:00|552=2|54=1|37=0001|54=2|37=0002|10=228|
8=FIX.4.4|9=194|35=AE|49=TESTI|56=TESTA|34=4|50=30737|97=Y|52=20030204-08:46:14|571=90001008|150=F|570=N|55=TESTA|32=1000|31=10.4|75=20060217|221=FutureSWAP|60=20060217-10:00:00|552=2|54=1|37=0001|54=2|37=0002|10=061|
8=FIX.4.4|9=195|35=AE|49=TESTI|56=TESTA|34=4|50=30737|97=Y|52=20030204-08:46:14|571=90001008|150=F|570=N|55=TESTA|32=1000|31=10.4|75=20060217|221=Pfandbriefe|60=20060217-10:00:00|552=2|54=1|37=0001|54=2|37=0002|10=222|
8=FIX.4.4|9=151|35=AS|49=TESTI|56=TESTA|34=4|50=30737|97=Y|52=20030204-08:46:14|755=0001|71=0|794=5|87=0|857=0|54=2|55=TESTB|53=10000|6=10.5|75=20060217|232=1|233=AMT|10=158|
8=FIX.4.4|9=152|35=AS|49=TESTI|56=TESTA|34=4|50=30737|97=Y|52=20030204-08:46:14|755=0001|71=0|794=5|87=0|857=0|54=2|55=TESTB|53=10000|6=10.5|75=20060217|232=1|233=GEOG|10=223|
8=FIX.4.4|9=153|35=AS|49=TESTI|56=TESTA|34=4|50=30737|97=Y|52=20030204-08:46:14|755=0001|71=0|794=5|87=0|857=0|54=2|55=TESTB|53=10000|6=10.5|75=20060217|232=1|233=ISSUE|10=071|
8=FIX.4.4|9=154|35=AS|49=TESTI|56=TESTA|34=4|50=30737|97=Y|52=20030204-08:46:14|755=0001|71=0|794=5|87=0|857=0|54=2|55=TESTB|53=10000|6=10.5|75=20060217|232=1|233=LOTVAR|10=151|
8=FIX.4.4|9=155|35=AS|49=TESTI|56=TESTA|34=4|50=30737|97=Y|52=20030204-08:46:14|755=0001|71=0|794=5|87=0|857=0|54=2|55=TESTB|53=10000|6=10.5|75=20060217|232=1|233=MAXSUBS|10=227|
8=FIX.4.4|9=156|35=AS|49=TESTI|56=TESTA|34=4|50=30737|97=Y|52=20030204-08:46:14|755=0001|71=0|794=5|87=0|857=0|54=2|55=TESTB|53=10000|6=10.5|75=20060217|232=1|233=PXSOURCE|10=058|
8=FIX.4.4|9=157|35=AS|49=TESTI|56=TESTA|34=4|50=30737|97=Y|52=20030204-08:46:14|755=0001|71=0|794=5|87=0|857=0|54=2|55=TESTB|53=10000|6=10.5|75=20060217|232=1|233=PRICEFREQ|10=099|
8=FIX.4.4|9=158|35=AS|49=TESTI|56=TESTA|34=4|50=30737|97=Y|52=20030204-08:46:14|755=0001|71=0|794=5|87=0|857=0|54=2|55=TESTB|53=10000|6=10.5|75=20060217|232=1|233=REDEMPTION|10=186|
8=FIX.4.4|9=86|35=S|49=TESTI|56=TESTA|34=14|52=20030204-09:25:43|117=11223|55=TESTB|133=15.3|235=PUT|10=214|
8=FIX.4.4|9=87|35=S|49=TESTI|56=TESTA|34=14|52=20030204-09:25:43|117=11223|55=TESTB|133=15.3|235=MARK|10=009|
8=FIX.4.4|9=88|35=S|49=TESTI|56=TESTA|34=14|52=20030204-09:25:43|117=11223|55=TESTB|133=15.3|235=GROSS|10=109|
8=FIX.4.4|9=89|35=S|49=TESTI|56=TESTA|34=14|52=20030204-09:25:43|117=11223|55=TESTB|133=15.3|235=CHANGE|10=134|
8=FIX.4.4|9=90|35=S|49=TESTI|56=TESTA|34=14|52=20030204-09:25:43|117=11223|55=TESTB|133=15.3|235=CURRENT|10=251|
8=FIX.4.4|9=91|35=S|49=TESTI|56=TESTA|34=14|52=20030204-09:25:43|117=11223|55=TESTB|133=15.3|235=MATURITY|10=088|
8=FIX.4.4|9=92|35=S|49=TESTI|56=TESTA|34=14|52=20030204-09:25:43|117=11223|55=TESTB|133=15.3|235=PREVCLOSE|10=141|
8=FIX.4.4|9=93|35=S|49=TESTI|56=TESTA|34=14|52=20030204-09:25:43|117=11223|55=TESTB|133=15.3|235=SEMIANNUAL|10=200|
8=FIX.4.4|9=126|35=8|49=TESTI|56=TESTA|34=114|52=20030203-16:09:30|37=11111111|17=11|39=0|150=0|55=TESTB|54=1|38=1000|151=1000|14=0|6=0|258=N|10=101|
8=FIX.4.4|9=126|35=8|49=TESTI|56=TESTA|34=114|52=20030203-16:09:30|37=11111111|17=11|39=0|150=0|55=TESTB|54=1|38=1000|151=1000|14=0|6=0|258=Y|10=112|
8=FIX.4.4|9=65|35=g|49=TESTI|56=TESTA|34=14|52=20030204-09:25:43|335=0001|263=0|10=035|
8=FIX.4.4|9=65|35=g|49=TESTI|56=TESTA|34=14|52=20030204-09:25:43|335=0001|263=1|10=036|
8=FIX.4.4|9=65|35=g|49=TESTI|56=TESTA|34=14|52=20030204-09:25:43|335=0001|263=2|10=037|
8=FIX.4.4|9=114|35=V|49=TESTI|56=TESTA|34=14|52=20030204-09:25:43|262=11223|263=0|264=0|267=2|269=0|269=1|146=2|55=TESTA|55=TESTB|10=010|
8=FIX.4.4|9=114|35=V|49=TESTI|56=TESTA|34=14|52=20030204-09:25:43|262=11223|263=0|264=1|267=2|269=0|269=1|146=2|55=TESTA|55=TESTB|10=011|
8=FIX.4.4|9=126|35=V|49=TESTI|56=TESTA|34=14|52=20030204-09:25:43|262=11223|263=0|264=100000000000|267=2|269=0|269=1|146=2|55=TESTA|55=TESTB|10=078|
8=FIX.4.4|9=120|35=V|49=TESTI|56=TESTA|34=14|52=20030204-09:25:43|262=11223|263=0|264=0|265=0|267=2|269=0|269=1|146=2|55=TESTA|55=TESTB|10=018|
8=FIX.4.4|9=120|35=V|49=TESTI|56=TESTA|34=14|52=20030204-09:25:43|262=11223|263=1|264=0|265=1|267=2|269=0|269=1|146=2|55=TESTA|55=TESTB|10=020|
8=FIX.4.4|9=111|35=W|49=TESTI|56=TESTA|34=14|52=20030204-09:25:43|55=TESTA|268=2|269=0|270=10|271=17.09|269=1|270=11|271=18.09|10=016|
8=FIX.4.4|9=103|35=W|49=TESTI|56=TESTA|34=14|52=20030204-09:25:43|55=TESTA|268=2|269=5|270=10|286=0|269=A|270=11|286=1|10=0148|
8=FIX.4.4|9=101|35=W|49=TESTI|56=TESTA|34=14|52=20030204-09:25:43|55=TESTA|268=2|269=9|270=10|269=C|270=11|271=17.09|10=082|
8=FIX.4.4|9=103|35=W|49=TESTI|56=TESTA|34=14|52=20030204-09:25:43|55=TESTA|268=2|269=4|270=10|274=0|269=5|270=11|274=1|10=129|
8=FIX.4.4|9=103|35=W|49=TESTI|56=TESTA|34=14|52=20030204-09:25:43|55=TESTA|268=2|269=4|270=10|274=2|269=5|270=11|274=3|10=133|
8=FIX.4.4|9=103|35=W|49=TESTI|56=TESTA|34=14|52=20030204-09:25:43|55=TESTA|268=2|269=4|270=10|276=A|269=5|270=11|276=D|10=169|
8=FIX.4.4|9=103|35=W|49=TESTI|56=TESTA|34=14|52=20030204-09:25:43|55=TESTA|268=2|269=4|270=10|276=E|269=5|270=11|276=I|10=178|
8=FIX.4.4|9=112|35=X|49=TESTI|56=TESTA|34=14|52=20030204-09:25:43|268=2|279=1|280=0001|55=COMP1|270=10|277=B|279=1|280=0002|55=COMP2|270=11|277=G|10=181|
8=FIX.4.4|9=112|35=X|49=TESTI|56=TESTA|34=14|52=20030204-09:25:43|268=2|279=1|280=0001|55=COMP1|270=10|277=R|279=1|280=0002|55=COMP2|270=11|277=M|10=203|
8=FIX.4.4|9=130|35=X|49=TESTI|56=TESTA|34=14|52=20030204-09:25:43|268=2|279=0|269=2|280=0001|55=COMP1|270=10|271=9.01|279=2|269=2|280=0002|55=COMP2|270=11|271=.090|10=209|
8=FIX.4.4|9=130|35=X|49=TESTI|56=TESTA|34=14|52=20030204-09:25:43|268=2|279=1|269=2|280=0001|55=COMP1|270=10|271=9.01|279=0|269=2|280=0002|55=COMP2|270=11|271=.090|10=208|
8=FIX.4.4|9=66|35=Y|49=TESTI|56=TESTA|34=14|52=20030204-09:25:43|262=11223|281=0|10=077|
8=FIX.4.4|9=66|35=Y|49=TESTI|56=TESTA|34=14|52=20030204-09:25:43|262=11223|281=9|10=086|
8=FIX.4.4|9=66|35=Y|49=TESTI|56=TESTA|34=14|52=20030204-09:25:43|262=11223|281=C|10=096|
8=FIX.4.4|9=112|35=X|49=TESTI|56=TESTA|34=14|52=20030204-09:25:43|268=2|279=1|285=0|280=0001|55=COMP1|270=10|279=1|285=1|280=0002|55=COMP2|270=11|10=139|
8=FIX.4.4|9=112|35=X|49=TESTI|56=TESTA|34=14|52=20030204-09:25:43|268=2|279=1|285=1|280=0001|55=COMP1|270=10|279=1|285=0|280=0002|55=COMP2|270=11|10=139|
8=FIX.4.4|9=120|35=V|49=TESTI|56=TESTA|34=14|52=20030204-09:25:43|262=11223|263=0|264=0|286=0|267=2|269=0|269=1|146=2|55=TESTA|55=TESTB|10=021|
8=FIX.4.4|9=120|35=V|49=TESTI|56=TESTA|34=14|52=20030204-09:25:43|262=11223|263=0|264=0|286=5|267=2|269=0|269=1|146=2|55=TESTA|55=TESTB|10=026|
8=FIX.4.4|9=65|35=f|49=TESTI|56=TESTA|34=14|52=20030204-09:25:43|55=TESTB|291=2|10=181|
8=FIX.4.4|9=65|35=f|49=TESTI|56=TESTA|34=14|52=20030204-09:25:43|55=TESTB|291=1|10=180|
8=FIX.4.4|9=65|35=f|49=TESTI|56=TESTA|34=14|52=20030204-09:25:43|55=TESTB|292=E|10=201|
8=FIX.4.4|9=65|35=f|49=TESTI|56=TESTA|34=14|52=20030204-09:25:43|55=TESTB|292=A|10=197|
8=FIX.4.4|9=56|35=b|49=TESTI|56=TESTA|34=14|52=20030204-09:25:43|297=0|10=139|
8=FIX.4.4|9=57|35=b|49=TESTI|56=TESTA|34=14|52=20030204-09:25:43|297=14|10=193|
8=FIX.4.4|9=66|35=Z|49=TESTI|56=TESTA|34=14|52=20030204-09:25:43|117=11223|298=4|10=089|
8=FIX.4.4|9=81|35=Z|49=TESTI|56=TESTA|34=14|52=20030204-09:25:43|117=11223|298=1|295=1|55=TESTB|10=140|
8=FIX.4.4|9=62|35=b|49=TESTI|56=TESTA|34=14|52=20030204-09:25:43|297=0|300=1|10=138|
8=FIX.4.4|9=62|35=b|49=TESTI|56=TESTA|34=14|52=20030204-09:25:43|297=0|300=9|10=146|
8=FIX.4.4|9=63|35=b|49=TESTI|56=TESTA|34=14|52=20030204-09:25:43|297=0|300=99|10=204|
8=FIX.4.4|9=84|35=S|49=TESTI|56=TESTA|34=14|52=20030204-09:25:43|117=11223|301=0|55=TESTB|133=15.3|10=005|
8=FIX.4.4|9=84|35=S|49=TESTI|56=TESTA|34=14|52=20030204-09:25:43|117=11223|301=1|55=TESTB|133=15.3|10=006|
8=FIX.4.4|9=84|35=S|49=TESTI|56=TESTA|34=14|52=20030204-09:25:43|117=11223|301=2|55=TESTB|133=15.3|10=007|
8=FIX.4.4|9=97|35=R|49=TESTI|56=TESTA|34=8|52=20030204-09:25:21|131=1272727|146=2|55=TESTA|303=1|55=TESTB|303=2|10=231|
8=FIX.4.4|9=97|35=R|49=TESTI|56=TESTA|34=8|52=20030204-09:25:21|131=1272727|146=2|55=TESTA|303=2|55=TESTB|303=1|10=231|
8=FIX.4.4|9=65|35=c|49=TESTI|56=TESTA|34=14|52=20030204-09:25:43|320=0001|321=1|10=021|
8=FIX.4.4|9=65|35=c|49=TESTI|56=TESTA|34=14|52=20030204-09:25:43|320=0001|321=3|10=023|
8=FIX.4.4|9=74|35=d|49=TESTI|56=TESTA|34=14|52=20030204-09:25:43|320=0001|322=0001|323=2|10=175|
8=FIX.4.4|9=74|35=d|49=TESTI|56=TESTA|34=14|52=20030204-09:25:43|320=0001|322=0001|323=6|10=179|
8=FIX.4.4|9=75|35=h|49=TESTI|56=TESTA|34=12|52=20030204-08:49:42|336=PRE-OPEN|325=N|340=2|10=209|
8=FIX.4.4|9=75|35=h|49=TESTI|56=TESTA|34=12|52=20030204-08:49:42|336=PRE-OPEN|325=Y|340=2|10=220|
8=FIX.4.4|9=65|35=f|49=TESTI|56=TESTA|34=14|52=20030204-09:25:43|55=TESTB|326=1|10=179|
8=FIX.4.4|9=66|35=f|49=TESTI|56=TESTA|34=14|52=20030204-09:25:43|55=TESTB|326=10|10=228|
8=FIX.4.4|9=66|35=f|49=TESTI|56=TESTA|34=14|52=20030204-09:25:43|55=TESTB|326=23|10=232|
8=FIX.4.4|9=65|35=f|49=TESTI|56=TESTA|34=14|52=20030204-09:25:43|55=TESTB|327=D|10=199|
8=FIX.4.4|9=65|35=f|49=TESTI|56=TESTA|34=14|52=20030204-09:25:43|55=TESTB|327=X|10=219|
8=FIX.4.4|9=65|35=f|49=TESTI|56=TESTA|34=14|52=20030204-09:25:43|55=TESTB|328=N|10=210|
8=FIX.4.4|9=65|35=f|49=TESTI|56=TESTA|34=14|52=20030204-09:25:43|55=TESTB|328=Y|10=221|
8=FIX.4.4|9=65|35=f|49=TESTI|56=TESTA|34=14|52=20030204-09:25:43|55=TESTB|329=N|10=211|
8=FIX.4.4|9=65|35=f|49=TESTI|56=TESTA|34=14|52=20030204-09:25:43|55=TESTB|329=Y|10=222|
8=FIX.4.4|9=65|35=f|49=TESTI|56=TESTA|34=14|52=20030204-09:25:43|55=TESTB|334=1|10=178|
8=FIX.4.4|9=65|35=f|49=TESTI|56=TESTA|34=14|52=20030204-09:25:43|55=TESTB|334=3|10=180|
8=FIX.4.4|9=75|35=h|49=TESTI|56=TESTA|34=12|52=20030204-08:49:42|336=PRE-OPEN|338=2|340=2|10=185|
8=FIX.4.4|9=75|35=h|49=TESTI|56=TESTA|34=12|52=20030204-08:49:42|336=PRE-OPEN|338=3|340=2|10=186|
8=FIX.4.4|9=75|35=h|49=TESTI|56=TESTA|34=12|52=20030204-08:49:42|336=PRE-OPEN|339=1|340=2|10=185|
8=FIX.4.4|9=75|35=h|49=TESTI|56=TESTA|34=12|52=20030204-08:49:42|336=PRE-OPEN|339=3|340=2|10=187|
8=FIX.4.4|9=69|35=h|49=TESTI|56=TESTA|34=12|52=20030204-08:49:42|336=PRE-OPEN|340=0|10=172|
8=FIX.4.4|9=69|35=h|49=TESTI|56=TESTA|34=12|52=20030204-08:49:42|336=PRE-OPEN|340=6|10=178|
8=FIX.4.4|9=125|35=b|49=TESTI|56=TESTA|34=14|52=20030204-09:25:43|297=0|296=1|302=000302|311=TEST3|304=12|295=1|299=000299|132=0.99999|368=1|10=194|
8=FIX.4.4|9=125|35=b|49=TESTI|56=TESTA|34=14|52=20030204-09:25:43|297=0|296=1|302=000302|311=TEST3|304=12|295=1|299=000299|132=0.99999|368=9|10=202|
8=FIX.4.4|9=126|35=b|49=TESTI|56=TESTA|34=14|52=20030204-09:25:43|297=0|296=1|302=000302|311=TEST3|304=12|295=1|299=000299|132=0.99999|368=99|10=004|
8=FIX.4.4|9=92|35=k|49=TESTI|56=TESTA|34=6|52=20030204-09:07:50|391=20012411|374=N|393=2|394=3|418=A|419=4|10=047|
8=FIX.4.4|9=92|35=k|49=TESTI|56=TESTA|34=6|52=20030204-09:07:50|391=20012411|374=C|393=2|394=3|418=A|419=4|10=036|
8=FIX.4.4|9=132|35=G|49=TESTI|56=TESTA|34=6|52=20030204-08:49:18|11=12233345|41=90001008|21=2|55=TESTB|54=1|60=20060117-10:00:00|38=4000|40=1|377=N|10=008|
8=FIX.4.4|9=132|35=G|49=TESTI|56=TESTA|34=6|52=20030204-08:49:18|11=12233345|41=90001008|21=2|55=TESTB|54=1|60=20060117-10:00:00|38=4000|40=1|377=Y|10=019|
8=FIX.4.4|9=185|35=AE|49=TESTI|56=TESTA|34=4|50=30737|97=Y|52=20030204-08:46:14|571=90001008|150=F|378=0|570=N|55=TESTA|32=1000|31=10.4|75=20060217|60=20060217-10:00:00|552=2|54=1|37=0001|54=2|37=0002|10=196|
8=FIX.4.4|9=186|35=AE|49=TESTI|56=TESTA|34=4|50=30737|97=Y|52=20030204-08:46:14|571=90001008|150=F|378=10|570=N|55=TESTA|32=1000|31=10.4|75=20060217|60=20060217-10:00:00|552=2|54=1|37=0001|54=2|37=0002|10=246|
8=FIX.4.4|9=186|35=AE|49=TESTI|56=TESTA|34=4|50=30737|97=Y|52=20030204-08:46:14|571=90001008|150=F|378=99|570=N|55=TESTA|32=1000|31=10.4|75=20060217|60=20060217-10:00:00|552=2|54=1|37=0001|54=2|37=0002|10=007|
8=FIX.4.4|9=61|35=j|49=TESTI|56=TESTA|34=4|52=20030204-08:56:41|372=9|380=0|10=107|
8=FIX.4.4|9=61|35=j|49=TESTI|56=TESTA|34=4|52=20030204-08:56:41|372=9|380=7|10=114|
8=FIX.4.4|9=218|35=t|49=TESTI|56=TESTA|34=4|50=30737|97=Y|52=20030204-08:46:14|548=42444008|551=30000008|549=1|550=0|552=2|54=1|11=B202020|41=B101010|38=4000|54=2|11=S202020|41=S101010|38=5000|55=TESTA|60=20060217-10:00:00|40=1|388=0|10=015|
8=FIX.4.4|9=218|35=t|49=TESTI|56=TESTA|34=4|50=30737|97=Y|52=20030204-08:46:14|548=42444008|551=30000008|549=1|550=0|552=2|54=1|11=B202020|41=B101010|38=4000|54=2|11=S202020|41=S101010|38=5000|55=TESTA|60=20060217-10:00:00|40=1|388=6|10=021|
8=FIX.4.4|9=92|35=k|49=TESTI|56=TESTA|34=6|52=20030204-09:07:50|391=20012411|374=N|393=2|394=3|418=A|419=4|10=047|
8=FIX.4.4|9=92|35=k|49=TESTI|56=TESTA|34=6|52=20030204-09:07:50|391=20012411|374=N|393=2|394=1|418=A|419=4|10=045|
8=FIX.4.4|9=104|35=k|49=TESTI|56=TESTA|34=6|52=20030204-09:07:50|391=20012411|374=N|393=2|394=3|398=1|399=1|418=A|419=4|10=128|
8=FIX.4.4|9=110|35=k|49=TESTI|56=TESTA|34=6|52=20030204-09:07:50|391=20012411|374=N|393=2|394=3|398=2|399=2|399=3|418=A|419=4|10=149|
8=FIX.4.4|9=161|35=E|49=TESTI|56=TESTA|34=3|52=20030204-08:18:22|66=20012411|394=3|68=1|73=2|11=1131|67=1|55=TESTB3|54=3|401=2|38=3000|11=1132|67=2|55=TESTB2|54=1|401=1|38=1000|10=036|
8=FIX.4.4|9=161|35=E|49=TESTI|56=TESTA|34=3|52=20030204-08:18:22|66=20012411|394=3|68=1|73=2|11=1131|67=1|55=TESTB3|54=3|401=1|38=3000|11=1132|67=2|55=TESTB2|54=1|401=2|38=1000|10=036|
8=FIX.4.4|9=98|35=k|49=TESTI|56=TESTA|34=6|52=20030204-09:07:50|391=20012411|374=N|393=2|394=3|409=4|418=A|419=4|10=068|
8=FIX.4.4|9=98|35=k|49=TESTI|56=TESTA|34=6|52=20030204-09:07:50|391=20012411|374=N|393=2|394=3|409=1|418=A|419=4|10=065|
8=FIX.4.4|9=98|35=k|49=TESTI|56=TESTA|34=6|52=20030204-09:07:50|391=20012411|374=N|393=2|394=3|411=N|418=A|419=4|10=087|
8=FIX.4.4|9=98|35=k|49=TESTI|56=TESTA|34=6|52=20030204-09:07:50|391=20012411|374=N|393=2|394=3|411=Y|418=A|419=4|10=098|
8=FIX.4.4|9=155|35=E|49=TESTI|56=TESTA|34=3|52=20030204-08:18:22|66=20012411|414=1|394=3|68=1|73=2|11=1131|67=1|55=TESTB3|54=3|38=3000|11=1132|67=2|55=TESTB2|54=1|38=1000|10=038|
8=FIX.4.4|9=155|35=E|49=TESTI|56=TESTA|34=3|52=20030204-08:18:22|66=20012411|414=2|394=3|68=1|73=2|11=1131|67=1|55=TESTB3|54=3|38=3000|11=1132|67=2|55=TESTB2|54=1|38=1000|10=039|
8=FIX.4.4|9=155|35=E|49=TESTI|56=TESTA|34=3|52=20030204-08:18:22|66=20012411|414=3|394=3|68=1|73=2|11=1131|67=1|55=TESTB3|54=3|38=3000|11=1132|67=2|55=TESTB2|54=1|38=1000|10=040|
8=FIX.4.4|9=98|35=k|49=TESTI|56=TESTA|34=6|52=20030204-09:07:50|391=20012411|374=N|393=2|394=3|416=1|418=A|419=4|10=063|
8=FIX.4.4|9=98|35=k|49=TESTI|56=TESTA|34=6|52=20030204-09:07:50|391=20012411|374=N|393=2|394=3|416=2|418=A|419=4|10=064|
8=FIX.4.4|9=92|35=k|49=TESTI|56=TESTA|34=6|52=20030204-09:07:50|391=20012411|374=N|393=2|394=3|418=A|419=4|10=047|
8=FIX.4.4|9=92|35=k|49=TESTI|56=TESTA|34=6|52=20030204-09:07:50|391=20012411|374=N|393=2|394=3|418=R|419=4|10=064|
8=FIX.4.4|9=92|35=k|49=TESTI|56=TESTA|34=6|52=20030204-09:07:50|391=20012411|374=N|393=2|394=3|418=A|419=2|10=045|
8=FIX.4.4|9=92|35=k|49=TESTI|56=TESTA|34=6|52=20030204-09:07:50|391=20012411|374=N|393=2|394=3|418=A|419=9|10=052|
8=FIX.4.4|9=92|35=k|49=TESTI|56=TESTA|34=6|52=20030204-09:07:50|391=20012411|374=N|393=2|394=3|418=A|419=A|10=060|
8=FIX.4.4|9=92|35=k|49=TESTI|56=TESTA|34=6|52=20030204-09:07:50|391=20012411|374=N|393=2|394=3|418=A|419=Z|10=085|
8=FIX.4.4|9=110|35=AG|49=TESTI|56=TESTA|34=4|50=30737|52=20030204-08:46:14|131=0001|658=1|146=2|55=TESTA|423=1|55=TESTB|423=2|10=083|
8=FIX.4.4|9=95|35=AG|49=TESTI|56=TESTA|34=4|50=30737|52=20030204-08:46:14|131=0001|658=1|146=1|55=TESTA|423=3|10=253|
8=FIX.4.4|9=96|35=AG|49=TESTI|56=TESTA|34=4|50=30737|52=20030204-08:46:14|131=0001|658=1|146=1|55=TESTA|423=10|10=044|
8=FIX.4.4|9=161|35=E|49=TESTI|56=TESTA|34=3|52=20030204-08:18:22|66=20012411|394=3|68=1|73=2|11=1131|67=1|427=0|55=TESTB3|54=3|38=3000|11=1132|67=2|427=2|55=TESTB2|54=1|38=1000|10=051|
8=FIX.4.4|9=161|35=E|49=TESTI|56=TESTA|34=3|52=20030204-08:18:22|66=20012411|394=3|68=1|73=2|11=1131|67=1|427=2|55=TESTB3|54=3|38=3000|11=1132|67=2|427=0|55=TESTB2|54=1|38=1000|10=051|
8=FIX.4.4|9=219|35=N|49=TESTI|56=TESTA|34=15|52=20030204-09:08:23|66=20012411|429=1|82=3|431=3|83=1|68=5|73=3|11=1111|14=11|39=1|151=89|84=0|6=12|11=1121|14=1000|39=1|151=500|84=1000|6=2.28|11=1131|14=2500|39=1|151=500|84=1500|6=34.11|10=055|
8=FIX.4.4|9=219|35=N|49=TESTI|56=TESTA|34=15|52=20030204-09:08:23|66=20012411|429=6|82=3|431=3|83=1|68=5|73=3|11=1111|14=11|39=1|151=89|84=0|6=12|11=1121|14=1000|39=1|151=500|84=1000|6=2.28|11=1131|14=2500|39=1|151=500|84=1500|6=34.11|10=060|
8=FIX.4.4|9=90|35=l|49=TESTI|56=TESTA|34=6|52=20030204-09:07:50|420=2|12=5|13=1|430=1|12=0.07|13=2|430=2|10=072|
8=FIX.4.4|9=90|35=l|49=TESTI|56=TESTA|34=6|52=20030204-09:07:50|420=2|12=5|13=1|430=2|12=0.07|13=2|430=1|10=072|
8=FIX.4.4|9=219|35=N|49=TESTI|56=TESTA|34=15|52=20030204-09:08:23|66=20012411|429=1|82=3|431=1|83=1|68=5|73=3|11=1111|14=11|39=1|151=89|84=0|6=12|11=1121|14=1000|39=1|151=500|84=1000|6=2.28|11=1131|14=2500|39=1|151=500|84=1500|6=34.11|10=053|
8=FIX.4.4|9=219|35=N|49=TESTI|56=TESTA|34=15|52=20030204-09:08:23|66=20012411|429=1|82=3|431=7|83=1|68=5|73=3|11=1111|14=11|39=1|151=89|84=0|6=12|11=1121|14=1000|39=1|151=500|84=1000|6=2.28|11=1131|14=2500|39=1|151=500|84=1500|6=34.11|10=059|
8=FIX.4.4|9=155|35=E|49=TESTI|56=TESTA|34=3|52=20030204-08:18:22|66=20012411|394=3|433=2|68=1|73=2|11=1131|67=1|55=TESTB3|54=3|38=3000|11=1132|67=2|55=TESTB2|54=1|38=1000|10=040|
8=FIX.4.4|9=155|35=E|49=TESTI|56=TESTA|34=3|52=20030204-08:18:22|66=20012411|394=3|433=5|68=1|73=2|11=1131|67=1|55=TESTB3|54=3|38=3000|11=1132|67=2|55=TESTB2|54=1|38=1000|10=043|
8=FIX.4.4|9=102|35=9|49=TESTI|56=TESTA|34=3|52=20030203-16:13:14|37=11111111|11=12121212122|41=11111111111|39=0|434=1|10=211|
8=FIX.4.4|9=102|35=9|49=TESTI|56=TESTA|34=3|52=20030203-16:13:14|37=11111111|11=12121212122|41=11111111111|39=0|434=2|10=212|
8=FIX.4.4|9=108|35=AQ|49=TESTI|56=TESTA|34=4|50=30737|97=Y|52=20030204-08:46:14|568=90001008|569=0|749=0|750=0|55=IBM|442=1|10=128|
8=FIX.4.4|9=108|35=AQ|49=TESTI|56=TESTA|34=4|50=30737|97=Y|52=20030204-08:46:14|568=90001008|569=0|749=0|750=0|55=IBM|442=2|10=129|
8=FIX.4.4|9=108|35=AQ|49=TESTI|56=TESTA|34=4|50=30737|97=Y|52=20030204-08:46:14|568=90001008|569=0|749=0|750=0|55=IBM|442=3|10=130|
8=FIX.4.4|9=152|35=AN|49=TESTI|56=TESTA|34=4|50=30737|52=20030204-08:46:14|710=0001|724=0|453=1|448=ABNA|447=1|452=4|1=KTierney|581=1|715=20060217|60=20060217-10:00:00|10=015|
8=FIX.4.4|9=152|35=AN|49=TESTI|56=TESTA|34=4|50=30737|52=20030204-08:46:14|710=0001|724=0|453=1|448=ABNA|447=I|452=4|1=KTierney|581=1|715=20060217|60=20060217-10:00:00|10=039|
8=FIX.4.4|9=152|35=AN|49=TESTI|56=TESTA|34=4|50=30737|52=20030204-08:46:14|710=0001|724=0|453=1|448=ABNA|447=1|452=1|1=KTierney|581=1|715=20060217|60=20060217-10:00:00|10=012|
8=FIX.4.4|9=153|35=AN|49=TESTI|56=TESTA|34=4|50=30737|52=20030204-08:46:14|710=0001|724=0|453=1|448=ABNA|447=1|452=38|1=KTierney|581=1|715=20060217|60=20060217-10:00:00|10=071|
8=FIX.4.4|9=95|35=AV|49=TESTI|56=TESTA|34=4|50=30737|52=20030204-08:46:14|791=0001|60=20060217-10:00:00|460=1|10=202|
8=FIX.4.4|9=96|35=AV|49=TESTI|56=TESTA|34=4|50=30737|52=20030204-08:46:14|791=0001|60=20060217-10:00:00|460=13|10=254|
8=FIX.4.4|9=101|35=Q|49=TESTI|56=TESTA|34=4|52=20030204-09:28:44|37=01923883|17=11|127=D|55=TESTB|54=1|38=4000|468=0|10=081|
8=FIX.4.4|9=101|35=Q|49=TESTI|56=TESTA|34=4|52=20030204-09:28:44|37=01923883|17=11|127=D|55=TESTB|54=1|38=4000|468=1|10=082|
8=FIX.4.4|9=101|35=Q|49=TESTI|56=TESTA|34=4|52=20030204-09:28:44|37=01923883|17=11|127=D|55=TESTB|54=1|38=4000|468=2|10=083|
8=FIX.4.4|9=83|35=o|49=TESTI|56=TESTA|34=7|52=20030204-09:17:25|513=3659000000|514=0|510=1|477=12|10=121|
8=FIX.4.4|9=82|35=o|49=TESTI|56=TESTA|34=7|52=20030204-09:17:25|513=3659000000|514=0|510=1|477=1|10=070|
8=FIX.4.4|9=126|35=8|49=TESTI|56=TESTA|34=114|52=20030203-16:09:30|37=11111111|17=11|39=0|150=0|55=TESTB|54=1|38=1000|151=1000|14=0|6=0|480=M|10=097|
8=FIX.4.4|9=126|35=8|49=TESTI|56=TESTA|34=114|52=20030203-16:09:30|37=11111111|17=11|39=0|150=0|55=TESTB|54=1|38=1000|151=1000|14=0|6=0|480=Y|10=109|
8=FIX.4.4|9=132|35=G|49=TESTI|56=TESTA|34=6|52=20030204-08:49:18|11=12233345|41=90001008|21=2|55=TESTB|54=1|60=20060117-10:00:00|38=4000|40=1|481=1|10=231|
8=FIX.4.4|9=132|35=G|49=TESTI|56=TESTA|34=6|52=20030204-08:49:18|11=12233345|41=90001008|21=2|55=TESTB|54=1|60=20060117-10:00:00|38=4000|40=1|481=Y|10=015|
8=FIX.4.4|9=126|35=8|49=TESTI|56=TESTA|34=114|52=20030203-16:09:30|37=11111111|17=11|39=0|150=0|55=TESTB|54=1|38=1000|151=1000|14=0|6=0|484=C|10=091|
8=FIX.4.4|9=126|35=8|49=TESTI|56=TESTA|34=114|52=20030203-16:09:30|37=11111111|17=11|39=0|150=0|55=TESTB|54=1|38=1000|151=1000|14=0|6=0|484=S|10=107|
8=FIX.4.4|9=104|35=AR|49=TESTI|56=TESTA|34=4|50=30737|97=Y|52=20030204-08:46:14|571=90001008|487=0|150=F|751=0|55=TESTB|10=032|
8=FIX.4.4|9=104|35=AR|49=TESTI|56=TESTA|34=4|50=30737|97=Y|52=20030204-08:46:14|571=90001008|487=4|150=F|751=0|55=TESTB|10=036|
8=FIX.4.4|9=124|35=T|49=TESTI|56=TESTA|34=14|52=20030204-09:25:43|777=112233|160=5|792=99|60=20060217-10:00:00|778=1|162=000602|163=N|492=1|10=068|
8=FIX.4.4|9=125|35=T|49=TESTI|56=TESTA|34=14|52=20030204-09:25:43|777=112233|160=5|792=99|60=20060217-10:00:00|778=1|162=000602|163=N|492=10|10=117|
8=FIX.4.4|9=125|35=T|49=TESTI|56=TESTA|34=14|52=20030204-09:25:43|777=112233|160=5|792=99|60=20060217-10:00:00|778=1|162=000602|163=N|492=15|10=122|
8=FIX.4.4|9=76|35=o|49=TESTI|56=TESTA|34=7|52=20030204-09:17:25|513=3659000000|514=0|495=1|10=068|
8=FIX.4.4|9=77|35=o|49=TESTI|56=TESTA|34=7|52=20030204-09:17:25|513=3659000000|514=0|495=29|10=127|
8=FIX.4.4|9=78|35=o|49=TESTI|56=TESTA|34=7|52=20030204-09:17:25|513=3659000000|514=0|495=999|10=192|
8=FIX.4.4|9=90|35=l|49=TESTI|56=TESTA|34=6|52=20030204-09:07:50|420=2|12=5|13=1|497=N|12=0.07|13=2|497=Y|10=166|
8=FIX.4.4|9=90|35=l|49=TESTI|56=TESTA|34=6|52=20030204-09:07:50|420=2|12=5|13=1|497=Y|12=0.07|13=2|497=N|10=166|
8=FIX.4.4|9=76|35=p|49=TESTI|56=TESTA|34=7|52=20030204-09:17:25|513=3659000000|514=0|506=H|10=085|
8=FIX.4.4|9=76|35=p|49=TESTI|56=TESTA|34=7|52=20030204-09:17:25|513=3659000000|514=0|506=R|10=095|
8=FIX.4.4|9=82|35=p|49=TESTI|56=TESTA|34=7|52=20030204-09:17:25|513=3659000000|514=0|506=A|507=1|10=086|
8=FIX.4.4|9=83|35=p|49=TESTI|56=TESTA|34=7|52=20030204-09:17:25|513=3659000000|514=0|506=A|507=18|10=143|
8=FIX.4.4|9=83|35=p|49=TESTI|56=TESTA|34=7|52=20030204-09:17:25|513=3659000000|514=0|506=A|507=99|10=152|
8=FIX.4.4|9=80|35=o|49=TESTI|56=TESTA|34=7|52=20030204-09:17:25|513=3659000000|514=0|508=00058|10=006|
8=FIX.4.4|9=80|35=o|49=TESTI|56=TESTA|34=7|52=20030204-09:17:25|513=3659000000|514=2|508=00058|10=008|
8=FIX.4.4|9=80|35=o|49=TESTI|56=TESTA|34=7|52=20030204-09:17:25|513=3659000000|514=1|508=00058|10=007|
8=FIX.4.4|9=76|35=o|49=TESTI|56=TESTA|34=7|52=20030204-09:17:25|513=3659000000|514=0|517=2|10=064|
8=FIX.4.4|9=76|35=o|49=TESTI|56=TESTA|34=7|52=20030204-09:17:25|513=3659000000|514=0|517=J|10=088|
8=FIX.4.4|9=76|35=o|49=TESTI|56=TESTA|34=7|52=20030204-09:17:25|513=3659000000|514=0|517=T|10=098|
8=FIX.4.4|9=191|35=AE|49=TESTI|56=TESTA|34=4|50=30737|97=Y|52=20030204-08:46:14|571=90001008|150=F|570=N|55=TESTA|32=1000|31=10.4|75=20060217|60=20060217-10:00:00|552=2|54=1|37=0001|518=1|519=1|54=2|37=0002|10=204|
8=FIX.4.4|9=192|35=AE|49=TESTI|56=TESTA|34=4|50=30737|97=Y|52=20030204-08:46:14|571=90001008|150=F|570=N|55=TESTA|32=1000|31=10.4|75=20060217|60=20060217-10:00:00|552=2|54=1|37=0001|518=1|519=10|54=2|37=0002|10=253|
8=FIX.4.4|9=192|35=AE|49=TESTI|56=TESTA|34=4|50=30737|97=Y|52=20030204-08:46:14|571=90001008|150=F|570=N|55=TESTA|32=1000|31=10.4|75=20060217|60=20060217-10:00:00|552=2|54=1|37=0001|518=1|519=15|54=2|37=0002|10=002|
8=FIX.4.4|9=103|35=o|49=TESTI|56=TESTA|34=7|52=20030204-09:17:25|513=3659000000|514=0|508=00058|473=1|509=000509|522=2|10=082|
8=FIX.4.4|9=103|35=o|49=TESTI|56=TESTA|34=7|52=20030204-09:17:25|513=3659000000|514=0|508=00058|473=1|509=000509|522=9|10=089|
8=FIX.4.4|9=104|35=o|49=TESTI|56=TESTA|34=7|52=20030204-09:17:25|513=3659000000|514=0|508=00058|473=1|509=000509|522=13|10=133|
8=FIX.4.4|9=91|35=R|49=TESTI|56=TESTA|34=8|52=20030204-09:25:21|131=1272727|528=G|146=2|55=TESTA|55=TESTB|10=250|
8=FIX.4.4|9=91|35=R|49=TESTI|56=TESTA|34=8|52=20030204-09:25:21|131=1272727|528=W|146=2|55=TESTA|55=TESTB|10=010|
8=FIX.4.4|9=257|35=AK|49=TESTI|56=TESTA|34=4|50=30737|52=20030204-08:46:14|664=0001|666=0|773=1|665=4|60=20060217-10:00:00|75=20060217|711=1|311=TST311|555=1|600=TST600|55=TESTA|80=1000|54=1|862=2|528=A|529=1|863=400|528=P|529=8|863=600|79=KTierney|6=20|381=20000|118=2000|10=023|
8=FIX.4.4|9=257|35=AK|49=TESTI|56=TESTA|34=4|50=30737|52=20030204-08:46:14|664=0001|666=0|773=1|665=4|60=20060217-10:00:00|75=20060217|711=1|311=TST311|555=1|600=TST600|55=TESTA|80=1000|54=1|862=2|528=A|529=9|863=400|528=P|529=A|863=600|79=KTierney|6=20|381=20000|118=2000|10=040|
8=FIX.4.4|9=73|35=r|49=TESTI|56=TESTA|34=14|52=20030204-09:25:43|37=4511223|530=1|531=7|10=169|
8=FIX.4.4|9=73|35=r|49=TESTI|56=TESTA|34=14|52=20030204-09:25:43|37=4511223|530=6|531=7|10=174|
8=FIX.4.4|9=79|35=r|49=TESTI|56=TESTA|34=14|52=20030204-09:25:43|37=4511223|530=2|531=0|532=3|10=180|
8=FIX.4.4|9=73|35=r|49=TESTI|56=TESTA|34=14|52=20030204-09:25:43|37=4511223|530=2|531=6|10=169|
8=FIX.4.4|9=79|35=r|49=TESTI|56=TESTA|34=14|52=20030204-09:25:43|37=4511223|530=7|531=7|532=0|10=189|
8=FIX.4.4|9=79|35=r|49=TESTI|56=TESTA|34=14|52=20030204-09:25:43|37=4511223|530=7|531=7|532=6|10=195|
8=FIX.4.4|9=80|35=r|49=TESTI|56=TESTA|34=14|52=20030204-09:25:43|37=4511223|530=7|531=7|532=99|10=247|
8=FIX.4.4|9=104|35=AH|49=TESTI|56=TESTA|34=4|50=30737|52=20030204-08:46:14|644=0001|146=2|55=TESTA|537=0|55=TESTB|537=1|10=088|
8=FIX.4.4|9=104|35=AH|49=TESTI|56=TESTA|34=4|50=30737|52=20030204-08:46:14|644=0001|146=2|55=TESTA|537=2|55=TESTB|537=3|10=092|
8=FIX.4.4|9=83|35=H|49=TESTI|56=TESTA|34=12|52=20030204-08:49:42|11=90001008|55=TESTB|543=ZZ|54=1|10=037|
8=FIX.4.4|9=84|35=H|49=TESTI|56=TESTA|34=12|52=20030204-08:49:42|11=90001008|55=TESTB|543=BIC|54=1|10=064|
8=FIX.4.4|9=84|35=H|49=TESTI|56=TESTA|34=12|52=20030204-08:49:42|11=90001008|55=TESTB|543=ISO|54=1|10=093|
8=FIX.4.4|9=129|35=D|49=TESTI|56=TESTA|34=4|50=30737|97=Y|52=20030204-08:46:14|11=90001008|544=1|55=TESTB|54=1|60=20060217-10:00:00|38=4000|40=1|10=131|
8=FIX.4.4|9=129|35=D|49=TESTI|56=TESTA|34=4|50=30737|97=Y|52=20030204-08:46:14|11=90001008|544=2|55=TESTB|54=1|60=20060217-10:00:00|38=4000|40=1|10=132|
8=FIX.4.4|9=129|35=D|49=TESTI|56=TESTA|34=4|50=30737|97=Y|52=20030204-08:46:14|11=90001008|544=3|55=TESTB|54=1|60=20060217-10:00:00|38=4000|40=1|10=133|
8=FIX.4.4|9=120|35=V|49=TESTI|56=TESTA|34=14|52=20030204-09:25:43|262=11223|263=0|264=0|546=1|267=2|269=0|269=1|146=2|55=TESTA|55=TESTB|10=021|
8=FIX.4.4|9=120|35=V|49=TESTI|56=TESTA|34=14|52=20030204-09:25:43|262=11223|263=0|264=0|546=2|267=2|269=0|269=1|146=2|55=TESTA|55=TESTB|10=022|
8=FIX.4.4|9=120|35=V|49=TESTI|56=TESTA|34=14|52=20030204-09:25:43|262=11223|263=0|264=0|546=3|267=2|269=0|269=1|146=2|55=TESTA|55=TESTB|10=023|
8=FIX.4.4|9=120|35=V|49=TESTI|56=TESTA|34=14|52=20030204-09:25:43|262=11223|263=0|264=0|547=N|267=2|269=0|269=1|146=2|55=TESTA|55=TESTB|10=051|
8=FIX.4.4|9=120|35=V|49=TESTI|56=TESTA|34=14|52=20030204-09:25:43|262=11223|263=0|264=0|547=Y|267=2|269=0|269=1|146=2|55=TESTA|55=TESTB|10=062|
8=FIX.4.4|9=212|35=t|49=TESTI|56=TESTA|34=4|50=30737|97=Y|52=20030204-08:46:14|548=42444008|551=30000008|549=1|550=0|552=2|54=1|11=B202020|41=B101010|38=4000|54=2|11=S202020|41=S101010|38=5000|55=TESTA|60=20060217-10:00:00|40=1|10=248|
8=FIX.4.4|9=212|35=t|49=TESTI|56=TESTA|34=4|50=30737|97=Y|52=20030204-08:46:14|548=42444008|551=30000008|549=4|550=0|552=2|54=1|11=B202020|41=B101010|38=4000|54=2|11=S202020|41=S101010|38=5000|55=TESTA|60=20060217-10:00:00|40=1|10=251|
8=FIX.4.4|9=212|35=t|49=TESTI|56=TESTA|34=4|50=30737|97=Y|52=20030204-08:46:14|548=42444008|551=30000008|549=2|550=0|552=2|54=1|11=B202020|41=B101010|38=4000|54=2|11=S202020|41=S101010|38=5000|55=TESTA|60=20060217-10:00:00|40=1|10=249|
8=FIX.4.4|9=212|35=t|49=TESTI|56=TESTA|34=4|50=30737|97=Y|52=20030204-08:46:14|548=42444008|551=30000008|549=2|550=1|552=2|54=1|11=B202020|41=B101010|38=4000|54=2|11=S202020|41=S101010|38=5000|55=TESTA|60=20060217-10:00:00|40=1|10=250|
8=FIX.4.4|9=212|35=t|49=TESTI|56=TESTA|34=4|50=30737|97=Y|52=20030204-08:46:14|548=42444008|551=30000008|549=2|550=2|552=2|54=1|11=B202020|41=B101010|38=4000|54=2|11=S202020|41=S101010|38=5000|55=TESTA|60=20060217-10:00:00|40=1|10=251|
8=FIX.4.4|9=66|35=x|49=TESTI|56=TESTA|34=14|52=20030204-09:25:43|320=11223|559=0|10=111|
8=FIX.4.4|9=66|35=x|49=TESTI|56=TESTA|34=14|52=20030204-09:25:43|320=11223|559=3|10=114|
8=FIX.4.4|9=75|35=AA|49=TESTI|56=TESTA|34=14|52=20030204-09:25:43|320=0001|322=0001|560=0|10=207|
8=FIX.4.4|9=75|35=AA|49=TESTI|56=TESTA|34=14|52=20030204-09:25:43|320=0001|322=0001|560=5|10=212|
8=FIX.4.4|9=156|35=AB|49=TESTI|56=TESTA|34=4|50=30737|97=Y|52=20030204-08:46:14|11=90001008|54=1|55=TESTB|555=2|600=TESTA|600=TESTC|38=4000|40=1|60=20060117-10:00:00|563=0|10=124|
8=FIX.4.4|9=156|35=AB|49=TESTI|56=TESTA|34=4|50=30737|97=Y|52=20030204-08:46:14|11=90001008|54=1|55=TESTB|555=2|600=TESTA|600=TESTC|38=4000|40=1|60=20060117-10:00:00|563=1|10=125|
8=FIX.4.4|9=156|35=AB|49=TESTI|56=TESTA|34=4|50=30737|97=Y|52=20030204-08:46:14|11=90001008|54=1|55=TESTB|555=2|600=TESTA|600=TESTC|38=4000|40=1|60=20060117-10:00:00|563=2|10=126|
8=FIX.4.4|9=75|35=h|49=TESTI|56=TESTA|34=12|52=20030204-08:49:42|336=PRE-OPEN|340=2|567=1|10=188|
8=FIX.4.4|9=76|35=h|49=TESTI|56=TESTA|34=12|52=20030204-08:49:42|336=PRE-OPEN|340=2|567=99|10=254|
8=FIX.4.4|9=83|35=AD|49=TESTI|56=TESTA|34=4|50=30737|97=Y|52=20030204-08:46:14|568=90001008|569=0|10=160|
8=FIX.4.4|9=83|35=AD|49=TESTI|56=TESTA|34=4|50=30737|97=Y|52=20030204-08:46:14|568=90001008|569=4|10=164|
8=FIX.4.4|9=179|35=AE|49=TESTI|56=TESTA|34=4|50=30737|97=Y|52=20030204-08:46:14|571=90001008|150=F|570=N|55=TESTA|32=1000|31=10.4|75=20060217|60=20060217-10:00:00|552=2|54=1|37=0001|54=2|37=0002|10=183|
8=FIX.4.4|9=179|35=AE|49=TESTI|56=TESTA|34=4|50=30737|97=Y|52=20030204-08:46:14|571=90001008|150=F|570=Y|55=TESTA|32=1000|31=10.4|75=20060217|60=20060217-10:00:00|552=2|54=1|37=0001|54=2|37=0002|10=194|
8=FIX.4.4|9=119|35=AU|49=TESTI|56=TESTA|34=4|50=30737|52=20030204-08:46:14|664=0001|60=20060217-10:00:00|75=20060217|940=1|774=1|573=0|10=082|
8=FIX.4.4|9=119|35=AU|49=TESTI|56=TESTA|34=4|50=30737|52=20030204-08:46:14|664=0001|60=20060217-10:00:00|75=20060217|940=1|774=1|573=1|10=083|
8=FIX.4.4|9=119|35=AU|49=TESTI|56=TESTA|34=4|50=30737|52=20030204-08:46:14|664=0001|60=20060217-10:00:00|75=20060217|940=1|774=1|573=2|10=084|
8=FIX.4.4|9=185|35=J|49=TESTI|56=TESTA|34=4|52=20030204-08:56:41|70=1116226|71=0|626=1|857=0|574=A1|54=1|55=TESTB|53=1004000|6=30|75=20030821|78=3|79=1000|80=500000|79=2000|80=400000|79=3000|80=104000|10=081|
8=FIX.4.4|9=185|35=J|49=TESTI|56=TESTA|34=4|52=20030204-08:56:41|70=1116226|71=0|626=1|857=0|574=M2|54=1|55=TESTB|53=1004000|6=30|75=20030821|78=3|79=1000|80=500000|79=2000|80=400000|79=3000|80=104000|10=094|
8=FIX.4.4|9=185|35=J|49=TESTI|56=TESTA|34=4|52=20030204-08:56:41|70=1116226|71=0|626=1|857=0|574=S5|54=1|55=TESTB|53=1004000|6=30|75=20030821|78=3|79=1000|80=500000|79=2000|80=400000|79=3000|80=104000|10=103|
8=FIX.4.4|9=191|35=AE|49=TESTI|56=TESTA|34=4|50=30737|97=Y|52=20030204-08:46:14|571=90001008|150=F|570=N|55=TESTA|32=1000|31=10.4|75=20060217|60=20060217-10:00:00|552=2|54=1|37=0001|575=N|54=2|37=0002|575=Y|10=022|
8=FIX.4.4|9=191|35=AE|49=TESTI|56=TESTA|34=4|50=30737|97=Y|52=20030204-08:46:14|571=90001008|150=F|570=N|55=TESTA|32=1000|31=10.4|75=20060217|60=20060217-10:00:00|552=2|54=1|37=0001|575=Y|54=2|37=0002|575=N|10=022|
8=FIX.4.4|9=204|35=AE|49=TESTI|56=TESTA|34=4|50=30737|97=Y|52=20030204-08:46:14|571=90001008|150=F|570=N|55=TESTA|32=1000|31=10.4|75=20060217|60=20060217-10:00:00|552=2|54=1|37=0001|576=1|577=0|54=2|37=0002|576=1|577=12|10=035|
8=FIX.4.4|9=204|35=AE|49=TESTI|56=TESTA|34=4|50=30737|97=Y|52=20030204-08:46:14|571=90001008|150=F|570=N|55=TESTA|32=1000|31=10.4|75=20060217|60=20060217-10:00:00|552=2|54=1|37=0001|576=1|577=13|54=2|37=0002|576=1|577=8|10=044|
8=FIX.4.4|9=215|35=AM|49=TESTI|56=TESTA|34=4|50=30737|52=20030204-08:46:14|721=0001|709=1|712=1|713=TST73|722=0|715=20060217|1=KTierney|581=1|55=TESTA|60=20060217-10:00:00|702=2|703=TQ|703=IAS|753=2|707=FMTM|708=10|707=PREM|708=20|10=094|
8=FIX.4.4|9=215|35=AM|49=TESTI|56=TESTA|34=4|50=30737|52=20030204-08:46:14|721=0001|709=1|712=1|713=TST73|722=0|715=20060217|1=KTierney|581=8|55=TESTA|60=20060217-10:00:00|702=2|703=TQ|703=IAS|753=2|707=FMTM|708=10|707=PREM|708=20|10=101|
8=FIX.4.4|9=161|35=E|49=TESTI|56=TESTA|34=3|52=20030204-08:18:22|66=20012411|394=3|68=1|73=2|11=1131|67=1|55=TESTB3|54=3|38=3000|582=1|11=1132|67=2|55=TESTB2|54=1|38=1000|582=4|10=058|
8=FIX.4.4|9=161|35=E|49=TESTI|56=TESTA|34=3|52=20030204-08:18:22|66=20012411|394=3|68=1|73=2|11=1131|67=1|55=TESTB3|54=3|38=3000|582=3|11=1132|67=2|55=TESTB2|54=1|38=1000|582=2|10=058|
8=FIX.4.4|9=79|35=AF|49=TESTI|56=TESTA|34=4|50=30737|97=Y|52=20030204-08:46:14|584=0001|585=1|10=211|
8=FIX.4.4|9=79|35=AF|49=TESTI|56=TESTA|34=4|50=30737|97=Y|52=20030204-08:46:14|584=0001|585=8|10=218|
8=FIX.4.4|9=156|35=AB|49=TESTI|56=TESTA|34=4|50=30737|97=Y|52=20030204-08:46:14|11=90001008|589=0|54=1|55=TESTB|555=2|600=TESTA|600=TESTC|38=4000|40=1|60=20060117-10:00:00|10=132|
8=FIX.4.4|9=156|35=AB|49=TESTI|56=TESTA|34=4|50=30737|97=Y|52=20030204-08:46:14|11=90001008|589=1|54=1|55=TESTB|555=2|600=TESTA|600=TESTC|38=4000|40=1|60=20060117-10:00:00|10=133|
8=FIX.4.4|9=156|35=AB|49=TESTI|56=TESTA|34=4|50=30737|97=Y|52=20030204-08:46:14|11=90001008|589=2|54=1|55=TESTB|555=2|600=TESTA|600=TESTC|38=4000|40=1|60=20060117-10:00:00|10=134|
8=FIX.4.4|9=156|35=AB|49=TESTI|56=TESTA|34=4|50=30737|97=Y|52=20030204-08:46:14|11=90001008|590=0|54=1|55=TESTB|555=2|600=TESTA|600=TESTC|38=4000|40=1|60=20060117-10:00:00|10=124|
8=FIX.4.4|9=156|35=AB|49=TESTI|56=TESTA|34=4|50=30737|97=Y|52=20030204-08:46:14|11=90001008|590=1|54=1|55=TESTB|555=2|600=TESTA|600=TESTC|38=4000|40=1|60=20060117-10:00:00|10=125|
8=FIX.4.4|9=156|35=AB|49=TESTI|56=TESTA|34=4|50=30737|97=Y|52=20030204-08:46:14|11=90001008|590=2|54=1|55=TESTB|555=2|600=TESTA|600=TESTC|38=4000|40=1|60=20060117-10:00:00|10=126|
8=FIX.4.4|9=156|35=AB|49=TESTI|56=TESTA|34=4|50=30737|97=Y|52=20030204-08:46:14|11=90001008|591=0|54=1|55=TESTB|555=2|600=TESTA|600=TESTC|38=4000|40=1|60=20060117-10:00:00|10=125|
8=FIX.4.4|9=156|35=AB|49=TESTI|56=TESTA|34=4|50=30737|97=Y|52=20030204-08:46:14|11=90001008|591=1|54=1|55=TESTB|555=2|600=TESTA|600=TESTC|38=4000|40=1|60=20060117-10:00:00|10=126|
8=FIX.4.4|9=178|35=J|49=TESTI|56=TESTA|34=4|52=20030204-08:56:41|70=1116226|71=0|626=2|857=0|54=1|55=TESTB|53=1004000|6=30|75=20030821|78=3|79=1000|80=500000|79=2000|80=400000|79=3000|80=104000|10=004|
8=FIX.4.4|9=184|35=J|49=TESTI|56=TESTA|34=4|52=20030204-08:56:41|70=1116226|71=0|626=8|808=4|857=0|54=1|55=TESTB|53=1004000|6=30|75=20030821|78=3|79=1000|80=500000|79=2000|80=400000|79=3000|80=104000|10=025|
8=FIX.4.4|9=104|35=AR|49=TESTI|56=TESTA|34=4|50=30737|97=Y|52=20030204-08:46:14|571=90001008|150=F|751=0|55=TESTB|635=1|10=028|
8=FIX.4.4|9=104|35=AR|49=TESTI|56=TESTA|34=4|50=30737|97=Y|52=20030204-08:46:14|571=90001008|150=F|751=0|55=TESTB|635=5|10=032|
8=FIX.4.4|9=104|35=AR|49=TESTI|56=TESTA|34=4|50=30737|97=Y|52=20030204-08:46:14|571=90001008|150=F|751=0|55=TESTB|635=B|10=045|
8=FIX.4.4|9=108|35=9|49=TESTI|56=TESTA|34=3|52=20030203-16:13:14|37=11111111|11=12121212122|41=11111111111|39=0|434=1|636=N|10=004|
8=FIX.4.4|9=108|35=9|49=TESTI|56=TESTA|34=3|52=20030203-16:13:14|37=11111111|11=12121212122|41=11111111111|39=0|434=1|636=Y|10=015|
8=FIX.4.4|9=126|35=8|49=TESTI|56=TESTA|34=114|52=20030203-16:09:30|37=11111111|17=11|39=0|150=0|55=TESTB|54=1|38=1000|151=1000|14=0|6=0|638=0|10=073|
8=FIX.4.4|9=126|35=8|49=TESTI|56=TESTA|34=114|52=20030203-16:09:30|37=11111111|17=11|39=0|150=0|55=TESTB|54=1|38=1000|151=1000|14=0|6=0|638=1|10=074|
8=FIX.4.4|9=251|35=AK|49=TESTI|56=TESTA|34=4|50=30737|52=20030204-08:46:14|664=0001|666=0|773=1|650=N|665=4|60=20060217-10:00:00|75=20060217|711=1|311=TST311|555=1|600=TST600|55=TESTA|80=1000|54=1|862=2|528=A|863=400|528=P|863=600|79=KTierney|6=20|381=20000|118=2000|10=019|
8=FIX.4.4|9=251|35=AK|49=TESTI|56=TESTA|34=4|50=30737|52=20030204-08:46:14|664=0001|666=0|773=1|650=Y|665=4|60=20060217-10:00:00|75=20060217|711=1|311=TST311|555=1|600=TST600|55=TESTA|80=1000|54=1|862=2|528=A|863=400|528=P|863=600|79=KTierney|6=20|381=20000|118=2000|10=030|
8=FIX.4.4|9=98|35=AG|49=TESTI|56=TESTA|34=4|50=30737|52=20030204-08:46:14|131=0001|658=1|146=2|55=TESTA|55=TESTB|10=033|
8=FIX.4.4|9=99|35=AG|49=TESTI|56=TESTA|34=4|50=30737|52=20030204-08:46:14|131=0001|658=10|146=2|55=TESTA|55=TESTB|10=082|
8=FIX.4.4|9=99|35=AG|49=TESTI|56=TESTA|34=4|50=30737|52=20030204-08:46:14|131=0001|658=99|146=2|55=TESTA|55=TESTB|10=099|
8=FIX.4.4|9=229|35=AM|49=TESTI|56=TESTA|34=4|50=30737|52=20030204-08:46:14|721=0001|709=1|712=1|722=0|715=20060217|1=KTierney|660=1|581=1|55=TESTA|60=20060217-10:00:00|702=2|703=TQ|703=IAS|753=2|707=FMTM|708=10|707=PREM|708=20|713=00000001-1234|10=129|
8=FIX.4.4|9=230|35=AM|49=TESTI|56=TESTA|34=4|50=30737|52=20030204-08:46:14|721=0001|709=1|712=1|722=0|715=20060217|1=KTierney|660=99|581=1|55=TESTA|60=20060217-10:00:00|702=2|703=TQ|703=IAS|753=2|707=FMTM|708=10|707=PREM|708=20|713=00000001-1234|10=186|
8=FIX.4.4|9=245|35=AK|49=TESTI|56=TESTA|34=4|50=30737|52=20030204-08:46:14|664=0001|666=0|773=1|665=1|60=20060217-10:00:00|75=20060217|711=1|311=TST311|555=1|600=TST600|55=TESTA|80=1000|54=1|862=2|528=A|863=400|528=P|863=600|79=KTierney|6=20|381=20000|118=2000|10=236|
8=FIX.4.4|9=245|35=AK|49=TESTI|56=TESTA|34=4|50=30737|52=20030204-08:46:14|664=0001|666=0|773=1|665=5|60=20060217-10:00:00|75=20060217|711=1|311=TST311|555=1|600=TST600|55=TESTA|80=1000|54=1|862=2|528=A|863=400|528=P|863=600|79=KTierney|6=20|381=20000|118=2000|10=240|
8=FIX.4.4|9=245|35=AK|49=TESTI|56=TESTA|34=4|50=30737|52=20030204-08:46:14|664=0001|666=0|773=1|665=4|60=20060217-10:00:00|75=20060217|711=1|311=TST311|555=1|600=TST600|55=TESTA|80=1000|54=1|862=2|528=A|863=400|528=P|863=600|79=KTierney|6=20|381=20000|118=2000|10=239|
8=FIX.4.4|9=256|35=AK|49=TESTI|56=TESTA|34=4|50=30737|52=20030204-08:46:14|664=0001|666=1|772=000071|773=1|665=4|60=20060217-10:00:00|75=20060217|711=1|311=TST311|555=1|600=TST600|55=TESTA|80=1000|54=1|862=2|528=A|863=400|528=P|863=600|79=KTierney|6=20|381=20000|118=2000|10=248|
8=FIX.4.4|9=256|35=AK|49=TESTI|56=TESTA|34=4|50=30737|52=20030204-08:46:14|664=0001|666=2|772=000072|773=1|665=4|60=20060217-10:00:00|75=20060217|711=1|311=TST311|555=1|600=TST600|55=TESTA|80=1000|54=1|862=2|528=A|863=400|528=P|863=600|79=KTierney|6=20|381=20000|118=2000|10=250|
8=FIX.4.4|9=71|35=c|49=TESTI|56=TESTA|34=14|52=20030204-09:25:43|320=0001|321=0|668=1|10=036|
8=FIX.4.4|9=71|35=c|49=TESTI|56=TESTA|34=14|52=20030204-09:25:43|320=0001|321=0|668=2|10=037|
8=FIX.4.4|9=176|35=AB|49=TESTI|56=TESTA|34=4|50=30737|97=Y|52=20030204-08:46:14|11=90001008|54=1|55=TESTB|555=2|600=TESTA|687=60|690=1|600=TESTC|687=60|690=4|38=4000|40=1|60=20060117-10:00:00|10=035|
8=FIX.4.4|9=153|35=AB|49=TESTI|56=TESTA|34=4|50=30737|97=Y|52=20030204-08:46:14|11=90001008|54=1|55=TESTB|555=1|600=TESTA|687=60|690=5|38=4000|40=1|60=20060117-10:00:00|10=112|
8=FIX.4.4|9=97|35=R|49=TESTI|56=TESTA|34=8|52=20030204-09:25:21|131=1272727|146=2|55=TESTA|692=1|55=TESTB|692=9|10=004|
8=FIX.4.4|9=98|35=R|49=TESTI|56=TESTA|34=8|52=20030204-09:25:21|131=1272727|146=2|55=TESTA|692=5|55=TESTB|692=10|10=049|
8=FIX.4.4|9=108|35=AJ|49=TESTI|56=TESTA|34=4|50=30737|52=20030204-08:46:14|693=0001|117=9001|694=1|11=00005|55=IBM|132=10.5|10=194|
8=FIX.4.4|9=108|35=AJ|49=TESTI|56=TESTA|34=4|50=30737|52=20030204-08:46:14|693=0001|117=9002|694=2|11=00006|55=IBM|132=10.5|10=197|
8=FIX.4.4|9=90|35=AJ|49=TESTI|56=TESTA|34=4|50=30737|52=20030204-08:46:14|693=0001|694=6|55=IBM|132=10.5|10=106|
8=FIX.4.4|9=216|35=AM|49=TESTI|56=TESTA|34=4|50=30737|52=20030204-08:46:14|721=0001|709=1|712=1|713=TST713|722=0|715=20060217|1=KTierney|581=1|55=TESTA|60=20060217-10:00:00|702=2|703=TQ|703=IAS|753=2|707=FMTM|708=10|707=PREM|708=20|10=144|
8=FIX.4.4|9=216|35=AM|49=TESTI|56=TESTA|34=4|50=30737|52=20030204-08:46:14|721=0001|709=1|712=1|713=TST713|722=0|715=20060217|1=KTierney|581=1|55=TESTA|60=20060217-10:00:00|702=2|703=ALC|703=XM|753=2|707=FMTM|708=10|707=PREM|708=20|10=131|
8=FIX.4.4|9=216|35=AW|49=TESTI|56=TESTA|34=4|50=30737|52=20030204-08:46:14|833=0001|453=1|448=ABNA|447=C|452=4|581=1|702=1|703=ASF|706=0|753=1|707=CASH|708=1000|730=10.5|731=1|732=11.5|744=P|746=5.5|747=M|716=ITD|717=1|715=20060217|10=225|
8=FIX.4.4|9=216|35=AW|49=TESTI|56=TESTA|34=4|50=30737|52=20030204-08:46:14|833=0001|453=1|448=ABNA|447=C|452=4|581=1|702=1|703=ASF|706=2|753=1|707=CASH|708=1000|730=10.5|731=1|732=11.5|744=P|746=5.5|747=M|716=ITD|717=1|715=20060217|10=227|
8=FIX.4.4|9=216|35=AM|49=TESTI|56=TESTA|34=4|50=30737|52=20030204-08:46:14|721=0001|709=1|712=1|713=TST713|722=0|715=20060217|1=KTierney|581=1|55=TESTA|60=20060217-10:00:00|702=2|703=TQ|703=IAS|753=2|707=FMTM|708=10|707=PREM|708=20|10=144|
8=FIX.4.4|9=216|35=AM|49=TESTI|56=TESTA|34=4|50=30737|52=20030204-08:46:14|721=0001|709=1|712=1|713=TST713|722=0|715=20060217|1=KTierney|581=1|55=TESTA|60=20060217-10:00:00|702=2|703=TQ|703=IAS|753=2|707=CASH|708=10|707=VADJ|708=20|10=108|
8=FIX.4.4|9=188|35=AL|49=TESTI|56=TESTA|34=4|50=30737|52=20030204-08:46:14|710=0001|709=1|712=1|715=20060217|453=1|448=ABNA|447=C|452=4|1=KTierney|581=1|55=TESTA|60=20060217-10:00:00|702=2|703=TQ|703=IAS|10=153|
8=FIX.4.4|9=188|35=AL|49=TESTI|56=TESTA|34=4|50=30737|52=20030204-08:46:14|710=0001|709=5|712=1|715=20060217|453=1|448=ABNA|447=C|452=4|1=KTierney|581=1|55=TESTA|60=20060217-10:00:00|702=2|703=TQ|703=IAS|10=157|
8=FIX.4.4|9=188|35=AL|49=TESTI|56=TESTA|34=4|50=30737|52=20030204-08:46:14|710=0001|709=1|712=1|715=20060217|453=1|448=ABNA|447=C|452=4|1=KTierney|581=1|55=TESTA|60=20060217-10:00:00|702=2|703=TQ|703=IAS|10=153|
8=FIX.4.4|9=188|35=AL|49=TESTI|56=TESTA|34=4|50=30737|52=20030204-08:46:14|710=0001|709=1|712=2|715=20060217|453=1|448=ABNA|447=C|452=4|1=KTierney|581=1|55=TESTA|60=20060217-10:00:00|702=2|703=TQ|703=IAS|10=154|
8=FIX.4.4|9=188|35=AL|49=TESTI|56=TESTA|34=4|50=30737|52=20030204-08:46:14|710=0001|709=1|712=3|715=20060217|453=1|448=ABNA|447=C|452=4|1=KTierney|581=1|55=TESTA|60=20060217-10:00:00|702=2|703=TQ|703=IAS|10=155|
8=FIX.4.4|9=194|35=AL|49=TESTI|56=TESTA|34=4|50=30737|52=20030204-08:46:14|710=0001|709=1|712=1|715=20060217|453=1|448=ABNA|447=C|452=4|1=KTierney|581=1|55=TESTA|60=20060217-10:00:00|702=2|703=TQ|703=IAS|718=0|10=164|
8=FIX.4.4|9=194|35=AL|49=TESTI|56=TESTA|34=4|50=30737|52=20030204-08:46:14|710=0001|709=1|712=1|715=20060217|453=1|448=ABNA|447=C|452=4|1=KTierney|581=1|55=TESTA|60=20060217-10:00:00|702=2|703=TQ|703=IAS|718=3|10=167|
8=FIX.4.4|9=216|35=AM|49=TESTI|56=TESTA|34=4|50=30737|52=20030204-08:46:14|721=0001|709=1|712=1|713=TST713|722=0|715=20060217|1=KTierney|581=1|55=TESTA|60=20060217-10:00:00|702=2|703=TQ|703=IAS|753=2|707=FMTM|708=10|707=PREM|708=20|10=144|
8=FIX.4.4|9=216|35=AM|49=TESTI|56=TESTA|34=4|50=30737|52=20030204-08:46:14|721=0001|709=1|712=1|713=TST713|722=4|715=20060217|1=KTierney|581=1|55=TESTA|60=20060217-10:00:00|702=2|703=TQ|703=IAS|753=2|707=FMTM|708=10|707=PREM|708=20|10=148|
8=FIX.4.4|9=229|35=AM|49=TESTI|56=TESTA|34=4|50=30737|52=20030204-08:46:14|721=0001|709=1|712=1|722=0|723=0|715=20060217|1=KTierney|581=1|55=TESTA|60=20060217-10:00:00|702=2|703=TQ|703=IAS|753=2|707=FMTM|708=10|707=PREM|708=20|713=00000001-1234|10=128|
8=FIX.4.4|9=229|35=AM|49=TESTI|56=TESTA|34=4|50=30737|52=20030204-08:46:14|721=0001|709=1|712=1|722=0|723=1|715=20060217|1=KTierney|581=1|55=TESTA|60=20060217-10:00:00|702=2|703=TQ|703=IAS|753=2|707=FMTM|708=10|707=PREM|708=20|713=00000001-1234|10=129|
8=FIX.4.4|9=230|35=AM|49=TESTI|56=TESTA|34=4|50=30737|52=20030204-08:46:14|721=0001|709=1|712=1|722=0|723=99|715=20060217|1=KTierney|581=1|55=TESTA|60=20060217-10:00:00|702=2|703=TQ|703=IAS|753=2|707=FMTM|708=10|707=PREM|708=20|713=00000001-1234|10=186|
8=FIX.4.4|9=152|35=AN|49=TESTI|56=TESTA|34=4|50=30737|52=20030204-08:46:14|710=0001|724=0|453=1|448=ABNA|447=C|452=4|1=KTierney|581=1|715=20060217|60=20060217-10:00:00|10=033|
8=FIX.4.4|9=152|35=AN|49=TESTI|56=TESTA|34=4|50=30737|52=20030204-08:46:14|710=0001|724=3|453=1|448=ABNA|447=C|452=4|1=KTierney|581=1|715=20060217|60=20060217-10:00:00|10=036|
8=FIX.4.4|9=65|35=BB|49=TESTI|56=TESTA|34=4|50=30737|52=20030204-08:46:14|725=0|10=031|
8=FIX.4.4|9=65|35=BB|49=TESTI|56=TESTA|34=4|50=30737|52=20030204-08:46:14|725=1|10=032|
8=FIX.4.4|9=124|35=AO|49=TESTI|56=TESTA|34=4|50=30737|52=20030204-08:46:14|721=0001|728=0|729=0|453=1|448=ABNA|447=C|452=4|1=KTierney|581=1|10=210|
8=FIX.4.4|9=124|35=AO|49=TESTI|56=TESTA|34=4|50=30737|52=20030204-08:46:14|721=0001|728=4|729=0|453=1|448=ABNA|447=C|452=4|1=KTierney|581=1|10=214|
8=FIX.4.4|9=125|35=AO|49=TESTI|56=TESTA|34=4|50=30737|52=20030204-08:46:14|721=0001|728=99|729=0|453=1|448=ABNA|447=C|452=4|1=KTierney|581=1|10=021|
8=FIX.4.4|9=124|35=AO|49=TESTI|56=TESTA|34=4|50=30737|52=20030204-08:46:14|721=0001|728=0|729=0|453=1|448=ABNA|447=C|452=4|1=KTierney|581=1|10=210|
8=FIX.4.4|9=124|35=AO|49=TESTI|56=TESTA|34=4|50=30737|52=20030204-08:46:14|721=0001|728=0|729=1|453=1|448=ABNA|447=C|452=4|1=KTierney|581=1|10=211|
8=FIX.4.4|9=124|35=AO|49=TESTI|56=TESTA|34=4|50=30737|52=20030204-08:46:14|721=0001|728=0|729=2|453=1|448=ABNA|447=C|452=4|1=KTierney|581=1|10=212|
8=FIX.4.4|9=214|35=AP|49=TESTI|56=TESTA|34=4|50=30737|52=20030204-08:46:14|721=0001|728=0|715=20060217|453=1|448=ABNA|447=C|452=4|1=KTierney|581=1|730=10.5|731=1|734=10.3|702=2|703=TQ|703=IAS|753=2|707=FMTM|708=10|707=PREM|708=20|10=091|
8=FIX.4.4|9=214|35=AP|49=TESTI|56=TESTA|34=4|50=30737|52=20030204-08:46:14|721=0001|728=0|715=20060217|453=1|448=ABNA|447=C|452=4|1=KTierney|581=1|730=10.5|731=2|734=10.3|702=2|703=TQ|703=IAS|753=2|707=FMTM|708=10|707=PREM|708=20|10=092|
8=FIX.4.4|9=210|35=AW|49=TESTI|56=TESTA|34=4|50=30737|52=20030204-08:46:14|833=0001|453=1|448=ABNA|447=C|452=4|581=1|702=1|703=ASF|753=1|707=CASH|708=1000|730=10.5|731=1|732=11.5|744=P|746=5.5|747=M|716=ITD|717=1|715=20060217|10=208|
8=FIX.4.4|9=210|35=AW|49=TESTI|56=TESTA|34=4|50=30737|52=20030204-08:46:14|833=0001|453=1|448=ABNA|447=C|452=4|581=1|702=1|703=ASF|753=1|707=CASH|708=1000|730=10.5|731=1|732=11.5|744=R|746=5.5|747=M|716=ITD|717=1|715=20060217|10=210|
8=FIX.4.4|9=210|35=AW|49=TESTI|56=TESTA|34=4|50=30737|52=20030204-08:46:14|833=0001|453=1|448=ABNA|447=E|452=4|581=1|702=1|703=ASF|753=1|707=CASH|708=1000|730=10.5|731=1|732=11.5|744=P|746=5.5|747=M|716=ITD|717=1|715=20060217|10=210|
8=FIX.4.4|9=210|35=AW|49=TESTI|56=TESTA|34=4|50=30737|52=20030204-08:46:14|833=0001|453=1|448=ABNA|447=E|452=4|581=1|702=1|703=ASF|753=1|707=CASH|708=1000|730=10.5|731=1|732=11.5|744=P|746=5.5|747=A|716=ITD|717=1|715=20060217|10=198|
8=FIX.4.4|9=102|35=AQ|49=TESTI|56=TESTA|34=4|50=30737|97=Y|52=20030204-08:46:14|568=90001008|569=0|749=1|750=0|55=IBM|10=114|
8=FIX.4.4|9=102|35=AQ|49=TESTI|56=TESTA|34=4|50=30737|97=Y|52=20030204-08:46:14|568=90001008|569=0|749=9|750=0|55=IBM|10=122|
8=FIX.4.4|9=103|35=AQ|49=TESTI|56=TESTA|34=4|50=30737|97=Y|52=20030204-08:46:14|568=90001008|569=0|749=99|750=0|55=IBM|10=180|
8=FIX.4.4|9=102|35=AQ|49=TESTI|56=TESTA|34=4|50=30737|97=Y|52=20030204-08:46:14|568=90001008|569=0|749=2|750=0|55=IBM|10=115|
8=FIX.4.4|9=102|35=AQ|49=TESTI|56=TESTA|34=4|50=30737|97=Y|52=20030204-08:46:14|568=90001008|569=0|749=2|750=1|55=IBM|10=116|
8=FIX.4.4|9=102|35=AQ|49=TESTI|56=TESTA|34=4|50=30737|97=Y|52=20030204-08:46:14|568=90001008|569=0|749=2|750=2|55=IBM|10=117|
8=FIX.4.4|9=98|35=AR|49=TESTI|56=TESTA|34=4|50=30737|97=Y|52=20030204-08:46:14|571=90001008|150=F|751=1|55=TESTB|10=236|
8=FIX.4.4|9=98|35=AR|49=TESTI|56=TESTA|34=4|50=30737|97=Y|52=20030204-08:46:14|571=90001008|150=F|751=4|55=TESTB|10=239|
8=FIX.4.4|9=99|35=AR|49=TESTI|56=TESTA|34=4|50=30737|97=Y|52=20030204-08:46:14|571=90001008|150=F|751=99|55=TESTB|10=046|
8=FIX.4.4|9=191|35=AE|49=TESTI|56=TESTA|34=4|50=30737|97=Y|52=20030204-08:46:14|571=90001008|150=F|570=N|55=TESTA|32=1000|31=10.4|75=20060217|60=20060217-10:00:00|552=2|54=1|37=0001|752=1|54=2|37=0002|752=3|10=205|
8=FIX.4.4|9=191|35=AE|49=TESTI|56=TESTA|34=4|50=30737|97=Y|52=20030204-08:46:14|571=90001008|150=F|570=N|55=TESTA|32=1000|31=10.4|75=20060217|60=20060217-10:00:00|552=2|54=1|37=0001|752=2|54=2|37=0002|752=1|10=204|
8=FIX.4.4|9=97|35=BB|49=TESTI|56=TESTA|34=4|50=30737|52=20030204-08:46:14|768=1|769=20060217-10:00:00.100|770=1|10=048|
8=FIX.4.4|9=97|35=BB|49=TESTI|56=TESTA|34=4|50=30737|52=20030204-08:46:14|768=1|769=20060217-10:00:00.100|770=5|10=052|
8=FIX.4.4|9=245|35=AK|49=TESTI|56=TESTA|34=4|50=30737|52=20030204-08:46:14|664=0001|666=0|773=1|665=4|60=20060217-10:00:00|75=20060217|711=1|311=TST311|555=1|600=TST600|55=TESTA|80=1000|54=1|862=2|528=A|863=400|528=P|863=600|79=KTierney|6=20|381=20000|118=2000|10=239|
8=FIX.4.4|9=251|35=AK|49=TESTI|56=TESTA|34=4|50=30737|52=20030204-08:46:14|664=0001|666=0|773=2|650=Y|665=4|60=20060217-10:00:00|75=20060217|711=1|311=TST311|555=1|600=TST600|55=TESTA|80=1000|54=1|862=2|528=A|863=400|528=P|863=600|79=KTierney|6=20|381=20000|118=2000|10=031|
8=FIX.4.4|9=245|35=AK|49=TESTI|56=TESTA|34=4|50=30737|52=20030204-08:46:14|664=0001|666=0|773=3|665=4|60=20060217-10:00:00|75=20060217|711=1|311=TST311|555=1|600=TST600|55=TESTA|80=1000|54=1|862=2|528=A|863=400|528=P|863=600|79=KTierney|6=20|381=20000|118=2000|10=241|
8=FIX.4.4|9=113|35=AU|49=TESTI|56=TESTA|34=4|50=30737|52=20030204-08:46:14|664=0001|60=20060217-10:00:00|75=20060217|940=1|774=2|10=064|
8=FIX.4.4|9=114|35=AU|49=TESTI|56=TESTA|34=4|50=30737|52=20030204-08:46:14|664=0001|60=20060217-10:00:00|75=20060217|940=1|774=99|10=129|
8=FIX.4.4|9=168|35=AC|49=TESTI|56=TESTA|34=4|50=30737|97=Y|52=20030204-08:46:14|11=90001008|41=93452234|54=1|55=TESTB|555=2|600=TESTA|600=TESTC|60=20060217-10:00:00|38=4000|40=1|775=0|10=201|
8=FIX.4.4|9=168|35=AC|49=TESTI|56=TESTA|34=4|50=30737|97=Y|52=20030204-08:46:14|11=90001008|41=93452234|54=1|55=TESTB|555=2|600=TESTA|600=TESTC|60=20060217-10:00:00|38=4000|40=1|775=1|10=202|
8=FIX.4.4|9=168|35=AC|49=TESTI|56=TESTA|34=4|50=30737|97=Y|52=20030204-08:46:14|11=90001008|41=93452234|54=1|55=TESTB|555=2|600=TESTA|600=TESTC|60=20060217-10:00:00|38=4000|40=1|775=2|10=203|
8=FIX.4.4|9=158|35=AS|49=TESTI|56=TESTA|34=4|50=30737|97=Y|52=20030204-08:46:14|755=0001|71=0|794=5|87=0|857=0|54=2|55=TESTB|53=10000|6=10.5|75=20060217|78=1|79=TST079|780=0|10=027|
8=FIX.4.4|9=158|35=AS|49=TESTI|56=TESTA|34=4|50=30737|97=Y|52=20030204-08:46:14|755=0001|71=0|794=5|87=0|857=0|54=2|55=TESTB|53=10000|6=10.5|75=20060217|78=1|79=TST079|780=4|10=031|
8=FIX.4.4|9=125|35=BA|49=TESTI|56=TESTA|34=4|50=30737|52=20030204-08:46:14|908=0001|910=0|172=1|85=1|165=2|787=C|781=1|782=00078|783=1|784=1|10=015|
8=FIX.4.4|9=125|35=BA|49=TESTI|56=TESTA|34=4|50=30737|52=20030204-08:46:14|908=0001|910=0|172=1|85=1|165=2|787=S|781=1|782=00078|783=1|784=1|10=031|
8=FIX.4.4|9=71|35=BB|49=TESTI|56=TESTA|34=4|50=30737|52=20030204-08:46:14|913=1|788=1|10=050|
8=FIX.4.4|9=71|35=BB|49=TESTI|56=TESTA|34=4|50=30737|52=20030204-08:46:14|913=1|788=4|10=053|
8=FIX.4.4|9=94|35=T|49=TESTI|56=TESTA|34=14|52=20030204-09:25:43|777=112233|160=5|792=0|60=20060217-10:00:00|10=144|
8=FIX.4.4|9=94|35=T|49=TESTI|56=TESTA|34=14|52=20030204-09:25:43|777=112233|160=5|792=2|60=20060217-10:00:00|10=146|
8=FIX.4.4|9=161|35=AS|49=TESTI|56=TESTA|34=4|50=30737|97=Y|52=20030204-08:46:14|755=0001|71=0|794=3|87=0|857=0|54=2|55=TESTB|53=10000|6=10.5|75=20060217|78=1|79=TST79|80=10.400|10=159|
8=FIX.4.4|9=167|35=AS|49=TESTI|56=TESTA|34=4|50=30737|97=Y|52=20030204-08:46:14|755=0001|71=0|794=8|808=4|87=0|857=0|54=2|55=TESTB|53=10000|6=10.5|75=20060217|78=1|79=TST79|80=10.400|10=188|
8=FIX.4.4|9=184|35=J|49=TESTI|56=TESTA|34=4|52=20030204-08:56:41|70=1116226|71=0|626=1|796=1|857=0|54=1|55=TESTB|53=1004000|6=30|75=20030821|78=3|79=1000|80=500000|79=2000|80=400000|79=3000|80=104000|10=021|
8=FIX.4.4|9=184|35=J|49=TESTI|56=TESTA|34=4|52=20030204-08:56:41|70=1116226|71=0|626=1|796=2|857=0|54=1|55=TESTB|53=1004000|6=30|75=20030821|78=3|79=1000|80=500000|79=2000|80=400000|79=3000|80=104000|10=022|
8=FIX.4.4|9=185|35=J|49=TESTI|56=TESTA|34=4|52=20030204-08:56:41|70=1116226|71=0|626=1|796=99|857=0|54=1|55=TESTB|53=1004000|6=30|75=20030821|78=3|79=1000|80=500000|79=2000|80=400000|79=3000|80=104000|10=087|
8=FIX.4.4|9=101|35=BH|49=TESTI|56=TESTA|34=4|50=30737|52=20030204-08:46:14|859=0001|773=1|60=20060217-10:00:00|798=1|10=004|
8=FIX.4.4|9=101|35=BH|49=TESTI|56=TESTA|34=4|50=30737|52=20030204-08:46:14|859=0001|773=1|60=20060217-10:00:00|798=8|10=011|
8=FIX.4.4|9=237|35=AP|49=TESTI|56=TESTA|34=4|50=30737|52=20030204-08:46:14|721=0001|728=0|715=20060217|453=1|448=ABNA|447=C|452=4|802=1|523=TST523|803=1|1=KTierney|581=1|730=10.5|731=1|734=10.3|702=2|703=TQ|703=IAS|753=2|707=FMTM|708=10|707=PREM|708=20|10=224|
8=FIX.4.4|9=238|35=AP|49=TESTI|56=TESTA|34=4|50=30737|52=20030204-08:46:14|721=0001|728=0|715=20060217|453=1|448=ABNA|447=C|452=4|802=1|523=TST523|803=10|1=KTierney|581=1|730=10.5|731=1|734=10.3|702=2|703=TQ|703=IAS|753=2|707=FMTM|708=10|707=PREM|708=20|10=017|
8=FIX.4.4|9=238|35=AP|49=TESTI|56=TESTA|34=4|50=30737|52=20030204-08:46:14|721=0001|728=0|715=20060217|453=1|448=ABNA|447=C|452=4|802=1|523=TST523|803=26|1=KTierney|581=1|730=10.5|731=1|734=10.3|702=2|703=TQ|703=IAS|753=2|707=FMTM|708=10|707=PREM|708=20|10=024|
8=FIX.4.4|9=240|35=AP|49=TESTI|56=TESTA|34=4|50=30737|52=20030204-08:46:14|721=0001|728=0|715=20060217|453=1|448=ABNA|447=C|452=4|802=1|523=TST523|803=4000|1=KTierney|581=1|730=10.5|731=1|734=10.3|702=2|703=TQ|703=IAS|753=2|707=FMTM|708=10|707=PREM|708=20|10=109|
8=FIX.4.4|9=101|35=P|49=TESTI|56=TESTA|34=7|52=20030204-09:17:25|70=3659000001|60=20060108-10:00:53|87=0|808=1|573=0|10=248|
8=FIX.4.4|9=101|35=P|49=TESTI|56=TESTA|34=7|52=20030204-09:17:25|70=3659000001|60=20060108-10:00:53|87=0|808=6|573=0|10=253|
8=FIX.4.4|9=106|35=X|49=TESTI|56=TESTA|34=14|52=20030204-09:25:43|268=2|279=1|280=0001|55=COMP1|270=10|279=1|280=0002|55=COMP2|270=11|814=0|10=126|
8=FIX.4.4|9=106|35=X|49=TESTI|56=TESTA|34=14|52=20030204-09:25:43|268=2|279=1|280=0001|55=COMP1|270=10|279=1|280=0002|55=COMP2|270=11|814=3|10=129|
8=FIX.4.4|9=120|35=V|49=TESTI|56=TESTA|34=14|52=20030204-09:25:43|262=11223|263=0|264=0|267=2|269=0|269=1|146=2|55=TESTA|55=TESTB|815=0|10=019|
8=FIX.4.4|9=120|35=V|49=TESTI|56=TESTA|34=14|52=20030204-09:25:43|262=11223|263=0|264=0|267=2|269=0|269=1|146=2|55=TESTA|55=TESTB|815=3|10=022|
8=FIX.4.4|9=185|35=AE|49=TESTI|56=TESTA|34=4|50=30737|97=Y|52=20030204-08:46:14|571=90001008|150=F|570=N|55=TESTA|32=1000|31=10.4|75=20060217|819=0|60=20060217-10:00:00|552=2|54=1|37=0001|54=2|37=0002|10=196|
8=FIX.4.4|9=185|35=AE|49=TESTI|56=TESTA|34=4|50=30737|97=Y|52=20030204-08:46:14|571=90001008|150=F|570=N|55=TESTA|32=1000|31=10.4|75=20060217|819=1|60=20060217-10:00:00|552=2|54=1|37=0001|54=2|37=0002|10=197|
8=FIX.4.4|9=185|35=AE|49=TESTI|56=TESTA|34=4|50=30737|97=Y|52=20030204-08:46:14|571=90001008|150=F|570=N|55=TESTA|32=1000|31=10.4|75=20060217|819=2|60=20060217-10:00:00|552=2|54=1|37=0001|54=2|37=0002|10=198|
8=FIX.4.4|9=191|35=AE|49=TESTI|56=TESTA|34=4|50=30737|97=Y|52=20030204-08:46:14|571=90001008|150=F|570=N|55=TESTA|32=1000|31=10.4|75=20060217|60=20060217-10:00:00|552=2|54=1|37=0001|826=0|54=2|37=0002|826=1|10=206|
8=FIX.4.4|9=191|35=AE|49=TESTI|56=TESTA|34=4|50=30737|97=Y|52=20030204-08:46:14|571=90001008|150=F|570=N|55=TESTA|32=1000|31=10.4|75=20060217|60=20060217-10:00:00|552=2|54=1|37=0001|826=2|54=2|37=0002|826=2|10=209|
8=FIX.4.4|9=71|35=c|49=TESTI|56=TESTA|34=14|52=20030204-09:25:43|320=0001|321=0|827=0|10=032|
8=FIX.4.4|9=71|35=c|49=TESTI|56=TESTA|34=14|52=20030204-09:25:43|320=0001|321=0|827=1|10=033|
8=FIX.4.4|9=89|35=AD|49=TESTI|56=TESTA|34=4|50=30737|97=Y|52=20030204-08:46:14|568=90001008|569=0|828=0|10=182|
8=FIX.4.4|9=90|35=AD|49=TESTI|56=TESTA|34=4|50=30737|97=Y|52=20030204-08:46:14|568=90001008|569=0|828=10|10=223|
8=FIX.4.4|9=142|35=G|49=TESTI|56=TESTA|34=6|52=20030204-08:49:18|11=12233345|41=90001008|21=2|55=TESTB|54=1|60=20060117-10:00:00|38=4000|40=1|211=0.211|835=0|10=174|
8=FIX.4.4|9=142|35=G|49=TESTI|56=TESTA|34=6|52=20030204-08:49:18|11=12233345|41=90001008|21=2|55=TESTB|54=1|60=20060117-10:00:00|38=4000|40=1|211=0.211|835=1|10=175|
8=FIX.4.4|9=148|35=G|49=TESTI|56=TESTA|34=6|52=20030204-08:49:18|11=12233345|41=90001008|21=2|55=TESTB|54=1|60=20060117-10:00:00|38=4000|40=1|211=0.211|835=0|836=0|10=195|
8=FIX.4.4|9=148|35=G|49=TESTI|56=TESTA|34=6|52=20030204-08:49:18|11=12233345|41=90001008|21=2|55=TESTB|54=1|60=20060117-10:00:00|38=4000|40=1|211=0.211|835=0|836=3|10=198|
8=FIX.4.4|9=154|35=G|49=TESTI|56=TESTA|34=6|52=20030204-08:49:18|11=12233345|41=90001008|21=2|55=TESTB|54=1|60=20060117-10:00:00|38=4000|40=1|211=0.211|835=1|836=1|837=0|10=210|
8=FIX.4.4|9=154|35=G|49=TESTI|56=TESTA|34=6|52=20030204-08:49:18|11=12233345|41=90001008|21=2|55=TESTB|54=1|60=20060117-10:00:00|38=4000|40=1|211=0.211|835=1|836=1|837=2|10=212|
8=FIX.4.4|9=160|35=G|49=TESTI|56=TESTA|34=6|52=20030204-08:49:18|11=12233345|41=90001008|21=2|55=TESTB|54=1|60=20060117-10:00:00|38=4000|40=1|211=0.211|835=0|836=3|837=1|838=1|10=227|
8=FIX.4.4|9=160|35=G|49=TESTI|56=TESTA|34=6|52=20030204-08:49:18|11=12233345|41=90001008|21=2|55=TESTB|54=1|60=20060117-10:00:00|38=4000|40=1|211=0.211|835=0|836=3|837=1|838=2|10=228|
8=FIX.4.4|9=166|35=G|49=TESTI|56=TESTA|34=6|52=20030204-08:49:18|11=12233345|41=90001008|21=2|55=TESTB|54=1|60=20060117-10:00:00|38=4000|40=1|211=0.211|835=1|836=2|837=0|838=2|840=1|10=244|
8=FIX.4.4|9=166|35=G|49=TESTI|56=TESTA|34=6|52=20030204-08:49:18|11=12233345|41=90001008|21=2|55=TESTB|54=1|60=20060117-10:00:00|38=4000|40=1|211=0.211|835=1|836=2|837=0|838=2|840=4|10=247|
8=FIX.4.4|9=199|35=s|49=TESTI|56=TESTA|34=4|50=30737|97=Y|52=20030204-08:46:14|548=90001008|549=1|550=0|552=2|54=1|11=B101010|38=4000|54=2|11=S101010|38=5000|55=TESTA|60=20060217-10:00:00|40=1|388=0|389=0.389|841=0|10=114|
8=FIX.4.4|9=199|35=s|49=TESTI|56=TESTA|34=4|50=30737|97=Y|52=20030204-08:46:14|548=90001008|549=1|550=0|552=2|54=1|11=B101010|38=4000|54=2|11=S101010|38=5000|55=TESTA|60=20060217-10:00:00|40=1|388=0|389=0.389|841=1|10=115|
8=FIX.4.4|9=205|35=s|49=TESTI|56=TESTA|34=4|50=30737|97=Y|52=20030204-08:46:14|548=90001008|549=1|550=0|552=2|54=1|11=B101010|38=4000|54=2|11=S101010|38=5000|55=TESTA|60=20060217-10:00:00|40=1|388=6|389=0.389|841=1|842=0|10=121|
8=FIX.4.4|9=205|35=s|49=TESTI|56=TESTA|34=4|50=30737|97=Y|52=20030204-08:46:14|548=90001008|549=1|550=0|552=2|54=1|11=B101010|38=4000|54=2|11=S101010|38=5000|55=TESTA|60=20060217-10:00:00|40=1|388=6|389=0.389|841=1|842=3|10=124|
8=FIX.4.4|9=211|35=s|49=TESTI|56=TESTA|34=4|50=30737|97=Y|52=20030204-08:46:14|548=90001008|549=1|550=0|552=2|54=1|11=B101010|38=4000|54=2|11=S101010|38=5000|55=TESTA|60=20060217-10:00:00|40=1|388=4|389=0.389|841=0|842=3|843=0|10=131|
8=FIX.4.4|9=211|35=s|49=TESTI|56=TESTA|34=4|50=30737|97=Y|52=20030204-08:46:14|548=90001008|549=1|550=0|552=2|54=1|11=B101010|38=4000|54=2|11=S101010|38=5000|55=TESTA|60=20060217-10:00:00|40=1|388=4|389=0.389|841=0|842=3|843=2|10=133|
8=FIX.4.4|9=217|35=s|49=TESTI|56=TESTA|34=4|50=30737|97=Y|52=20030204-08:46:14|548=90001008|549=1|550=0|552=2|54=1|11=B101010|38=4000|54=2|11=S101010|38=5000|55=TESTA|60=20060217-10:00:00|40=1|388=3|389=0.389|841=0|842=3|843=2|844=1|10=153|
8=FIX.4.4|9=217|35=s|49=TESTI|56=TESTA|34=4|50=30737|97=Y|52=20030204-08:46:14|548=90001008|549=1|550=0|552=2|54=1|11=B101010|38=4000|54=2|11=S101010|38=5000|55=TESTA|60=20060217-10:00:00|40=1|388=3|389=0.389|841=0|842=3|843=2|844=2|10=154|
8=FIX.4.4|9=223|35=s|49=TESTI|56=TESTA|34=4|50=30737|97=Y|52=20030204-08:46:14|548=90001008|549=1|550=0|552=2|54=1|11=B101010|38=4000|54=2|11=S101010|38=5000|55=TESTA|60=20060217-10:00:00|40=1|388=1|389=0.389|841=0|842=0|843=0|844=2|846=1|10=161|
8=FIX.4.4|9=223|35=s|49=TESTI|56=TESTA|34=4|50=30737|97=Y|52=20030204-08:46:14|548=90001008|549=1|550=0|552=2|54=1|11=B101010|38=4000|54=2|11=S101010|38=5000|55=TESTA|60=20060217-10:00:00|40=1|388=1|389=0.389|841=0|842=0|843=0|844=2|846=4|10=164|
8=FIX.4.4|9=129|35=D|49=TESTI|56=TESTA|34=4|50=30737|97=Y|52=20030204-08:46:14|11=90001008|55=TESTB|54=1|60=20060217-10:00:00|38=4000|40=1|847=1|10=137|
8=FIX.4.4|9=129|35=D|49=TESTI|56=TESTA|34=4|50=30737|97=Y|52=20030204-08:46:14|11=90001008|55=TESTB|54=1|60=20060217-10:00:00|38=4000|40=1|847=3|10=139|
8=FIX.4.4|9=132|35=D|49=TESTI|56=TESTA|34=4|50=30737|97=Y|52=20030204-08:46:14|11=90001008|55=TESTB|54=1|60=20060217-10:00:00|38=4000|40=1|847=1000|10=019|
8=FIX.4.4|9=126|35=8|49=TESTI|56=TESTA|34=114|52=20030203-16:09:30|37=11111111|17=11|39=0|150=0|55=TESTB|54=1|38=1000|151=1000|14=0|6=0|851=1|10=071|
8=FIX.4.4|9=126|35=8|49=TESTI|56=TESTA|34=114|52=20030203-16:09:30|37=11111111|17=11|39=0|150=0|55=TESTB|54=1|38=1000|151=1000|14=0|6=0|851=2|10=072|
8=FIX.4.4|9=126|35=8|49=TESTI|56=TESTA|34=114|52=20030203-16:09:30|37=11111111|17=11|39=0|150=0|55=TESTB|54=1|38=1000|151=1000|14=0|6=0|851=3|10=073|
8=FIX.4.4|9=185|35=AE|49=TESTI|56=TESTA|34=4|50=30737|97=Y|52=20030204-08:46:14|571=90001008|150=F|570=N|55=TESTA|32=1000|31=10.4|75=20060217|60=20060217-10:00:00|552=2|54=1|37=0001|54=2|37=0002|852=N|10=223|
8=FIX.4.4|9=185|35=AE|49=TESTI|56=TESTA|34=4|50=30737|97=Y|52=20030204-08:46:14|571=90001008|150=F|570=N|55=TESTA|32=1000|31=10.4|75=20060217|60=20060217-10:00:00|552=2|54=1|37=0001|54=2|37=0002|852=Y|10=234|
8=FIX.4.4|9=185|35=AE|49=TESTI|56=TESTA|34=4|50=30737|97=Y|52=20030204-08:46:14|571=90001008|150=F|570=N|55=TESTA|32=1000|31=10.4|75=20060217|60=20060217-10:00:00|552=2|54=1|37=0001|54=2|37=0002|853=0|10=194|
8=FIX.4.4|9=185|35=AE|49=TESTI|56=TESTA|34=4|50=30737|97=Y|52=20030204-08:46:14|571=90001008|150=F|570=N|55=TESTA|32=1000|31=10.4|75=20060217|60=20060217-10:00:00|552=2|54=1|37=0001|54=2|37=0002|853=5|10=199|
8=FIX.4.4|9=89|35=7|49=TESTI|56=TESTA|34=31|52=20030203-16:02:35|2=20|5=N|55=TESTB|4=T|53=1000000|854=0|10=215|
8=FIX.4.4|9=89|35=7|49=TESTI|56=TESTA|34=31|52=20030203-16:02:35|2=20|5=N|55=TESTB|4=T|53=1000000|854=1|10=216|
8=FIX.4.4|9=104|35=AR|49=TESTI|56=TESTA|34=4|50=30737|97=Y|52=20030204-08:46:14|571=90001008|856=0|150=F|751=0|55=TESTB|10=032|
8=FIX.4.4|9=104|35=AR|49=TESTI|56=TESTA|34=4|50=30737|97=Y|52=20030204-08:46:14|571=90001008|856=7|150=F|751=0|55=TESTB|10=039|
8=FIX.4.4|9=137|35=AS|49=TESTI|56=TESTA|34=4|50=30737|97=Y|52=20030204-08:46:14|755=0001|71=0|794=5|87=0|857=0|54=2|55=TESTB|53=10000|6=10.5|75=20060217|10=228|
8=FIX.4.4|9=156|35=AS|49=TESTI|56=TESTA|34=4|50=30737|97=Y|52=20030204-08:46:14|755=0001|71=0|794=5|87=1|88=0|857=1|73=1|11=TST11|54=2|55=TESTB|53=10000|6=10.5|75=20060217|10=155|
8=FIX.4.4|9=135|35=D|49=TESTI|56=TESTA|34=4|50=30737|97=Y|52=20030204-08:46:14|11=90001008|55=TESTB|864=1|865=1|54=1|60=20060217-10:00:00|38=4000|40=1|10=151|
8=FIX.4.4|9=135|35=D|49=TESTI|56=TESTA|34=4|50=30737|97=Y|52=20030204-08:46:14|11=90001008|55=TESTB|864=1|865=4|54=1|60=20060217-10:00:00|38=4000|40=1|10=154|
8=FIX.4.4|9=136|35=D|49=TESTI|56=TESTA|34=4|50=30737|97=Y|52=20030204-08:46:14|11=90001008|55=TESTB|864=1|865=99|54=1|60=20060217-10:00:00|38=4000|40=1|10=217|
8=FIX.4.4|9=77|35=f|49=TESTI|56=TESTA|34=14|52=20030204-09:25:43|55=TESTB|668=1|870=1|871=1|10=220|
8=FIX.4.4|9=78|35=f|49=TESTI|56=TESTA|34=14|52=20030204-09:25:43|55=TESTB|668=1|870=1|871=22|10=016|
8=FIX.4.4|9=78|35=f|49=TESTI|56=TESTA|34=14|52=20030204-09:25:43|55=TESTB|668=1|870=1|871=99|10=030|
8=FIX.4.4|9=183|35=s|49=TESTI|56=TESTA|34=4|50=30737|97=Y|52=20030204-08:46:14|548=90001008|549=1|550=0|552=2|54=1|11=B101010|38=4000|54=2|11=S101010|38=5000|55=TESTA|875=1|60=20060217-10:00:00|40=1|10=126|
8=FIX.4.4|9=183|35=s|49=TESTI|56=TESTA|34=4|50=30737|97=Y|52=20030204-08:46:14|548=90001008|549=1|550=0|552=2|54=1|11=B101010|38=4000|54=2|11=S101010|38=5000|55=TESTA|875=2|60=20060217-10:00:00|40=1|10=127|
8=FIX.4.4|9=184|35=s|49=TESTI|56=TESTA|34=4|50=30737|97=Y|52=20030204-08:46:14|548=90001008|549=1|550=0|552=2|54=1|11=B101010|38=4000|54=2|11=S101010|38=5000|55=TESTA|875=99|60=20060217-10:00:00|40=1|10=192|
8=FIX.4.4|9=238|35=AK|49=TESTI|56=TESTA|34=4|50=30737|52=20030204-08:46:14|664=0001|666=0|773=1|665=4|60=20060217-10:00:00|75=20060217|55=TESTA|80=1000|54=1|862=2|528=A|863=400|528=P|863=600|79=KTierney|6=20|381=20000|118=2000|136=1|137=0037|139=1|891=0|10=219|
8=FIX.4.4|9=238|35=AK|49=TESTI|56=TESTA|34=4|50=30737|52=20030204-08:46:14|664=0001|666=0|773=1|665=4|60=20060217-10:00:00|75=20060217|55=TESTA|80=1000|54=1|862=2|528=A|863=400|528=P|863=600|79=KTierney|6=20|381=20000|118=2000|136=1|137=0037|139=1|891=1|10=220|
8=FIX.4.4|9=238|35=AK|49=TESTI|56=TESTA|34=4|50=30737|52=20030204-08:46:14|664=0001|666=0|773=1|665=4|60=20060217-10:00:00|75=20060217|55=TESTA|80=1000|54=1|862=2|528=A|863=400|528=P|863=600|79=KTierney|6=20|381=20000|118=2000|136=1|137=0037|139=1|891=2|10=221|
8=FIX.4.4|9=81|35=AA|49=TESTI|56=TESTA|34=14|52=20030204-09:25:43|320=0001|322=0001|560=0|893=N|10=252|
8=FIX.4.4|9=81|35=AA|49=TESTI|56=TESTA|34=14|52=20030204-09:25:43|320=0001|322=0001|560=0|893=Y|10=007|
8=FIX.4.4|9=101|35=AY|49=TESTI|56=TESTA|34=4|50=30737|52=20030204-08:46:14|902=0001|895=1|903=0|60=20060217-10:00:00|10=001|
8=FIX.4.4|9=101|35=AY|49=TESTI|56=TESTA|34=4|50=30737|52=20030204-08:46:14|902=0001|895=7|903=0|60=20060217-10:00:00|10=007|
8=FIX.4.4|9=86|35=BG|49=TESTI|56=TESTA|34=4|50=30737|52=20030204-08:46:14|909=0001|945=0|938=1|896=0|10=244|
8=FIX.4.4|9=86|35=BG|49=TESTI|56=TESTA|34=4|50=30737|52=20030204-08:46:14|909=0001|945=0|938=1|896=7|10=251|
8=FIX.4.4|9=101|35=AY|49=TESTI|56=TESTA|34=4|50=30737|52=20030204-08:46:14|902=0001|895=0|903=1|60=20060217-10:00:00|10=001|
8=FIX.4.4|9=101|35=AY|49=TESTI|56=TESTA|34=4|50=30737|52=20030204-08:46:14|902=0001|895=0|903=4|60=20060217-10:00:00|10=004|
8=FIX.4.4|9=110|35=AZ|49=TESTI|56=TESTA|34=4|50=30737|52=20030204-08:46:14|904=0001|902=0001|895=0|905=1|60=20060217-10:00:00|10=160|
8=FIX.4.4|9=110|35=AZ|49=TESTI|56=TESTA|34=4|50=30737|52=20030204-08:46:14|904=0001|902=0001|895=0|905=3|60=20060217-10:00:00|10=162|
8=FIX.4.4|9=116|35=AZ|49=TESTI|56=TESTA|34=4|50=30737|52=20030204-08:46:14|904=0001|902=0001|895=0|905=2|906=0|60=20060217-10:00:00|10=180|
8=FIX.4.4|9=116|35=AZ|49=TESTI|56=TESTA|34=4|50=30737|52=20030204-08:46:14|904=0001|902=0001|895=0|905=2|906=5|60=20060217-10:00:00|10=185|
8=FIX.4.4|9=117|35=AZ|49=TESTI|56=TESTA|34=4|50=30737|52=20030204-08:46:14|904=0001|902=0001|895=0|905=2|906=99|60=20060217-10:00:00|10=247|
8=FIX.4.4|9=74|35=BA|49=TESTI|56=TESTA|34=4|50=30737|52=20030204-08:46:14|908=0001|910=1|10=187|
8=FIX.4.4|9=74|35=BA|49=TESTI|56=TESTA|34=4|50=30737|52=20030204-08:46:14|908=0001|910=4|10=190|
8=FIX.4.4|9=216|35=AW|49=TESTI|56=TESTA|34=4|50=30737|52=20030204-08:46:14|833=0001|912=N|453=1|448=ABNA|447=C|452=4|581=1|702=1|703=ASF|753=1|707=CASH|708=1000|730=10.5|731=1|732=11.5|744=P|746=5.5|747=M|716=ITD|717=1|715=20060217|10=254|
8=FIX.4.4|9=216|35=AW|49=TESTI|56=TESTA|34=4|50=30737|52=20030204-08:46:14|833=0001|912=Y|453=1|448=ABNA|447=C|452=4|581=1|702=1|703=ASF|753=1|707=CASH|708=1000|730=10.5|731=1|732=11.5|744=P|746=5.5|747=M|716=ITD|717=1|715=20060217|10=009|
8=FIX.4.4|9=77|35=BB|49=TESTI|56=TESTA|34=4|50=30737|52=20030204-08:46:14|913=TEST913|919=0|10=223|
8=FIX.4.4|9=77|35=BB|49=TESTI|56=TESTA|34=4|50=30737|52=20030204-08:46:14|913=TEST913|919=3|10=226|
8=FIX.4.4|9=87|35=BE|49=TESTI|56=TESTA|34=4|50=30737|52=20030204-08:46:14|923=0001|924=2|553=TestUser|10=224|
8=FIX.4.4|9=87|35=BE|49=TESTI|56=TESTA|34=4|50=30737|52=20030204-08:46:14|923=0001|924=4|553=TestUser|10=226|
8=FIX.4.4|9=87|35=BF|49=TESTI|56=TESTA|34=4|50=30737|52=20030204-08:46:14|923=0001|553=TestUser|926=1|10=226|
8=FIX.4.4|9=87|35=BF|49=TESTI|56=TESTA|34=4|50=30737|52=20030204-08:46:14|923=0001|553=TestUser|926=6|10=231|
8=FIX.4.4|9=112|35=BD|49=TESTI|56=TESTA|34=4|50=30737|52=20030204-08:46:14|937=1|932=0001|936=2|930=COMP1|928=1|930=COMP2|928=2|10=153|
8=FIX.4.4|9=112|35=BD|49=TESTI|56=TESTA|34=4|50=30737|52=20030204-08:46:14|937=1|932=0001|936=2|930=COMP1|928=3|930=COMP2|928=4|10=157|
8=FIX.4.4|9=74|35=BC|49=TESTI|56=TESTA|34=4|50=30737|52=20030204-08:46:14|935=2|933=0001|10=195|
8=FIX.4.4|9=74|35=BC|49=TESTI|56=TESTA|34=4|50=30737|52=20030204-08:46:14|935=8|933=0001|10=201|
8=FIX.4.4|9=100|35=BD|49=TESTI|56=TESTA|34=4|50=30737|52=20030204-08:46:14|937=1|932=0001|936=2|930=COMP1|930=COMP2|10=113|
8=FIX.4.4|9=111|35=BD|49=TESTI|56=TESTA|34=4|50=30737|52=20030204-08:46:14|937=2|934=TST934|932=0001|936=2|930=COMP1|930=COMP2|10=237|
8=FIX.4.4|9=104|35=AR|49=TESTI|56=TESTA|34=4|50=30737|97=Y|52=20030204-08:46:14|571=90001008|150=F|939=0|751=0|55=TESTB|10=034|
8=FIX.4.4|9=104|35=AR|49=TESTI|56=TESTA|34=4|50=30737|97=Y|52=20030204-08:46:14|571=90001008|150=F|939=1|751=0|55=TESTB|10=035|
8=FIX.4.4|9=113|35=AU|49=TESTI|56=TESTA|34=4|50=30737|52=20030204-08:46:14|664=0001|60=20060217-10:00:00|75=20060217|940=2|774=1|10=064|
8=FIX.4.4|9=113|35=AU|49=TESTI|56=TESTA|34=4|50=30737|52=20030204-08:46:14|664=0001|60=20060217-10:00:00|75=20060217|940=3|774=1|10=065|
8=FIX.4.4|9=124|35=AY|49=TESTI|56=TESTA|34=4|50=30737|52=20030204-08:46:14|902=0001|895=0|903=0|60=20060217-10:00:00|711=1|311=000311|944=0|10=020|
8=FIX.4.4|9=124|35=AY|49=TESTI|56=TESTA|34=4|50=30737|52=20030204-08:46:14|902=0001|895=0|903=0|60=20060217-10:00:00|711=1|311=000311|944=1|10=021|
8=FIX.4.4|9=124|35=AY|49=TESTI|56=TESTA|34=4|50=30737|52=20030204-08:46:14|902=0001|895=0|903=0|60=20060217-10:00:00|711=1|311=000311|944=2|10=022|
8=FIX.4.4|9=74|35=BG|49=TESTI|56=TESTA|34=4|50=30737|52=20030204-08:46:14|909=0001|945=1|10=202|
8=FIX.4.4|9=74|35=BG|49=TESTI|56=TESTA|34=4|50=30737|52=20030204-08:46:14|909=0001|945=4|10=205|
8=FIX.4.4|9=80|35=BG|49=TESTI|56=TESTA|34=4|50=30737|52=20030204-08:46:14|909=0001|945=0|946=0|10=215|
8=FIX.4.4|9=80|35=BG|49=TESTI|56=TESTA|34=4|50=30737|52=20030204-08:46:14|909=0001|945=0|946=9|10=224|
8=FIX.4.4|9=81|35=BG|49=TESTI|56=TESTA|34=4|50=30737|52=20030204-08:46:14|909=0001|945=0|946=99|10=026|
8=FIX.4.4|9=126|35=8|49=TESTI|56=TESTA|34=114|52=20030203-16:09:30|37=11111111|17=11|39=0|150=0|55=TESTB|54=1|38=1000|151=1000|14=0|6=0|119=0|10=067|
8=FIX.4.4|9=126|35=8|49=TESTI|56=TESTA|34=114|52=20030203-16:09:30|37=11111111|17=11|39=0|150=0|55=TESTB|54=1|38=1000|151=1000|14=0|6=0|119=1|10=068|
8=FIX.4.4|9=127|35=8|49=TESTI|56=TESTA|34=114|52=20030203-16:09:30|37=11111111|17=11|39=0|150=0|55=TESTB|54=1|38=1000|151=1000|14=0|6=0|119=-1|10=114|
8=FIX.4.4|9=128|35=8|49=TESTI|56=TESTA|34=114|52=20030203-16:09:30|37=11111111|17=11|39=0|150=0|55=TESTB|54=1|38=1000|151=1000|14=0|6=0|119=0.1|10=164|
8=FIX.4.4|9=129|35=8|49=TESTI|56=TESTA|34=114|52=20030203-16:09:30|37=11111111|17=11|39=0|150=0|55=TESTB|54=1|38=1000|151=1000|14=0|6=0|119=-0.1|10=210|
8=FIX.4.4|9=127|35=8|49=TESTI|56=TESTA|34=114|52=20030203-16:09:30|37=11111111|17=11|39=0|150=0|55=TESTB|54=1|38=1000|151=1000|14=0|6=0|119=.1|10=115|
8=FIX.4.4|9=128|35=8|49=TESTI|56=TESTA|34=114|52=20030203-16:09:30|37=11111111|17=11|39=0|150=0|55=TESTB|54=1|38=1000|151=1000|14=0|6=0|119=-.1|10=161|
8=FIX.4.4|9=129|35=8|49=TESTI|56=TESTA|34=114|52=20030203-16:09:30|37=11111111|17=11|39=0|150=0|55=TESTB|54=1|38=1000|151=1000|14=0|6=0|119=0.01|10=213|
8=FIX.4.4|9=130|35=8|49=TESTI|56=TESTA|34=114|52=20030203-16:09:30|37=11111111|17=11|39=0|150=0|55=TESTB|54=1|38=1000|151=1000|14=0|6=0|119=-0.01|10=250|
8=FIX.4.4|9=128|35=8|49=TESTI|56=TESTA|34=114|52=20030203-16:09:30|37=11111111|17=11|39=0|150=0|55=TESTB|54=1|38=1000|151=1000|14=0|6=0|119=1.1|10=165|
8=FIX.4.4|9=129|35=8|49=TESTI|56=TESTA|34=114|52=20030203-16:09:30|37=11111111|17=11|39=0|150=0|55=TESTB|54=1|38=1000|151=1000|14=0|6=0|119=-1.1|10=211|
8=FIX.4.4|9=128|35=8|49=TESTI|56=TESTA|34=114|52=20030203-16:09:30|37=11111111|17=11|39=0|150=0|55=TESTB|54=1|38=1000|151=1000|14=0|6=0|119=1.0|10=164|
8=FIX.4.4|9=131|35=8|49=TESTI|56=TESTA|34=114|52=20030203-16:09:30|37=11111111|17=11|39=0|150=0|55=TESTB|54=1|38=1000|151=1000|14=0|6=0|119=1.0000|10=046|
8=FIX.4.4|9=127|35=8|49=TESTI|56=TESTA|34=114|52=20030203-16:09:30|37=11111111|17=11|39=0|150=0|55=TESTB|54=1|38=1000|151=1000|14=0|6=0|119=01|10=117|
8=FIX.4.4|9=129|35=8|49=TESTI|56=TESTA|34=114|52=20030203-16:09:30|37=11111111|17=11|39=0|150=0|55=TESTB|54=1|38=1000|151=1000|14=0|6=0|119=01.1|10=214|
8=FIX.4.4|9=130|35=8|49=TESTI|56=TESTA|34=114|52=20030203-16:09:30|37=11111111|17=11|39=0|150=0|55=TESTB|54=1|38=1000|151=1000|14=0|6=0|119=00.01|10=253|
8=FIX.4.4|9=138|35=8|49=TESTI|56=TESTA|34=114|52=20030203-16:09:30|37=11111111|17=11|39=0|150=0|55=TESTB|54=1|38=1000|151=1000|14=0|6=0|119=1000000000000|10=135|
8=FIX.4.4|9=139|35=8|49=TESTI|56=TESTA|34=114|52=20030203-16:09:30|37=11111111|17=11|39=0|150=0|55=TESTB|54=1|38=1000|151=1000|14=0|6=0|119=-1000000000000|10=181|
8=FIX.4.4|9=140|35=8|49=TESTI|56=TESTA|34=114|52=20030203-16:09:30|37=11111111|17=11|39=0|150=0|55=TESTB|54=1|38=1000|151=1000|14=0|6=0|119=0.0000000000001|10=222|
8=FIX.4.4|9=141|35=8|49=TESTI|56=TESTA|34=114|52=20030203-16:09:30|37=11111111|17=11|39=0|150=0|55=TESTB|54=1|38=1000|151=1000|14=0|6=0|119=-0.0000000000001|10=012|
8=FIX.4.4|9=143|35=AS|49=TESTI|56=TESTA|34=4|50=30737|97=Y|52=20030204-08:46:14|755=0001|71=0|794=5|87=0|857=0|54=2|55=TESTB|53=10000|6=10.5|75=20060217|700=Y|10=015|
8=FIX.4.4|9=143|35=AS|49=TESTI|56=TESTA|34=4|50=30737|97=Y|52=20030204-08:46:14|755=0001|71=0|794=5|87=0|857=0|54=2|55=TESTB|53=10000|6=10.5|75=20060217|700=N|10=004|
8=FIX.4.4|9=137|35=AS|49=TESTI|56=TESTA|34=4|50=30737|97=Y|52=20030204-08:46:14|755=0001|71=0|794=5|87=0|857=0|54=2|55=TESTB|53=10000|6=10.5|75=20060217|10=228|
8=FIX.4.4|9=137|35=AS|49=TESTI|56=TESTA|34=4|50=30737|97=N|52=20030204-08:46:14|755=0001|71=0|794=5|87=0|857=0|54=2|55=TESTB|53=10000|6=10.5|75=20060217|10=217|
8=FIX.4.4|9=90|35=7|49=TESTI|56=TESTA|34=31|52=20030203-16:02:35|2=20|5=R|3=0003|55=TESTB|4=B|53=1000000|10=230|
8=FIX.4.4|9=90|35=7|49=TESTI|56=TESTA|34=31|52=20030203-16:02:35|2=20|5=R|3=0003|55=TESTB|4=X|53=1000000|10=252|
8=FIX.4.4|9=105|35=6|49=TESTI|56=TESTA|34=121|52=20030203-16:10:01|23=24|28=N|55=TESTB|54=1|27=S|711=1|311=000311|592=UA|10=009|
8=FIX.4.4|9=105|35=6|49=TESTI|56=TESTA|34=121|52=20030203-16:10:01|23=24|28=N|55=TESTB|54=1|27=S|711=1|311=000311|592=AF|10=250|
8=FIX.4.4|9=105|35=6|49=TESTI|56=TESTA|34=121|52=20030203-16:10:01|23=24|28=N|55=TESTB|54=1|27=S|711=1|311=000311|592=ZW|10=036|
8=FIX.4.4|9=90|35=7|49=TESTI|56=TESTA|34=31|52=20030203-16:02:35|2=20|5=N|55=TESTB|4=T|53=1000000|15=UAH|10=066|
8=FIX.4.4|9=90|35=7|49=TESTI|56=TESTA|34=31|52=20030203-16:02:35|2=20|5=N|55=TESTB|4=T|53=1000000|15=AFA|10=044|
8=FIX.4.4|9=90|35=7|49=TESTI|56=TESTA|34=31|52=20030203-16:02:35|2=20|5=N|55=TESTB|4=T|53=1000000|15=XXX|10=108|
8=FIX.4.4|9=90|35=7|49=TESTI|56=TESTA|34=31|52=20030203-16:02:35|2=20|5=N|55=TESTB|4=T|53=1000000|15=999|10=015|
8=FIX.4.4|9=126|35=8|49=TESTI|56=TESTA|34=114|52=20030203-16:09:30|37=11111111|17=11|39=0|150=0|55=TESTB|54=1|38=1000|151=1000|14=0|6=0|211=0|10=060|
8=FIX.4.4|9=126|35=8|49=TESTI|56=TESTA|34=114|52=20030203-16:09:30|37=11111111|17=11|39=0|150=0|55=TESTB|54=1|38=1000|151=1000|14=0|6=0|211=1|10=061|
8=FIX.4.4|9=127|35=8|49=TESTI|56=TESTA|34=114|52=20030203-16:09:30|37=11111111|17=11|39=0|150=0|55=TESTB|54=1|38=1000|151=1000|14=0|6=0|211=-1|10=107|
8=FIX.4.4|9=128|35=8|49=TESTI|56=TESTA|34=114|52=20030203-16:09:30|37=11111111|17=11|39=0|150=0|55=TESTB|54=1|38=1000|151=1000|14=0|6=0|211=0.1|10=157|
8=FIX.4.4|9=129|35=8|49=TESTI|56=TESTA|34=114|52=20030203-16:09:30|37=11111111|17=11|39=0|150=0|55=TESTB|54=1|38=1000|151=1000|14=0|6=0|211=-0.1|10=203|
8=FIX.4.4|9=127|35=8|49=TESTI|56=TESTA|34=114|52=20030203-16:09:30|37=11111111|17=11|39=0|150=0|55=TESTB|54=1|38=1000|151=1000|14=0|6=0|211=.1|10=108|
8=FIX.4.4|9=128|35=8|49=TESTI|56=TESTA|34=114|52=20030203-16:09:30|37=11111111|17=11|39=0|150=0|55=TESTB|54=1|38=1000|151=1000|14=0|6=0|211=-.1|10=154|
8=FIX.4.4|9=129|35=8|49=TESTI|56=TESTA|34=114|52=20030203-16:09:30|37=11111111|17=11|39=0|150=0|55=TESTB|54=1|38=1000|151=1000|14=0|6=0|211=0.01|10=206|
8=FIX.4.4|9=130|35=8|49=TESTI|56=TESTA|34=114|52=20030203-16:09:30|37=11111111|17=11|39=0|150=0|55=TESTB|54=1|38=1000|151=1000|14=0|6=0|211=-0.01|10=243|
8=FIX.4.4|9=128|35=8|49=TESTI|56=TESTA|34=114|52=20030203-16:09:30|37=11111111|17=11|39=0|150=0|55=TESTB|54=1|38=1000|151=1000|14=0|6=0|211=1.1|10=158|
8=FIX.4.4|9=129|35=8|49=TESTI|56=TESTA|34=114|52=20030203-16:09:30|37=11111111|17=11|39=0|150=0|55=TESTB|54=1|38=1000|151=1000|14=0|6=0|211=-1.1|10=204|
8=FIX.4.4|9=128|35=8|49=TESTI|56=TESTA|34=114|52=20030203-16:09:30|37=11111111|17=11|39=0|150=0|55=TESTB|54=1|38=1000|151=1000|14=0|6=0|211=1.0|10=157|
8=FIX.4.4|9=131|35=8|49=TESTI|56=TESTA|34=114|52=20030203-16:09:30|37=11111111|17=11|39=0|150=0|55=TESTB|54=1|38=1000|151=1000|14=0|6=0|211=1.0000|10=039|
8=FIX.4.4|9=127|35=8|49=TESTI|56=TESTA|34=114|52=20030203-16:09:30|37=11111111|17=11|39=0|150=0|55=TESTB|54=1|38=1000|151=1000|14=0|6=0|211=01|10=110|
8=FIX.4.4|9=129|35=8|49=TESTI|56=TESTA|34=114|52=20030203-16:09:30|37=11111111|17=11|39=0|150=0|55=TESTB|54=1|38=1000|151=1000|14=0|6=0|211=01.1|10=207|
8=FIX.4.4|9=130|35=8|49=TESTI|56=TESTA|34=114|52=20030203-16:09:30|37=11111111|17=11|39=0|150=0|55=TESTB|54=1|38=1000|151=1000|14=0|6=0|211=00.01|10=246|
8=FIX.4.4|9=138|35=8|49=TESTI|56=TESTA|34=114|52=20030203-16:09:30|37=11111111|17=11|39=0|150=0|55=TESTB|54=1|38=1000|151=1000|14=0|6=0|211=1000000000000|10=128|
8=FIX.4.4|9=139|35=8|49=TESTI|56=TESTA|34=114|52=20030203-16:09:30|37=11111111|17=11|39=0|150=0|55=TESTB|54=1|38=1000|151=1000|14=0|6=0|211=-1000000000000|10=174|
8=FIX.4.4|9=140|35=8|49=TESTI|56=TESTA|34=114|52=20030203-16:09:30|37=11111111|17=11|39=0|150=0|55=TESTB|54=1|38=1000|151=1000|14=0|6=0|211=0.0000000000001|10=215|
8=FIX.4.4|9=141|35=8|49=TESTI|56=TESTA|34=114|52=20030203-16:09:30|37=11111111|17=11|39=0|150=0|55=TESTB|54=1|38=1000|151=1000|14=0|6=0|211=-0.0000000000001|10=005|
8=FIX.4.4|9=105|35=X|49=TESTI|56=TESTA|34=1|52=20030204-09:25:43|268=2|279=1|280=0001|55=COMP1|270=10|279=1|280=0002|55=COMP2|270=11|287=0|10=077|
8=FIX.4.4|9=105|35=X|49=TESTI|56=TESTA|34=1|52=20030204-09:25:43|268=2|279=1|280=0001|55=COMP1|270=10|279=1|280=0002|55=COMP2|270=11|287=1|10=078|
8=FIX.4.4|9=106|35=X|49=TESTI|56=TESTA|34=1|52=20030204-09:25:43|268=2|279=1|280=0001|55=COMP1|270=10|279=1|280=0002|55=COMP2|270=11|287=-1|10=124|
8=FIX.4.4|9=106|35=X|49=TESTI|56=TESTA|34=1|52=20030204-09:25:43|268=2|279=1|280=0001|55=COMP1|270=10|279=1|280=0002|55=COMP2|270=11|287=01|10=127|
8=FIX.4.4|9=117|35=X|49=TESTI|56=TESTA|34=1|52=20030204-09:25:43|268=2|279=1|280=0001|55=COMP1|270=10|279=1|280=0002|55=COMP2|270=11|287=1000000000000|10=145|
8=FIX.4.4|9=118|35=X|49=TESTI|56=TESTA|34=1|52=20030204-09:25:43|268=2|279=1|280=0001|55=COMP1|270=10|279=1|280=0002|55=COMP2|270=11|287=-1000000000000|10=191|
8=FIX.4.4|9=96|35=7|49=TESTI|56=TESTA|34=31|52=20030203-16:02:35|2=20|5=N|55=TESTB|4=T|53=1000000|354=2|355=|10=075|
8=FIX.4.4|9=211|35=AK|49=TESTI|56=TESTA|34=4|50=30737|52=20030204-08:46:14|664=0001|666=0|773=1|665=4|60=20060217-10:00:00|75=20060217|55=TESTA|80=1000|54=1|862=2|528=A|863=400|528=P|863=600|79=KTierney|6=20|381=20000|118=2000|10=010|
8=FIX.4.4|9=127|35=V|49=TESTI|56=TESTA|34=14|52=20030204-09:25:43|262=11223|263=0|264=0|267=2|269=0|269=1|146=2|55=TESTA|55=TESTB|200=20081111|10=108|
8=FIX.4.4|9=127|35=V|49=TESTI|56=TESTA|34=14|52=20030204-09:25:43|262=11223|263=0|264=0|267=2|269=0|269=1|146=2|55=TESTA|55=TESTB|200=200811w1|10=178|
8=FIX.4.4|9=127|35=V|49=TESTI|56=TESTA|34=14|52=20030204-09:25:43|262=11223|263=0|264=0|267=2|269=0|269=1|146=2|55=TESTA|55=TESTB|200=200811w2|10=179|
8=FIX.4.4|9=127|35=V|49=TESTI|56=TESTA|34=14|52=20030204-09:25:43|262=11223|263=0|264=0|267=2|269=0|269=1|146=2|55=TESTA|55=TESTB|200=200811w3|10=180|
8=FIX.4.4|9=127|35=V|49=TESTI|56=TESTA|34=14|52=20030204-09:25:43|262=11223|263=0|264=0|267=2|269=0|269=1|146=2|55=TESTA|55=TESTB|200=200811w4|10=181|
8=FIX.4.4|9=127|35=V|49=TESTI|56=TESTA|34=14|52=20030204-09:25:43|262=11223|263=0|264=0|267=2|269=0|269=1|146=2|55=TESTA|55=TESTB|200=200811w5|10=182|
8=FIX.4.4|9=182|35=s|49=TESTI|56=TESTA|34=4|50=30737|97=Y|52=20030204-08:46:14|548=90001008|549=1|550=0|552=2|54=1|11=B101010|38=4000|54=2|11=S101010|38=5000|55=TESTA|60=20060217-10:00:00|40=1|18=0|10=065|
8=FIX.4.4|9=184|35=s|49=TESTI|56=TESTA|34=4|50=30737|97=Y|52=20030204-08:46:14|548=90001008|549=1|550=0|552=2|54=1|11=B101010|38=4000|54=2|11=S101010|38=5000|55=TESTA|60=20060217-10:00:00|40=1|18=9 A|10=173|
8=FIX.4.4|9=186|35=s|49=TESTI|56=TESTA|34=4|50=30737|97=Y|52=20030204-08:46:14|548=90001008|549=1|550=0|552=2|54=1|11=B101010|38=4000|54=2|11=S101010|38=5000|55=TESTA|60=20060217-10:00:00|40=1|18=Z a e|10=117|
8=FIX.4.4|9=172|35=u|49=TESTI|56=TESTA|34=4|50=30737|97=Y|52=20030204-08:46:14|548=42444008|551=30001008|549=1|550=0|552=1|54=1|11=B202020|41=B101010|38=4000|55=TESTA|60=20060217-10:00:00|10=178|
8=FIX.4.4|9=207|35=u|49=TESTI|56=TESTA|34=4|50=30737|97=Y|52=20030204-08:46:14|548=42444008|551=30001008|549=1|550=0|552=2|54=1|11=B202020|41=B101010|38=4000|54=2|11=S202020|41=S101010|38=5000|55=TESTA|60=20060217-10:00:00|10=043|
8=FIX.4.4|9=217|35=AK|49=TESTI|56=TESTA|34=4|50=30737|52=20030204-08:46:14|664=0001|666=0|773=1|665=4|60=20060217-10:00:00|75=20060217|55=TESTA|80=1000|54=1|862=2|528=A|863=400|528=P|863=600|79=KTierney|6=20|381=20000|118=2000|158=0|10=028|
8=FIX.4.4|9=217|35=AK|49=TESTI|56=TESTA|34=4|50=30737|52=20030204-08:46:14|664=0001|666=0|773=1|665=4|60=20060217-10:00:00|75=20060217|55=TESTA|80=1000|54=1|862=2|528=A|863=400|528=P|863=600|79=KTierney|6=20|381=20000|118=2000|158=1|10=029|
8=FIX.4.4|9=218|35=AK|49=TESTI|56=TESTA|34=4|50=30737|52=20030204-08:46:14|664=0001|666=0|773=1|665=4|60=20060217-10:00:00|75=20060217|55=TESTA|80=1000|54=1|862=2|528=A|863=400|528=P|863=600|79=KTierney|6=20|381=20000|118=2000|158=-1|10=075|
8=FIX.4.4|9=219|35=AK|49=TESTI|56=TESTA|34=4|50=30737|52=20030204-08:46:14|664=0001|666=0|773=1|665=4|60=20060217-10:00:00|75=20060217|55=TESTA|80=1000|54=1|862=2|528=A|863=400|528=P|863=600|79=KTierney|6=20|381=20000|118=2000|158=0.1|10=125|
8=FIX.4.4|9=220|35=AK|49=TESTI|56=TESTA|34=4|50=30737|52=20030204-08:46:14|664=0001|666=0|773=1|665=4|60=20060217-10:00:00|75=20060217|55=TESTA|80=1000|54=1|862=2|528=A|863=400|528=P|863=600|79=KTierney|6=20|381=20000|118=2000|158=-0.1|10=162|
8=FIX.4.4|9=218|35=AK|49=TESTI|56=TESTA|34=4|50=30737|52=20030204-08:46:14|664=0001|666=0|773=1|665=4|60=20060217-10:00:00|75=20060217|55=TESTA|80=1000|54=1|862=2|528=A|863=400|528=P|863=600|79=KTierney|6=20|381=20000|118=2000|158=.1|10=076|
8=FIX.4.4|9=219|35=AK|49=TESTI|56=TESTA|34=4|50=30737|52=20030204-08:46:14|664=0001|666=0|773=1|665=4|60=20060217-10:00:00|75=20060217|55=TESTA|80=1000|54=1|862=2|528=A|863=400|528=P|863=600|79=KTierney|6=20|381=20000|118=2000|158=-.1|10=122|
8=FIX.4.4|9=220|35=AK|49=TESTI|56=TESTA|34=4|50=30737|52=20030204-08:46:14|664=0001|666=0|773=1|665=4|60=20060217-10:00:00|75=20060217|55=TESTA|80=1000|54=1|862=2|528=A|863=400|528=P|863=600|79=KTierney|6=20|381=20000|118=2000|158=0.01|10=165|
8=FIX.4.4|9=221|35=AK|49=TESTI|56=TESTA|34=4|50=30737|52=20030204-08:46:14|664=0001|666=0|773=1|665=4|60=20060217-10:00:00|75=20060217|55=TESTA|80=1000|54=1|862=2|528=A|863=400|528=P|863=600|79=KTierney|6=20|381=20000|118=2000|158=-0.01|10=211|
8=FIX.4.4|9=219|35=AK|49=TESTI|56=TESTA|34=4|50=30737|52=20030204-08:46:14|664=0001|666=0|773=1|665=4|60=20060217-10:00:00|75=20060217|55=TESTA|80=1000|54=1|862=2|528=A|863=400|528=P|863=600|79=KTierney|6=20|381=20000|118=2000|158=1.1|10=126|
8=FIX.4.4|9=220|35=AK|49=TESTI|56=TESTA|34=4|50=30737|52=20030204-08:46:14|664=0001|666=0|773=1|665=4|60=20060217-10:00:00|75=20060217|55=TESTA|80=1000|54=1|862=2|528=A|863=400|528=P|863=600|79=KTierney|6=20|381=20000|118=2000|158=-1.1|10=163|
