8=FIX.4.3|9=82|35=7|49=TESTI|56=TESTA|34=1|52=20030203-16:02:35|2=20|5=N|55=TESTB|4=B|53=1000000|10=123|
8=FIX.4.3|9=82|35=7|49=TESTI|56=TESTA|34=1|52=20030203-16:02:35|2=20|5=N|55=TESTB|4=X|53=1000000|10=145|
8=FIX.4.3|9=82|35=7|49=TESTI|56=TESTA|34=1|52=20030203-16:02:35|2=20|5=N|55=TESTB|4=T|53=1000000|10=141|
8=FIX.4.3|9=89|35=7|49=TESTI|56=TESTA|34=1|52=20030203-16:02:35|2=20|5=C|3=TST3|55=TESTB|4=T|53=1000000|10=040|
8=FIX.4.3|9=89|35=7|49=TESTI|56=TESTA|34=1|52=20030203-16:02:35|2=20|5=R|3=TST3|55=TESTB|4=T|53=1000000|10=055|
8=FIX.4.3|9=91|35=AI|49=TESTI|56=TESTA|34=1|50=30737|52=20030204-08:46:14|117=0001|55=TESTA|132=10.5|13=1|10=064|
8=FIX.4.3|9=91|35=AI|49=TESTI|56=TESTA|34=1|50=30737|52=20030204-08:46:14|117=0001|55=TESTA|132=10.5|13=3|10=066|
8=FIX.4.3|9=187|35=s|49=TESTI|56=TESTA|34=1|50=30737|97=Y|52=20030204-08:46:14|548=90001008|549=1|550=0|552=2|54=1|11=B101010|38=4000|54=2|11=S101010|38=5000|55=TESTA|21=1|60=20060217-10:00:00|40=1|18=0|10=020|
8=FIX.4.3|9=187|35=s|49=TESTI|56=TESTA|34=1|50=30737|97=Y|52=20030204-08:46:14|548=90001008|549=1|550=0|552=2|54=1|11=B101010|38=4000|54=2|11=S101010|38=5000|55=TESTA|21=1|60=20060217-10:00:00|40=1|18=9|10=029|
8=FIX.4.3|9=187|35=s|49=TESTI|56=TESTA|34=1|50=30737|97=Y|52=20030204-08:46:14|548=90001008|549=1|550=0|552=2|54=1|11=B101010|38=4000|54=2|11=S101010|38=5000|55=TESTA|21=1|60=20060217-10:00:00|40=1|18=A|10=037|
8=FIX.4.3|9=187|35=s|49=TESTI|56=TESTA|34=1|50=30737|97=Y|52=20030204-08:46:14|548=90001008|549=1|550=0|552=2|54=1|11=B101010|38=4000|54=2|11=S101010|38=5000|55=TESTA|21=1|60=20060217-10:00:00|40=1|18=S|10=055|
8=FIX.4.3|9=128|35=D|49=TESTI|56=TESTA|34=1|50=30737|97=Y|52=20030204-08:46:14|11=90001008|21=1|55=TESTB|54=1|60=20060217-10:00:00|38=4000|40=1|10=068|
8=FIX.4.3|9=128|35=D|49=TESTI|56=TESTA|34=1|50=30737|97=Y|52=20030204-08:46:14|11=90001008|21=3|55=TESTB|54=1|60=20060217-10:00:00|38=4000|40=1|10=070|
8=FIX.4.3|9=78|35=e|49=TESTI|56=TESTA|34=1|52=20030204-09:25:43|324=0001|55=TESTB|22=1|263=0|10=235|
8=FIX.4.3|9=78|35=e|49=TESTI|56=TESTA|34=1|52=20030204-09:25:43|324=0001|55=TESTB|22=5|263=0|10=239|
8=FIX.4.3|9=84|35=6|49=TESTI|56=TESTA|34=1|52=20030203-16:10:01|23=24|28=N|55=TESTB|54=1|27=S|25=H|10=244|
8=FIX.4.3|9=84|35=6|49=TESTI|56=TESTA|34=1|52=20030203-16:10:01|23=24|28=N|55=TESTB|54=1|27=S|25=M|10=249|
8=FIX.4.3|9=79|35=6|49=TESTI|56=TESTA|34=1|52=20030203-16:10:01|23=24|28=N|55=TESTB|54=1|27=S|10=011|
8=FIX.4.3|9=88|35=6|49=TESTI|56=TESTA|34=1|52=20030203-16:10:01|23=24|28=C|26=TST26|55=TESTB|54=1|27=S|10=009|
8=FIX.4.3|9=88|35=6|49=TESTI|56=TESTA|34=1|52=20030203-16:10:01|23=24|28=R|26=TST26|55=TESTB|54=1|27=S|10=024|
8=FIX.4.3|9=228|35=J|49=TESTI|56=TESTA|34=1|52=20030204-08:56:41|70=1116226|71=0|626=1|73=2|11=90001008|11=90000008|124=1|32=1000|31=0.31|29=1|54=1|55=TESTB|53=1004000|6=30|75=20030821|78=3|79=1000|80=500000|79=2000|80=400000|79=3000|80=104000|10=206|
8=FIX.4.3|9=228|35=J|49=TESTI|56=TESTA|34=1|52=20030204-08:56:41|70=1116226|71=0|626=1|73=2|11=90001008|11=90000008|124=1|32=1000|31=0.31|29=4|54=1|55=TESTB|53=1004000|6=30|75=20030821|78=3|79=1000|80=500000|79=2000|80=400000|79=3000|80=104000|10=209|
8=FIX.4.3|9=118|35=8|49=TESTI|56=TESTA|34=1|52=20030203-16:09:30|37=11111111|17=11|39=0|150=0|55=TESTB|54=1|38=1000|151=1000|14=0|6=0|10=213|
8=FIX.4.3|9=118|35=8|49=TESTI|56=TESTA|34=1|52=20030203-16:09:30|37=11111111|17=11|39=9|150=0|55=TESTB|54=1|38=1000|151=1000|14=0|6=0|10=222|
8=FIX.4.3|9=118|35=8|49=TESTI|56=TESTA|34=1|52=20030203-16:09:30|37=11111111|17=11|39=A|150=0|55=TESTB|54=1|38=1000|151=1000|14=0|6=0|10=230|
8=FIX.4.3|9=118|35=8|49=TESTI|56=TESTA|34=1|52=20030203-16:09:30|37=11111111|17=11|39=C|150=0|55=TESTB|54=1|38=1000|151=1000|14=0|6=0|10=232|
8=FIX.4.3|9=167|35=AC|49=TESTI|56=TESTA|34=1|50=30737|97=Y|52=20030204-08:46:14|11=90001008|41=93452234|21=2|54=1|55=TESTB|555=2|600=TESTA|600=TESTC|60=20060217-10:00:00|38=4000|40=1|10=134|
8=FIX.4.3|9=167|35=AC|49=TESTI|56=TESTA|34=1|50=30737|97=Y|52=20030204-08:46:14|11=90001008|41=93452234|21=2|54=1|55=TESTB|555=2|600=TESTA|600=TESTC|60=20060217-10:00:00|38=4000|40=9|10=142|
8=FIX.4.3|9=167|35=AC|49=TESTI|56=TESTA|34=1|50=30737|97=Y|52=20030204-08:46:14|11=90001008|41=93452234|21=2|54=1|55=TESTB|555=2|600=TESTA|600=TESTC|60=20060217-10:00:00|38=4000|40=A|10=150|
8=FIX.4.3|9=167|35=AC|49=TESTI|56=TESTA|34=1|50=30737|97=Y|52=20030204-08:46:14|11=90001008|41=93452234|21=2|54=1|55=TESTB|555=2|600=TESTA|600=TESTC|60=20060217-10:00:00|38=4000|40=P|10=165|
8=FIX.4.3|9=118|35=8|49=TESTI|56=TESTA|34=1|52=20030203-16:09:30|37=11111111|17=11|39=0|150=0|55=TESTB|54=1|38=1000|151=1000|14=0|6=0|10=213|
8=FIX.4.3|9=118|35=8|49=TESTI|56=TESTA|34=1|52=20030203-16:09:30|37=11111111|17=11|39=0|150=0|55=TESTB|54=6|38=1000|151=1000|14=0|6=0|10=218|
8=FIX.4.3|9=133|35=D|49=TESTI|56=TESTA|34=1|50=30737|97=Y|52=20030204-08:46:14|11=90001008|21=2|55=TESTB|54=1|60=20060217-10:00:00|38=4000|40=1|59=0|10=029|
8=FIX.4.3|9=146|35=D|49=TESTI|56=TESTA|34=1|50=30737|97=Y|52=20030204-08:46:14|11=90001008|21=2|55=TESTB|54=1|60=20060217-10:00:00|38=4000|40=1|59=6|432=20030205|10=138|
8=FIX.4.3|9=155|35=D|49=TESTI|56=TESTA|34=1|50=30737|97=Y|52=20030204-08:46:14|11=90001008|21=2|55=TESTB|54=1|60=20060217-10:00:00|38=4000|40=1|59=6|126=20030205-10:00:01|10=077|
8=FIX.4.3|9=147|35=B|49=TESTI|56=TESTA|34=1|52=20030203-16:21:17|61=0|148=Weather|33=4|58=In the evening |58=it might be wet |58=and windy.|58= Take your coat on.|10=088|
8=FIX.4.3|9=147|35=B|49=TESTI|56=TESTA|34=1|52=20030203-16:21:17|61=2|148=Weather|33=4|58=In the evening |58=it might be wet |58=and windy.|58= Take your coat on.|10=090|
8=FIX.4.3|9=206|35=J|49=TESTI|56=TESTA|34=1|52=20030204-08:56:41|70=1116226|71=0|626=1|73=2|11=90001008|11=90000008|54=1|55=TESTB|53=1004000|6=30|63=0|75=20030821|78=3|79=1000|80=500000|79=2000|80=400000|79=3000|80=104000|10=249|
8=FIX.4.3|9=206|35=J|49=TESTI|56=TESTA|34=1|52=20030204-08:56:41|70=1116226|71=0|626=1|73=2|11=90001008|11=90000008|54=1|55=TESTB|53=1004000|6=30|63=9|75=20030821|78=3|79=1000|80=500000|79=2000|80=400000|79=3000|80=104000|10=002|
8=FIX.4.3|9=210|35=J|49=TESTI|56=TESTA|34=1|52=20030204-08:56:41|70=1116226|71=1|72=TST72|626=1|73=2|11=90001008|11=90000008|54=1|55=TESTB|53=1004000|6=30|75=20030821|78=3|79=1000|80=500000|79=2000|80=400000|79=3000|80=104000|10=041|
8=FIX.4.3|9=210|35=J|49=TESTI|56=TESTA|34=1|52=20030204-08:56:41|70=1116226|71=2|72=TST72|626=1|73=2|11=90001008|11=90000008|54=1|55=TESTB|53=1004000|6=30|75=20030821|78=3|79=1000|80=500000|79=2000|80=400000|79=3000|80=104000|10=042|
8=FIX.4.3|9=160|35=AB|49=TESTI|56=TESTA|34=1|50=30737|97=Y|52=20030204-08:46:14|11=90001008|21=2|54=1|55=TESTB|555=2|600=TESTA|600=TESTC|60=20060217-10:00:00|38=4000|40=1|77=C|10=042|
8=FIX.4.3|9=160|35=AB|49=TESTI|56=TESTA|34=1|50=30737|97=Y|52=20030204-08:46:14|11=90001008|21=2|54=1|55=TESTB|555=2|600=TESTA|600=TESTC|60=20060217-10:00:00|38=4000|40=1|77=F|10=045|
8=FIX.4.3|9=133|35=D|49=TESTI|56=TESTA|34=1|50=30737|97=Y|52=20030204-08:46:14|11=90001008|21=2|81=0|55=TESTB|54=1|60=20060217-10:00:00|38=4000|40=1|10=024|
8=FIX.4.3|9=133|35=D|49=TESTI|56=TESTA|34=1|50=30737|97=Y|52=20030204-08:46:14|11=90001008|21=2|81=6|55=TESTB|54=1|60=20060217-10:00:00|38=4000|40=1|10=030|
8=FIX.4.3|9=80|35=P|49=TESTI|56=TESTA|34=1|52=20030204-09:17:25|70=3659000001|75=20030808|87=0|10=235|
8=FIX.4.3|9=80|35=P|49=TESTI|56=TESTA|34=1|52=20030204-09:17:25|70=3659000001|75=20030808|87=3|10=238|
8=FIX.4.3|9=85|35=P|49=TESTI|56=TESTA|34=1|52=20030204-09:17:25|70=3659000001|75=20030808|87=1|88=0|10=207|
8=FIX.4.3|9=85|35=P|49=TESTI|56=TESTA|34=1|52=20030204-09:17:25|70=3659000001|75=20030808|87=1|88=3|10=210|
8=FIX.4.3|9=147|35=C|49=TESTI|56=TESTA|34=1|52=20030203-16:20:05|164=111111111|94=1|147=Bunny's Birthday|33=3|58=Hello, Bunny!|58=Happy Birthday to you :)|58=Bye.|10=130|
8=FIX.4.3|9=147|35=C|49=TESTI|56=TESTA|34=1|52=20030203-16:20:05|164=111111111|94=2|147=Bunny's Birthday|33=3|58=Hello, Bunny!|58=Happy Birthday to you :)|58=Bye.|10=131|
8=FIX.4.3|9=95|35=AI|49=TESTI|56=TESTA|34=1|50=30737|52=20030204-08:46:14|117=0001|55=TESTA|132=10.5|100=XABJ|10=101|
8=FIX.4.3|9=95|35=AI|49=TESTI|56=TESTA|34=1|50=30737|52=20030204-08:46:14|117=0001|55=TESTA|132=10.5|100=XZRH|10=140|
8=FIX.4.3|9=108|35=9|49=TESTI|56=TESTA|34=1|52=20030203-16:13:14|37=11111111|11=12121212122|41=11111111111|39=0|434=1|102=0|10=215|
8=FIX.4.3|9=108|35=9|49=TESTI|56=TESTA|34=1|52=20030203-16:13:14|37=11111111|11=12121212122|41=11111111111|39=0|434=1|102=1|10=216|
8=FIX.4.3|9=124|35=8|49=TESTI|56=TESTA|34=1|52=20030203-16:09:30|37=11111111|17=11|39=0|150=8|103=0|55=TESTB|54=1|38=1000|151=1000|14=0|6=0|10=220|
8=FIX.4.3|9=124|35=8|49=TESTI|56=TESTA|34=1|52=20030203-16:09:30|37=11111111|17=11|39=0|150=8|103=4|55=TESTB|54=1|38=1000|151=1000|14=0|6=0|10=224|
8=FIX.4.3|9=91|35=6|49=TESTI|56=TESTA|34=1|52=20030203-16:10:01|23=24|28=N|55=TESTB|54=1|27=S|199=1|104=A|10=043|
8=FIX.4.3|9=91|35=6|49=TESTI|56=TESTA|34=1|52=20030203-16:10:01|23=24|28=N|55=TESTB|54=1|27=S|199=1|104=X|10=066|
8=FIX.4.3|9=124|35=8|49=TESTI|56=TESTA|34=1|52=20030203-16:09:30|37=11111111|17=11|39=0|150=0|55=TESTB|54=1|38=1000|151=1000|14=0|6=0|113=N|10=243|
8=FIX.4.3|9=124|35=8|49=TESTI|56=TESTA|34=1|52=20030203-16:09:30|37=11111111|17=11|39=0|150=0|55=TESTB|54=1|38=1000|151=1000|14=0|6=0|113=Y|10=254|
8=FIX.4.3|9=132|35=G|49=TESTI|56=TESTA|34=1|52=20030204-08:49:18|11=12233345|41=90001008|21=2|55=TESTB|54=1|60=20060117-10:00:00|38=4000|40=1|114=Y|10=002|
8=FIX.4.3|9=132|35=G|49=TESTI|56=TESTA|34=1|52=20030204-08:49:18|11=12233345|41=90001008|21=2|55=TESTB|54=1|60=20060117-10:00:00|38=4000|40=1|114=N|10=247|
8=FIX.4.3|9=134|35=D|49=TESTI|56=TESTA|34=1|50=30737|97=Y|52=20030204-08:46:14|11=90001008|21=2|55=TESTB|54=1|60=20060217-10:00:00|38=4000|40=1|121=N|10=098|
8=FIX.4.3|9=142|35=D|49=TESTI|56=TESTA|34=1|50=30737|97=Y|52=20030204-08:46:14|11=90001008|21=2|55=TESTB|54=1|60=20060217-10:00:00|38=4000|40=1|121=Y|120=JPY|10=048|
8=FIX.4.3|9=95|35=Q|49=TESTI|56=TESTA|34=1|52=20030204-09:28:44|37=01923883|17=11|127=A|55=TESTB|54=1|38=4000|10=022|
8=FIX.4.3|9=95|35=Q|49=TESTI|56=TESTA|34=1|52=20030204-09:28:44|37=01923883|17=11|127=Z|55=TESTB|54=1|38=4000|10=047|
8=FIX.4.3|9=85|35=6|49=TESTI|56=TESTA|34=1|52=20030203-16:10:01|23=24|28=N|55=TESTB|54=1|27=S|130=N|10=040|
8=FIX.4.3|9=85|35=6|49=TESTI|56=TESTA|34=1|52=20030203-16:10:01|23=24|28=N|55=TESTB|54=1|27=S|130=Y|10=051|
8=FIX.4.3|9=243|35=AE|49=TESTI|56=TESTA|34=1|50=30737|97=Y|52=20030204-08:46:14|571=90001008|150=F|570=N|55=TESTA|38=1000|32=1000|31=10.4|75=20060217|60=20060217-10:00:00|552=2|54=1|37=0001|136=1|137=100|138=USD|139=1|54=2|37=0002|136=1|137=100|138=USD|139=2|10=160|
8=FIX.4.3|9=243|35=AE|49=TESTI|56=TESTA|34=1|50=30737|97=Y|52=20030204-08:46:14|571=90001008|150=F|570=N|55=TESTA|38=1000|32=1000|31=10.4|75=20060217|60=20060217-10:00:00|552=2|54=1|37=0001|136=1|137=100|138=USD|139=3|54=2|37=0002|136=1|137=100|138=USD|139=7|10=167|
8=FIX.4.3|9=118|35=8|49=TESTI|56=TESTA|34=1|52=20030203-16:09:30|37=11111111|17=11|39=0|150=3|55=TESTB|54=1|38=1000|151=1000|14=0|6=0|10=216|
8=FIX.4.3|9=118|35=8|49=TESTI|56=TESTA|34=1|52=20030203-16:09:30|37=11111111|17=11|39=0|150=9|55=TESTB|54=1|38=1000|151=1000|14=0|6=0|10=222|
8=FIX.4.3|9=118|35=8|49=TESTI|56=TESTA|34=1|52=20030203-16:09:30|37=11111111|17=11|39=0|150=B|55=TESTB|54=1|38=1000|151=1000|14=0|6=0|10=231|
8=FIX.4.3|9=118|35=8|49=TESTI|56=TESTA|34=1|52=20030203-16:09:30|37=11111111|17=11|39=0|150=I|55=TESTB|54=1|38=1000|151=1000|14=0|6=0|10=238|
8=FIX.4.3|9=110|35=T|49=TESTI|56=TESTA|34=1|52=20030204-09:25:43|162=11223|163=N|160=1|165=1|79=KTierney|60=20060217-10:00:00|10=055|
8=FIX.4.3|9=119|35=T|49=TESTI|56=TESTA|34=1|52=20030204-09:25:43|162=11223|163=N|160=4|165=1|79=KTierney|11=00011|60=20060217-10:00:00|10=213|
8=FIX.4.3|9=122|35=T|49=TESTI|56=TESTA|34=1|52=20030204-09:25:43|162=11223|163=C|214=TEST214|160=0|165=1|79=KTierney|60=20060217-10:00:00|10=218|
8=FIX.4.3|9=122|35=T|49=TESTI|56=TESTA|34=1|52=20030204-09:25:43|162=11223|163=R|214=TEST214|160=0|165=1|79=KTierney|60=20060217-10:00:00|10=233|
8=FIX.4.3|9=110|35=T|49=TESTI|56=TESTA|34=1|52=20030204-09:25:43|162=11223|163=N|160=0|165=1|79=KTierney|60=20060217-10:00:00|10=054|
8=FIX.4.3|9=110|35=T|49=TESTI|56=TESTA|34=1|52=20030204-09:25:43|162=11223|163=N|160=0|165=2|79=KTierney|60=20060217-10:00:00|10=055|
8=FIX.4.3|9=88|35=w|49=TESTI|56=TESTA|34=1|52=20030204-09:25:43|320=11223|322=22115|323=1|558=1|167=CS|10=134|
8=FIX.4.3|9=89|35=w|49=TESTI|56=TESTA|34=1|52=20030204-09:25:43|320=11223|322=22115|323=1|558=1|167=WAR|10=219|
8=FIX.4.3|9=88|35=w|49=TESTI|56=TESTA|34=1|52=20030204-09:25:43|320=11223|322=22115|323=1|558=1|167=MF|10=131|
8=FIX.4.3|9=89|35=w|49=TESTI|56=TESTA|34=1|52=20030204-09:25:43|320=11223|322=22115|323=1|558=1|167=FOR|10=216|
8=FIX.4.3|9=90|35=w|49=TESTI|56=TESTA|34=1|52=20030204-09:25:43|320=11223|322=22115|323=1|558=1|167=FADN|10=002|
8=FIX.4.3|9=92|35=w|49=TESTI|56=TESTA|34=1|52=20030204-09:25:43|320=11223|322=22115|323=1|558=1|167=XLINKD|10=181|
8=FIX.4.3|9=90|35=w|49=TESTI|56=TESTA|34=1|52=20030204-09:25:43|320=11223|322=22115|323=1|558=1|167=POOL|10=035|
8=FIX.4.3|9=91|35=w|49=TESTI|56=TESTA|34=1|52=20030204-09:25:43|320=11223|322=22115|323=1|558=1|167=SPCLA|10=093|
8=FIX.4.3|9=90|35=w|49=TESTI|56=TESTA|34=1|52=20030204-09:25:43|320=11223|322=22115|323=1|558=1|167=USTB|10=039|
8=FIX.4.3|9=93|35=w|49=TESTI|56=TESTA|34=1|52=20030204-09:25:43|320=11223|322=22115|323=1|558=1|167=DEFLTED|10=228|
8=FIX.4.3|9=89|35=w|49=TESTI|56=TESTA|34=1|52=20030204-09:25:43|320=11223|322=22115|323=1|558=1|167=LQN|10=220|
8=FIX.4.3|9=116|35=T|49=TESTI|56=TESTA|34=1|52=20030204-09:25:43|162=11223|163=N|160=0|165=1|79=KTierney|60=20060217-10:00:00|169=0|10=074|
8=FIX.4.3|9=116|35=T|49=TESTI|56=TESTA|34=1|52=20030204-09:25:43|162=11223|163=N|160=0|165=1|79=KTierney|60=20060217-10:00:00|169=3|10=077|
8=FIX.4.3|9=207|35=J|49=TESTI|56=TESTA|34=4|52=20030204-08:56:41|70=1116226|71=0|626=1|197=0|73=2|11=90001008|11=90000008|54=1|55=TESTB|53=1004000|6=30|75=20030821|78=3|79=1000|80=500000|79=2000|80=400000|79=3000|80=104000|10=053|
8=FIX.4.3|9=207|35=J|49=TESTI|56=TESTA|34=4|52=20030204-08:56:41|70=1116226|71=0|626=1|197=1|73=2|11=90001008|11=90000008|54=1|55=TESTB|53=1004000|6=30|75=20030821|78=3|79=1000|80=500000|79=2000|80=400000|79=3000|80=104000|10=054|
8=FIX.4.3|9=134|35=D|49=TESTI|56=TESTA|34=1|50=30737|97=Y|52=20030204-08:46:14|11=90001008|21=2|55=TESTB|54=1|60=20060217-10:00:00|38=4000|40=1|203=0|10=069|
8=FIX.4.3|9=134|35=D|49=TESTI|56=TESTA|34=1|50=30737|97=Y|52=20030204-08:46:14|11=90001008|21=2|55=TESTB|54=1|60=20060217-10:00:00|38=4000|40=1|203=1|10=070|
8=FIX.4.3|9=171|35=J|49=TESTI|56=TESTA|34=1|52=20030204-08:56:41|70=1116226|71=0|626=1|73=2|11=90001008|11=90000008|54=1|55=TESTB|53=1004000|6=30|75=20030821|78=1|79=1000|80=500000|208=Y|10=220|
8=FIX.4.3|9=171|35=J|49=TESTI|56=TESTA|34=1|52=20030204-08:56:41|70=1116226|71=0|626=1|73=2|11=90001008|11=90000008|54=1|55=TESTB|53=1004000|6=30|75=20030821|78=1|79=1000|80=500000|208=N|10=209|
8=FIX.4.3|9=177|35=J|49=TESTI|56=TESTA|34=1|52=20030204-08:56:41|70=1116226|71=0|626=1|73=2|11=90001008|11=90000008|54=1|55=TESTB|53=1004000|6=30|75=20030821|78=1|79=1000|80=500000|208=Y|209=1|10=236|
8=FIX.4.3|9=177|35=J|49=TESTI|56=TESTA|34=1|52=20030204-08:56:41|70=1116226|71=0|626=1|73=2|11=90001008|11=90000008|54=1|55=TESTB|53=1004000|6=30|75=20030821|78=1|79=1000|80=500000|208=Y|209=3|10=238|
8=FIX.4.3|9=166|35=B|49=TESTI|56=TESTA|34=1|52=20030203-16:21:17|148=Weather|215=1|216=1|217=TEST217|33=4|58=In the evening |58=it might be wet |58=and windy.|58= Take your coat on.|10=069|
8=FIX.4.3|9=166|35=B|49=TESTI|56=TESTA|34=1|52=20030203-16:21:17|148=Weather|215=1|216=4|217=TEST217|33=4|58=In the evening |58=it might be wet |58=and windy.|58= Take your coat on.|10=072|
8=FIX.4.3|9=133|35=R|49=TESTI|56=TESTA|34=1|52=20030204-09:25:21|131=1272727|146=2|55=TESTA|218=1|220=USD|221=LIBOR|55=TESTB|218=1|220=USD|221=LIBID|10=013|
8=FIX.4.3|9=141|35=R|49=TESTI|56=TESTA|34=1|52=20030204-09:25:21|131=1272727|146=2|55=TESTA|218=1|220=USD|221=FutureSWAP|55=TESTB|218=1|220=USD|221=Treasury|10=069|
8=FIX.4.3|9=116|35=R|49=TESTI|56=TESTA|34=1|52=20030204-09:25:21|131=1272727|146=2|55=TESTA|232=1|233=GEOG|55=TESTB|232=1|233=ISSUE|10=095|
8=FIX.4.3|9=116|35=R|49=TESTI|56=TESTA|34=1|52=20030204-09:25:21|131=1272727|146=2|55=TESTA|232=1|233=PPM|55=TESTB|232=1|233=TRDVAR|10=116|
8=FIX.4.3|9=114|35=R|49=TESTI|56=TESTA|34=1|52=20030204-09:25:21|131=1272727|146=2|55=TESTA|232=1|233=WALA|55=TESTB|232=1|233=ABS|10=173|
8=FIX.4.3|9=116|35=R|49=TESTI|56=TESTA|34=1|52=20030204-09:25:21|131=1272727|146=2|55=TESTA|232=1|233=HEP|55=TESTB|232=1|233=PIECES|10=074|
8=FIX.4.3|9=234|35=t|49=TESTI|56=TESTA|34=1|50=30737|97=Y|52=20030204-08:46:14|548=42444008|551=30001008|549=1|550=0|552=2|54=1|11=B202020|41=B101010|38=4000|54=2|11=S202020|41=S101010|38=5000|55=TESTA|60=20060217-10:00:00|40=1|235=AFTERTAX|236=0006|10=207|
8=FIX.4.3|9=232|35=t|49=TESTI|56=TESTA|34=1|50=30737|97=Y|52=20030204-08:46:14|548=42444008|551=30001008|549=1|550=0|552=2|54=1|11=B202020|41=B101010|38=4000|54=2|11=S202020|41=S101010|38=5000|55=TESTA|60=20060217-10:00:00|40=1|235=ANNUAL|236=0006|10=045|
8=FIX.4.3|9=237|35=t|49=TESTI|56=TESTA|34=1|50=30737|97=Y|52=20030204-08:46:14|548=42444008|551=30001008|549=1|550=0|552=2|54=1|11=B202020|41=B101010|38=4000|54=2|11=S202020|41=S101010|38=5000|55=TESTA|60=20060217-10:00:00|40=1|235=AVGMATURITY|236=0006|10=208|
8=FIX.4.3|9=230|35=t|49=TESTI|56=TESTA|34=1|50=30737|97=Y|52=20030204-08:46:14|548=42444008|551=30001008|549=1|550=0|552=2|54=1|11=B202020|41=B101010|38=4000|54=2|11=S202020|41=S101010|38=5000|55=TESTA|60=20060217-10:00:00|40=1|235=CALL|236=0006|10=136|
8=FIX.4.3|9=235|35=t|49=TESTI|56=TESTA|34=1|50=30737|97=Y|52=20030204-08:46:14|548=42444008|551=30001008|549=1|550=0|552=2|54=1|11=B202020|41=B101010|38=4000|54=2|11=S202020|41=S101010|38=5000|55=TESTA|60=20060217-10:00:00|40=1|235=INFLATION|236=0006|10=021|
8=FIX.4.3|9=229|35=t|49=TESTI|56=TESTA|34=1|50=30737|97=Y|52=20030204-08:46:14|548=42444008|551=30001008|549=1|550=0|552=2|54=1|11=B202020|41=B101010|38=4000|54=2|11=S202020|41=S101010|38=5000|55=TESTA|60=20060217-10:00:00|40=1|235=PUT|236=0006|10=109|
8=FIX.4.3|9=235|35=t|49=TESTI|56=TESTA|34=1|50=30737|97=Y|52=20030204-08:46:14|548=42444008|551=30001008|549=1|550=0|552=2|54=1|11=B202020|41=B101010|38=4000|54=2|11=S202020|41=S101010|38=5000|55=TESTA|60=20060217-10:00:00|40=1|235=VALUE1/32|236=0006|10=179|
8=FIX.4.3|9=97|35=W|49=TESTI|56=TESTA|34=1|52=20030204-09:25:43|55=TESTA|239=RP|268=2|269=4|270=10|269=5|270=11|10=143|
8=FIX.4.3|9=99|35=W|49=TESTI|56=TESTA|34=1|52=20030204-09:25:43|55=TESTA|239=RVRP|268=2|269=4|270=10|269=5|270=11|10=057|
8=FIX.4.3|9=94|35=z|49=TESTI|56=TESTA|34=1|52=20030204-09:25:43|320=11223|559=4|311=TST311|312=TST312|243=RP|10=130|
8=FIX.4.3|9=96|35=z|49=TESTI|56=TESTA|34=1|52=20030204-09:25:43|320=11223|559=4|311=TST311|312=TST312|243=RVRP|10=044|
8=FIX.4.3|9=171|35=AB|49=TESTI|56=TESTA|34=1|50=30737|97=Y|52=20030204-08:46:14|11=90001008|21=2|54=1|55=TESTB|555=2|600=TESTA|250=RP|600=TESTC|250=RVRP|60=20060217-10:00:00|38=4000|40=1|10=211|
8=FIX.4.3|9=171|35=AB|49=TESTI|56=TESTA|34=1|50=30737|97=Y|52=20030204-08:46:14|11=90001008|21=2|54=1|55=TESTB|555=2|600=TESTA|250=RVRP|600=TESTC|250=RP|60=20060217-10:00:00|38=4000|40=1|10=211|
8=FIX.4.3|9=124|35=8|49=TESTI|56=TESTA|34=1|52=20030203-16:09:30|37=11111111|17=11|39=0|150=0|55=TESTB|54=1|38=1000|151=1000|14=0|6=0|258=Y|10=008|
8=FIX.4.3|9=124|35=8|49=TESTI|56=TESTA|34=1|52=20030203-16:09:30|37=11111111|17=11|39=0|150=0|55=TESTB|54=1|38=1000|151=1000|14=0|6=0|258=N|10=253|
8=FIX.4.3|9=64|35=g|49=TESTI|56=TESTA|34=1|52=20030204-09:25:43|335=0001|263=0|10=237|
8=FIX.4.3|9=64|35=g|49=TESTI|56=TESTA|34=1|52=20030204-09:25:43|335=0001|263=1|10=238|
8=FIX.4.3|9=64|35=g|49=TESTI|56=TESTA|34=1|52=20030204-09:25:43|335=0001|263=2|10=239|
8=FIX.4.3|9=113|35=V|49=TESTI|56=TESTA|34=1|52=20030204-09:25:43|262=11223|263=0|264=0|267=2|269=0|269=1|146=2|55=TESTA|55=TESTB|10=212|
8=FIX.4.3|9=113|35=V|49=TESTI|56=TESTA|34=1|52=20030204-09:25:43|262=11223|263=0|264=1|267=2|269=0|269=1|146=2|55=TESTA|55=TESTB|10=213|
8=FIX.4.3|9=113|35=V|49=TESTI|56=TESTA|34=1|52=20030204-09:25:43|262=11223|263=0|264=2|267=2|269=0|269=1|146=2|55=TESTA|55=TESTB|10=214|
8=FIX.4.3|9=119|35=V|49=TESTI|56=TESTA|34=1|52=20030204-09:25:43|262=11223|263=1|264=0|265=0|267=2|269=0|269=1|146=2|55=TESTA|55=TESTB|10=230|
8=FIX.4.3|9=125|35=V|49=TESTI|56=TESTA|34=1|52=20030204-09:25:43|262=11223|263=1|264=0|265=1|547=Y|267=2|269=0|269=1|146=2|55=TESTA|55=TESTB|10=027|
8=FIX.4.3|9=119|35=V|49=TESTI|56=TESTA|34=1|52=20030204-09:25:43|262=11223|263=0|264=0|266=Y|267=2|269=0|269=1|146=2|55=TESTA|55=TESTB|10=015|
8=FIX.4.3|9=119|35=V|49=TESTI|56=TESTA|34=1|52=20030204-09:25:43|262=11223|263=0|264=0|266=N|267=2|269=0|269=1|146=2|55=TESTA|55=TESTB|10=004|
8=FIX.4.3|9=106|35=W|49=TESTI|56=TESTA|34=1|52=20030204-09:25:43|55=TESTA|268=2|269=0|271=111|270=10|269=1|270=11|271=111|10=006|
8=FIX.4.3|9=90|35=W|49=TESTI|56=TESTA|34=1|52=20030204-09:25:43|55=TESTA|268=2|269=9|270=10|269=A|270=11|10=027|
8=FIX.4.3|9=102|35=W|49=TESTI|56=TESTA|34=1|52=20030204-09:25:43|55=TESTA|268=2|269=4|270=10|274=0|269=5|270=11|274=1|10=075|
8=FIX.4.3|9=102|35=W|49=TESTI|56=TESTA|34=1|52=20030204-09:25:43|55=TESTA|268=2|269=4|270=10|274=2|269=5|270=11|274=3|10=079|
8=FIX.4.3|9=102|35=W|49=TESTI|56=TESTA|34=1|52=20030204-09:25:43|55=TESTA|268=2|269=4|270=10|276=A|269=5|270=11|276=B|10=113|
8=FIX.4.3|9=102|35=W|49=TESTI|56=TESTA|34=1|52=20030204-09:25:43|55=TESTA|268=2|269=4|270=10|276=H|269=5|270=11|276=I|10=127|
8=FIX.4.3|9=111|35=X|49=TESTI|56=TESTA|34=1|52=20030204-09:25:43|268=2|279=1|280=0001|270=10|277=A|279=1|280=0002|270=11|277=B|10=121|
8=FIX.4.3|9=111|35=X|49=TESTI|56=TESTA|34=1|52=20030204-09:25:43|268=2|279=1|280=0001|270=10|277=Q|279=1|280=0002|270=11|277=R|10=153|
8=FIX.4.3|9=99|35=X|49=TESTI|56=TESTA|34=1|52=20030204-09:25:43|268=2|279=1|280=0001|270=10|279=2|280=0002|270=11|10=026|
8=FIX.4.3|9=65|35=Y|49=TESTI|56=TESTA|34=1|52=20030204-09:25:43|262=11223|281=0|10=023|
8=FIX.4.3|9=65|35=Y|49=TESTI|56=TESTA|34=1|52=20030204-09:25:43|262=11223|281=9|10=032|
8=FIX.4.3|9=65|35=Y|49=TESTI|56=TESTA|34=1|52=20030204-09:25:43|262=11223|281=C|10=042|
8=FIX.4.3|9=111|35=X|49=TESTI|56=TESTA|34=1|52=20030204-09:25:43|268=2|279=2|285=0|280=0001|270=10|279=2|285=1|280=0002|270=11|10=087|
8=FIX.4.3|9=111|35=X|49=TESTI|56=TESTA|34=1|52=20030204-09:25:43|268=2|279=2|285=1|280=0001|270=10|279=2|285=0|280=0002|270=11|10=087|
8=FIX.4.3|9=119|35=V|49=TESTI|56=TESTA|34=1|52=20030204-09:25:43|262=11223|263=0|264=0|286=0|267=2|269=4|269=5|146=2|55=TESTA|55=TESTB|10=240|
8=FIX.4.3|9=119|35=V|49=TESTI|56=TESTA|34=1|52=20030204-09:25:43|262=11223|263=0|264=0|286=4|267=2|269=5|269=6|146=2|55=TESTA|55=TESTB|10=246|
8=FIX.4.3|9=64|35=f|49=TESTI|56=TESTA|34=1|52=20030204-09:25:43|55=TESTB|292=A|10=143|
8=FIX.4.3|9=64|35=f|49=TESTI|56=TESTA|34=1|52=20030204-09:25:43|55=TESTB|292=E|10=147|
8=FIX.4.3|9=55|35=b|49=TESTI|56=TESTA|34=1|52=20030204-09:25:43|297=0|10=085|
8=FIX.4.3|9=55|35=b|49=TESTI|56=TESTA|34=1|52=20030204-09:25:43|297=9|10=094|
8=FIX.4.3|9=56|35=b|49=TESTI|56=TESTA|34=1|52=20030204-09:25:43|297=10|10=135|
8=FIX.4.3|9=80|35=Z|49=TESTI|56=TESTA|34=1|52=20030204-09:25:43|117=11223|298=1|295=1|55=TESTB|10=086|
8=FIX.4.3|9=80|35=Z|49=TESTI|56=TESTA|34=1|52=20030204-09:25:43|117=11223|298=3|295=1|55=TESTB|10=088|
8=FIX.4.3|9=61|35=b|49=TESTI|56=TESTA|34=1|52=20030204-09:25:43|297=5|300=1|10=089|
8=FIX.4.3|9=61|35=b|49=TESTI|56=TESTA|34=1|52=20030204-09:25:43|297=5|300=9|10=097|
8=FIX.4.3|9=83|35=S|49=TESTI|56=TESTA|34=1|52=20030204-09:25:43|117=11223|301=0|55=TESTB|133=15.3|10=207|
8=FIX.4.3|9=83|35=S|49=TESTI|56=TESTA|34=1|52=20030204-09:25:43|117=11223|301=0|55=TESTB|133=15.3|10=207|
8=FIX.4.3|9=97|35=R|49=TESTI|56=TESTA|34=1|52=20030204-09:25:21|131=1272727|146=2|55=TESTA|303=1|55=TESTB|303=2|10=223|
8=FIX.4.3|9=97|35=R|49=TESTI|56=TESTA|34=1|52=20030204-09:25:21|131=1272727|146=2|55=TESTA|303=2|55=TESTB|303=1|10=223|
8=FIX.4.3|9=102|35=AA|49=TESTI|56=TESTA|34=1|52=20030204-09:25:43|320=0001|322=0001|560=0|311=TST311|312=TST312|305=1|10=144|
8=FIX.4.3|9=102|35=AA|49=TESTI|56=TESTA|34=1|52=20030204-09:25:43|320=0001|322=0001|560=0|311=TST311|312=TST312|305=9|10=152|
8=FIX.4.3|9=102|35=AA|49=TESTI|56=TESTA|34=1|52=20030204-09:25:43|320=0001|322=0001|560=0|311=TST311|312=TST312|305=A|10=160|
8=FIX.4.3|9=96|35=z|49=TESTI|56=TESTA|34=14|52=20030204-09:25:43|320=11223|559=4|311=TST311|312=TST312|310=PEF|10=236|
8=FIX.4.3|9=97|35=z|49=TESTI|56=TESTA|34=14|52=20030204-09:25:43|320=11223|559=4|311=TST311|312=TST312|310=YANK|10=069|
8=FIX.4.3|9=96|35=z|49=TESTI|56=TESTA|34=14|52=20030204-09:25:43|320=11223|559=4|311=TST311|312=TST312|310=IET|10=243|
8=FIX.4.3|9=97|35=z|49=TESTI|56=TESTA|34=14|52=20030204-09:25:43|320=11223|559=4|311=TST311|312=TST312|310=TAXA|10=064|
8=FIX.4.3|9=97|35=z|49=TESTI|56=TESTA|34=14|52=20030204-09:25:43|320=11223|559=4|311=TST311|312=TST312|310=TINT|10=081|
8=FIX.4.3|9=97|35=z|49=TESTI|56=TESTA|34=14|52=20030204-09:25:43|320=11223|559=4|311=TST311|312=TST312|310=LOFC|10=054|
8=FIX.4.3|9=95|35=z|49=TESTI|56=TESTA|34=14|52=20030204-09:25:43|320=11223|559=4|311=TST311|312=TST312|310=TD|10=168|
8=FIX.4.3|9=64|35=c|49=TESTI|56=TESTA|34=1|52=20030204-09:25:43|320=0001|321=1|10=223|
8=FIX.4.3|9=64|35=c|49=TESTI|56=TESTA|34=1|52=20030204-09:25:43|320=0001|321=3|10=225|
8=FIX.4.3|9=73|35=d|49=TESTI|56=TESTA|34=1|52=20030204-09:25:43|320=0001|322=0001|323=2|10=121|
8=FIX.4.3|9=73|35=d|49=TESTI|56=TESTA|34=1|52=20030204-09:25:43|320=0001|322=0001|323=6|10=125|
8=FIX.4.3|9=74|35=h|49=TESTI|56=TESTA|34=1|52=20030204-08:49:42|336=PRE-OPEN|325=Y|340=2|10=168|
8=FIX.4.3|9=74|35=h|49=TESTI|56=TESTA|34=1|52=20030204-08:49:42|336=PRE-OPEN|325=N|340=2|10=157|
8=FIX.4.3|9=64|35=f|49=TESTI|56=TESTA|34=1|52=20030204-09:25:43|55=TESTB|326=1|10=125|
8=FIX.4.3|9=65|35=f|49=TESTI|56=TESTA|34=1|52=20030204-09:25:43|55=TESTB|326=12|10=176|
8=FIX.4.3|9=65|35=f|49=TESTI|56=TESTA|34=1|52=20030204-09:25:43|55=TESTB|326=23|10=178|
8=FIX.4.3|9=64|35=f|49=TESTI|56=TESTA|34=1|52=20030204-09:25:43|55=TESTB|327=X|10=165|
8=FIX.4.3|9=64|35=f|49=TESTI|56=TESTA|34=1|52=20030204-09:25:43|55=TESTB|327=M|10=154|
8=FIX.4.3|9=64|35=f|49=TESTI|56=TESTA|34=1|52=20030204-09:25:43|55=TESTB|328=Y|10=167|
8=FIX.4.3|9=64|35=f|49=TESTI|56=TESTA|34=1|52=20030204-09:25:43|55=TESTB|328=N|10=156|
8=FIX.4.3|9=64|35=f|49=TESTI|56=TESTA|34=1|52=20030204-09:25:43|55=TESTB|329=Y|10=168|
8=FIX.4.3|9=64|35=f|49=TESTI|56=TESTA|34=1|52=20030204-09:25:43|55=TESTB|329=N|10=157|
8=FIX.4.3|9=64|35=f|49=TESTI|56=TESTA|34=1|52=20030204-09:25:43|55=TESTB|334=1|10=124|
8=FIX.4.3|9=64|35=f|49=TESTI|56=TESTA|34=1|52=20030204-09:25:43|55=TESTB|334=1|10=124|
8=FIX.4.3|9=74|35=h|49=TESTI|56=TESTA|34=1|52=20030204-08:49:42|336=PRE-OPEN|338=1|340=2|10=132|
8=FIX.4.3|9=74|35=h|49=TESTI|56=TESTA|34=1|52=20030204-08:49:42|336=PRE-OPEN|338=3|340=2|10=134|
8=FIX.4.3|9=74|35=h|49=TESTI|56=TESTA|34=1|52=20030204-08:49:42|336=PRE-OPEN|339=1|340=2|10=133|
8=FIX.4.3|9=74|35=h|49=TESTI|56=TESTA|34=1|52=20030204-08:49:42|336=PRE-OPEN|339=3|340=2|10=135|
8=FIX.4.3|9=68|35=h|49=TESTI|56=TESTA|34=1|52=20030204-08:49:42|336=PRE-OPEN|340=1|10=121|
8=FIX.4.3|9=68|35=h|49=TESTI|56=TESTA|34=1|52=20030204-08:49:42|336=PRE-OPEN|340=6|10=126|
8=FIX.4.3|9=147|35=b|49=TESTI|56=TESTA|34=1|52=20030204-09:25:43|297=0|296=1|302=TST302|311=TST311|312=TST312|309=TST309|304=00034|295=1|299=TST299|132=0.32|368=1|10=054|
8=FIX.4.3|9=147|35=b|49=TESTI|56=TESTA|34=1|52=20030204-09:25:43|297=0|296=1|302=TST302|311=TST311|312=TST312|309=TST309|304=00034|295=1|299=TST299|132=0.32|368=9|10=062|
8=FIX.4.3|9=92|35=k|49=TESTI|56=TESTA|34=1|52=20030204-09:07:50|391=20012411|374=N|393=2|394=3|418=A|419=4|10=041|
8=FIX.4.3|9=92|35=k|49=TESTI|56=TESTA|34=1|52=20030204-09:07:50|391=20012411|374=C|393=2|394=3|418=A|419=4|10=030|
8=FIX.4.3|9=132|35=G|49=TESTI|56=TESTA|34=1|52=20030204-08:49:18|11=12233345|41=90001008|21=2|55=TESTB|54=1|60=20060117-10:00:00|38=4000|40=1|377=Y|10=013|
8=FIX.4.3|9=132|35=G|49=TESTI|56=TESTA|34=1|52=20030204-08:49:18|11=12233345|41=90001008|21=2|55=TESTB|54=1|60=20060117-10:00:00|38=4000|40=1|377=N|10=002|
8=FIX.4.3|9=193|35=AE|49=TESTI|56=TESTA|34=1|50=30737|97=Y|52=20030204-08:46:14|571=90001008|150=F|378=0|570=N|55=TESTA|38=1000|32=1000|31=10.4|75=20060217|60=20060217-10:00:00|552=2|54=1|37=0001|54=2|37=0002|10=041|
8=FIX.4.3|9=193|35=AE|49=TESTI|56=TESTA|34=1|50=30737|97=Y|52=20030204-08:46:14|571=90001008|150=F|378=8|570=N|55=TESTA|38=1000|32=1000|31=10.4|75=20060217|60=20060217-10:00:00|552=2|54=1|37=0001|54=2|37=0002|10=049|
8=FIX.4.3|9=61|35=j|49=TESTI|56=TESTA|34=1|52=20030204-08:56:41|372=9|380=1|10=104|
8=FIX.4.3|9=61|35=j|49=TESTI|56=TESTA|34=1|52=20030204-08:56:41|372=9|380=7|10=110|
8=FIX.4.3|9=218|35=t|49=TESTI|56=TESTA|34=1|50=30737|97=Y|52=20030204-08:46:14|548=42444008|551=30001008|549=1|550=0|552=2|54=1|11=B202020|41=B101010|38=4000|54=2|11=S202020|41=S101010|38=5000|55=TESTA|60=20060217-10:00:00|40=1|388=0|10=012|
8=FIX.4.3|9=218|35=t|49=TESTI|56=TESTA|34=1|50=30737|97=Y|52=20030204-08:46:14|548=42444008|551=30001008|549=1|550=0|552=2|54=1|11=B202020|41=B101010|38=4000|54=2|11=S202020|41=S101010|38=5000|55=TESTA|60=20060217-10:00:00|40=1|388=5|10=017|
8=FIX.4.3|9=92|35=k|49=TESTI|56=TESTA|34=1|52=20030204-09:07:50|391=20012411|374=N|393=2|394=1|418=A|419=4|10=039|
8=FIX.4.3|9=92|35=k|49=TESTI|56=TESTA|34=1|52=20030204-09:07:50|391=20012411|374=N|393=2|394=2|418=A|419=4|10=040|
8=FIX.4.3|9=104|35=k|49=TESTI|56=TESTA|34=1|52=20030204-09:07:50|391=20012411|374=N|393=2|394=3|398=1|399=1|418=A|419=4|10=122|
8=FIX.4.3|9=104|35=k|49=TESTI|56=TESTA|34=1|52=20030204-09:07:50|391=20012411|374=N|393=2|394=3|398=1|399=3|418=A|419=4|10=124|
8=FIX.4.3|9=161|35=E|49=TESTI|56=TESTA|34=1|52=20030204-08:18:22|66=20012411|394=3|68=1|73=2|11=1131|67=1|55=TESTB3|54=3|401=1|38=3000|11=1132|67=2|55=TESTB2|54=1|401=2|38=1000|10=033|
8=FIX.4.3|9=161|35=E|49=TESTI|56=TESTA|34=1|52=20030204-08:18:22|66=20012411|394=3|68=1|73=2|11=1131|67=1|55=TESTB3|54=3|401=2|38=3000|11=1132|67=2|55=TESTB2|54=1|401=1|38=1000|10=033|
8=FIX.4.3|9=98|35=k|49=TESTI|56=TESTA|34=1|52=20030204-09:07:50|391=20012411|374=N|393=2|394=3|409=1|418=A|419=4|10=059|
8=FIX.4.3|9=98|35=k|49=TESTI|56=TESTA|34=1|52=20030204-09:07:50|391=20012411|374=N|393=2|394=3|409=4|418=A|419=4|10=062|
8=FIX.4.3|9=98|35=k|49=TESTI|56=TESTA|34=1|52=20030204-09:07:50|391=20012411|374=N|393=2|394=3|411=Y|418=A|419=4|10=092|
8=FIX.4.3|9=98|35=k|49=TESTI|56=TESTA|34=1|52=20030204-09:07:50|391=20012411|374=N|393=2|394=3|411=N|418=A|419=4|10=081|
8=FIX.4.3|9=155|35=E|49=TESTI|56=TESTA|34=1|52=20030204-08:18:22|66=20012411|414=1|394=3|68=1|73=2|11=1131|67=1|55=TESTB3|54=3|38=3000|11=1132|67=2|55=TESTB2|54=1|38=1000|10=035|
8=FIX.4.3|9=155|35=E|49=TESTI|56=TESTA|34=1|52=20030204-08:18:22|66=20012411|414=3|394=3|68=1|73=2|11=1131|67=1|55=TESTB3|54=3|38=3000|11=1132|67=2|55=TESTB2|54=1|38=1000|10=037|
8=FIX.4.3|9=98|35=k|49=TESTI|56=TESTA|34=1|52=20030204-09:07:50|391=20012411|374=N|393=2|394=3|416=1|418=A|419=4|10=057|
8=FIX.4.3|9=98|35=k|49=TESTI|56=TESTA|34=1|52=20030204-09:07:50|391=20012411|374=N|393=2|394=3|416=2|418=A|419=4|10=058|
8=FIX.4.3|9=92|35=k|49=TESTI|56=TESTA|34=1|52=20030204-09:07:50|391=20012411|374=N|393=2|394=3|418=R|419=4|10=058|
8=FIX.4.3|9=92|35=k|49=TESTI|56=TESTA|34=1|52=20030204-09:07:50|391=20012411|374=N|393=2|394=3|418=J|419=4|10=050|
8=FIX.4.3|9=92|35=k|49=TESTI|56=TESTA|34=1|52=20030204-09:07:50|391=20012411|374=N|393=2|394=3|418=A|419=2|10=039|
8=FIX.4.3|9=92|35=k|49=TESTI|56=TESTA|34=1|52=20030204-09:07:50|391=20012411|374=N|393=2|394=3|418=A|419=A|10=054|
8=FIX.4.3|9=92|35=k|49=TESTI|56=TESTA|34=1|52=20030204-09:07:50|391=20012411|374=N|393=2|394=3|418=A|419=Z|10=079|
8=FIX.4.3|9=110|35=AG|49=TESTI|56=TESTA|34=1|50=30737|52=20030204-08:46:14|131=0001|658=1|146=2|55=TESTA|423=1|55=TESTB|423=3|10=080|
8=FIX.4.3|9=110|35=AG|49=TESTI|56=TESTA|34=1|50=30737|52=20030204-08:46:14|131=0001|658=1|146=2|55=TESTA|423=5|55=TESTB|423=8|10=089|
8=FIX.4.3|9=161|35=E|49=TESTI|56=TESTA|34=1|52=20030204-08:18:22|66=20012411|394=3|68=1|73=2|11=1131|67=1|55=TESTB3|54=3|38=3000|427=0|11=1132|67=2|55=TESTB2|54=1|38=1000|427=1|10=047|
8=FIX.4.3|9=161|35=E|49=TESTI|56=TESTA|34=1|52=20030204-08:18:22|66=20012411|394=3|68=1|73=2|11=1131|67=1|55=TESTB3|54=3|38=3000|427=1|11=1132|67=2|55=TESTB2|54=1|38=1000|427=2|10=049|
8=FIX.4.3|9=218|35=N|49=TESTI|56=TESTA|34=1|52=20030204-09:08:23|66=20012411|429=2|82=3|431=3|83=1|68=5|73=3|11=1111|14=11|39=1|151=89|84=0|6=12|11=1121|14=1000|39=1|151=500|84=1000|6=2.28|11=1131|14=2500|39=1|151=500|84=1500|6=34.11|10=001|
8=FIX.4.3|9=218|35=N|49=TESTI|56=TESTA|34=1|52=20030204-09:08:23|66=20012411|429=6|82=3|431=3|83=1|68=5|73=3|11=1111|14=11|39=1|151=89|84=0|6=12|11=1121|14=1000|39=1|151=500|84=1000|6=2.28|11=1131|14=2500|39=1|151=500|84=1500|6=34.11|10=005|
8=FIX.4.3|9=84|35=l|49=TESTI|56=TESTA|34=1|52=20030204-09:07:50|420=2|12=5|13=1|12=0.07|13=2|430=1|10=062|
8=FIX.4.3|9=84|35=l|49=TESTI|56=TESTA|34=1|52=20030204-09:07:50|420=2|12=5|13=1|12=0.07|13=2|430=2|10=063|
8=FIX.4.3|9=218|35=N|49=TESTI|56=TESTA|34=1|52=20030204-09:08:23|66=20012411|429=1|82=3|431=1|83=1|68=5|73=3|11=1111|14=11|39=1|151=89|84=0|6=12|11=1121|14=1000|39=1|151=500|84=1000|6=2.28|11=1131|14=2500|39=1|151=500|84=1500|6=34.11|10=254|
8=FIX.4.3|9=218|35=N|49=TESTI|56=TESTA|34=1|52=20030204-09:08:23|66=20012411|429=1|82=3|431=7|83=1|68=5|73=3|11=1111|14=11|39=1|151=89|84=0|6=12|11=1121|14=1000|39=1|151=500|84=1000|6=2.28|11=1131|14=2500|39=1|151=500|84=1500|6=34.11|10=004|
8=FIX.4.3|9=155|35=E|49=TESTI|56=TESTA|34=1|52=20030204-08:18:22|66=20012411|394=3|433=1|68=1|73=2|11=1131|67=1|55=TESTB3|54=3|38=3000|11=1132|67=2|55=TESTB2|54=1|38=1000|10=036|
8=FIX.4.3|9=155|35=E|49=TESTI|56=TESTA|34=1|52=20030204-08:18:22|66=20012411|394=3|433=5|68=1|73=2|11=1131|67=1|55=TESTB3|54=3|38=3000|11=1132|67=2|55=TESTB2|54=1|38=1000|10=040|
8=FIX.4.3|9=102|35=9|49=TESTI|56=TESTA|34=1|52=20030203-16:13:14|37=11111111|11=12121212122|41=11111111111|39=0|434=1|10=208|
8=FIX.4.3|9=102|35=9|49=TESTI|56=TESTA|34=1|52=20030203-16:13:14|37=11111111|11=12121212122|41=11111111111|39=0|434=2|10=209|
8=FIX.4.3|9=199|35=AE|49=TESTI|56=TESTA|34=1|50=30737|97=Y|52=20030204-08:46:14|571=90001008|150=F|570=N|55=TESTA|38=1000|32=1000|31=10.4|75=20060217|60=20060217-10:00:00|552=2|54=1|37=0001|442=1|54=2|37=0002|442=2|10=050|
8=FIX.4.3|9=199|35=AE|49=TESTI|56=TESTA|34=1|50=30737|97=Y|52=20030204-08:46:14|571=90001008|150=F|570=N|55=TESTA|38=1000|32=1000|31=10.4|75=20060217|60=20060217-10:00:00|552=2|54=1|37=0001|442=2|54=2|37=0002|442=3|10=052|
8=FIX.4.3|9=104|35=H|49=TESTI|56=TESTA|34=1|52=20030204-08:49:42|11=90001008|453=1|448=TST448|447=1|452=3|55=TESTB|54=1|10=044|
8=FIX.4.3|9=104|35=H|49=TESTI|56=TESTA|34=1|52=20030204-08:49:42|11=90001008|453=1|448=TST448|447=9|452=3|55=TESTB|54=1|10=052|
8=FIX.4.3|9=104|35=H|49=TESTI|56=TESTA|34=1|52=20030204-08:49:42|11=90001008|453=1|448=TST448|447=A|452=3|55=TESTB|54=1|10=060|
8=FIX.4.3|9=104|35=H|49=TESTI|56=TESTA|34=1|52=20030204-08:49:42|11=90001008|453=1|448=TST448|447=E|452=3|55=TESTB|54=1|10=064|
8=FIX.4.3|9=104|35=H|49=TESTI|56=TESTA|34=1|52=20030204-08:49:42|11=90001008|453=1|448=TST448|447=A|452=1|55=TESTB|54=1|10=058|
8=FIX.4.3|9=104|35=H|49=TESTI|56=TESTA|34=1|52=20030204-08:49:42|11=90001008|453=1|448=TST448|447=A|452=9|55=TESTB|54=1|10=066|
8=FIX.4.3|9=105|35=H|49=TESTI|56=TESTA|34=1|52=20030204-08:49:42|11=90001008|453=1|448=TST448|447=A|452=10|55=TESTB|54=1|10=107|
8=FIX.4.3|9=105|35=H|49=TESTI|56=TESTA|34=1|52=20030204-08:49:42|11=90001008|453=1|448=TST448|447=A|452=20|55=TESTB|54=1|10=108|
8=FIX.4.3|9=210|35=AE|49=TESTI|56=TESTA|34=1|50=30737|97=Y|52=20030204-08:46:14|571=90001008|150=F|570=N|55=TESTA|38=1000|454=1|455=TST455|456=1|32=1000|31=10.4|75=20060217|60=20060217-10:00:00|552=2|54=1|37=0001|54=2|37=0002|10=158|
8=FIX.4.3|9=210|35=AE|49=TESTI|56=TESTA|34=1|50=30737|97=Y|52=20030204-08:46:14|571=90001008|150=F|570=N|55=TESTA|38=1000|454=1|455=TST455|456=9|32=1000|31=10.4|75=20060217|60=20060217-10:00:00|552=2|54=1|37=0001|54=2|37=0002|10=166|
8=FIX.4.3|9=210|35=AE|49=TESTI|56=TESTA|34=1|50=30737|97=Y|52=20030204-08:46:14|571=90001008|150=F|570=N|55=TESTA|38=1000|454=1|455=TST455|456=A|32=1000|31=10.4|75=20060217|60=20060217-10:00:00|552=2|54=1|37=0001|54=2|37=0002|10=174|
8=FIX.4.3|9=134|35=AF|49=TESTI|56=TESTA|34=1|50=30737|97=Y|52=20030204-08:46:14|584=0001|585=1|311=TST311|312=TST312|309=TST309|457=1|458=SEDOL|459=1|10=166|
8=FIX.4.3|9=134|35=AF|49=TESTI|56=TESTA|34=1|50=30737|97=Y|52=20030204-08:46:14|584=0001|585=1|311=TST311|312=TST312|309=TST309|457=1|458=SEDOL|459=9|10=174|
8=FIX.4.3|9=134|35=AF|49=TESTI|56=TESTA|34=1|50=30737|97=Y|52=20030204-08:46:14|584=0001|585=1|311=TST311|312=TST312|309=TST309|457=1|458=SEDOL|459=A|10=182|
8=FIX.4.3|9=94|35=w|49=TESTI|56=TESTA|34=1|52=20030204-09:25:43|320=11223|322=22115|323=1|558=1|167=PS|460=1|10=153|
8=FIX.4.3|9=94|35=w|49=TESTI|56=TESTA|34=1|52=20030204-09:25:43|320=11223|322=22115|323=1|558=1|167=PS|460=9|10=161|
8=FIX.4.3|9=95|35=w|49=TESTI|56=TESTA|34=1|52=20030204-09:25:43|320=11223|322=22115|323=1|558=1|167=PS|460=12|10=204|
8=FIX.4.3|9=111|35=r|49=TESTI|56=TESTA|34=1|52=20030204-09:25:43|37=4511223|530=7|531=7|311=TST311|312=TST312|309=TST309|462=1|10=231|
8=FIX.4.3|9=111|35=r|49=TESTI|56=TESTA|34=1|52=20030204-09:25:43|37=4511223|530=7|531=7|311=TST311|312=TST312|309=TST309|462=9|10=239|
8=FIX.4.3|9=112|35=r|49=TESTI|56=TESTA|34=1|52=20030204-09:25:43|37=4511223|530=7|531=7|311=TST311|312=TST312|309=TST309|462=12|10=026|
8=FIX.4.3|9=132|35=G|49=TESTI|56=TESTA|34=1|52=20030204-08:49:18|11=12233345|41=90001008|21=2|55=TESTB|54=1|60=20060117-10:00:00|465=1|38=4000|40=1|10=227|
8=FIX.4.3|9=132|35=G|49=TESTI|56=TESTA|34=1|52=20030204-08:49:18|11=12233345|41=90001008|21=2|55=TESTB|54=1|60=20060117-10:00:00|465=8|38=4000|40=1|10=234|
8=FIX.4.3|9=111|35=Q|49=TESTI|56=TESTA|34=1|52=20030204-09:28:44|37=01923883|17=11|127=D|55=TESTB|54=1|38=4000|468=0|469=00099|10=049|
8=FIX.4.3|9=111|35=Q|49=TESTI|56=TESTA|34=1|52=20030204-09:28:44|37=01923883|17=11|127=D|55=TESTB|54=1|38=4000|468=2|469=00099|10=051|
8=FIX.4.3|9=161|35=E|49=TESTI|56=TESTA|34=1|52=20030204-08:18:22|66=20012411|394=3|480=N|481=Y|68=1|73=2|11=1131|67=1|55=TESTB3|54=3|38=3000|11=1132|67=2|55=TESTB2|54=1|38=1000|10=116|
8=FIX.4.3|9=161|35=E|49=TESTI|56=TESTA|34=1|52=20030204-08:18:22|66=20012411|394=3|480=M|481=N|68=1|73=2|11=1131|67=1|55=TESTB3|54=3|38=3000|11=1132|67=2|55=TESTB2|54=1|38=1000|10=104|
8=FIX.4.3|9=161|35=E|49=TESTI|56=TESTA|34=1|52=20030204-08:18:22|66=20012411|394=3|480=M|481=3|68=1|73=2|11=1131|67=1|55=TESTB3|54=3|38=3000|11=1132|67=2|55=TESTB2|54=1|38=1000|10=077|
8=FIX.4.3|9=124|35=8|49=TESTI|56=TESTA|34=1|52=20030203-16:09:30|37=11111111|17=11|39=0|150=0|55=TESTB|54=1|38=1000|151=1000|14=0|6=0|484=B|10=242|
8=FIX.4.3|9=124|35=8|49=TESTI|56=TESTA|34=1|52=20030203-16:09:30|37=11111111|17=11|39=0|150=0|55=TESTB|54=1|38=1000|151=1000|14=0|6=0|484=S|10=003|
8=FIX.4.3|9=193|35=AE|49=TESTI|56=TESTA|34=1|50=30737|97=Y|52=20030204-08:46:14|571=90001008|487=C|150=F|570=N|55=TESTA|38=1000|32=1000|31=10.4|75=20060217|60=20060217-10:00:00|552=2|54=1|37=0001|54=2|37=0002|10=061|
8=FIX.4.3|9=193|35=AE|49=TESTI|56=TESTA|34=1|50=30737|97=Y|52=20030204-08:46:14|571=90001008|487=R|150=F|570=N|55=TESTA|38=1000|32=1000|31=10.4|75=20060217|60=20060217-10:00:00|552=2|54=1|37=0001|54=2|37=0002|10=076|
8=FIX.4.3|9=84|35=l|49=TESTI|56=TESTA|34=1|52=20030204-09:07:50|420=2|12=5|13=1|12=0.07|13=2|497=Y|10=115|
8=FIX.4.3|9=84|35=l|49=TESTI|56=TESTA|34=1|52=20030204-09:07:50|420=2|12=5|13=1|12=0.07|13=2|497=N|10=104|
8=FIX.4.3|9=76|35=p|49=TESTI|56=TESTA|34=1|52=20030204-09:17:25|513=3659000001|514=0|506=R|10=089|
8=FIX.4.3|9=76|35=p|49=TESTI|56=TESTA|34=1|52=20030204-09:17:25|513=3659000001|514=0|506=N|10=085|
8=FIX.4.3|9=82|35=p|49=TESTI|56=TESTA|34=1|52=20030204-09:17:25|513=3659000001|514=0|506=H|507=1|10=087|
8=FIX.4.3|9=83|35=p|49=TESTI|56=TESTA|34=1|52=20030204-09:17:25|513=3659000001|514=0|506=H|507=10|10=136|
8=FIX.4.3|9=83|35=p|49=TESTI|56=TESTA|34=1|52=20030204-09:17:25|513=3659000001|514=0|506=H|507=18|10=144|
8=FIX.4.3|9=70|35=o|49=TESTI|56=TESTA|34=1|52=20030204-09:17:25|513=3659000001|514=0|10=039|
8=FIX.4.3|9=81|35=o|49=TESTI|56=TESTA|34=1|52=20030204-09:17:25|513=3659000001|514=1|508=000005|10=042|
8=FIX.4.3|9=81|35=o|49=TESTI|56=TESTA|34=1|52=20030204-09:17:25|513=3659000001|514=2|508=000005|10=043|
8=FIX.4.3|9=76|35=o|49=TESTI|56=TESTA|34=1|52=20030204-09:17:25|513=3659000001|514=0|517=J|10=082|
8=FIX.4.3|9=76|35=o|49=TESTI|56=TESTA|34=1|52=20030204-09:17:25|513=3659000001|514=0|517=2|10=058|
8=FIX.4.3|9=211|35=AE|49=TESTI|56=TESTA|34=1|50=30737|97=Y|52=20030204-08:46:14|571=90001008|150=F|570=N|55=TESTA|38=1000|32=1000|31=10.4|75=20060217|60=20060217-10:00:00|552=2|54=1|37=0001|518=1|519=1|54=2|37=0002|518=1|519=9|10=078|
8=FIX.4.3|9=213|35=AE|49=TESTI|56=TESTA|34=1|50=30737|97=Y|52=20030204-08:46:14|571=90001008|150=F|570=N|55=TESTA|38=1000|32=1000|31=10.4|75=20060217|60=20060217-10:00:00|552=2|54=1|37=0001|518=1|519=10|54=2|37=0002|518=1|519=15|10=173|
8=FIX.4.3|9=93|35=o|49=TESTI|56=TESTA|34=1|52=20030204-09:17:25|513=3659000001|514=0|473=1|509=TST509|522=1|10=182|
8=FIX.4.3|9=94|35=o|49=TESTI|56=TESTA|34=1|52=20030204-09:17:25|513=3659000001|514=0|473=1|509=TST509|522=10|10=231|
8=FIX.4.3|9=94|35=o|49=TESTI|56=TESTA|34=1|52=20030204-09:17:25|513=3659000001|514=0|473=1|509=TST509|522=13|10=234|
8=FIX.4.3|9=161|35=AB|49=TESTI|56=TESTA|34=1|50=30737|97=Y|52=20030204-08:46:14|11=90001008|21=2|54=1|55=TESTB|555=2|600=TESTA|600=TESTC|60=20060217-10:00:00|38=4000|40=1|528=G|10=096|
8=FIX.4.3|9=161|35=AB|49=TESTI|56=TESTA|34=1|50=30737|97=Y|52=20030204-08:46:14|11=90001008|21=2|54=1|55=TESTB|555=2|600=TESTA|600=TESTC|60=20060217-10:00:00|38=4000|40=1|528=W|10=112|
8=FIX.4.3|9=161|35=AB|49=TESTI|56=TESTA|34=1|50=30737|97=Y|52=20030204-08:46:14|11=90001008|21=2|54=1|55=TESTB|555=2|600=TESTA|600=TESTC|60=20060217-10:00:00|38=4000|40=1|529=1|10=075|
8=FIX.4.3|9=161|35=AB|49=TESTI|56=TESTA|34=1|50=30737|97=Y|52=20030204-08:46:14|11=90001008|21=2|54=1|55=TESTB|555=2|600=TESTA|600=TESTC|60=20060217-10:00:00|38=4000|40=1|529=9|10=083|
8=FIX.4.3|9=161|35=AB|49=TESTI|56=TESTA|34=1|50=30737|97=Y|52=20030204-08:46:14|11=90001008|21=2|54=1|55=TESTB|555=2|600=TESTA|600=TESTC|60=20060217-10:00:00|38=4000|40=1|529=A|10=091|
8=FIX.4.3|9=72|35=r|49=TESTI|56=TESTA|34=1|52=20030204-09:25:43|37=4511223|530=2|531=7|10=116|
8=FIX.4.3|9=72|35=r|49=TESTI|56=TESTA|34=1|52=20030204-09:25:43|37=4511223|530=7|531=7|10=121|
8=FIX.4.3|9=78|35=r|49=TESTI|56=TESTA|34=1|52=20030204-09:25:43|37=4511223|530=1|531=0|532=3|10=125|
8=FIX.4.3|9=72|35=r|49=TESTI|56=TESTA|34=1|52=20030204-09:25:43|37=4511223|530=1|531=6|10=114|
8=FIX.4.3|9=78|35=r|49=TESTI|56=TESTA|34=1|52=20030204-09:25:43|37=4511223|530=4|531=0|532=0|10=125|
8=FIX.4.3|9=78|35=r|49=TESTI|56=TESTA|34=1|52=20030204-09:25:43|37=4511223|530=4|531=0|532=6|10=131|
8=FIX.4.3|9=104|35=AH|49=TESTI|56=TESTA|34=1|50=30737|52=20030204-08:46:14|644=0001|146=2|55=TESTA|537=0|55=TESTB|537=1|10=084|
8=FIX.4.3|9=104|35=AH|49=TESTI|56=TESTA|34=1|50=30737|52=20030204-08:46:14|644=0001|146=2|55=TESTA|537=1|55=TESTB|537=2|10=086|
8=FIX.4.3|9=134|35=D|49=TESTI|56=TESTA|34=1|50=30737|97=Y|52=20030204-08:46:14|11=90001008|544=1|21=2|55=TESTB|54=1|60=20060217-10:00:00|38=4000|40=1|10=078|
8=FIX.4.3|9=134|35=D|49=TESTI|56=TESTA|34=1|50=30737|97=Y|52=20030204-08:46:14|11=90001008|544=3|21=2|55=TESTB|54=1|60=20060217-10:00:00|38=4000|40=1|10=080|
8=FIX.4.3|9=119|35=V|49=TESTI|56=TESTA|34=1|52=20030204-09:25:43|262=11223|263=0|264=0|546=1|267=2|269=0|269=1|146=2|55=TESTA|55=TESTB|10=232|
8=FIX.4.3|9=119|35=V|49=TESTI|56=TESTA|34=1|52=20030204-09:25:43|262=11223|263=0|264=0|546=3|267=2|269=0|269=1|146=2|55=TESTA|55=TESTB|10=234|
8=FIX.4.3|9=119|35=V|49=TESTI|56=TESTA|34=1|52=20030204-09:25:43|262=11223|263=0|264=0|547=N|267=2|269=0|269=1|146=2|55=TESTA|55=TESTB|10=006|
8=FIX.4.3|9=119|35=V|49=TESTI|56=TESTA|34=1|52=20030204-09:25:43|262=11223|263=0|264=0|547=Y|267=2|269=0|269=1|146=2|55=TESTA|55=TESTB|10=017|
8=FIX.4.3|9=212|35=t|49=TESTI|56=TESTA|34=1|50=30737|97=Y|52=20030204-08:46:14|548=42444008|551=30001008|549=2|550=0|552=2|54=1|11=B202020|41=B101010|38=4000|54=2|11=S202020|41=S101010|38=5000|55=TESTA|60=20060217-10:00:00|40=1|10=246|
8=FIX.4.3|9=212|35=t|49=TESTI|56=TESTA|34=1|50=30737|97=Y|52=20030204-08:46:14|548=42444008|551=30001008|549=4|550=0|552=2|54=1|11=B202020|41=B101010|38=4000|54=2|11=S202020|41=S101010|38=5000|55=TESTA|60=20060217-10:00:00|40=1|10=248|
8=FIX.4.3|9=212|35=t|49=TESTI|56=TESTA|34=1|50=30737|97=Y|52=20030204-08:46:14|548=42444008|551=30001008|549=1|550=0|552=2|54=1|11=B202020|41=B101010|38=4000|54=2|11=S202020|41=S101010|38=5000|55=TESTA|60=20060217-10:00:00|40=1|10=245|
8=FIX.4.3|9=212|35=t|49=TESTI|56=TESTA|34=1|50=30737|97=Y|52=20030204-08:46:14|548=42444008|551=30001008|549=1|550=2|552=2|54=1|11=B202020|41=B101010|38=4000|54=2|11=S202020|41=S101010|38=5000|55=TESTA|60=20060217-10:00:00|40=1|10=247|
8=FIX.4.3|9=65|35=x|49=TESTI|56=TESTA|34=1|52=20030204-09:25:43|320=11223|559=0|10=057|
8=FIX.4.3|9=65|35=x|49=TESTI|56=TESTA|34=1|52=20030204-09:25:43|320=11223|559=3|10=060|
8=FIX.4.3|9=74|35=AA|49=TESTI|56=TESTA|34=1|52=20030204-09:25:43|320=0001|322=0001|560=1|10=154|
8=FIX.4.3|9=74|35=AA|49=TESTI|56=TESTA|34=1|52=20030204-09:25:43|320=0001|322=0001|560=5|10=158|
8=FIX.4.3|9=161|35=AB|49=TESTI|56=TESTA|34=1|50=30737|97=Y|52=20030204-08:46:14|11=90001008|21=2|54=1|55=TESTB|555=2|600=TESTA|600=TESTC|60=20060217-10:00:00|38=4000|40=1|563=0|10=072|
8=FIX.4.3|9=161|35=AB|49=TESTI|56=TESTA|34=1|50=30737|97=Y|52=20030204-08:46:14|11=90001008|21=2|54=1|55=TESTB|555=2|600=TESTA|600=TESTC|60=20060217-10:00:00|38=4000|40=1|563=2|10=074|
8=FIX.4.3|9=83|35=AD|49=TESTI|56=TESTA|34=1|50=30737|97=Y|52=20030204-08:46:14|568=90001008|569=0|10=156|
8=FIX.4.3|9=83|35=AD|49=TESTI|56=TESTA|34=1|50=30737|97=Y|52=20030204-08:46:14|568=90001008|569=4|10=160|
8=FIX.4.3|9=187|35=AE|49=TESTI|56=TESTA|34=1|50=30737|97=Y|52=20030204-08:46:14|571=90001008|150=F|570=N|55=TESTA|38=1000|32=1000|31=10.4|75=20060217|60=20060217-10:00:00|552=2|54=1|37=0001|54=2|37=0002|10=028|
8=FIX.4.3|9=187|35=AE|49=TESTI|56=TESTA|34=1|50=30737|97=Y|52=20030204-08:46:14|571=90001008|150=F|570=Y|55=TESTA|38=1000|32=1000|31=10.4|75=20060217|60=20060217-10:00:00|552=2|54=1|37=0001|54=2|37=0002|10=039|
8=FIX.4.3|9=89|35=AD|49=TESTI|56=TESTA|34=1|50=30737|97=Y|52=20030204-08:46:14|568=90001008|569=0|573=0|10=175|
8=FIX.4.3|9=89|35=AD|49=TESTI|56=TESTA|34=1|50=30737|97=Y|52=20030204-08:46:14|568=90001008|569=0|573=2|10=177|
8=FIX.4.3|9=194|35=AE|49=TESTI|56=TESTA|34=1|50=30737|97=Y|52=20030204-08:46:14|571=90001008|150=F|570=N|55=TESTA|38=1000|32=1000|31=10.4|75=20060217|60=20060217-10:00:00|574=A1|552=2|54=1|37=0001|54=2|37=0002|10=106|
8=FIX.4.3|9=194|35=AE|49=TESTI|56=TESTA|34=1|50=30737|97=Y|52=20030204-08:46:14|571=90001008|150=F|570=N|55=TESTA|38=1000|32=1000|31=10.4|75=20060217|60=20060217-10:00:00|574=AQ|552=2|54=1|37=0001|54=2|37=0002|10=138|
8=FIX.4.3|9=197|35=AE|49=TESTI|56=TESTA|34=1|50=30737|97=Y|52=20030204-08:46:14|571=90001008|150=F|570=N|55=TESTA|38=1000|32=1000|31=10.4|75=20060217|60=20060217-10:00:00|574=S1_S5|552=2|54=1|37=0001|54=2|37=0002|10=102|
8=FIX.4.3|9=194|35=AE|49=TESTI|56=TESTA|34=1|50=30737|97=Y|52=20030204-08:46:14|571=90001008|150=F|570=N|55=TESTA|38=1000|32=1000|31=10.4|75=20060217|60=20060217-10:00:00|574=M1|552=2|54=1|37=0001|54=2|37=0002|10=118|
8=FIX.4.3|9=194|35=AE|49=TESTI|56=TESTA|34=1|50=30737|97=Y|52=20030204-08:46:14|571=90001008|150=F|570=N|55=TESTA|38=1000|32=1000|31=10.4|75=20060217|60=20060217-10:00:00|574=M6|552=2|54=1|37=0001|54=2|37=0002|10=123|
8=FIX.4.3|9=194|35=AE|49=TESTI|56=TESTA|34=1|50=30737|97=Y|52=20030204-08:46:14|571=90001008|150=F|570=N|55=TESTA|38=1000|32=1000|31=10.4|75=20060217|60=20060217-10:00:00|574=MT|552=2|54=1|37=0001|54=2|37=0002|10=153|
8=FIX.4.3|9=64|35=a|49=TESTI|56=TESTA|34=1|52=20030204-09:25:43|55=TESTB|581=1|10=123|
8=FIX.4.3|9=64|35=a|49=TESTI|56=TESTA|34=1|52=20030204-09:25:43|55=TESTB|581=8|10=130|
8=FIX.4.3|9=92|35=AI|49=TESTI|56=TESTA|34=1|50=30737|52=20030204-08:46:14|117=0001|55=TESTA|132=10.5|582=1|10=124|
8=FIX.4.3|9=92|35=AI|49=TESTI|56=TESTA|34=1|50=30737|52=20030204-08:46:14|117=0001|55=TESTA|132=10.5|582=4|10=127|
8=FIX.4.3|9=79|35=AF|49=TESTI|56=TESTA|34=1|50=30737|97=Y|52=20030204-08:46:14|584=0001|585=2|10=208|
8=FIX.4.3|9=79|35=AF|49=TESTI|56=TESTA|34=1|50=30737|97=Y|52=20030204-08:46:14|584=0001|585=8|10=214|
8=FIX.4.3|9=161|35=AB|49=TESTI|56=TESTA|34=1|50=30737|97=Y|52=20030204-08:46:14|11=90001008|589=0|21=2|54=1|55=TESTB|555=2|600=TESTA|600=TESTC|60=20060217-10:00:00|38=4000|40=1|10=080|
8=FIX.4.3|9=161|35=AB|49=TESTI|56=TESTA|34=1|50=30737|97=Y|52=20030204-08:46:14|11=90001008|589=1|21=2|54=1|55=TESTB|555=2|600=TESTA|600=TESTC|60=20060217-10:00:00|38=4000|40=1|10=081|
8=FIX.4.3|9=161|35=AB|49=TESTI|56=TESTA|34=1|50=30737|97=Y|52=20030204-08:46:14|11=90001008|590=0|21=2|54=1|55=TESTB|555=2|600=TESTA|600=TESTC|60=20060217-10:00:00|38=4000|40=1|10=072|
8=FIX.4.3|9=161|35=AB|49=TESTI|56=TESTA|34=1|50=30737|97=Y|52=20030204-08:46:14|11=90001008|590=2|21=2|54=1|55=TESTB|555=2|600=TESTA|600=TESTC|60=20060217-10:00:00|38=4000|40=1|10=074|
8=FIX.4.3|9=161|35=AB|49=TESTI|56=TESTA|34=1|50=30737|97=Y|52=20030204-08:46:14|11=90001008|591=0|21=2|54=1|55=TESTB|555=2|600=TESTA|600=TESTC|60=20060217-10:00:00|38=4000|40=1|10=073|
8=FIX.4.3|9=161|35=AB|49=TESTI|56=TESTA|34=1|50=30737|97=Y|52=20030204-08:46:14|11=90001008|591=1|21=2|54=1|55=TESTB|555=2|600=TESTA|600=TESTC|60=20060217-10:00:00|38=4000|40=1|10=074|
8=FIX.4.3|9=201|35=J|49=TESTI|56=TESTA|34=1|52=20030204-08:56:41|70=1116226|71=0|626=1|73=2|11=90001008|11=90000008|54=1|55=TESTB|53=1004000|6=30|75=20030821|78=3|79=1000|80=500000|79=2000|80=400000|79=3000|80=104000|10=029|
8=FIX.4.3|9=201|35=J|49=TESTI|56=TESTA|34=1|52=20030204-08:56:41|70=1116226|71=0|626=6|73=2|11=90001008|11=90000008|54=1|55=TESTB|53=1004000|6=30|75=20030821|78=3|79=1000|80=500000|79=2000|80=400000|79=3000|80=104000|10=034|
8=FIX.4.3|9=173|35=AC|49=TESTI|56=TESTA|34=1|50=30737|97=Y|52=20030204-08:46:14|11=90001008|41=93452234|635=1|21=2|54=1|55=TESTB|555=2|600=TESTA|600=TESTC|60=20060217-10:00:00|38=4000|40=1|10=144|
8=FIX.4.3|9=173|35=AC|49=TESTI|56=TESTA|34=1|50=30737|97=Y|52=20030204-08:46:14|11=90001008|41=93452234|635=9|21=2|54=1|55=TESTB|555=2|600=TESTA|600=TESTC|60=20060217-10:00:00|38=4000|40=1|10=152|
8=FIX.4.3|9=173|35=AC|49=TESTI|56=TESTA|34=1|50=30737|97=Y|52=20030204-08:46:14|11=90001008|41=93452234|635=B|21=2|54=1|55=TESTB|555=2|600=TESTA|600=TESTC|60=20060217-10:00:00|38=4000|40=1|10=161|
8=FIX.4.3|9=173|35=AC|49=TESTI|56=TESTA|34=1|50=30737|97=Y|52=20030204-08:46:14|11=90001008|41=93452234|635=M|21=2|54=1|55=TESTB|555=2|600=TESTA|600=TESTC|60=20060217-10:00:00|38=4000|40=1|10=172|
8=FIX.4.3|9=108|35=9|49=TESTI|56=TESTA|34=1|52=20030203-16:13:14|37=11111111|11=12121212122|41=11111111111|39=0|636=Y|434=1|10=012|
8=FIX.4.3|9=108|35=9|49=TESTI|56=TESTA|34=1|52=20030203-16:13:14|37=11111111|11=12121212122|41=11111111111|39=0|636=N|434=1|10=001|
8=FIX.4.3|9=124|35=8|49=TESTI|56=TESTA|34=1|52=20030203-16:09:30|37=11111111|17=11|39=0|150=0|55=TESTB|54=1|38=1000|151=1000|14=0|6=0|638=0|10=225|
8=FIX.4.3|9=124|35=8|49=TESTI|56=TESTA|34=1|52=20030203-16:09:30|37=11111111|17=11|39=0|150=0|55=TESTB|54=1|38=1000|151=1000|14=0|6=0|638=1|10=226|
8=FIX.4.3|9=86|35=P|49=TESTI|56=TESTA|34=1|52=20030204-09:17:25|70=3659000001|75=20030808|87=0|650=Y|10=035|
8=FIX.4.3|9=86|35=P|49=TESTI|56=TESTA|34=1|52=20030204-09:17:25|70=3659000001|75=20030808|87=0|650=N|10=024|
8=FIX.4.3|9=98|35=AG|49=TESTI|56=TESTA|34=1|50=30737|52=20030204-08:46:14|131=0001|658=2|146=2|55=TESTA|55=TESTB|10=030|
8=FIX.4.3|9=98|35=AG|49=TESTI|56=TESTA|34=1|50=30737|52=20030204-08:46:14|131=0001|658=6|146=2|55=TESTA|55=TESTB|10=034|
8=FIX.4.3|9=124|35=8|49=TESTI|56=TESTA|34=1|52=20030203-16:09:30|37=11111111|17=11|39=0|150=0|55=TESTB|54=1|38=1000|151=1000|14=0|6=0|119=0|10=219|
8=FIX.4.3|9=124|35=8|49=TESTI|56=TESTA|34=1|52=20030203-16:09:30|37=11111111|17=11|39=0|150=0|55=TESTB|54=1|38=1000|151=1000|14=0|6=0|119=1|10=220|
8=FIX.4.3|9=125|35=8|49=TESTI|56=TESTA|34=1|52=20030203-16:09:30|37=11111111|17=11|39=0|150=0|55=TESTB|54=1|38=1000|151=1000|14=0|6=0|119=-1|10=010|
8=FIX.4.3|9=126|35=8|49=TESTI|56=TESTA|34=1|52=20030203-16:09:30|37=11111111|17=11|39=0|150=0|55=TESTB|54=1|38=1000|151=1000|14=0|6=0|119=0.1|10=060|
8=FIX.4.3|9=127|35=8|49=TESTI|56=TESTA|34=1|52=20030203-16:09:30|37=11111111|17=11|39=0|150=0|55=TESTB|54=1|38=1000|151=1000|14=0|6=0|119=-0.1|10=106|
8=FIX.4.3|9=125|35=8|49=TESTI|56=TESTA|34=1|52=20030203-16:09:30|37=11111111|17=11|39=0|150=0|55=TESTB|54=1|38=1000|151=1000|14=0|6=0|119=.1|10=011|
8=FIX.4.3|9=126|35=8|49=TESTI|56=TESTA|34=1|52=20030203-16:09:30|37=11111111|17=11|39=0|150=0|55=TESTB|54=1|38=1000|151=1000|14=0|6=0|119=-.1|10=057|
8=FIX.4.3|9=127|35=8|49=TESTI|56=TESTA|34=1|52=20030203-16:09:30|37=11111111|17=11|39=0|150=0|55=TESTB|54=1|38=1000|151=1000|14=0|6=0|119=0.01|10=109|
8=FIX.4.3|9=128|35=8|49=TESTI|56=TESTA|34=1|52=20030203-16:09:30|37=11111111|17=11|39=0|150=0|55=TESTB|54=1|38=1000|151=1000|14=0|6=0|119=-0.01|10=155|
8=FIX.4.3|9=126|35=8|49=TESTI|56=TESTA|34=1|52=20030203-16:09:30|37=11111111|17=11|39=0|150=0|55=TESTB|54=1|38=1000|151=1000|14=0|6=0|119=1.1|10=061|
8=FIX.4.3|9=127|35=8|49=TESTI|56=TESTA|34=1|52=20030203-16:09:30|37=11111111|17=11|39=0|150=0|55=TESTB|54=1|38=1000|151=1000|14=0|6=0|119=-1.1|10=107|
8=FIX.4.3|9=126|35=8|49=TESTI|56=TESTA|34=1|52=20030203-16:09:30|37=11111111|17=11|39=0|150=0|55=TESTB|54=1|38=1000|151=1000|14=0|6=0|119=1.0|10=060|
8=FIX.4.3|9=129|35=8|49=TESTI|56=TESTA|34=1|52=20030203-16:09:30|37=11111111|17=11|39=0|150=0|55=TESTB|54=1|38=1000|151=1000|14=0|6=0|119=1.0000|10=207|
8=FIX.4.3|9=125|35=8|49=TESTI|56=TESTA|34=1|52=20030203-16:09:30|37=11111111|17=11|39=0|150=0|55=TESTB|54=1|38=1000|151=1000|14=0|6=0|119=01|10=013|
8=FIX.4.3|9=127|35=8|49=TESTI|56=TESTA|34=1|52=20030203-16:09:30|37=11111111|17=11|39=0|150=0|55=TESTB|54=1|38=1000|151=1000|14=0|6=0|119=01.1|10=110|
8=FIX.4.3|9=128|35=8|49=TESTI|56=TESTA|34=1|52=20030203-16:09:30|37=11111111|17=11|39=0|150=0|55=TESTB|54=1|38=1000|151=1000|14=0|6=0|119=00.01|10=158|
8=FIX.4.3|9=136|35=8|49=TESTI|56=TESTA|34=1|52=20030203-16:09:30|37=11111111|17=11|39=0|150=0|55=TESTB|54=1|38=1000|151=1000|14=0|6=0|119=1000000000000|10=031|
8=FIX.4.3|9=137|35=8|49=TESTI|56=TESTA|34=1|52=20030203-16:09:30|37=11111111|17=11|39=0|150=0|55=TESTB|54=1|38=1000|151=1000|14=0|6=0|119=-1000000000000|10=077|
8=FIX.4.3|9=138|35=8|49=TESTI|56=TESTA|34=1|52=20030203-16:09:30|37=11111111|17=11|39=0|150=0|55=TESTB|54=1|38=1000|151=1000|14=0|6=0|119=0.0000000000001|10=127|
8=FIX.4.3|9=139|35=8|49=TESTI|56=TESTA|34=1|52=20030203-16:09:30|37=11111111|17=11|39=0|150=0|55=TESTB|54=1|38=1000|151=1000|14=0|6=0|119=-0.0000000000001|10=173|
8=FIX.4.3|9=173|35=AC|49=TESTI|56=TESTA|34=1|50=30737|97=Y|52=20030204-08:46:14|11=90001008|41=93452234|21=2|54=1|55=TESTB|555=2|600=TESTA|600=TESTC|114=Y|60=20060217-10:00:00|38=4000|40=1|10=176|
8=FIX.4.3|9=173|35=AC|49=TESTI|56=TESTA|34=1|50=30737|97=Y|52=20030204-08:46:14|11=90001008|41=93452234|21=2|54=1|55=TESTB|555=2|600=TESTA|600=TESTC|114=N|60=20060217-10:00:00|38=4000|40=1|10=165|
8=FIX.4.3|9=167|35=AC|49=TESTI|56=TESTA|34=1|50=30737|97=Y|52=20030204-08:46:14|11=90001008|41=93452234|21=2|54=1|55=TESTB|555=2|600=TESTA|600=TESTC|60=20060217-10:00:00|38=4000|40=1|10=134|
8=FIX.4.3|9=167|35=AC|49=TESTI|56=TESTA|34=1|50=30737|97=N|52=20030204-08:46:14|11=90001008|41=93452234|21=2|54=1|55=TESTB|555=2|600=TESTA|600=TESTC|60=20060217-10:00:00|38=4000|40=1|10=123|
8=FIX.4.3|9=64|35=a|49=TESTI|56=TESTA|34=1|52=20030204-09:25:43|55=TESTB|263=0|10=119|
8=FIX.4.3|9=64|35=a|49=TESTI|56=TESTA|34=1|52=20030204-09:25:43|55=TESTB|263=1|10=120|
8=FIX.4.3|9=64|35=a|49=TESTI|56=TESTA|34=1|52=20030204-09:25:43|55=TESTB|263=2|10=121|
8=FIX.4.3|9=99|35=o|49=TESTI|56=TESTA|34=1|52=20030204-09:17:25|513=3659000001|514=0|473=1|509=VasyaPupkin|475=UA|10=010|
8=FIX.4.3|9=99|35=o|49=TESTI|56=TESTA|34=1|52=20030204-09:17:25|513=3659000001|514=0|473=1|509=VasyaPupkin|475=AF|10=251|
8=FIX.4.3|9=99|35=o|49=TESTI|56=TESTA|34=1|52=20030204-09:17:25|513=3659000001|514=0|473=1|509=VasyaPupkin|475=ZW|10=037|
8=FIX.4.3|9=89|35=7|49=TESTI|56=TESTA|34=1|52=20030203-16:02:35|2=20|5=N|55=TESTB|4=T|53=1000000|15=UAH|10=022|
8=FIX.4.3|9=89|35=7|49=TESTI|56=TESTA|34=1|52=20030203-16:02:35|2=20|5=N|55=TESTB|4=T|53=1000000|15=AFA|10=000|
8=FIX.4.3|9=89|35=7|49=TESTI|56=TESTA|34=1|52=20030203-16:02:35|2=20|5=N|55=TESTB|4=T|53=1000000|15=XXX|10=064|
8=FIX.4.3|9=89|35=7|49=TESTI|56=TESTA|34=1|52=20030203-16:02:35|2=20|5=N|55=TESTB|4=T|53=1000000|15=999|10=227|
8=FIX.4.3|9=195|35=AE|49=TESTI|56=TESTA|34=1|50=30737|97=Y|52=20030204-08:46:14|571=90001008|150=F|570=N|55=TESTA|38=1000|32=1000|31=10.4|30=XTKS|75=20060217|60=20060217-10:00:00|552=2|54=1|37=0001|54=2|37=0002|10=006|
8=FIX.4.3|9=195|35=AE|49=TESTI|56=TESTA|34=1|50=30737|97=Y|52=20030204-08:46:14|571=90001008|150=F|570=N|55=TESTA|38=1000|32=1000|31=10.4|30=XASE|75=20060217|60=20060217-10:00:00|552=2|54=1|37=0001|54=2|37=0002|10=237|
8=FIX.4.3|9=124|35=8|49=TESTI|56=TESTA|34=1|52=20030203-16:09:30|37=11111111|17=11|39=0|150=0|55=TESTB|54=1|38=1000|151=1000|14=0|6=0|155=0|10=219|
8=FIX.4.3|9=124|35=8|49=TESTI|56=TESTA|34=1|52=20030203-16:09:30|37=11111111|17=11|39=0|150=0|55=TESTB|54=1|38=1000|151=1000|14=0|6=0|155=1|10=220|
8=FIX.4.3|9=125|35=8|49=TESTI|56=TESTA|34=1|52=20030203-16:09:30|37=11111111|17=11|39=0|150=0|55=TESTB|54=1|38=1000|151=1000|14=0|6=0|155=-1|10=010|
8=FIX.4.3|9=126|35=8|49=TESTI|56=TESTA|34=1|52=20030203-16:09:30|37=11111111|17=11|39=0|150=0|55=TESTB|54=1|38=1000|151=1000|14=0|6=0|155=0.1|10=060|
8=FIX.4.3|9=127|35=8|49=TESTI|56=TESTA|34=1|52=20030203-16:09:30|37=11111111|17=11|39=0|150=0|55=TESTB|54=1|38=1000|151=1000|14=0|6=0|155=-0.1|10=106|
8=FIX.4.3|9=125|35=8|49=TESTI|56=TESTA|34=1|52=20030203-16:09:30|37=11111111|17=11|39=0|150=0|55=TESTB|54=1|38=1000|151=1000|14=0|6=0|155=.1|10=011|
8=FIX.4.3|9=126|35=8|49=TESTI|56=TESTA|34=1|52=20030203-16:09:30|37=11111111|17=11|39=0|150=0|55=TESTB|54=1|38=1000|151=1000|14=0|6=0|155=-.1|10=057|
8=FIX.4.3|9=127|35=8|49=TESTI|56=TESTA|34=1|52=20030203-16:09:30|37=11111111|17=11|39=0|150=0|55=TESTB|54=1|38=1000|151=1000|14=0|6=0|155=0.01|10=109|
8=FIX.4.3|9=128|35=8|49=TESTI|56=TESTA|34=1|52=20030203-16:09:30|37=11111111|17=11|39=0|150=0|55=TESTB|54=1|38=1000|151=1000|14=0|6=0|155=-0.01|10=155|
8=FIX.4.3|9=126|35=8|49=TESTI|56=TESTA|34=1|52=20030203-16:09:30|37=11111111|17=11|39=0|150=0|55=TESTB|54=1|38=1000|151=1000|14=0|6=0|155=1.1|10=061|
8=FIX.4.3|9=127|35=8|49=TESTI|56=TESTA|34=1|52=20030203-16:09:30|37=11111111|17=11|39=0|150=0|55=TESTB|54=1|38=1000|151=1000|14=0|6=0|155=-1.1|10=107|
8=FIX.4.3|9=126|35=8|49=TESTI|56=TESTA|34=1|52=20030203-16:09:30|37=11111111|17=11|39=0|150=0|55=TESTB|54=1|38=1000|151=1000|14=0|6=0|155=1.0|10=060|
8=FIX.4.3|9=129|35=8|49=TESTI|56=TESTA|34=1|52=20030203-16:09:30|37=11111111|17=11|39=0|150=0|55=TESTB|54=1|38=1000|151=1000|14=0|6=0|155=1.0000|10=207|
8=FIX.4.3|9=125|35=8|49=TESTI|56=TESTA|34=1|52=20030203-16:09:30|37=11111111|17=11|39=0|150=0|55=TESTB|54=1|38=1000|151=1000|14=0|6=0|155=01|10=013|
8=FIX.4.3|9=127|35=8|49=TESTI|56=TESTA|34=1|52=20030203-16:09:30|37=11111111|17=11|39=0|150=0|55=TESTB|54=1|38=1000|151=1000|14=0|6=0|155=01.1|10=110|
8=FIX.4.3|9=128|35=8|49=TESTI|56=TESTA|34=1|52=20030203-16:09:30|37=11111111|17=11|39=0|150=0|55=TESTB|54=1|38=1000|151=1000|14=0|6=0|155=00.01|10=158|
8=FIX.4.3|9=136|35=8|49=TESTI|56=TESTA|34=1|52=20030203-16:09:30|37=11111111|17=11|39=0|150=0|55=TESTB|54=1|38=1000|151=1000|14=0|6=0|155=1000000000000|10=031|
8=FIX.4.3|9=137|35=8|49=TESTI|56=TESTA|34=1|52=20030203-16:09:30|37=11111111|17=11|39=0|150=0|55=TESTB|54=1|38=1000|151=1000|14=0|6=0|155=-1000000000000|10=077|
8=FIX.4.3|9=138|35=8|49=TESTI|56=TESTA|34=1|52=20030203-16:09:30|37=11111111|17=11|39=0|150=0|55=TESTB|54=1|38=1000|151=1000|14=0|6=0|155=0.0000000000001|10=127|
8=FIX.4.3|9=139|35=8|49=TESTI|56=TESTA|34=1|52=20030203-16:09:30|37=11111111|17=11|39=0|150=0|55=TESTB|54=1|38=1000|151=1000|14=0|6=0|155=-0.0000000000001|10=173|
8=FIX.4.3|9=105|35=X|49=TESTI|56=TESTA|34=1|52=20030204-09:25:43|268=2|279=1|280=0001|270=10|279=1|280=0002|270=11|287=0|10=076|
8=FIX.4.3|9=105|35=X|49=TESTI|56=TESTA|34=1|52=20030204-09:25:43|268=2|279=1|280=0001|270=10|279=1|280=0002|270=11|287=1|10=077|
8=FIX.4.3|9=106|35=X|49=TESTI|56=TESTA|34=1|52=20030204-09:25:43|268=2|279=1|280=0001|270=10|279=1|280=0002|270=11|287=-1|10=123|
8=FIX.4.3|9=106|35=X|49=TESTI|56=TESTA|34=1|52=20030204-09:25:43|268=2|279=1|280=0001|270=10|279=1|280=0002|270=11|287=01|10=126|
8=FIX.4.3|9=117|35=X|49=TESTI|56=TESTA|34=1|52=20030204-09:25:43|268=2|279=1|280=0001|270=10|279=1|280=0002|270=11|287=1000000000000|10=144|
8=FIX.4.3|9=118|35=X|49=TESTI|56=TESTA|34=1|52=20030204-09:25:43|268=2|279=1|280=0001|270=10|279=1|280=0002|270=11|287=-1000000000000|10=190|
8=FIX.4.3|9=95|35=7|49=TESTI|56=TESTA|34=1|52=20030203-16:02:35|2=20|5=N|55=TESTB|4=T|53=1000000|354=2|355=|10=022|
8=FIX.4.3|9=104|35=k|49=TESTI|56=TESTA|34=1|52=20030204-09:07:50|391=20012411|374=N|393=2|394=3|75=20080716|418=A|419=4|10=149|
8=FIX.4.3|9=124|35=V|49=TESTI|56=TESTA|34=1|52=20030204-09:25:43|262=11223|263=0|264=0|267=2|269=0|269=1|146=2|55=TESTA|55=TESTB|200=200301|10=204|
8=FIX.4.3|9=124|35=V|49=TESTI|56=TESTA|34=1|52=20030204-09:25:43|262=11223|263=0|264=0|267=2|269=0|269=1|146=2|55=TESTA|55=TESTB|200=200312|10=206|
8=FIX.4.3|9=119|35=V|49=TESTI|56=TESTA|34=1|52=20030204-09:25:43|262=11223|263=0|264=0|546=1|267=2|269=0|269=1|146=2|55=TESTA|55=TESTB|10=232|
8=FIX.4.3|9=121|35=V|49=TESTI|56=TESTA|34=1|52=20030204-09:25:43|262=11223|263=0|264=0|546=2 3|267=2|269=0|269=1|146=2|55=TESTA|55=TESTB|10=053|
8=FIX.4.3|9=123|35=V|49=TESTI|56=TESTA|34=1|52=20030204-09:25:43|262=11223|263=0|264=0|546=3 2 1|267=2|269=0|269=1|146=2|55=TESTA|55=TESTB|10=136|
8=FIX.4.3|9=172|35=u|49=TESTI|56=TESTA|34=1|50=30737|97=Y|52=20030204-08:46:14|548=42444008|551=30001008|549=1|550=0|552=1|54=1|11=B202020|41=B101010|38=4000|55=TESTA|60=20060217-10:00:00|10=174|
8=FIX.4.3|9=207|35=u|49=TESTI|56=TESTA|34=1|50=30737|97=Y|52=20030204-08:46:14|548=42444008|551=30001008|549=1|550=0|552=2|54=1|11=B202020|41=B101010|38=4000|54=2|11=S202020|41=S101010|38=5000|55=TESTA|60=20060217-10:00:00|10=039|
8=FIX.4.3|9=132|35=G|49=TESTI|56=TESTA|34=1|52=20030204-08:49:18|11=12233345|41=90001008|21=2|55=TESTB|54=1|60=20060117-10:00:00|38=4000|40=1|158=0|10=225|
8=FIX.4.3|9=132|35=G|49=TESTI|56=TESTA|34=1|52=20030204-08:49:18|11=12233345|41=90001008|21=2|55=TESTB|54=1|60=20060117-10:00:00|38=4000|40=1|158=1|10=226|
8=FIX.4.3|9=133|35=G|49=TESTI|56=TESTA|34=1|52=20030204-08:49:18|11=12233345|41=90001008|21=2|55=TESTB|54=1|60=20060117-10:00:00|38=4000|40=1|158=-1|10=016|
8=FIX.4.3|9=134|35=G|49=TESTI|56=TESTA|34=1|52=20030204-08:49:18|11=12233345|41=90001008|21=2|55=TESTB|54=1|60=20060117-10:00:00|38=4000|40=1|158=0.1|10=066|
8=FIX.4.3|9=135|35=G|49=TESTI|56=TESTA|34=1|52=20030204-08:49:18|11=12233345|41=90001008|21=2|55=TESTB|54=1|60=20060117-10:00:00|38=4000|40=1|158=-0.1|10=112|
8=FIX.4.3|9=133|35=G|49=TESTI|56=TESTA|34=1|52=20030204-08:49:18|11=12233345|41=90001008|21=2|55=TESTB|54=1|60=20060117-10:00:00|38=4000|40=1|158=.1|10=017|
8=FIX.4.3|9=134|35=G|49=TESTI|56=TESTA|34=1|52=20030204-08:49:18|11=12233345|41=90001008|21=2|55=TESTB|54=1|60=20060117-10:00:00|38=4000|40=1|158=-.1|10=063|
8=FIX.4.3|9=135|35=G|49=TESTI|56=TESTA|34=1|52=20030204-08:49:18|11=12233345|41=90001008|21=2|55=TESTB|54=1|60=20060117-10:00:00|38=4000|40=1|158=0.01|10=115|
8=FIX.4.3|9=136|35=G|49=TESTI|56=TESTA|34=1|52=20030204-08:49:18|11=12233345|41=90001008|21=2|55=TESTB|54=1|60=20060117-10:00:00|38=4000|40=1|158=-0.01|10=161|
8=FIX.4.3|9=134|35=G|49=TESTI|56=TESTA|34=1|52=20030204-08:49:18|11=12233345|41=90001008|21=2|55=TESTB|54=1|60=20060117-10:00:00|38=4000|40=1|158=1.1|10=067|
8=FIX.4.3|9=135|35=G|49=TESTI|56=TESTA|34=1|52=20030204-08:49:18|11=12233345|41=90001008|21=2|55=TESTB|54=1|60=20060117-10:00:00|38=4000|40=1|158=-1.1|10=113|
8=FIX.4.3|9=134|35=G|49=TESTI|56=TESTA|34=1|52=20030204-08:49:18|11=12233345|41=90001008|21=2|55=TESTB|54=1|60=20060117-10:00:00|38=4000|40=1|158=1.0|10=066|
8=FIX.4.3|9=137|35=G|49=TESTI|56=TESTA|34=1|52=20030204-08:49:18|11=12233345|41=90001008|21=2|55=TESTB|54=1|60=20060117-10:00:00|38=4000|40=1|158=1.0000|10=213|
8=FIX.4.3|9=133|35=G|49=TESTI|56=TESTA|34=1|52=20030204-08:49:18|11=12233345|41=90001008|21=2|55=TESTB|54=1|60=20060117-10:00:00|38=4000|40=1|158=01|10=019|
8=FIX.4.3|9=135|35=G|49=TESTI|56=TESTA|34=1|52=20030204-08:49:18|11=12233345|41=90001008|21=2|55=TESTB|54=1|60=20060117-10:00:00|38=4000|40=1|158=01.1|10=116|
8=FIX.4.3|9=136|35=G|49=TESTI|56=TESTA|34=1|52=20030204-08:49:18|11=12233345|41=90001008|21=2|55=TESTB|54=1|60=20060117-10:00:00|38=4000|40=1|158=00.01|10=164|
8=FIX.4.3|9=144|35=G|49=TESTI|56=TESTA|34=1|52=20030204-08:49:18|11=12233345|41=90001008|21=2|55=TESTB|54=1|60=20060117-10:00:00|38=4000|40=1|158=1000000000000|10=037|
8=FIX.4.3|9=145|35=G|49=TESTI|56=TESTA|34=1|52=20030204-08:49:18|11=12233345|41=90001008|21=2|55=TESTB|54=1|60=20060117-10:00:00|38=4000|40=1|158=-1000000000000|10=083|
8=FIX.4.3|9=146|35=G|49=TESTI|56=TESTA|34=1|52=20030204-08:49:18|11=12233345|41=90001008|21=2|55=TESTB|54=1|60=20060117-10:00:00|38=4000|40=1|158=0.0000000000001|10=133|
8=FIX.4.3|9=147|35=G|49=TESTI|56=TESTA|34=1|52=20030204-08:49:18|11=12233345|41=90001008|21=2|55=TESTB|54=1|60=20060117-10:00:00|38=4000|40=1|158=-0.0000000000001|10=179|
8=FIX.4.3|9=200|35=J|49=TESTI|56=TESTA|34=1|52=20030204-08:56:41|70=1116226|71=0|626=1|73=2|11=90001008|11=90000008|54=1|55=TESTB|53=1004000|6=0|75=20030821|78=3|79=1000|80=500000|79=2000|80=400000|79=3000|80=104000|10=233|
8=FIX.4.3|9=209|35=J|49=TESTI|56=TESTA|34=1|52=20030204-08:56:41|70=1116226|71=0|626=1|73=2|11=90001008|11=90000008|54=1|55=TESTB|53=1004000|6=4000000000|75=20030821|78=3|79=1000|80=500000|79=2000|80=400000|79=3000|80=104000|10=166|
8=FIX.4.3|9=202|35=J|49=TESTI|56=TESTA|34=1|52=20030204-08:56:41|70=1116226|71=0|626=1|73=2|11=90001008|11=90000008|54=1|55=TESTB|53=1004000|6=0.9|75=20030821|78=3|79=1000|80=500000|79=2000|80=400000|79=3000|80=104000|10=082|
8=FIX.4.3|9=202|35=J|49=TESTI|56=TESTA|34=1|52=20030204-08:56:41|70=1116226|71=0|626=1|73=2|11=90001008|11=90000008|54=1|55=TESTB|53=1004000|6=100|75=20030821|78=3|79=1000|80=500000|79=2000|80=400000|79=3000|80=104000|10=076|
8=FIX.4.3|9=202|35=J|49=TESTI|56=TESTA|34=1|52=20030204-08:56:41|70=1116226|71=0|626=1|73=2|11=90001008|11=90000008|54=1|55=TESTB|53=1004000|6=.99|75=20030821|78=3|79=1000|80=500000|79=2000|80=400000|79=3000|80=104000|10=091|
8=FIX.4.3|9=204|35=J|49=TESTI|56=TESTA|34=1|52=20030204-08:56:41|70=1116226|71=0|626=1|73=2|11=90001008|11=90000008|54=1|55=TESTB|53=1004000|6=10.09|75=20030821|78=3|79=1000|80=500000|79=2000|80=400000|79=3000|80=104000|10=181|
8=FIX.4.3|9=201|35=J|49=TESTI|56=TESTA|34=1|52=20030204-08:56:41|70=1116226|71=0|626=1|73=2|11=90001008|11=90000008|54=1|55=TESTB|53=1004000|6=-1|75=20030821|78=3|79=1000|80=500000|79=2000|80=400000|79=3000|80=104000|10=024|
8=FIX.4.3|9=83|35=S|49=TESTI|56=TESTA|34=1|52=20030204-09:25:43|117=11223|55=TESTB|133=15.3|191=0|10=214|
8=FIX.4.3|9=83|35=S|49=TESTI|56=TESTA|34=1|52=20030204-09:25:43|117=11223|55=TESTB|133=15.3|191=1|10=215|
8=FIX.4.3|9=84|35=S|49=TESTI|56=TESTA|34=1|52=20030204-09:25:43|117=11223|55=TESTB|133=15.3|191=-1|10=005|
8=FIX.4.3|9=85|35=S|49=TESTI|56=TESTA|34=1|52=20030204-09:25:43|117=11223|55=TESTB|133=15.3|191=0.1|10=055|
8=FIX.4.3|9=86|35=S|49=TESTI|56=TESTA|34=1|52=20030204-09:25:43|117=11223|55=TESTB|133=15.3|191=-0.1|10=101|
8=FIX.4.3|9=84|35=S|49=TESTI|56=TESTA|34=1|52=20030204-09:25:43|117=11223|55=TESTB|133=15.3|191=.1|10=006|
8=FIX.4.3|9=85|35=S|49=TESTI|56=TESTA|34=1|52=20030204-09:25:43|117=11223|55=TESTB|133=15.3|191=-.1|10=052|
8=FIX.4.3|9=86|35=S|49=TESTI|56=TESTA|34=1|52=20030204-09:25:43|117=11223|55=TESTB|133=15.3|191=0.01|10=104|
8=FIX.4.3|9=87|35=S|49=TESTI|56=TESTA|34=1|52=20030204-09:25:43|117=11223|55=TESTB|133=15.3|191=-0.01|10=150|
8=FIX.4.3|9=85|35=S|49=TESTI|56=TESTA|34=1|52=20030204-09:25:43|117=11223|55=TESTB|133=15.3|191=1.1|10=056|
8=FIX.4.3|9=86|35=S|49=TESTI|56=TESTA|34=1|52=20030204-09:25:43|117=11223|55=TESTB|133=15.3|191=-1.1|10=102|
8=FIX.4.3|9=85|35=S|49=TESTI|56=TESTA|34=1|52=20030204-09:25:43|117=11223|55=TESTB|133=15.3|191=1.0|10=055|
8=FIX.4.3|9=88|35=S|49=TESTI|56=TESTA|34=1|52=20030204-09:25:43|117=11223|55=TESTB|133=15.3|191=1.0000|10=202|
8=FIX.4.3|9=84|35=S|49=TESTI|56=TESTA|34=1|52=20030204-09:25:43|117=11223|55=TESTB|133=15.3|191=01|10=008|
8=FIX.4.3|9=86|35=S|49=TESTI|56=TESTA|34=1|52=20030204-09:25:43|117=11223|55=TESTB|133=15.3|191=01.1|10=105|
8=FIX.4.3|9=87|35=S|49=TESTI|56=TESTA|34=1|52=20030204-09:25:43|117=11223|55=TESTB|133=15.3|191=00.01|10=153|
8=FIX.4.3|9=95|35=S|49=TESTI|56=TESTA|34=1|52=20030204-09:25:43|117=11223|55=TESTB|133=15.3|191=1000000000000|10=026|
8=FIX.4.3|9=96|35=S|49=TESTI|56=TESTA|34=1|52=20030204-09:25:43|117=11223|55=TESTB|133=15.3|191=-1000000000000|10=072|
8=FIX.4.3|9=97|35=S|49=TESTI|56=TESTA|34=1|52=20030204-09:25:43|117=11223|55=TESTB|133=15.3|191=0.0000000000001|10=122|
8=FIX.4.3|9=98|35=S|49=TESTI|56=TESTA|34=1|52=20030204-09:25:43|117=11223|55=TESTB|133=15.3|191=-0.0000000000001|10=168|
8=FIX.4.3|9=74|35=h|49=TESTI|56=TESTA|34=1|52=20030204-08:49:42|336=PRE-OPEN|340=2|387=0|10=135|
8=FIX.4.3|9=83|35=h|49=TESTI|56=TESTA|34=1|52=20030204-08:49:42|336=PRE-OPEN|340=2|387=4000000000|10=059|
8=FIX.4.3|9=76|35=h|49=TESTI|56=TESTA|34=1|52=20030204-08:49:42|336=PRE-OPEN|340=2|387=0.9|10=240|
8=FIX.4.3|9=76|35=h|49=TESTI|56=TESTA|34=1|52=20030204-08:49:42|336=PRE-OPEN|340=2|387=100|10=234|
8=FIX.4.3|9=76|35=h|49=TESTI|56=TESTA|34=1|52=20030204-08:49:42|336=PRE-OPEN|340=2|387=.99|10=249|
8=FIX.4.3|9=78|35=h|49=TESTI|56=TESTA|34=1|52=20030204-08:49:42|336=PRE-OPEN|340=2|387=10.09|10=083|
8=FIX.4.3|9=79|35=h|49=TESTI|56=TESTA|34=1|52=20030204-08:49:42|336=PRE-OPEN|340=2|387=-10.09|10=129|
8=FIX.4.3|9=66|35=j|49=TESTI|56=TESTA|34=1|52=20030204-08:56:41|45=1|372=9|380=0|10=068|
8=FIX.4.3|9=67|35=j|49=TESTI|56=TESTA|34=1|52=20030204-08:56:41|45=01|372=9|380=0|10=117|
8=FIX.4.3|9=69|35=j|49=TESTI|56=TESTA|34=1|52=20030204-08:56:41|45=4000|372=9|380=0|10=218|
8=FIX.4.3|9=111|35=8|49=TESTI|56=TESTA|34=1|52=20030203-16:09:30|37=a|17=11|39=0|150=0|55=TESTB|54=1|38=1000|151=1000|14=0|6=0|10=167|
8=FIX.4.3|9=111|35=8|49=TESTI|56=TESTA|34=1|52=20030203-16:09:30|37=z|17=11|39=0|150=0|55=TESTB|54=1|38=1000|151=1000|14=0|6=0|10=192|
8=FIX.4.3|9=111|35=8|49=TESTI|56=TESTA|34=1|52=20030203-16:09:30|37=A|17=11|39=0|150=0|55=TESTB|54=1|38=1000|151=1000|14=0|6=0|10=135|
8=FIX.4.3|9=111|35=8|49=TESTI|56=TESTA|34=1|52=20030203-16:09:30|37=Z|17=11|39=0|150=0|55=TESTB|54=1|38=1000|151=1000|14=0|6=0|10=160|
8=FIX.4.3|9=111|35=8|49=TESTI|56=TESTA|34=1|52=20030203-16:09:30|37=0|17=11|39=0|150=0|55=TESTB|54=1|38=1000|151=1000|14=0|6=0|10=118|
8=FIX.4.3|9=111|35=8|49=TESTI|56=TESTA|34=1|52=20030203-16:09:30|37=9|17=11|39=0|150=0|55=TESTB|54=1|38=1000|151=1000|14=0|6=0|10=127|
8=FIX.4.3|9=204|35=8|49=TESTI|56=TESTA|34=1|52=20030203-16:09:30|37=abcdefghijklmnopqrstuvwxyzABCDEFGHIJKLMNOPQRSTUVWXYZ0123456789!@#$%^&*()-_=+\|[{]};:'",<.>/?`~|17=11|39=0|150=0|55=TESTB|54=1|38=1000|151=1000|14=0|6=0|10=122|
8=FIX.4.3|9=113|35=8|49=TESTI|56=TESTA|34=1|52=20030203-16:09:30|37=a A|17=11|39=0|150=0|55=TESTB|54=1|38=1000|151=1000|14=0|6=0|10=010|
8=FIX.4.3|9=111|35=8|49=TESTI|56=TESTA|34=1|52=20030203-16:09:30|37=<|17=11|39=0|150=0|55=TESTB|54=1|38=1000|151=1000|14=0|6=0|10=130|
8=FIX.4.3|9=111|35=8|49=TESTI|56=TESTA|34=1|52=20030203-16:09:30|37=>|17=11|39=0|150=0|55=TESTB|54=1|38=1000|151=1000|14=0|6=0|10=132|
8=FIX.4.3|9=111|35=8|49=TESTI|56=TESTA|34=1|52=20030203-16:09:30|37="|17=11|39=0|150=0|55=TESTB|54=1|38=1000|151=1000|14=0|6=0|10=104|
8=FIX.4.3|9=111|35=8|49=TESTI|56=TESTA|34=1|52=20030203-16:09:30|37='|17=11|39=0|150=0|55=TESTB|54=1|38=1000|151=1000|14=0|6=0|10=109|
8=FIX.4.3|9=111|35=8|49=TESTI|56=TESTA|34=1|52=20030203-16:09:30|37=&|17=11|39=0|150=0|55=TESTB|54=1|38=1000|151=1000|14=0|6=0|10=108|
8=FIX.4.3|9=115|35=8|49=TESTI|56=TESTA|34=1|52=20030203-16:09:30|37=<>"'&|17=11|39=0|150=0|55=TESTB|54=1|38=1000|151=1000|14=0|6=0|10=51|
8=FIX.4.3|9=95|35=K|49=TESTI|56=TESTA|34=1|52=20030204-09:07:50|66=20012411|60=20060217-10:00:00|229=20030202|10=193|
8=FIX.4.3|9=193|35=AC|49=TESTI|56=TESTA|34=1|50=30737|97=Y|52=20030204-08:46:14|11=90001008|41=93452234|21=2|54=1|55=TESTB|555=2|600=TESTA|600=TESTC|60=20060217-10:00:00|38=4000|40=1|168=20060217-11:00:00.100|10=118|
8=FIX.4.3|9=193|35=AC|49=TESTI|56=TESTA|34=1|50=30737|97=Y|52=20030204-08:46:14|11=90001008|41=93452234|21=2|54=1|55=TESTB|555=2|600=TESTA|600=TESTC|60=20060217-10:00:00.999|38=4000|40=1|168=20060217-11:00:00|10=144|