8=FIX.4.1|9=82|35=7|49=TESTI|56=TESTA|34=1|52=20030203-16:02:35|2=20|5=N|55=TESTB|4=T|53=1000000|10=139|
8=FIX.4.1|9=89|35=7|49=TESTI|56=TESTA|34=1|52=20030203-16:02:35|2=20|5=C|3=TST3|55=TESTB|4=T|53=1000000|10=038|
8=FIX.4.1|9=89|35=7|49=TESTI|56=TESTA|34=1|52=20030203-16:02:35|2=20|5=R|3=TST3|55=TESTB|4=T|53=1000000|10=053|
8=FIX.4.1|9=138|35=8|49=TESTI|56=TESTA|34=1|52=20030203-16:09:30|37=11111111|17=12|20=0|32=500|31=0.01|39=0|150=0|55=TESTB|54=1|38=1000|151=1000|14=0|6=0|10=063|
8=FIX.4.1|9=147|35=8|49=TESTI|56=TESTA|34=1|52=20030203-16:09:30|37=11111111|17=12|20=1|19=TST19|32=500|31=0.01|39=0|150=0|55=TESTB|54=1|38=1000|151=1000|14=0|6=0|10=077|
8=FIX.4.1|9=147|35=8|49=TESTI|56=TESTA|34=1|52=20030203-16:09:30|37=11111111|17=12|20=2|19=TST19|32=500|31=0.01|39=0|150=0|55=TESTB|54=1|38=1000|151=1000|14=0|6=0|10=078|
8=FIX.4.1|9=132|35=8|49=TESTI|56=TESTA|34=1|52=20030203-16:09:30|37=11111111|17=12|20=3|19=TST19|39=0|150=0|55=TESTB|54=1|38=1000|151=1000|14=0|6=0|10=176|
8=FIX.4.1|9=79|35=6|49=TESTI|56=TESTA|34=1|52=20030203-16:10:01|23=24|28=N|55=TESTB|54=1|27=S|10=009|
8=FIX.4.1|9=88|35=6|49=TESTI|56=TESTA|34=1|52=20030203-16:10:01|23=24|28=C|26=TST26|55=TESTB|54=1|27=S|10=007|
8=FIX.4.1|9=88|35=6|49=TESTI|56=TESTA|34=1|52=20030203-16:10:01|23=24|28=R|26=TST26|55=TESTB|54=1|27=S|10=022|
8=FIX.4.1|9=107|35=D|49=TESTI|56=TESTA|34=1|50=30737|97=Y|52=20030204-08:46:14|11=90001008|21=2|55=TESTB|54=1|38=4000|40=5|10=076|
8=FIX.4.1|9=115|35=D|49=TESTI|56=TESTA|34=1|50=30737|97=Y|52=20030204-08:46:14|11=90001008|21=2|55=TESTB|54=1|38=4000|40=B|44=0.44|10=196|
8=FIX.4.1|9=115|35=D|49=TESTI|56=TESTA|34=1|50=30737|97=Y|52=20030204-08:46:14|11=90001008|21=2|55=TESTB|54=1|38=4000|40=3|99=0.45|10=192|
8=FIX.4.1|9=123|35=D|49=TESTI|56=TESTA|34=1|50=30737|97=Y|52=20030204-08:46:14|11=90001008|21=2|55=TESTB|54=1|38=4000|40=4|44=0.44|99=0.45|10=044|
8=FIX.4.1|9=118|35=D|49=TESTI|56=TESTA|34=1|50=30737|97=Y|52=20030204-08:46:14|11=90001008|21=2|55=TESTB|54=1|38=4000|40=D|117=TST117|10=200|
8=FIX.4.1|9=116|35=D|49=TESTI|56=TESTA|34=1|50=30737|97=Y|52=20030204-08:46:14|11=90001008|21=2|55=TESTB|54=1|38=4000|40=E|23=TST23|10=095|
8=FIX.4.1|9=107|35=D|49=TESTI|56=TESTA|34=1|50=30737|97=Y|52=20030204-08:46:14|11=90001008|21=2|55=TESTB|54=1|38=4000|40=G|10=094|
8=FIX.4.1|9=116|35=D|49=TESTI|56=TESTA|34=1|50=30737|97=Y|52=20030204-08:46:14|11=90001008|21=2|55=TESTB|54=1|38=4000|40=P|211=0011|10=251|
8=FIX.4.1|9=115|35=D|49=TESTI|56=TESTA|34=1|50=30737|97=Y|52=20030204-08:46:14|11=90001008|21=2|55=TESTB|54=1|38=4000|40=F|44=0.44|10=200|
8=FIX.4.1|9=112|35=D|49=TESTI|56=TESTA|34=1|50=30737|97=Y|52=20030204-08:46:14|11=90001008|21=2|55=TESTB|54=1|38=4000|40=1|59=1|10=033|
8=FIX.4.1|9=134|35=D|49=TESTI|56=TESTA|34=1|50=30737|97=Y|52=20030204-08:46:14|11=90001008|21=2|55=TESTB|54=1|38=4000|40=1|59=6|126=20030205-10:00:01|10=080|
8=FIX.4.1|9=132|35=E|49=TESTI|56=TESTA|34=1|52=20030204-08:18:22|66=20012411|67=2|68=3|69=Instruction|11=1131|63=0|21=3|55=TESTB3|54=3|38=3000|40=1|10=023|
8=FIX.4.1|9=144|35=E|49=TESTI|56=TESTA|34=1|52=20030204-08:18:22|66=20012411|67=2|68=3|69=Instruction|11=1131|63=6|64=20030205|21=3|55=TESTB3|54=3|38=3000|40=1|10=084|
8=FIX.4.1|9=144|35=E|49=TESTI|56=TESTA|34=1|52=20030204-08:18:22|66=20012411|67=2|68=3|69=Instruction|11=1131|63=8|64=20030205|21=3|55=TESTB3|54=3|38=3000|40=1|10=086|
8=FIX.4.1|9=195|35=J|49=TESTI|56=TESTA|34=1|52=20030204-08:56:41|70=1116226|71=0|73=2|11=90001008|11=90000008|54=1|55=TESTB|53=1004000|6=30|75=20030821|78=3|79=1000|80=500000|79=2000|80=400000|79=3000|80=104000|10=026|
8=FIX.4.1|9=204|35=J|49=TESTI|56=TESTA|34=1|52=20030204-08:56:41|70=1116226|71=1|72=TST72|73=2|11=90001008|11=90000008|54=1|55=TESTB|53=1004000|6=30|75=20030821|78=3|79=1000|80=500000|79=2000|80=400000|79=3000|80=104000|10=029|
8=FIX.4.1|9=204|35=J|49=TESTI|56=TESTA|34=1|52=20030204-08:56:41|70=1116226|71=2|72=TST72|73=2|11=90001008|11=90000008|54=1|55=TESTB|53=1004000|6=30|75=20030821|78=3|79=1000|80=500000|79=2000|80=400000|79=3000|80=104000|10=030|
8=FIX.4.1|9=195|35=J|49=TESTI|56=TESTA|34=1|52=20030204-08:56:41|70=1116226|71=3|73=2|11=90001008|11=90000008|54=1|55=TESTB|53=1004000|6=30|75=20030821|78=3|79=1000|80=500000|79=2000|80=400000|79=3000|80=104000|10=029|
8=FIX.4.1|9=204|35=J|49=TESTI|56=TESTA|34=1|52=20030204-08:56:41|70=1116226|71=4|72=TST72|73=2|11=90001008|11=90000008|54=1|55=TESTB|53=1004000|6=30|75=20030821|78=3|79=1000|80=500000|79=2000|80=400000|79=3000|80=104000|10=032|
8=FIX.4.1|9=80|35=P|49=TESTI|56=TESTA|34=1|52=20030204-09:17:25|70=3659000001|75=20030808|87=0|10=233|
8=FIX.4.1|9=85|35=P|49=TESTI|56=TESTA|34=1|52=20030204-09:17:25|70=3659000001|75=20030808|87=1|88=0|10=205|
8=FIX.4.1|9=80|35=P|49=TESTI|56=TESTA|34=1|52=20030204-09:17:25|70=3659000001|75=20030808|87=2|10=235|
8=FIX.4.1|9=80|35=P|49=TESTI|56=TESTA|34=1|52=20030204-09:17:25|70=3659000001|75=20030808|87=3|10=236|
8=FIX.4.1|9=110|35=T|49=TESTI|56=TESTA|34=1|52=20030204-09:25:43|162=11223|163=N|160=0|165=1|79=KTierney|60=20060217-10:00:00|10=052|
8=FIX.4.1|9=110|35=T|49=TESTI|56=TESTA|34=1|52=20030204-09:25:43|162=11223|163=N|160=1|165=1|79=KTierney|60=20060217-10:00:00|10=053|
8=FIX.4.1|9=149|35=T|49=TESTI|56=TESTA|34=1|52=20030204-09:25:43|162=11223|163=N|160=2|165=1|79=KTierney|166=CED|75=20030204|70=TST70|30=p|54=1|60=20060217-10:00:00|10=014|
8=FIX.4.1|9=149|35=T|49=TESTI|56=TESTA|34=1|52=20030204-09:25:43|162=11223|163=N|160=3|165=1|79=KTierney|166=CED|75=20030204|70=TST70|30=p|54=1|60=20060217-10:00:00|10=015|
8=FIX.4.1|9=118|35=T|49=TESTI|56=TESTA|34=1|52=20030204-09:25:43|162=11223|163=N|160=0|165=1|79=KTierney|167=FHA|60=20060217-10:00:00|10=231|
8=FIX.4.1|9=118|35=T|49=TESTI|56=TESTA|34=1|52=20030204-09:25:43|162=11223|163=N|160=0|165=1|79=KTierney|167=ZOO|60=20060217-10:00:00|10=016|
8=FIX.4.1|9=104|35=R|49=TESTI|56=TESTA|34=1|52=20030204-09:25:21|131=1272727|55=TESTB|167=OPT|200=200302|201=0|202=0022|10=032|
8=FIX.4.1|9=89|35=R|49=TESTI|56=TESTA|34=1|52=20030204-09:25:21|131=1272727|55=TESTB|167=FUT|200=200302|10=097|
8=FIX.4.1|9=77|35=R|49=TESTI|56=TESTA|34=1|52=20030204-09:25:21|131=1272727|55=TESTB|167=MF|10=011|
8=FIX.4.1|9=78|35=R|49=TESTI|56=TESTA|34=1|52=20030204-09:25:21|131=1272727|55=TESTB|167=FOR|10=096|
8=FIX.4.1|9=78|35=R|49=TESTI|56=TESTA|34=1|52=20030204-09:25:21|131=1272727|55=TESTB|167=CPP|10=092|
8=FIX.4.1|9=77|35=R|49=TESTI|56=TESTA|34=1|52=20030204-09:25:21|131=1272727|55=TESTB|167=PS|10=027|
8=FIX.4.1|9=78|35=R|49=TESTI|56=TESTA|34=1|52=20030204-09:25:21|131=1272727|55=TESTB|167=WAR|10=099|
8=FIX.4.1|9=133|35=8|49=TESTI|56=TESTA|34=1|52=20030203-16:09:30|37=11111111|17=11|20=3|39=0|150=0|55=TESTB|54=1|38=1000|32=0|31=0|151=1000|14=0|6=0|10=072|
8=FIX.4.1|9=133|35=8|49=TESTI|56=TESTA|34=1|52=20030203-16:09:30|37=11111111|17=11|20=3|39=0|150=3|55=TESTB|54=1|38=1000|32=0|31=0|151=1000|14=0|6=0|10=075|
8=FIX.4.1|9=157|35=C|49=TESTI|56=TESTA|34=1|52=20030203-16:20:05|164=111111111|94=0|147=Bunny's Birthday|33=3|58=Hello, Bunny!|58=Happy Birthday to you :)|58=Bye.|95=1|96=€|10=229|
8=FIX.4.1|9=167|35=C|49=TESTI|56=TESTA|34=1|52=20030203-16:20:05|164=111111111|94=0|147=Bunny's Birthday|33=3|58=Hello, Bunny!|58=Happy Birthday to you :)|58=Bye.|95=10|96=Ù‡…À˚“Û“¯Ÿ|10=006|
8=FIX.4.1|9=122|35=G|49=TESTI|56=TESTA|34=1|52=20030204-08:49:18|11=12233345|41=90001008|63=6|64=20030205|21=2|55=TESTB|54=1|38=4000|40=1|10=236|
8=FIX.4.1|9=102|35=Q|49=TESTI|56=TESTA|34=1|52=20030204-09:28:44|127=D|55=TESTB|167=FUT|200=200302|205=1|54=1|38=4000|10=178|
8=FIX.4.1|9=103|35=Q|49=TESTI|56=TESTA|34=1|52=20030204-09:28:44|127=D|55=TESTB|167=FUT|200=200302|205=31|54=1|38=4000|10=230|
8=FIX.4.1|9=129|35=8|49=TESTI|56=TESTA|34=1|52=20030203-16:09:30|37=11111111|17=12|20=3|39=0|150=0|55=TESTB|54=1|38=1000|151=1000|14=0|6=0|155=0|10=178|
8=FIX.4.1|9=129|35=8|49=TESTI|56=TESTA|34=1|52=20030203-16:09:30|37=11111111|17=12|20=3|39=0|150=0|55=TESTB|54=1|38=1000|151=1000|14=0|6=0|155=1|10=179|
8=FIX.4.1|9=130|35=8|49=TESTI|56=TESTA|34=1|52=20030203-16:09:30|37=11111111|17=12|20=3|39=0|150=0|55=TESTB|54=1|38=1000|151=1000|14=0|6=0|155=-1|10=216|
8=FIX.4.1|9=131|35=8|49=TESTI|56=TESTA|34=1|52=20030203-16:09:30|37=11111111|17=12|20=3|39=0|150=0|55=TESTB|54=1|38=1000|151=1000|14=0|6=0|155=0.1|10=010|
8=FIX.4.1|9=132|35=8|49=TESTI|56=TESTA|34=1|52=20030203-16:09:30|37=11111111|17=12|20=3|39=0|150=0|55=TESTB|54=1|38=1000|151=1000|14=0|6=0|155=-0.1|10=056|
8=FIX.4.1|9=130|35=8|49=TESTI|56=TESTA|34=1|52=20030203-16:09:30|37=11111111|17=12|20=3|39=0|150=0|55=TESTB|54=1|38=1000|151=1000|14=0|6=0|155=.1|10=217|
8=FIX.4.1|9=131|35=8|49=TESTI|56=TESTA|34=1|52=20030203-16:09:30|37=11111111|17=12|20=3|39=0|150=0|55=TESTB|54=1|38=1000|151=1000|14=0|6=0|155=-.1|10=007|
8=FIX.4.1|9=132|35=8|49=TESTI|56=TESTA|34=1|52=20030203-16:09:30|37=11111111|17=12|20=3|39=0|150=0|55=TESTB|54=1|38=1000|151=1000|14=0|6=0|155=0.01|10=059|
8=FIX.4.1|9=133|35=8|49=TESTI|56=TESTA|34=1|52=20030203-16:09:30|37=11111111|17=12|20=3|39=0|150=0|55=TESTB|54=1|38=1000|151=1000|14=0|6=0|155=-0.01|10=105|
8=FIX.4.1|9=131|35=8|49=TESTI|56=TESTA|34=1|52=20030203-16:09:30|37=11111111|17=12|20=3|39=0|150=0|55=TESTB|54=1|38=1000|151=1000|14=0|6=0|155=1.1|10=011|
8=FIX.4.1|9=132|35=8|49=TESTI|56=TESTA|34=1|52=20030203-16:09:30|37=11111111|17=12|20=3|39=0|150=0|55=TESTB|54=1|38=1000|151=1000|14=0|6=0|155=-1.1|10=057|
8=FIX.4.1|9=131|35=8|49=TESTI|56=TESTA|34=1|52=20030203-16:09:30|37=11111111|17=12|20=3|39=0|150=0|55=TESTB|54=1|38=1000|151=1000|14=0|6=0|155=1.0|10=010|
8=FIX.4.1|9=134|35=8|49=TESTI|56=TESTA|34=1|52=20030203-16:09:30|37=11111111|17=12|20=3|39=0|150=0|55=TESTB|54=1|38=1000|151=1000|14=0|6=0|155=1.0000|10=157|
8=FIX.4.1|9=130|35=8|49=TESTI|56=TESTA|34=1|52=20030203-16:09:30|37=11111111|17=12|20=3|39=0|150=0|55=TESTB|54=1|38=1000|151=1000|14=0|6=0|155=01|10=219|
8=FIX.4.1|9=132|35=8|49=TESTI|56=TESTA|34=1|52=20030203-16:09:30|37=11111111|17=12|20=3|39=0|150=0|55=TESTB|54=1|38=1000|151=1000|14=0|6=0|155=01.1|10=060|
8=FIX.4.1|9=133|35=8|49=TESTI|56=TESTA|34=1|52=20030203-16:09:30|37=11111111|17=12|20=3|39=0|150=0|55=TESTB|54=1|38=1000|151=1000|14=0|6=0|155=00.01|10=108|
8=FIX.4.1|9=141|35=8|49=TESTI|56=TESTA|34=1|52=20030203-16:09:30|37=11111111|17=12|20=3|39=0|150=0|55=TESTB|54=1|38=1000|151=1000|14=0|6=0|155=1000000000000|10=237|
8=FIX.4.1|9=142|35=8|49=TESTI|56=TESTA|34=1|52=20030203-16:09:30|37=11111111|17=12|20=3|39=0|150=0|55=TESTB|54=1|38=1000|151=1000|14=0|6=0|155=-1000000000000|10=027|
8=FIX.4.1|9=143|35=8|49=TESTI|56=TESTA|34=1|52=20030203-16:09:30|37=11111111|17=12|20=3|39=0|150=0|55=TESTB|54=1|38=1000|151=1000|14=0|6=0|155=0.0000000000001|10=077|
8=FIX.4.1|9=144|35=8|49=TESTI|56=TESTA|34=1|52=20030203-16:09:30|37=11111111|17=12|20=3|39=0|150=0|55=TESTB|54=1|38=1000|151=1000|14=0|6=0|155=-0.0000000000001|10=123|
8=FIX.4.1|9=82|35=Q|49=TESTI|56=TESTA|34=1|52=20030204-09:28:44|127=D|55=TESTB|54=1|38=4000|32=0|10=148|
8=FIX.4.1|9=82|35=Q|49=TESTI|56=TESTA|34=1|52=20030204-09:28:44|127=D|55=TESTB|54=1|38=4000|32=1|10=149|
8=FIX.4.1|9=83|35=Q|49=TESTI|56=TESTA|34=1|52=20030204-09:28:44|127=D|55=TESTB|54=1|38=4000|32=01|10=198|
8=FIX.4.1|9=91|35=Q|49=TESTI|56=TESTA|34=1|52=20030204-09:28:44|127=D|55=TESTB|54=1|38=4000|32=1000000000|10=069|
8=FIX.4.1|9=153|35=B|49=TESTI|56=TESTA|34=1|52=20030203-16:21:17|148=Weather|33=4|58=In the evening |58=it might be wet |58=and windy.|58= Take your coat on.|95=2|96=√€|10=167|
8=FIX.4.1|9=129|35=F|49=TESTI|56=TESTA|34=1|52=20030204-08:46:38|41=90001008|11=16161516|55=TESTB|167=FUT|200=200302|201=0|202=0022|54=1|38=4000|10=151|
8=FIX.4.1|9=132|35=T|49=TESTI|56=TESTA|34=1|52=20030204-09:25:43|162=11223|163=N|160=0|165=1|79=KTierney|168=20060217-11:00:00|60=20060217-10:00:00|10=106|