8=FIX.4.4|9=65|35=f|49=TESTI|56=TESTA|34=14|52=20030204-09:25:43|55=TESTB|291=12|10=181|
8=FIX.4.4|9=65|35=f|49=TESTI|56=TESTA|34=14|52=20030204-09:25:43|55=TESTB|291=-1|10=181|
8=FIX.4.4|9=65|35=f|49=TESTI|56=TESTA|34=14|52=20030204-09:25:43|55=TESTB|291=0|10=181|
8=FIX.4.4|9=65|35=f|49=TESTI|56=TESTA|34=14|52=20030204-09:25:43|55=TESTB|291=A b|10=181|
8=FIX.4.4|9=140|35=1|34=104|49=SNDR|56=TRGT|52=20090407-09:48:19.812|112= TEST #005 CHECK 4 REJECT MSGS with INVALID MESSAGE - INCORRECT DATA TYPE [MsgType:_f, Tag:_291]|10=018|
