8=FIX.4.4|9=174|35=u|49=SNDR|56=TRGT|34=2|50=30737|97=Y|52=20101111-10:36:11.197|548=42444008|551=30001008|549=1|550=0|552=A|54=1|11=B202020|41=B101010|38=4000|55=TESTA|60=20060217-10:00:00|10=240|
