8=FIX.4.4|9=257|35=AK|49=TESTI|56=TESTA|34=4|52=20030204-08:46:14|664=0001|666=0|773=1|665=4|60=20060217-10:00:00|75=20060217|711=1|311=TST311|555=1|600=TST600|55=TESTA|80=1000|54=1|862=2|528=A|529=0 12|863=400|528=P|529=8|863=600|79=KTierney|6=20|381=20000|118=2000|10=023|
8=FIX.4.4|9=257|35=AK|49=TESTI|56=TESTA|34=4|52=20030204-08:46:14|664=0001|666=0|773=1|665=4|60=20060217-10:00:00|75=20060217|711=1|311=TST311|555=1|600=TST600|55=TESTA|80=1000|54=1|862=2|528=A|529=1 B|863=400|528=P|529=8|863=600|79=KTierney|6=20|381=20000|118=2000|10=023|
8=FIX.4.4|9=257|35=AK|49=TESTI|56=TESTA|34=4|52=20030204-08:46:14|664=0001|666=0|773=1|665=4|60=20060217-10:00:00|75=20060217|711=1|311=TST311|555=1|600=TST600|55=TESTA|80=1000|54=1|862=2|528=A|529=a 3|863=400|528=P|529=8|863=600|79=KTierney|6=20|381=20000|118=2000|10=023|
8=FIX.4.4|9=257|35=AK|49=TESTI|56=TESTA|34=4|52=20030204-08:46:14|664=0001|666=0|773=1|665=4|60=20060217-10:00:00|75=20060217|711=1|311=TST311|555=1|600=TST600|55=TESTA|80=1000|54=1|862=2|528=A|529=10 9|863=400|528=P|529=8|863=600|79=KTierney|6=20|381=20000|118=2000|10=023|
8=FIX.4.4|9=140|35=1|34=104|49=SNDR|56=TRGT|52=20090407-09:48:19.812|112= TEST #007 CHECK 4 REJECT MSGS with INVALID MESSAGE - INCORRECT DATA TYPE [MsgType:_AK, Tag:_529]|10=018|
