8=FIX.4.4|9=103|35=W|49=TESTI|56=TESTA|34=14|52=20030204-09:25:43|55=TESTA|268=2|269=4|270=10|276=ABC|269=5|270=11|276=D|10=169|
8=FIX.4.4|9=103|35=W|49=TESTI|56=TESTA|34=14|52=20030204-09:25:43|55=TESTA|268=2|269=4|270=10|276=B Z D|269=5|270=11|276=D|10=169|
8=FIX.4.4|9=103|35=W|49=TESTI|56=TESTA|34=14|52=20030204-09:25:43|55=TESTA|268=2|269=4|270=10|276=a i|269=5|270=11|276=D|10=169|
8=FIX.4.4|9=103|35=W|49=TESTI|56=TESTA|34=14|52=20030204-09:25:43|55=TESTA|268=2|269=4|270=10|276=0|269=5|270=11|276=D|10=169|
8=FIX.4.4|9=140|35=1|34=104|49=SNDR|56=TRGT|52=20090407-09:48:19.812|112= TEST #002 CHECK 4 REJECT MSGS with INVALID MESSAGE - INCORRECT DATA TYPE [MsgType:_W, Tag:_276]|10=018|
