8=FIX.4.4|9=112|35=X|49=TESTI|56=TESTA|34=14|52=20030204-09:25:43|268=2|279=1|280=0001|270=10|277=A RR|279=1|280=0002|270=11|277=G|10=181|
8=FIX.4.4|9=112|35=X|49=TESTI|56=TESTA|34=14|52=20030204-09:25:43|268=2|279=1|280=0001|270=10|277=b d|279=1|280=0002|270=11|277=G|10=181|
8=FIX.4.4|9=112|35=X|49=TESTI|56=TESTA|34=14|52=20030204-09:25:43|268=2|279=1|280=0001|270=10|277=CC DD|279=1|280=0002|270=11|277=G|10=181|
8=FIX.4.4|9=112|35=X|49=TESTI|56=TESTA|34=14|52=20030204-09:25:43|268=2|279=1|280=0001|270=10|277=0|279=1|280=0002|270=11|277=G|10=181|
8=FIX.4.4|9=140|35=1|34=104|49=SNDR|56=TRGT|52=20090407-09:48:19.812|112= TEST #003 CHECK 4 REJECT MSGS with INVALID MESSAGE - INCORRECT DATA TYPE [MsgType:_X, Tag:_277]|10=018|
