8=FIX.4.4|9=182|35=s|49=TESTI|56=TESTA|34=4|52=20030204-08:46:14|548=90001008|549=1|550=0|552=2|54=1|11=B101010|38=4000|54=2|11=S101010|38=5000|55=TESTA|60=20060217-10:00:00|40=1|18=11 ee|10=065|
8=FIX.4.4|9=182|35=s|49=TESTI|56=TESTA|34=4|52=20030204-08:46:14|548=90001008|549=1|550=0|552=2|54=1|11=B101010|38=4000|54=2|11=S101010|38=5000|55=TESTA|60=20060217-10:00:00|40=1|18=-1|10=065|
8=FIX.4.4|9=182|35=s|49=TESTI|56=TESTA|34=4|52=20030204-08:46:14|548=90001008|549=1|550=0|552=2|54=1|11=B101010|38=4000|54=2|11=S101010|38=5000|55=TESTA|60=20060217-10:00:00|40=1|18=AA aaa|10=065|
8=FIX.4.4|9=182|35=s|49=TESTI|56=TESTA|34=4|52=20030204-08:46:14|548=90001008|549=1|550=0|552=2|54=1|11=B101010|38=4000|54=2|11=S101010|38=5000|55=TESTA|60=20060217-10:00:00|40=1|18=b ee 5|10=065|
8=FIX.4.4|9=140|35=1|34=104|49=SNDR|56=TRGT|52=20090407-09:48:19.812|112= TEST #001 CHECK 4 REJECT MSGS with INVALID MESSAGE - INCORRECT DATA TYPE [MsgType:_s, Tag:_18]|10=018|
