8=FIX.4.4|9=120|35=V|49=TESTI|56=TESTA|34=14|52=20030204-09:25:43|262=11223|263=0|264=0|286=0 12|267=2|269=0|269=1|146=2|55=TESTA|55=TESTB|10=021|
8=FIX.4.4|9=120|35=V|49=TESTI|56=TESTA|34=14|52=20030204-09:25:43|262=11223|263=0|264=0|286=-1|267=2|269=0|269=1|146=2|55=TESTA|55=TESTB|10=021|
8=FIX.4.4|9=120|35=V|49=TESTI|56=TESTA|34=14|52=20030204-09:25:43|262=11223|263=0|264=0|286=A B|267=2|269=0|269=1|146=2|55=TESTA|55=TESTB|10=021|
8=FIX.4.4|9=120|35=V|49=TESTI|56=TESTA|34=14|52=20030204-09:25:43|262=11223|263=0|264=0|286=b c|267=2|269=0|269=1|146=2|55=TESTA|55=TESTB|10=021|
8=FIX.4.4|9=140|35=1|34=104|49=SNDR|56=TRGT|52=20090407-09:48:19.812|112= TEST #004 CHECK 4 REJECT MSGS with INVALID MESSAGE - INCORRECT DATA TYPE [MsgType:_V, Tag:_286]|10=018|
