8=FIXT.1.1|9=174|35=s|49=SNDR|56=TRGT|34=2|52=20100325-10:32:50.244|548=90001008|549=1|550=0|552=2|54=1|11=B101010|38=4000|54=2|11=S101010|38=5000|55=TESTA|60=20060217-10:00:00|40=1|18=11 ee|10=040|
8=FIXT.1.1|9=171|35=s|49=SNDR|56=TRGT|34=3|52=20100325-10:32:50.244|548=90001008|549=1|550=0|552=2|54=1|11=B101010|38=4000|54=2|11=S101010|38=5000|55=TESTA|60=20060217-10:00:00|40=1|18=-1|10=056|
8=FIXT.1.1|9=175|35=s|49=SNDR|56=TRGT|34=4|52=20100325-10:32:50.244|548=90001008|549=1|550=0|552=2|54=1|11=B101010|38=4000|54=2|11=S101010|38=5000|55=TESTA|60=20060217-10:00:00|40=1|18=AA aaa|10=164|
8=FIXT.1.1|9=175|35=s|49=SNDR|56=TRGT|34=5|52=20100325-10:32:50.244|548=90001008|549=1|550=0|552=2|54=1|11=B101010|38=4000|54=2|11=S101010|38=5000|55=TESTA|60=20060217-10:00:00|40=1|18=b ee 5|10=129|
8=FIXT.1.1|9=151|35=1|34=6|49=SNDR|56=TRGT|52=20100325-10:32:50.244|112= TEST #001 CHECK 4 REJECT MSGS with INVALID MESSAGE - INCORRECT DATA TYPE [MsgType:_s, Tag:_18]|10=193|
8=FIXT.1.1|9=134|35=V|49=SNDR|56=TRGT|34=7|52=20100325-10:32:50.244|262=11223|263=0|264=0|286=0 15|267=2|269=0|269=1|146=2|55=TESTA|63=1|55=TESTB|63=1|10=156|
8=FIXT.1.1|9=132|35=V|49=SNDR|56=TRGT|34=8|52=20100325-10:32:50.244|262=11223|263=0|264=0|286=-1|267=2|269=0|269=1|146=2|55=TESTA|63=1|55=TESTB|63=1|10=067|
8=FIXT.1.1|9=133|35=V|49=SNDR|56=TRGT|34=9|52=20100325-10:32:50.244|262=11223|263=0|264=0|286=A B|267=2|269=0|269=1|146=2|55=TESTA|63=1|55=TESTB|63=1|10=138|
8=FIXT.1.1|9=134|35=V|49=SNDR|56=TRGT|34=10|52=20100325-10:32:50.244|262=11223|263=0|264=0|286=b c|267=2|269=0|269=1|146=2|55=TESTA|63=1|55=TESTB|63=1|10=245|
8=FIXT.1.1|9=153|35=1|34=11|49=SNDR|56=TRGT|52=20100325-10:32:50.244|112= TEST #002 CHECK 4 REJECT MSGS with INVALID MESSAGE - INCORRECT DATA TYPE [MsgType:_V, Tag:_286]|10=010|
8=FIXT.1.1|9=68|35=f|49=SNDR|56=TRGT|34=12|52=20100325-10:32:50.244|55=TESTB|291=13|10=098|
8=FIXT.1.1|9=68|35=f|49=SNDR|56=TRGT|34=13|52=20100325-10:32:50.244|55=TESTB|291=-1|10=093|
8=FIXT.1.1|9=67|35=f|49=SNDR|56=TRGT|34=14|52=20100325-10:32:50.244|55=TESTB|291=0|10=047|
8=FIXT.1.1|9=69|35=f|49=SNDR|56=TRGT|34=15|52=20100325-10:32:50.244|55=TESTB|291=A b|10=197|
8=FIXT.1.1|9=153|35=1|34=16|49=SNDR|56=TRGT|52=20100325-10:32:50.244|112= TEST #003 CHECK 4 REJECT MSGS with INVALID MESSAGE - INCORRECT DATA TYPE [MsgType:_f, Tag:_291]|10=028|
8=FIXT.1.1|9=68|35=f|49=SNDR|56=TRGT|34=17|52=20100325-10:32:50.244|55=TESTB|292=AV|10=155|
8=FIXT.1.1|9=68|35=f|49=SNDR|56=TRGT|34=18|52=20100325-10:32:50.244|55=TESTB|292=-1|10=099|
8=FIXT.1.1|9=69|35=f|49=SNDR|56=TRGT|34=19|52=20100325-10:32:50.244|55=TESTB|292=A b|10=202|
8=FIXT.1.1|9=69|35=f|49=SNDR|56=TRGT|34=20|52=20100325-10:32:50.244|55=TESTB|292=c D|10=198|
8=FIXT.1.1|9=153|35=1|34=21|49=SNDR|56=TRGT|52=20100325-10:32:50.244|112= TEST #004 CHECK 4 REJECT MSGS with INVALID MESSAGE - INCORRECT DATA TYPE [MsgType:_f, Tag:_292]|10=026|
8=FIXT.1.1|9=254|35=AK|49=SNDR|56=TRGT|34=22|52=20100325-10:32:50.260|664=0001|666=0|773=1|665=4|60=20060217-10:00:00|75=20060217|711=1|311=TST311|555=1|600=TST600|55=TESTA|80=1000|54=1|862=2|528=A|529=0 12|863=400|528=P|529=8|863=600|79=KTierney|6=20|381=20000|118=2000|10=151|
8=FIXT.1.1|9=253|35=AK|49=SNDR|56=TRGT|34=23|52=20100325-10:32:50.260|664=0001|666=0|773=1|665=4|60=20060217-10:00:00|75=20060217|711=1|311=TST311|555=1|600=TST600|55=TESTA|80=1000|54=1|862=2|528=A|529=1 G|863=400|528=P|529=8|863=600|79=KTierney|6=20|381=20000|118=2000|10=124|
8=FIXT.1.1|9=253|35=AK|49=SNDR|56=TRGT|34=24|52=20100325-10:32:50.260|664=0001|666=0|773=1|665=4|60=20060217-10:00:00|75=20060217|711=1|311=TST311|555=1|600=TST600|55=TESTA|80=1000|54=1|862=2|528=A|529=a 3|863=400|528=P|529=8|863=600|79=KTierney|6=20|381=20000|118=2000|10=153|
8=FIXT.1.1|9=254|35=AK|49=SNDR|56=TRGT|34=25|52=20100325-10:32:50.260|664=0001|666=0|773=1|665=4|60=20060217-10:00:00|75=20060217|711=1|311=TST311|555=1|600=TST600|55=TESTA|80=1000|54=1|862=2|528=A|529=10 9|863=400|528=P|529=8|863=600|79=KTierney|6=20|381=20000|118=2000|10=161|
8=FIXT.1.1|9=154|35=1|34=26|49=SNDR|56=TRGT|52=20100325-10:32:50.260|112= TEST #005 CHECK 4 REJECT MSGS with INVALID MESSAGE - INCORRECT DATA TYPE [MsgType:_AK, Tag:_529]|10=072|
8=FIXT.1.1|9=135|35=V|49=SNDR|56=TRGT|34=27|52=20100325-10:32:50.260|262=11223|263=0|264=0|546=12 3|267=2|269=0|269=1|146=2|55=TESTA|63=1|55=TESTB|63=1|10=204|
8=FIXT.1.1|9=135|35=V|49=SNDR|56=TRGT|34=28|52=20100325-10:32:50.260|262=11223|263=0|264=0|546=3 21|267=2|269=0|269=1|146=2|55=TESTA|63=1|55=TESTB|63=1|10=205|
8=FIXT.1.1|9=134|35=V|49=SNDR|56=TRGT|34=29|52=20100325-10:32:50.260|262=11223|263=0|264=0|546=A 1|267=2|269=0|269=1|146=2|55=TESTA|63=1|55=TESTB|63=1|10=169|
8=FIXT.1.1|9=134|35=V|49=SNDR|56=TRGT|34=30|52=20100325-10:32:50.260|262=11223|263=0|264=0|546=b 2|267=2|269=0|269=1|146=2|55=TESTA|63=1|55=TESTB|63=1|10=195|
8=FIXT.1.1|9=153|35=1|34=31|49=SNDR|56=TRGT|52=20100325-10:32:50.260|112= TEST #006 CHECK 4 REJECT MSGS with INVALID MESSAGE - INCORRECT DATA TYPE [MsgType:_V, Tag:_546]|10=013|
8=FIXT.1.1|9=145|35=8|49=SNDR|56=TRGT|34=32|52=20100325-10:32:50.260|37=55667788|17=33|39=0|150=0|55=IBM|54=2|38=1000000|151=1000000|14=0|6=0|555=1|600=1|1384=0t|10=243|
8=FIXT.1.1|9=145|35=8|49=SNDR|56=TRGT|34=33|52=20100325-10:32:50.260|37=55667788|17=33|39=0|150=0|55=IBM|54=2|38=1000000|151=1000000|14=0|6=0|555=1|600=1|1384=-1|10=174|
8=FIXT.1.1|9=146|35=8|49=SNDR|56=TRGT|34=34|52=20100325-10:32:50.260|37=55667788|17=33|39=0|150=0|55=IBM|54=2|38=1000000|151=1000000|14=0|6=0|555=1|600=1|1384=Z z|10=070|
8=FIXT.1.1|9=147|35=8|49=SNDR|56=TRGT|34=35|52=20100325-10:32:50.260|37=55667788|17=33|39=0|150=0|55=IBM|54=2|38=1000000|151=1000000|14=0|6=0|555=1|600=1|1384=AA a|10=087|
8=FIXT.1.1|9=154|35=1|34=36|49=SNDR|56=TRGT|52=20100325-10:32:50.260|112= TEST #007 CHECK 4 REJECT MSGS with INVALID MESSAGE - INCORRECT DATA TYPE [MsgType:_8, Tag:_1384]|10=039|
8=FIXT.1.1|9=154|35=8|49=SNDR|56=TRGT|34=34|52=20100325-10:46:06.317|37=55667788|17=33|39=0|150=0|55=IBM|54=2|38=1000000|151=1000000|14=0|6=0|555=1|600=1|1384=G G G z z z|10=061|
