8=FIXT.1.1|9=113|35=W|49=SNDR|56=TRGT|34=38|52=20100325-10:46:18.348|55=TESTA|268=2|269=4|270=10|276=A B C|269=5|270=11|276=a b c|10=031|
8=FIXT.1.1|9=121|35=W|49=SNDR|56=TRGT|34=39|52=20100325-10:46:18.348|55=TESTA|268=2|269=4|270=10|276=0 1 2 k l|269=5|270=11|276=2 1 0 z b|10=140|
8=FIXT.1.1|9=125|35=W|49=SNDR|56=TRGT|34=40|52=20100325-10:46:18.348|55=TESTA|268=2|269=4|270=10|276=A A b b c c|269=5|270=11|276=D D D K k k|10=232|
8=FIXT.1.1|9=123|35=W|49=SNDR|56=TRGT|34=41|52=20100325-10:46:18.348|55=TESTA|268=2|269=4|270=10|276=w w v v 0 0|269=5|270=11|276=G G G G G|10=107|
8=FIXT.1.1|9=104|35=1|34=42|49=SNDR|56=TRGT|52=20100325-10:46:18.348|112= TEST #008 -- 4 valid messages MsgType "W"     |10=196|
8=FIXT.1.1|9=129|35=X|49=SNDR|56=TRGT|34=43|52=20100325-10:46:18.348|268=2|279=1|280=0001|270=10|277=A Z a z|279=1|280=0002|270=11|277=a a z z AA|10=076|
8=FIXT.1.1|9=131|35=X|49=SNDR|56=TRGT|34=44|52=20100325-10:46:18.348|268=2|279=1|280=0001|270=10|277=AK AL AM|279=1|280=0002|270=11|277=A K A L A M|10=230|
8=FIXT.1.1|9=136|35=X|49=SNDR|56=TRGT|34=45|52=20100325-10:46:18.348|268=2|279=1|280=0001|270=10|277=0 AT 0 AT AQ|279=1|280=0002|270=11|277=AE AF AG A F|10=246|
8=FIXT.1.1|9=128|35=X|49=SNDR|56=TRGT|34=46|52=20100325-10:46:18.348|268=2|279=1|280=0001|270=10|277=AA a AB|279=1|280=0002|270=11|277=AP AR A T|10=127|
8=FIXT.1.1|9=104|35=1|34=47|49=SNDR|56=TRGT|52=20100325-10:46:18.348|112= TEST #009 -- 4 valid messages MsgType "X"     |10=203|
8=FIXT.1.1|9=126|35=D|49=SNDR|56=TRGT|34=48|52=20100325-10:46:18.348|11=90001008|55=IBM|54=1|60=20080817-10:00:00|38=4000|40=1|1031=E.W TS TMO|10=136|
8=FIXT.1.1|9=127|35=D|49=SNDR|56=TRGT|34=49|52=20100325-10:46:18.348|11=90001008|55=IBM|54=1|60=20080817-10:00:00|38=4000|40=1|1031=ADD DIR DIR|10=176|
8=FIXT.1.1|9=130|35=D|49=SNDR|56=TRGT|34=50|52=20100325-10:46:18.348|11=90001008|55=IBM|54=1|60=20080817-10:00:00|38=4000|40=1|1031=NH SCL TMO TMO|10=147|
8=FIXT.1.1|9=133|35=D|49=SNDR|56=TRGT|34=51|52=20100325-10:46:18.348|11=90001008|55=IBM|54=1|60=20080817-10:00:00|38=4000|40=1|1031=TS LOO LOC LOO TS|10=095|
8=FIXT.1.1|9=104|35=1|34=52|49=SNDR|56=TRGT|52=20100325-10:46:18.364|112= TEST #010 -- 4 valid messages MsgType "D"     |10=169|
8=FIXT.1.1|9=127|35=AR|49=SNDR|56=TRGT|34=53|52=20100325-10:46:18.364|55=TEST|552=1|54=1|768=1|769=20080816-12:31:20|770=1|1035=E.W S.W E.W S.W|10=066|
8=FIXT.1.1|9=122|35=AR|49=SNDR|56=TRGT|34=54|52=20100325-10:46:18.364|55=TEST|552=1|54=1|768=1|769=20080816-12:31:20|770=1|1035=TS OVD MQT|10=092|
8=FIXT.1.1|9=123|35=AR|49=SNDR|56=TRGT|34=55|52=20100325-10:46:18.364|55=TEST|552=1|54=1|768=1|769=20080816-12:31:20|770=1|1035=FOK MAO MAC|10=106|
8=FIXT.1.1|9=123|35=AR|49=SNDR|56=TRGT|34=56|52=20100325-10:46:18.364|55=TEST|552=1|54=1|768=1|769=20080816-12:31:20|770=1|1035=WRK PEG WRK|10=161|
8=FIXT.1.1|9=104|35=1|34=57|49=SNDR|56=TRGT|52=20100325-10:46:18.364|112= TEST #011 -- 4 valid messages MsgType "AR"    |10=222|
