<?xml version="1.0" encoding="UTF-8"?>
<!DOCTYPE cases SYSTEM "../../../../cases.dtd" [
        <!ENTITY % content SYSTEM "../../../../Engine/Entities/definitions.inc">
        %content; ]>
<cases>
    <case name="11b_NewSeqNoEqual.def">
        &CLEAN_LOGS;
        &ENGINE_UP;

        <!--# SequenceReset where NewSeqNo is equal to the expected inbound MsgSeqNum-->
        <transport className="InitiatorSocketTransport" host="localhost" port="3000">

            <send>8=FIX.4.4#9=123#35=A#34=1#49=TW#52=20031027-14:29:11#56=ISLD#98=0#108=5#10=000#</send>
            <expect>
                8=FIX\.4\.4#9=\d{1,3}#35=A#34=1#49=ISLD#52=\d{8}-\d{2}:\d{2}:\d{2}(\.\d{3})?#56=TW#98=0#108=5#10=\d{3}#
            </expect>

            <!--# sequence reset without gap fill flag (default to N)-->

            <send>8=FIX.4.4#9=123#35=4#34=0#49=TW#52=20031027-14:29:11#56=ISLD#36=2#10=000#</send>
            <send>8=FIX.4.4#9=123#35=1#34=2#49=TW#52=20031027-14:29:11#56=ISLD#112=HELLO#10=000#</send>
            <expect>
                8=FIX\.4\.4#9=\d{1,3}#35=0#34=2#49=ISLD#52=\d{8}-\d{2}:\d{2}:\d{2}(\.\d{3})?#56=TW#112=HELLO#10=\d{3}#
            </expect>

            <!--# sequence reset with gap fill flag set to N-->

            <send>8=FIX.4.4#9=123#35=4#34=0#49=TW#52=20031027-14:29:11#56=ISLD#36=4#123=N#10=000#</send>
            <send>8=FIX.4.4#9=123#35=1#34=4#49=TW#52=20031027-14:29:11#56=ISLD#112=HELLO#10=000#</send>
            <expect>
                8=FIX\.4\.4#9=\d{1,3}#35=0#34=3#49=ISLD#52=\d{8}-\d{2}:\d{2}:\d{2}(\.\d{3})?#56=TW#112=HELLO#10=\d{3}#
            </expect>

            <!--# logout message and response-->

            <send>8=FIX.4.4#9=123#35=5#34=5#49=TW#52=20031027-14:29:11#56=ISLD#10=000#</send>
            <expect>8=FIX\.4\.4#9=\d{1,3}#35=5#34=4#49=ISLD#52=\d{8}-\d{2}:\d{2}:\d{2}(\.\d{3})?#56=TW#10=\d{3}#
            </expect>
        </transport>
        &ENGINE_DOWN;
    </case>
</cases>
