<?xml version="1.0" encoding="UTF-8"?>
<!DOCTYPE cases SYSTEM "../../../../cases.dtd" [
        <!ENTITY % content SYSTEM "../../../../Engine/Entities/definitions.inc">
        %content; ]>
<cases>
    <case name="2c_MsgSeqNumTooLow.def">
        &CLEAN_LOGS;
        &ENGINE_UP_WITH_ECHO_APP;

        <!--# If message sequence number is too low, we must disconnect-->
        <transport className="InitiatorSocketTransport" host="localhost" port="3000">

            <send>8=FIX.4.0#9=123#35=A#34=1#49=TW#52=20031027-14:29:11#56=ISLD#98=0#108=5#10=000#</send>
            <expect>8=FIX\.4\.0#9=\d{1,3}#35=A#34=1#49=ISLD#52=\d{8}-\d{2}:\d{2}:\d{2}#56=TW#98=0#108=5#10=\d{3}#
            </expect>

            <send>8=FIX.4.0#9=123#35=0#34=2#49=TW#52=20031027-14:29:11#56=ISLD#10=000#</send>
            <send>8=FIX.4.0#9=123#35=0#34=3#49=TW#52=20031027-14:29:11#56=ISLD#10=000#</send>
            <send>8=FIX.4.0#9=123#35=0#34=4#49=TW#52=20031027-14:29:11#56=ISLD#10=000#</send>
            <!--# Message 2 was already sent-->

            <send>8=FIX.4.0#9=123#35=0#34=2#49=TW#52=20031027-14:29:11#56=ISLD#10=000#</send>
            <expect>35=5</expect>
            <expect></expect>
        </transport>
        &ENGINE_DOWN;
    </case>
</cases>
