8=FIX.4.0|9=195|35=J|49=TESTI|56=TESTA|34=2|52=20030204-08:56:41|70=1116226|71=0|73=1|11=90000008|124=1|54=1|55=TESTB|53=1004000|6=30|75=20030821|78=1|79=1000|80=500000|10=028|
8=FIX.4.0|9=140|35=1|34=104|49=SNDR|56=TRGT|52=20090407-09:48:19.812|112=ch. REJECT: INVALID MESSAGE - REQUIRED TAG MISSING [MsgType:_J, Tag:_17]|10=018|
8=FIX.4.0|9=195|35=J|49=TESTI|56=TESTA|34=2|52=20030204-08:56:41|70=1116226|71=0|73=1|11=90000008|124=1|17=1001|54=1|55=TESTB|53=1004000|6=30|75=20030821|78=1|79=1000|80=500000|10=028|
8=FIX.4.0|9=140|35=1|34=104|49=SNDR|56=TRGT|52=20090407-09:48:19.812|112=ch. REJECT: INVALID MESSAGE - REQUIRED TAG MISSING [MsgType:_J, Tag:_32]|10=018|
8=FIX.4.0|9=195|35=J|49=TESTI|56=TESTA|34=2|52=20030204-08:56:41|70=1116226|71=0|73=1|11=90000008|124=1|17=1001|32=3002|54=1|55=TESTB|53=1004000|6=30|75=20030821|78=1|79=1000|80=500000|10=028|
8=FIX.4.0|9=140|35=1|34=104|49=SNDR|56=TRGT|52=20090407-09:48:19.812|112=ch. REJECT: INVALID MESSAGE - REQUIRED TAG MISSING [MsgType:_J, Tag:_31]|10=018|
8=FIX.4.0|9=195|35=J|49=TESTI|56=TESTA|34=2|52=20030204-08:56:41|70=1116226|71=0|73=1|11=90000008|54=1|55=TESTB|53=1004000|6=30|136=1|75=20030821|78=1|79=1000|80=500000|10=028|
8=FIX.4.0|9=140|35=1|34=104|49=SNDR|56=TRGT|52=20090407-09:48:19.812|112=ch. REJECT: INVALID MESSAGE - REQUIRED TAG MISSING [MsgType:_J, Tag:_137]|10=018|
8=FIX.4.0|9=195|35=J|49=TESTI|56=TESTA|34=2|52=20030204-08:56:41|70=1116226|71=0|73=1|11=90000008|54=1|55=TESTB|53=1004000|6=30|136=1|137=10|75=20030821|78=1|79=1000|80=500000|10=028|
8=FIX.4.0|9=140|35=1|34=104|49=SNDR|56=TRGT|52=20090407-09:48:19.812|112=ch. REJECT: INVALID MESSAGE - REQUIRED TAG MISSING [MsgType:_J, Tag:_138]|10=018|
8=FIX.4.0|9=195|35=J|49=TESTI|56=TESTA|34=2|52=20030204-08:56:41|70=1116226|71=0|73=1|11=90000008|54=1|55=TESTB|53=1004000|6=30|136=1|137=10|138=USD|75=20030821|78=1|79=1000|80=500000|10=028|
8=FIX.4.0|9=140|35=1|34=104|49=SNDR|56=TRGT|52=20090407-09:48:19.812|112=ch. REJECT: INVALID MESSAGE - REQUIRED TAG MISSING [MsgType:_J, Tag:_139]|10=018|
8=FIX.4.0|9=195|35=J|49=TESTI|56=TESTA|34=2|52=20030204-08:56:41|70=1116226|71=0|73=1|11=90000008|54=1|55=TESTB|53=1004000|6=30|75=20030821|78=1|79=1000|80=500000|85=1|10=028|
8=FIX.4.0|9=140|35=1|34=104|49=SNDR|56=TRGT|52=20090407-09:48:19.812|112=ch. REJECT: INVALID MESSAGE - REQUIRED TAG MISSING [MsgType:_J, Tag:_92]|10=018|
8=FIX.4.0|9=195|35=J|49=TESTI|56=TESTA|34=2|52=20030204-08:56:41|70=1116226|71=0|73=1|11=90000008|54=1|55=TESTB|53=1004000|6=30|75=20030821|78=1|79=1000|80=500000|85=1|92=00092|10=028|
8=FIX.4.0|9=140|35=1|34=104|49=SNDR|56=TRGT|52=20090407-09:48:19.812|112=ch. REJECT: INVALID MESSAGE - REQUIRED TAG MISSING [MsgType:_J, Tag:_86]|10=018|
8=FIX.4.0|9=80|35=P|49=TESTI|56=TESTA|34=2|52=20030204-09:17:25|70=3659000001|75=20030808|87=1|10=238|
8=FIX.4.0|9=140|35=1|34=104|49=SNDR|56=TRGT|52=20090407-09:48:19.812|112=ch. REJECT: INVALID MESSAGE - REQUIRED TAG MISSING [MsgType:_P, Tag:_88]|10=018|
