8=FIX.4.0|9=131|35=B|49=TESTI|56=TESTA|34=2|52=20030203-16:21:17|33=4|58=In the evening |58=it might be wet |58=and windy.|58= Take your coat on.|95=2|10=007|
8=FIX.4.0|9=140|35=1|34=104|49=SNDR|56=TRGT|52=20090407-09:48:19.812|112=ch. REJECT: INVALID MESSAGE - REQUIRED TAG MISSING [MsgType:_B, Tag:_96]|10=018|
8=FIX.4.0|9=112|35=C|49=TESTI|56=TESTA|34=2|52=20030203-16:20:05|94=0|33=3|58=Hello, Bunny!|58=Happy Birthday to you :)|58=Bye.|95=2|10=016|
8=FIX.4.0|9=140|35=1|34=104|49=SNDR|56=TRGT|52=20090407-09:48:19.812|112=ch. REJECT: INVALID MESSAGE - REQUIRED TAG MISSING [MsgType:_C, Tag:_96]|10=018|
8=FIX.4.0|9=107|35=D|49=TESTI|56=TESTA|34=2|52=20030204-08:46:14|11=90001008|63=6|21=2|55=TESTB|54=1|38=4000|40=1|10=074|
8=FIX.4.0|9=140|35=1|34=104|49=SNDR|56=TRGT|52=20090407-09:48:19.812|112=ch. REJECT: INVALID MESSAGE - REQUIRED TAG MISSING [MsgType:_D, Tag:_64]|10=018|
8=FIX.4.0|9=107|35=D|49=TESTI|56=TESTA|34=2|52=20030204-08:46:14|11=90001008|21=2|55=TESTB|54=5|38=4000|40=1|10=074|
8=FIX.4.0|9=140|35=1|34=104|49=SNDR|56=TRGT|52=20090407-09:48:19.812|112=ch. REJECT: INVALID MESSAGE - REQUIRED TAG MISSING [MsgType:_D, Tag:_114]|10=018|
8=FIX.4.0|9=107|35=D|49=TESTI|56=TESTA|34=2|52=20030204-08:46:14|11=90001008|21=2|55=TESTB|54=1|38=4000|40=2|10=074|
8=FIX.4.0|9=140|35=1|34=104|49=SNDR|56=TRGT|52=20090407-09:48:19.812|112=ch. REJECT: INVALID MESSAGE - REQUIRED TAG MISSING [MsgType:_D, Tag:_44]|10=018|
8=FIX.4.0|9=107|35=D|49=TESTI|56=TESTA|34=2|52=20030204-08:46:14|11=90001008|21=2|55=TESTB|54=1|38=4000|40=3|10=074|
8=FIX.4.0|9=140|35=1|34=104|49=SNDR|56=TRGT|52=20090407-09:48:19.812|112=ch. REJECT: INVALID MESSAGE - REQUIRED TAG MISSING [MsgType:_D, Tag:_99]|10=018|
8=FIX.4.0|9=107|35=D|49=TESTI|56=TESTA|34=2|52=20030204-08:46:14|11=90001008|21=2|55=TESTB|54=1|38=4000|40=E|10=074|
8=FIX.4.0|9=140|35=1|34=104|49=SNDR|56=TRGT|52=20090407-09:48:19.812|112=ch. REJECT: INVALID MESSAGE - REQUIRED TAG MISSING [MsgType:_D, Tag:_23]|10=018|
8=FIX.4.0|9=107|35=D|49=TESTI|56=TESTA|34=2|52=20030204-08:46:14|11=90001008|21=2|55=TESTB|54=1|38=4000|40=D|10=074|
8=FIX.4.0|9=140|35=1|34=104|49=SNDR|56=TRGT|52=20090407-09:48:19.812|112=ch. REJECT: INVALID MESSAGE - REQUIRED TAG MISSING [MsgType:_D, Tag:_117]|10=018|
8=FIX.4.0|9=107|35=D|49=TESTI|56=TESTA|34=2|52=20030204-08:46:14|11=90001008|21=2|55=TESTB|54=1|38=4000|40=1|59=6|10=074|
8=FIX.4.0|9=140|35=1|34=104|49=SNDR|56=TRGT|52=20090407-09:48:19.812|112=ch. REJECT: INVALID MESSAGE - REQUIRED TAG MISSING [MsgType:_D, Tag:_126]|10=018|
8=FIX.4.0|9=107|35=D|49=TESTI|56=TESTA|34=2|52=20030204-08:46:14|11=90001008|21=2|55=TESTB|54=1|38=4000|40=1|121=Y|10=074|
8=FIX.4.0|9=140|35=1|34=104|49=SNDR|56=TRGT|52=20090407-09:48:19.812|112=ch. REJECT: INVALID MESSAGE - REQUIRED TAG MISSING [MsgType:_D, Tag:_120]|10=018|
