8=FIX.4.0|9=81|35=6|49=TESTI|56=TESTA|34=2|52=20030203-16:10:01|23=24|28=C|55=TESTB|54=1|27=S|10=100|
8=FIX.4.0|9=140|35=1|34=104|49=SNDR|56=TRGT|52=20090407-09:48:19|112=ch. REJECT: INVALID MESSAGE - REQUIRED TAG MISSING [MsgType:_6, Tag:_26]|10=018|
8=FIX.4.0|9=83|35=7|49=TESTI|56=TESTA|34=2|52=20030203-16:02:35|2=20|5=R|55=TESTB|4=T|53=1000000|10=190|
8=FIX.4.0|9=140|35=1|34=104|49=SNDR|56=TRGT|52=20090407-09:48:19.812|112=ch. REJECT: INVALID MESSAGE - REQUIRED TAG MISSING [MsgType:_7, Tag:_3]|10=018|
8=FIX.4.0|9=110|35=8|49=TESTI|56=TESTA|34=2|52=20030203-16:09:30|37=11111111|17=12|20=2|39=0|55=TESTB|54=1|38=1000|14=0|6=0|10=105|
8=FIX.4.0|9=140|35=1|34=104|49=SNDR|56=TRGT|52=20090407-09:48:19.812|112=ch. REJECT: INVALID MESSAGE - REQUIRED TAG MISSING [MsgType:_8, Tag:_19]|10=018|
8=FIX.4.0|9=110|35=8|49=TESTI|56=TESTA|34=2|52=20030203-16:09:30|37=11111111|17=12|20=3|39=0|63=6|55=TESTB|54=1|38=1000|14=0|6=0|10=105|
8=FIX.4.0|9=140|35=1|34=104|49=SNDR|56=TRGT|52=20090407-09:48:19.812|112=ch. REJECT: INVALID MESSAGE - REQUIRED TAG MISSING [MsgType:_8, Tag:_64]|10=018|
8=FIX.4.0|9=110|35=8|49=TESTI|56=TESTA|34=2|52=20030203-16:09:30|37=11111111|17=12|20=3|39=0|55=TESTB|54=1|38=1000|40=4|14=0|6=0|10=105|
8=FIX.4.0|9=140|35=1|34=104|49=SNDR|56=TRGT|52=20090407-09:48:19.812|112=ch. REJECT: INVALID MESSAGE - REQUIRED TAG MISSING [MsgType:_8, Tag:_99]|10=018|
8=FIX.4.0|9=110|35=8|49=TESTI|56=TESTA|34=2|52=20030203-16:09:30|37=11111111|17=12|20=3|39=0|55=TESTB|54=1|38=1000|59=6|14=0|6=0|10=105|
8=FIX.4.0|9=140|35=1|34=104|49=SNDR|56=TRGT|52=20090407-09:48:19.812|112=ch. REJECT: INVALID MESSAGE - REQUIRED TAG MISSING [MsgType:_8, Tag:_126]|10=018|
8=FIX.4.0|9=110|35=8|49=TESTI|56=TESTA|34=2|52=20030203-16:09:30|37=11111111|17=12|20=3|39=0|55=TESTB|54=1|38=1000|14=0|6=0|136=1|10=105|
8=FIX.4.0|9=140|35=1|34=104|49=SNDR|56=TRGT|52=20090407-09:48:19.812|112=ch. REJECT: INVALID MESSAGE - REQUIRED TAG MISSING [MsgType:_8, Tag:_137]|10=018|
8=FIX.4.0|9=110|35=8|49=TESTI|56=TESTA|34=2|52=20030203-16:09:30|37=11111111|17=12|20=3|39=0|55=TESTB|54=1|38=1000|14=0|6=0|136=1|137=10|10=105|
8=FIX.4.0|9=140|35=1|34=104|49=SNDR|56=TRGT|52=20090407-09:48:19.812|112=ch. REJECT: INVALID MESSAGE - REQUIRED TAG MISSING [MsgType:_8, Tag:_138]|10=018|
8=FIX.4.0|9=110|35=8|49=TESTI|56=TESTA|34=2|52=20030203-16:09:30|37=11111111|17=12|20=3|39=0|55=TESTB|54=1|38=1000|14=0|6=0|136=1|137=10|138=AUD|10=105|
8=FIX.4.0|9=140|35=1|34=104|49=SNDR|56=TRGT|52=20090407-09:48:19.812|112=ch. REJECT: INVALID MESSAGE - REQUIRED TAG MISSING [MsgType:_8, Tag:_139]|10=018|
