8=FIX.4.1|9=157|35=0|49=C|56=C|115=C|128=C|90=1|91=D|34=1|50=C|142=C|57=C|143=C|116=C|144=C|129=C|145=C|43=Y|97=Y|52=20010101-01:01:01|122=20010101-01:01:01|112=C|93=1|89=D|10=017|