8=FIX.4.1|9=202|35=N|49=C|56=C|115=C|128=C|90=1|91=D|34=1|50=C|142=C|57=C|143=C|116=C|144=C|129=C|145=C|43=Y|97=Y|52=20010101-01:01:01|122=20010101-01:01:01|66=C|105=C|82=1|83=1|73=1|11=C|14=0|151=0|84=0|6=0|93=1|89=D|10=218|