8=FIX.4.3|9=83|35=h|49=TESTI|56=TESTA|34=12|52=20030204-08:49:42|336=PRE-OPEN|625=PRE-OPEN1|340=2|10=251|
