8=FIX.4.3|9=104|35=k|49=TESTI|56=TESTA|34=6|52=20030204-09:07:50|391=20012411|374=N|393=2|394=1|398=1|399=1|418=A|419=4|10=125|
