8=FIX.4.3|9=86|35=p|49=TESTI|56=TESTA|34=7|52=20030204-09:17:25|513=3659000001|514=0|508=00007|506=A|10=033|
