8=FIX.4.3|9=224|35=s|49=TESTI|56=TESTA|34=4|50=30737|97=Y|52=20030204-08:46:14|548=90001008|549=1|550=0|552=2|54=1|11=B101010|229=20070226|1=15785|38=4000|54=2|11=S101010|229=20070226|1=15785|38=5000|55=TESTA|21=1|60=20060217-10:00:00|40=1|10=006|
