8=FIX.4.3|9=264|35=t|49=TESTI|56=TESTA|34=4|50=30737|97=Y|52=20030204-08:46:14|548=42444008|551=30001008|549=1|550=0|552=2|54=1|11=B202020|41=B101010|229=20070223|1=15079|38=4000|54=2|11=S202020|41=S101010|229=20070222|1=15080|38=5000|55=TESTA|63=0|21=1|60=20060217-10:00:00|40=1|10=095|
