8=FIX.4.2|9=81|35=6|49=TESTI|56=TESTA|34=121|52=20030203-16:10:01|23=24|28=N|55=TESTB|54=1|27=S|10=102|
8=FIX.4.2|9=83|35=7|49=TESTI|56=TESTA|34=31|52=20030203-16:02:35|2=20|5=N|55=TESTB|4=T|53=1000000|10=192|
8=FIX.4.2|9=99|35=7|49=TESTI|56=TESTA|34=31|52=20030203-16:02:35|2=20|5=N|55=TESTB|4=T|53=1000000|336=TestSession|10=037|
8=FIX.4.2|9=135|35=8|49=TESTI|56=TESTA|34=114|52=20030203-16:09:30|37=11111111|17=11|20=0|39=0|150=0|55=TESTB|54=1|38=1000|32=0|31=0|151=1000|14=0|6=0|10=173|
8=FIX.4.2|9=125|35=8|49=TESTI|56=TESTA|34=114|52=20030203-16:09:30|37=11111111|17=12|20=3|39=0|150=0|55=TESTB|54=1|38=1000|151=1000|14=0|6=0|10=011|
8=FIX.4.2|9=102|35=9|49=TESTI|56=TESTA|34=3|52=20030203-16:13:14|37=11111111|11=12121212122|41=11111111111|39=0|434=1|10=209|
8=FIX.4.2|9=59|35=a|49=TESTI|56=TESTA|34=14|52=20030204-09:25:43|55=TESTB|10=165|
8=FIX.4.2|9=64|35=a|49=TESTI|56=TESTA|34=14|52=20030204-09:25:43|55=TESTB|54=1|10=121|
8=FIX.4.2|9=143|35=B|49=TESTI|56=TESTA|34=19|52=20030203-16:21:17|148=Weather|33=4|58=In the evening |58=it might be wet |58=and windy.|58= Take your coat on.|10=183|
8=FIX.4.2|9=56|35=b|49=TESTI|56=TESTA|34=14|52=20030204-09:25:43|297=0|10=137|
8=FIX.4.2|9=147|35=C|49=TESTI|56=TESTA|34=4|52=20030203-16:20:05|164=111111111|94=0|147=Bunny's Birthday|33=3|58=Hello, Bunny!|58=Happy Birthday to you :)|58=Bye.|10=131|
8=FIX.4.2|9=65|35=c|49=TESTI|56=TESTA|34=14|52=20030204-09:25:43|320=0001|321=0|10=018|
8=FIX.4.2|9=91|35=c|49=TESTI|56=TESTA|34=14|52=20030204-09:25:43|320=0001|321=0|146=2|311=TESTB|311=TESTC|10=199|
8=FIX.4.2|9=128|35=D|49=TESTI|56=TESTA|34=4|50=30737|97=Y|52=20030204-08:46:14|11=90001008|21=2|55=TESTB|54=1|60=20060217-10:00:00|38=4000|40=1|10=071|
8=FIX.4.2|9=74|35=d|49=TESTI|56=TESTA|34=14|52=20030204-09:25:43|320=0001|322=0001|393=0|10=178|
8=FIX.4.2|9=100|35=d|49=TESTI|56=TESTA|34=14|52=20030204-09:25:43|320=0001|322=0001|393=0|146=2|311=TESTB|311=TESTC|10=142|
8=FIX.4.2|9=149|35=E|49=TESTI|56=TESTA|34=3|52=20030204-08:18:22|66=20012411|394=3|68=1|73=2|11=1131|67=1|55=TESTB3|54=3|38=3000|11=1132|67=2|55=TESTB2|54=1|38=1000|10=031|
8=FIX.4.2|9=159|35=E|49=TESTI|56=TESTA|34=3|52=20030204-08:18:22|66=20012411|394=3|68=1|73=2|11=1131|67=1|21=1|55=TESTB3|54=3|38=3000|11=1132|67=2|21=1|55=TESTB2|54=1|38=1000|10=196|
8=FIX.4.2|9=74|35=e|49=TESTI|56=TESTA|34=14|52=20030204-09:25:43|324=0001|55=TESTB|263=0|10=071|
8=FIX.4.2|9=116|35=F|49=TESTI|56=TESTA|34=9|52=20030204-08:46:38|41=90001008|11=16161516|55=TESTB|54=1|60=20060117-10:00:00|38=4000|10=058|
8=FIX.4.2|9=59|35=f|49=TESTI|56=TESTA|34=14|52=20030204-09:25:43|55=TESTB|10=170|
8=FIX.4.2|9=68|35=f|49=TESTI|56=TESTA|34=14|52=20030204-09:25:43|324=0001|55=TESTB|10=066|
8=FIX.4.2|9=126|35=G|49=TESTI|56=TESTA|34=6|52=20030204-08:49:18|11=12233345|41=90001008|21=2|55=TESTB|54=1|60=20060117-10:00:00|38=4000|40=1|10=220|
8=FIX.4.2|9=131|35=G|49=TESTI|56=TESTA|34=6|52=20030204-08:49:18|11=12233345|41=90001008|63=0|21=2|55=TESTB|54=1|60=20060117-10:00:00|38=4000|40=1|10=175|
8=FIX.4.2|9=65|35=g|49=TESTI|56=TESTA|34=14|52=20030204-09:25:43|335=0001|263=0|10=033|
8=FIX.4.2|9=76|35=H|49=TESTI|56=TESTA|34=12|52=20030204-08:49:42|11=90001008|55=TESTB|54=1|10=151|
8=FIX.4.2|9=69|35=h|49=TESTI|56=TESTA|34=12|52=20030204-08:49:42|336=PRE-OPEN|340=2|10=172|
8=FIX.4.2|9=244|35=i|49=TESTI|56=TESTA|34=4|52=20030204-08:56:41|117=1116226|296=2|302=0001|311=TESTA|304=5|295=2|299=11|55=TESTB|132=11|299=12|55=TESTC|133=12|302=0002|311=TESTB|304=5|295=3|299=21|55=TESTD|132=13|299=22|55=TESTE|133=14|299=23|55=TESTF|133=15|10=035|
8=FIX.4.2|9=195|35=J|49=TESTI|56=TESTA|34=4|52=20030204-08:56:41|70=1116226|71=0|73=2|11=90001008|11=90000008|54=1|55=TESTB|53=1004000|6=30|75=20030821|78=3|79=1000|80=500000|79=2000|80=400000|79=3000|80=104000|10=030|
8=FIX.4.2|9=61|35=j|49=TESTI|56=TESTA|34=4|52=20030204-08:56:41|372=9|380=0|10=105|
8=FIX.4.2|9=92|35=k|49=TESTI|56=TESTA|34=6|52=20030204-09:07:50|391=20012411|374=N|393=2|394=3|418=A|419=4|10=045|
8=FIX.4.2|9=82|35=K|49=TESTI|56=TESTA|34=6|52=20030204-09:07:50|66=20012411|60=20060217-10:00:00|10=093|
8=FIX.4.2|9=78|35=l|49=TESTI|56=TESTA|34=6|52=20030204-09:07:50|420=2|12=5|13=1|12=0.07|13=2|10=063|
8=FIX.4.2|9=82|35=L|49=TESTI|56=TESTA|34=9|52=20030204-09:08:00|66=20012411|60=20060217-09:00:00|10=101|
8=FIX.4.2|9=62|35=M|49=TESTI|56=TESTA|34=12|52=20030204-09:08:11|66=20012411|10=144|
8=FIX.4.2|9=103|35=m|49=TESTI|56=TESTA|34=6|52=20030204-09:07:50|66=0002|422=4|428=2|55=TESTA|44=10.5|55=TESTB|44=11.8|10=043|
8=FIX.4.2|9=219|35=N|49=TESTI|56=TESTA|34=15|52=20030204-09:08:23|66=20012411|429=1|82=3|431=3|83=1|68=5|73=3|11=1111|14=11|39=1|151=89|84=0|6=12|11=1121|14=1000|39=1|151=500|84=1000|6=2.28|11=1131|14=2500|39=1|151=500|84=1500|6=34.11|10=053|
8=FIX.4.2|9=80|35=P|49=TESTI|56=TESTA|34=7|52=20030204-09:17:25|70=3659000001|75=20030808|87=0|10=240|
8=FIX.4.2|9=95|35=Q|49=TESTI|56=TESTA|34=4|52=20030204-09:28:44|37=01923883|17=11|127=D|55=TESTB|54=1|38=4000|10=027|
8=FIX.4.2|9=85|35=R|49=TESTI|56=TESTA|34=8|52=20030204-09:25:21|131=1272727|146=2|55=TESTA|55=TESTB|10=215|
8=FIX.4.2|9=78|35=S|49=TESTI|56=TESTA|34=14|52=20030204-09:25:43|117=11223|55=TESTB|133=15.3|10=004|
8=FIX.4.2|9=111|35=T|49=TESTI|56=TESTA|34=14|52=20030204-09:25:43|162=11223|163=N|160=0|165=1|79=KTierney|60=20060217-10:00:00|10=106|
8=FIX.4.2|9=114|35=V|49=TESTI|56=TESTA|34=14|52=20030204-09:25:43|262=11223|263=0|264=0|267=2|269=0|269=1|146=2|55=TESTA|55=TESTB|10=008|
8=FIX.4.2|9=105|35=W|49=TESTI|56=TESTA|34=14|52=20030204-09:25:43|55=TESTA|268=2|269=0|270=10|271=50|269=1|270=11|271=40|10=219|
8=FIX.4.2|9=114|35=W|49=TESTI|56=TESTA|34=14|52=20030204-09:25:43|262=0001|55=TESTA|268=2|269=0|270=10|271=50|269=1|270=11|271=40|10=116|
8=FIX.4.2|9=100|35=X|49=TESTI|56=TESTA|34=14|52=20030204-09:25:43|268=2|279=1|280=0001|270=10|279=1|280=0002|270=11|10=107|
8=FIX.4.2|9=109|35=X|49=TESTI|56=TESTA|34=14|52=20030204-09:25:43|262=0001|268=2|279=1|280=0001|270=10|279=1|280=0002|270=11|10=013|
8=FIX.4.2|9=60|35=Y|49=TESTI|56=TESTA|34=14|52=20030204-09:25:43|262=11223|10=060|
8=FIX.4.2|9=90|35=Z|49=TESTI|56=TESTA|34=14|52=20030204-09:25:43|117=11223|298=4|295=2|55=TESTB|55=TESTC|10=185|