8=FIXT.1.1|9=88|35=6|49=SNDR|56=TRGT|1128=4|34=2|52=20090311-16:49:15.318|23=24|28=N|55=TESTB|54=1|27=S|10=232|
8=FIXT.1.1|9=91|35=7|49=SNDR|56=TRGT|1128=4|34=3|52=20090311-16:49:15.318|2=20|5=N|55=TESTB|4=T|53=1000000|10=099|
8=FIXT.1.1|9=107|35=7|49=SNDR|56=TRGT|1128=4|34=4|52=20090311-16:49:15.318|2=20|5=N|55=TESTB|4=T|53=1000000|336=TestSession|10=240|
8=FIXT.1.1|9=142|35=8|49=SNDR|56=TRGT|1128=4|34=5|52=20090311-16:49:15.318|37=11111111|17=11|20=0|39=0|150=0|55=TESTB|54=1|38=1000|32=0|31=0|151=1000|14=0|6=0|10=029|
8=FIXT.1.1|9=132|35=8|49=SNDR|56=TRGT|1128=4|34=6|52=20090311-16:49:15.318|37=11111111|17=12|20=3|39=0|150=0|55=TESTB|54=1|38=1000|151=1000|14=0|6=0|10=124|
8=FIXT.1.1|9=111|35=9|49=SNDR|56=TRGT|1128=4|34=7|52=20090311-16:49:15.318|37=11111111|11=12121212122|41=11111111111|39=0|434=1|10=171|
8=FIXT.1.1|9=67|35=a|49=SNDR|56=TRGT|1128=4|34=8|52=20090311-16:49:15.318|55=TESTB|10=069|
8=FIXT.1.1|9=72|35=a|49=SNDR|56=TRGT|1128=4|34=9|52=20090311-16:49:15.318|55=TESTB|54=1|10=026|
8=FIXT.1.1|9=152|35=B|49=SNDR|56=TRGT|1128=4|34=10|52=20090311-16:49:15.318|148=Weather|33=4|58=In the evening |58=it might be wet |58=and windy.|58= Take your coat on.|10=130|
8=FIXT.1.1|9=65|35=b|49=SNDR|56=TRGT|1128=4|34=11|52=20090311-16:49:15.318|297=0|10=084|
8=FIXT.1.1|9=157|35=C|49=SNDR|56=TRGT|1128=4|34=12|52=20090311-16:49:15.318|164=111111111|94=0|147=Bunny's Birthday|33=3|58=Hello, Bunny!|58=Happy Birthday to you :)|58=Bye.|10=139|
8=FIXT.1.1|9=74|35=c|49=SNDR|56=TRGT|1128=4|34=13|52=20090311-16:49:15.318|320=0001|321=0|10=223|
8=FIXT.1.1|9=100|35=c|49=SNDR|56=TRGT|1128=4|34=14|52=20090311-16:49:15.333|320=0001|321=0|146=2|311=TESTB|311=TESTC|10=185|
8=FIXT.1.1|9=138|35=D|49=SNDR|56=TRGT|1128=4|34=15|50=30737|97=Y|52=20090311-16:49:15.333|11=90001008|21=2|55=TESTB|54=1|60=20060217-10:00:00|38=4000|40=1|10=069|
8=FIXT.1.1|9=83|35=d|49=SNDR|56=TRGT|1128=4|34=16|52=20090311-16:49:15.333|320=0001|322=0001|393=0|10=127|
8=FIXT.1.1|9=109|35=d|49=SNDR|56=TRGT|1128=4|34=17|52=20090311-16:49:15.333|320=0001|322=0001|393=0|146=2|311=TESTB|311=TESTC|10=101|
8=FIXT.1.1|9=159|35=E|49=SNDR|56=TRGT|1128=4|34=18|52=20090311-16:49:15.333|66=20012411|394=3|68=1|73=2|11=1131|67=1|55=TESTB3|54=3|38=3000|11=1132|67=2|55=TESTB2|54=1|38=1000|10=035|
8=FIXT.1.1|9=169|35=E|49=SNDR|56=TRGT|1128=4|34=19|52=20090311-16:49:15.333|66=20012411|394=3|68=1|73=2|11=1131|67=1|21=1|55=TESTB3|54=3|38=3000|11=1132|67=2|21=1|55=TESTB2|54=1|38=1000|10=201|
8=FIXT.1.1|9=83|35=e|49=SNDR|56=TRGT|1128=4|34=20|52=20090311-16:49:15.333|324=0001|55=TESTB|263=0|10=015|
8=FIXT.1.1|9=126|35=F|49=SNDR|56=TRGT|1128=4|34=21|52=20090311-16:49:15.333|41=90001008|11=16161516|55=TESTB|54=1|60=20060117-10:00:00|38=4000|10=042|
8=FIXT.1.1|9=68|35=f|49=SNDR|56=TRGT|1128=4|34=22|52=20090311-16:49:15.333|55=TESTB|10=116|
8=FIXT.1.1|9=77|35=f|49=SNDR|56=TRGT|1128=4|34=23|52=20090311-16:49:15.333|324=0001|55=TESTB|10=013|
8=FIXT.1.1|9=136|35=G|49=SNDR|56=TRGT|1128=4|34=24|52=20090311-16:49:15.333|11=12233345|41=90001008|21=2|55=TESTB|54=1|60=20060117-10:00:00|38=4000|40=1|10=209|
8=FIXT.1.1|9=141|35=G|49=SNDR|56=TRGT|1128=4|34=25|52=20090311-16:49:15.333|11=12233345|41=90001008|63=0|21=2|55=TESTB|54=1|60=20060117-10:00:00|38=4000|40=1|10=165|
8=FIXT.1.1|9=74|35=g|49=SNDR|56=TRGT|1128=4|34=26|52=20090311-16:49:15.349|335=0001|263=0|10=246|
8=FIXT.1.1|9=85|35=H|49=SNDR|56=TRGT|1128=4|34=27|52=20090311-16:49:15.349|11=90001008|55=TESTB|54=1|10=107|
8=FIXT.1.1|9=78|35=h|49=SNDR|56=TRGT|1128=4|34=28|52=20090311-16:49:15.349|336=PRE-OPEN|340=2|10=129|
8=FIXT.1.1|9=254|35=i|49=SNDR|56=TRGT|1128=4|34=29|52=20090311-16:49:15.349|117=1116226|296=2|302=0001|311=TESTA|304=5|295=2|299=11|55=TESTB|132=11|299=12|55=TESTC|133=12|302=0002|311=TESTB|304=5|295=3|299=21|55=TESTD|132=13|299=22|55=TESTE|133=14|299=23|55=TESTF|133=15|10=044|
8=FIXT.1.1|9=205|35=J|49=SNDR|56=TRGT|1128=4|34=30|52=20090311-16:49:15.349|70=1116226|71=0|73=2|11=90001008|11=90000008|54=1|55=TESTB|53=1004000|6=30|75=20030821|78=3|79=1000|80=500000|79=2000|80=400000|79=3000|80=104000|10=022|
8=FIXT.1.1|9=71|35=j|49=SNDR|56=TRGT|1128=4|34=31|52=20090311-16:49:15.349|372=9|380=0|10=107|
8=FIXT.1.1|9=102|35=k|49=SNDR|56=TRGT|1128=4|34=32|52=20090311-16:49:15.349|391=20012411|374=N|393=2|394=3|418=A|419=4|10=088|
8=FIXT.1.1|9=92|35=K|49=SNDR|56=TRGT|1128=4|34=33|52=20090311-16:49:15.349|66=20012411|60=20060217-10:00:00|10=098|
8=FIXT.1.1|9=88|35=l|49=SNDR|56=TRGT|1128=4|34=34|52=20090311-16:49:15.365|420=2|12=5|13=1|12=0.07|13=2|10=067|
8=FIXT.1.1|9=92|35=L|49=SNDR|56=TRGT|1128=4|34=35|52=20090311-16:49:15.365|66=20012411|60=20060217-09:00:00|10=107|
8=FIXT.1.1|9=71|35=M|49=SNDR|56=TRGT|1128=4|34=36|52=20090311-16:49:15.365|66=20012411|10=106|
8=FIXT.1.1|9=113|35=m|49=SNDR|56=TRGT|1128=4|34=37|52=20090311-16:49:15.365|66=0002|422=4|428=2|55=TESTA|44=10.5|55=TESTB|44=11.8|10=050|
8=FIXT.1.1|9=228|35=N|49=SNDR|56=TRGT|1128=4|34=38|52=20090311-16:49:15.365|66=20012411|429=1|82=3|431=3|83=1|68=5|73=3|11=1111|14=11|39=1|151=89|84=0|6=12|11=1121|14=1000|39=1|151=500|84=1000|6=2.28|11=1131|14=2500|39=1|151=500|84=1500|6=34.11|10=011|
8=FIXT.1.1|9=90|35=P|49=SNDR|56=TRGT|1128=4|34=39|52=20090311-16:49:15.365|70=3659000001|75=20030808|87=0|10=245|
8=FIXT.1.1|9=105|35=Q|49=SNDR|56=TRGT|1128=4|34=40|52=20090311-16:49:15.365|37=01923883|17=11|127=D|55=TESTB|54=1|38=4000|10=063|
8=FIXT.1.1|9=95|35=R|49=SNDR|56=TRGT|1128=4|34=41|52=20090311-16:49:15.365|131=1272727|146=2|55=TESTA|55=TESTB|10=217|
8=FIXT.1.1|9=87|35=S|49=SNDR|56=TRGT|1128=4|34=42|52=20090311-16:49:15.365|117=11223|55=TESTB|133=15.3|10=213|
8=FIXT.1.1|9=120|35=T|49=SNDR|56=TRGT|1128=4|34=43|52=20090311-16:49:15.365|162=11223|163=N|160=0|165=1|79=KTierney|60=20060217-10:00:00|10=060|
8=FIXT.1.1|9=123|35=V|49=SNDR|56=TRGT|1128=4|34=44|52=20090311-16:49:15.365|262=11223|263=0|264=0|267=2|269=0|269=1|146=2|55=TESTA|55=TESTB|10=219|
8=FIXT.1.1|9=114|35=W|49=SNDR|56=TRGT|1128=4|34=45|52=20090311-16:49:15.365|55=TESTA|268=2|269=0|270=10|271=50|269=1|270=11|271=40|10=175|
8=FIXT.1.1|9=123|35=W|49=SNDR|56=TRGT|1128=4|34=46|52=20090311-16:49:15.365|262=0001|55=TESTA|268=2|269=0|270=10|271=50|269=1|270=11|271=40|10=073|
8=FIXT.1.1|9=109|35=X|49=SNDR|56=TRGT|1128=4|34=47|52=20090311-16:49:15.365|268=2|279=1|280=0001|270=10|279=1|280=0002|270=11|10=074|
8=FIXT.1.1|9=118|35=X|49=SNDR|56=TRGT|1128=4|34=48|52=20090311-16:49:15.365|262=0001|268=2|279=1|280=0001|270=10|279=1|280=0002|270=11|10=228|
8=FIXT.1.1|9=69|35=Y|49=SNDR|56=TRGT|1128=4|34=49|52=20090311-16:49:15.365|262=11223|10=029|
8=FIXT.1.1|9=99|35=Z|49=SNDR|56=TRGT|1128=4|34=50|52=20090311-16:49:15.380|117=11223|298=4|295=2|55=TESTB|55=TESTC|10=143|