8=FIXT.1.1|9=89|35=6|49=SNDR|56=TRGT|1128=3|34=26|52=20090311-16:32:10.668|23=24|28=N|55=TESTB|54=1|27=S|10=025|
8=FIXT.1.1|9=92|35=7|49=SNDR|56=TRGT|1128=3|34=27|52=20090311-16:32:10.684|2=20|5=N|55=TESTB|4=T|53=1000000|10=146|
8=FIXT.1.1|9=143|35=8|49=SNDR|56=TRGT|1128=3|34=28|52=20090311-16:32:10.684|37=11111111|17=11|20=0|39=0|150=0|55=TESTB|54=1|38=1000|32=0|31=0|151=1000|14=0|6=0|10=075|
8=FIXT.1.1|9=133|35=8|49=SNDR|56=TRGT|1128=3|34=29|52=20090311-16:32:10.684|37=11111111|17=12|20=3|39=0|150=0|55=TESTB|54=1|38=1000|151=1000|14=0|6=0|10=170|
8=FIXT.1.1|9=106|35=9|49=SNDR|56=TRGT|1128=3|34=30|52=20090311-16:32:10.684|37=11111111|11=12121212122|41=11111111111|39=0|10=201|
8=FIXT.1.1|9=152|35=B|49=SNDR|56=TRGT|1128=3|34=31|52=20090311-16:32:10.699|148=Weather|33=4|58=In the evening |58=it might be wet |58=and windy.|58= Take your coat on.|10=131|
8=FIXT.1.1|9=157|35=C|49=SNDR|56=TRGT|1128=3|34=32|52=20090311-16:32:10.699|164=111111111|94=0|147=Bunny's Birthday|33=3|58=Hello, Bunny!|58=Happy Birthday to you :)|58=Bye.|10=139|
8=FIXT.1.1|9=117|35=D|49=SNDR|56=TRGT|1128=3|34=33|50=30737|97=Y|52=20090311-16:32:10.699|11=90001008|21=2|55=TESTB|54=1|38=4000|40=1|10=075|
8=FIXT.1.1|9=122|35=E|49=SNDR|56=TRGT|1128=3|34=34|52=20090311-16:32:10.699|66=20012411|67=2|68=3|11=1131|21=3|55=TESTB3|54=3|38=3000|40=1|10=245|
8=FIXT.1.1|9=137|35=E|49=SNDR|56=TRGT|1128=3|34=35|52=20090311-16:32:10.699|66=20012411|67=1|68=3|69=Instruction|11=1130|21=3|55=TESTB3|54=1|38=5000|40=1|10=073|
8=FIXT.1.1|9=105|35=F|49=SNDR|56=TRGT|1128=3|34=36|52=20090311-16:32:10.699|41=90001008|11=16161516|55=TESTB|54=1|38=4000|10=055|
8=FIXT.1.1|9=115|35=G|49=SNDR|56=TRGT|1128=3|34=37|52=20090311-16:32:10.699|11=12233345|41=90001008|21=2|55=TESTB|54=1|38=4000|40=1|10=220|
8=FIXT.1.1|9=120|35=G|49=SNDR|56=TRGT|1128=3|34=38|52=20090311-16:32:10.699|11=12233346|41=90001009|21=2|63=0|55=TESTB|54=1|38=5000|40=1|10=179|
8=FIXT.1.1|9=85|35=H|49=SNDR|56=TRGT|1128=3|34=39|52=20090311-16:32:10.699|11=90001008|55=TESTB|54=1|10=104|
8=FIXT.1.1|9=205|35=J|49=SNDR|56=TRGT|1128=3|34=40|52=20090311-16:32:10.699|70=1116226|71=0|73=2|11=90001008|11=90000008|54=1|55=TESTB|53=1004000|6=30|75=20030821|78=3|79=1000|80=500000|79=2000|80=400000|79=3000|80=104000|10=017|
8=FIXT.1.1|9=71|35=K|49=SNDR|56=TRGT|1128=3|34=41|52=20090311-16:32:10.699|66=20012411|10=096|
8=FIXT.1.1|9=71|35=L|49=SNDR|56=TRGT|1128=3|34=42|52=20090311-16:32:10.699|66=20012411|10=098|
8=FIXT.1.1|9=71|35=M|49=SNDR|56=TRGT|1128=3|34=43|52=20090311-16:32:10.699|66=20012411|10=100|
8=FIXT.1.1|9=196|35=N|49=SNDR|56=TRGT|1128=3|34=44|52=20090311-16:32:10.699|66=20012411|82=3|83=1|73=3|11=1111|151=89|14=11|84=0|6=12|11=1121|151=500|14=1000|84=1000|6=2.28|11=1131|151=500|14=2500|84=1500|6=34.11|10=127|
8=FIXT.1.1|9=90|35=P|49=SNDR|56=TRGT|1128=3|34=45|52=20090311-16:32:10.699|70=3659000001|75=20030808|87=0|10=238|
8=FIXT.1.1|9=87|35=Q|49=SNDR|56=TRGT|1128=3|34=46|52=20090311-16:32:10.699|127=D|55=TESTB|54=1|38=4000|10=200|
8=FIXT.1.1|9=80|35=R|49=SNDR|56=TRGT|1128=3|34=47|52=20090311-16:32:10.699|131=1272727|55=TESTB|10=161|
8=FIXT.1.1|9=87|35=S|49=SNDR|56=TRGT|1128=3|34=48|52=20090311-16:32:10.699|117=11223|55=TESTB|133=15.3|10=215|
8=FIXT.1.1|9=120|35=T|49=SNDR|56=TRGT|1128=3|34=49|52=20090311-16:32:10.699|162=11223|163=N|160=0|165=1|79=KTierney|60=20060217-10:00:00|10=062|