8=FIXT.1.1|9=84|35=6|1128=7|49=TESTI|56=TESTA|34=2|52=20081023-16:57:19|23=24|28=N|55=IBM|54=2|27=M|10=003|
8=FIXT.1.1|9=90|35=7|1128=7|49=TESTI|56=TESTA|34=2|52=20081023-16:57:36|2=20002|5=N|55=IBM|4=B|53=1000000|10=004|
8=FIXT.1.1|9=129|35=8|1128=7|49=TESTI|56=TESTA|34=2|52=20081023-16:57:42|37=55667788|17=33|150=0|39=0|55=IBM|54=2|38=1000000|151=1000000|14=0|6=0|10=027|
8=FIXT.1.1|9=162|35=8|1128=7|49=TESTI|56=TESTA|34=2|52=20081023-16:57:48|37=55667788|17=34|150=F|39=1|55=IBM|54=2|38=1000000|32=400000|31=1.589999|151=600000|14=400000|6=1.589999|10=152|
8=FIXT.1.1|9=88|35=9|1128=7|49=TESTI|56=TESTA|34=2|52=20081023-16:57:55|37=881|11=882|41=883|39=0|434=1|10=115|
8=FIXT.1.1|9=81|35=AA|1128=7|49=TESTI|56=TESTA|34=2|52=20081023-16:58:00|320=0001|322=0002|560=0|10=043|
8=FIXT.1.1|9=136|35=AB|1128=7|49=TESTI|56=TESTA|34=2|52=20081023-16:58:06|11=804|54=1|55=IBM|555=2|600=TESTX|600=TESTY|60=20080717-10:09:50|38=4000|40=1|10=248|
8=FIXT.1.1|9=148|35=AC|1128=7|49=TESTI|56=TESTA|34=2|52=20081023-16:58:12|41=93452234|11=804|54=1|55=IBM|555=2|600=TESTX|600=TESTY|60=20080717-10:09:50|38=4000|40=1|10=060|
8=FIXT.1.1|9=76|35=AD|1128=7|49=TESTI|56=TESTA|34=2|52=20081023-16:58:18|568=90001008|569=0|10=140|
8=FIXT.1.1|9=170|35=AE|1128=7|49=TESTI|56=TESTA|34=2|52=20081023-16:58:23|571=90001008|150=F|570=N|55=IBM|32=1000|31=10.4|75=20080716|60=20080717-10:10:51|552=2|54=1|37=0001|54=2|37=0002|10=255|
8=FIXT.1.1|9=72|35=AF|1128=7|49=TESTI|56=TESTA|34=2|52=20081023-16:58:35|584=0001|585=1|10=181|
8=FIXT.1.1|9=91|35=AG|1128=7|49=TESTI|56=TESTA|34=2|52=20081023-16:58:47|131=0001|658=1|146=2|55=IBM|55=HP|10=122|
8=FIXT.1.1|9=85|35=AH|1128=7|49=TESTI|56=TESTA|34=2|52=20081023-16:58:53|644=0001|146=2|55=IBM|55=HP|10=114|
8=FIXT.1.1|9=82|35=AI|1128=7|49=TESTI|56=TESTA|34=2|52=20081023-16:59:05|117=0001|55=IBM|132=10.5|10=182|
8=FIXT.1.1|9=88|35=AJ|1128=7|49=TESTI|56=TESTA|34=2|52=20081023-16:59:14|693=0001|694=6|55=IBM|132=10.5|10=221|
8=FIXT.1.1|9=207|35=AK|1128=7|49=TESTI|56=TESTA|34=2|52=20081023-16:59:20|664=0001|666=0|773=1|665=4|60=20080717-10:04:10|75=20080717|55=IBM|80=1000|54=1|862=2|528=A|863=400|528=P|863=600|79=KTierney|6=20|381=20000|118=2000|10=100|
8=FIXT.1.1|9=216|35=AK|1128=7|49=TESTI|56=TESTA|34=2|52=20081023-16:59:27|664=0001|772=7722|666=1|773=1|665=4|60=20080717-10:04:11|75=20080717|55=IBM|80=1000|54=1|862=2|528=A|863=400|528=P|863=600|79=KTierney|6=20|381=20000|118=2000|10=029|
8=FIXT.1.1|9=184|35=AL|1128=7|49=TESTI|56=TESTA|34=2|52=20081023-16:59:34|710=0001|709=1|712=1|715=20080717|453=1|448=ABNA|447=C|452=4|1=KTierney|581=1|55=IBM|60=20080717-10:00:00|702=2|703=TQ|703=IAS|10=234|
8=FIXT.1.1|9=204|35=AM|1128=7|49=TESTI|56=TESTA|34=2|52=20081023-16:59:39|721=0001|709=1|712=1|713=0007|722=0|715=20080717|1=KTierney|55=IBM|60=20080717-10:00:00|702=2|703=TQ|703=IAS|753=2|707=FMTM|708=10|707=PREM|708=20|10=011|
8=FIXT.1.1|9=150|35=AN|1128=7|49=TESTI|56=TESTA|34=2|52=20081023-16:59:44|710=0001|724=0|453=1|448=ABNA|447=C|452=4|1=KTierney|581=1|715=20080717|60=20080717-10:00:00|10=030|
8=FIXT.1.1|9=122|35=AO|1128=7|49=TESTI|56=TESTA|34=2|52=20081023-16:59:49|721=0001|728=0|729=0|453=1|448=ABNA|447=C|452=4|1=KTierney|581=1|10=198|
8=FIXT.1.1|9=212|35=AP|1128=7|49=TESTI|56=TESTA|34=2|52=20081023-16:59:54|721=0001|728=0|715=20080717|453=1|448=ABNA|447=C|452=4|1=KTierney|581=1|730=10.5|731=1|734=10.3|702=2|703=TQ|703=IAS|753=2|707=FMTM|708=10|707=PREM|708=20|10=082|
8=FIXT.1.1|9=95|35=AQ|1128=7|49=TESTI|56=TESTA|34=2|52=20081023-17:00:00|568=90001008|569=0|749=0|750=0|55=IBM|10=033|
8=FIXT.1.1|9=100|35=AR|1128=7|49=TESTI|56=TESTA|34=2|52=20081023-17:00:06|571=90001008|150=F|751=0|55=IBM|552=1|54=2|10=032|
8=FIXT.1.1|9=128|35=AS|1128=7|49=TESTI|56=TESTA|34=2|52=20081023-17:00:11|755=0001|71=0|794=5|87=0|857=0|54=2|55=IBM|53=10000|6=10.5|75=20080717|10=024|
8=FIXT.1.1|9=100|35=AT|1128=7|49=TESTI|56=TESTA|34=2|52=20081023-17:00:16|755=0001|70=0002|60=20080717-10:00:00|87=0|10=016|
8=FIXT.1.1|9=105|35=AU|1128=7|49=TESTI|56=TESTA|34=2|52=20081023-17:00:23|664=0001|75=20080717|60=20080717-10:00:00|940=1|10=030|
8=FIXT.1.1|9=87|35=AV|1128=7|49=TESTI|56=TESTA|34=2|52=20081023-17:00:32|791=0001|60=20080717-10:00:00|10=170|
8=FIXT.1.1|9=94|35=AW|1128=7|49=TESTI|56=TESTA|34=2|52=20081023-17:00:42|833=0001|453=1|448=0008|715=20080717|10=205|
8=FIXT.1.1|9=93|35=AX|1128=7|49=TESTI|56=TESTA|34=2|52=20081023-17:00:47|894=0001|895=0|60=20080717-10:00:00|10=199|
8=FIXT.1.1|9=99|35=AY|1128=7|49=TESTI|56=TESTA|34=2|52=20081023-17:00:53|902=0001|895=0|903=0|60=20080717-10:00:00|10=203|
8=FIXT.1.1|9=108|35=AZ|1128=7|49=TESTI|56=TESTA|34=2|52=20081023-17:00:59|904=0001|902=0002|895=0|905=0|60=20080717-10:00:00|10=152|
8=FIXT.1.1|9=63|35=a|1128=7|49=TESTI|56=TESTA|34=2|52=20081023-17:01:06|55=IBM|10=081|
8=FIXT.1.1|9=72|35=BA|1128=7|49=TESTI|56=TESTA|34=2|52=20081023-17:01:12|908=0001|910=0|10=152|
8=FIXT.1.1|9=57|35=BB|1128=7|49=TESTI|56=TESTA|34=2|52=20081023-17:01:18|10=250|
8=FIXT.1.1|9=72|35=BC|1128=7|49=TESTI|56=TESTA|34=2|52=20081023-17:01:24|935=1|933=0001|10=163|
8=FIXT.1.1|9=110|35=BD|1128=7|49=TESTI|56=TESTA|34=2|52=20081023-17:01:30|937=1|932=0001|936=2|930=COMP1|928=1|930=COMP2|928=4|10=121|
8=FIXT.1.1|9=85|35=BE|1128=7|49=TESTI|56=TESTA|34=2|52=20081023-17:01:35|923=0001|924=1|553=TestUser|10=194|
8=FIXT.1.1|9=79|35=BF|1128=7|49=TESTI|56=TESTA|34=2|52=20081023-17:01:40|923=0001|553=TestUser|10=180|
8=FIXT.1.1|9=72|35=BG|1128=7|49=TESTI|56=TESTA|34=2|52=20081023-17:01:45|909=0001|945=0|10=173|
8=FIXT.1.1|9=93|35=BH|1128=7|49=TESTI|56=TESTA|34=2|52=20081023-17:01:51|859=0001|773=1|60=20080717-10:00:00|10=177|
8=FIXT.1.1|9=72|35=BI|1128=7|49=TESTI|56=TESTA|34=2|52=20081023-17:01:56|335=0001|263=0|10=163|
8=FIXT.1.1|9=78|35=BJ|1128=7|49=TESTI|56=TESTA|34=2|52=20081023-17:02:02|386=1|336=0001|340=4|10=179|
8=FIXT.1.1|9=66|35=BK|1128=7|49=TESTI|56=TESTA|34=2|52=20081023-17:02:07|964=0001|10=164|
8=FIXT.1.1|9=115|35=BL|1128=7|49=TESTI|56=TESTA|34=2|52=20081023-17:02:14|721=0001|715=20080717|453=1|448=0002|702=2|703=AS|703=TOT|10=040|
8=FIXT.1.1|9=106|35=BM|1128=7|49=TESTI|56=TESTA|34=2|52=20081023-17:02:19|70=1111|71=0|626=1|54=2|55=IBM|53=23|75=20080717|10=037|
8=FIXT.1.1|9=107|35=BN|1128=7|49=TESTI|56=TESTA|34=2|52=20081023-17:02:24|37=55667788|1036=1|17=1212|55=IBM|54=1|38=1000000|10=131|
8=FIXT.1.1|9=113|35=BO|1128=7|49=TESTI|56=TESTA|34=2|52=20081023-17:02:29|977=3333|715=20080717|453=1|448=4488|981=1|982=1|55=IBM|10=188|
8=FIXT.1.1|9=57|35=BP|1128=7|49=TESTI|56=TESTA|34=2|52=20081023-17:02:34|10=007|
8=FIXT.1.1|9=62|35=b|1128=7|49=TESTI|56=TESTA|34=2|52=20081023-17:02:41|297=0|10=225|
8=FIXT.1.1|9=149|35=B|1128=7|49=TESTI|56=TESTA|34=2|52=20081023-17:02:46|148=Weather|33=4|58=In the evening |58=it might be wet |58=and windy.|58= Take your coat on.|10=030|
8=FIXT.1.1|9=154|35=C|1128=7|49=TESTI|56=TESTA|34=2|52=20081023-17:02:51|164=111111111|94=0|147=Bunny's Birthday|33=3|58=Hello, Bunny!|58=Happy Birthday to you :)|58=Bye.|10=024|
8=FIXT.1.1|9=71|35=c|1128=7|49=TESTI|56=TESTA|34=2|52=20081023-17:02:57|320=0001|321=0|10=113|
8=FIXT.1.1|9=114|35=D|1128=7|49=TESTI|56=TESTA|34=2|52=20081023-17:03:05|11=90001008|55=IBM|54=1|60=20080717-10:00:00|38=4000|40=1|10=171|
8=FIXT.1.1|9=82|35=d|1128=7|49=TESTI|56=TESTA|34=2|52=20081023-17:03:10|320=10001|322=20002|323=1|10=103|
8=FIXT.1.1|9=149|35=E|1128=7|49=TESTI|56=TESTA|34=2|52=20081023-17:03:21|66=20012411|394=3|68=2|73=2|11=1131|67=1|55=IBM|54=3|38=3000|11=1132|67=2|55=HP|54=1|38=1000|10=181|
8=FIXT.1.1|9=78|35=e|1128=7|49=TESTI|56=TESTA|34=2|52=20081023-17:03:26|324=0001|55=IBM|263=0|10=000|
8=FIXT.1.1|9=121|35=F|1128=7|49=TESTI|56=TESTA|34=2|52=20081023-17:03:38|41=90001008|11=16161516|55=IBM|54=1|60=20080717-10:00:00|38=4000|10=028|
8=FIXT.1.1|9=63|35=f|1128=7|49=TESTI|56=TESTA|34=2|52=20081023-17:03:43|55=IBM|10=089|
8=FIXT.1.1|9=126|35=G|1128=7|49=TESTI|56=TESTA|34=2|52=20081023-17:03:50|41=90001008|11=12233345|55=IBM|54=1|60=20080717-10:00:00|38=4000|40=1|10=235|
8=FIXT.1.1|9=71|35=g|1128=7|49=TESTI|56=TESTA|34=2|52=20081023-17:03:55|335=0001|263=0|10=127|
8=FIXT.1.1|9=80|35=H|1128=7|49=TESTI|56=TESTA|34=2|52=20081023-17:04:00|11=90001008|55=IBM|54=1|10=062|
8=FIXT.1.1|9=75|35=h|1128=7|49=TESTI|56=TESTA|34=2|52=20081023-17:04:05|336=PRE-OPEN|340=2|10=004|
8=FIXT.1.1|9=186|35=i|1128=7|49=TESTI|56=TESTA|34=2|52=20081023-17:04:10|117=1116226|296=2|302=0001|304=2|295=2|299=11|132=10|299=12|133=11|302=0002|304=3|295=3|299=21|132=12|299=22|133=13|299=23|133=14|10=034|
8=FIXT.1.1|9=124|35=J|1128=7|49=TESTI|56=TESTA|34=2|52=20081023-17:04:18|70=1116226|71=0|626=1|857=0|54=1|55=IBM|53=1004000|6=30|75=20080717|10=088|
8=FIXT.1.1|9=68|35=j|1128=7|49=TESTI|56=TESTA|34=2|52=20081023-17:04:23|372=9|380=0|10=253|
8=FIXT.1.1|9=99|35=k|1128=7|49=TESTI|56=TESTA|34=2|52=20081023-17:04:29|391=20012411|374=N|393=2|394=3|418=A|419=4|10=200|
8=FIXT.1.1|9=89|35=K|1128=7|49=TESTI|56=TESTA|34=2|52=20081023-17:04:38|66=20012411|60=20080717-10:00:00|10=255|
8=FIXT.1.1|9=85|35=l|1128=7|49=TESTI|56=TESTA|34=2|52=20081023-17:04:44|420=2|12=5|13=1|12=0.07|13=2|10=206|
8=FIXT.1.1|9=89|35=L|1128=7|49=TESTI|56=TESTA|34=2|52=20081023-17:04:49|66=20012411|60=20080717-10:00:00|10=002|
8=FIXT.1.1|9=68|35=M|1128=7|49=TESTI|56=TESTA|34=2|52=20081023-17:04:56|66=20012411|10=255|
8=FIXT.1.1|9=131|35=m|1128=7|49=TESTI|56=TESTA|34=2|52=20081023-17:05:04|66=0002|422=4|428=2|55=IBM|55=HP|711=2|311=TEST1|44=11.8|311=TEST2|44=11.1|10=182|
8=FIXT.1.1|9=225|35=N|1128=7|49=TESTI|56=TESTA|34=2|52=20081023-17:05:09|66=20012411|429=1|82=3|431=3|83=1|68=5|73=3|11=1111|14=11|39=1|151=89|84=0|6=12|11=1121|14=1000|39=1|151=500|84=1000|6=2.28|11=1131|14=2500|39=1|151=500|84=1500|6=34.11|10=148|
8=FIXT.1.1|9=86|35=o|1128=7|49=TESTI|56=TESTA|34=2|52=20081023-17:05:15|513=365900001|514=2|508=00002|10=094|
8=FIXT.1.1|9=96|35=P|1128=7|49=TESTI|56=TESTA|34=2|52=20081023-17:05:20|70=3659000001|60=20080717-10:00:53|87=0|10=071|
8=FIXT.1.1|9=91|35=p|1128=7|49=TESTI|56=TESTA|34=2|52=20081023-17:05:25|513=365900006|514=2|508=0006|506=A|10=079|
8=FIXT.1.1|9=100|35=Q|1128=7|49=TESTI|56=TESTA|34=2|52=20081023-17:05:30|37=01923883|17=11|127=D|55=IBM|54=1|38=4000|10=029|
8=FIXT.1.1|9=92|35=q|1128=7|49=TESTI|56=TESTA|34=2|52=20081023-17:05:36|11=11223|530=7|60=20080717-10:00:00|10=143|
8=FIXT.1.1|9=79|35=r|1128=7|49=TESTI|56=TESTA|34=2|52=20081023-17:05:42|37=4511223|530=7|531=7|10=018|
8=FIXT.1.1|9=87|35=R|1128=7|49=TESTI|56=TESTA|34=2|52=20081023-17:05:48|131=1272727|146=2|55=IBM|55=HP|10=220|
8=FIXT.1.1|9=168|35=s|1128=7|49=TESTI|56=TESTA|34=2|52=20081023-17:05:54|548=90001008|549=1|550=0|552=2|54=1|11=B101010|38=4000|54=2|11=S101010|38=5000|55=IBM|60=20080717-10:00:00|40=1|10=175|
8=FIXT.1.1|9=82|35=S|1128=7|49=TESTI|56=TESTA|34=2|52=20081023-17:06:01|117=11223|55=IBM|133=15.3|10=176|
8=FIXT.1.1|9=181|35=t|1128=7|49=TESTI|56=TESTA|34=2|52=20081023-17:06:06|548=42444008|551=30001008|549=1|550=0|552=2|54=1|11=B202020|38=4000|54=2|11=S202020|38=5000|55=IBM|60=20080717-10:00:00|40=1|10=028|
8=FIXT.1.1|9=104|35=T|1128=7|49=TESTI|56=TESTA|34=2|52=20081023-17:06:12|777=112233|160=4|11=112211|60=20080717-10:00:00|10=209|
8=FIXT.1.1|9=135|35=T|1128=7|49=TESTI|56=TESTA|34=2|52=20081023-17:06:19|777=112233|160=5|792=99|60=20080717-10:00:00|778=1|162=162162|163=R|214=214214|10=178|
8=FIXT.1.1|9=198|35=u|1128=7|49=TESTI|56=TESTA|34=2|52=20081023-17:06:25|548=42444008|551=30001008|549=1|550=0|552=2|54=1|41=B101010|11=B202020|38=4000|54=2|41=S101010|11=S202020|38=5000|55=IBM|60=20080717-10:00:00|10=116|
8=FIXT.1.1|9=115|35=V|1128=7|49=TESTI|56=TESTA|34=2|52=20081023-17:06:57|262=11223|263=0|264=0|267=2|269=0|269=1|146=2|55=IBM|55=HP|10=220|
8=FIXT.1.1|9=66|35=v|1128=7|49=TESTI|56=TESTA|34=2|52=20081023-17:07:02|320=11223|10=183|
8=FIXT.1.1|9=95|35=W|1128=7|49=TESTI|56=TESTA|34=2|52=20081023-17:07:08|55=IBM|268=2|269=4|270=10|269=5|270=11|10=252|
8=FIXT.1.1|9=82|35=w|1128=7|49=TESTI|56=TESTA|34=2|52=20081023-17:07:14|320=11223|322=22115|323=1|10=144|
8=FIXT.1.1|9=106|35=X|1128=7|49=TESTI|56=TESTA|34=2|52=20081023-17:07:20|268=2|279=1|280=0001|270=10|279=0|280=0002|270=11|10=205|
8=FIXT.1.1|9=72|35=x|1128=7|49=TESTI|56=TESTA|34=2|52=20081023-17:07:25|320=11223|559=4|10=208|
8=FIXT.1.1|9=66|35=Y|1128=7|49=TESTI|56=TESTA|34=2|52=20081023-17:07:30|262=11223|10=160|
8=FIXT.1.1|9=82|35=y|1128=7|49=TESTI|56=TESTA|34=2|52=20081023-17:07:35|320=11223|322=22334|560=0|10=154|
8=FIXT.1.1|9=72|35=z|1128=7|49=TESTI|56=TESTA|34=2|52=20081023-17:07:46|320=11223|559=4|10=213|
8=FIXT.1.1|9=83|35=Z|1128=7|49=TESTI|56=TESTA|34=2|52=20081023-17:07:52|131=131131|117=11223|298=5|10=182|