8=FIXT.1.1|9=88|35=6|49=SNDR|56=TRGT|1128=6|34=2|52=20090311-17:47:01.264|23=24|28=N|55=TESTB|54=1|27=S|10=228|
8=FIXT.1.1|9=91|35=7|49=SNDR|56=TRGT|1128=6|34=3|52=20090311-17:47:01.280|2=20|5=N|55=TESTB|4=T|53=1000000|10=093|
8=FIXT.1.1|9=127|35=8|49=SNDR|56=TRGT|1128=6|34=4|52=20090311-17:47:01.280|37=11111111|17=11|39=0|150=0|55=TESTB|54=1|38=1000|151=1000|14=0|6=0|10=164|
8=FIXT.1.1|9=142|35=8|49=SNDR|56=TRGT|1128=6|34=5|52=20090311-17:47:01.280|37=11111111|17=12|39=1|150=F|55=TESTB|54=1|38=1000|151=600|14=400|6=10|32=400|31=10|10=094|
8=FIXT.1.1|9=111|35=9|49=SNDR|56=TRGT|1128=6|34=6|52=20090311-17:47:01.280|37=11111111|11=12121212122|41=11111111111|39=0|434=1|10=164|
8=FIXT.1.1|9=67|35=a|49=SNDR|56=TRGT|1128=6|34=7|52=20090311-17:47:01.280|55=TESTB|10=062|
8=FIXT.1.1|9=83|35=AA|49=SNDR|56=TRGT|1128=6|34=8|52=20090311-17:47:01.280|320=0001|322=0001|560=0|10=103|
8=FIXT.1.1|9=159|35=AB|49=SNDR|56=TRGT|1128=6|34=9|50=30737|97=Y|52=20090311-17:47:01.280|11=90001008|54=1|55=TESTB|555=2|600=TESTA|600=TESTC|38=4000|40=1|60=20060117-10:00:00|10=062|
8=FIXT.1.1|9=172|35=AC|49=SNDR|56=TRGT|1128=6|34=10|50=30737|97=Y|52=20090311-17:47:01.280|11=90001008|41=93452234|54=1|55=TESTB|555=2|600=TESTA|600=TESTC|60=20060217-10:00:00|38=4000|40=1|10=166|
8=FIXT.1.1|9=93|35=AD|49=SNDR|56=TRGT|1128=6|34=11|50=30737|97=Y|52=20090311-17:47:01.280|568=90001008|569=0|10=149|
8=FIXT.1.1|9=189|35=AE|49=SNDR|56=TRGT|1128=6|34=12|50=30737|97=Y|52=20090311-17:47:01.280|571=90001008|150=F|570=N|55=TESTA|32=1000|31=10.4|75=20060217|60=20060217-10:00:00|552=2|54=1|37=0001|54=2|37=0002|10=173|
8=FIXT.1.1|9=89|35=AF|49=SNDR|56=TRGT|1128=6|34=13|50=30737|97=Y|52=20090311-17:47:01.296|584=0001|585=1|10=209|
8=FIXT.1.1|9=108|35=AG|49=SNDR|56=TRGT|1128=6|34=14|50=30737|52=20090311-17:47:01.296|131=0001|658=1|146=2|55=TESTA|55=TESTB|10=071|
8=FIXT.1.1|9=102|35=AH|49=SNDR|56=TRGT|1128=6|34=15|50=30737|52=20090311-17:47:01.296|644=0001|146=2|55=TESTA|55=TESTB|10=058|
8=FIXT.1.1|9=96|35=AI|49=SNDR|56=TRGT|1128=6|34=16|50=30737|52=20090311-17:47:01.296|117=0001|55=TESTA|132=10.5|10=118|
8=FIXT.1.1|9=108|35=AJ|49=SNDR|56=TRGT|1128=6|34=17|50=30737|52=20090311-17:47:01.296|693=0001|694=6|55=IBM|38=4000|132=10.5|10=134|
8=FIXT.1.1|9=221|35=AK|49=SNDR|56=TRGT|1128=6|34=18|50=30737|52=20090311-17:47:01.296|664=0001|666=0|773=1|665=4|60=20060217-10:00:00|75=20060217|55=TESTA|80=1000|54=1|862=2|528=A|863=400|528=P|863=600|79=KTierney|6=20|381=20000|118=2000|10=013|
8=FIXT.1.1|9=198|35=AL|49=SNDR|56=TRGT|1128=6|34=19|50=30737|52=20090311-17:47:01.296|710=0001|709=1|712=1|715=20060217|453=1|448=ABNA|447=C|452=4|1=KTierney|581=1|55=TESTA|60=20060217-10:00:00|702=2|703=TQ|703=IAS|10=157|
8=FIXT.1.1|9=233|35=AM|49=SNDR|56=TRGT|1128=6|34=20|50=30737|52=20090311-17:47:01.296|721=0001|709=1|712=1|722=0|715=20060217|1=KTierney|581=1|55=TESTA|60=20060217-10:00:00|702=2|703=TQ|703=IAS|753=2|707=FMTM|708=10|707=PREM|708=20|713=00000001-1234|10=108|
8=FIXT.1.1|9=162|35=AN|49=SNDR|56=TRGT|1128=6|34=21|50=30737|52=20090311-17:47:01.296|710=0001|724=0|453=1|448=ABNA|447=C|452=4|1=KTierney|581=1|715=20060217|60=20060217-10:00:00|10=030|
8=FIXT.1.1|9=134|35=AO|49=SNDR|56=TRGT|1128=6|34=22|50=30737|52=20090311-17:47:01.296|721=0001|728=0|729=0|453=1|448=ABNA|447=C|452=4|1=KTierney|581=1|10=208|
8=FIXT.1.1|9=224|35=AP|49=SNDR|56=TRGT|1128=6|34=23|50=30737|52=20090311-17:47:01.296|721=0001|728=0|715=20060217|453=1|448=ABNA|447=C|452=4|1=KTierney|581=1|730=10.5|731=1|734=10.3|702=2|703=TQ|703=IAS|753=2|707=FMTM|708=10|707=PREM|708=20|10=090|
8=FIXT.1.1|9=112|35=AQ|49=SNDR|56=TRGT|1128=6|34=24|50=30737|97=Y|52=20090311-17:47:01.296|568=90001008|569=0|749=0|750=0|55=IBM|10=113|
8=FIXT.1.1|9=108|35=AR|49=SNDR|56=TRGT|1128=6|34=25|50=30737|97=Y|52=20090311-17:47:01.296|571=90001008|150=F|751=0|55=TESTB|10=019|
8=FIXT.1.1|9=147|35=AS|49=SNDR|56=TRGT|1128=6|34=26|50=30737|97=Y|52=20090311-17:47:01.296|755=0001|71=0|794=5|87=0|857=0|54=2|55=TESTB|53=10000|6=10.5|75=20060217|10=230|
8=FIXT.1.1|9=117|35=AT|49=SNDR|56=TRGT|1128=6|34=27|50=30737|97=Y|52=20090311-17:47:01.311|755=0001|70=0001|60=20060217-10:00:00|87=0|10=042|
8=FIXT.1.1|9=123|35=AU|49=SNDR|56=TRGT|1128=6|34=28|50=30737|52=20090311-17:47:01.311|664=0001|60=20060217-10:00:00|75=20060217|940=1|774=1|10=055|
8=FIXT.1.1|9=99|35=AV|49=SNDR|56=TRGT|1128=6|34=29|50=30737|52=20090311-17:47:01.311|791=0001|60=20060217-10:00:00|10=189|
8=FIXT.1.1|9=218|35=AW|49=SNDR|56=TRGT|1128=6|34=30|50=30737|52=20090311-17:47:01.311|833=0001|453=1|448=ABNA|447=C|452=4|581=1|730=10.5|731=1|732=11.5|744=P|746=5.5|747=M|716=ITD|717=1|715=20060217|702=1|703=TQ|753=1|707=CASH|708=100|10=099|
8=FIXT.1.1|9=105|35=AX|49=SNDR|56=TRGT|1128=6|34=31|50=30737|52=20090311-17:47:01.311|894=0001|895=0|60=20060217-10:00:00|10=244|
8=FIXT.1.1|9=111|35=AY|49=SNDR|56=TRGT|1128=6|34=32|50=30737|52=20090311-17:47:01.311|902=0001|895=0|903=0|60=20060217-10:00:00|10=243|
8=FIXT.1.1|9=120|35=AZ|49=SNDR|56=TRGT|1128=6|34=33|50=30737|52=20090311-17:47:01.311|904=0001|902=0001|895=0|905=0|60=20060217-10:00:00|10=147|
8=FIXT.1.1|9=65|35=b|49=SNDR|56=TRGT|1128=6|34=34|52=20090311-17:47:01.311|297=0|10=078|
8=FIXT.1.1|9=152|35=B|49=SNDR|56=TRGT|1128=6|34=35|52=20090311-17:47:01.311|148=Weather|33=4|58=In the evening |58=it might be wet |58=and windy.|58= Take your coat on.|10=126|
8=FIXT.1.1|9=84|35=BA|49=SNDR|56=TRGT|1128=6|34=36|50=30737|52=20090311-17:47:01.311|908=0001|910=0|10=177|
8=FIXT.1.1|9=69|35=BB|49=SNDR|56=TRGT|1128=6|34=37|50=30737|52=20090311-17:47:01.327|10=021|
8=FIXT.1.1|9=84|35=BC|49=SNDR|56=TRGT|1128=6|34=38|50=30737|52=20090311-17:47:01.327|935=1|933=0001|10=194|
8=FIXT.1.1|9=110|35=BD|49=SNDR|56=TRGT|1128=6|34=39|50=30737|52=20090311-17:47:01.327|937=1|932=0001|936=2|930=COMP1|930=COMP2|10=114|
8=FIXT.1.1|9=97|35=BE|49=SNDR|56=TRGT|1128=6|34=40|50=30737|52=20090311-17:47:01.327|923=0001|924=1|553=TestUser|10=216|
8=FIXT.1.1|9=91|35=BF|49=SNDR|56=TRGT|1128=6|34=41|50=30737|52=20090311-17:47:01.327|923=0001|553=TestUser|10=198|
8=FIXT.1.1|9=84|35=BG|49=SNDR|56=TRGT|1128=6|34=42|50=30737|52=20090311-17:47:01.327|909=0001|945=0|10=196|
8=FIXT.1.1|9=105|35=BH|49=SNDR|56=TRGT|1128=6|34=43|50=30737|52=20090311-17:47:01.327|859=0001|773=1|60=20060217-10:00:00|10=236|
8=FIXT.1.1|9=157|35=C|49=SNDR|56=TRGT|1128=6|34=44|52=20090311-17:47:01.327|164=111111111|94=0|147=Bunny's Birthday|33=3|58=Hello, Bunny!|58=Happy Birthday to you :)|58=Bye.|10=140|
8=FIXT.1.1|9=74|35=c|49=SNDR|56=TRGT|1128=6|34=45|52=20090311-17:47:01.327|320=0001|321=0|10=224|
8=FIXT.1.1|9=133|35=D|49=SNDR|56=TRGT|1128=6|34=46|50=30737|97=Y|52=20090311-17:47:01.327|11=90001008|55=TESTB|54=1|60=20060217-10:00:00|38=4000|40=1|10=112|
8=FIXT.1.1|9=83|35=d|49=SNDR|56=TRGT|1128=6|34=47|52=20090311-17:47:01.327|320=0001|322=0001|323=1|10=124|
8=FIXT.1.1|9=159|35=E|49=SNDR|56=TRGT|1128=6|34=48|52=20090311-17:47:01.327|66=20012411|394=3|68=1|73=2|11=1131|67=1|55=TESTB3|54=3|38=3000|11=1132|67=2|55=TESTB2|54=1|38=1000|10=037|
8=FIXT.1.1|9=83|35=e|49=SNDR|56=TRGT|1128=6|34=49|52=20090311-17:47:01.327|324=0001|55=TESTB|263=0|10=025|
8=FIXT.1.1|9=126|35=F|49=SNDR|56=TRGT|1128=6|34=50|52=20090311-17:47:01.327|41=90001008|11=16161516|55=TESTB|54=1|60=20060117-10:00:00|38=4000|10=043|
8=FIXT.1.1|9=68|35=f|49=SNDR|56=TRGT|1128=6|34=51|52=20090311-17:47:01.327|55=TESTB|10=117|
8=FIXT.1.1|9=136|35=G|49=SNDR|56=TRGT|1128=6|34=52|52=20090311-17:47:01.327|11=12233345|41=90001008|21=2|55=TESTB|54=1|60=20060117-10:00:00|38=4000|40=1|10=209|
8=FIXT.1.1|9=74|35=g|49=SNDR|56=TRGT|1128=6|34=53|52=20090311-17:47:01.327|335=0001|263=0|10=238|
8=FIXT.1.1|9=85|35=H|49=SNDR|56=TRGT|1128=6|34=54|52=20090311-17:47:01.327|11=90001008|55=TESTB|54=1|10=099|
8=FIXT.1.1|9=78|35=h|49=SNDR|56=TRGT|1128=6|34=55|52=20090311-17:47:01.342|336=PRE-OPEN|340=2|10=118|
8=FIXT.1.1|9=189|35=i|49=SNDR|56=TRGT|1128=6|34=56|52=20090311-17:47:01.342|117=1116226|296=2|302=0001|304=2|295=2|299=11|132=10|299=12|133=11|302=0002|304=3|295=3|299=21|132=12|299=22|133=13|299=23|133=14|10=153|
8=FIXT.1.1|9=188|35=J|49=SNDR|56=TRGT|1128=6|34=57|52=20090311-17:47:01.342|70=1116226|71=0|626=1|857=0|54=1|55=TESTB|53=1004000|6=30|75=20030821|78=3|79=1000|80=500000|79=2000|80=400000|79=3000|80=104000|10=000|
8=FIXT.1.1|9=71|35=j|49=SNDR|56=TRGT|1128=6|34=58|52=20090311-17:47:01.342|372=9|380=0|10=105|
8=FIXT.1.1|9=102|35=k|49=SNDR|56=TRGT|1128=6|34=59|52=20090311-17:47:01.342|391=20012411|374=N|393=2|394=3|418=A|419=4|10=086|
8=FIXT.1.1|9=92|35=K|49=SNDR|56=TRGT|1128=6|34=60|52=20090311-17:47:01.342|66=20012411|60=20060217-10:00:00|10=087|
8=FIXT.1.1|9=88|35=l|49=SNDR|56=TRGT|1128=6|34=61|52=20090311-17:47:01.342|420=2|12=5|13=1|12=0.07|13=2|10=058|
8=FIXT.1.1|9=92|35=L|49=SNDR|56=TRGT|1128=6|34=62|52=20090311-17:47:01.342|66=20012411|60=20060217-09:00:00|10=098|
8=FIXT.1.1|9=71|35=M|49=SNDR|56=TRGT|1128=6|34=63|52=20090311-17:47:01.342|66=20012411|10=097|
8=FIXT.1.1|9=126|35=m|49=SNDR|56=TRGT|1128=6|34=64|52=20090311-17:47:01.342|66=0002|422=4|428=2|55=TESTA|55=TESTB|711=2|311=IBM|311=HP|44=11.8|10=226|
8=FIXT.1.1|9=228|35=N|49=SNDR|56=TRGT|1128=6|34=65|52=20090311-17:47:01.342|66=20012411|429=1|82=3|431=3|83=1|68=5|73=3|11=1111|14=11|39=1|151=89|84=0|6=12|11=1121|14=1000|39=1|151=500|84=1000|6=2.28|11=1131|14=2500|39=1|151=500|84=1500|6=34.11|10=002|
8=FIXT.1.1|9=197|35=n|49=SNDR|56=TRGT|1128=6|34=66|52=20090311-17:47:01.342|212=125|213=<?xml version="1.0" encoding="UTF-8"?><Message id="9688b52c7d01" type="TEST"><Tag name="SecurityID">873168AL2</Tag></Message>|10=202|
8=FIXT.1.1|9=80|35=o|49=SNDR|56=TRGT|1128=6|34=67|52=20090311-17:47:01.342|513=3659000000|514=0|10=040|
8=FIXT.1.1|9=105|35=P|49=SNDR|56=TRGT|1128=6|34=68|52=20090311-17:47:01.342|70=3659000001|60=20060108-10:00:53|87=0|573=0|10=232|
8=FIXT.1.1|9=86|35=p|49=SNDR|56=TRGT|1128=6|34=69|52=20090311-17:47:01.342|513=3659000000|514=0|506=A|10=075|
8=FIXT.1.1|9=105|35=Q|49=SNDR|56=TRGT|1128=6|34=70|52=20090311-17:47:01.342|37=01923883|17=11|127=D|55=TESTB|54=1|38=4000|10=057|
8=FIXT.1.1|9=95|35=q|49=SNDR|56=TRGT|1128=6|34=71|52=20090311-17:47:01.342|11=11223|530=7|60=20060117-10:00:00|10=242|
8=FIXT.1.1|9=82|35=r|49=SNDR|56=TRGT|1128=6|34=72|52=20090311-17:47:01.342|37=4511223|530=7|531=7|10=120|
8=FIXT.1.1|9=95|35=R|49=SNDR|56=TRGT|1128=6|34=73|52=20090311-17:47:01.358|131=1272727|146=2|55=TESTA|55=TESTB|10=220|
8=FIXT.1.1|9=187|35=s|49=SNDR|56=TRGT|1128=6|34=74|50=30737|97=Y|52=20090311-17:47:01.358|548=90001008|549=1|550=0|552=2|54=1|11=B101010|38=4000|54=2|11=S101010|38=5000|55=TESTA|60=20060217-10:00:00|40=1|10=114|
8=FIXT.1.1|9=87|35=S|49=SNDR|56=TRGT|1128=6|34=75|52=20090311-17:47:01.358|117=11223|55=TESTB|133=15.3|10=217|
8=FIXT.1.1|9=222|35=t|49=SNDR|56=TRGT|1128=6|34=76|50=30737|97=Y|52=20090311-17:47:01.358|548=42444008|551=30000008|549=1|550=0|552=2|54=1|11=B202020|41=B101010|38=4000|54=2|11=S202020|41=S101010|38=5000|55=TESTA|60=20060217-10:00:00|40=1|10=254|
8=FIXT.1.1|9=104|35=T|49=SNDR|56=TRGT|1128=6|34=77|52=20090311-17:47:01.358|777=112233|160=5|792=99|60=20060217-10:00:00|10=207|
8=FIXT.1.1|9=217|35=u|49=SNDR|56=TRGT|1128=6|34=78|50=30737|97=Y|52=20090311-17:47:01.358|548=42444008|551=30001008|549=1|550=0|552=2|54=1|11=B202020|41=B101010|38=4000|54=2|11=S202020|41=S101010|38=5000|55=TESTA|60=20060217-10:00:00|10=051|
8=FIXT.1.1|9=123|35=V|49=SNDR|56=TRGT|1128=6|34=79|52=20090311-17:47:01.358|262=11223|263=0|264=0|267=2|269=0|269=1|146=2|55=TESTA|55=TESTB|10=225|
8=FIXT.1.1|9=69|35=v|49=SNDR|56=TRGT|1128=6|34=80|52=20090311-17:47:01.358|320=11223|10=046|
8=FIXT.1.1|9=100|35=W|49=SNDR|56=TRGT|1128=6|34=81|52=20090311-17:47:01.358|55=TESTA|268=2|269=4|270=10|269=5|270=11|10=055|
8=FIXT.1.1|9=85|35=w|49=SNDR|56=TRGT|1128=6|34=82|52=20090311-17:47:01.358|320=11223|322=22115|323=1|10=006|
8=FIXT.1.1|9=109|35=X|49=SNDR|56=TRGT|1128=6|34=83|52=20090311-17:47:01.358|268=2|279=1|280=0001|55=SYMB1|270=10|279=1|280=0002|55=SYMB2|270=11|10=072|
8=FIXT.1.1|9=75|35=x|49=SNDR|56=TRGT|1128=6|34=84|52=20090311-17:47:01.358|320=11223|559=4|10=070|
8=FIXT.1.1|9=69|35=Y|49=SNDR|56=TRGT|1128=6|34=85|52=20090311-17:47:01.358|262=11223|10=027|
8=FIXT.1.1|9=85|35=y|49=SNDR|56=TRGT|1128=6|34=86|52=20090311-17:47:01.358|320=11223|322=22334|560=0|10=017|
8=FIXT.1.1|9=75|35=z|49=SNDR|56=TRGT|1128=6|34=87|52=20090311-17:47:01.358|320=11223|559=4|10=075|
8=FIXT.1.1|9=75|35=Z|49=SNDR|56=TRGT|1128=6|34=88|52=20090311-17:47:01.374|117=11223|298=4|10=046|