8=FIXT.1.1|9=88|35=6|49=SNDR|56=TRGT|1128=2|34=5|52=20090311-16:22:46.234|23=24|28=N|55=TESTB|54=1|27=S|10=225|
8=FIXT.1.1|9=91|35=7|49=SNDR|56=TRGT|1128=2|34=6|52=20090311-16:22:46.234|2=20|5=N|55=TESTB|4=T|53=1000000|10=092|
8=FIXT.1.1|9=127|35=8|49=SNDR|56=TRGT|1128=2|34=7|52=20090311-16:22:46.250|37=11111111|17=11|20=0|39=0|55=TESTB|54=1|38=1000|32=0|31=0|14=0|6=0|10=124|
8=FIXT.1.1|9=117|35=8|49=SNDR|56=TRGT|1128=2|34=8|52=20090311-16:22:46.250|37=11111111|17=12|20=3|39=0|55=TESTB|54=1|38=1000|14=0|6=0|10=219|
8=FIXT.1.1|9=85|35=9|49=SNDR|56=TRGT|1128=2|34=9|52=20090311-16:22:46.250|37=11111111|11=12121212122|10=217|
8=FIXT.1.1|9=140|35=B|49=SNDR|56=TRGT|1128=2|34=10|52=20090311-16:22:46.250|33=4|58=In the evening |58=it might be wet |58=and windy.|58= Take your coat on.|10=200|
8=FIXT.1.1|9=122|35=C|49=SNDR|56=TRGT|1128=2|34=11|52=20090311-16:22:46.250|94=0|33=3|58=Hello, Bunny!|58=Happy Birthday to you :)|58=Bye.|10=013|
8=FIXT.1.1|9=117|35=D|49=SNDR|56=TRGT|1128=2|34=12|50=30737|97=Y|52=20090311-16:22:46.250|11=90001008|21=2|55=TESTB|54=1|38=4000|40=1|10=062|
8=FIXT.1.1|9=122|35=E|49=SNDR|56=TRGT|1128=2|34=13|52=20090311-16:22:46.250|66=20012411|68=1|67=3|11=1131|21=3|55=TESTB3|54=3|38=3000|40=1|10=231|
8=FIXT.1.1|9=111|35=F|49=SNDR|56=TRGT|1128=2|34=14|52=20090311-16:22:46.250|41=90001008|11=16161516|125=F|55=TESTB|54=1|38=4000|10=066|
8=FIXT.1.1|9=115|35=G|49=SNDR|56=TRGT|1128=2|34=15|52=20090311-16:22:46.250|11=12233345|41=90001008|21=2|55=TESTB|54=1|38=4000|40=1|10=206|
8=FIXT.1.1|9=85|35=H|49=SNDR|56=TRGT|1128=2|34=16|52=20090311-16:22:46.250|11=90001008|55=TESTB|54=1|10=089|
8=FIXT.1.1|9=205|35=J|49=SNDR|56=TRGT|1128=2|34=17|52=20090311-16:22:46.250|70=1116226|71=0|73=2|11=90001008|11=90000008|54=1|55=TESTB|53=1004000|6=30|75=20030821|78=3|79=1000|80=500000|79=2000|80=400000|79=3000|80=104000|10=011|
8=FIXT.1.1|9=71|35=K|49=SNDR|56=TRGT|1128=2|34=18|52=20090311-16:22:46.250|66=20012411|10=090|
8=FIXT.1.1|9=71|35=L|49=SNDR|56=TRGT|1128=2|34=19|52=20090311-16:22:46.250|66=20012411|10=092|
8=FIXT.1.1|9=71|35=M|49=SNDR|56=TRGT|1128=2|34=20|52=20090311-16:22:46.250|66=20012411|10=085|
8=FIXT.1.1|9=173|35=N|49=SNDR|56=TRGT|1128=2|34=21|52=20090311-16:22:46.250|66=20012411|82=3|83=1|73=3|11=1111|14=11|84=0|6=12|11=1121|14=1000|84=1000|6=2.28|11=1131|14=2500|84=1500|6=34.11|10=081|
8=FIXT.1.1|9=90|35=P|49=SNDR|56=TRGT|1128=2|34=22|52=20090311-16:22:46.250|70=3659000001|75=20030808|87=0|10=223|
8=FIXT.1.1|9=104|35=Q|49=SNDR|56=TRGT|1128=2|34=23|52=20090311-16:22:46.250|127=D|55=TESTB|54=1|38=4000|32=2000|31=11.24|10=220|
8=FIXT.1.1|9=80|35=R|49=SNDR|56=TRGT|1128=2|34=24|52=20090311-16:22:46.250|131=1272727|55=TESTB|10=146|
8=FIXT.1.1|9=87|35=S|49=SNDR|56=TRGT|1128=2|34=25|52=20090311-16:22:46.250|117=11223|55=TESTB|132=15.3|10=199|