8=FIX.4.0|9=107|35=G|49=SNDR40|56=TRGT40|34=3|52=20090318-10:23:39|11=12233345|41=90001008|21=2|55=TESTB|54=1|38=4000|40=2|10=022|