8=FIX.4.1|9=107|35=G|49=SNDR41|56=TRGT41|34=3|52=20090318-10:24:06|11=12233345|41=90001008|21=2|55=TESTB|54=1|38=4000|40=2|10=020|