8=FIX.4.2|9=132|35=G|49=SNDR42|56=TRGT42|34=2|52=20090318-10:24:23.334|11=12233345|41=90001008|21=2|55=TESTB|54=1|60=20060117-10:00:00|38=4000|40=2|10=210|