8=FIX.4.4|9=93|35=T|49=SNDR44|56=TRGT44|34=3|52=20090318-10:29:38.830|777=112233|160=5|60=20060217-10:00:00|10=096|