8=FIXT.1.1|9=134|35=T|1128=7|49=SNDR50|56=TRGT50|34=3|52=20090318-10:30:23.173|777=112233|160=5|60=20080717-10:00:00|778=1|162=162162|163=R|214=214214|10=089|