8=FIX.4.2|9=82|35=7|49=TESTI|56=TESTA|34=1|52=20030203-16:02:35|2=20|5=N|55=TESTB|4=T|53=1000000|10=140|
8=FIX.4.2|9=89|35=7|49=TESTI|56=TESTA|34=1|52=20030203-16:02:35|2=20|5=C|3=TST3|55=TESTB|4=T|53=1000000|10=039|
8=FIX.4.2|9=89|35=7|49=TESTI|56=TESTA|34=1|52=20030203-16:02:35|2=20|5=R|3=TST3|55=TESTB|4=T|53=1000000|10=054|
8=FIX.4.2|9=138|35=8|49=TESTI|56=TESTA|34=1|52=20030203-16:09:30|37=11111111|17=12|20=0|32=500|31=0.01|39=0|150=0|55=TESTB|54=1|38=1000|151=1000|14=0|6=0|10=064|
8=FIX.4.2|9=147|35=8|49=TESTI|56=TESTA|34=1|52=20030203-16:09:30|37=11111111|17=12|20=1|19=TST19|32=500|31=0.01|39=0|150=0|55=TESTB|54=1|38=1000|151=1000|14=0|6=0|10=078|
8=FIX.4.2|9=147|35=8|49=TESTI|56=TESTA|34=1|52=20030203-16:09:30|37=11111111|17=12|20=2|19=TST19|32=500|31=0.01|39=0|150=0|55=TESTB|54=1|38=1000|151=1000|14=0|6=0|10=079|
8=FIX.4.2|9=132|35=8|49=TESTI|56=TESTA|34=1|52=20030203-16:09:30|37=11111111|17=12|20=3|19=TST19|39=0|150=0|55=TESTB|54=1|38=1000|151=1000|14=0|6=0|10=177|
8=FIX.4.2|9=79|35=6|49=TESTI|56=TESTA|34=1|52=20030203-16:10:01|23=24|28=N|55=TESTB|54=1|27=S|10=010|
8=FIX.4.2|9=88|35=6|49=TESTI|56=TESTA|34=1|52=20030203-16:10:01|23=24|28=C|26=TST26|55=TESTB|54=1|27=S|10=008|
8=FIX.4.2|9=88|35=6|49=TESTI|56=TESTA|34=1|52=20030203-16:10:01|23=24|28=R|26=TST26|55=TESTB|54=1|27=S|10=023|
8=FIX.4.2|9=142|35=G|49=TESTI|56=TESTA|34=1|52=20030204-08:49:18|11=12233345|41=90001008|21=2|55=TESTB|54=1|60=20060117-10:00:00|38=4000|40=5|44=0.44|99=0.45|10=188|
8=FIX.4.2|9=142|35=G|49=TESTI|56=TESTA|34=1|52=20030204-08:49:18|11=12233345|41=90001008|21=2|55=TESTB|54=1|60=20060117-10:00:00|38=4000|40=I|44=0.44|99=0.45|10=208|
8=FIX.4.2|9=142|35=G|49=TESTI|56=TESTA|34=1|52=20030204-08:49:18|11=12233345|41=90001008|21=2|55=TESTB|54=1|60=20060117-10:00:00|38=4000|40=3|44=0.44|99=0.45|10=186|
8=FIX.4.2|9=142|35=G|49=TESTI|56=TESTA|34=1|52=20030204-08:49:18|11=12233345|41=90001008|21=2|55=TESTB|54=1|60=20060117-10:00:00|38=4000|40=4|44=0.44|99=0.45|10=187|
8=FIX.4.2|9=142|35=G|49=TESTI|56=TESTA|34=1|52=20030204-08:49:18|11=12233345|41=90001008|21=2|55=TESTB|54=1|60=20060117-10:00:00|38=4000|40=D|44=0.44|99=0.45|10=203|
8=FIX.4.2|9=142|35=G|49=TESTI|56=TESTA|34=1|52=20030204-08:49:18|11=12233345|41=90001008|21=2|55=TESTB|54=1|60=20060117-10:00:00|38=4000|40=E|44=0.44|99=0.45|10=204|
8=FIX.4.2|9=142|35=G|49=TESTI|56=TESTA|34=1|52=20030204-08:49:18|11=12233345|41=90001008|21=2|55=TESTB|54=1|60=20060117-10:00:00|38=4000|40=G|44=0.44|99=0.45|10=206|
8=FIX.4.2|9=142|35=G|49=TESTI|56=TESTA|34=1|52=20030204-08:49:18|11=12233345|41=90001008|21=2|55=TESTB|54=1|60=20060117-10:00:00|38=4000|40=P|44=0.44|99=0.45|10=215|
8=FIX.4.2|9=142|35=G|49=TESTI|56=TESTA|34=1|52=20030204-08:49:18|11=12233345|41=90001008|21=2|55=TESTB|54=1|60=20060117-10:00:00|38=4000|40=F|44=0.44|99=0.45|10=205|
8=FIX.4.2|9=133|35=D|49=TESTI|56=TESTA|34=1|50=30737|97=Y|52=20030204-08:46:14|11=90001008|21=2|55=TESTB|54=1|60=20060217-10:00:00|38=4000|40=1|59=1|10=029|
8=FIX.4.2|9=146|35=D|49=TESTI|56=TESTA|34=1|50=30737|97=Y|52=20030204-08:46:14|11=90001008|21=2|55=TESTB|54=1|60=20060217-10:00:00|38=4000|40=1|59=6|432=20030205|10=137|
8=FIX.4.2|9=155|35=D|49=TESTI|56=TESTA|34=1|50=30737|97=Y|52=20030204-08:46:14|11=90001008|21=2|55=TESTB|54=1|60=20060217-10:00:00|38=4000|40=1|59=6|126=20030205-10:00:01|10=076|
8=FIX.4.2|9=212|35=J|49=TESTI|56=TESTA|34=1|52=20030204-08:56:41|70=1116226|71=0|73=2|11=90001008|11=90000008|54=1|55=TESTB|53=1004000|6=30|75=20030821|63=1|64=20030821|78=3|79=1000|80=500000|79=2000|80=400000|79=3000|80=104000|10=033|
8=FIX.4.2|9=212|35=J|49=TESTI|56=TESTA|34=1|52=20030204-08:56:41|70=1116226|71=0|73=2|11=90001008|11=90000008|54=1|55=TESTB|53=1004000|6=30|75=20030821|63=6|64=20030821|78=3|79=1000|80=500000|79=2000|80=400000|79=3000|80=104000|10=038|
8=FIX.4.2|9=212|35=J|49=TESTI|56=TESTA|34=1|52=20030204-08:56:41|70=1116226|71=0|73=2|11=90001008|11=90000008|54=1|55=TESTB|53=1004000|6=30|75=20030821|63=8|64=20030821|78=3|79=1000|80=500000|79=2000|80=400000|79=3000|80=104000|10=040|
8=FIX.4.2|9=204|35=J|49=TESTI|56=TESTA|34=1|52=20030204-08:56:41|70=1116226|71=0|72=TST72|73=2|11=90001008|11=90000008|54=1|55=TESTB|53=1004000|6=30|75=20030821|78=3|79=1000|80=500000|79=2000|80=400000|79=3000|80=104000|10=029|
8=FIX.4.2|9=204|35=J|49=TESTI|56=TESTA|34=1|52=20030204-08:56:41|70=1116226|71=1|72=TST72|73=2|11=90001008|11=90000008|54=1|55=TESTB|53=1004000|6=30|75=20030821|78=3|79=1000|80=500000|79=2000|80=400000|79=3000|80=104000|10=030|
8=FIX.4.2|9=204|35=J|49=TESTI|56=TESTA|34=1|52=20030204-08:56:41|70=1116226|71=2|72=TST72|73=2|11=90001008|11=90000008|54=1|55=TESTB|53=1004000|6=30|75=20030821|78=3|79=1000|80=500000|79=2000|80=400000|79=3000|80=104000|10=031|
8=FIX.4.2|9=204|35=J|49=TESTI|56=TESTA|34=1|52=20030204-08:56:41|70=1116226|71=3|72=TST72|73=2|11=90001008|11=90000008|54=1|55=TESTB|53=1004000|6=30|75=20030821|78=3|79=1000|80=500000|79=2000|80=400000|79=3000|80=104000|10=032|
8=FIX.4.2|9=204|35=J|49=TESTI|56=TESTA|34=1|52=20030204-08:56:41|70=1116226|71=4|72=TST72|73=2|11=90001008|11=90000008|54=1|55=TESTB|53=1004000|6=30|75=20030821|78=3|79=1000|80=500000|79=2000|80=400000|79=3000|80=104000|10=033|
8=FIX.4.2|9=204|35=J|49=TESTI|56=TESTA|34=1|52=20030204-08:56:41|70=1116226|71=5|72=TST72|73=2|11=90001008|11=90000008|54=1|55=TESTB|53=1004000|6=30|75=20030821|78=3|79=1000|80=500000|79=2000|80=400000|79=3000|80=104000|10=034|
8=FIX.4.2|9=80|35=P|49=TESTI|56=TESTA|34=1|52=20030204-09:17:25|70=3659000001|75=20030808|87=0|10=234|
8=FIX.4.2|9=85|35=P|49=TESTI|56=TESTA|34=1|52=20030204-09:17:25|70=3659000001|75=20030808|87=1|88=0|10=206|
8=FIX.4.2|9=80|35=P|49=TESTI|56=TESTA|34=1|52=20030204-09:17:25|70=3659000001|75=20030808|87=2|10=236|
8=FIX.4.2|9=80|35=P|49=TESTI|56=TESTA|34=1|52=20030204-09:17:25|70=3659000001|75=20030808|87=3|10=237|
8=FIX.4.2|9=98|35=k|49=TESTI|56=TESTA|34=1|52=20030204-09:07:50|391=20012411|374=N|393=2|394=3|121=Y|418=A|419=4|10=089|
8=FIX.4.2|9=98|35=k|49=TESTI|56=TESTA|34=1|52=20030204-09:07:50|391=20012411|374=N|393=2|394=3|121=N|418=A|419=4|10=078|
8=FIX.4.2|9=157|35=T|49=TESTI|56=TESTA|34=1|52=20030204-09:25:43|162=11223|163=N|160=0|165=1|79=KTierney|166=CED|30=p|54=1|167=BA|168=20030204-09:26:00|60=20060217-10:00:00|10=105|
8=FIX.4.2|9=157|35=T|49=TESTI|56=TESTA|34=1|52=20030204-09:25:43|162=11223|163=N|160=1|165=1|79=KTierney|166=CED|30=p|54=1|167=BA|168=20030204-09:26:00|60=20060217-10:00:00|10=106|
8=FIX.4.2|9=178|35=T|49=TESTI|56=TESTA|34=1|52=20030204-09:25:43|162=11223|163=N|160=2|165=1|79=KTierney|166=CED|75=20030204|70=TST70|30=p|54=1|167=BA|168=20030204-09:26:00|60=20060217-10:00:00|10=170|
8=FIX.4.2|9=149|35=T|49=TESTI|56=TESTA|34=1|52=20030204-09:25:43|162=11223|163=N|160=3|165=1|79=KTierney|166=CED|75=20030204|70=TST70|30=p|54=1|60=20060217-10:00:00|10=016|
8=FIX.4.2|9=118|35=T|49=TESTI|56=TESTA|34=1|52=20030204-09:25:43|162=11223|163=N|160=0|165=1|79=KTierney|167=FHA|60=20060217-10:00:00|10=232|
8=FIX.4.2|9=118|35=T|49=TESTI|56=TESTA|34=1|52=20030204-09:25:43|162=11223|163=N|160=0|165=1|79=KTierney|167=ZOO|60=20060217-10:00:00|10=017|
8=FIX.4.2|9=138|35=W|49=TESTI|56=TESTA|34=1|52=20030204-09:25:43|55=TESTA|167=OPT|200=200302|201=0|202=0.02|268=2|269=0|270=10|271=50|269=1|270=11|271=40|10=006|
8=FIX.4.2|9=123|35=W|49=TESTI|56=TESTA|34=1|52=20030204-09:25:43|55=TESTA|167=FUT|200=200302|268=2|269=0|270=10|271=50|269=1|270=11|271=40|10=105|
8=FIX.4.2|9=112|35=W|49=TESTI|56=TESTA|34=1|52=20030204-09:25:43|55=TESTA|167=FOR|268=2|269=0|270=10|271=50|269=1|270=11|271=40|10=104|
8=FIX.4.2|9=112|35=W|49=TESTI|56=TESTA|34=1|52=20030204-09:25:43|55=TESTA|167=CPP|268=2|269=0|270=10|271=50|269=1|270=11|271=40|10=100|
8=FIX.4.2|9=111|35=W|49=TESTI|56=TESTA|34=1|52=20030204-09:25:43|55=TESTA|167=PS|268=2|269=0|270=10|271=50|269=1|270=11|271=40|10=035|
8=FIX.4.2|9=112|35=W|49=TESTI|56=TESTA|34=1|52=20030204-09:25:43|55=TESTA|167=WAR|268=2|269=0|270=10|271=50|269=1|270=11|271=40|10=107|
8=FIX.4.2|9=258|35=i|49=TESTI|56=TESTA|34=1|52=20030204-08:56:41|117=1116226|296=2|302=0001|311=TESTA|310=PS|304=5|295=2|299=11|55=TESTB|132=11|299=12|55=TESTC|133=12|302=0002|311=TESTB|310=CS|304=5|295=3|299=21|55=TESTD|132=13|299=22|55=TESTE|133=14|299=23|55=TESTF|133=15|10=002|
8=FIX.4.2|9=286|35=i|49=TESTI|56=TESTA|34=1|52=20030204-08:56:41|117=1116226|296=2|302=0001|311=TESTA|310=WAR|304=5|295=2|299=11|55=TESTB|132=11|299=12|55=TESTC|133=12|302=0002|311=TESTB|310=OPT|313=200302|315=0|316=0.02|304=5|295=3|299=21|55=TESTD|132=13|299=22|55=TESTE|133=14|299=23|55=TESTF|133=15|10=066|
8=FIX.4.2|9=270|35=i|49=TESTI|56=TESTA|34=1|52=20030204-08:56:41|117=1116226|296=2|302=0001|311=TESTA|310=FUT|313=200302|304=5|295=2|299=11|55=TESTB|132=11|299=12|55=TESTC|133=12|302=0002|311=TESTB|310=GN|304=5|295=3|299=21|55=TESTD|132=13|299=22|55=TESTE|133=14|299=23|55=TESTF|133=15|10=067|
8=FIX.4.2|9=260|35=i|49=TESTI|56=TESTA|34=1|52=20030204-08:56:41|117=1116226|296=2|302=0001|311=TESTA|310=FOR|304=5|295=2|299=11|55=TESTB|132=11|299=12|55=TESTC|133=12|302=0002|311=TESTB|310=CMO|304=5|295=3|299=21|55=TESTD|132=13|299=22|55=TESTE|133=14|299=23|55=TESTF|133=15|10=136|
8=FIX.4.2|9=259|35=i|49=TESTI|56=TESTA|34=1|52=20030204-08:56:41|117=1116226|296=2|302=0001|311=TESTA|310=CPP|304=5|295=2|299=11|55=TESTB|132=11|299=12|55=TESTC|133=12|302=0002|311=TESTB|310=TD|304=5|295=3|299=21|55=TESTD|132=13|299=22|55=TESTE|133=14|299=23|55=TESTF|133=15|10=069|
8=FIX.4.2|9=92|35=k|49=TESTI|56=TESTA|34=1|52=20030204-09:07:50|391=20012411|374=N|393=2|394=1|418=A|419=4|10=038|
8=FIX.4.2|9=92|35=k|49=TESTI|56=TESTA|34=1|52=20030204-09:07:50|391=20012411|374=N|393=2|394=2|418=A|419=4|10=039|
8=FIX.4.2|9=92|35=k|49=TESTI|56=TESTA|34=1|52=20030204-09:07:50|391=20012411|374=N|393=2|394=3|418=A|419=4|10=040|
8=FIX.4.2|9=149|35=E|49=TESTI|56=TESTA|34=1|52=20030204-08:18:22|66=20012411|394=1|68=1|73=2|11=1131|67=1|55=TESTB3|54=3|38=3000|11=1132|67=2|55=TESTB2|54=1|38=1000|10=027|
8=FIX.4.2|9=149|35=E|49=TESTI|56=TESTA|34=1|52=20030204-08:18:22|66=20012411|394=3|68=1|73=2|11=1131|67=1|55=TESTB3|54=3|38=3000|11=1132|67=2|55=TESTB2|54=1|38=1000|10=029|
8=FIX.4.2|9=129|35=8|49=TESTI|56=TESTA|34=1|52=20030203-16:09:30|37=11111111|17=12|20=3|39=0|150=0|55=TESTB|54=1|38=1000|151=1000|14=0|6=0|119=0|10=179|
8=FIX.4.2|9=129|35=8|49=TESTI|56=TESTA|34=1|52=20030203-16:09:30|37=11111111|17=12|20=3|39=0|150=0|55=TESTB|54=1|38=1000|151=1000|14=0|6=0|119=1|10=180|
8=FIX.4.2|9=130|35=8|49=TESTI|56=TESTA|34=1|52=20030203-16:09:30|37=11111111|17=12|20=3|39=0|150=0|55=TESTB|54=1|38=1000|151=1000|14=0|6=0|119=-1|10=217|
8=FIX.4.2|9=131|35=8|49=TESTI|56=TESTA|34=1|52=20030203-16:09:30|37=11111111|17=12|20=3|39=0|150=0|55=TESTB|54=1|38=1000|151=1000|14=0|6=0|119=0.1|10=011|
8=FIX.4.2|9=132|35=8|49=TESTI|56=TESTA|34=1|52=20030203-16:09:30|37=11111111|17=12|20=3|39=0|150=0|55=TESTB|54=1|38=1000|151=1000|14=0|6=0|119=-0.1|10=057|
8=FIX.4.2|9=130|35=8|49=TESTI|56=TESTA|34=1|52=20030203-16:09:30|37=11111111|17=12|20=3|39=0|150=0|55=TESTB|54=1|38=1000|151=1000|14=0|6=0|119=.1|10=218|
8=FIX.4.2|9=131|35=8|49=TESTI|56=TESTA|34=1|52=20030203-16:09:30|37=11111111|17=12|20=3|39=0|150=0|55=TESTB|54=1|38=1000|151=1000|14=0|6=0|119=-.1|10=008|
8=FIX.4.2|9=132|35=8|49=TESTI|56=TESTA|34=1|52=20030203-16:09:30|37=11111111|17=12|20=3|39=0|150=0|55=TESTB|54=1|38=1000|151=1000|14=0|6=0|119=0.01|10=060|
8=FIX.4.2|9=133|35=8|49=TESTI|56=TESTA|34=1|52=20030203-16:09:30|37=11111111|17=12|20=3|39=0|150=0|55=TESTB|54=1|38=1000|151=1000|14=0|6=0|119=-0.01|10=106|
8=FIX.4.2|9=131|35=8|49=TESTI|56=TESTA|34=1|52=20030203-16:09:30|37=11111111|17=12|20=3|39=0|150=0|55=TESTB|54=1|38=1000|151=1000|14=0|6=0|119=1.1|10=012|
8=FIX.4.2|9=132|35=8|49=TESTI|56=TESTA|34=1|52=20030203-16:09:30|37=11111111|17=12|20=3|39=0|150=0|55=TESTB|54=1|38=1000|151=1000|14=0|6=0|119=-1.1|10=058|
8=FIX.4.2|9=131|35=8|49=TESTI|56=TESTA|34=1|52=20030203-16:09:30|37=11111111|17=12|20=3|39=0|150=0|55=TESTB|54=1|38=1000|151=1000|14=0|6=0|119=1.0|10=011|
8=FIX.4.2|9=134|35=8|49=TESTI|56=TESTA|34=1|52=20030203-16:09:30|37=11111111|17=12|20=3|39=0|150=0|55=TESTB|54=1|38=1000|151=1000|14=0|6=0|119=1.0000|10=158|
8=FIX.4.2|9=130|35=8|49=TESTI|56=TESTA|34=1|52=20030203-16:09:30|37=11111111|17=12|20=3|39=0|150=0|55=TESTB|54=1|38=1000|151=1000|14=0|6=0|119=01|10=220|
8=FIX.4.2|9=132|35=8|49=TESTI|56=TESTA|34=1|52=20030203-16:09:30|37=11111111|17=12|20=3|39=0|150=0|55=TESTB|54=1|38=1000|151=1000|14=0|6=0|119=01.1|10=061|
8=FIX.4.2|9=133|35=8|49=TESTI|56=TESTA|34=1|52=20030203-16:09:30|37=11111111|17=12|20=3|39=0|150=0|55=TESTB|54=1|38=1000|151=1000|14=0|6=0|119=00.01|10=109|
8=FIX.4.2|9=141|35=8|49=TESTI|56=TESTA|34=1|52=20030203-16:09:30|37=11111111|17=12|20=3|39=0|150=0|55=TESTB|54=1|38=1000|151=1000|14=0|6=0|119=1000000000000|10=238|
8=FIX.4.2|9=142|35=8|49=TESTI|56=TESTA|34=1|52=20030203-16:09:30|37=11111111|17=12|20=3|39=0|150=0|55=TESTB|54=1|38=1000|151=1000|14=0|6=0|119=-1000000000000|10=028|
8=FIX.4.2|9=143|35=8|49=TESTI|56=TESTA|34=1|52=20030203-16:09:30|37=11111111|17=12|20=3|39=0|150=0|55=TESTB|54=1|38=1000|151=1000|14=0|6=0|119=0.0000000000001|10=078|
8=FIX.4.2|9=144|35=8|49=TESTI|56=TESTA|34=1|52=20030203-16:09:30|37=11111111|17=12|20=3|39=0|150=0|55=TESTB|54=1|38=1000|151=1000|14=0|6=0|119=-0.0000000000001|10=124|
8=FIX.4.2|9=134|35=D|49=TESTI|56=TESTA|34=1|50=30737|97=Y|52=20030204-08:46:14|11=90001008|21=2|55=TESTB|54=1|114=Y|60=20060217-10:00:00|38=4000|40=1|10=110|
8=FIX.4.2|9=134|35=D|49=TESTI|56=TESTA|34=1|50=30737|97=Y|52=20030204-08:46:14|11=90001008|21=2|55=TESTB|54=1|114=N|60=20060217-10:00:00|38=4000|40=1|10=99|
8=FIX.4.2|9=128|35=D|49=TESTI|56=TESTA|34=1|50=30737|97=Y|52=20030204-08:46:14|11=90001008|21=2|55=TESTB|54=1|60=20060217-10:00:00|38=4000|40=1|10=068|
8=FIX.4.2|9=128|35=D|49=TESTI|56=TESTA|34=1|50=30737|97=N|52=20030204-08:46:14|11=90001008|21=2|55=TESTB|54=1|60=20060217-10:00:00|38=4000|40=1|10=057|
8=FIX.4.2|9=64|35=g|49=TESTI|56=TESTA|34=1|52=20030204-09:25:43|335=0001|263=0|10=236|
8=FIX.4.2|9=64|35=g|49=TESTI|56=TESTA|34=1|52=20030204-09:25:43|335=0001|263=1|10=237|
8=FIX.4.2|9=64|35=g|49=TESTI|56=TESTA|34=1|52=20030204-09:25:43|335=0001|263=2|10=238|
8=FIX.4.2|9=89|35=7|49=TESTI|56=TESTA|34=1|52=20030203-16:02:35|2=20|5=N|55=TESTB|4=T|53=1000000|15=AED|10=001|
8=FIX.4.2|9=89|35=7|49=TESTI|56=TESTA|34=1|52=20030203-16:02:35|2=20|5=N|55=TESTB|4=T|53=1000000|15=ZWD|10=044|
8=FIX.4.2|9=85|35=d|49=TESTI|56=TESTA|34=1|52=20030204-09:25:43|320=0001|322=0001|393=0|354=1|355=€|10=065|
8=FIX.4.2|9=95|35=d|49=TESTI|56=TESTA|34=1|52=20030204-09:25:43|320=0001|322=0001|393=0|354=10|355=Ù‡…À˚“Û“¯Ÿ|10=098|
8=FIX.4.2|9=141|35=F|49=TESTI|56=TESTA|34=1|52=20030204-08:46:38|41=90001008|11=16161516|55=TESTB|167=FUT|200=200303|205=1|54=1|60=20060117-10:00:00|38=4000|10=249|
8=FIX.4.2|9=142|35=F|49=TESTI|56=TESTA|34=1|52=20030204-08:46:38|41=90001008|11=16161516|55=TESTB|167=FUT|200=200303|205=31|54=1|60=20060117-10:00:00|38=4000|10=045|
8=FIX.4.2|9=201|35=J|49=TESTI|56=TESTA|34=1|52=20030204-08:56:41|70=1116226|71=0|73=2|11=90001008|11=90000008|54=1|55=TESTB|53=1004000|30=AX|6=30|75=20030821|78=3|79=1000|80=500000|79=2000|80=400000|79=3000|80=104000|10=073|
8=FIX.4.2|9=200|35=J|49=TESTI|56=TESTA|34=1|52=20030204-08:56:41|70=1116226|71=0|73=2|11=90001008|11=90000008|54=1|55=TESTB|53=1004000|30=0|6=30|75=20030821|78=3|79=1000|80=500000|79=2000|80=400000|79=3000|80=104000|10=223|
8=FIX.4.2|9=135|35=8|49=TESTI|56=TESTA|34=1|52=20030203-16:09:30|37=11111111|17=12|20=3|39=0|150=0|55=TESTB|54=1|38=1000|151=1000|14=0|6=0|155=0|156=D|10=206|
8=FIX.4.2|9=135|35=8|49=TESTI|56=TESTA|34=1|52=20030203-16:09:30|37=11111111|17=12|20=3|39=0|150=0|55=TESTB|54=1|38=1000|151=1000|14=0|6=0|155=1|156=D|10=207|
8=FIX.4.2|9=136|35=8|49=TESTI|56=TESTA|34=1|52=20030203-16:09:30|37=11111111|17=12|20=3|39=0|150=0|55=TESTB|54=1|38=1000|151=1000|14=0|6=0|155=-1|156=D|10=253|
8=FIX.4.2|9=137|35=8|49=TESTI|56=TESTA|34=1|52=20030203-16:09:30|37=11111111|17=12|20=3|39=0|150=0|55=TESTB|54=1|38=1000|151=1000|14=0|6=0|155=0.1|156=D|10=047|
8=FIX.4.2|9=138|35=8|49=TESTI|56=TESTA|34=1|52=20030203-16:09:30|37=11111111|17=12|20=3|39=0|150=0|55=TESTB|54=1|38=1000|151=1000|14=0|6=0|155=-0.1|156=D|10=093|
8=FIX.4.2|9=136|35=8|49=TESTI|56=TESTA|34=1|52=20030203-16:09:30|37=11111111|17=12|20=3|39=0|150=0|55=TESTB|54=1|38=1000|151=1000|14=0|6=0|155=.1|156=D|10=254|
8=FIX.4.2|9=137|35=8|49=TESTI|56=TESTA|34=1|52=20030203-16:09:30|37=11111111|17=12|20=3|39=0|150=0|55=TESTB|54=1|38=1000|151=1000|14=0|6=0|155=-.1|156=D|10=044|
8=FIX.4.2|9=138|35=8|49=TESTI|56=TESTA|34=1|52=20030203-16:09:30|37=11111111|17=12|20=3|39=0|150=0|55=TESTB|54=1|38=1000|151=1000|14=0|6=0|155=0.01|156=D|10=096|
8=FIX.4.2|9=139|35=8|49=TESTI|56=TESTA|34=1|52=20030203-16:09:30|37=11111111|17=12|20=3|39=0|150=0|55=TESTB|54=1|38=1000|151=1000|14=0|6=0|155=-0.01|156=D|10=142|
8=FIX.4.2|9=137|35=8|49=TESTI|56=TESTA|34=1|52=20030203-16:09:30|37=11111111|17=12|20=3|39=0|150=0|55=TESTB|54=1|38=1000|151=1000|14=0|6=0|155=1.1|156=D|10=048|
8=FIX.4.2|9=138|35=8|49=TESTI|56=TESTA|34=1|52=20030203-16:09:30|37=11111111|17=12|20=3|39=0|150=0|55=TESTB|54=1|38=1000|151=1000|14=0|6=0|155=-1.1|156=D|10=094|
8=FIX.4.2|9=137|35=8|49=TESTI|56=TESTA|34=1|52=20030203-16:09:30|37=11111111|17=12|20=3|39=0|150=0|55=TESTB|54=1|38=1000|151=1000|14=0|6=0|155=1.0|156=D|10=047|
8=FIX.4.2|9=140|35=8|49=TESTI|56=TESTA|34=1|52=20030203-16:09:30|37=11111111|17=12|20=3|39=0|150=0|55=TESTB|54=1|38=1000|151=1000|14=0|6=0|155=1.0000|156=D|10=185|
8=FIX.4.2|9=136|35=8|49=TESTI|56=TESTA|34=1|52=20030203-16:09:30|37=11111111|17=12|20=3|39=0|150=0|55=TESTB|54=1|38=1000|151=1000|14=0|6=0|155=01|156=D|10=000|
8=FIX.4.2|9=138|35=8|49=TESTI|56=TESTA|34=1|52=20030203-16:09:30|37=11111111|17=12|20=3|39=0|150=0|55=TESTB|54=1|38=1000|151=1000|14=0|6=0|155=01.1|156=D|10=097|
8=FIX.4.2|9=139|35=8|49=TESTI|56=TESTA|34=1|52=20030203-16:09:30|37=11111111|17=12|20=3|39=0|150=0|55=TESTB|54=1|38=1000|151=1000|14=0|6=0|155=00.01|156=D|10=145|
8=FIX.4.2|9=147|35=8|49=TESTI|56=TESTA|34=1|52=20030203-16:09:30|37=11111111|17=12|20=3|39=0|150=0|55=TESTB|54=1|38=1000|151=1000|14=0|6=0|155=1000000000000|156=D|10=018|
8=FIX.4.2|9=148|35=8|49=TESTI|56=TESTA|34=1|52=20030203-16:09:30|37=11111111|17=12|20=3|39=0|150=0|55=TESTB|54=1|38=1000|151=1000|14=0|6=0|155=-1000000000000|156=D|10=064|
8=FIX.4.2|9=149|35=8|49=TESTI|56=TESTA|34=1|52=20030203-16:09:30|37=11111111|17=12|20=3|39=0|150=0|55=TESTB|54=1|38=1000|151=1000|14=0|6=0|155=0.0000000000001|156=D|10=114|
8=FIX.4.2|9=150|35=8|49=TESTI|56=TESTA|34=1|52=20030203-16:09:30|37=11111111|17=12|20=3|39=0|150=0|55=TESTB|54=1|38=1000|151=1000|14=0|6=0|155=-0.0000000000001|156=D|10=151|
8=FIX.4.2|9=105|35=X|49=TESTI|56=TESTA|34=1|52=20030204-09:25:43|268=2|279=1|280=0001|270=10|279=1|280=0002|270=11|287=0|10=075|
8=FIX.4.2|9=105|35=X|49=TESTI|56=TESTA|34=1|52=20030204-09:25:43|268=2|279=1|280=0001|270=10|279=1|280=0002|270=11|287=1|10=076|
8=FIX.4.2|9=106|35=X|49=TESTI|56=TESTA|34=1|52=20030204-09:25:43|268=2|279=1|280=0001|270=10|279=1|280=0002|270=11|287=-1|10=122|
8=FIX.4.2|9=106|35=X|49=TESTI|56=TESTA|34=1|52=20030204-09:25:43|268=2|279=1|280=0001|270=10|279=1|280=0002|270=11|287=01|10=125|
8=FIX.4.2|9=117|35=X|49=TESTI|56=TESTA|34=1|52=20030204-09:25:43|268=2|279=1|280=0001|270=10|279=1|280=0002|270=11|287=1000000000000|10=143|
8=FIX.4.2|9=118|35=X|49=TESTI|56=TESTA|34=1|52=20030204-09:25:43|268=2|279=1|280=0001|270=10|279=1|280=0002|270=11|287=-1000000000000|10=189|
8=FIX.4.2|9=86|35=d|49=TESTI|56=TESTA|34=1|52=20030204-09:25:43|320=0001|322=0001|393=0|354=2|355=√€|10=006|
8=FIX.4.2|9=104|35=k|49=TESTI|56=TESTA|34=1|52=20030204-09:07:50|391=20012411|374=N|393=2|394=3|75=20080716|418=A|419=4|10=148|
8=FIX.4.2|9=135|35=F|49=TESTI|56=TESTA|34=1|52=20030204-08:46:38|41=90001008|11=16161516|55=TESTB|167=FUT|200=200303|54=1|60=20060117-10:00:00|38=4000|10=246|
8=FIX.4.2|9=131|35=G|49=TESTI|56=TESTA|34=1|52=20030204-08:49:18|11=12233345|41=90001008|21=2|18=1|55=TESTB|54=1|60=20060117-10:00:00|38=4000|40=1|10=171|
8=FIX.4.2|9=133|35=G|49=TESTI|56=TESTA|34=1|52=20030204-08:49:18|11=12233345|41=90001008|21=2|18=9 A|55=TESTB|54=1|60=20060117-10:00:00|38=4000|40=1|10=022|
8=FIX.4.2|9=135|35=G|49=TESTI|56=TESTA|34=1|52=20030204-08:49:18|11=12233345|41=90001008|21=2|18=R W 2|55=TESTB|54=1|60=20060117-10:00:00|38=4000|40=1|10=153|
8=FIX.4.2|9=194|35=J|49=TESTI|56=TESTA|34=1|52=20030204-08:56:41|70=1116226|71=0|73=2|11=90001008|11=90000008|54=1|55=TESTB|53=1004000|6=0|75=20030821|78=3|79=1000|80=500000|79=2000|80=400000|79=3000|80=104000|10=231|
8=FIX.4.2|9=203|35=J|49=TESTI|56=TESTA|34=1|52=20030204-08:56:41|70=1116226|71=0|73=2|11=90001008|11=90000008|54=1|55=TESTB|53=1004000|6=4000000000|75=20030821|78=3|79=1000|80=500000|79=2000|80=400000|79=3000|80=104000|10=146|
8=FIX.4.2|9=196|35=J|49=TESTI|56=TESTA|34=1|52=20030204-08:56:41|70=1116226|71=0|73=2|11=90001008|11=90000008|54=1|55=TESTB|53=1004000|6=0.9|75=20030821|78=3|79=1000|80=500000|79=2000|80=400000|79=3000|80=104000|10=080|
8=FIX.4.2|9=196|35=J|49=TESTI|56=TESTA|34=1|52=20030204-08:56:41|70=1116226|71=0|73=2|11=90001008|11=90000008|54=1|55=TESTB|53=1004000|6=100|75=20030821|78=3|79=1000|80=500000|79=2000|80=400000|79=3000|80=104000|10=074|
8=FIX.4.2|9=196|35=J|49=TESTI|56=TESTA|34=1|52=20030204-08:56:41|70=1116226|71=0|73=2|11=90001008|11=90000008|54=1|55=TESTB|53=1004000|6=.99|75=20030821|78=3|79=1000|80=500000|79=2000|80=400000|79=3000|80=104000|10=089|
8=FIX.4.2|9=198|35=J|49=TESTI|56=TESTA|34=1|52=20030204-08:56:41|70=1116226|71=0|73=2|11=90001008|11=90000008|54=1|55=TESTB|53=1004000|6=10.09|75=20030821|78=3|79=1000|80=500000|79=2000|80=400000|79=3000|80=104000|10=179|
8=FIX.4.2|9=195|35=J|49=TESTI|56=TESTA|34=1|52=20030204-08:56:41|70=1116226|71=0|73=2|11=90001008|11=90000008|54=1|55=TESTB|53=1004000|6=-1|75=20030821|78=3|79=1000|80=500000|79=2000|80=400000|79=3000|80=104000|10=022|
8=FIX.4.2|9=83|35=S|49=TESTI|56=TESTA|34=1|52=20030204-09:25:43|117=11223|55=TESTB|133=15.3|191=0|10=213|
8=FIX.4.2|9=83|35=S|49=TESTI|56=TESTA|34=1|52=20030204-09:25:43|117=11223|55=TESTB|133=15.3|191=1|10=214|
8=FIX.4.2|9=84|35=S|49=TESTI|56=TESTA|34=1|52=20030204-09:25:43|117=11223|55=TESTB|133=15.3|191=-1|10=004|
8=FIX.4.2|9=85|35=S|49=TESTI|56=TESTA|34=1|52=20030204-09:25:43|117=11223|55=TESTB|133=15.3|191=0.1|10=054|
8=FIX.4.2|9=86|35=S|49=TESTI|56=TESTA|34=1|52=20030204-09:25:43|117=11223|55=TESTB|133=15.3|191=-0.1|10=100|
8=FIX.4.2|9=84|35=S|49=TESTI|56=TESTA|34=1|52=20030204-09:25:43|117=11223|55=TESTB|133=15.3|191=.1|10=005|
8=FIX.4.2|9=85|35=S|49=TESTI|56=TESTA|34=1|52=20030204-09:25:43|117=11223|55=TESTB|133=15.3|191=-.1|10=051|
8=FIX.4.2|9=86|35=S|49=TESTI|56=TESTA|34=1|52=20030204-09:25:43|117=11223|55=TESTB|133=15.3|191=0.01|10=103|
8=FIX.4.2|9=87|35=S|49=TESTI|56=TESTA|34=1|52=20030204-09:25:43|117=11223|55=TESTB|133=15.3|191=-0.01|10=149|
8=FIX.4.2|9=85|35=S|49=TESTI|56=TESTA|34=1|52=20030204-09:25:43|117=11223|55=TESTB|133=15.3|191=1.1|10=055|
8=FIX.4.2|9=86|35=S|49=TESTI|56=TESTA|34=1|52=20030204-09:25:43|117=11223|55=TESTB|133=15.3|191=-1.1|10=101|
8=FIX.4.2|9=85|35=S|49=TESTI|56=TESTA|34=1|52=20030204-09:25:43|117=11223|55=TESTB|133=15.3|191=1.0|10=054|
8=FIX.4.2|9=88|35=S|49=TESTI|56=TESTA|34=1|52=20030204-09:25:43|117=11223|55=TESTB|133=15.3|191=1.0000|10=201|
8=FIX.4.2|9=84|35=S|49=TESTI|56=TESTA|34=1|52=20030204-09:25:43|117=11223|55=TESTB|133=15.3|191=01|10=007|
8=FIX.4.2|9=86|35=S|49=TESTI|56=TESTA|34=1|52=20030204-09:25:43|117=11223|55=TESTB|133=15.3|191=01.1|10=104|
8=FIX.4.2|9=87|35=S|49=TESTI|56=TESTA|34=1|52=20030204-09:25:43|117=11223|55=TESTB|133=15.3|191=00.01|10=152|
8=FIX.4.2|9=95|35=S|49=TESTI|56=TESTA|34=1|52=20030204-09:25:43|117=11223|55=TESTB|133=15.3|191=1000000000000|10=025|
8=FIX.4.2|9=96|35=S|49=TESTI|56=TESTA|34=1|52=20030204-09:25:43|117=11223|55=TESTB|133=15.3|191=-1000000000000|10=071|
8=FIX.4.2|9=97|35=S|49=TESTI|56=TESTA|34=1|52=20030204-09:25:43|117=11223|55=TESTB|133=15.3|191=0.0000000000001|10=121|
8=FIX.4.2|9=98|35=S|49=TESTI|56=TESTA|34=1|52=20030204-09:25:43|117=11223|55=TESTB|133=15.3|191=-0.0000000000001|10=167|
8=FIX.4.2|9=74|35=h|49=TESTI|56=TESTA|34=1|52=20030204-08:49:42|336=PRE-OPEN|340=2|387=0|10=134|
8=FIX.4.2|9=83|35=h|49=TESTI|56=TESTA|34=1|52=20030204-08:49:42|336=PRE-OPEN|340=2|387=4000000000|10=058|
8=FIX.4.2|9=76|35=h|49=TESTI|56=TESTA|34=1|52=20030204-08:49:42|336=PRE-OPEN|340=2|387=0.9|10=239|
8=FIX.4.2|9=76|35=h|49=TESTI|56=TESTA|34=1|52=20030204-08:49:42|336=PRE-OPEN|340=2|387=100|10=233|
8=FIX.4.2|9=76|35=h|49=TESTI|56=TESTA|34=1|52=20030204-08:49:42|336=PRE-OPEN|340=2|387=.99|10=248|
8=FIX.4.2|9=78|35=h|49=TESTI|56=TESTA|34=1|52=20030204-08:49:42|336=PRE-OPEN|340=2|387=10.09|10=082|
8=FIX.4.2|9=79|35=h|49=TESTI|56=TESTA|34=1|52=20030204-08:49:42|336=PRE-OPEN|340=2|387=-10.09|10=128|
8=FIX.4.2|9=116|35=8|49=TESTI|56=TESTA|34=1|52=20030203-16:09:30|37=a|17=12|20=3|39=0|150=0|55=TESTB|54=1|38=1000|151=1000|14=0|6=0|10=127|
8=FIX.4.2|9=116|35=8|49=TESTI|56=TESTA|34=1|52=20030203-16:09:30|37=z|17=12|20=3|39=0|150=0|55=TESTB|54=1|38=1000|151=1000|14=0|6=0|10=152|
8=FIX.4.2|9=116|35=8|49=TESTI|56=TESTA|34=1|52=20030203-16:09:30|37=A|17=12|20=3|39=0|150=0|55=TESTB|54=1|38=1000|151=1000|14=0|6=0|10=095|
8=FIX.4.2|9=116|35=8|49=TESTI|56=TESTA|34=1|52=20030203-16:09:30|37=Z|17=12|20=3|39=0|150=0|55=TESTB|54=1|38=1000|151=1000|14=0|6=0|10=120|
8=FIX.4.2|9=116|35=8|49=TESTI|56=TESTA|34=1|52=20030203-16:09:30|37=0|17=12|20=3|39=0|150=0|55=TESTB|54=1|38=1000|151=1000|14=0|6=0|10=078|
8=FIX.4.2|9=116|35=8|49=TESTI|56=TESTA|34=1|52=20030203-16:09:30|37=9|17=12|20=3|39=0|150=0|55=TESTB|54=1|38=1000|151=1000|14=0|6=0|10=087|
8=FIX.4.2|9=209|35=8|49=TESTI|56=TESTA|34=1|52=20030203-16:09:30|37=abcdefghijklmnopqrstuvwxyzABCDEFGHIJKLMNOPQRSTUVWXYZ0123456789!@#$%^&*()-_=+\|[{]};:'",<.>/?`~|17=12|20=3|39=0|150=0|55=TESTB|54=1|38=1000|151=1000|14=0|6=0|10=082|
8=FIX.4.2|9=118|35=8|49=TESTI|56=TESTA|34=1|52=20030203-16:09:30|37=a A|17=12|20=3|39=0|150=0|55=TESTB|54=1|38=1000|151=1000|14=0|6=0|10=226|
8=FIX.4.2|9=116|35=8|49=TESTI|56=TESTA|34=1|52=20030203-16:09:30|37=<|17=12|20=3|39=0|150=0|55=TESTB|54=1|38=1000|151=1000|14=0|6=0|10=090|
8=FIX.4.2|9=116|35=8|49=TESTI|56=TESTA|34=1|52=20030203-16:09:30|37=>|17=12|20=3|39=0|150=0|55=TESTB|54=1|38=1000|151=1000|14=0|6=0|10=092|
8=FIX.4.2|9=116|35=8|49=TESTI|56=TESTA|34=1|52=20030203-16:09:30|37="|17=12|20=3|39=0|150=0|55=TESTB|54=1|38=1000|151=1000|14=0|6=0|10=064|
8=FIX.4.2|9=116|35=8|49=TESTI|56=TESTA|34=1|52=20030203-16:09:30|37='|17=12|20=3|39=0|150=0|55=TESTB|54=1|38=1000|151=1000|14=0|6=0|10=069|
8=FIX.4.2|9=116|35=8|49=TESTI|56=TESTA|34=1|52=20030203-16:09:30|37=&|17=12|20=3|39=0|150=0|55=TESTB|54=1|38=1000|151=1000|14=0|6=0|10=068|
8=FIX.4.2|9=120|35=8|49=TESTI|56=TESTA|34=1|52=20030203-16:09:30|37=<>"'&|17=12|20=3|39=0|150=0|55=TESTB|54=1|38=1000|151=1000|14=0|6=0|10=002|
8=FIX.4.2|9=117|35=W|49=TESTI|56=TESTA|34=1|52=20030204-09:25:43|55=TESTA|268=2|269=0|270=10|271=50|269=1|270=11|271=40|272=20030202|10=012|
8=FIX.4.2|9=117|35=W|49=TESTI|56=TESTA|34=1|52=20030204-09:25:43|55=TESTA|268=2|269=0|270=10|271=50|269=1|270=11|271=40|273=10:09:01|10=035|
8=FIX.4.2|9=117|35=W|49=TESTI|56=TESTA|34=1|52=20030204-09:25:43|55=TESTA|268=2|269=0|270=10|271=50|269=1|270=11|271=40|273=23:59:59|10=057|
8=FIX.4.2|9=121|35=W|49=TESTI|56=TESTA|34=1|52=20030204-09:25:43|55=TESTA|268=2|269=0|270=10|271=50|269=1|270=11|271=40|273=00:59:59.999|10=008|
8=FIX.4.2|9=121|35=W|49=TESTI|56=TESTA|34=1|52=20030204-09:25:43|55=TESTA|268=2|269=0|270=10|271=50|269=1|270=11|271=40|273=12:01:00.100|10=214|
8=FIX.4.2|9=136|35=T|49=TESTI|56=TESTA|34=1|52=20030204-09:25:43|162=11223|163=N|160=0|165=1|79=KTierney|168=20060217-11:00:00|60=20060217-10:00:00.100|10=046|
8=FIX.4.2|9=136|35=T|49=TESTI|56=TESTA|34=1|52=20030204-09:25:43|162=11223|163=N|160=0|165=1|79=KTierney|168=20060217-11:00:00.999|60=20060217-10:00:00|10=072|