<?xml version="1.0" encoding="UTF-8"?>
<!DOCTYPE cases SYSTEM "misc/cases.dtd" [
        <!ENTITY % content SYSTEM "misc/entity/definitions.inc">
        %content; ]>
<cases>
    <case name="2b_MsgSeqNumTooHigh.def">
        &CLEAN_LOGS;
        &ENGINE_UP_WITH_ECHO_APP;

        <!--# missing messages-->
        <transport className="InitiatorSocketTransport" host="localhost" port="3000">

            <send>8=FIX.4.2#9=123#35=A#34=1#49=TW#52=20031027-14:29:11#56=ISLD#98=0#108=5#10=000#</send>
            <expect>
                8=FIX\.4\.2#9=\d{1,3}#35=A#34=1#49=ISLD#52=\d{8}-\d{2}:\d{2}:\d{2}(\.\d{3})?#56=TW#98=0#108=5#10=\d{3}#
            </expect>

            <send>8=FIX.4.2#9=123#35=0#34=2#49=TW#52=20031027-14:29:11#56=ISLD#10=000#</send>
            <send>8=FIX.4.2#9=123#35=0#34=3#49=TW#52=20031027-14:29:11#56=ISLD#10=000#</send>
            <send>8=FIX.4.2#9=123#35=0#34=4#49=TW#52=20031027-14:29:11#56=ISLD#10=000#</send>
            <!--# Sending message 10 when last message send was 4-->

            <send>8=FIX.4.2#9=123#35=0#34=10#49=TW#52=20031027-14:29:11#56=ISLD#10=000#</send>
            <!--# Resend request for messages 5 to 9-->

            <expect>
                8=FIX\.4\.2#9=\d{1,3}#35=2#34=2#49=ISLD#52=\d{8}-\d{2}:\d{2}:\d{2}(\.\d{3})?#56=TW#7=5#16=0#10=\d{3}#
            </expect>

            <!--# Send the messages-->

            <send>8=FIX.4.2#9=123#35=0#34=5#49=TW#52=20031027-14:29:11#56=ISLD#10=000#</send>
            <send>8=FIX.4.2#9=123#35=0#34=6#49=TW#52=20031027-14:29:11#56=ISLD#10=000#</send>
            <send>8=FIX.4.2#9=123#35=0#34=7#49=TW#52=20031027-14:29:11#56=ISLD#10=000#</send>
            <send>8=FIX.4.2#9=123#35=0#34=8#49=TW#52=20031027-14:29:11#56=ISLD#10=000#</send>
            <send>8=FIX.4.2#9=123#35=0#34=9#49=TW#52=20031027-14:29:11#56=ISLD#10=000#</send>
            <send>8=FIX.4.2#9=123#35=0#34=10#49=TW#52=20031027-14:29:11#56=ISLD#10=000#</send>
            <!--# logout message and response-->

            <send>8=FIX.4.2#9=123#35=5#34=11#49=TW#52=20031027-14:29:11#56=ISLD#10=000#</send>
            <expect>8=FIX\.4\.2#9=\d{1,3}#35=5#34=3#49=ISLD#52=\d{8}-\d{2}:\d{2}:\d{2}(\.\d{3})?#56=TW#10=\d{3}#
            </expect>
        </transport>
        &ENGINE_DOWN;
    </case>
</cases>
