8=FIX.4.4|9=135|35=8|49=TESTI|56=TESTA|34=114|52=20030203-16:09:30|37=11111111|17=12|39=1|150=F|55=TESTB|54=1|38=1000|151=600|14=400|6=10|32=400|31=10|10=246|
