8=FIX.4.4|9=81|35=6|49=TESTI|56=TESTA|34=121|52=20030203-16:10:01|23=24|28=N|55=TESTB|54=1|27=S|10=104|
8=FIX.4.4|9=83|35=7|49=TESTI|56=TESTA|34=31|52=20030203-16:02:35|2=20|5=N|55=TESTB|4=T|53=1000000|10=194|
8=FIX.4.4|9=120|35=8|49=TESTI|56=TESTA|34=114|52=20030203-16:09:30|37=11111111|17=11|39=0|150=0|55=TESTB|54=1|38=1000|151=1000|14=0|6=0|10=052|
8=FIX.4.4|9=135|35=8|49=TESTI|56=TESTA|34=114|52=20030203-16:09:30|37=11111111|17=12|39=1|150=F|55=TESTB|54=1|38=1000|151=600|14=400|6=10|32=400|31=10|10=246|
8=FIX.4.4|9=102|35=9|49=TESTI|56=TESTA|34=3|52=20030203-16:13:14|37=11111111|11=12121212122|41=11111111111|39=0|434=1|10=211|
8=FIX.4.4|9=59|35=a|49=TESTI|56=TESTA|34=14|52=20030204-09:25:43|55=TESTB|10=167|
8=FIX.4.4|9=75|35=AA|49=TESTI|56=TESTA|34=14|52=20030204-09:25:43|320=0001|322=0001|560=0|10=207|
8=FIX.4.4|9=150|35=AB|49=TESTI|56=TESTA|34=4|50=30737|97=Y|52=20030204-08:46:14|11=90001008|54=1|55=TESTB|555=2|600=TESTA|600=TESTC|38=4000|40=1|60=20060117-10:00:00|10=106|
8=FIX.4.4|9=162|35=AC|49=TESTI|56=TESTA|34=4|50=30737|97=Y|52=20030204-08:46:14|11=90001008|41=93452234|54=1|55=TESTB|555=2|600=TESTA|600=TESTC|60=20060217-10:00:00|38=4000|40=1|10=178|
8=FIX.4.4|9=83|35=AD|49=TESTI|56=TESTA|34=4|50=30737|97=Y|52=20030204-08:46:14|568=90001008|569=0|10=160|
8=FIX.4.4|9=179|35=AE|49=TESTI|56=TESTA|34=4|50=30737|97=Y|52=20030204-08:46:14|571=90001008|150=F|570=N|55=TESTA|32=1000|31=10.4|75=20060217|60=20060217-10:00:00|552=2|54=1|37=0001|54=2|37=0002|10=183|
8=FIX.4.4|9=79|35=AF|49=TESTI|56=TESTA|34=4|50=30737|97=Y|52=20030204-08:46:14|584=0001|585=1|10=211|
8=FIX.4.4|9=98|35=AG|49=TESTI|56=TESTA|34=4|50=30737|52=20030204-08:46:14|131=0001|658=1|146=2|55=TESTA|55=TESTB|10=033|
8=FIX.4.4|9=92|35=AH|49=TESTI|56=TESTA|34=4|50=30737|52=20030204-08:46:14|644=0001|146=2|55=TESTA|55=TESTB|10=019|
8=FIX.4.4|9=86|35=AI|49=TESTI|56=TESTA|34=4|50=30737|52=20030204-08:46:14|117=0001|55=TESTA|132=10.5|10=117|
8=FIX.4.4|9=98|35=AJ|49=TESTI|56=TESTA|34=4|50=30737|52=20030204-08:46:14|693=0001|694=6|55=IBM|38=4000|132=10.5|10=093|
8=FIX.4.4|9=211|35=AK|49=TESTI|56=TESTA|34=4|50=30737|52=20030204-08:46:14|664=0001|666=0|773=1|665=4|60=20060217-10:00:00|75=20060217|55=TESTA|80=1000|54=1|862=2|528=A|863=400|528=P|863=600|79=KTierney|6=20|381=20000|118=2000|10=010|
8=FIX.4.4|9=188|35=AL|49=TESTI|56=TESTA|34=4|50=30737|52=20030204-08:46:14|710=0001|709=1|712=1|715=20060217|453=1|448=ABNA|447=C|452=4|1=KTierney|581=1|55=TESTA|60=20060217-10:00:00|702=2|703=TQ|703=IAS|10=153|
8=FIX.4.4|9=223|35=AM|49=TESTI|56=TESTA|34=4|50=30737|52=20030204-08:46:14|721=0001|709=1|712=1|722=0|715=20060217|1=KTierney|581=1|55=TESTA|60=20060217-10:00:00|702=2|703=TQ|703=IAS|753=2|707=FMTM|708=10|707=PREM|708=20|713=00000001-1234|10=112|
8=FIX.4.4|9=152|35=AN|49=TESTI|56=TESTA|34=4|50=30737|52=20030204-08:46:14|710=0001|724=0|453=1|448=ABNA|447=C|452=4|1=KTierney|581=1|715=20060217|60=20060217-10:00:00|10=033|
8=FIX.4.4|9=124|35=AO|49=TESTI|56=TESTA|34=4|50=30737|52=20030204-08:46:14|721=0001|728=0|729=0|453=1|448=ABNA|447=C|452=4|1=KTierney|581=1|10=210|
8=FIX.4.4|9=214|35=AP|49=TESTI|56=TESTA|34=4|50=30737|52=20030204-08:46:14|721=0001|728=0|715=20060217|453=1|448=ABNA|447=C|452=4|1=KTierney|581=1|730=10.5|731=1|734=10.3|702=2|703=TQ|703=IAS|753=2|707=FMTM|708=10|707=PREM|708=20|10=091|
8=FIX.4.4|9=102|35=AQ|49=TESTI|56=TESTA|34=4|50=30737|97=Y|52=20030204-08:46:14|568=90001008|569=0|749=0|750=0|55=IBM|10=113|
8=FIX.4.4|9=98|35=AR|49=TESTI|56=TESTA|34=4|50=30737|97=Y|52=20030204-08:46:14|571=90001008|150=F|751=0|55=TESTB|10=235|
8=FIX.4.4|9=154|35=AS|49=TESTI|56=TESTA|34=4|50=30737|97=Y|52=20030204-08:46:14|755=0001|71=2|72=1|795=1|796=1|794=5|87=0|857=0|54=2|55=TESTB|53=10000|6=10.5|75=20060217|10=230|
8=FIX.4.4|9=107|35=AT|49=TESTI|56=TESTA|34=4|50=30737|97=Y|52=20030204-08:46:14|755=0001|70=0001|60=20060217-10:00:00|87=0|10=051|
8=FIX.4.4|9=113|35=AU|49=TESTI|56=TESTA|34=4|50=30737|52=20030204-08:46:14|664=0001|60=20060217-10:00:00|75=20060217|940=1|774=1|10=063|
8=FIX.4.4|9=89|35=AV|49=TESTI|56=TESTA|34=4|50=30737|52=20030204-08:46:14|791=0001|60=20060217-10:00:00|10=196|
8=FIX.4.4|9=95|35=AX|49=TESTI|56=TESTA|34=4|50=30737|52=20030204-08:46:14|894=0001|895=0|60=20060217-10:00:00|10=219|
8=FIX.4.4|9=101|35=AY|49=TESTI|56=TESTA|34=4|50=30737|52=20030204-08:46:14|902=0001|895=0|903=0|60=20060217-10:00:00|10=000|
8=FIX.4.4|9=110|35=AZ|49=TESTI|56=TESTA|34=4|50=30737|52=20030204-08:46:14|904=0001|902=0001|895=0|905=0|60=20060217-10:00:00|10=159|
8=FIX.4.4|9=56|35=b|49=TESTI|56=TESTA|34=14|52=20030204-09:25:43|297=0|10=139|
8=FIX.4.4|9=143|35=B|49=TESTI|56=TESTA|34=19|52=20030203-16:21:17|148=Weather|33=4|58=In the evening |58=it might be wet |58=and windy.|58= Take your coat on.|10=185|
8=FIX.4.4|9=74|35=BA|49=TESTI|56=TESTA|34=4|50=30737|52=20030204-08:46:14|908=0001|910=0|10=186|
8=FIX.4.4|9=59|35=BB|49=TESTI|56=TESTA|34=4|50=30737|52=20030204-08:46:14|10=022|
8=FIX.4.4|9=74|35=BC|49=TESTI|56=TESTA|34=4|50=30737|52=20030204-08:46:14|935=1|933=0001|10=194|
8=FIX.4.4|9=100|35=BD|49=TESTI|56=TESTA|34=4|50=30737|52=20030204-08:46:14|937=1|932=0001|936=2|930=COMP1|930=COMP2|10=113|
8=FIX.4.4|9=87|35=BE|49=TESTI|56=TESTA|34=4|50=30737|52=20030204-08:46:14|923=0001|924=1|553=TestUser|10=223|
8=FIX.4.4|9=81|35=BF|49=TESTI|56=TESTA|34=4|50=30737|52=20030204-08:46:14|923=0001|553=TestUser|10=204|
8=FIX.4.4|9=74|35=BG|49=TESTI|56=TESTA|34=4|50=30737|52=20030204-08:46:14|909=0001|945=0|10=201|
8=FIX.4.4|9=95|35=BH|49=TESTI|56=TESTA|34=4|50=30737|52=20030204-08:46:14|859=0001|773=1|60=20060217-10:00:00|10=201|
8=FIX.4.4|9=147|35=C|49=TESTI|56=TESTA|34=4|52=20030203-16:20:05|164=111111111|94=0|147=Bunny's Birthday|33=3|58=Hello, Bunny!|58=Happy Birthday to you :)|58=Bye.|10=133|
8=FIX.4.4|9=65|35=c|49=TESTI|56=TESTA|34=14|52=20030204-09:25:43|320=0001|321=0|10=020|
8=FIX.4.4|9=123|35=D|49=TESTI|56=TESTA|34=4|50=30737|97=Y|52=20030204-08:46:14|11=90001008|55=TESTB|54=1|60=20060217-10:00:00|38=4000|40=1|10=113|
8=FIX.4.4|9=74|35=d|49=TESTI|56=TESTA|34=14|52=20030204-09:25:43|320=0001|322=0001|323=1|10=174|
8=FIX.4.4|9=149|35=E|49=TESTI|56=TESTA|34=3|52=20030204-08:18:22|66=20012411|394=3|68=1|73=2|11=1131|67=1|55=TESTB3|54=3|38=3000|11=1132|67=2|55=TESTB2|54=1|38=1000|10=033|
8=FIX.4.4|9=74|35=e|49=TESTI|56=TESTA|34=14|52=20030204-09:25:43|324=0001|55=TESTB|263=0|10=073|
8=FIX.4.4|9=116|35=F|49=TESTI|56=TESTA|34=9|52=20030204-08:46:38|41=90001008|11=16161516|55=TESTB|54=1|60=20060117-10:00:00|38=4000|10=060|
8=FIX.4.4|9=59|35=f|49=TESTI|56=TESTA|34=14|52=20030204-09:25:43|55=TESTB|10=172|
8=FIX.4.4|9=126|35=G|49=TESTI|56=TESTA|34=6|52=20030204-08:49:18|11=12233345|41=90001008|21=2|55=TESTB|54=1|60=20060117-10:00:00|38=4000|40=1|10=222|
8=FIX.4.4|9=65|35=g|49=TESTI|56=TESTA|34=14|52=20030204-09:25:43|335=0001|263=0|10=035|
8=FIX.4.4|9=76|35=H|49=TESTI|56=TESTA|34=12|52=20030204-08:49:42|11=90001008|55=TESTB|54=1|10=153|
8=FIX.4.4|9=69|35=h|49=TESTI|56=TESTA|34=12|52=20030204-08:49:42|336=PRE-OPEN|340=2|10=174|
8=FIX.4.4|9=179|35=i|49=TESTI|56=TESTA|34=4|52=20030204-08:56:41|117=1116226|296=2|302=0001|304=2|295=2|299=11|132=10|299=12|133=11|302=0002|304=3|295=3|299=21|132=12|299=22|133=13|299=23|133=14|10=157|
8=FIX.4.4|9=178|35=J|49=TESTI|56=TESTA|34=4|52=20030204-08:56:41|70=1116226|71=0|626=1|857=0|54=1|55=TESTB|53=1004000|6=30|75=20030821|78=3|79=1000|80=500000|79=2000|80=400000|79=3000|80=104000|10=003|
8=FIX.4.4|9=61|35=j|49=TESTI|56=TESTA|34=4|52=20030204-08:56:41|372=9|380=0|10=107|
8=FIX.4.4|9=92|35=k|49=TESTI|56=TESTA|34=6|52=20030204-09:07:50|391=20012411|374=N|393=2|394=3|418=A|419=4|10=047|
8=FIX.4.4|9=82|35=K|49=TESTI|56=TESTA|34=6|52=20030204-09:07:50|66=20012411|60=20060217-10:00:00|10=095|
8=FIX.4.4|9=78|35=l|49=TESTI|56=TESTA|34=6|52=20030204-09:07:50|420=2|12=5|13=1|12=0.07|13=2|10=065|
8=FIX.4.4|9=82|35=L|49=TESTI|56=TESTA|34=9|52=20030204-09:08:00|66=20012411|60=20060217-09:00:00|10=103|
8=FIX.4.4|9=62|35=M|49=TESTI|56=TESTA|34=12|52=20030204-09:08:11|66=20012411|10=146|
8=FIX.4.4|9=99|35=m|49=TESTI|56=TESTA|34=6|52=20030204-09:07:50|66=0002|422=4|428=1|55=TESTA|711=1|311=IBM|44=1.9|10=249|
8=FIX.4.4|9=219|35=N|49=TESTI|56=TESTA|34=15|52=20030204-09:08:23|66=20012411|429=1|82=3|431=3|83=1|68=5|73=3|11=1111|14=11|39=1|151=89|84=0|6=12|11=1121|14=1000|39=1|151=500|84=1000|6=2.28|11=1131|14=2500|39=1|151=500|84=1500|6=34.11|10=055|
8=FIX.4.4|9=188|35=n|49=TESTI|56=TESTA|34=15|52=20030204-09:08:23|212=125|213=<?xml version="1.0" encoding="UTF-8"?><Message id="9688b52c7d01" type="TEST"><Tag name="SecurityID">873168AL2</Tag></Message>|10=254|
8=FIX.4.4|9=70|35=o|49=TESTI|56=TESTA|34=7|52=20030204-09:17:25|513=3659000000|514=0|10=045|
8=FIX.4.4|9=95|35=P|49=TESTI|56=TESTA|34=7|52=20030204-09:17:25|70=3659000001|60=20060108-10:00:53|87=0|573=0|10=197|
8=FIX.4.4|9=76|35=p|49=TESTI|56=TESTA|34=7|52=20030204-09:17:25|513=3659000000|514=0|506=A|10=078|
8=FIX.4.4|9=95|35=Q|49=TESTI|56=TESTA|34=4|52=20030204-09:28:44|37=01923883|17=11|127=D|55=TESTB|54=1|38=4000|10=029|
8=FIX.4.4|9=86|35=q|49=TESTI|56=TESTA|34=14|52=20030204-09:25:43|11=11223|530=7|60=20060117-10:00:00|10=042|
8=FIX.4.4|9=73|35=r|49=TESTI|56=TESTA|34=14|52=20030204-09:25:43|37=4511223|530=7|531=7|10=175|
8=FIX.4.4|9=85|35=R|49=TESTI|56=TESTA|34=8|52=20030204-09:25:21|131=1272727|146=2|55=TESTA|55=TESTB|10=217|
8=FIX.4.4|9=177|35=s|49=TESTI|56=TESTA|34=4|50=30737|97=Y|52=20030204-08:46:14|548=90001008|549=1|550=0|552=2|54=1|11=B101010|38=4000|54=2|11=S101010|38=5000|55=TESTA|60=20060217-10:00:00|40=1|10=110|
8=FIX.4.4|9=78|35=S|49=TESTI|56=TESTA|34=14|52=20030204-09:25:43|117=11223|55=TESTB|133=15.3|10=006|
8=FIX.4.4|9=212|35=t|49=TESTI|56=TESTA|34=4|50=30737|97=Y|52=20030204-08:46:14|548=42444008|551=30000008|549=1|550=0|552=2|54=1|11=B202020|41=B101010|38=4000|54=2|11=S202020|41=S101010|38=5000|55=TESTA|60=20060217-10:00:00|40=1|10=248|
8=FIX.4.4|9=95|35=T|49=TESTI|56=TESTA|34=14|52=20030204-09:25:43|777=112233|160=5|792=99|60=20060217-10:00:00|10=211|
8=FIX.4.4|9=207|35=u|49=TESTI|56=TESTA|34=4|50=30737|97=Y|52=20030204-08:46:14|548=42444008|551=30001008|549=1|550=0|552=2|54=1|11=B202020|41=B101010|38=4000|54=2|11=S202020|41=S101010|38=5000|55=TESTA|60=20060217-10:00:00|10=043|
8=FIX.4.4|9=114|35=V|49=TESTI|56=TESTA|34=14|52=20030204-09:25:43|262=11223|263=0|264=0|267=2|269=0|269=1|146=2|55=TESTA|55=TESTB|10=010|
8=FIX.4.4|9=60|35=v|49=TESTI|56=TESTA|34=14|52=20030204-09:25:43|320=11223|10=086|
8=FIX.4.4|9=91|35=W|49=TESTI|56=TESTA|34=14|52=20030204-09:25:43|55=TESTA|268=2|269=4|270=10|269=5|270=11|10=064|
8=FIX.4.4|9=76|35=w|49=TESTI|56=TESTA|34=14|52=20030204-09:25:43|320=11223|322=22115|323=1|10=053|
8=FIX.4.4|9=100|35=X|49=TESTI|56=TESTA|34=14|52=20030204-09:25:43|268=2|279=1|280=0001|270=10|279=1|280=0002|270=11|10=109|
8=FIX.4.4|9=66|35=x|49=TESTI|56=TESTA|34=14|52=20030204-09:25:43|320=11223|559=4|10=115|
8=FIX.4.4|9=60|35=Y|49=TESTI|56=TESTA|34=14|52=20030204-09:25:43|262=11223|10=062|
8=FIX.4.4|9=76|35=y|49=TESTI|56=TESTA|34=14|52=20030204-09:25:43|320=11223|322=22334|560=0|10=060|
8=FIX.4.4|9=66|35=z|49=TESTI|56=TESTA|34=14|52=20030204-09:25:43|320=11223|559=4|10=117|
8=FIX.4.4|9=66|35=Z|49=TESTI|56=TESTA|34=14|52=20030204-09:25:43|117=11223|298=4|10=089|